{
  "_format": "hh-sol-artifact-1",
  "contractName": "RiskRegistry",
  "sourceName": "contracts/RiskRegistry.sol",
  "abi": [
    {
      "inputs": [],
      "stateMutability": "nonpayable",
      "type": "constructor"
    },
    {
      "inputs": [],
      "name": "AccessControlBadConfirmation",
      "type": "error"
    },
    {
      "inputs": [
        {
          "internalType": "address",
          "name": "account",
          "type": "address"
        },
        {
          "internalType": "bytes32",
          "name": "neededRole",
          "type": "bytes32"
        }
      ],
      "name": "AccessControlUnauthorizedAccount",
      "type": "error"
    },
    {
      "inputs": [
        {
          "internalType": "address",
          "name": "target",
          "type": "address"
        }
      ],
      "name": "AddressEmptyCode",
      "type": "error"
    },
    {
      "inputs": [
        {
          "internalType": "uint256",
          "name": "size",
          "type": "uint256"
        },
        {
          "internalType": "uint256",
          "name": "limit",
          "type": "uint256"
        }
      ],
      "name": "BatchSizeExceeded",
      "type": "error"
    },
    {
      "inputs": [],
      "name": "BatchTooLarge",
      "type": "error"
    },
    {
      "inputs": [
        {
          "internalType": "uint256",
          "name": "expected",
          "type": "uint256"
        },
        {
          "internalType": "uint256",
          "name": "actual",
          "type": "uint256"
        }
      ],
      "name": "ChainIdMismatch",
      "type": "error"
    },
    {
      "inputs": [
        {
          "internalType": "address",
          "name": "implementation",
          "type": "address"
        }
      ],
      "name": "ERC1967InvalidImplementation",
      "type": "error"
    },
    {
      "inputs": [],
      "name": "ERC1967NonPayable",
      "type": "error"
    },
    {
      "inputs": [],
      "name": "EnforcedPause",
      "type": "error"
    },
    {
      "inputs": [],
      "name": "ExpectedPause",
      "type": "error"
    },
    {
      "inputs": [],
      "name": "FailedCall",
      "type": "error"
    },
    {
      "inputs": [],
      "name": "InvalidAddress",
      "type": "error"
    },
    {
      "inputs": [],
      "name": "InvalidContractAddress",
      "type": "error"
    },
    {
      "inputs": [],
      "name": "InvalidInitialization",
      "type": "error"
    },
    {
      "inputs": [
        {
          "internalType": "uint256",
          "name": "score",
          "type": "uint256"
        }
      ],
      "name": "InvalidRiskScore",
      "type": "error"
    },
    {
      "inputs": [
        {
          "internalType": "uint8",
          "name": "tier",
          "type": "uint8"
        }
      ],
      "name": "InvalidRiskTier",
      "type": "error"
    },
    {
      "inputs": [],
      "name": "LengthMismatch",
      "type": "error"
    },
    {
      "inputs": [],
      "name": "NotInitializing",
      "type": "error"
    },
    {
      "inputs": [
        {
          "internalType": "address",
          "name": "addr",
          "type": "address"
        }
      ],
      "name": "ProfileNotFound",
      "type": "error"
    },
    {
      "inputs": [],
      "name": "ReentrancyGuardReentrantCall",
      "type": "error"
    },
    {
      "inputs": [
        {
          "internalType": "uint256",
          "name": "expected",
          "type": "uint256"
        },
        {
          "internalType": "uint256",
          "name": "actual",
          "type": "uint256"
        }
      ],
      "name": "StorageLayoutMismatch",
      "type": "error"
    },
    {
      "inputs": [
        {
          "internalType": "uint256",
          "name": "count",
          "type": "uint256"
        },
        {
          "internalType": "uint256",
          "name": "limit",
          "type": "uint256"
        }
      ],
      "name": "TagsLimitExceeded",
      "type": "error"
    },
    {
      "inputs": [],
      "name": "UUPSUnauthorizedCallContext",
      "type": "error"
    },
    {
      "inputs": [
        {
          "internalType": "bytes32",
          "name": "slot",
          "type": "bytes32"
        }
      ],
      "name": "UUPSUnsupportedProxiableUUID",
      "type": "error"
    },
    {
      "inputs": [
        {
          "internalType": "address",
          "name": "addr",
          "type": "address"
        }
      ],
      "name": "UpdateTooFrequent",
      "type": "error"
    },
    {
      "anonymous": false,
      "inputs": [
        {
          "indexed": true,
          "internalType": "address",
          "name": "addr",
          "type": "address"
        },
        {
          "indexed": true,
          "internalType": "bytes32",
          "name": "tag",
          "type": "bytes32"
        }
      ],
      "name": "AddressTagged",
      "type": "event"
    },
    {
      "anonymous": false,
      "inputs": [
        {
          "indexed": true,
          "internalType": "address",
          "name": "addr",
          "type": "address"
        },
        {
          "indexed": true,
          "internalType": "bytes32",
          "name": "tag",
          "type": "bytes32"
        }
      ],
      "name": "AddressUntagged",
      "type": "event"
    },
    {
      "anonymous": false,
      "inputs": [
        {
          "indexed": false,
          "internalType": "uint256",
          "name": "count",
          "type": "uint256"
        },
        {
          "indexed": false,
          "internalType": "uint256",
          "name": "gasUsed",
          "type": "uint256"
        }
      ],
      "name": "BatchUpdateCompleted",
      "type": "event"
    },
    {
      "anonymous": false,
      "inputs": [
        {
          "indexed": true,
          "internalType": "uint256",
          "name": "index",
          "type": "uint256"
        },
        {
          "indexed": false,
          "internalType": "address",
          "name": "addr",
          "type": "address"
        },
        {
          "indexed": false,
          "internalType": "string",
          "name": "reason",
          "type": "string"
        }
      ],
      "name": "BatchUpdateSkipped",
      "type": "event"
    },
    {
      "anonymous": false,
      "inputs": [
        {
          "indexed": true,
          "internalType": "address",
          "name": "account",
          "type": "address"
        },
        {
          "indexed": false,
          "internalType": "uint256",
          "name": "timestamp",
          "type": "uint256"
        }
      ],
      "name": "ContractPaused",
      "type": "event"
    },
    {
      "anonymous": false,
      "inputs": [
        {
          "indexed": true,
          "internalType": "address",
          "name": "account",
          "type": "address"
        },
        {
          "indexed": false,
          "internalType": "uint256",
          "name": "timestamp",
          "type": "uint256"
        }
      ],
      "name": "ContractUnpaused",
      "type": "event"
    },
    {
      "anonymous": false,
      "inputs": [
        {
          "indexed": false,
          "internalType": "uint64",
          "name": "version",
          "type": "uint64"
        }
      ],
      "name": "Initialized",
      "type": "event"
    },
    {
      "anonymous": false,
      "inputs": [
        {
          "indexed": false,
          "internalType": "address",
          "name": "account",
          "type": "address"
        }
      ],
      "name": "Paused",
      "type": "event"
    },
    {
      "anonymous": false,
      "inputs": [
        {
          "indexed": true,
          "internalType": "address",
          "name": "addr",
          "type": "address"
        },
        {
          "indexed": false,
          "internalType": "uint256",
          "name": "riskScore",
          "type": "uint256"
        },
        {
          "indexed": false,
          "internalType": "enum RiskRegistry.RiskTier",
          "name": "tier",
          "type": "uint8"
        },
        {
          "indexed": false,
          "internalType": "bool",
          "name": "wasSanctioned",
          "type": "bool"
        },
        {
          "indexed": false,
          "internalType": "uint256",
          "name": "timestamp",
          "type": "uint256"
        }
      ],
      "name": "RiskProfileRemoved",
      "type": "event"
    },
    {
      "anonymous": false,
      "inputs": [
        {
          "indexed": true,
          "internalType": "address",
          "name": "addr",
          "type": "address"
        },
        {
          "indexed": false,
          "internalType": "uint256",
          "name": "riskScore",
          "type": "uint256"
        },
        {
          "indexed": false,
          "internalType": "enum RiskRegistry.RiskTier",
          "name": "tier",
          "type": "uint8"
        },
        {
          "indexed": false,
          "internalType": "bool",
          "name": "isSanctioned",
          "type": "bool"
        }
      ],
      "name": "RiskProfileUpdated",
      "type": "event"
    },
    {
      "anonymous": false,
      "inputs": [
        {
          "indexed": true,
          "internalType": "bytes32",
          "name": "role",
          "type": "bytes32"
        },
        {
          "indexed": true,
          "internalType": "bytes32",
          "name": "previousAdminRole",
          "type": "bytes32"
        },
        {
          "indexed": true,
          "internalType": "bytes32",
          "name": "newAdminRole",
          "type": "bytes32"
        }
      ],
      "name": "RoleAdminChanged",
      "type": "event"
    },
    {
      "anonymous": false,
      "inputs": [
        {
          "indexed": true,
          "internalType": "bytes32",
          "name": "role",
          "type": "bytes32"
        },
        {
          "indexed": true,
          "internalType": "address",
          "name": "account",
          "type": "address"
        },
        {
          "indexed": true,
          "internalType": "address",
          "name": "sender",
          "type": "address"
        }
      ],
      "name": "RoleGranted",
      "type": "event"
    },
    {
      "anonymous": false,
      "inputs": [
        {
          "indexed": true,
          "internalType": "bytes32",
          "name": "role",
          "type": "bytes32"
        },
        {
          "indexed": true,
          "internalType": "address",
          "name": "account",
          "type": "address"
        },
        {
          "indexed": true,
          "internalType": "address",
          "name": "sender",
          "type": "address"
        },
        {
          "indexed": false,
          "internalType": "uint256",
          "name": "timestamp",
          "type": "uint256"
        },
        {
          "indexed": false,
          "internalType": "string",
          "name": "reason",
          "type": "string"
        }
      ],
      "name": "RoleGrantedDetailed",
      "type": "event"
    },
    {
      "anonymous": false,
      "inputs": [
        {
          "indexed": true,
          "internalType": "bytes32",
          "name": "role",
          "type": "bytes32"
        },
        {
          "indexed": true,
          "internalType": "address",
          "name": "account",
          "type": "address"
        },
        {
          "indexed": true,
          "internalType": "address",
          "name": "sender",
          "type": "address"
        }
      ],
      "name": "RoleRevoked",
      "type": "event"
    },
    {
      "anonymous": false,
      "inputs": [
        {
          "indexed": true,
          "internalType": "bytes32",
          "name": "role",
          "type": "bytes32"
        },
        {
          "indexed": true,
          "internalType": "address",
          "name": "account",
          "type": "address"
        },
        {
          "indexed": true,
          "internalType": "address",
          "name": "sender",
          "type": "address"
        },
        {
          "indexed": false,
          "internalType": "uint256",
          "name": "timestamp",
          "type": "uint256"
        },
        {
          "indexed": false,
          "internalType": "string",
          "name": "reason",
          "type": "string"
        }
      ],
      "name": "RoleRevokedDetailed",
      "type": "event"
    },
    {
      "anonymous": false,
      "inputs": [
        {
          "indexed": false,
          "internalType": "uint256",
          "name": "oldVersion",
          "type": "uint256"
        },
        {
          "indexed": false,
          "internalType": "uint256",
          "name": "newVersion",
          "type": "uint256"
        }
      ],
      "name": "StorageLayoutUpgraded",
      "type": "event"
    },
    {
      "anonymous": false,
      "inputs": [
        {
          "indexed": false,
          "internalType": "address",
          "name": "account",
          "type": "address"
        }
      ],
      "name": "Unpaused",
      "type": "event"
    },
    {
      "anonymous": false,
      "inputs": [
        {
          "indexed": true,
          "internalType": "bytes32",
          "name": "proposalId",
          "type": "bytes32"
        },
        {
          "indexed": true,
          "internalType": "address",
          "name": "newImplementation",
          "type": "address"
        }
      ],
      "name": "UpgradeExecuted",
      "type": "event"
    },
    {
      "anonymous": false,
      "inputs": [
        {
          "indexed": true,
          "internalType": "bytes32",
          "name": "proposalId",
          "type": "bytes32"
        },
        {
          "indexed": true,
          "internalType": "address",
          "name": "newImplementation",
          "type": "address"
        },
        {
          "indexed": false,
          "internalType": "uint256",
          "name": "executeAfter",
          "type": "uint256"
        }
      ],
      "name": "UpgradeProposed",
      "type": "event"
    },
    {
      "anonymous": false,
      "inputs": [
        {
          "indexed": true,
          "internalType": "address",
          "name": "implementation",
          "type": "address"
        }
      ],
      "name": "Upgraded",
      "type": "event"
    },
    {
      "anonymous": false,
      "inputs": [
        {
          "indexed": false,
          "internalType": "string",
          "name": "functionName",
          "type": "string"
        },
        {
          "indexed": false,
          "internalType": "uint256",
          "name": "timestamp",
          "type": "uint256"
        }
      ],
      "name": "ZeroAddressRejected",
      "type": "event"
    },
    {
      "inputs": [],
      "name": "ADMIN_ROLE",
      "outputs": [
        {
          "internalType": "bytes32",
          "name": "",
          "type": "bytes32"
        }
      ],
      "stateMutability": "view",
      "type": "function"
    },
    {
      "inputs": [],
      "name": "BATCH_MAX_SIZE",
      "outputs": [
        {
          "internalType": "uint256",
          "name": "",
          "type": "uint256"
        }
      ],
      "stateMutability": "view",
      "type": "function"
    },
    {
      "inputs": [],
      "name": "COMPLIANCE_ENGINE_ROLE",
      "outputs": [
        {
          "internalType": "bytes32",
          "name": "",
          "type": "bytes32"
        }
      ],
      "stateMutability": "view",
      "type": "function"
    },
    {
      "inputs": [],
      "name": "DEFAULT_ADMIN_ROLE",
      "outputs": [
        {
          "internalType": "bytes32",
          "name": "",
          "type": "bytes32"
        }
      ],
      "stateMutability": "view",
      "type": "function"
    },
    {
      "inputs": [],
      "name": "MAX_TAGS_PER_ADDRESS",
      "outputs": [
        {
          "internalType": "uint256",
          "name": "",
          "type": "uint256"
        }
      ],
      "stateMutability": "view",
      "type": "function"
    },
    {
      "inputs": [],
      "name": "MIN_UPDATE_INTERVAL",
      "outputs": [
        {
          "internalType": "uint256",
          "name": "",
          "type": "uint256"
        }
      ],
      "stateMutability": "view",
      "type": "function"
    },
    {
      "inputs": [],
      "name": "ORACLE_ROLE",
      "outputs": [
        {
          "internalType": "bytes32",
          "name": "",
          "type": "bytes32"
        }
      ],
      "stateMutability": "view",
      "type": "function"
    },
    {
      "inputs": [],
      "name": "UPGRADE_INTERFACE_VERSION",
      "outputs": [
        {
          "internalType": "string",
          "name": "",
          "type": "string"
        }
      ],
      "stateMutability": "view",
      "type": "function"
    },
    {
      "inputs": [],
      "name": "VERSION",
      "outputs": [
        {
          "internalType": "string",
          "name": "",
          "type": "string"
        }
      ],
      "stateMutability": "view",
      "type": "function"
    },
    {
      "inputs": [
        {
          "internalType": "address[]",
          "name": "addrs",
          "type": "address[]"
        },
        {
          "internalType": "uint8[]",
          "name": "riskScores",
          "type": "uint8[]"
        },
        {
          "internalType": "enum RiskRegistry.RiskTier[]",
          "name": "tiers",
          "type": "uint8[]"
        },
        {
          "internalType": "bool[]",
          "name": "sanctioned",
          "type": "bool[]"
        },
        {
          "internalType": "bytes32[][]",
          "name": "tags",
          "type": "bytes32[][]"
        }
      ],
      "name": "batchUpdateRiskProfiles",
      "outputs": [],
      "stateMutability": "nonpayable",
      "type": "function"
    },
    {
      "inputs": [],
      "name": "chainId",
      "outputs": [
        {
          "internalType": "uint256",
          "name": "",
          "type": "uint256"
        }
      ],
      "stateMutability": "view",
      "type": "function"
    },
    {
      "inputs": [],
      "name": "getHighRiskAddresses",
      "outputs": [
        {
          "internalType": "address[]",
          "name": "",
          "type": "address[]"
        }
      ],
      "stateMutability": "view",
      "type": "function"
    },
    {
      "inputs": [
        {
          "internalType": "address",
          "name": "addr",
          "type": "address"
        }
      ],
      "name": "getProfile",
      "outputs": [
        {
          "internalType": "uint256",
          "name": "riskScore",
          "type": "uint256"
        },
        {
          "internalType": "address",
          "name": "profileAddr",
          "type": "address"
        },
        {
          "internalType": "uint32",
          "name": "lastUpdated",
          "type": "uint32"
        },
        {
          "internalType": "uint8",
          "name": "riskTier",
          "type": "uint8"
        },
        {
          "internalType": "uint8",
          "name": "sourceConfidence",
          "type": "uint8"
        },
        {
          "internalType": "bool",
          "name": "sanctioned",
          "type": "bool"
        },
        {
          "internalType": "bool",
          "name": "exists",
          "type": "bool"
        },
        {
          "internalType": "bytes32[]",
          "name": "tags",
          "type": "bytes32[]"
        }
      ],
      "stateMutability": "view",
      "type": "function"
    },
    {
      "inputs": [
        {
          "internalType": "address",
          "name": "addr",
          "type": "address"
        }
      ],
      "name": "getRiskProfile",
      "outputs": [
        {
          "internalType": "uint8",
          "name": "riskScore",
          "type": "uint8"
        },
        {
          "internalType": "enum RiskRegistry.RiskTier",
          "name": "tier",
          "type": "uint8"
        },
        {
          "internalType": "bytes32[]",
          "name": "tags",
          "type": "bytes32[]"
        },
        {
          "internalType": "uint256",
          "name": "lastUpdated",
          "type": "uint256"
        },
        {
          "internalType": "bool",
          "name": "isSanctioned",
          "type": "bool"
        }
      ],
      "stateMutability": "view",
      "type": "function"
    },
    {
      "inputs": [
        {
          "internalType": "address",
          "name": "addr",
          "type": "address"
        }
      ],
      "name": "getRiskScore",
      "outputs": [
        {
          "internalType": "uint8",
          "name": "",
          "type": "uint8"
        }
      ],
      "stateMutability": "view",
      "type": "function"
    },
    {
      "inputs": [
        {
          "internalType": "address",
          "name": "addr",
          "type": "address"
        }
      ],
      "name": "getRiskTier",
      "outputs": [
        {
          "internalType": "enum RiskRegistry.RiskTier",
          "name": "",
          "type": "uint8"
        }
      ],
      "stateMutability": "view",
      "type": "function"
    },
    {
      "inputs": [
        {
          "internalType": "bytes32",
          "name": "role",
          "type": "bytes32"
        }
      ],
      "name": "getRoleAdmin",
      "outputs": [
        {
          "internalType": "bytes32",
          "name": "",
          "type": "bytes32"
        }
      ],
      "stateMutability": "view",
      "type": "function"
    },
    {
      "inputs": [],
      "name": "getSanctionedAddresses",
      "outputs": [
        {
          "internalType": "address[]",
          "name": "",
          "type": "address[]"
        }
      ],
      "stateMutability": "view",
      "type": "function"
    },
    {
      "inputs": [
        {
          "internalType": "address",
          "name": "addr",
          "type": "address"
        }
      ],
      "name": "getTags",
      "outputs": [
        {
          "internalType": "bytes32[]",
          "name": "",
          "type": "bytes32[]"
        }
      ],
      "stateMutability": "view",
      "type": "function"
    },
    {
      "inputs": [
        {
          "internalType": "bytes32",
          "name": "role",
          "type": "bytes32"
        },
        {
          "internalType": "address",
          "name": "account",
          "type": "address"
        }
      ],
      "name": "grantRole",
      "outputs": [],
      "stateMutability": "nonpayable",
      "type": "function"
    },
    {
      "inputs": [
        {
          "internalType": "bytes32",
          "name": "role",
          "type": "bytes32"
        },
        {
          "internalType": "address",
          "name": "account",
          "type": "address"
        },
        {
          "internalType": "string",
          "name": "reason",
          "type": "string"
        }
      ],
      "name": "grantRoleWithReason",
      "outputs": [],
      "stateMutability": "nonpayable",
      "type": "function"
    },
    {
      "inputs": [
        {
          "internalType": "bytes32",
          "name": "role",
          "type": "bytes32"
        },
        {
          "internalType": "address",
          "name": "account",
          "type": "address"
        }
      ],
      "name": "hasRole",
      "outputs": [
        {
          "internalType": "bool",
          "name": "",
          "type": "bool"
        }
      ],
      "stateMutability": "view",
      "type": "function"
    },
    {
      "inputs": [],
      "name": "highRiskAddressCount",
      "outputs": [
        {
          "internalType": "uint256",
          "name": "",
          "type": "uint256"
        }
      ],
      "stateMutability": "view",
      "type": "function"
    },
    {
      "inputs": [
        {
          "internalType": "uint256",
          "name": "",
          "type": "uint256"
        }
      ],
      "name": "highRiskAddresses",
      "outputs": [
        {
          "internalType": "address",
          "name": "",
          "type": "address"
        }
      ],
      "stateMutability": "view",
      "type": "function"
    },
    {
      "inputs": [
        {
          "internalType": "address",
          "name": "",
          "type": "address"
        }
      ],
      "name": "highRiskIndex",
      "outputs": [
        {
          "internalType": "uint256",
          "name": "",
          "type": "uint256"
        }
      ],
      "stateMutability": "view",
      "type": "function"
    },
    {
      "inputs": [
        {
          "internalType": "address",
          "name": "",
          "type": "address"
        }
      ],
      "name": "implementationToProposal",
      "outputs": [
        {
          "internalType": "bytes32",
          "name": "",
          "type": "bytes32"
        }
      ],
      "stateMutability": "view",
      "type": "function"
    },
    {
      "inputs": [
        {
          "internalType": "address",
          "name": "admin",
          "type": "address"
        }
      ],
      "name": "initialize",
      "outputs": [],
      "stateMutability": "nonpayable",
      "type": "function"
    },
    {
      "inputs": [
        {
          "internalType": "address",
          "name": "addr",
          "type": "address"
        }
      ],
      "name": "isHighRisk",
      "outputs": [
        {
          "internalType": "bool",
          "name": "",
          "type": "bool"
        }
      ],
      "stateMutability": "view",
      "type": "function"
    },
    {
      "inputs": [
        {
          "internalType": "address",
          "name": "addr",
          "type": "address"
        }
      ],
      "name": "isSanctioned",
      "outputs": [
        {
          "internalType": "bool",
          "name": "",
          "type": "bool"
        }
      ],
      "stateMutability": "view",
      "type": "function"
    },
    {
      "inputs": [],
      "name": "lastGlobalUpdate",
      "outputs": [
        {
          "internalType": "uint256",
          "name": "",
          "type": "uint256"
        }
      ],
      "stateMutability": "view",
      "type": "function"
    },
    {
      "inputs": [],
      "name": "pause",
      "outputs": [],
      "stateMutability": "nonpayable",
      "type": "function"
    },
    {
      "inputs": [],
      "name": "paused",
      "outputs": [
        {
          "internalType": "bool",
          "name": "",
          "type": "bool"
        }
      ],
      "stateMutability": "view",
      "type": "function"
    },
    {
      "inputs": [
        {
          "internalType": "address",
          "name": "newImplementation",
          "type": "address"
        }
      ],
      "name": "proposeUpgrade",
      "outputs": [
        {
          "internalType": "bytes32",
          "name": "proposalId",
          "type": "bytes32"
        }
      ],
      "stateMutability": "nonpayable",
      "type": "function"
    },
    {
      "inputs": [],
      "name": "proxiableUUID",
      "outputs": [
        {
          "internalType": "bytes32",
          "name": "",
          "type": "bytes32"
        }
      ],
      "stateMutability": "view",
      "type": "function"
    },
    {
      "inputs": [
        {
          "internalType": "address",
          "name": "addr",
          "type": "address"
        }
      ],
      "name": "removeRiskProfile",
      "outputs": [],
      "stateMutability": "nonpayable",
      "type": "function"
    },
    {
      "inputs": [
        {
          "internalType": "bytes32",
          "name": "role",
          "type": "bytes32"
        },
        {
          "internalType": "address",
          "name": "callerConfirmation",
          "type": "address"
        }
      ],
      "name": "renounceRole",
      "outputs": [],
      "stateMutability": "nonpayable",
      "type": "function"
    },
    {
      "inputs": [
        {
          "internalType": "bytes32",
          "name": "role",
          "type": "bytes32"
        },
        {
          "internalType": "address",
          "name": "account",
          "type": "address"
        }
      ],
      "name": "revokeRole",
      "outputs": [],
      "stateMutability": "nonpayable",
      "type": "function"
    },
    {
      "inputs": [
        {
          "internalType": "bytes32",
          "name": "role",
          "type": "bytes32"
        },
        {
          "internalType": "address",
          "name": "account",
          "type": "address"
        },
        {
          "internalType": "string",
          "name": "reason",
          "type": "string"
        }
      ],
      "name": "revokeRoleWithReason",
      "outputs": [],
      "stateMutability": "nonpayable",
      "type": "function"
    },
    {
      "inputs": [
        {
          "internalType": "address",
          "name": "",
          "type": "address"
        }
      ],
      "name": "riskProfiles",
      "outputs": [
        {
          "internalType": "uint256",
          "name": "riskScore",
          "type": "uint256"
        },
        {
          "internalType": "address",
          "name": "addr",
          "type": "address"
        },
        {
          "internalType": "uint32",
          "name": "lastUpdated",
          "type": "uint32"
        },
        {
          "internalType": "uint8",
          "name": "riskTier",
          "type": "uint8"
        },
        {
          "internalType": "uint8",
          "name": "sourceConfidence",
          "type": "uint8"
        },
        {
          "internalType": "bool",
          "name": "sanctioned",
          "type": "bool"
        },
        {
          "internalType": "bool",
          "name": "exists",
          "type": "bool"
        }
      ],
      "stateMutability": "view",
      "type": "function"
    },
    {
      "inputs": [],
      "name": "sanctionedAddressCount",
      "outputs": [
        {
          "internalType": "uint256",
          "name": "",
          "type": "uint256"
        }
      ],
      "stateMutability": "view",
      "type": "function"
    },
    {
      "inputs": [
        {
          "internalType": "uint256",
          "name": "",
          "type": "uint256"
        }
      ],
      "name": "sanctionedAddresses",
      "outputs": [
        {
          "internalType": "address",
          "name": "",
          "type": "address"
        }
      ],
      "stateMutability": "view",
      "type": "function"
    },
    {
      "inputs": [
        {
          "internalType": "address",
          "name": "",
          "type": "address"
        }
      ],
      "name": "sanctionedIndex",
      "outputs": [
        {
          "internalType": "uint256",
          "name": "",
          "type": "uint256"
        }
      ],
      "stateMutability": "view",
      "type": "function"
    },
    {
      "inputs": [],
      "name": "storageLayoutVersion",
      "outputs": [
        {
          "internalType": "uint256",
          "name": "",
          "type": "uint256"
        }
      ],
      "stateMutability": "view",
      "type": "function"
    },
    {
      "inputs": [
        {
          "internalType": "bytes4",
          "name": "interfaceId",
          "type": "bytes4"
        }
      ],
      "name": "supportsInterface",
      "outputs": [
        {
          "internalType": "bool",
          "name": "",
          "type": "bool"
        }
      ],
      "stateMutability": "view",
      "type": "function"
    },
    {
      "inputs": [],
      "name": "totalHighRisk",
      "outputs": [
        {
          "internalType": "uint256",
          "name": "",
          "type": "uint256"
        }
      ],
      "stateMutability": "view",
      "type": "function"
    },
    {
      "inputs": [],
      "name": "totalProfiles",
      "outputs": [
        {
          "internalType": "uint256",
          "name": "",
          "type": "uint256"
        }
      ],
      "stateMutability": "view",
      "type": "function"
    },
    {
      "inputs": [],
      "name": "totalSanctioned",
      "outputs": [
        {
          "internalType": "uint256",
          "name": "",
          "type": "uint256"
        }
      ],
      "stateMutability": "view",
      "type": "function"
    },
    {
      "inputs": [],
      "name": "unpause",
      "outputs": [],
      "stateMutability": "nonpayable",
      "type": "function"
    },
    {
      "inputs": [
        {
          "internalType": "address",
          "name": "addr",
          "type": "address"
        },
        {
          "internalType": "uint8",
          "name": "riskScore",
          "type": "uint8"
        },
        {
          "internalType": "enum RiskRegistry.RiskTier",
          "name": "tier",
          "type": "uint8"
        },
        {
          "internalType": "bytes32[]",
          "name": "tags",
          "type": "bytes32[]"
        },
        {
          "internalType": "bool",
          "name": "sanctioned",
          "type": "bool"
        }
      ],
      "name": "updateRiskProfile",
      "outputs": [],
      "stateMutability": "nonpayable",
      "type": "function"
    },
    {
      "inputs": [
        {
          "internalType": "bytes32",
          "name": "",
          "type": "bytes32"
        }
      ],
      "name": "upgradeProposals",
      "outputs": [
        {
          "internalType": "uint256",
          "name": "",
          "type": "uint256"
        }
      ],
      "stateMutability": "view",
      "type": "function"
    },
    {
      "inputs": [],
      "name": "upgradeTimelockDelay",
      "outputs": [
        {
          "internalType": "uint256",
          "name": "",
          "type": "uint256"
        }
      ],
      "stateMutability": "view",
      "type": "function"
    },
    {
      "inputs": [
        {
          "internalType": "address",
          "name": "newImplementation",
          "type": "address"
        },
        {
          "internalType": "bytes",
          "name": "data",
          "type": "bytes"
        }
      ],
      "name": "upgradeToAndCall",
      "outputs": [],
      "stateMutability": "payable",
      "type": "function"
    }
  ],
  "bytecode": "0x60a06040523461003257610011610036565b6040516138086101de8239608051818181612b660152612e26015261380890f35b5f80fd5b61003e61007d565b610046610101565b565b61005c9061005f906001600160a01b031682565b90565b6001600160a01b031690565b61005c90610048565b61005c9061006b565b61008630610074565b608052565b61005c9060401c60ff1690565b61005c905461008b565b61005c905b6001600160401b031690565b61005c90546100a2565b61005c906100a7906001600160401b031682565b906100e161005c6100fd926100bd565b82546001600160401b0319166001600160401b03919091161790565b9055565b5f61010a610197565b0161011481610098565b61018657610121816100b3565b6001600160401b0391908290811603610138575050565b816101677fc7f505b2f371ae2175ee4913f4499e1f2633a7b5936321eed1cdaeb6115181d293610181936100d1565b604051918291826001600160401b03909116815260200190565b0390a1565b63f92ee8a960e01b5f908152600490fd5b61005c6101d5565b61005c61005c61005c9290565b61005c7ff0c57e16840df040f15088dc2f81fe391c3923bec73e23a9662efc9c229c6a0061019f565b61005c6101ac56fe60806040526004361015610011575f80fd5b5f3560e01c806301ffc9a71461035057806307e2cea51461034b57806309a212b9146103465780630c5d918c146103415780630f53a4701461033c57806320586f5f14610337578063248a9ca3146103325780632f2ff15d1461032d5780633161a83f1461032857806336568abe146103235780633f4ba83a1461031e5780634c95da66146103195780634f1ef2861461031457806352d1902d1461030f57806359ccf2111461030a5780635a6fcd40146103055780635c975abb146103005780635fc46f90146102fb5780636259e448146102f657806375b238fc146102f15780637e553ba3146102ec57806380ba8c82146102e757806381f20a1d146102e25780638241c288146102dd5780638456cb59146102d85780638b285e3c146102d357806391d14854146102ce578063935324df146102c957806393f8a1dc146102c45780639948b18d146102bf5780639a8a0592146102ba578063a217fddf146102b5578063a91565e7146102b0578063ad3cb1cc146102ab578063b1c486c0146102a6578063bacd5623146102a1578063baf1e57f1461029c578063bd3be27c14610297578063c4d66de814610292578063c7661b551461028d578063c915fc9314610288578063d2adbe7914610283578063d547741f1461027e578063d55470c614610279578063d6a1fe3b14610274578063dc08706d1461026f578063dc3d7e8a1461026a578063df592f7d14610265578063e2fdc7f614610260578063ff33d22f1461025b578063ff7cc7f6146102565763ffa1ad7403610355576112e9565b611291565b6111c9565b61119f565b611172565b611157565b611128565b61110d565b6110c9565b6110b0565b611095565b61106f565b611053565b61103b565b611020565b610fdc565b610f71565b610f56565b610f24565b610e74565b610e4e565b610e22565b610da0565b610c8c565b610c65565b610bf2565b610bd7565b610baa565b610b8f565b610b65565b610b3f565b610b0f565b610ae9565b610acd565b610a32565b610a06565b6109eb565b6109c1565b6108d5565b6108c1565b6107a6565b61073f565b610726565b6106f1565b610664565b610626565b6105e4565b610547565b61043e565b610423565b6103d1565b610396565b5f80fd5b6001600160e01b031981165b0361035557565b9050359061037982610359565b565b906020828203126103555761038f9161036c565b90565b9052565b34610355576103c36103b16103ac36600461037b565b611304565b60405191829182901515815260200190565b0390f35b5f91031261035557565b34610355576103e13660046103c7565b6103c35f8051602061377c8339815191525b6040515b9182918290815260200190565b61038f61038f61038f9290565b61038f600a610404565b61038f610411565b34610355576104333660046103c7565b6103c36103f361041b565b346103555761044e3660046103c7565b6103c36103f360335490565b6001600160a01b031690565b6001600160a01b038116610365565b9050359061037982610466565b906020828203126103555761038f91610475565b0190565b906104ba6104b36104a9845190565b8084529260200190565b9260200190565b905f5b8181106104ca5750505090565b9091926104e76104e06001928651815260200190565b9460200190565b9291016104bd565b9081526001600160a01b0391909116602082015263ffffffff909116604082015260ff91821660608201529116608082015290151560a082015290151560c082015261010060e0820181905261038f9291019061049a565b34610355576103c361056261055d366004610482565b6113c7565b9461057598969894919493929360405190565b988998896104ef565b61038f9061045a906001600160a01b031682565b61038f9061057e565b61038f90610592565b906105ae9061059b565b5f5260205260405f2090565b61038f916008021c81565b9061038f91546105ba565b5f6105df61038f9260356105a4565b6105c5565b34610355576103c36103f36105fa366004610482565b6105d0565b80610365565b90503590610379826105ff565b906020828203126103555761038f91610605565b34610355576103c36103f361063c366004610612565b61143b565b91906040838203126103555761038f90602061065d8286610605565b9401610475565b346103555761067d610677366004610641565b9061148b565b604051005b634e487b7160e01b5f52603260045260245ffd5b80548210156106b6576106ae6001915f5260205f2090565b910201905f90565b610682565b61038f916008021c61045a565b9061038f91546106bb565b603354811015610355576106eb61038f916033610696565b906106c8565b34610355576103c361070c610707366004610612565b6106d3565b604051918291826001600160a01b03909116815260200190565b346103555761067d610739366004610641565b90611495565b346103555761074f3660046103c7565b61067d61152e565b634e487b7160e01b5f52602160045260245ffd5b6005111561077557565b610757565b906103798261076b565b61038f9061077a565b61039290610784565b602081019291610379919061078d565b34610355576103c36107c16107bc366004610482565b61154b565b60405191829182610796565b634e487b7160e01b5f52604160045260245ffd5b90601f01601f191681019081106001600160401b0382111761080257604052565b6107cd565b9061037961081460405190565b92836107e1565b6001600160401b03811161080257602090601f01601f19160190565b90825f939282370152565b909291926108576108528261081b565b610807565b938185528183011161035557610379916020850190610837565b9080601f830112156103555781602061038f93359101610842565b919091604081840312610355576108a38382610475565b9260208201356001600160401b0381116103555761038f9201610871565b61067d6108cf36600461088c565b906115a9565b34610355576108e53660046103c7565b6103c36103f36115f6565b60ff8116610365565b90503590610379826108f0565b6005111561035557565b9050359061037982610906565b909182601f83011215610355578135916001600160401b03831161035557602001926020830284011161035557565b801515610365565b905035906103798261094c565b9160a083830312610355576109768284610475565b9261098483602083016108f9565b926109928160408401610910565b9260608301356001600160401b03811161035557826109b860809461038f93870161091d565b94909501610954565b346103555761067d6109d4366004610961565b9493909392919261188f565b61038f5f603a6105c5565b34610355576109fb3660046103c7565b6103c36103f36109e0565b3461035557610a163660046103c7565b6103c36103b16118b0565b602080825261038f9291019061049a565b34610355576103c3610a4d610a48366004610482565b6118d9565b60405191829182610a21565b909182601f83011215610355578135916001600160401b03831161035557602001926001830284011161035557565b9160608383031261035557610a9d8284610605565b92610aab8360208301610475565b9260408201356001600160401b03811161035557610ac99201610a59565b9091565b346103555761067d610ae0366004610a88565b929190916119a3565b3461035557610af93660046103c7565b6103c35f805160206137dc8339815191526103f3565b346103555761067d610b22366004610482565b611d59565b603454811015610355576106eb61038f916034610696565b34610355576103c361070c610b55366004610612565b610b27565b61038f5f603c6105c5565b3461035557610b753660046103c7565b6103c36103f3610b5a565b5f6105df61038f92603e6105a4565b34610355576103c36103f3610ba5366004610482565b610b80565b3461035557610bba3660046103c7565b61067d611db6565b906105ae565b5f6105df61038f92603d610bc2565b34610355576103c36103f3610bed366004610612565b610bc8565b34610355576103c36103b1610c08366004610641565b90611dbe565b90610c1d6104b36104a9845190565b905f5b818110610c2d5750505090565b909192610c4c6104e060019286516001600160a01b0316815260200190565b929101610c20565b602080825261038f92910190610c0e565b3461035557610c753660046103c7565b6103c3610c80611e6b565b60405191829182610c54565b3461035557610c9c3660046103c7565b6103c3610c80611e75565b61038f9081565b61038f9054610ca7565b61038f9061045a565b61038f9054610cb8565b61038f9060a01c5b63ffffffff1690565b61038f9054610ccb565b61038f9060c01c5b60ff1690565b61038f9054610ce6565b61038f9060c81c610cee565b61038f9054610cfe565b61038f9060d01c610cee565b61038f9054610d14565b61038f9060d81c610cee565b61038f9054610d2a565b610d4b9060326105a4565b610d5481610cae565b91610d6160018301610cc1565b91610d6e60018201610cdc565b91610d7b60018301610cf4565b91610d8860018201610d0a565b9161038f6001610d99818501610d20565b9301610d36565b34610355576103c3610dbb610db6366004610482565b610d40565b93610dcb97959793919360405190565b978897889081526001600160a01b0391909116602082015263ffffffff909116604082015260ff91821660608201529116608082015290151560a082015290151560c082015260e00190565b61038f5f603f6105c5565b3461035557610e323660046103c7565b6103c36103f3610e17565b61038f5f610404565b61038f610e3d565b3461035557610e5e3660046103c7565b6103c36103f3610e46565b61038f5f60396105c5565b3461035557610e843660046103c7565b6103c36103f3610e69565b90610e9c6108528361081b565b918252565b610eab6005610e8f565b640352e302e360dc1b602082015290565b61038f610ea1565b61038f610ebc565b61038f610ec4565b90825f9392825e0152565b610f00610f0960209361049693610ef4815190565b80835293849260200190565b95869101610ed4565b601f01601f191690565b602080825261038f92910190610edf565b3461035557610f343660046103c7565b6103c3610f3f610ecc565b60405191829182610f13565b61038f5f60386105c5565b3461035557610f663660046103c7565b6103c36103f3610f4b565b346103555761067d610f84366004610a88565b92919091611ec7565b90610fcc610fd49161037996989795610fbf608096610fb560a08801945f89019060ff169052565b602087019061078d565b848203604086015261049a565b966060830152565b019015159052565b34610355576103c3610ff7610ff2366004610482565b611ef3565b9161100495939560405190565b95869586610f8d565b61038f610e10610404565b61038f61100d565b34610355576110303660046103c7565b6103c36103f3611018565b346103555761067d61104e366004610482565b61225e565b34610355576110633660046103c7565b6103c36103f360345490565b34610355576103c36103f3611085366004610482565b612411565b61038f5f60376105c5565b34610355576110a53660046103c7565b6103c36103f361108a565b346103555761067d6110c3366004610641565b90612436565b34610355576110d93660046103c7565b6103c37fdb857e9d93c247629b25e70ad22514c7c659a3f0f17748df0f8afa934124c9486103f3565b61038f5f603b6105c5565b346103555761111d3660046103c7565b6103c36103f3611102565b34610355576103c361114361113e366004610482565b612440565b6040519182918260ff909116815260200190565b34610355576103c36103b161116d366004610482565b612452565b34610355576103c36103b1611188366004610482565b612495565b61038f6064610404565b61038f61118d565b34610355576111af3660046103c7565b6103c36103f3611197565b5f6105df61038f9260366105a4565b34610355576103c36103f36111df366004610482565b6111ba565b9060a0828203126103555781356001600160401b038111610355578161120b91840161091d565b92909360208201356001600160401b038111610355578361122d91840161091d565b92909360408201356001600160401b038111610355578161124f91840161091d565b92909360608201356001600160401b038111610355578361127191840161091d565b92909360808201356001600160401b03811161035557610ac9920161091d565b346103555761067d6112a43660046111e4565b989790979691969592959493946129c0565b6112c06005610e8f565b64189719171960d91b602082015290565b61038f6112b6565b61038f6112d1565b61038f6112d9565b34610355576112f93660046103c7565b6103c3610f3f6112e1565b637965db0b60e01b6001600160e01b0319821614908115611323575090565b61038f91506001600160e01b0319166301ffc9a760e01b1490565b9061135761134d6104a9845490565b925f5260205f2090565b905f5b8181106113675750505090565b90919261138b61138460019261137c87610cae565b815260200190565b9460010190565b92910161135a565b9061038f9161133e565b906103796113b7926113ae60405190565b93848092611393565b03836107e1565b61038f9061139d565b61038f6113e1916113d55f90565b5060605b5060326105a4565b6113ea81610cae565b60018201926113f884610cc1565b9361140281610cdc565b9361140c82610cf4565b9361141683610d0a565b9361038f600261142e61142887610d20565b96610d36565b93999897969594016113be565b600161146261038f9261144b5f90565b505f5f805160206137bc8339815191525b01610bc2565b01610cae565b906103799161147e6114798261143b565b6129d2565b90611488916129fd565b50565b9061037991611468565b9061149f3361045a565b6001600160a01b038216036114b75761148891612a86565b63334bd91960e11b5f908152600490fd5b035ffd5b6114e25f805160206137dc8339815191526129d2565b6103796114ed612b53565b6114f63361059b565b7f107553d8191d85b405879cf752997865edd48d94e20bda4dd27223c94b31a7cc61152060405190565b42815280602081015b0390a2565b6103796114cc565b61154661038f61038f9260ff1690565b61077a565b611561600161155b8360326105a4565b01610d20565b6115835761157e600161157861038f9360326105a4565b01610cf4565b611536565b50600490565b9061037991611596612b5b565b90610379916115a481612d28565b612d52565b9061037991611589565b61038f906115bf612e10565b6115ed565b61038f7f360894a13ba1a3210667c828492db98dca3e2076cc3735a920a3ca505d382bbc610404565b5061038f6115c4565b61038f5f6115b3565b61037995949392919061161e5f8051602061377c8339815191526129d2565b611639565b61045a61038f61038f9290565b61038f90611623565b949392919061164a61045a5f611630565b6001600160a01b038716146116625761037995611683565b63e6c4247b60e01b5f908152600490fd5b61038f61038f61038f9260ff1690565b95949392919061169281611673565b9661169d6064610404565b88116116ae576103799697506116c4565b6327aaa06960e21b5f9081526004899052602490fd5b9594939291956116d387610784565b6116ea6116e3610cee6004610784565b9160ff1690565b116116fb5790610379959691611721565b5f6114c861170889610784565b637871e1b960e01b835260ff1660048301526024820190565b906103799594939291611732612e52565b906117489594939291611743612e7b565b611808565b610379612eb8565b9081526040810192916103799160200152565b0152565b6001600160401b0381116108025760208091020190565b9092919261178e61085282611767565b938185526020808601920283019281841161035557915b8383106117b25750505050565b602080916117c08486610605565b8152019201916117a5565b61038f91369161177e565b61039290611673565b604090610fd461037994969593966117fe60608401985f8501906117d6565b602083019061078d565b9193909281611815610411565b908181116118775750507fbc8ea370a29c98d0c9992979f56d2f7953a64a0cb06411399b3a2328be52dfc494939261185f61185661152994611864946117cb565b8887878561307e565b61059b565b9461186e60405190565b938493846117df565b630f25944560e31b5f908152916114c8916004611750565b9061037995949392916115ff565b61038f90610cee565b61038f905461189d565b61038f7fcd5ed15c6e187e77e9aee88184c21f4f2182ab5827cb3b7e07fbedcd63f033006118a6565b60026118ea61038f926113d9606090565b016113be565b906103799392916119036114798261143b565b61193e565b9190610f098161191f816104969560209181520190565b8095610837565b90815260406020820181905261038f93910191611908565b61197d6119777f26c5264b502d6057e1a4377e90dd7bdad79766d1694ee3204ed9ad4ce061aacd9295949561197385826129fd565b5090565b9261059b565b926119873361059b565b9461199e61199460405190565b9283924284611926565b0390a4565b906103799392916118f0565b610379906119c95f805160206137dc8339815191526129d2565b6119d561045a5f611630565b6001600160a01b038216146116625761037990610379906119f4612e52565b61174890611a00612e7b565b611ba2565b915f1960089290920291821b911b5b9181191691161790565b9190611a2d61038f611a359390565b908354611a05565b9055565b610379915f91611a1e565b634e487b7160e01b5f52601160045260245ffd5b818110611a63575050565b80611a705f600193611a39565b01611a58565b919091828210611a8557505050565b6103799291611a9890915f5260205f2090565b9182019101611a58565b90600160401b81116108025781611aba610379935490565b90828155611a76565b5f61037991611aa2565b634e487b7160e01b5f525f60045260245ffd5b905f03611af05761037990611ac3565b611acd565b9190611a2d61038f611a3593610404565b610379915f91611af5565b5f600261037992611b2483808301611b06565b82600182015501611ae0565b905f03611af05761037990611b11565b8015611b4c575f190190565b611a44565b905f1990611a14565b90611b6a61038f611a3592610404565b8254611b51565b61176361037994611b99606094989795611b8f608086019a5f870152565b602085019061078d565b15156040830152565b611bb061038f8260326105a4565b916001830192611bc6611bc285610d36565b1590565b611d3b57806002611bd682610cae565b92611c15611be661157e89610cf4565b97611bf9611bf382610d20565b95610cae565b611c0a611c066050610404565b9190565b1015611d2d57610d20565b611d1f575b0194611c24865490565b94611c2e5f610404565b865b811015611c5e57611c5781611c51611c4b611c30948c610696565b90611a39565b60010190565b9050611c2e565b506115299192939550611cee90611c975f7f180f1aed5b73ac959768b819309cd698f8e6f9124a28e8bf12f44789155a8f439799611ae0565b611cab5f611ca68360356105a4565b611b06565b611cba5f611ca68360366105a4565b611cce5f611cc98360326105a4565b611b30565b611cd86037610cae565b611ce4611c065f610404565b11611d035761059b565b94611cf860405190565b938493429285611b71565b61185f611d18611d136037610cae565b611b40565b6037611b5a565b611d2886613411565b611c1a565b611d368861336b565b610d20565b63c23cb52560e01b5f9081526001600160a01b038416600452602490fd5b610379906119af565b611d785f805160206137dc8339815191526129d2565b610379611d836134ca565b611d8c3361059b565b7f80170b5fcdd2bf1e0660ef4b8851f86685f64d41b1a19de1471947ece8725aac61152060405190565b610379611d62565b61038f915f611de6611dec93611dd15f90565b50825f805160206137bc83398151915261145c565b016105a4565b6118a6565b90611e0061134d6104a9845490565b905f5b818110611e105750505090565b909192611e36611384600192611e2587610cc1565b6001600160a01b0316815260200190565b929101611e03565b9061038f91611df1565b906103796113b792611e5960405190565b93848092611e3e565b61038f90611e48565b61038f6033611e62565b61038f6034611e62565b90610379939291611e926114798261143b565b61197d6119777ffcf6f7b79149c04f9387b4ab24ba2b7ca0edce3642a75e43ec9a5a41fb924b53929594956119738582612a86565b90610379939291611e7f565b610cee61038f61038f9290565b61038f61038f61038f9263ffffffff1690565b61038f611f01916113d95f90565b90611f13611f0e83610cae565b611ed3565b60018301906002611f2661157e84610cf4565b940192611c06611f49611f41611f3b86610cdc565b95610d20565b9396956113be565b93611ee0565b61038f9060401c610cee565b61038f9054611f4f565b61038f905b6001600160401b031690565b61038f9054611f65565b611f6a61038f61038f9290565b906001600160401b0390611a14565b611f6a61038f61038f926001600160401b031690565b90611fc261038f611a3592611f9c565b8254611f8d565b9068ff00000000000000009060401b611a14565b90611fed61038f611a3592151590565b8254611fc9565b61039290611f80565b6020810192916103799190611ff4565b6120156134d2565b8061202b612025611bc283611f5b565b91611f76565b926120355f611f80565b6001600160401b0385161480612131575b60019461206261205587611f80565b916001600160401b031690565b14908161210d575b155b9081612104575b506120f35761209c90826120935f61208a88611f80565b96019586611fb2565b6120e45761217c565b6120a4575050565b7fc7f505b2f371ae2175ee4913f4499e1f2633a7b5936321eed1cdaeb6115181d2916120d35f6120df93611fdd565b60405191829182611ffd565b0390a1565b6120ee8585611fdd565b61217c565b63f92ee8a960e01b5f908152600490fd5b1590505f612073565b905061206c61211b3061059b565b3b612128611c065f610404565b1491905061206a565b5081612046565b1561213f57565b60405162461bcd60e51b8152602060048201526015602482015274496e76616c69642061646d696e206164647265737360581b6044820152606490fd5b612228906121886134e2565b6121906134e2565b6121986134e2565b6121a06134f2565b6121c06121af61045a5f611630565b6001600160a01b0383161415612138565b6121d1816121cc610e3d565b6129fd565b506121e9815f805160206137dc8339815191526129fd565b50612201815f8051602061377c8339815191526129fd565b507fdb857e9d93c247629b25e70ad22514c7c659a3f0f17748df0f8afa934124c9486129fd565b5061223d6122366001610404565b603b611b5a565b61225361224c6202a300610404565b603c611b5a565b61037946603f611b5a565b6103799061200d565b61038f91906122825f805160206137dc8339815191526129d2565b9061228f61045a5f611630565b6001600160a01b038216146116625761038f91612300565b610392906001600160a01b031660601b90565b926122d76020610496946122dd6014886122d7859b9a83996122a7565b01918252565b0180926122a7565b91908201809211611b4c57565b90611b6a61038f611a359290565b50604051909190612328816020810161231c43334289856122ba565b908103825203826107e1565b61233a612333825190565b9160200190565b2080927fc9d996515c997a89866778418177b5f2c59751d2980a7cc494118c3b9b2845d76123e16123d76123d161237a612374603c610cae565b426122e5565b9561238e61238987603e6105a4565b610cae565b61239a61038f5f610404565b811415806123fb575b6123e6575b506123bd876123b883603d610bc2565b611b5a565b61038f816123cc88603e6105a4565b6122f2565b9361059b565b936103f760405190565b0390a3565b5f611ca66123f592603d610bc2565b5f6123a8565b5061240a61238982603d610bc2565b42106123a3565b61038f905f612267565b906103799161242c6114798261143b565b9061148891612a86565b906103799161241b565b611f0e5f61146261038f936113d95f90565b61246860016124628360326105a4565b01610d36565b9081612472575090565b61248391506114625f9160326105a4565b612490611c066050610404565b101590565b6124a560016124628360326105a4565b90816124af575090565b61038f915061155b60019160326105a4565b610379999897969594939291906124e45f8051602061377c8339815191526129d2565b906103799998979695949392916124f9612e52565b9061174899989796959493929161250e612e7b565b6125b3565b91908110156106b6576020020190565b3561038f81610466565b3561038f816108f0565b3561038f81610906565b903590601e19368290030182121561035557018035906001600160401b0382116103555760200191602082023603831361035557565b908210156106b6576020610ac99202810190612541565b3561038f8161094c565b5f198114611b4c5760010190565b91908203918211611b4c57565b99989592979391909694966125c58190565b9a6125d161038f61118d565b8c116129af57898c141580156129a5575b801561299b575b8015612991575b61297d578b9a6125ff5f610404565b5a909c8d90815b101561292b5761261f61261a8f8787612513565b612523565b61263b61262e61045a5f611630565b916001600160a01b031690565b146128b65761265361264e8f8f89612513565b61252d565b6126606116e36064611ed3565b1161283e5761268161267c8f612677908f8b612513565b612537565b610784565b6126916116e3610cee6004610784565b116127cc576126a96126a48f8d8c612577565b905090565b6126b7611c0661038f610411565b11612750578c8c8f8c8c8f928d818e818f8f8f8380926126d692612513565b6126df90612523565b9b6126e992612513565b6126f29061252d565b986126fc92612513565b61270590612537565b9461270f92612513565b6127189061258e565b9361272292612577565b61272b916117cb565b926127359461307e565b61273e90612598565b9c6001015b9c8d8f611c066126069190565b9c8061276361261a612743938888612513565b5f8051602061379c8339815191526127c361277d84610404565b9261278760405190565b6001600160a01b039091168152604060208201819052600d908201526c546f6f206d616e79207461677360981b60608201529081906080820190565b0390a260010190565b9c806127df61261a612743938888612513565b5f8051602061379c8339815191526127c36127f984610404565b9261280360405190565b6001600160a01b039091168152604060208201819052600c908201526b24b73b30b634b2103a34b2b960a11b60608201529081906080820190565b9c8061285161261a612743938888612513565b5f8051602061379c8339815191526127c361286b84610404565b9261287560405190565b6001600160a01b03909116815260406020820181905260129082015271496e76616c6964207269736b2073636f726560701b60608201529081906080820190565b9c806128c961261a612743938888612513565b5f8051602061379c8339815191526127c36128e384610404565b926128ed60405190565b6001600160a01b039091168152604060208201819052600f908201526e496e76616c6964206164647265737360881b60608201529081906080820190565b9b5098509b50505050505050507fe6591ec7b7ee15e85a2a74819e56941ae9edaa6be2df85ac70c5193de646a08d935061296791505a906125a6565b906120df61297460405190565b92839283611750565b6001621398b960e31b03195f908152600490fd5b50878c14156125f0565b50868c14156125e9565b50888c14156125e2565b6305beb17160e11b5f908152600490fd5b906103799998979695949392916124c1565b610379903390613517565b9060ff90611a14565b906129f661038f611a3592151590565b82546129dd565b5f805160206137bc833981519152612a18611bc28484611dbe565b15612a7f576001612a33845f611de68682612a389701610bc2565b6129e6565b612a4c612a466123d1339390565b9161059b565b917f2f8788117e7eff1d82e926ec794901d17c78024a50270940304540a733656f0d612a7760405190565b5f90a4600190565b5050505f90565b5f805160206137bc833981519152612a9e8383611dbe565b15612a7f575f612a338482611de68682612ab89701610bc2565b612ac6612a466123d1339390565b917ff6391f5c32d9c69d2a47ea670b442974b53935d1edc7fd64eb21e047a839171b612a7760405190565b612af9613545565b610379612b295f807fcd5ed15c6e187e77e9aee88184c21f4f2182ab5827cb3b7e07fbedcd63f033005b016129e6565b7f5db9ee0a495bf2e6ff9c91a7834c1ba4fdd244a5e8aa4e537bd38aeae4b073aa6120df3361070c565b610379612af1565b612b643061059b565b7f000000000000000000000000000000000000000000000000000000000000000090612b986001600160a01b03831661262e565b14908115612bb9575b50612ba857565b63703e46dd60e11b5f908152600490fd5b9050612bd661262e612bc9613567565b926001600160a01b031690565b14155f612ba1565b61037990612bf85f805160206137dc8339815191526129d2565b612c8c565b15612c0457565b60405162461bcd60e51b815260206004820152601e60248201527f4e6f2070726f706f73616c20666f7220696d706c656d656e746174696f6e00006044820152606490fd5b15612c5057565b60405162461bcd60e51b8152602060048201526014602482015273151a5b595b1bd8dac81b9bdd08195e1c1a5c995960621b6044820152606490fd5b612cf6612a46612ca061238984603e6105a4565b612cb7612caf61038f5f610404565b821415612bfd565b612cd3612ccb61038f61238984603d610bc2565b421015612c49565b612ce25f611ca683603d610bc2565b61038f5f612cf186603e6105a4565b611a39565b907f1b011fae1a8fa8755c05a1200229cf94f1218002d660dae8eca1e796db11e212612d2160405190565b80806123e1565b61037990612bde565b90505190610379826105ff565b906020828203126103555761038f91612d31565b91612d5f61185f8461059b565b916020612d6b60405190565b6352d1902d60e01b815293849060049082905afa5f9381612ddf575b50612daa57634c9c8ce360e01b5f9081526001600160a01b038516600452602490fd5b909192612db861038f6115c4565b8403612dc95761037992935061357c565b632a87526960e21b5f9081526004859052602490fd5b612e0291945060203d602011612e09575b612dfa81836107e1565b810190612d3e565b925f612d87565b503d612df0565b612e193061059b565b612e4b6001600160a01b037f00000000000000000000000000000000000000000000000000000000000000001661262e565b03612ba857565b612e5a6118b0565b612e6057565b63d93c066560e01b5f908152600490fd5b61038f6002610404565b612e845f610cae565b612e8c612e71565b908114612e9d57610379905f611b5a565b633ee5aeb560e01b5f908152600490fd5b61038f6001610404565b610379612ec3612eae565b5f611b5a565b906001600160a01b0390611a14565b90612ee861038f611a359261059b565b8254612ec9565b9060ff60c01b9060c01b611a14565b610cee61038f61038f9260ff1690565b90612f1e61038f611a3592612efe565b8254612eef565b9060ff60d01b9060d01b611a14565b90612f4461038f611a3592151590565b8254612f25565b610cd361038f61038f9290565b9063ffffffff60a01b9060a01b611a14565b610cd361038f61038f9263ffffffff1690565b90612f8d61038f611a3592612f6a565b8254612f58565b9060ff60c81b9060c81b611a14565b90612fb361038f611a3592612efe565b8254612f94565b9060ff60d81b9060d81b611a14565b90612fd961038f611a3592151590565b8254612fba565b90612fe9825190565b8110156106b6576020809102010190565b90815491600160401b831015610802578261301d91600161037995018155610696565b90611a1e565b916001600160a01b0360089290920291821b911b611a14565b919061304d61038f611a359361059b565b908354613023565b90815491600160401b831015610802578261307891600161037995018155610696565b9061303c565b929094939161309161038f8560326105a4565b9560018701936130a085610d36565b806132f6575b6132d857876131375f88999a019661310b6131056130c38a610cae565b6130d0611c066050610404565b10159761267c6130df85610d20565b9b6130f66130ef611bc288610d36565b9f87612ed8565b6130ff8a611673565b90611b5a565b82612f0e565b6131158782612f34565b61312761312142612f4b565b82612f7d565b6131316064611ed3565b90612fa3565b60026001916131496001808301612fc9565b016131545f82611ae0565b8161315e5f610404565b905b61329c575b505050506131736050611ed3565b60ff8216101580613294575b1561326357505061319d61319260335490565b6123b88560356105a4565b6131a8836033613055565b6131c46131bd6131b86038610cae565b612598565b6038611b5a565b808061325b575b156132305750506131f4906131ed6131e260345490565b6123b88360366105a4565b6034613055565b61320b6132046131b86039610cae565b6039611b5a565b61321b575b61037942603a611b5a565b61322b611d186131b86037610cae565b613210565b159081613253575b50613244575b5061320b565b61324d90613411565b5f61323e565b90505f613238565b5081156131cb565b6132706116e36050611ed3565b10908161328c575b50156131c4576132878361336b565b6131c4565b90505f613278565b50811561317f565b6132a761038f855190565b8110156132d3576132cd90611c51836132c76132c38489612fe0565b5190565b90612ffa565b82613160565b613165565b630c966d0560e11b5f9081526001600160a01b038716600452602490fd5b5061331161330b61330687610cdc565b611ee0565b426125a6565b61331f611c0661038f61100d565b106130a6565b634e487b7160e01b5f52603160045260245ffd5b610379915f9161303c565b80548015613366575f19019061336361335d8383610696565b90613339565b55565b613325565b5f611ca66133bd9260356133b86133b361338861238985856105a4565b6033906133a6613396835490565b6133a06001610404565b906125a6565b908181036133ea57505090565b613344565b6105a4565b6133c76038610cae565b6133d3611c065f610404565b116133da57565b6103796131bd611d136038610cae565b6123b86133fd6106eb61038f9486610696565b61340b816130788588610696565b876105a4565b5f611ca661343c9260366133b86133b361342e61238985856105a4565b6034906133a6613396835490565b6134466039610cae565b613452611c065f610404565b1161345957565b610379613204611d136039610cae565b613471612e52565b6103796134a060015f7fcd5ed15c6e187e77e9aee88184c21f4f2182ab5827cb3b7e07fbedcd63f03300612b23565b7f62e78cea01bee320cd4e420270b5ea74000d11b0c9f74754ebdbfc544b05a2586120df3361070c565b610379613469565b61038f61360c565b610379613614565b6103796134da565b611748613614565b6103796134ea565b6001600160a01b0390911681526040810192916103799160200152565b90613525611bc28284611dbe565b61352d575050565b63e2517d3f60e01b5f908152916114c89160046134fa565b613550611bc26118b0565b61355657565b638dfc202b60e01b5f908152600490fd5b61038f5f61357661038f6115c4565b01610cc1565b9061358682613636565b61358f8261059b565b7fbc7cd75a20ee27fd9adebab32041f755214dbc6bffa90cc0225b39da2e5c2d3b6135b960405190565b5f90a280516135ca611c065f610404565b11156135d957611488916136a1565b505061037961367f565b61038f7ff0c57e16840df040f15088dc2f81fe391c3923bec73e23a9662efc9c229c6a00610404565b61038f6135e3565b61361f611bc2613735565b61362557565b631afcd79f60e31b5f908152600490fd5b803b613644611c065f610404565b1461365f57610379905f61365961038f6115c4565b01612ed8565b634c9c8ce360e01b5f9081526001600160a01b039091166004526024035ffd5b6136885f610404565b341161369057565b63b398979f60e01b5f908152600490fd5b906136ac9082613747565b808061370c575b156136c257505061038f613762565b156136e757639996b31560e01b5f9081526001600160a01b039091166004526024035ffd5b3d6136f4611c065f610404565b115f036137575763d6bda27560e01b5f908152600490fd5b503d61371a611c065f610404565b11806136b35750813b61372f611c065f610404565b116136b3565b61038f5f6137416134d2565b01611f5b565b5f918291602082519201905af490565b6040513d5f823e3d90fd5b604051903d82523d5f602084013e3d602001820160405256fe68e79a7bf1e0bc45d0a330c573bc367f9cf464fd326078812f301165fbda4ef182dc8a0cfd6f31109d330b111a56911d6c6667243fe5ee840d59a003733262e402dd7bc7dec4dceedda775e58dd541e08a116c6c53815c0bd028192f7b626800a49807205ce4d355092ef5a8a18f56e8913cf4a201fbe287825b095693c21775a164736f6c634300081a000a",
  "linkReferences": {},
  "deployedLinkReferences": {}
}