{
  "_format": "hh-sol-artifact-1",
  "contractName": "TestUSD",
  "sourceName": "contracts/TestUSD.sol",
  "abi": [
    {
      "inputs": [],
      "stateMutability": "nonpayable",
      "type": "constructor"
    },
    {
      "inputs": [],
      "name": "AccessControlBadConfirmation",
      "type": "error"
    },
    {
      "inputs": [
        {
          "internalType": "address",
          "name": "account",
          "type": "address"
        },
        {
          "internalType": "bytes32",
          "name": "neededRole",
          "type": "bytes32"
        }
      ],
      "name": "AccessControlUnauthorizedAccount",
      "type": "error"
    },
    {
      "inputs": [
        {
          "internalType": "address",
          "name": "account",
          "type": "address"
        }
      ],
      "name": "AddressBlacklisted",
      "type": "error"
    },
    {
      "inputs": [],
      "name": "BatchTooLarge",
      "type": "error"
    },
    {
      "inputs": [
        {
          "internalType": "address",
          "name": "account",
          "type": "address"
        }
      ],
      "name": "CannotBlacklistAdmin",
      "type": "error"
    },
    {
      "inputs": [
        {
          "internalType": "address",
          "name": "account",
          "type": "address"
        },
        {
          "internalType": "uint256",
          "name": "amount",
          "type": "uint256"
        },
        {
          "internalType": "uint256",
          "name": "limit",
          "type": "uint256"
        }
      ],
      "name": "DailyLimitExceeded",
      "type": "error"
    },
    {
      "inputs": [
        {
          "internalType": "address",
          "name": "spender",
          "type": "address"
        },
        {
          "internalType": "uint256",
          "name": "allowance",
          "type": "uint256"
        },
        {
          "internalType": "uint256",
          "name": "needed",
          "type": "uint256"
        }
      ],
      "name": "ERC20InsufficientAllowance",
      "type": "error"
    },
    {
      "inputs": [
        {
          "internalType": "address",
          "name": "sender",
          "type": "address"
        },
        {
          "internalType": "uint256",
          "name": "balance",
          "type": "uint256"
        },
        {
          "internalType": "uint256",
          "name": "needed",
          "type": "uint256"
        }
      ],
      "name": "ERC20InsufficientBalance",
      "type": "error"
    },
    {
      "inputs": [
        {
          "internalType": "address",
          "name": "approver",
          "type": "address"
        }
      ],
      "name": "ERC20InvalidApprover",
      "type": "error"
    },
    {
      "inputs": [
        {
          "internalType": "address",
          "name": "receiver",
          "type": "address"
        }
      ],
      "name": "ERC20InvalidReceiver",
      "type": "error"
    },
    {
      "inputs": [
        {
          "internalType": "address",
          "name": "sender",
          "type": "address"
        }
      ],
      "name": "ERC20InvalidSender",
      "type": "error"
    },
    {
      "inputs": [
        {
          "internalType": "address",
          "name": "spender",
          "type": "address"
        }
      ],
      "name": "ERC20InvalidSpender",
      "type": "error"
    },
    {
      "inputs": [],
      "name": "EnforcedPause",
      "type": "error"
    },
    {
      "inputs": [],
      "name": "ExpectedPause",
      "type": "error"
    },
    {
      "inputs": [
        {
          "internalType": "address",
          "name": "account",
          "type": "address"
        }
      ],
      "name": "FaucetAlreadyUsed",
      "type": "error"
    },
    {
      "inputs": [
        {
          "internalType": "address",
          "name": "account",
          "type": "address"
        }
      ],
      "name": "GreyListRestricted",
      "type": "error"
    },
    {
      "inputs": [],
      "name": "InvalidAddress",
      "type": "error"
    },
    {
      "inputs": [],
      "name": "LengthMismatch",
      "type": "error"
    },
    {
      "inputs": [
        {
          "internalType": "address",
          "name": "account",
          "type": "address"
        },
        {
          "internalType": "uint256",
          "name": "amount",
          "type": "uint256"
        },
        {
          "internalType": "uint256",
          "name": "limit",
          "type": "uint256"
        }
      ],
      "name": "SingleLimitExceeded",
      "type": "error"
    },
    {
      "anonymous": false,
      "inputs": [
        {
          "indexed": true,
          "internalType": "address",
          "name": "account",
          "type": "address"
        },
        {
          "indexed": false,
          "internalType": "enum TestUSD.RiskLevel",
          "name": "level",
          "type": "uint8"
        },
        {
          "indexed": false,
          "internalType": "string",
          "name": "reason",
          "type": "string"
        }
      ],
      "name": "AddressTagged",
      "type": "event"
    },
    {
      "anonymous": false,
      "inputs": [
        {
          "indexed": true,
          "internalType": "address",
          "name": "account",
          "type": "address"
        }
      ],
      "name": "AddressUntagged",
      "type": "event"
    },
    {
      "anonymous": false,
      "inputs": [
        {
          "indexed": true,
          "internalType": "address",
          "name": "owner",
          "type": "address"
        },
        {
          "indexed": true,
          "internalType": "address",
          "name": "spender",
          "type": "address"
        },
        {
          "indexed": false,
          "internalType": "uint256",
          "name": "value",
          "type": "uint256"
        }
      ],
      "name": "Approval",
      "type": "event"
    },
    {
      "anonymous": false,
      "inputs": [
        {
          "indexed": true,
          "internalType": "address",
          "name": "account",
          "type": "address"
        },
        {
          "indexed": false,
          "internalType": "uint256",
          "name": "amount",
          "type": "uint256"
        }
      ],
      "name": "FaucetClaimed",
      "type": "event"
    },
    {
      "anonymous": false,
      "inputs": [
        {
          "indexed": true,
          "internalType": "address",
          "name": "account",
          "type": "address"
        },
        {
          "indexed": false,
          "internalType": "uint256",
          "name": "amount",
          "type": "uint256"
        },
        {
          "indexed": false,
          "internalType": "uint256",
          "name": "limit",
          "type": "uint256"
        },
        {
          "indexed": false,
          "internalType": "string",
          "name": "limitType",
          "type": "string"
        }
      ],
      "name": "LimitExceeded",
      "type": "event"
    },
    {
      "anonymous": false,
      "inputs": [
        {
          "indexed": false,
          "internalType": "enum TestUSD.RiskLevel",
          "name": "level",
          "type": "uint8"
        },
        {
          "indexed": false,
          "internalType": "bool",
          "name": "enabled",
          "type": "bool"
        }
      ],
      "name": "LimitToggled",
      "type": "event"
    },
    {
      "anonymous": false,
      "inputs": [
        {
          "indexed": false,
          "internalType": "enum TestUSD.RiskLevel",
          "name": "level",
          "type": "uint8"
        },
        {
          "indexed": false,
          "internalType": "uint256",
          "name": "dailyLimit",
          "type": "uint256"
        },
        {
          "indexed": false,
          "internalType": "uint256",
          "name": "singleLimit",
          "type": "uint256"
        }
      ],
      "name": "LimitsUpdated",
      "type": "event"
    },
    {
      "anonymous": false,
      "inputs": [
        {
          "indexed": false,
          "internalType": "address",
          "name": "account",
          "type": "address"
        }
      ],
      "name": "Paused",
      "type": "event"
    },
    {
      "anonymous": false,
      "inputs": [
        {
          "indexed": true,
          "internalType": "bytes32",
          "name": "role",
          "type": "bytes32"
        },
        {
          "indexed": true,
          "internalType": "bytes32",
          "name": "previousAdminRole",
          "type": "bytes32"
        },
        {
          "indexed": true,
          "internalType": "bytes32",
          "name": "newAdminRole",
          "type": "bytes32"
        }
      ],
      "name": "RoleAdminChanged",
      "type": "event"
    },
    {
      "anonymous": false,
      "inputs": [
        {
          "indexed": true,
          "internalType": "bytes32",
          "name": "role",
          "type": "bytes32"
        },
        {
          "indexed": true,
          "internalType": "address",
          "name": "account",
          "type": "address"
        },
        {
          "indexed": true,
          "internalType": "address",
          "name": "sender",
          "type": "address"
        }
      ],
      "name": "RoleGranted",
      "type": "event"
    },
    {
      "anonymous": false,
      "inputs": [
        {
          "indexed": true,
          "internalType": "bytes32",
          "name": "role",
          "type": "bytes32"
        },
        {
          "indexed": true,
          "internalType": "address",
          "name": "account",
          "type": "address"
        },
        {
          "indexed": true,
          "internalType": "address",
          "name": "sender",
          "type": "address"
        }
      ],
      "name": "RoleRevoked",
      "type": "event"
    },
    {
      "anonymous": false,
      "inputs": [
        {
          "indexed": true,
          "internalType": "address",
          "name": "from",
          "type": "address"
        },
        {
          "indexed": true,
          "internalType": "address",
          "name": "to",
          "type": "address"
        },
        {
          "indexed": false,
          "internalType": "uint256",
          "name": "value",
          "type": "uint256"
        }
      ],
      "name": "Transfer",
      "type": "event"
    },
    {
      "anonymous": false,
      "inputs": [
        {
          "indexed": true,
          "internalType": "address",
          "name": "from",
          "type": "address"
        },
        {
          "indexed": true,
          "internalType": "address",
          "name": "to",
          "type": "address"
        },
        {
          "indexed": false,
          "internalType": "uint256",
          "name": "amount",
          "type": "uint256"
        },
        {
          "indexed": false,
          "internalType": "string",
          "name": "reason",
          "type": "string"
        }
      ],
      "name": "TransferBlocked",
      "type": "event"
    },
    {
      "anonymous": false,
      "inputs": [
        {
          "indexed": false,
          "internalType": "address",
          "name": "account",
          "type": "address"
        }
      ],
      "name": "Unpaused",
      "type": "event"
    },
    {
      "inputs": [],
      "name": "ADMIN_ROLE",
      "outputs": [
        {
          "internalType": "bytes32",
          "name": "",
          "type": "bytes32"
        }
      ],
      "stateMutability": "view",
      "type": "function"
    },
    {
      "inputs": [],
      "name": "DEFAULT_ADMIN_ROLE",
      "outputs": [
        {
          "internalType": "bytes32",
          "name": "",
          "type": "bytes32"
        }
      ],
      "stateMutability": "view",
      "type": "function"
    },
    {
      "inputs": [],
      "name": "FAUCET_AMOUNT",
      "outputs": [
        {
          "internalType": "uint256",
          "name": "",
          "type": "uint256"
        }
      ],
      "stateMutability": "view",
      "type": "function"
    },
    {
      "inputs": [],
      "name": "OPERATOR_ROLE",
      "outputs": [
        {
          "internalType": "bytes32",
          "name": "",
          "type": "bytes32"
        }
      ],
      "stateMutability": "view",
      "type": "function"
    },
    {
      "inputs": [],
      "name": "VERSION",
      "outputs": [
        {
          "internalType": "uint256",
          "name": "",
          "type": "uint256"
        }
      ],
      "stateMutability": "view",
      "type": "function"
    },
    {
      "inputs": [],
      "name": "VIEWER_ROLE",
      "outputs": [
        {
          "internalType": "bytes32",
          "name": "",
          "type": "bytes32"
        }
      ],
      "stateMutability": "view",
      "type": "function"
    },
    {
      "inputs": [
        {
          "internalType": "address",
          "name": "",
          "type": "address"
        }
      ],
      "name": "addressRiskLevel",
      "outputs": [
        {
          "internalType": "enum TestUSD.RiskLevel",
          "name": "",
          "type": "uint8"
        }
      ],
      "stateMutability": "view",
      "type": "function"
    },
    {
      "inputs": [
        {
          "internalType": "address",
          "name": "owner",
          "type": "address"
        },
        {
          "internalType": "address",
          "name": "spender",
          "type": "address"
        }
      ],
      "name": "allowance",
      "outputs": [
        {
          "internalType": "uint256",
          "name": "",
          "type": "uint256"
        }
      ],
      "stateMutability": "view",
      "type": "function"
    },
    {
      "inputs": [
        {
          "internalType": "address",
          "name": "spender",
          "type": "address"
        },
        {
          "internalType": "uint256",
          "name": "value",
          "type": "uint256"
        }
      ],
      "name": "approve",
      "outputs": [
        {
          "internalType": "bool",
          "name": "",
          "type": "bool"
        }
      ],
      "stateMutability": "nonpayable",
      "type": "function"
    },
    {
      "inputs": [
        {
          "internalType": "address",
          "name": "account",
          "type": "address"
        }
      ],
      "name": "balanceOf",
      "outputs": [
        {
          "internalType": "uint256",
          "name": "",
          "type": "uint256"
        }
      ],
      "stateMutability": "view",
      "type": "function"
    },
    {
      "inputs": [
        {
          "internalType": "address[]",
          "name": "recipients",
          "type": "address[]"
        },
        {
          "internalType": "uint256[]",
          "name": "amounts",
          "type": "uint256[]"
        }
      ],
      "name": "batchTransfer",
      "outputs": [
        {
          "internalType": "bool",
          "name": "",
          "type": "bool"
        }
      ],
      "stateMutability": "nonpayable",
      "type": "function"
    },
    {
      "inputs": [
        {
          "internalType": "address",
          "name": "",
          "type": "address"
        }
      ],
      "name": "dailyUsage",
      "outputs": [
        {
          "internalType": "uint256",
          "name": "dayStart",
          "type": "uint256"
        },
        {
          "internalType": "uint256",
          "name": "used",
          "type": "uint256"
        }
      ],
      "stateMutability": "view",
      "type": "function"
    },
    {
      "inputs": [],
      "name": "decimals",
      "outputs": [
        {
          "internalType": "uint8",
          "name": "",
          "type": "uint8"
        }
      ],
      "stateMutability": "view",
      "type": "function"
    },
    {
      "inputs": [],
      "name": "faucet",
      "outputs": [],
      "stateMutability": "nonpayable",
      "type": "function"
    },
    {
      "inputs": [
        {
          "internalType": "enum TestUSD.RiskLevel",
          "name": "level",
          "type": "uint8"
        }
      ],
      "name": "getAddressesByRiskLevel",
      "outputs": [
        {
          "internalType": "address[]",
          "name": "",
          "type": "address[]"
        }
      ],
      "stateMutability": "view",
      "type": "function"
    },
    {
      "inputs": [],
      "name": "getContractInfo",
      "outputs": [
        {
          "internalType": "string",
          "name": "tokenName",
          "type": "string"
        },
        {
          "internalType": "string",
          "name": "tokenSymbol",
          "type": "string"
        },
        {
          "internalType": "uint8",
          "name": "tokenDecimals",
          "type": "uint8"
        },
        {
          "internalType": "uint256",
          "name": "totalSupplyAmount",
          "type": "uint256"
        },
        {
          "internalType": "uint256",
          "name": "vipCount",
          "type": "uint256"
        },
        {
          "internalType": "uint256",
          "name": "greyCount",
          "type": "uint256"
        },
        {
          "internalType": "uint256",
          "name": "blackCount",
          "type": "uint256"
        },
        {
          "internalType": "bool",
          "name": "isPaused",
          "type": "bool"
        }
      ],
      "stateMutability": "view",
      "type": "function"
    },
    {
      "inputs": [
        {
          "internalType": "address",
          "name": "account",
          "type": "address"
        }
      ],
      "name": "getLimitInfo",
      "outputs": [
        {
          "internalType": "enum TestUSD.RiskLevel",
          "name": "level",
          "type": "uint8"
        },
        {
          "internalType": "uint256",
          "name": "dailyLimit",
          "type": "uint256"
        },
        {
          "internalType": "uint256",
          "name": "singleLimit",
          "type": "uint256"
        },
        {
          "internalType": "uint256",
          "name": "usedToday",
          "type": "uint256"
        },
        {
          "internalType": "uint256",
          "name": "remainingToday",
          "type": "uint256"
        }
      ],
      "stateMutability": "view",
      "type": "function"
    },
    {
      "inputs": [
        {
          "internalType": "address",
          "name": "account",
          "type": "address"
        }
      ],
      "name": "getRiskLevel",
      "outputs": [
        {
          "internalType": "enum TestUSD.RiskLevel",
          "name": "",
          "type": "uint8"
        }
      ],
      "stateMutability": "view",
      "type": "function"
    },
    {
      "inputs": [
        {
          "internalType": "enum TestUSD.RiskLevel",
          "name": "level",
          "type": "uint8"
        }
      ],
      "name": "getRiskLevelCount",
      "outputs": [
        {
          "internalType": "uint256",
          "name": "",
          "type": "uint256"
        }
      ],
      "stateMutability": "view",
      "type": "function"
    },
    {
      "inputs": [
        {
          "internalType": "bytes32",
          "name": "role",
          "type": "bytes32"
        }
      ],
      "name": "getRoleAdmin",
      "outputs": [
        {
          "internalType": "bytes32",
          "name": "",
          "type": "bytes32"
        }
      ],
      "stateMutability": "view",
      "type": "function"
    },
    {
      "inputs": [
        {
          "internalType": "bytes32",
          "name": "role",
          "type": "bytes32"
        },
        {
          "internalType": "address",
          "name": "account",
          "type": "address"
        }
      ],
      "name": "grantRole",
      "outputs": [],
      "stateMutability": "nonpayable",
      "type": "function"
    },
    {
      "inputs": [
        {
          "internalType": "bytes32",
          "name": "role",
          "type": "bytes32"
        },
        {
          "internalType": "address",
          "name": "account",
          "type": "address"
        }
      ],
      "name": "hasRole",
      "outputs": [
        {
          "internalType": "bool",
          "name": "",
          "type": "bool"
        }
      ],
      "stateMutability": "view",
      "type": "function"
    },
    {
      "inputs": [
        {
          "internalType": "address",
          "name": "account",
          "type": "address"
        }
      ],
      "name": "isBlacklisted",
      "outputs": [
        {
          "internalType": "bool",
          "name": "",
          "type": "bool"
        }
      ],
      "stateMutability": "view",
      "type": "function"
    },
    {
      "inputs": [
        {
          "internalType": "address",
          "name": "to",
          "type": "address"
        },
        {
          "internalType": "uint256",
          "name": "amount",
          "type": "uint256"
        }
      ],
      "name": "mint",
      "outputs": [],
      "stateMutability": "nonpayable",
      "type": "function"
    },
    {
      "inputs": [],
      "name": "name",
      "outputs": [
        {
          "internalType": "string",
          "name": "",
          "type": "string"
        }
      ],
      "stateMutability": "view",
      "type": "function"
    },
    {
      "inputs": [],
      "name": "pause",
      "outputs": [],
      "stateMutability": "nonpayable",
      "type": "function"
    },
    {
      "inputs": [],
      "name": "paused",
      "outputs": [
        {
          "internalType": "bool",
          "name": "",
          "type": "bool"
        }
      ],
      "stateMutability": "view",
      "type": "function"
    },
    {
      "inputs": [
        {
          "internalType": "bytes32",
          "name": "role",
          "type": "bytes32"
        },
        {
          "internalType": "address",
          "name": "callerConfirmation",
          "type": "address"
        }
      ],
      "name": "renounceRole",
      "outputs": [],
      "stateMutability": "nonpayable",
      "type": "function"
    },
    {
      "inputs": [
        {
          "internalType": "bytes32",
          "name": "role",
          "type": "bytes32"
        },
        {
          "internalType": "address",
          "name": "account",
          "type": "address"
        }
      ],
      "name": "revokeRole",
      "outputs": [],
      "stateMutability": "nonpayable",
      "type": "function"
    },
    {
      "inputs": [
        {
          "internalType": "enum TestUSD.RiskLevel",
          "name": "",
          "type": "uint8"
        }
      ],
      "name": "riskLimits",
      "outputs": [
        {
          "internalType": "uint256",
          "name": "dailyLimit",
          "type": "uint256"
        },
        {
          "internalType": "uint256",
          "name": "singleLimit",
          "type": "uint256"
        },
        {
          "internalType": "bool",
          "name": "enabled",
          "type": "bool"
        }
      ],
      "stateMutability": "view",
      "type": "function"
    },
    {
      "inputs": [
        {
          "internalType": "enum TestUSD.RiskLevel",
          "name": "level",
          "type": "uint8"
        },
        {
          "internalType": "uint256",
          "name": "dailyLimit",
          "type": "uint256"
        },
        {
          "internalType": "uint256",
          "name": "singleLimit",
          "type": "uint256"
        }
      ],
      "name": "setRiskLimits",
      "outputs": [],
      "stateMutability": "nonpayable",
      "type": "function"
    },
    {
      "inputs": [
        {
          "internalType": "bytes4",
          "name": "interfaceId",
          "type": "bytes4"
        }
      ],
      "name": "supportsInterface",
      "outputs": [
        {
          "internalType": "bool",
          "name": "",
          "type": "bool"
        }
      ],
      "stateMutability": "view",
      "type": "function"
    },
    {
      "inputs": [],
      "name": "symbol",
      "outputs": [
        {
          "internalType": "string",
          "name": "",
          "type": "string"
        }
      ],
      "stateMutability": "view",
      "type": "function"
    },
    {
      "inputs": [
        {
          "internalType": "address",
          "name": "account",
          "type": "address"
        },
        {
          "internalType": "enum TestUSD.RiskLevel",
          "name": "level",
          "type": "uint8"
        },
        {
          "internalType": "string",
          "name": "reason",
          "type": "string"
        }
      ],
      "name": "tagAddress",
      "outputs": [],
      "stateMutability": "nonpayable",
      "type": "function"
    },
    {
      "inputs": [
        {
          "internalType": "enum TestUSD.RiskLevel",
          "name": "level",
          "type": "uint8"
        },
        {
          "internalType": "bool",
          "name": "enabled",
          "type": "bool"
        }
      ],
      "name": "toggleLimit",
      "outputs": [],
      "stateMutability": "nonpayable",
      "type": "function"
    },
    {
      "inputs": [],
      "name": "totalSupply",
      "outputs": [
        {
          "internalType": "uint256",
          "name": "",
          "type": "uint256"
        }
      ],
      "stateMutability": "view",
      "type": "function"
    },
    {
      "inputs": [
        {
          "internalType": "address",
          "name": "to",
          "type": "address"
        },
        {
          "internalType": "uint256",
          "name": "value",
          "type": "uint256"
        }
      ],
      "name": "transfer",
      "outputs": [
        {
          "internalType": "bool",
          "name": "",
          "type": "bool"
        }
      ],
      "stateMutability": "nonpayable",
      "type": "function"
    },
    {
      "inputs": [
        {
          "internalType": "address",
          "name": "from",
          "type": "address"
        },
        {
          "internalType": "address",
          "name": "to",
          "type": "address"
        },
        {
          "internalType": "uint256",
          "name": "value",
          "type": "uint256"
        }
      ],
      "name": "transferFrom",
      "outputs": [
        {
          "internalType": "bool",
          "name": "",
          "type": "bool"
        }
      ],
      "stateMutability": "nonpayable",
      "type": "function"
    },
    {
      "inputs": [],
      "name": "unpause",
      "outputs": [],
      "stateMutability": "nonpayable",
      "type": "function"
    },
    {
      "inputs": [
        {
          "internalType": "address",
          "name": "account",
          "type": "address"
        }
      ],
      "name": "untagAddress",
      "outputs": [],
      "stateMutability": "nonpayable",
      "type": "function"
    }
  ],
  "bytecode": "0x6080604052346100225761001161023b565b60405161270a611148823961270a90f35b5f80fd5b634e487b7160e01b5f52604160045260245ffd5b90601f01601f191681019081106001600160401b0382111761005b57604052565b610026565b9061007461006d60405190565b928361003a565b565b6001600160401b03811161005b57602090601f01601f19160190565b0190565b906100a86100a383610076565b610060565b918252565b6100b76007610096565b6615195cdd1554d160ca1b602082015290565b6100d26100ad565b90565b6100df6004610096565b63151554d160e21b602082015290565b6100d26100d5565b6100d26100d26100d29290565b6100d25f6100f7565b6100d26060610060565b905b9052565b634e487b7160e01b5f52602160045260245ffd5b6005111561013b57565b61011d565b9061007482610131565b6100d290610140565b9061015d9061014a565b5f5260205260405f2090565b905f19905b9181191691161790565b906101886100d261018f926100f7565b8254610169565b9055565b9060ff9061016e565b906101ac6100d261018f92151590565b8254610193565b60026101ef6040610074946101d16101cb5f83015190565b86610178565b6101e86101df602083015190565b60018701610178565b0151151590565b910161019c565b90610074916101b3565b61020a6014610096565b7f5072657365743a205269736b2041646472657373000000000000000000000000602082015290565b6100d2610200565b6102546102466100ca565b61024e6100ef565b90610464565b6102ea7f97667070c54ef182b0f5858b034beac1b6f3089aa2d3188bb1e8929f4fa9b9296102e27fa49807205ce4d355092ef5a8a18f56e8913cf4a201fbe287825b095693c217756102a68184610654565b6102d0817f4e8c8e9ca39468bb90c81b80f979119441019fdac7cbbbd930e0a604f8777d1d610654565b6102e26102db610104565b33906106f3565b5033906106f3565b506104206001610343600469d3c21bcecceda100000061037a61031461030e61010d565b926100f7565b61031e8184610117565b61032b8160208501610117565b85151560408401526103486008936103435f86610153565b6101f6565b61036761035361010d565b9161035e8184610117565b60208301610117565b8515156040820152610343600284610153565b6103b36a084595161401484a0000006103a161039761030e61010d565b61035e8184610117565b85151560408201526103438684610153565b6103f66103be61010d565b6103eb6103ca5f6100f7565b966103d58884610117565b6103e28860208501610117565b15156040830152565b610343600384610153565b61041561040161010d565b9461040c8187610117565b60208601610117565b5f6040850152610153565b61043d6104376a52b7d2dcc80cd2e40000006100f7565b336107ab565b610074610448610233565b600473dac17f958d2ee523a2206206994597c13d831ec761086e565b6100749182918291829182919061062a565b634e487b7160e01b5f52602260045260245ffd5b90600160028304921680156104aa575b60208310146104a557565b610476565b91607f169161049a565b915f1960089290920291821b911b61016e565b91906104d86100d261018f936100f7565b9083546104b4565b610074915f916104c7565b8181106104f6575050565b806105035f6001936104e0565b016104eb565b9190601f811161051857505050565b610528610074935f5260205f2090565b906020601f84018190048301931061054a575b6020601f9091010401906104eb565b909150819061053b565b9061055d815190565b906001600160401b03821161005b576105808261057a855461048a565b85610509565b602090601f83116001146105b95761018f92915f91836105ae575b50505f19600883021c1916906002021790565b015190505f8061059b565b601f198316916105cc855f5260205f2090565b925f5b818110610608575091600293918560019694106105f0575b50505002019055565b01515f196008601f8516021c191690555f80806105e7565b919360206001819287870151815501950192016105cf565b9061007491610554565b90610639610074926003610620565b6004610620565b9061015d565b906101886100d261018f9290565b9061068761068361067f6106678561099c565b946100d2856001610679846005610640565b01610646565b9390565b9190565b917fbd79b86ffe0ab8e8776151514217cd7cacd52c909f66475c3af44e129f0b00ff6106b260405190565b5f90a4565b6100d2906106cb906001600160a01b031682565b6001600160a01b031690565b6100d2906106b7565b6100d2906106d7565b9061015d906106e0565b61070461070083836109ba565b1590565b15610776576107296001610724845f61071e866005610640565b016106e9565b61019c565b61074361073d610737339390565b936106e0565b916106e0565b917f2f8788117e7eff1d82e926ec794901d17c78024a50270940304540a733656f0d61076e60405190565b5f90a4600190565b50505f90565b6106cb6100d26100d29290565b6100d29061077c565b610119906106cb565b6020810192916100749190610792565b91906107b65f610789565b926107c0846106cb565b6107c9826106cb565b146107d8576100749293610af0565b63ec442f0560e01b5f9081526107ef85600461079b565b035ffd5b906101ac6100d261018f9261014a565b6101199061014a565b90825f9392825e0152565b6108386108416020936100929361082c815190565b80835293849260200190565b9586910161080c565b601f01601f191690565b916100d29261086160408201935f830190610803565b6020818403910152610817565b929161088161087c5f610789565b6106cb565b61088a856106cb565b1461097a576108996004610140565b6108a283610140565b1480610963575b61094c57610931846108ff816108fa6100d26108f36108ec7f8ea7c7d006aed0f03fc5867bff86e38aec0f73f3b07e9bb66f92abf081833e58999a9b60076106e9565b5460ff1690565b600a610153565b610b0d565b506109148561090f8360076106e9565b6107f3565b61092b816109266100d288600a610153565b610b3d565b506106e0565b9261094761093e60405190565b9283928361084b565b0390a2565b638c3dc30160e01b5f9081526107ef85600461079b565b5061097584610970610104565b6109ba565b6108a9565b63e6c4247b60e01b5f908152600490fd5b6100d29081565b6100d2905461098b565b60016109b46100d2926109ac5f90565b506005610640565b01610992565b6100d2915f61071e6108ec936109ac5f90565b9061007492916109db610b5b565b906109e7838284610bd3565b6109f05f610789565b6109f9816106cb565b610a02846106cb565b14159081610ad5575b50610a1557505050565b6007610a246108ec84836106e9565b91600492610a3a610a3485610140565b91610140565b14610abf57610a4c6108ec82846106e9565b610a58610a3485610140565b14610aa857506108ec83610a6b926106e9565b610a78610a346003610140565b14610a9257509081610a8d8261007494610dae565b610eb7565b6335d1e97360e11b5f908152916107ef9161079b565b63daf49ab960e01b5f908152906107ef908461079b565b63daf49ab960e01b5f9081526107ef858561079b565b610adf91506106cb565b610ae8826106cb565b14155f610a0b565b9061007492916109cd565b6100d29081906001600160a01b031681565b90610b38610683610b33610b2e5f6100d296610b265f90565b5001946106d7565b610afb565b6100f7565b610fd4565b90610b56610683610b33610b2e5f6100d296610b265f90565b6110c5565b610b636110ff565b610b6957565b63d93c066560e01b5f908152600490fd5b604090610ba06100749496959396610b9960608401985f850190610792565b6020830152565b0152565b634e487b7160e01b5f52601160045260245ffd5b9190610bc3565b9290565b8201809211610bce57565b610ba4565b610bdc5f610789565b610be5816106cb565b610bee836106cb565b03610c9057610c546107375f8051602061385283398151915293610c2c610c6b9461087c610c258a610c206002610992565b610bb8565b6002610178565b610c35876106cb565b03610c7057610c4f610c2588610c4b6002610992565b0390565b6106e0565b93610c5e60405190565b9182918290815260200190565b0390a3565b610c4f610c7d875f6106e9565b610c8a8961009283610992565b90610178565b610ca2610c9d835f6106e9565b610992565b848110610ce0576107375f8051602061385283398151915293610c2c610c6b9461087c610cd18a610c54970390565b610cdb855f6106e9565b610178565b63391434e360e21b5f908152906107ef908690856004610b7a565b90610074610d3f6002610d0c61010d565b94610d1f610d1982610992565b87610117565b610d37610d2e60018301610992565b60208801610117565b015460ff1690565b15156040840152565b6100d290610cfb565b6100d26040610060565b90610074610d796001610d6c610d51565b946109b4610d1982610992565b60208401610117565b6100d290610d5b565b634e487b7160e01b5f52601260045260245ffd5b8115610da9570490565b610d8b565b919091610dcc610dc7610dc083611108565b6008610153565b610d48565b92610ddd6107006040860151151590565b610eb15760208401610df06100d2825190565b8211610e8f575080610e0b610e068460096106e9565b610d82565b610e20610e1a620151806100f7565b42610d9f565b610e2e610683610bbf845190565b03610e8057602001515f91610e4291610bb8565b940193610e536106836100d2875190565b11610e5e5750509050565b6107ef9250610e6c5f945190565b631abec70560e11b85529160048501610b7a565b50610e425f91610c20836100f7565b916107ef91610e9d5f945190565b6362dff91b60e01b85529160048501610b7a565b50509050565b90610c8a600161007493610ede6100d2610ed6610e1a620151806100f7565b9260096106e9565b908190610eea82610992565b819003610eff575b50500191610c2083610992565b610f0891610178565b610f1c610f145f6100f7565b838301610178565b5f80610ef2565b91908203918211610bce57565b634e487b7160e01b5f52603260045260245ffd5b8054821015610f6457610f5c6001915f5260205f2090565b910201905f90565b610f30565b6100d2916008021c81565b906100d29154610f69565b91906104d86100d261018f9390565b634e487b7160e01b5f52603160045260245ffd5b610074915f91610f7f565b80548015610fcf575f190190610fcc610fc68383610f44565b90610fa2565b55565b610f8e565b90610fe5610c9d8260018501610640565b610fee5f6100f7565b8114611096576110526100d2925f926110479561104c600197889361101b611015866100f7565b82610f23565b8885019161103961102a845490565b611033896100f7565b90610f23565b808303611057575b50505090565b610fad565b01610640565b6104e0565b61108061108661108e94611077611071610cdb9589610f44565b90610f74565b92839188610f44565b90610f7f565b888801610640565b5f8080611041565b5050505f90565b908154916801000000000000000083101561005b578261108091600161007495018155610f44565b6110d2610700838361111e565b15610776576110fa91610cdb9060016110f3846110ef848261109d565b5490565b9301610640565b600190565b60065460ff1690565b6108ec6100d2916111165f90565b5060076106e9565b611136916001610c9d9261112f5f90565b5001610640565b6111426106835f6100f7565b14159056fe60806040526004361015610011575f80fd5b5f3560e01c806301ffc9a71461029057806306fdde031461028b578063095ea7b3146102865780631615f2d41461028157806318160ddd1461027c57806323b872dd14610277578063248a9ca3146102725780632df313041461026d5780632f2ff15d14610268578063313ce5671461026357806336568abe1461025e5780633f4ba83a1461025957806340c10f191461025457806344049ceb1461024f57806350219eaf1461024a57806356845ca0146102455780635972652a146102405780635c975abb1461023b57806370a082311461023657806370c293141461023157806375b238fc1461022c57806376697640146102275780637cc1f867146102225780638456cb591461021d57806388d695b21461021857806391d14854146102135780639591d6be1461020e57806395d89b411461020957806399f0f47514610204578063a217fddf146101ff578063a9059cbb146101fa578063b7236346146101f5578063d547741f146101f0578063dd62ed3e146101eb578063de5f72fd146101e6578063f08ab472146101e1578063f5b541a6146101dc578063fbd1b3c5146101d7578063fe575a87146101d25763ffa1ad740361029557610e0d565b610de0565b610dc7565b610d65565b610d3b565b610cbb565b610c9f565b610c6a565b610c39565b610be2565b610bc7565b610b8f565b610b05565b610aea565b610aba565b610a9b565b610a05565b6109ce565b61093e565b6108f1565b6108c3565b61085f565b610844565b61082c565b610813565b6107a2565b610787565b610704565b6106ec565b6106d3565b6106a4565b61068b565b61064a565b610515565b6104e5565b610490565b610469565b6103ea565b610365565b6102d6565b5f80fd5b6001600160e01b031981165b0361029557565b905035906102b982610299565b565b90602082820312610295576102cf916102ac565b90565b9052565b34610295576103036102f16102ec3660046102bb565b610e28565b60405191829182901515815260200190565b0390f35b5f91031261029557565b90825f9392825e0152565b61033d61034660209361035093610331815190565b80835293849260200190565b95869101610311565b601f01601f191690565b0190565b60208082526102cf9291019061031c565b3461029557610375366004610307565b610303610380610f54565b60405191829182610354565b6001600160a01b031690565b6001600160a01b0381166102a5565b905035906102b982610398565b806102a5565b905035906102b9826103b4565b9190604083820312610295576102cf9060206103e382866103a7565b94016103ba565b34610295576103036102f16104003660046103c7565b90610f5e565b90602082820312610295576102cf916103a7565b634e487b7160e01b5f52602160045260245ffd5b6005111561043857565b61041a565b906102b98261042e565b6102cf9061043d565b6102d290610447565b6020810192916102b99190610450565b346102955761030361048461047f366004610406565b610f6e565b60405191829182610459565b34610295576104a0366004610307565b6103036104ab610f89565b6040515b9182918290815260200190565b9091606082840312610295576102cf6104d584846103a7565b9360406103e382602087016103a7565b34610295576103036102f16104fb3660046104bc565b91610f93565b90602082820312610295576102cf916103ba565b34610295576103036104ab61052b366004610501565b610faf565b6005111561029557565b905035906102b982610530565b634e487b7160e01b5f52604160045260245ffd5b90601f01601f1916810190811067ffffffffffffffff82111761057d57604052565b610547565b906102b961058f60405190565b928361055b565b67ffffffffffffffff811161057d57602090601f01601f19160190565b90825f939282370152565b909291926105d36105ce82610596565b610582565b9381855281830111610295576102b99160208501906105b3565b9080601f83011215610295578160206102cf933591016105be565b916060838303126102955761061d82846103a7565b9261062b836020830161053a565b92604082013567ffffffffffffffff8111610295576102cf92016105ed565b346102955761066361065d366004610608565b9161101a565b604051005b9190604083820312610295576102cf90602061068482866103ba565b94016103a7565b346102955761066361069e366004610668565b90611043565b34610295576106b4366004610307565b6103036106bf61105a565b6040519182918260ff909116815260200190565b34610295576106636106e6366004610668565b90611064565b34610295576106fc366004610307565b6106636110bc565b34610295576106636107173660046103c7565b90611130565b6102cf9061038c906001600160a01b031682565b6102cf9061071d565b6102cf90610731565b9061074d9061073a565b5f5260205260405f2090565b6102cf916008021c5b60ff1690565b906102cf9154610759565b5f6107826102cf926007610743565b610768565b346102955761030361048461079d366004610406565b610773565b34610295576107b2366004610307565b6103037f4e8c8e9ca39468bb90c81b80f979119441019fdac7cbbbd930e0a604f8777d1d6104ab565b8015156102a5565b905035906102b9826107db565b9190604083820312610295576102cf90602061080c828661053a565b94016107e3565b34610295576106636108263660046107f0565b906111f2565b346102955761066361083f366004610406565b6112eb565b3461029557610854366004610307565b6103036102f16112f4565b34610295576103036104ab610875366004610406565b6112fe565b6102cf9081565b6102cf905461087a565b610896906009610743565b906102cf60016108a584610881565b9301610881565b9081526040810192916102b99160200152565b0152565b34610295576108db6108d6366004610406565b61088b565b906103036108e860405190565b928392836108ac565b3461029557610901366004610307565b6103035f805160206126de8339815191526104ab565b6102cf6102cf6102cf9290565b6102cf683635c9adc5dea00000610917565b6102cf610924565b346102955761094e366004610307565b6103036104ab610936565b93956109b860e0966109b16109c6969c9b996109aa61099e6102b99d986109908c6109bf9a6101008201915f81840391015261031c565b8c810360208e01529061031c565b60ff909f1660408b0152565b6060890152565b6080870152565b60a0850152565b60c0830152565b019015159052565b34610295576109de366004610307565b6103036109e9611318565b946109fc98969894919493929360405190565b98899889610959565b3461029557610a15366004610307565b6106636113ac565b909182601f830112156102955781359167ffffffffffffffff831161029557602001926020830284011161029557565b909160408284031261029557813567ffffffffffffffff81116102955783610a76918401610a1d565b929093602082013567ffffffffffffffff811161029557610a979201610a1d565b9091565b34610295576103036102f1610ab1366004610a4d565b92919091611647565b34610295576103036102f1610ad0366004610668565b90611654565b90602082820312610295576102cf9161053a565b34610295576103036104ab610b00366004610ad6565b61166d565b3461029557610b15366004610307565b610303610380611686565b90610b40610b39610b2f845190565b8084529260200190565b9260200190565b905f5b818110610b505750505090565b909192610b76610b6f60019286516001600160a01b0316815260200190565b9460200190565b929101610b43565b60208082526102cf92910190610b20565b3461029557610303610baa610ba5366004610ad6565b611690565b60405191829182610b7e565b6102cf5f610917565b6102cf610bb6565b3461029557610bd7366004610307565b6103036104ab610bbf565b34610295576103036102f1610bf83660046103c7565b906116a7565b909594926102b994610c326108bf92610c2b608096610c2460a088019c5f890190610450565b6020870152565b6040850152565b6060830152565b3461029557610303610c54610c4f366004610406565b61177f565b91610c6195939560405190565b95869586610bfe565b3461029557610663610c7d366004610668565b9061184a565b9190604083820312610295576102cf90602061068482866103a7565b34610295576103036104ab610cb5366004610c83565b90611854565b3461029557610ccb366004610307565b610663611903565b9061074d90610447565b6102cf90610762565b6102cf9054610cdd565b610cfb906008610cd3565b610d0481610881565b916102cf6002610d1660018501610881565b9301610ce6565b9081526060810193926102b99290916040916109c6905b6020830152565b3461029557610303610d56610d51366004610ad6565b610cf0565b60405191939193849384610d1d565b3461029557610d75366004610307565b6103037f97667070c54ef182b0f5858b034beac1b6f3089aa2d3188bb1e8929f4fa9b9296104ab565b9091606082840312610295576102cf610db7848461053a565b9360406103e382602087016103ba565b3461029557610663610dda366004610d9e565b91611a1e565b34610295576103036102f1610df6366004610406565b611a29565b6102cf6003610917565b6102cf610dfb565b3461029557610e1d366004610307565b6103036104ab610e05565b637965db0b60e01b6001600160e01b0319821614908115610e47575090565b6102cf91506001600160e01b0319166301ffc9a760e01b1490565b634e487b7160e01b5f52602260045260245ffd5b9060016002830492168015610e96575b6020831014610e9157565b610e62565b91607f1691610e86565b80545f939291610ebc610eb283610e76565b8085529360200190565b9160018116908115610f0b5750600114610ed557505050565b610ee691929394505f5260205f2090565b915f925b818410610ef75750500190565b805484840152602090930192600101610eea565b92949550505060ff1916825215156020020190565b906102cf91610ea0565b906102b9610f4492610f3b60405190565b93848092610f20565b038361055b565b6102cf90610f2a565b6102cf6003610f4b565b610f69919033611a48565b600190565b610f846102cf91610f7c5f90565b506007610743565b610ce6565b6102cf6002610881565b610f69929190610fa4833383611a7a565b611ad2565b9061074d565b6001610fc76102cf92610fbf5f90565b506005610fa9565b01610881565b6102b99291906110017f97667070c54ef182b0f5858b034beac1b6f3089aa2d3188bb1e8929f4fa9b929611b58565b611b58565b906102b9929161100f611b63565b906102b99291611bb5565b906102b99291610fcd565b906102b991611036610ffc82610faf565b9061104091611cac565b50565b906102b991611025565b6107626102cf6102cf9290565b6102cf601261104d565b9061106e3361038c565b6001600160a01b038216036110865761104091611d2a565b63334bd91960e11b5f908152600490fd5b035ffd5b6110b15f805160206126de833981519152611b58565b6102b96102b9611ddc565b6102b961109b565b6102b991906110df5f805160206126de833981519152611b58565b6110fa565b61038c6102cf6102cf9290565b6102cf906110e4565b9061110761038c5f6110f1565b6001600160a01b0383161461111f576102b991611de4565b63e6c4247b60e01b5f908152600490fd5b906102b9916110c4565b6102b991906111555f805160206126de833981519152611b58565b61119e565b9060ff905b9181191691161790565b906111796102cf61118092151590565b825461115a565b9055565b9160206102b99294936109c660408201965f830190610450565b907fc81a048915941fcdcb3304661bdb7aadf9406db013a6701477e7fb1d9f40e05c916111d88260026111d2846008610cd3565b01611169565b6111ed6111e460405190565b92839283611184565b0390a1565b906102b99161113a565b6102b9906112297f97667070c54ef182b0f5858b034beac1b6f3089aa2d3188bb1e8929f4fa9b929611b58565b6102b990611235611b63565b611277565b9190600861115f91029161124e60ff841b90565b921b90565b91906112646102cf61118093610447565b90835461123a565b6102b9915f91611253565b6112b99061129f8161129a6102cf611293610f84846007610743565b600a610cd3565b611e43565b506112b45f6112af836007610743565b61126c565b61073a565b7f29f495894c4c5c6698f23f983ab1aef7b8020476978d6dd2c54ba7b35a7fe3226112e360405190565b80805b0390a2565b6102b9906111fc565b6102cf6006610ce6565b6113136102cf9161130c5f90565b505f610743565b610881565b611320610f54565b611328611686565b9161133161105a565b9161133a610f89565b91600a9061135461134f6102cf600185610cd3565b611e73565b9261137761134f6102cf600461137161134f6102cf60038a610cd3565b96610cd3565b916113806112f4565b919796959493929190565b6113a15f805160206126de833981519152611b58565b6102b96102b9611ecd565b6102b961138b565b906102cf949392916113c4611b63565b611435565b634e487b7160e01b5f52603260045260245ffd5b91908110156113ed576020020190565b6113c9565b356102cf816103b4565b634e487b7160e01b5f52601160045260245ffd5b919061141b565b9290565b820180921161142657565b6113fc565b356102cf81610398565b5093929190809383958686036116335761144f6064610917565b8611611622573361145f5f610917565b96875b895b89101561149d5761149561148e611464926114886114838d8d8d6113dd565b6113f2565b90611410565b9960010190565b989050611462565b975091949092959397506007936114b7610f848587610743565b966004976114cd6114c78a61043d565b9161043d565b14611603576114df610f848688610743565b6114ec6114c7600361043d565b146115e4576114fa5f610917565b8481101561156c57611521610f8461151b611516848f8d6113dd565b61142b565b89610743565b61152d6114c78b61043d565b1461153a576001016114fa565b6110978961154d6115165f948f8d6113dd565b63daf49ab960e01b84526001600160a01b031690830190815260200190565b50929790959398945061158b919650611585818a611ed5565b88611fd3565b6115945f610917565b865b8110156115d7576115d0816115ca6115b56115166115969589896113dd565b6115c3611483848b8d6113dd565b908c612045565b60010190565b9050611594565b5095505050505050600190565b6335d1e97360e11b5f9081526001600160a01b03861689526020890190fd5b63daf49ab960e01b5f9081526001600160a01b03861689526020890190fd5b6305beb17160e11b5f908152600490fd5b6001621398b960e31b03195f908152600490fd5b6102cf939291905f6113b4565b6102cf915f611667610f8493610fbf5f90565b01610743565b61134f6102cf6102cf9261167e5f90565b50600a610cd3565b6102cf6004610f4b565b6116a26102cf6102cf9261167e606090565b612174565b610f69919033611ad2565b6102cf6060610582565b906102b96116fa60026116cd6116b2565b946116de6116da82610881565b8752565b6116f46116ed60018301610881565b6020880152565b01610ce6565b15156040840152565b6102cf906116bc565b6102cf6040610582565b906102b9611734600161172761170c565b94610fc76116da82610881565b6020840152565b6102cf90611716565b634e487b7160e01b5f52601260045260245ffd5b90611762565b9190565b90811561176d570490565b611744565b9190820391821161142657565b9061178982610f6e565b9161179d611798846008610cd3565b611703565b9182906117c66117c16117b960206117b3865190565b97015190565b946009610743565b61173b565b6117db6117d562015180610917565b42611758565b6117e961175e611417845190565b0361181f5760200151915b826117fd825190565b8110156118145761180f6102cf925190565b611772565b50506102cf5f610917565b506118295f610917565b916117f4565b906102b991611840610ffc82610faf565b9061104091611d2a565b906102b99161182f565b6102cf9161186e611313926118665f90565b506001610743565b610743565b61187b611b63565b6102b961188c610f8433600b610743565b6118ee576118a560016118a033600b610743565b611169565b6118ad610924565b6118b78133611de4565b7f5d4f415c63cd8a5874d9d291cdd64cec37e5dc236d90d659c958d109d78074b36112e66118e43361073a565b926104af60405190565b639b8e908560e01b5f90815233600452602490fd5b6102b9611873565b6102b99291906119275f805160206126de833981519152611b58565b6119b8565b905f199061115f565b906119456102cf61118092610917565b825461192c565b600261198860406102b99461196a6119645f83015190565b86611935565b611981611978602083015190565b60018701611935565b0151151590565b9101611169565b906102b99161194c565b6040906108bf6102b99496959396610d3460608401985f850190610450565b6111ed7ff4933d5dd4d8f30b7e4aa5458c79db1cf45d3036455a222a81d2267610effb3d93611a126119e86116b2565b6119f0868252565b6119fb836020830152565b60016040820152611a0d856008610cd3565b61198f565b60405193849384611999565b906102b9929161190b565b610f84611a3791610f7c5f90565b611a446114c7600461043d565b1490565b916001916102b993612185565b6001600160a01b0390911681526060810193926102b99290916040916108bf90610d34565b91611a858284611854565b5f198110611a94575b50505050565b818110611ab95791611aaa611ab094925f940390565b91612185565b5f808080611a8e565b637dc7a0d960e11b5f9081529350611097926004611a55565b929190611ade5f6110f1565b936001600160a01b0385166001600160a01b03821614611b3a576001600160a01b0385166001600160a01b03831614611b1c576102b993945061238e565b63ec442f0560e01b5f9081526001600160a01b038616600452602490fd5b634b637e8f60e11b5f9081526001600160a01b038616600452602490fd5b6102b99033906123b6565b611b6b6112f4565b611b7157565b63d93c066560e01b5f908152600490fd5b906111796102cf61118092610447565b916102cf92611ba860408201935f830190610450565b602081840391015261031c565b9291611bc361038c5f6110f1565b6001600160a01b0385161461111f57611bdc600461043d565b611be58361043d565b1480611c95575b611c7757611c6184611c2f8161129a6102cf611293610f847f8ea7c7d006aed0f03fc5867bff86e38aec0f73f3b07e9bb66f92abf081833e58999a9b6007610743565b50611c4485611c3f836007610743565b611b82565b611c5b81611c566102cf88600a610cd3565b6123e4565b5061073a565b926112e6611c6e60405190565b92839283611b92565b638c3dc30160e01b5f9081526001600160a01b038516600452602490fd5b50611ca784611ca2610bb6565b611654565b611bec565b611cbd611cb98383611654565b1590565b15611d2457611cd760016118a0845f611667866005610fa9565b611cf1611ceb611ce5339390565b9361073a565b9161073a565b917f2f8788117e7eff1d82e926ec794901d17c78024a50270940304540a733656f0d611d1c60405190565b5f90a4600190565b50505f90565b611d348282611654565b15611d2457611d4d5f6118a08482611667866005610fa9565b611d5b611ceb611ce5339390565b917ff6391f5c32d9c69d2a47ea670b442974b53935d1edc7fd64eb21e047a839171b611d1c60405190565b611d8e612402565b6102b9611d9c5f6006611169565b7f5db9ee0a495bf2e6ff9c91a7834c1ba4fdd244a5e8aa4e537bd38aeae4b073aa6111ed335b604051918291826001600160a01b03909116815260200190565b6102b9611d86565b9190611def5f6110f1565b926001600160a01b0384166001600160a01b03821614611e13576102b9929361238e565b63ec442f0560e01b5f9081526001600160a01b038516600452602490fd5b6102cf9081906001600160a01b031681565b90611e6e61175e611e69611e645f6102cf96611e5c5f90565b500194610731565b611e31565b610917565b6124e6565b611e875f6102cf92611e825f90565b500190565b6125af565b611e94611b63565b6102b9611ea360016006611169565b7f62e78cea01bee320cd4e420270b5ea74000d11b0c9f74754ebdbfc544b05a2586111ed33611dc2565b6102b9611e8c565b919091611eee611798611ee783610f6e565b6008610cd3565b92611eff611cb96040860151151590565b611fcd5760208401611f126102cf825190565b8211611fab575080611f286117c1846009610743565b611f376117d562015180610917565b611f4561175e611417845190565b03611f9c57602001515f91611f5e91611410565b611410565b940193611f6f61175e6102cf875190565b11611f7a5750509050565b6110979250611f885f945190565b631abec70560e11b85529160048501611a55565b50611f5e5f91611f5983610917565b9161109791611fb95f945190565b6362dff91b60e01b85529160048501611a55565b50509050565b9061201b60016102b993611ffa6102cf611ff26117d562015180610917565b926009610743565b90819061200682610881565b819003612021575b50500191611f5983610881565b90611935565b61202a91611935565b61203e6120365f610917565b838301611935565b5f8061200e565b61204e5f6110f1565b6001600160a01b0381166001600160a01b038316036120fb576120d2611ce57fddf252ad1be2c89b69c2b068fc378daa952ba7f163c4a11628f55a4df523b3ef936120ae6120dc9461038c6120a78a611f596002610881565b6002611935565b6001600160a01b038716036120e1576112b46120a7886120ce6002610881565b0390565b936104af60405190565b0390a3565b6112b46120ee875f610743565b61201b8961035083610881565b612108611313835f610743565b84811061215957611ce57fddf252ad1be2c89b69c2b068fc378daa952ba7f163c4a11628f55a4df523b3ef936120ae6120dc9461038c61214a8a6120d2970390565b612154855f610743565b611935565b63391434e360e21b5f90815290611097908690856004611a55565b60609061218090612643565b905090565b9091926121915f6110f1565b6001600160a01b0381166001600160a01b03841614612230576001600160a01b0381166001600160a01b0385161461221057506121d7846121548561186e866001610743565b6121e057505050565b6120dc6120d2611ce57f8c5be1e5ebec7d5bd14f71427d1e84f3dd0314c0f7b2291e5b200ac8c7c3b9259361073a565b634a1406b160e11b5f9081526001600160a01b039091166004526024035ffd5b63e602df0560e01b5f9081526001600160a01b039091166004526024035ffd5b906102b9929161225e611b63565b9061226a838284612045565b6122735f6110f1565b6001600160a01b0381166001600160a01b03841614159081612371575b5061229a57505050565b60076122a9610f848483610743565b916004926122b96114c78561043d565b14612352576122cb610f848284610743565b6122d76114c78561043d565b146123315750610f84836122ea92610743565b6122f76114c7600361043d565b146123115750908161230c826102b994611ed5565b611fd3565b6335d1e97360e11b5f9081526001600160a01b039092168152602001035ffd5b63daf49ab960e01b5f9081526001600160a01b03909116835260208301035ffd5b63daf49ab960e01b5f9081526001600160a01b03851684526020840190fd5b6001600160a01b031690506001600160a01b03821614155f612290565b906102b99291612250565b6001600160a01b0390911681526040810192916102b99160200152565b906123c4611cb98284611654565b6123cc575050565b63e2517d3f60e01b5f90815291611097916004612399565b906123fd61175e611e69611e645f6102cf96611e5c5f90565b61267f565b61240d611cb96112f4565b61241357565b638dfc202b60e01b5f908152600490fd5b80548210156113ed5761243c6001915f5260205f2090565b910201905f90565b6102cf916008021c81565b906102cf9154612444565b915f1960089290920291821b911b61115f565b919061247c6102cf6111809390565b90835461245a565b634e487b7160e01b5f52603160045260245ffd5b6102b9915f9161246d565b805480156124c5575f1901906124c26124bc8383612424565b90612498565b55565b612484565b919061247c6102cf61118093610917565b6102b9915f916124ca565b906124f76113138260018501610fa9565b6125005f610917565b81146125a8576125646102cf925f926125599561255e600197889361252d61252786610917565b82611772565b8885019161254b61253c845490565b61254589610917565b90611772565b808303612569575b50505090565b6124a3565b01610fa9565b6124db565b6125926125986125a0946125896125836121549589612424565b9061244f565b92839188612424565b9061246d565b888801610fa9565b5f8080612553565b5050505f90565b5f6102cf916125bb5f90565b50015490565b906125da6125d0610b2f845490565b925f5260205f2090565b905f5b8181106125ea5750505090565b90919261260e6126076001926125ff87610881565b815260200190565b9460010190565b9291016125dd565b906102cf916125c1565b906102b9610f449261263160405190565b93848092612616565b6102cf90612620565b5f6102cf91612650606090565b500161263a565b908154916801000000000000000083101561057d57826125929160016102b995018155612424565b61268c611cb983836126b4565b15611d2457610f69916121549060016126ad846126a98482612657565b5490565b9301610fa9565b6126cc916001611313926126c55f90565b5001610fa9565b6126d861175e5f610917565b14159056fea49807205ce4d355092ef5a8a18f56e8913cf4a201fbe287825b095693c21775a164736f6c634300081a000addf252ad1be2c89b69c2b068fc378daa952ba7f163c4a11628f55a4df523b3ef",
  "linkReferences": {},
  "deployedLinkReferences": {}
}