{
  "_format": "hh-sol-artifact-1",
  "contractName": "CompliantStableCoin",
  "sourceName": "contracts/examples/CompliantStableCoin.sol",
  "abi": [
    {
      "inputs": [
        {
          "internalType": "string",
          "name": "name",
          "type": "string"
        },
        {
          "internalType": "string",
          "name": "symbol",
          "type": "string"
        },
        {
          "internalType": "address",
          "name": "_complianceEngine",
          "type": "address"
        }
      ],
      "stateMutability": "nonpayable",
      "type": "constructor"
    },
    {
      "inputs": [],
      "name": "AccessControlBadConfirmation",
      "type": "error"
    },
    {
      "inputs": [
        {
          "internalType": "address",
          "name": "account",
          "type": "address"
        },
        {
          "internalType": "bytes32",
          "name": "neededRole",
          "type": "bytes32"
        }
      ],
      "name": "AccessControlUnauthorizedAccount",
      "type": "error"
    },
    {
      "inputs": [
        {
          "internalType": "string",
          "name": "reason",
          "type": "string"
        }
      ],
      "name": "ComplianceCheckFailed",
      "type": "error"
    },
    {
      "inputs": [
        {
          "internalType": "address",
          "name": "spender",
          "type": "address"
        },
        {
          "internalType": "uint256",
          "name": "allowance",
          "type": "uint256"
        },
        {
          "internalType": "uint256",
          "name": "needed",
          "type": "uint256"
        }
      ],
      "name": "ERC20InsufficientAllowance",
      "type": "error"
    },
    {
      "inputs": [
        {
          "internalType": "address",
          "name": "sender",
          "type": "address"
        },
        {
          "internalType": "uint256",
          "name": "balance",
          "type": "uint256"
        },
        {
          "internalType": "uint256",
          "name": "needed",
          "type": "uint256"
        }
      ],
      "name": "ERC20InsufficientBalance",
      "type": "error"
    },
    {
      "inputs": [
        {
          "internalType": "address",
          "name": "approver",
          "type": "address"
        }
      ],
      "name": "ERC20InvalidApprover",
      "type": "error"
    },
    {
      "inputs": [
        {
          "internalType": "address",
          "name": "receiver",
          "type": "address"
        }
      ],
      "name": "ERC20InvalidReceiver",
      "type": "error"
    },
    {
      "inputs": [
        {
          "internalType": "address",
          "name": "sender",
          "type": "address"
        }
      ],
      "name": "ERC20InvalidSender",
      "type": "error"
    },
    {
      "inputs": [
        {
          "internalType": "address",
          "name": "spender",
          "type": "address"
        }
      ],
      "name": "ERC20InvalidSpender",
      "type": "error"
    },
    {
      "inputs": [],
      "name": "EnforcedPause",
      "type": "error"
    },
    {
      "inputs": [],
      "name": "ExceedsMaxTransaction",
      "type": "error"
    },
    {
      "inputs": [],
      "name": "ExpectedPause",
      "type": "error"
    },
    {
      "inputs": [],
      "name": "InsufficientAllowance",
      "type": "error"
    },
    {
      "inputs": [],
      "name": "InsufficientBalance",
      "type": "error"
    },
    {
      "inputs": [],
      "name": "InvalidAddress",
      "type": "error"
    },
    {
      "inputs": [],
      "name": "InvalidLength",
      "type": "error"
    },
    {
      "inputs": [],
      "name": "InvalidPolicy",
      "type": "error"
    },
    {
      "inputs": [],
      "name": "LengthMismatch",
      "type": "error"
    },
    {
      "inputs": [],
      "name": "NotKYCVerified",
      "type": "error"
    },
    {
      "anonymous": false,
      "inputs": [
        {
          "indexed": true,
          "internalType": "address",
          "name": "owner",
          "type": "address"
        },
        {
          "indexed": true,
          "internalType": "address",
          "name": "spender",
          "type": "address"
        },
        {
          "indexed": false,
          "internalType": "uint256",
          "name": "value",
          "type": "uint256"
        }
      ],
      "name": "Approval",
      "type": "event"
    },
    {
      "anonymous": false,
      "inputs": [
        {
          "indexed": true,
          "internalType": "address",
          "name": "engine",
          "type": "address"
        }
      ],
      "name": "ComplianceEngineSet",
      "type": "event"
    },
    {
      "anonymous": false,
      "inputs": [
        {
          "indexed": false,
          "internalType": "bool",
          "name": "enabled",
          "type": "bool"
        }
      ],
      "name": "ComplianceToggled",
      "type": "event"
    },
    {
      "anonymous": false,
      "inputs": [
        {
          "indexed": true,
          "internalType": "address",
          "name": "account",
          "type": "address"
        },
        {
          "indexed": false,
          "internalType": "bool",
          "name": "verified",
          "type": "bool"
        }
      ],
      "name": "KYCStatusUpdated",
      "type": "event"
    },
    {
      "anonymous": false,
      "inputs": [
        {
          "indexed": false,
          "internalType": "address",
          "name": "account",
          "type": "address"
        }
      ],
      "name": "Paused",
      "type": "event"
    },
    {
      "anonymous": false,
      "inputs": [
        {
          "indexed": true,
          "internalType": "uint256",
          "name": "maxTxAmount",
          "type": "uint256"
        },
        {
          "indexed": true,
          "internalType": "uint256",
          "name": "dailyLimit",
          "type": "uint256"
        },
        {
          "indexed": false,
          "internalType": "bool",
          "name": "allowMediumRisk",
          "type": "bool"
        },
        {
          "indexed": false,
          "internalType": "bool",
          "name": "allowHighRisk",
          "type": "bool"
        },
        {
          "indexed": false,
          "internalType": "bool",
          "name": "blockMixer",
          "type": "bool"
        },
        {
          "indexed": false,
          "internalType": "bool",
          "name": "requireDestinationKYC",
          "type": "bool"
        },
        {
          "indexed": false,
          "internalType": "uint256",
          "name": "cooldownPeriod",
          "type": "uint256"
        }
      ],
      "name": "PolicyUpdated",
      "type": "event"
    },
    {
      "anonymous": false,
      "inputs": [
        {
          "indexed": true,
          "internalType": "bytes32",
          "name": "role",
          "type": "bytes32"
        },
        {
          "indexed": true,
          "internalType": "bytes32",
          "name": "previousAdminRole",
          "type": "bytes32"
        },
        {
          "indexed": true,
          "internalType": "bytes32",
          "name": "newAdminRole",
          "type": "bytes32"
        }
      ],
      "name": "RoleAdminChanged",
      "type": "event"
    },
    {
      "anonymous": false,
      "inputs": [
        {
          "indexed": true,
          "internalType": "bytes32",
          "name": "role",
          "type": "bytes32"
        },
        {
          "indexed": true,
          "internalType": "address",
          "name": "account",
          "type": "address"
        },
        {
          "indexed": true,
          "internalType": "address",
          "name": "sender",
          "type": "address"
        }
      ],
      "name": "RoleGranted",
      "type": "event"
    },
    {
      "anonymous": false,
      "inputs": [
        {
          "indexed": true,
          "internalType": "bytes32",
          "name": "role",
          "type": "bytes32"
        },
        {
          "indexed": true,
          "internalType": "address",
          "name": "account",
          "type": "address"
        },
        {
          "indexed": true,
          "internalType": "address",
          "name": "sender",
          "type": "address"
        }
      ],
      "name": "RoleRevoked",
      "type": "event"
    },
    {
      "anonymous": false,
      "inputs": [
        {
          "indexed": true,
          "internalType": "address",
          "name": "from",
          "type": "address"
        },
        {
          "indexed": true,
          "internalType": "address",
          "name": "to",
          "type": "address"
        },
        {
          "indexed": false,
          "internalType": "uint256",
          "name": "value",
          "type": "uint256"
        }
      ],
      "name": "Transfer",
      "type": "event"
    },
    {
      "anonymous": false,
      "inputs": [
        {
          "indexed": true,
          "internalType": "address",
          "name": "from",
          "type": "address"
        },
        {
          "indexed": true,
          "internalType": "address",
          "name": "to",
          "type": "address"
        },
        {
          "indexed": false,
          "internalType": "uint256",
          "name": "amount",
          "type": "uint256"
        },
        {
          "indexed": false,
          "internalType": "string",
          "name": "reason",
          "type": "string"
        }
      ],
      "name": "TransferBlocked",
      "type": "event"
    },
    {
      "anonymous": false,
      "inputs": [
        {
          "indexed": false,
          "internalType": "address",
          "name": "account",
          "type": "address"
        }
      ],
      "name": "Unpaused",
      "type": "event"
    },
    {
      "inputs": [],
      "name": "BURNER_ROLE",
      "outputs": [
        {
          "internalType": "bytes32",
          "name": "",
          "type": "bytes32"
        }
      ],
      "stateMutability": "view",
      "type": "function"
    },
    {
      "inputs": [],
      "name": "COMPLIANCE_ADMIN_ROLE",
      "outputs": [
        {
          "internalType": "bytes32",
          "name": "",
          "type": "bytes32"
        }
      ],
      "stateMutability": "view",
      "type": "function"
    },
    {
      "inputs": [],
      "name": "DEFAULT_ADMIN_ROLE",
      "outputs": [
        {
          "internalType": "bytes32",
          "name": "",
          "type": "bytes32"
        }
      ],
      "stateMutability": "view",
      "type": "function"
    },
    {
      "inputs": [],
      "name": "MAX_BATCH_SIZE",
      "outputs": [
        {
          "internalType": "uint256",
          "name": "",
          "type": "uint256"
        }
      ],
      "stateMutability": "view",
      "type": "function"
    },
    {
      "inputs": [],
      "name": "MAX_DAILY_LIMIT",
      "outputs": [
        {
          "internalType": "uint256",
          "name": "",
          "type": "uint256"
        }
      ],
      "stateMutability": "view",
      "type": "function"
    },
    {
      "inputs": [],
      "name": "MAX_KYC_BATCH_SIZE",
      "outputs": [
        {
          "internalType": "uint256",
          "name": "",
          "type": "uint256"
        }
      ],
      "stateMutability": "view",
      "type": "function"
    },
    {
      "inputs": [],
      "name": "MAX_TX_AMOUNT",
      "outputs": [
        {
          "internalType": "uint256",
          "name": "",
          "type": "uint256"
        }
      ],
      "stateMutability": "view",
      "type": "function"
    },
    {
      "inputs": [],
      "name": "MINTER_ROLE",
      "outputs": [
        {
          "internalType": "bytes32",
          "name": "",
          "type": "bytes32"
        }
      ],
      "stateMutability": "view",
      "type": "function"
    },
    {
      "inputs": [],
      "name": "MIN_MAX_TX",
      "outputs": [
        {
          "internalType": "uint256",
          "name": "",
          "type": "uint256"
        }
      ],
      "stateMutability": "view",
      "type": "function"
    },
    {
      "inputs": [
        {
          "internalType": "address",
          "name": "owner",
          "type": "address"
        },
        {
          "internalType": "address",
          "name": "spender",
          "type": "address"
        }
      ],
      "name": "allowance",
      "outputs": [
        {
          "internalType": "uint256",
          "name": "",
          "type": "uint256"
        }
      ],
      "stateMutability": "view",
      "type": "function"
    },
    {
      "inputs": [
        {
          "internalType": "address",
          "name": "spender",
          "type": "address"
        },
        {
          "internalType": "uint256",
          "name": "value",
          "type": "uint256"
        }
      ],
      "name": "approve",
      "outputs": [
        {
          "internalType": "bool",
          "name": "",
          "type": "bool"
        }
      ],
      "stateMutability": "nonpayable",
      "type": "function"
    },
    {
      "inputs": [
        {
          "internalType": "address",
          "name": "account",
          "type": "address"
        }
      ],
      "name": "balanceOf",
      "outputs": [
        {
          "internalType": "uint256",
          "name": "",
          "type": "uint256"
        }
      ],
      "stateMutability": "view",
      "type": "function"
    },
    {
      "inputs": [
        {
          "internalType": "address[]",
          "name": "accounts",
          "type": "address[]"
        },
        {
          "internalType": "bool",
          "name": "verified",
          "type": "bool"
        }
      ],
      "name": "batchSetKYC",
      "outputs": [],
      "stateMutability": "nonpayable",
      "type": "function"
    },
    {
      "inputs": [
        {
          "internalType": "address[]",
          "name": "recipients",
          "type": "address[]"
        },
        {
          "internalType": "uint256[]",
          "name": "amounts",
          "type": "uint256[]"
        }
      ],
      "name": "batchTransfer",
      "outputs": [
        {
          "internalType": "bool",
          "name": "",
          "type": "bool"
        }
      ],
      "stateMutability": "nonpayable",
      "type": "function"
    },
    {
      "inputs": [
        {
          "internalType": "address",
          "name": "from",
          "type": "address"
        },
        {
          "internalType": "uint256",
          "name": "amount",
          "type": "uint256"
        }
      ],
      "name": "burn",
      "outputs": [],
      "stateMutability": "nonpayable",
      "type": "function"
    },
    {
      "inputs": [],
      "name": "complianceEnabled",
      "outputs": [
        {
          "internalType": "bool",
          "name": "",
          "type": "bool"
        }
      ],
      "stateMutability": "view",
      "type": "function"
    },
    {
      "inputs": [],
      "name": "complianceEngine",
      "outputs": [
        {
          "internalType": "contract IAssetCompliance",
          "name": "",
          "type": "address"
        }
      ],
      "stateMutability": "view",
      "type": "function"
    },
    {
      "inputs": [
        {
          "internalType": "address",
          "name": "",
          "type": "address"
        },
        {
          "internalType": "uint256",
          "name": "",
          "type": "uint256"
        }
      ],
      "name": "dailySpent",
      "outputs": [
        {
          "internalType": "uint256",
          "name": "",
          "type": "uint256"
        }
      ],
      "stateMutability": "view",
      "type": "function"
    },
    {
      "inputs": [],
      "name": "decimals",
      "outputs": [
        {
          "internalType": "uint8",
          "name": "",
          "type": "uint8"
        }
      ],
      "stateMutability": "pure",
      "type": "function"
    },
    {
      "inputs": [
        {
          "internalType": "address",
          "name": "account",
          "type": "address"
        }
      ],
      "name": "getAddressRiskInfo",
      "outputs": [
        {
          "internalType": "uint8",
          "name": "riskScore",
          "type": "uint8"
        },
        {
          "internalType": "enum IAssetCompliance.RiskTier",
          "name": "tier",
          "type": "uint8"
        },
        {
          "internalType": "bool",
          "name": "isSanctioned",
          "type": "bool"
        },
        {
          "internalType": "uint256",
          "name": "spent",
          "type": "uint256"
        }
      ],
      "stateMutability": "view",
      "type": "function"
    },
    {
      "inputs": [
        {
          "internalType": "bytes32",
          "name": "role",
          "type": "bytes32"
        }
      ],
      "name": "getRoleAdmin",
      "outputs": [
        {
          "internalType": "bytes32",
          "name": "",
          "type": "bytes32"
        }
      ],
      "stateMutability": "view",
      "type": "function"
    },
    {
      "inputs": [
        {
          "internalType": "bytes32",
          "name": "role",
          "type": "bytes32"
        },
        {
          "internalType": "address",
          "name": "account",
          "type": "address"
        }
      ],
      "name": "grantRole",
      "outputs": [],
      "stateMutability": "nonpayable",
      "type": "function"
    },
    {
      "inputs": [
        {
          "internalType": "bytes32",
          "name": "role",
          "type": "bytes32"
        },
        {
          "internalType": "address",
          "name": "account",
          "type": "address"
        }
      ],
      "name": "hasRole",
      "outputs": [
        {
          "internalType": "bool",
          "name": "",
          "type": "bool"
        }
      ],
      "stateMutability": "view",
      "type": "function"
    },
    {
      "inputs": [
        {
          "internalType": "address",
          "name": "",
          "type": "address"
        }
      ],
      "name": "kycVerified",
      "outputs": [
        {
          "internalType": "bool",
          "name": "",
          "type": "bool"
        }
      ],
      "stateMutability": "view",
      "type": "function"
    },
    {
      "inputs": [
        {
          "internalType": "address",
          "name": "to",
          "type": "address"
        },
        {
          "internalType": "uint256",
          "name": "amount",
          "type": "uint256"
        }
      ],
      "name": "mint",
      "outputs": [],
      "stateMutability": "nonpayable",
      "type": "function"
    },
    {
      "inputs": [],
      "name": "name",
      "outputs": [
        {
          "internalType": "string",
          "name": "",
          "type": "string"
        }
      ],
      "stateMutability": "view",
      "type": "function"
    },
    {
      "inputs": [],
      "name": "pause",
      "outputs": [],
      "stateMutability": "nonpayable",
      "type": "function"
    },
    {
      "inputs": [],
      "name": "paused",
      "outputs": [
        {
          "internalType": "bool",
          "name": "",
          "type": "bool"
        }
      ],
      "stateMutability": "view",
      "type": "function"
    },
    {
      "inputs": [],
      "name": "policy",
      "outputs": [
        {
          "internalType": "uint256",
          "name": "maxTxAmount",
          "type": "uint256"
        },
        {
          "internalType": "uint256",
          "name": "dailyLimit",
          "type": "uint256"
        },
        {
          "internalType": "bool",
          "name": "allowMediumRisk",
          "type": "bool"
        },
        {
          "internalType": "bool",
          "name": "allowHighRisk",
          "type": "bool"
        },
        {
          "internalType": "bool",
          "name": "blockMixer",
          "type": "bool"
        },
        {
          "internalType": "bool",
          "name": "requireDestinationKYC",
          "type": "bool"
        },
        {
          "internalType": "uint256",
          "name": "cooldownPeriod",
          "type": "uint256"
        }
      ],
      "stateMutability": "view",
      "type": "function"
    },
    {
      "inputs": [
        {
          "internalType": "bytes32",
          "name": "role",
          "type": "bytes32"
        },
        {
          "internalType": "address",
          "name": "callerConfirmation",
          "type": "address"
        }
      ],
      "name": "renounceRole",
      "outputs": [],
      "stateMutability": "nonpayable",
      "type": "function"
    },
    {
      "inputs": [
        {
          "internalType": "bytes32",
          "name": "role",
          "type": "bytes32"
        },
        {
          "internalType": "address",
          "name": "account",
          "type": "address"
        }
      ],
      "name": "revokeRole",
      "outputs": [],
      "stateMutability": "nonpayable",
      "type": "function"
    },
    {
      "inputs": [
        {
          "internalType": "address",
          "name": "_engine",
          "type": "address"
        }
      ],
      "name": "setComplianceEngine",
      "outputs": [],
      "stateMutability": "nonpayable",
      "type": "function"
    },
    {
      "inputs": [
        {
          "internalType": "address",
          "name": "account",
          "type": "address"
        },
        {
          "internalType": "bool",
          "name": "verified",
          "type": "bool"
        }
      ],
      "name": "setKYCStatus",
      "outputs": [],
      "stateMutability": "nonpayable",
      "type": "function"
    },
    {
      "inputs": [
        {
          "components": [
            {
              "internalType": "uint256",
              "name": "maxTxAmount",
              "type": "uint256"
            },
            {
              "internalType": "uint256",
              "name": "dailyLimit",
              "type": "uint256"
            },
            {
              "internalType": "bool",
              "name": "allowMediumRisk",
              "type": "bool"
            },
            {
              "internalType": "bool",
              "name": "allowHighRisk",
              "type": "bool"
            },
            {
              "internalType": "bool",
              "name": "blockMixer",
              "type": "bool"
            },
            {
              "internalType": "bool",
              "name": "requireDestinationKYC",
              "type": "bool"
            },
            {
              "internalType": "uint256",
              "name": "cooldownPeriod",
              "type": "uint256"
            },
            {
              "internalType": "address[]",
              "name": "blockedTokens",
              "type": "address[]"
            }
          ],
          "internalType": "struct IAssetCompliance.IssuerPolicy",
          "name": "_policy",
          "type": "tuple"
        }
      ],
      "name": "setPolicy",
      "outputs": [],
      "stateMutability": "nonpayable",
      "type": "function"
    },
    {
      "inputs": [
        {
          "internalType": "address",
          "name": "from",
          "type": "address"
        },
        {
          "internalType": "address",
          "name": "to",
          "type": "address"
        },
        {
          "internalType": "uint256",
          "name": "amount",
          "type": "uint256"
        }
      ],
      "name": "simulateTransfer",
      "outputs": [
        {
          "internalType": "bool",
          "name": "wouldSucceed",
          "type": "bool"
        },
        {
          "internalType": "enum IAssetCompliance.Decision",
          "name": "decision",
          "type": "uint8"
        },
        {
          "internalType": "string",
          "name": "reason",
          "type": "string"
        }
      ],
      "stateMutability": "view",
      "type": "function"
    },
    {
      "inputs": [
        {
          "internalType": "bytes4",
          "name": "interfaceId",
          "type": "bytes4"
        }
      ],
      "name": "supportsInterface",
      "outputs": [
        {
          "internalType": "bool",
          "name": "",
          "type": "bool"
        }
      ],
      "stateMutability": "view",
      "type": "function"
    },
    {
      "inputs": [],
      "name": "symbol",
      "outputs": [
        {
          "internalType": "string",
          "name": "",
          "type": "string"
        }
      ],
      "stateMutability": "view",
      "type": "function"
    },
    {
      "inputs": [
        {
          "internalType": "bool",
          "name": "_enabled",
          "type": "bool"
        }
      ],
      "name": "toggleCompliance",
      "outputs": [],
      "stateMutability": "nonpayable",
      "type": "function"
    },
    {
      "inputs": [],
      "name": "totalSupply",
      "outputs": [
        {
          "internalType": "uint256",
          "name": "",
          "type": "uint256"
        }
      ],
      "stateMutability": "view",
      "type": "function"
    },
    {
      "inputs": [
        {
          "internalType": "address",
          "name": "to",
          "type": "address"
        },
        {
          "internalType": "uint256",
          "name": "value",
          "type": "uint256"
        }
      ],
      "name": "transfer",
      "outputs": [
        {
          "internalType": "bool",
          "name": "",
          "type": "bool"
        }
      ],
      "stateMutability": "nonpayable",
      "type": "function"
    },
    {
      "inputs": [
        {
          "internalType": "address",
          "name": "from",
          "type": "address"
        },
        {
          "internalType": "address",
          "name": "to",
          "type": "address"
        },
        {
          "internalType": "uint256",
          "name": "value",
          "type": "uint256"
        }
      ],
      "name": "transferFrom",
      "outputs": [
        {
          "internalType": "bool",
          "name": "",
          "type": "bool"
        }
      ],
      "stateMutability": "nonpayable",
      "type": "function"
    },
    {
      "inputs": [],
      "name": "unpause",
      "outputs": [],
      "stateMutability": "nonpayable",
      "type": "function"
    }
  ],
  "bytecode": "0x60806040523461002b5761001a610014610171565b91610520565b60405161320d6108d1823961320d90f35b5f80fd5b634e487b7160e01b5f52604160045260245ffd5b90601f01601f191681019081106001600160401b0382111761006457604052565b61002f565b9061007d61007660405190565b9283610043565b565b6001600160401b03811161006457602090601f01601f19160190565b90825f9392825e0152565b909291926100bb6100b68261007f565b610069565b938185528183011161002b5761007d91602085019061009b565b9080601f8301121561002b5781516100ef926020016100a6565b90565b6001600160a01b031690565b6001600160a01b0381160361002b57565b9050519061007d826100fe565b909160608284031261002b5781516001600160401b03811161002b57836101449184016100d5565b602083015190936001600160401b03821161002b57604061016a826100ef9487016100d5565b940161010f565b61018f613ade8038038061018481610069565b92833981019061011c565b909192565b9060ff60a81b9060a81b5b9181191691161790565b906101b96100ef6101c092151590565b8254610194565b9055565b6100f26100ef6100ef9290565b6100ef906101c4565b6100ef906100f2906001600160a01b031682565b6100ef906101da565b6100ef906101ee565b90610100600160a81b039060081b61019f565b906102236100ef6101c0926101f7565b8254610200565b6100ef6100ef6100ef9290565b6100ef5f61022a565b6001600160401b0381116100645760208091020190565b906102646100b683610240565b918252565b369037565b9061007d61028461027e84610257565b93610240565b601f190160208401610269565b6100ef610100610069565b905f199061019f565b906102b56100ef6101c09261022a565b825461029c565b9060ff9061019f565b906102d56100ef6101c092151590565b82546102bc565b9061ff009060081b61019f565b906102f96100ef6101c092151590565b82546102dc565b9062ff00009060101b61019f565b9061031e6100ef6101c092151590565b8254610300565b9063ff0000009060181b61019f565b906103446100ef6101c092151590565b8254610325565b915f1960089290920291821b911b61019f565b919061036f6100ef6101c09361022a565b90835461034b565b61007d915f9161035e565b81811061038d575050565b8061039a5f600193610377565b01610382565b9190918282106103af57505050565b61007d92916103c290915f5260205f2090565b9182019101610382565b9068010000000000000000811161006457816103e961007d935490565b908281556103a0565b8151916001600160401b0383116100645761042661041c60019261041686866103cc565b60200190565b925f5260205f2090565b9204915f5b8381106104385750505050565b60019060206104516100ef86516001600160a01b031690565b940193818401550161042b565b9061007d916103f2565b600461050f60e061007d946104866104805f83015190565b866102a5565b61049d610494602083015190565b600187016102a5565b6104f3600286016104ba6104b46040850151151590565b826102c5565b6104d06104ca6060850151151590565b826102e9565b6104e66104e06080850151151590565b8261030e565b60a0830151151590610334565b61050a61050160c083015190565b600387016102a5565b015190565b910161045e565b9061007d91610468565b9061052a91610686565b610536600160066101a9565b6105426100f25f6101d1565b6001600160a01b038216146106755761055d610564916101f7565b6006610213565b61057661056f610237565b3390610825565b506105a07f9f2df0fed2c77648de5860a4cc508cd0818c85b8b8a1ab4ceeef8d981c8956a661056f565b506105ca7f3c11d16cbaffd01df69ce1c404f6340ee057498f5f00246190ea54220576a84861056f565b506105f47f6390f5a69ff59edce8e461308dbd399b74f0414e629057022cbc92159a014c7661056f565b5061007d6106015f61022a565b61066e61060d8261026e565b610667610618610291565b9361062e61062a64e8d4a5100061022a565b8652565b61064761064065048c2739500061022a565b6020870152565b5f60408601525f6060860152600160808601525f60a086015260c0850152565b60e0830152565b6007610516565b63e6c4247b60e01b5f908152600490fd5b61007d918291829182918291906107f7565b634e487b7160e01b5f52602260045260245ffd5b90600160028304921680156106cc575b60208310146106c757565b610698565b91607f16916106bc565b9190601f81116106e557505050565b6106f561007d935f5260205f2090565b906020601f840181900483019310610717575b6020601f909101040190610382565b9091508190610708565b9061072a815190565b906001600160401b0382116100645761074d8261074785546106ac565b856106d6565b602090601f8311600114610786576101c092915f918361077b575b50505f19600883021c1916906002021790565b015190505f80610768565b601f19831691610799855f5260205f2090565b925f5b8181106107d5575091600293918560019694106107bd575b50505002019055565b01515f196008601f8516021c191690555f80806107b4565b9193602060018192878701518155019501920161079c565b9061007d91610721565b9061080661007d9260036107ed565b60046107ed565b905b5f5260205260405f2090565b9061080f906101f7565b61083661083283836108ae565b1590565b156108a85761085b6001610856845f61085086600561080d565b0161081b565b6102c5565b61087561086f610869339390565b936101f7565b916101f7565b917f2f8788117e7eff1d82e926ec794901d17c78024a50270940304540a733656f0d6108a060405190565b5f90a4600190565b50505f90565b6100ef915f6108506108c9936108c15f90565b50600561080d565b5460ff169056fe60806040526004361015610011575f80fd5b5f3560e01c806301ffc9a7146102b05780630505c8c9146102ab57806306fdde03146102a6578063095ea7b3146102a157806318160ddd1461029c57806321d7b2bf1461029757806323b872dd14610292578063245f02ee1461028d578063248a9ca314610288578063282c51f3146102835780632ae96a801461027e5780632bbb3abc146102795780632f2ff15d14610274578063313ce5671461026f57806336568abe1461026a5780633b652d27146102655780633f4ba83a1461026057806340c10f191461025b5780635c975abb1461025657806370a08231146102515780638456cb591461024c57806388d695b2146102475780638ae2702f1461024257806390543cae1461023d5780639061a57f1461023857806391d148541461023357806395d89b411461022e5780639b3c6b22146102295780639dc29fac14610224578063a11939bd1461021f578063a217fddf1461021a578063a3f569ae14610215578063a5410a6614610210578063a9059cbb1461020b578063c8f4eb6b14610206578063cfdbf25414610201578063d5391393146101fc578063d547741f146101f7578063d83c8270146101f2578063dd62ed3e146101ed578063e62a4c9f146101e85763e74307bb036102b557610dc6565b610dab565b610d78565b610d41565b610d1c565b610ce3565b610cc8565b610c8f565b610c36565b610c1b565b610bd6565b610b98565b610b61565b610b48565b610b2f565b610ade565b610ac2565b610aa6565b610a15565b6109d1565b61099b565b610908565b6108ed565b6108d2565b6108b9565b6108a1565b610886565b610859565b61082a565b610811565b6107d3565b610789565b6106fe565b6106e3565b61069e565b6105f5565b6105af565b61054f565b610533565b6104ae565b6103f2565b6102f6565b5f80fd5b6001600160e01b031981165b036102b557565b905035906102d9826102b9565b565b906020828203126102b5576102ef916102cc565b90565b9052565b346102b55761032461031161030c3660046102db565b610dde565b6040515b91829182901515815260200190565b0390f35b5f9103126102b557565b6102ef9081565b6102ef9054610332565b6102ef905b60ff1690565b6102ef9054610343565b6102ef9060081c610348565b6102ef9054610358565b6102ef9060101c610348565b6102ef905461036e565b6102ef9060181c610348565b6102ef9054610384565b60076103a581610339565b916103b260018301610339565b916103bf6002820161034e565b916103cc60028301610364565b916103d96002820161037a565b916102ef60036103eb60028501610390565b9301610339565b346102b557610402366004610328565b61032461040d61039a565b9361041d97959793919360405190565b9788978890815260e0810197969590949093909290916020860152151560408501521515606084015215156080830152151560a082015260c00152565b90825f9392825e0152565b61048661048f6020936104999361047a815190565b80835293849260200190565b9586910161045a565b601f01601f191690565b0190565b60208082526102ef92910190610465565b346102b5576104be366004610328565b6103246104c9610f33565b6040519182918261049d565b6001600160a01b031690565b6001600160a01b0381166102c5565b905035906102d9826104e1565b806102c5565b905035906102d9826104fd565b91906040838203126102b5576102ef90602061052c82866104f0565b9401610503565b346102b557610324610311610549366004610510565b90610f3d565b346102b55761055f366004610328565b61032461056a610f4d565b6040515b9182918290815260200190565b90816101009103126102b55790565b906020828203126102b55781356001600160401b0381116102b5576102ef920161057b565b346102b5576105c76105c236600461058a565b611415565b604051005b90916060828403126102b5576102ef6105e584846104f0565b93604061052c82602087016104f0565b346102b55761032461031161060b3660046105cc565b9161141e565b906020828203126102b5576102ef916104f0565b634e487b7160e01b5f52602160045260245ffd5b6005111561064357565b610625565b906102d982610639565b6102ef90610648565b6102f290610652565b61069a6102d994610691606094989795610687608086019a5f87019060ff169052565b602085019061065b565b15156040830152565b0152565b346102b5576103246106b96106b4366004610611565b611642565b906106c694929460405190565b94859485610664565b906020828203126102b5576102ef91610503565b346102b55761032461056a6106f93660046106cf565b6117bc565b346102b55761070e366004610328565b6103247f3c11d16cbaffd01df69ce1c404f6340ee057498f5f00246190ea54220576a84861056a565b6004111561064357565b906102d982610737565b6102ef90610741565b6102f29061074b565b90151581526102ef92606082019290919061077c906020830190610754565b6040818403910152610465565b346102b5576103246107a561079f3660046105cc565b916119c1565b6040519193919384938461075d565b6102ef6102ef6102ef9290565b6102ef60c86107b4565b6102ef6107c1565b346102b5576107e3366004610328565b61032461056a6107cb565b91906040838203126102b5576102ef90602061080a8286610503565b94016104f0565b346102b5576105c76108243660046107ee565b90611b76565b346102b55761083a366004610328565b610324610845611b8a565b6040519182918260ff909116815260200190565b346102b5576105c761086c3660046107ee565b90611b92565b6102ef620f42406107b4565b6102ef610872565b346102b557610896366004610328565b61032461056a61087e565b346102b5576108b1366004610328565b6105c7611bdb565b346102b5576105c76108cc366004610510565b90611d99565b346102b5576108e2366004610328565b610324610311611da3565b346102b55761032461056a610903366004610611565b611dad565b346102b557610918366004610328565b6105c7611dd8565b909182601f830112156102b5578135916001600160401b0383116102b55760200192602083028401116102b557565b90916040828403126102b55781356001600160401b0381116102b55783610977918401610920565b92909360208201356001600160401b0381116102b5576109979201610920565b9091565b346102b5576103246103116109b136600461094f565b92919091611f49565b6102ef6509184e72a0006107b4565b6102ef6109ba565b346102b5576109e1366004610328565b61032461056a6109c9565b8015156102c5565b905035906102d9826109ec565b906020828203126102b5576102ef916109f4565b346102b5576105c7610a28366004610a01565b611fd0565b6102ef906104d5906001600160a01b031682565b6102ef90610a2d565b6102ef90610a41565b90610a5d90610a4a565b5f5260205260405f2090565b90610a5d906107b4565b6102ef916008021c81565b906102ef9154610a73565b610aa16102ef92610a9c5f93600d610a53565b610a69565b610a7e565b346102b55761032461056a610abc366004610510565b90610a89565b346102b557610324610311610ad83660046107ee565b90611fd9565b346102b557610aee366004610328565b6103246104c9611ff2565b916040838303126102b55782356001600160401b0381116102b55782610b266020946102ef938701610920565b949095016109f4565b346102b5576105c7610b42366004610af9565b916120fd565b346102b5576105c7610b5b366004610510565b9061233f565b346102b557610b71366004610328565b6103245f805160206131e183398151915261056a565b6102ef5f6107b4565b6102ef610b87565b346102b557610ba8366004610328565b61032461056a610b90565b91906040838203126102b5576102ef906020610bcf82866104f0565b94016109f4565b346102b5576105c7610be9366004610bb3565b906123c5565b6102ef916008021c610348565b906102ef9154610bef565b5f610c166102ef92600c610a53565b610bfc565b346102b557610324610311610c31366004610611565b610c07565b346102b557610324610311610c4c366004610510565b906123cf565b6102ef916008021c6104d5565b906102ef9154610c52565b6102ef60016006610c5f565b6102f290610a4a565b6020810192916102d99190610c76565b346102b557610c9f366004610328565b610324610caa610c6a565b60405191829182610c7f565b6102ef60326107b4565b6102ef610cb6565b346102b557610cd8366004610328565b61032461056a610cc0565b346102b557610cf3366004610328565b6103247f9f2df0fed2c77648de5860a4cc508cd0818c85b8b8a1ab4ceeef8d981c8956a661056a565b346102b5576105c7610d2f3660046107ee565b906123f5565b6102ef60156006610bfc565b346102b557610d51366004610328565b610324610311610d35565b91906040838203126102b5576102ef90602061080a82866104f0565b346102b55761032461056a610d8e366004610d5c565b906123ff565b6102ef655af3107a40006107b4565b6102ef610d94565b346102b557610dbb366004610328565b61032461056a610da3565b346102b5576105c7610dd9366004610611565b6124dd565b637965db0b60e01b6001600160e01b0319821614908115610dfd575090565b6102ef91506124e6565b634e487b7160e01b5f52602260045260245ffd5b9060016002830492168015610e3b575b6020831014610e3657565b610e07565b91607f1691610e2b565b80545f939291610e61610e5783610e1b565b8085529360200190565b9160018116908115610eb05750600114610e7a57505050565b610e8b91929394505f5260205f2090565b915f925b818410610e9c5750500190565b805484840152602090930192600101610e8f565b92949550505060ff1916825215156020020190565b906102ef91610e45565b634e487b7160e01b5f52604160045260245ffd5b90601f01601f191681019081106001600160401b03821117610f0457604052565b610ecf565b906102d9610f2392610f1a60405190565b93848092610ec5565b0383610ee3565b6102ef90610f09565b6102ef6003610f2a565b610f48919033612504565b600190565b6102ef6002610339565b6102d990610f765f805160206131e1833981519152612511565b612511565b6112a9565b356102ef816104fd565b905f19905b9181191691161790565b90610fa46102ef610fab926107b4565b8254610f85565b9055565b356102ef816109ec565b9060ff90610f8a565b90610fd26102ef610fab92151590565b8254610fb9565b9061ff009060081b610f8a565b90610ff66102ef610fab92151590565b8254610fd9565b9062ff00009060101b610f8a565b9061101b6102ef610fab92151590565b8254610ffd565b9063ff0000009060181b610f8a565b906110416102ef610fab92151590565b8254611022565b903590601e1936829003018212156102b557018035906001600160401b0382116102b5576020019160208202360383136102b557565b634e487b7160e01b5f52601160045260245ffd5b915f1960089290920291821b911b610f8a565b91906110b66102ef610fab936107b4565b908354611092565b6102d9915f916110a5565b8181106110d4575050565b806110e15f6001936110be565b016110c9565b9190918282106110f657505050565b6102d9929161110990915f5260205f2090565b91820191016110c9565b90680100000000000000008111610f0457816111306102d9935490565b908281556110e7565b356102ef816104e1565b906001600160401b038311610f045761116f6111656001926102ef8686611113565b925f5260205f2090565b9204915f5b8381106111815750505050565b60019060206111926102ef86611139565b9401938184015501611174565b906102d99291611143565b60049061125a6102d9936111c86111c25f8301610f7b565b84610f94565b6111e06111d760208301610f7b565b60018501610f94565b611238600284016111fc6111f660408501610faf565b82610fc2565b61121161120b60608501610faf565b82610fe6565b61122661122060808501610faf565b8261100b565b61123260a08401610faf565b90611031565b61125061124760c08301610f7b565b60038501610f94565b60e0810190611048565b9290910161119f565b906102d9916111aa565b901515815260a0810195946102d994909360809361069a92916112a0916112979015156020870152565b15156040850152565b15156060830152565b806112b381610f7b565b6112c56112c16102ef610872565b9190565b1080156113f7575b6113c45760208201906112df82610f7b565b6112ee6112c16102ef84610f7b565b1080156113d9575b6113c45760c083019061130882610f7b565b6113176112c162278d006107b4565b116113c4577ffdeadb506389e7477cae30cd27ccbc01c36365bf0190f2739ed1570ec06d78e6916113bf61135f6113598794611354866007611263565b610f7b565b95610f7b565b9461136c60408501610faf565b926113ac6113a66113a061139a60a0611393608061138c60608d01610faf565b9b01610faf565b9c01610faf565b93610f7b565b936107b4565b976107b4565b976113b660405190565b9586958661126d565b0390a3565b63d06b96b160e01b5f908152600490fd5b035ffd5b506113e382610f7b565b6113f16112c16102ef610d94565b116112f6565b5061140181610f7b565b61140f6112c16102ef6109ba565b116112cd565b6102d990610f57565b610f4892919061142f833383612543565b61259b565b6102ef9060081c6104d5565b6102ef9054611434565b6104d56102ef6102ef9290565b6102ef9061144a565b6103486102ef6102ef9290565b906102d961147a60405190565b9283610ee3565b60ff81166102c5565b905051906102d982611481565b600511156102b557565b905051906102d982611497565b6001600160401b038111610f045760208091020190565b905051906102d9826104fd565b909291926114e76114e2826114ae565b61146d565b93818552602080860192028301928184116102b557915b83831061150b5750505050565b6020809161151984866114c5565b8152019201916114fe565b9080601f830112156102b55781516102ef926020016114d2565b905051906102d9826109ec565b91909160a0818403126102b55761156260a061146d565b9261156d818361148a565b845261157c81602084016114a1565b602085015260408201516001600160401b0381116102b557826115a6836080936115c39601611524565b60408701526115b883606083016114c5565b60608701520161153e565b6080830152565b906020828203126102b55781516001600160401b0381116102b5576102ef920161154b565b6040513d5f823e3d90fd5b906020828203126102b5576102ef916114c5565b6001600160a01b0390911681526040810192916102d9916020905b01906001600160a01b03169052565b6102ef9051610648565b906116556116506006611440565b610a4a565b6116716116646104d55f611457565b916001600160a01b031690565b1461179d576116836116506006611440565b915f61168e60405190565b63137f777960e11b81526001600160a01b038316600482015293849060249082905afa92831561176d575f93611772575b506020611705916116d36116506006611440565b6116dc30610a4a565b916116e660405190565b8095819482936116fa63a85e35de60e01b90565b84526004840161160e565b03915afa90811561176d575f9161173e575b50825160ff1691611737608061172f60208701611638565b950151151590565b9293929190565b611760915060203d602011611766575b6117588183610ee3565b8101906115fa565b5f611717565b503d61174e565b6115ef565b6117059193506117956020913d805f833e61178d8183610ee3565b8101906115ca565b9391506116bf565b90506117a85f611460565b905f905f906102ef5f6107b4565b90610a5d565b60016117d46102ef926117cc5f90565b5060056117b6565b01610339565b6001600160401b038111610f0457602090601f01601f19160190565b906118036114e2836117da565b918252565b611812601e6117f6565b7f45786365656473206d6178207472616e73616374696f6e20616d6f756e740000602082015290565b6102ef611808565b61184d60106117f6565b6f139bdd0812d650c81d995c9a599a595960821b602082015290565b6102ef611843565b634e487b7160e01b5f52601260045260245ffd5b811561188f570490565b611871565b919061189f565b9290565b82018092116118aa57565b61107e565b6118b960136117f6565b72115e18d959591cc819185a5b1e481b1a5b5a5d606a1b602082015290565b6102ef6118af565b6102ef5f6117f6565b6102ef6118e0565b600411156102b557565b905051906102d9826118f1565b909291926119186114e2826117da565b93818552818301116102b5576102d991602085019061045a565b9080601f830112156102b55781516102ef92602001611908565b9190916040818403126102b55761196383826118fb565b9260208201516001600160401b0381116102b5576102ef9201611932565b6116296102d9946119ba6060949897956119aa608086019a5f8701906001600160a01b03169052565b6001600160a01b03166020850152565b6040830152565b92919060076119d26102ef82610339565b8311611b46576119e460028201610390565b80611b26575b611b1457611a356112c16102ef6001611a2e87611a29611a248c610a9c611a1c611a16620151806107b4565b42611885565b91600d610a53565b610339565b611894565b9401610339565b11611b0357611a476116506006611440565b611a566116646104d55f611457565b14611af257905f91611a6b6116506006611440565b90611a7530610a4a565b95611a9c611a8260405190565b97889586948594633041e90760e11b865260048601611981565b03915afa90811561176d575f925f92611acb575b50611abb6001610741565b611ac484610741565b1415929190565b909250611aea91503d805f833e611ae28183610ee3565b81019061194c565b90915f611ab0565b505090506001905f906102ef6118e9565b505090505f906001906102ef6118d8565b50505090505f906001906102ef611869565b50611b41611b3d611b3884600c610a53565b61034e565b1590565b6119ea565b50505090505f906001906102ef61183b565b906102d991611b69610f71826117bc565b90611b7391612621565b50565b906102d991611b58565b6102ef6006611460565b6102ef611b80565b90611b9c336104d5565b6001600160a01b03821603611bb457611b7391612695565b63334bd91960e11b5f908152600490fd5b611bd0610f71610b87565b6102d96102d9612747565b6102d9611bc5565b6102d99190611c117f9f2df0fed2c77648de5860a4cc508cd0818c85b8b8a1ab4ceeef8d981c8956a6612511565b906102d991611c1e61274f565b611c5d565b6102ef9060a81c610348565b6102ef9054611c23565b6001600160a01b039182168152911660208201526060810192916102d99160400152565b90611c675f611457565b6001600160a01b0381166001600160a01b03841614611d8857611c8a6006611c2f565b80611d61575b611c9f575b506102d99161276e565b611cac6116506006611440565b803b156102b557825f9185611cde94611cc460405190565b95869485938493630795958360e51b855260048501611c39565b03915afa9081611d44575b50611d3c5760405163327d269360e01b815280611d38600482016020808252818101527f436f6d706c69616e636520636865636b206661696c656420666f72206d696e74604082015260600190565b0390fd5b6102d9611c95565b611d5b905f611d538183610ee3565b810190610328565b5f611ce9565b50611d6f6116506006611440565b611d816001600160a01b038316611664565b1415611c90565b63e6c4247b60e01b5f908152600490fd5b906102d991611be3565b6102ef600661034e565b611a246102ef91611dbb5f90565b505f610a53565b611dcd610f71610b87565b6102d96102d96127fc565b6102d9611dc2565b906102ef94939291611df061274f565b611e1e565b634e487b7160e01b5f52603260045260245ffd5b9190811015611e19576020020190565b611df5565b5093929190808395868303611f3557611e365f6107b4565b83148015611f22575b611f11575f95611e4e5f6107b4565b965b885b881015611e8657611e7e611e77611e5292611e716113548c8c8c611e09565b90611894565b9860010190565b979050611e50565b9193965091939650611e9d6112c161189b33611dad565b10611f0057611eab5f6107b4565b855b811015611ef457611eed81611ee789611ee0611354848b611eda611ed5611ead9a8e8e611e09565b611139565b94611e09565b9033612835565b60010190565b9050611eab565b50945050505050600190565b631e9acf1760e31b5f908152600490fd5b63251f56a160e21b5f908152600490fd5b50611f2e6102ef610cb6565b8311611e3f565b6001621398b960e31b03195f908152600490fd5b6102ef939291905f611de0565b6102d990611f705f805160206131e1833981519152612511565b611f9b565b9060ff60a81b9060a81b610f8a565b90611f946102ef610fab92151590565b8254611f75565b611fcb7f86dbbd7363d461824ae381ba7a2b6467bec699ca8b2089833e2fb7341ead10ba91610311816006611f84565b0390a1565b6102d990611f56565b6102ef915f611fec611b38936117cc5f90565b01610a53565b6102ef6004610f2a565b6102d99291906120185f805160206131e1833981519152612511565b92919080926120265f6107b4565b841480156120ea575b611f115761203c5f6107b4565b845b8110156120e257612053611ed5828589611e09565b6120626116646104d55f611457565b14611d88576120db816120918661208c8a612086611ed561203e988b600c94611e09565b90610a53565b610fc2565b6120a2611650611ed583888c611e09565b7f2df1cad2a2659e001c3804c872f69655356013e35c18c2e77a5d568078ab788f6120cc60405190565b8815158152602090a260010190565b905061203c565b509350505050565b506120f66102ef6107c1565b841161202f565b906102d99291611ffc565b6102d991906121367f3c11d16cbaffd01df69ce1c404f6340ee057498f5f00246190ea54220576a848612511565b906102d99161214361274f565b61217e565b3d15612161576121573d6117f6565b903d5f602084013e565b606090565b9081526040602082018190526102ef92910190610465565b6121875f611457565b6001600160a01b0381166001600160a01b03831614611d8857336001600160a01b0383160361230e575b6121bb6006611c2f565b806122e7575b6121d1575b50906102d991612bd6565b91926121e06116506006611440565b803b156102b5575f6121f160405190565b918290630795958360e51b8252818061220f8a8a8a60048501611c39565b03915afa90816122d2575b506122c757507f1cd777a4ec443eb956395f9e9826b4af21e70dd5040dcaa08ac23efd0d479d0c9061226461225e612258612253612148565b612b13565b92610a4a565b93610a4a565b9361227a61227160405190565b92839283612166565b0390a360405163327d269360e01b815280611d38600482016020808252818101527f436f6d706c69616e636520636865636b206661696c656420666f72206275726e604082015260600190565b9291506102d96121c6565b6122e1905f611d538183610ee3565b5f61221a565b506122f56116506006611440565b6123076001600160a01b038316611664565b14156121c1565b61231833836123ff565b831161232e57612329833384612543565b6121b1565b6313be252b60e01b5f908152600490fd5b906102d991612108565b6102d991906123645f805160206131e1833981519152612511565b6123706104d55f611457565b6001600160a01b03821614611d88576123c06123b6826116508561208c7f2df1cad2a2659e001c3804c872f69655356013e35c18c2e77a5d568078ab788f96600c610a53565b9261031560405190565b0390a2565b906102d991612349565b610f4891903361259b565b906102d9916123eb610f71826117bc565b90611b7391612695565b906102d9916123da565b6102ef91612419611a24926124115f90565b506001610a53565b610a53565b6102d9906124385f805160206131e1833981519152612511565b612467565b90610100600160a81b039060081b610f8a565b906124606102ef610fab92610a4a565b825461243d565b6124736104d55f611457565b6001600160a01b03821614611d8857803b6124906112c15f6107b4565b14611d8857806116506124a56124ac93610a4a565b6006612450565b7ffb6fb1ffa5ce9f6148489aa41ebd619a443018a4b6305499e686c0c503d9f4536124d660405190565b80806123c0565b6102d99061241e565b6125006301ffc9a760e01b5b916001600160e01b03191690565b1490565b916001916102d993612c24565b6102d9903390612d1b565b6001600160a01b0390911681526060810193926102d992909160409161069a906020830152565b9161254e82846123ff565b5f19811061255d575b50505050565b818110612582579161257361257994925f940390565b91612c24565b5f808080612557565b637dc7a0d960e11b5f90815293506113d592600461251c565b9291906125a75f611457565b936001600160a01b0385166001600160a01b03821614612603576001600160a01b0385166001600160a01b038316146125e5576102d9939450612835565b63ec442f0560e01b5f9081526001600160a01b038616600452602490fd5b634b637e8f60e11b5f9081526001600160a01b038616600452602490fd5b61262e611b3d8383611fd9565b1561268f57612648600161208c845f611fec8660056117b6565b61265c61265661225e339390565b91610a4a565b917f2f8788117e7eff1d82e926ec794901d17c78024a50270940304540a733656f0d61268760405190565b5f90a4600190565b50505f90565b61269f8282611fd9565b1561268f576126b85f61208c8482611fec8660056117b6565b6126c661265661225e339390565b917ff6391f5c32d9c69d2a47ea670b442974b53935d1edc7fd64eb21e047a839171b61268760405190565b6126f9612d49565b6102d96127075f6006610fc2565b7f5db9ee0a495bf2e6ff9c91a7834c1ba4fdd244a5e8aa4e537bd38aeae4b073aa611fcb335b604051918291826001600160a01b03909116815260200190565b6102d96126f1565b612757611da3565b61275d57565b63d93c066560e01b5f908152600490fd5b91906127795f611457565b926001600160a01b0384166001600160a01b0382161461279d576102d99293612835565b63ec442f0560e01b5f9081526001600160a01b038516600452602490fd5b6127c361274f565b6102d96127d260016006610fc2565b7f62e78cea01bee320cd4e420270b5ea74000d11b0c9f74754ebdbfc544b05a258611fcb3361272d565b6102d96127bb565b61282d6102d9946119ba6060949897956119aa608086019a5f8701906001600160a01b03169052565b019015159052565b61283e5f611457565b6001600160a01b0381166001600160a01b0383161415908180612a27575b80612a17575b612a07575b612872858585612f68565b81806129eb575b806129db575b6129a3575b81612985575b81612973575b81612949575b506128a057505050565b6128ad6116506006611440565b803b156102b5575f6128be60405190565b91829063656998e760e01b82528183816128df60018b8b8b60048601612804565b03925af19081612934575b5061292f577f1cd777a4ec443eb956395f9e9826b4af21e70dd5040dcaa08ac23efd0d479d0c9061292261225e612258612253612148565b936113bf61227160405190565b505050565b612943905f611d538183610ee3565b5f6128ea565b905061296b61166461295e6116506006611440565b926001600160a01b031690565b14155f612896565b905061297f6006611c2f565b90612890565b90506001600160a01b0381166001600160a01b03841614159061288a565b6129d66129c36129b8611a16620151806107b4565b610a9c86600d610a53565b6129d087611a2983610339565b90610f94565b612884565b506129e66006611c2f565b61287f565b506001600160a01b0381166001600160a01b0385161415612879565b612a12858585612d6b565b612867565b50612a226006611c2f565b612862565b506001600160a01b0381166001600160a01b038516141561285c565b612a4d601d6117f6565b7f5472616e73616374696f6e2072657665727465642073696c656e746c79000000602082015290565b6102ef612a43565b612a91612a8b6102ef9290565b60e01b90565b6001600160e01b03191690565b612aa860056117f6565b6450616e696360d81b602082015290565b6102ef612a9e565b612acb60086117f6565b6714995d995c9d195960c21b602082015290565b6102ef612ac1565b612af1600e6117f6565b6d155b9adb9bdddb881c995d995c9d60921b602082015290565b6102ef612ae7565b8051612b216112c15f6107b4565b14612bcd578051612b356112c160046107b4565b1015612b60575b51612b4a6112c160206107b4565b1015612b58576102ef612b0b565b6102ef612adf565b6020810151612b75612a916308c379a0612a7e565b6001600160e01b031982161480612bb6575b612bac57612b9e6124f2612a91634e487b71612a7e565b03612b3c57506102ef612ab9565b506102ef90613119565b508151612bc66112c160446107b4565b1015612b87565b506102ef612a76565b9190612be15f611457565b926001600160a01b0384166001600160a01b03821614612c0657926102d99293612835565b634b637e8f60e11b5f9081526001600160a01b038516600452602490fd5b909192612c305f611457565b6001600160a01b0381166001600160a01b03841614612cde576001600160a01b0381166001600160a01b03851614612cbe5750612c7b84612c7685612419866001610a53565b610f94565b612c8457505050565b6113bf612cb461225e7f8c5be1e5ebec7d5bd14f71427d1e84f3dd0314c0f7b2291e5b200ac8c7c3b92593610a4a565b9361056e60405190565b634a1406b160e11b5f9081526001600160a01b039091166004526024035ffd5b63e602df0560e01b5f9081526001600160a01b039091166004526024035ffd5b6001600160a01b0390911681526040810192916102d99160200152565b90612d29611b3d8284611fd9565b612d31575050565b63e2517d3f60e01b5f908152916113d5916004612cfe565b612d54611b3d611da3565b612d5a57565b638dfc202b60e01b5f908152600490fd5b909192612d7b6116506006611440565b612d8a6116646104d55f611457565b14612ea4576007612d9d6102ef82610339565b8511612f2257612dc785611a29611a24612dbc611a16620151806107b4565b610a9c88600d610a53565b612dd96112c16102ef60018501610339565b11612ee6576002612dea9101610390565b612ebf575b612dfc6116506006611440565b803b156102b5575f612e0d60405190565b918290630795958360e51b82528180612e2b8a8a8a60048501611c39565b03915afa9081612eaa575b50612ea457611d3861225e85857f1cd777a4ec443eb956395f9e9826b4af21e70dd5040dcaa08ac23efd0d479d0c86612e7b612e73612253612148565b958692610a4a565b93612e8861227160405190565b0390a360405163327d269360e01b81529182916004830161049d565b92505050565b612eb9905f611d538183610ee3565b5f612e36565b612ed0611b3d611b3885600c610a53565b15612def57639d90af4760e01b5f908152600490fd5b60405163327d269360e01b8152602060048201526013602482015272115e18d959591cc819185a5b1e481b1a5b5a5d606a1b6044820152606490fd5b60405163327d269360e01b815260206004820152601e60248201527f45786365656473206d6178207472616e73616374696f6e20616d6f756e7400006044820152606490fd5b612f715f611457565b6001600160a01b0381166001600160a01b0383160361300f57612cb461225e7fddf252ad1be2c89b69c2b068fc378daa952ba7f163c4a11628f55a4df523b3ef93612fd16113bf946104d5612fca8a611a296002610339565b6002610f94565b6001600160a01b03871603612ff557611650612fca88612ff16002610339565b0390565b611650613002875f610a53565b6129d08961049983610339565b61301c611a24835f610a53565b8481106130685761225e7fddf252ad1be2c89b69c2b068fc378daa952ba7f163c4a11628f55a4df523b3ef93612fd16113bf946104d561305e8a612cb4970390565b612c76855f610a53565b63391434e360e21b5f908152906113d590869085600461251c565b61308d60076117f6565b662ab735b737bbb760c91b602082015290565b6102ef613083565b919082039182116118aa57565b369037565b906102d96130d06130ca846117f6565b936117da565b601f1901602084016130b5565b906130e6825190565b811015611e19570160200190565b906020828203126102b55781516001600160401b0381116102b5576102ef9201611932565b90815160049061312c6112c160046107b4565b106131d55761315461314f61313f855190565b61314960046107b4565b906130a8565b6130ba565b9061315e5f6107b4565b6131696102ef845190565b8110156131b8576131b3906131a061319261318c613186866107b4565b84611894565b886130dd565b516001600160f81b03191690565b5f1a6131ac82866130dd565b5360010190565b61315e565b50506102ef91925060206131ca825190565b8183010191016130f4565b5090506102ef6130a056fe6390f5a69ff59edce8e461308dbd399b74f0414e629057022cbc92159a014c76a164736f6c634300081a000a",
  "linkReferences": {},
  "deployedLinkReferences": {}
}