{
  "_format": "hh-sol-artifact-1",
  "contractName": "ComplianceEngine",
  "sourceName": "contracts/ComplianceEngine.sol",
  "abi": [
    {
      "inputs": [
        {
          "internalType": "address",
          "name": "_riskRegistry",
          "type": "address"
        },
        {
          "internalType": "address",
          "name": "_policyEngine",
          "type": "address"
        }
      ],
      "stateMutability": "nonpayable",
      "type": "constructor"
    },
    {
      "inputs": [],
      "name": "AccessControlBadConfirmation",
      "type": "error"
    },
    {
      "inputs": [
        {
          "internalType": "address",
          "name": "account",
          "type": "address"
        },
        {
          "internalType": "bytes32",
          "name": "neededRole",
          "type": "bytes32"
        }
      ],
      "name": "AccessControlUnauthorizedAccount",
      "type": "error"
    },
    {
      "inputs": [],
      "name": "AlreadyReleased",
      "type": "error"
    },
    {
      "inputs": [],
      "name": "ContractPaused",
      "type": "error"
    },
    {
      "inputs": [],
      "name": "EmergencyModeActive",
      "type": "error"
    },
    {
      "inputs": [],
      "name": "EnforcedPause",
      "type": "error"
    },
    {
      "inputs": [],
      "name": "ExpectedPause",
      "type": "error"
    },
    {
      "inputs": [],
      "name": "InvalidAddress",
      "type": "error"
    },
    {
      "inputs": [],
      "name": "InvalidHold",
      "type": "error"
    },
    {
      "inputs": [
        {
          "internalType": "string",
          "name": "reason",
          "type": "string"
        }
      ],
      "name": "NotCompliant",
      "type": "error"
    },
    {
      "inputs": [],
      "name": "ReentrancyGuardReentrantCall",
      "type": "error"
    },
    {
      "anonymous": false,
      "inputs": [
        {
          "indexed": true,
          "internalType": "address",
          "name": "operator",
          "type": "address"
        },
        {
          "indexed": true,
          "internalType": "address",
          "name": "from",
          "type": "address"
        },
        {
          "indexed": true,
          "internalType": "address",
          "name": "to",
          "type": "address"
        },
        {
          "indexed": false,
          "internalType": "uint256",
          "name": "amount",
          "type": "uint256"
        },
        {
          "indexed": false,
          "internalType": "enum IAssetCompliance.Decision",
          "name": "decision",
          "type": "uint8"
        },
        {
          "indexed": false,
          "internalType": "string",
          "name": "reason",
          "type": "string"
        }
      ],
      "name": "ComplianceCheck",
      "type": "event"
    },
    {
      "anonymous": false,
      "inputs": [
        {
          "indexed": true,
          "internalType": "address",
          "name": "triggeredBy",
          "type": "address"
        }
      ],
      "name": "EmergencyModeActivated",
      "type": "event"
    },
    {
      "anonymous": false,
      "inputs": [
        {
          "indexed": true,
          "internalType": "address",
          "name": "triggeredBy",
          "type": "address"
        }
      ],
      "name": "EmergencyModeDeactivated",
      "type": "event"
    },
    {
      "anonymous": false,
      "inputs": [
        {
          "indexed": true,
          "internalType": "bytes32",
          "name": "holdId",
          "type": "bytes32"
        },
        {
          "indexed": true,
          "internalType": "address",
          "name": "owner",
          "type": "address"
        },
        {
          "indexed": false,
          "internalType": "address",
          "name": "asset",
          "type": "address"
        },
        {
          "indexed": false,
          "internalType": "uint256",
          "name": "amount",
          "type": "uint256"
        }
      ],
      "name": "FundsHeld",
      "type": "event"
    },
    {
      "anonymous": false,
      "inputs": [
        {
          "indexed": true,
          "internalType": "bytes32",
          "name": "holdId",
          "type": "bytes32"
        },
        {
          "indexed": true,
          "internalType": "address",
          "name": "owner",
          "type": "address"
        },
        {
          "indexed": false,
          "internalType": "uint256",
          "name": "amount",
          "type": "uint256"
        }
      ],
      "name": "FundsReleased",
      "type": "event"
    },
    {
      "anonymous": false,
      "inputs": [
        {
          "indexed": true,
          "internalType": "address",
          "name": "wallet",
          "type": "address"
        },
        {
          "indexed": true,
          "internalType": "address",
          "name": "owner",
          "type": "address"
        },
        {
          "indexed": false,
          "internalType": "enum IWalletCompliance.OperationType",
          "name": "opType",
          "type": "uint8"
        },
        {
          "indexed": false,
          "internalType": "bool",
          "name": "success",
          "type": "bool"
        }
      ],
      "name": "OperationExecuted",
      "type": "event"
    },
    {
      "anonymous": false,
      "inputs": [
        {
          "indexed": true,
          "internalType": "address",
          "name": "wallet",
          "type": "address"
        },
        {
          "indexed": true,
          "internalType": "address",
          "name": "owner",
          "type": "address"
        },
        {
          "indexed": false,
          "internalType": "enum IWalletCompliance.OperationType",
          "name": "opType",
          "type": "uint8"
        },
        {
          "indexed": false,
          "internalType": "address",
          "name": "target",
          "type": "address"
        },
        {
          "indexed": false,
          "internalType": "uint256",
          "name": "value",
          "type": "uint256"
        },
        {
          "indexed": false,
          "internalType": "enum IAssetCompliance.Decision",
          "name": "decision",
          "type": "uint8"
        }
      ],
      "name": "OperationValidated",
      "type": "event"
    },
    {
      "anonymous": false,
      "inputs": [
        {
          "indexed": false,
          "internalType": "address",
          "name": "account",
          "type": "address"
        }
      ],
      "name": "Paused",
      "type": "event"
    },
    {
      "anonymous": false,
      "inputs": [
        {
          "indexed": true,
          "internalType": "address",
          "name": "account",
          "type": "address"
        },
        {
          "indexed": false,
          "internalType": "uint8",
          "name": "riskScore",
          "type": "uint8"
        },
        {
          "indexed": false,
          "internalType": "enum IAssetCompliance.RiskTier",
          "name": "tier",
          "type": "uint8"
        },
        {
          "indexed": false,
          "internalType": "bool",
          "name": "isSanctioned",
          "type": "bool"
        }
      ],
      "name": "RiskProfileUpdated",
      "type": "event"
    },
    {
      "anonymous": false,
      "inputs": [
        {
          "indexed": true,
          "internalType": "bytes32",
          "name": "role",
          "type": "bytes32"
        },
        {
          "indexed": true,
          "internalType": "bytes32",
          "name": "previousAdminRole",
          "type": "bytes32"
        },
        {
          "indexed": true,
          "internalType": "bytes32",
          "name": "newAdminRole",
          "type": "bytes32"
        }
      ],
      "name": "RoleAdminChanged",
      "type": "event"
    },
    {
      "anonymous": false,
      "inputs": [
        {
          "indexed": true,
          "internalType": "bytes32",
          "name": "role",
          "type": "bytes32"
        },
        {
          "indexed": true,
          "internalType": "address",
          "name": "account",
          "type": "address"
        },
        {
          "indexed": true,
          "internalType": "address",
          "name": "sender",
          "type": "address"
        }
      ],
      "name": "RoleGranted",
      "type": "event"
    },
    {
      "anonymous": false,
      "inputs": [
        {
          "indexed": true,
          "internalType": "bytes32",
          "name": "role",
          "type": "bytes32"
        },
        {
          "indexed": true,
          "internalType": "address",
          "name": "account",
          "type": "address"
        },
        {
          "indexed": true,
          "internalType": "address",
          "name": "sender",
          "type": "address"
        }
      ],
      "name": "RoleRevoked",
      "type": "event"
    },
    {
      "anonymous": false,
      "inputs": [
        {
          "indexed": true,
          "internalType": "address",
          "name": "asset",
          "type": "address"
        },
        {
          "indexed": true,
          "internalType": "address",
          "name": "from",
          "type": "address"
        },
        {
          "indexed": true,
          "internalType": "address",
          "name": "to",
          "type": "address"
        },
        {
          "indexed": false,
          "internalType": "uint256",
          "name": "amount",
          "type": "uint256"
        },
        {
          "indexed": false,
          "internalType": "bool",
          "name": "success",
          "type": "bool"
        }
      ],
      "name": "TransferRecorded",
      "type": "event"
    },
    {
      "anonymous": false,
      "inputs": [
        {
          "indexed": true,
          "internalType": "address",
          "name": "asset",
          "type": "address"
        },
        {
          "indexed": true,
          "internalType": "address",
          "name": "from",
          "type": "address"
        },
        {
          "indexed": true,
          "internalType": "address",
          "name": "to",
          "type": "address"
        },
        {
          "indexed": false,
          "internalType": "uint256",
          "name": "amount",
          "type": "uint256"
        },
        {
          "indexed": false,
          "internalType": "enum IAssetCompliance.Decision",
          "name": "decision",
          "type": "uint8"
        },
        {
          "indexed": false,
          "internalType": "string",
          "name": "reason",
          "type": "string"
        }
      ],
      "name": "TransferValidated",
      "type": "event"
    },
    {
      "anonymous": false,
      "inputs": [
        {
          "indexed": false,
          "internalType": "address",
          "name": "account",
          "type": "address"
        }
      ],
      "name": "Unpaused",
      "type": "event"
    },
    {
      "anonymous": false,
      "inputs": [
        {
          "indexed": true,
          "internalType": "address",
          "name": "wallet",
          "type": "address"
        },
        {
          "indexed": true,
          "internalType": "address",
          "name": "owner",
          "type": "address"
        },
        {
          "components": [
            {
              "internalType": "uint256",
              "name": "maxTxValue",
              "type": "uint256"
            },
            {
              "internalType": "uint256",
              "name": "maxTokenTxAmount",
              "type": "uint256"
            },
            {
              "internalType": "uint256",
              "name": "dailyEthLimit",
              "type": "uint256"
            },
            {
              "internalType": "uint256",
              "name": "dailyTokenLimit",
              "type": "uint256"
            },
            {
              "internalType": "bool",
              "name": "blockContractCalls",
              "type": "bool"
            },
            {
              "internalType": "bool",
              "name": "blockUnknownTokens",
              "type": "bool"
            },
            {
              "internalType": "bool",
              "name": "requireWhitelist",
              "type": "bool"
            },
            {
              "internalType": "address[]",
              "name": "allowedDex",
              "type": "address[]"
            },
            {
              "internalType": "address[]",
              "name": "blockedContracts",
              "type": "address[]"
            }
          ],
          "indexed": false,
          "internalType": "struct IWalletCompliance.WalletPolicy",
          "name": "policy",
          "type": "tuple"
        }
      ],
      "name": "WalletPolicyUpdated",
      "type": "event"
    },
    {
      "inputs": [],
      "name": "ADMIN_ROLE",
      "outputs": [
        {
          "internalType": "bytes32",
          "name": "",
          "type": "bytes32"
        }
      ],
      "stateMutability": "view",
      "type": "function"
    },
    {
      "inputs": [],
      "name": "DEFAULT_ADMIN_ROLE",
      "outputs": [
        {
          "internalType": "bytes32",
          "name": "",
          "type": "bytes32"
        }
      ],
      "stateMutability": "view",
      "type": "function"
    },
    {
      "inputs": [],
      "name": "EMERGENCY_ROLE",
      "outputs": [
        {
          "internalType": "bytes32",
          "name": "",
          "type": "bytes32"
        }
      ],
      "stateMutability": "view",
      "type": "function"
    },
    {
      "inputs": [],
      "name": "OPERATOR_ROLE",
      "outputs": [
        {
          "internalType": "bytes32",
          "name": "",
          "type": "bytes32"
        }
      ],
      "stateMutability": "view",
      "type": "function"
    },
    {
      "inputs": [],
      "name": "activateEmergencyMode",
      "outputs": [],
      "stateMutability": "nonpayable",
      "type": "function"
    },
    {
      "inputs": [
        {
          "components": [
            {
              "internalType": "enum IWalletCompliance.OperationType",
              "name": "opType",
              "type": "uint8"
            },
            {
              "internalType": "address",
              "name": "target",
              "type": "address"
            },
            {
              "internalType": "uint256",
              "name": "value",
              "type": "uint256"
            },
            {
              "internalType": "bytes",
              "name": "data",
              "type": "bytes"
            },
            {
              "internalType": "address",
              "name": "token",
              "type": "address"
            },
            {
              "internalType": "uint256",
              "name": "tokenAmount",
              "type": "uint256"
            },
            {
              "internalType": "uint256",
              "name": "chainId",
              "type": "uint256"
            }
          ],
          "internalType": "struct IWalletCompliance.Operation",
          "name": "op",
          "type": "tuple"
        }
      ],
      "name": "analyzeOperationRisk",
      "outputs": [
        {
          "internalType": "uint8",
          "name": "riskScore",
          "type": "uint8"
        },
        {
          "internalType": "enum IAssetCompliance.RiskTier",
          "name": "tier",
          "type": "uint8"
        },
        {
          "internalType": "string",
          "name": "riskFactors",
          "type": "string"
        }
      ],
      "stateMutability": "view",
      "type": "function"
    },
    {
      "inputs": [],
      "name": "deactivateEmergencyMode",
      "outputs": [],
      "stateMutability": "nonpayable",
      "type": "function"
    },
    {
      "inputs": [],
      "name": "emergencyMode",
      "outputs": [
        {
          "internalType": "bool",
          "name": "",
          "type": "bool"
        }
      ],
      "stateMutability": "view",
      "type": "function"
    },
    {
      "inputs": [],
      "name": "emergencyPause",
      "outputs": [],
      "stateMutability": "nonpayable",
      "type": "function"
    },
    {
      "inputs": [],
      "name": "emergencyUnpause",
      "outputs": [],
      "stateMutability": "nonpayable",
      "type": "function"
    },
    {
      "inputs": [
        {
          "internalType": "address",
          "name": "account",
          "type": "address"
        }
      ],
      "name": "getAddressRisk",
      "outputs": [
        {
          "components": [
            {
              "internalType": "uint8",
              "name": "riskScore",
              "type": "uint8"
            },
            {
              "internalType": "enum IAssetCompliance.RiskTier",
              "name": "tier",
              "type": "uint8"
            },
            {
              "internalType": "bytes32[]",
              "name": "tags",
              "type": "bytes32[]"
            },
            {
              "internalType": "uint256",
              "name": "lastUpdated",
              "type": "uint256"
            },
            {
              "internalType": "bool",
              "name": "isSanctioned",
              "type": "bool"
            }
          ],
          "internalType": "struct IAssetCompliance.RiskProfile",
          "name": "",
          "type": "tuple"
        }
      ],
      "stateMutability": "view",
      "type": "function"
    },
    {
      "inputs": [],
      "name": "getAllHoldRecords",
      "outputs": [
        {
          "internalType": "bytes32[]",
          "name": "",
          "type": "bytes32[]"
        }
      ],
      "stateMutability": "view",
      "type": "function"
    },
    {
      "inputs": [
        {
          "internalType": "address",
          "name": "target",
          "type": "address"
        }
      ],
      "name": "getContractRisk",
      "outputs": [
        {
          "internalType": "bool",
          "name": "isVerified",
          "type": "bool"
        },
        {
          "internalType": "uint8",
          "name": "riskScore",
          "type": "uint8"
        },
        {
          "internalType": "string",
          "name": "contractType",
          "type": "string"
        }
      ],
      "stateMutability": "view",
      "type": "function"
    },
    {
      "inputs": [
        {
          "internalType": "address",
          "name": "account",
          "type": "address"
        },
        {
          "internalType": "address",
          "name": "asset",
          "type": "address"
        }
      ],
      "name": "getDailySpent",
      "outputs": [
        {
          "internalType": "uint256",
          "name": "",
          "type": "uint256"
        }
      ],
      "stateMutability": "view",
      "type": "function"
    },
    {
      "inputs": [
        {
          "internalType": "address",
          "name": "owner",
          "type": "address"
        },
        {
          "internalType": "address",
          "name": "asset",
          "type": "address"
        }
      ],
      "name": "getHeldFunds",
      "outputs": [
        {
          "internalType": "uint256",
          "name": "",
          "type": "uint256"
        }
      ],
      "stateMutability": "view",
      "type": "function"
    },
    {
      "inputs": [
        {
          "internalType": "bytes32",
          "name": "holdId",
          "type": "bytes32"
        }
      ],
      "name": "getHoldRecord",
      "outputs": [
        {
          "components": [
            {
              "internalType": "address",
              "name": "owner",
              "type": "address"
            },
            {
              "internalType": "address",
              "name": "asset",
              "type": "address"
            },
            {
              "internalType": "uint256",
              "name": "amount",
              "type": "uint256"
            },
            {
              "internalType": "uint256",
              "name": "timestamp",
              "type": "uint256"
            },
            {
              "internalType": "string",
              "name": "reason",
              "type": "string"
            },
            {
              "internalType": "bool",
              "name": "released",
              "type": "bool"
            }
          ],
          "internalType": "struct ComplianceEngine.HoldRecord",
          "name": "",
          "type": "tuple"
        }
      ],
      "stateMutability": "view",
      "type": "function"
    },
    {
      "inputs": [
        {
          "internalType": "address",
          "name": "issuer",
          "type": "address"
        }
      ],
      "name": "getIssuerPolicy",
      "outputs": [
        {
          "components": [
            {
              "internalType": "uint256",
              "name": "maxTxAmount",
              "type": "uint256"
            },
            {
              "internalType": "uint256",
              "name": "dailyLimit",
              "type": "uint256"
            },
            {
              "internalType": "bool",
              "name": "allowMediumRisk",
              "type": "bool"
            },
            {
              "internalType": "bool",
              "name": "allowHighRisk",
              "type": "bool"
            },
            {
              "internalType": "bool",
              "name": "blockMixer",
              "type": "bool"
            },
            {
              "internalType": "bool",
              "name": "requireDestinationKYC",
              "type": "bool"
            },
            {
              "internalType": "uint256",
              "name": "cooldownPeriod",
              "type": "uint256"
            }
          ],
          "internalType": "struct IAssetCompliance.IssuerPolicy",
          "name": "policy",
          "type": "tuple"
        }
      ],
      "stateMutability": "view",
      "type": "function"
    },
    {
      "inputs": [],
      "name": "getLogCount",
      "outputs": [
        {
          "internalType": "uint256",
          "name": "",
          "type": "uint256"
        }
      ],
      "stateMutability": "view",
      "type": "function"
    },
    {
      "inputs": [
        {
          "internalType": "uint256",
          "name": "start",
          "type": "uint256"
        },
        {
          "internalType": "uint256",
          "name": "limit",
          "type": "uint256"
        }
      ],
      "name": "getOperationLogs",
      "outputs": [
        {
          "components": [
            {
              "internalType": "uint256",
              "name": "timestamp",
              "type": "uint256"
            },
            {
              "internalType": "address",
              "name": "operator",
              "type": "address"
            },
            {
              "internalType": "bytes32",
              "name": "operationType",
              "type": "bytes32"
            },
            {
              "internalType": "bytes32",
              "name": "result",
              "type": "bytes32"
            },
            {
              "internalType": "string",
              "name": "details",
              "type": "string"
            }
          ],
          "internalType": "struct ComplianceEngine.OperationLog[]",
          "name": "",
          "type": "tuple[]"
        }
      ],
      "stateMutability": "view",
      "type": "function"
    },
    {
      "inputs": [
        {
          "internalType": "address",
          "name": "account",
          "type": "address"
        }
      ],
      "name": "getRiskTier",
      "outputs": [
        {
          "internalType": "enum IAssetCompliance.RiskTier",
          "name": "",
          "type": "uint8"
        }
      ],
      "stateMutability": "view",
      "type": "function"
    },
    {
      "inputs": [
        {
          "internalType": "bytes32",
          "name": "role",
          "type": "bytes32"
        }
      ],
      "name": "getRoleAdmin",
      "outputs": [
        {
          "internalType": "bytes32",
          "name": "",
          "type": "bytes32"
        }
      ],
      "stateMutability": "view",
      "type": "function"
    },
    {
      "inputs": [
        {
          "internalType": "address",
          "name": "wallet",
          "type": "address"
        }
      ],
      "name": "getWalletPolicy",
      "outputs": [
        {
          "components": [
            {
              "internalType": "uint256",
              "name": "maxTxValue",
              "type": "uint256"
            },
            {
              "internalType": "uint256",
              "name": "maxTokenTxAmount",
              "type": "uint256"
            },
            {
              "internalType": "uint256",
              "name": "dailyEthLimit",
              "type": "uint256"
            },
            {
              "internalType": "uint256",
              "name": "dailyTokenLimit",
              "type": "uint256"
            },
            {
              "internalType": "bool",
              "name": "blockContractCalls",
              "type": "bool"
            },
            {
              "internalType": "bool",
              "name": "blockUnknownTokens",
              "type": "bool"
            },
            {
              "internalType": "bool",
              "name": "requireWhitelist",
              "type": "bool"
            },
            {
              "internalType": "address[]",
              "name": "allowedDex",
              "type": "address[]"
            },
            {
              "internalType": "address[]",
              "name": "blockedContracts",
              "type": "address[]"
            }
          ],
          "internalType": "struct IWalletCompliance.WalletPolicy",
          "name": "policy",
          "type": "tuple"
        }
      ],
      "stateMutability": "view",
      "type": "function"
    },
    {
      "inputs": [
        {
          "internalType": "bytes32",
          "name": "role",
          "type": "bytes32"
        },
        {
          "internalType": "address",
          "name": "account",
          "type": "address"
        }
      ],
      "name": "grantRole",
      "outputs": [],
      "stateMutability": "nonpayable",
      "type": "function"
    },
    {
      "inputs": [
        {
          "internalType": "bytes32",
          "name": "role",
          "type": "bytes32"
        },
        {
          "internalType": "address",
          "name": "account",
          "type": "address"
        }
      ],
      "name": "hasRole",
      "outputs": [
        {
          "internalType": "bool",
          "name": "",
          "type": "bool"
        }
      ],
      "stateMutability": "view",
      "type": "function"
    },
    {
      "inputs": [
        {
          "internalType": "address",
          "name": "",
          "type": "address"
        },
        {
          "internalType": "address",
          "name": "",
          "type": "address"
        }
      ],
      "name": "heldFunds",
      "outputs": [
        {
          "internalType": "uint256",
          "name": "",
          "type": "uint256"
        }
      ],
      "stateMutability": "view",
      "type": "function"
    },
    {
      "inputs": [
        {
          "internalType": "bytes32",
          "name": "",
          "type": "bytes32"
        }
      ],
      "name": "holdDetails",
      "outputs": [
        {
          "internalType": "address",
          "name": "owner",
          "type": "address"
        },
        {
          "internalType": "address",
          "name": "asset",
          "type": "address"
        },
        {
          "internalType": "uint256",
          "name": "amount",
          "type": "uint256"
        },
        {
          "internalType": "uint256",
          "name": "timestamp",
          "type": "uint256"
        },
        {
          "internalType": "string",
          "name": "reason",
          "type": "string"
        },
        {
          "internalType": "bool",
          "name": "released",
          "type": "bool"
        }
      ],
      "stateMutability": "view",
      "type": "function"
    },
    {
      "inputs": [
        {
          "internalType": "uint256",
          "name": "",
          "type": "uint256"
        }
      ],
      "name": "holdRecords",
      "outputs": [
        {
          "internalType": "bytes32",
          "name": "",
          "type": "bytes32"
        }
      ],
      "stateMutability": "view",
      "type": "function"
    },
    {
      "inputs": [
        {
          "internalType": "address",
          "name": "account",
          "type": "address"
        }
      ],
      "name": "isSanctioned",
      "outputs": [
        {
          "internalType": "bool",
          "name": "",
          "type": "bool"
        }
      ],
      "stateMutability": "view",
      "type": "function"
    },
    {
      "inputs": [
        {
          "internalType": "uint256",
          "name": "",
          "type": "uint256"
        }
      ],
      "name": "logs",
      "outputs": [
        {
          "internalType": "uint256",
          "name": "timestamp",
          "type": "uint256"
        },
        {
          "internalType": "address",
          "name": "operator",
          "type": "address"
        },
        {
          "internalType": "bytes32",
          "name": "operationType",
          "type": "bytes32"
        },
        {
          "internalType": "bytes32",
          "name": "result",
          "type": "bytes32"
        },
        {
          "internalType": "string",
          "name": "details",
          "type": "string"
        }
      ],
      "stateMutability": "view",
      "type": "function"
    },
    {
      "inputs": [],
      "name": "paused",
      "outputs": [
        {
          "internalType": "bool",
          "name": "",
          "type": "bool"
        }
      ],
      "stateMutability": "view",
      "type": "function"
    },
    {
      "inputs": [],
      "name": "policyEngine",
      "outputs": [
        {
          "internalType": "contract PolicyEngine",
          "name": "",
          "type": "address"
        }
      ],
      "stateMutability": "view",
      "type": "function"
    },
    {
      "inputs": [
        {
          "internalType": "address",
          "name": "walletOwner",
          "type": "address"
        },
        {
          "components": [
            {
              "internalType": "enum IWalletCompliance.OperationType",
              "name": "opType",
              "type": "uint8"
            },
            {
              "internalType": "address",
              "name": "target",
              "type": "address"
            },
            {
              "internalType": "uint256",
              "name": "value",
              "type": "uint256"
            },
            {
              "internalType": "bytes",
              "name": "data",
              "type": "bytes"
            },
            {
              "internalType": "address",
              "name": "token",
              "type": "address"
            },
            {
              "internalType": "uint256",
              "name": "tokenAmount",
              "type": "uint256"
            },
            {
              "internalType": "uint256",
              "name": "chainId",
              "type": "uint256"
            }
          ],
          "internalType": "struct IWalletCompliance.Operation",
          "name": "op",
          "type": "tuple"
        },
        {
          "internalType": "bool",
          "name": "success",
          "type": "bool"
        }
      ],
      "name": "postExecutionHook",
      "outputs": [],
      "stateMutability": "nonpayable",
      "type": "function"
    },
    {
      "inputs": [
        {
          "internalType": "address",
          "name": "from",
          "type": "address"
        },
        {
          "internalType": "address",
          "name": "to",
          "type": "address"
        },
        {
          "internalType": "uint256",
          "name": "amount",
          "type": "uint256"
        },
        {
          "internalType": "bool",
          "name": "success",
          "type": "bool"
        }
      ],
      "name": "postTransferHook",
      "outputs": [],
      "stateMutability": "nonpayable",
      "type": "function"
    },
    {
      "inputs": [
        {
          "internalType": "address",
          "name": "walletOwner",
          "type": "address"
        },
        {
          "components": [
            {
              "internalType": "enum IWalletCompliance.OperationType",
              "name": "opType",
              "type": "uint8"
            },
            {
              "internalType": "address",
              "name": "target",
              "type": "address"
            },
            {
              "internalType": "uint256",
              "name": "value",
              "type": "uint256"
            },
            {
              "internalType": "bytes",
              "name": "data",
              "type": "bytes"
            },
            {
              "internalType": "address",
              "name": "token",
              "type": "address"
            },
            {
              "internalType": "uint256",
              "name": "tokenAmount",
              "type": "uint256"
            },
            {
              "internalType": "uint256",
              "name": "chainId",
              "type": "uint256"
            }
          ],
          "internalType": "struct IWalletCompliance.Operation[]",
          "name": "ops",
          "type": "tuple[]"
        }
      ],
      "name": "preBatchExecutionHook",
      "outputs": [],
      "stateMutability": "view",
      "type": "function"
    },
    {
      "inputs": [
        {
          "internalType": "address",
          "name": "walletOwner",
          "type": "address"
        },
        {
          "components": [
            {
              "internalType": "enum IWalletCompliance.OperationType",
              "name": "opType",
              "type": "uint8"
            },
            {
              "internalType": "address",
              "name": "target",
              "type": "address"
            },
            {
              "internalType": "uint256",
              "name": "value",
              "type": "uint256"
            },
            {
              "internalType": "bytes",
              "name": "data",
              "type": "bytes"
            },
            {
              "internalType": "address",
              "name": "token",
              "type": "address"
            },
            {
              "internalType": "uint256",
              "name": "tokenAmount",
              "type": "uint256"
            },
            {
              "internalType": "uint256",
              "name": "chainId",
              "type": "uint256"
            }
          ],
          "internalType": "struct IWalletCompliance.Operation",
          "name": "op",
          "type": "tuple"
        }
      ],
      "name": "preExecutionHook",
      "outputs": [],
      "stateMutability": "view",
      "type": "function"
    },
    {
      "inputs": [
        {
          "internalType": "address",
          "name": "from",
          "type": "address"
        },
        {
          "internalType": "address",
          "name": "to",
          "type": "address"
        },
        {
          "internalType": "uint256",
          "name": "amount",
          "type": "uint256"
        }
      ],
      "name": "preTransferHook",
      "outputs": [],
      "stateMutability": "view",
      "type": "function"
    },
    {
      "inputs": [
        {
          "internalType": "bytes32",
          "name": "holdId",
          "type": "bytes32"
        }
      ],
      "name": "releaseHold",
      "outputs": [],
      "stateMutability": "nonpayable",
      "type": "function"
    },
    {
      "inputs": [
        {
          "internalType": "bytes32",
          "name": "role",
          "type": "bytes32"
        },
        {
          "internalType": "address",
          "name": "callerConfirmation",
          "type": "address"
        }
      ],
      "name": "renounceRole",
      "outputs": [],
      "stateMutability": "nonpayable",
      "type": "function"
    },
    {
      "inputs": [
        {
          "internalType": "bytes32",
          "name": "role",
          "type": "bytes32"
        },
        {
          "internalType": "address",
          "name": "account",
          "type": "address"
        }
      ],
      "name": "revokeRole",
      "outputs": [],
      "stateMutability": "nonpayable",
      "type": "function"
    },
    {
      "inputs": [],
      "name": "riskRegistry",
      "outputs": [
        {
          "internalType": "contract RiskRegistry",
          "name": "",
          "type": "address"
        }
      ],
      "stateMutability": "view",
      "type": "function"
    },
    {
      "inputs": [
        {
          "internalType": "address",
          "name": "_policyEngine",
          "type": "address"
        }
      ],
      "name": "setPolicyEngine",
      "outputs": [],
      "stateMutability": "nonpayable",
      "type": "function"
    },
    {
      "inputs": [
        {
          "internalType": "address",
          "name": "_riskRegistry",
          "type": "address"
        }
      ],
      "name": "setRiskRegistry",
      "outputs": [],
      "stateMutability": "nonpayable",
      "type": "function"
    },
    {
      "inputs": [
        {
          "internalType": "bytes4",
          "name": "interfaceId",
          "type": "bytes4"
        }
      ],
      "name": "supportsInterface",
      "outputs": [
        {
          "internalType": "bool",
          "name": "",
          "type": "bool"
        }
      ],
      "stateMutability": "view",
      "type": "function"
    },
    {
      "inputs": [
        {
          "internalType": "address",
          "name": "walletOwner",
          "type": "address"
        },
        {
          "components": [
            {
              "internalType": "enum IWalletCompliance.OperationType",
              "name": "opType",
              "type": "uint8"
            },
            {
              "internalType": "address",
              "name": "target",
              "type": "address"
            },
            {
              "internalType": "uint256",
              "name": "value",
              "type": "uint256"
            },
            {
              "internalType": "bytes",
              "name": "data",
              "type": "bytes"
            },
            {
              "internalType": "address",
              "name": "token",
              "type": "address"
            },
            {
              "internalType": "uint256",
              "name": "tokenAmount",
              "type": "uint256"
            },
            {
              "internalType": "uint256",
              "name": "chainId",
              "type": "uint256"
            }
          ],
          "internalType": "struct IWalletCompliance.Operation[]",
          "name": "ops",
          "type": "tuple[]"
        }
      ],
      "name": "validateBatch",
      "outputs": [
        {
          "internalType": "enum IAssetCompliance.Decision[]",
          "name": "decisions",
          "type": "uint8[]"
        }
      ],
      "stateMutability": "view",
      "type": "function"
    },
    {
      "inputs": [
        {
          "internalType": "address",
          "name": "walletOwner",
          "type": "address"
        },
        {
          "components": [
            {
              "internalType": "enum IWalletCompliance.OperationType",
              "name": "opType",
              "type": "uint8"
            },
            {
              "internalType": "address",
              "name": "target",
              "type": "address"
            },
            {
              "internalType": "uint256",
              "name": "value",
              "type": "uint256"
            },
            {
              "internalType": "bytes",
              "name": "data",
              "type": "bytes"
            },
            {
              "internalType": "address",
              "name": "token",
              "type": "address"
            },
            {
              "internalType": "uint256",
              "name": "tokenAmount",
              "type": "uint256"
            },
            {
              "internalType": "uint256",
              "name": "chainId",
              "type": "uint256"
            }
          ],
          "internalType": "struct IWalletCompliance.Operation",
          "name": "op",
          "type": "tuple"
        },
        {
          "internalType": "address",
          "name": "walletContract",
          "type": "address"
        }
      ],
      "name": "validateOperation",
      "outputs": [
        {
          "internalType": "enum IAssetCompliance.Decision",
          "name": "decision",
          "type": "uint8"
        },
        {
          "internalType": "string",
          "name": "reason",
          "type": "string"
        }
      ],
      "stateMutability": "view",
      "type": "function"
    },
    {
      "inputs": [
        {
          "internalType": "address",
          "name": "from",
          "type": "address"
        },
        {
          "internalType": "address",
          "name": "to",
          "type": "address"
        },
        {
          "internalType": "uint256",
          "name": "amount",
          "type": "uint256"
        },
        {
          "internalType": "address",
          "name": "assetContract",
          "type": "address"
        }
      ],
      "name": "validateTransfer",
      "outputs": [
        {
          "internalType": "enum IAssetCompliance.Decision",
          "name": "decision",
          "type": "uint8"
        },
        {
          "internalType": "string",
          "name": "reason",
          "type": "string"
        }
      ],
      "stateMutability": "view",
      "type": "function"
    }
  ],
  "bytecode": "0x6080346200010457601f6200335b38819003918201601f19168301916001600160401b038311848410176200010957808492604094855283398101031262000104576200005a602062000052836200011f565b92016200011f565b600180556002546001600160a01b0392808416158015620000f9575b620000e7576001600160a81b031990911660089190911b610100600160a81b031617600255600380546001600160a01b03191692909116919091179055620000be3362000134565b50620000ca33620001b4565b50620000d63362000256565b506040516130479081620002f48239f35b60405163e6c4247b60e01b8152600490fd5b508383161562000076565b600080fd5b634e487b7160e01b600052604160045260246000fd5b51906001600160a01b03821682036200010457565b6001600160a01b031660008181527fad3228b676f7d3cd4284a5443f17f1962b36e491b30a40b2405849e597ba5fb5602052604081205490919060ff16620001b057818052816020526040822081835260205260408220600160ff1982541617905533916000805160206200333b8339815191528180a4600190565b5090565b6001600160a01b031660008181527f7d7ffb7a348e1c6a02869081a26547b49160dd3df72d1d75a570eb9b698292ec60205260408120549091907fa49807205ce4d355092ef5a8a18f56e8913cf4a201fbe287825b095693c217759060ff166200025157808352826020526040832082845260205260408320600160ff198254161790556000805160206200333b833981519152339380a4600190565b505090565b6001600160a01b031660008181527f3c1b1854ab1360abbb06c8d4c6b2672d4b8cedc5eff522ab19e51d5cb8fdbd4660205260408120549091907fbf233dd2aafeb4d50879c4aa5c81e96d92f6e6945c906a58f9f2d1c1631b4b269060ff166200025157808352826020526040832082845260205260408320600160ff198254161790556000805160206200333b833981519152339380a460019056fe6080806040526004908136101561001557600080fd5b600090813560e01c90816301ffc9a714611e9c575080630480238e14611e505780630683e17f14611c8a5780630905f56014611c6757806310ad0efe14611b265780631c3f5b9e14611af957806320df435914611abe578063248a9ca314611a9257806326feeef2146118c75780632b4912761461183d5780632f2ff15d14611800578063361cd6961461166057806336568abe1461161a5780633dcdee071461148b5780634a4e3bd5146114205780634c95da661461137557806351858e271461130757806354f10ff01461127c5780635c975abb146112595780636083d20e146111d25780636135b08514611188578063618033db1461116a578063656998e71461110457806371f7fff414610f0e5780637209975c14610e1b57806375b238fc14610de05780638382c2a214610cae57806391d1485414610c64578063927399a514610c3b5780639335c28f14610aa557806399b20eaf14610a5a5780639e7c90b614610a0c578063a217fddf146109f0578063a85e35de1461093f578063c538fec0146108bd578063cbbe453b146107c8578063d00960101461077a578063d547741f14610739578063dcc1d8a6146106ce578063df592f7d14610628578063dff8688e146105f0578063e79899bd14610573578063f2b2b06014610455578063f5b541a61461041a578063f8038c85146103055763f911d30a1461021d57600080fd5b3461030257600319916060368401126102fe57610238611ef0565b90602435936001600160401b0385116102fa5760e09085360301126102f657604435936001600160a01b039283861686036102f157849360035416916102956040519788958694859463ecc2bf1f60e01b86528201918501612c02565b03915afa9182156102e4578180936102bd575b50506102b9604051928392836121a6565b0390f35b9091506102dc92503d8091833e6102d481836120df565b8101906124ce565b9038806102a8565b50604051903d90823e3d90fd5b600080fd5b8280fd5b8380fd5b5080fd5b80fd5b5090346102fe576003196020368201126102f65781356001600160401b03918282116104165760e09082360301126102fa57928061036d939460018060a01b0360035416604051808097819463f8038c8560e01b835260208b84015260248301908b01612b43565b03915afa9384156102e4578193829383966103b1575b60405160ff87168152806102b9898861039b81611fd7565b6020840152606060408401526060830190611f53565b929550925092503d8085843e6103c781846120df565b820191606081840312610416576103dd81612b04565b9460208201519485101561030257604082015192831161030257506102b99260ff959261040a920161247d565b90929093819238610383565b8480fd5b503461030257806003193601126103025760206040517f97667070c54ef182b0f5858b034beac1b6f3089aa2d3188bb1e8929f4fa9b9298152f35b5090346102fe5760603660031901126102fe57610470611ef0565b610478611f06565b9060ff600854166105625760ff60025416610551576003546040805163085c1b9b60e11b81526001600160a01b0393841686820190815294841660208601526044359185019190915233606085015292859284921690829081906080015b03915afa9081156105465783908492610528575b50806104f7600192611fd7565b14610500578280f35b90610524602092604051938493630bcdbedb60e01b85528401526024830190611f53565b0390fd5b6001925061054091503d8086833e6102d481836120df565b916104ea565b6040513d85823e3d90fd5b60405163ab35696f60e01b81528390fd5b6040516319e1bef560e01b81528390fd5b503461030257602036600319011261030257813590600754821015610302575061059c90612253565b50906102b982549160018060a01b03600185015416936105c760028201549260038301549201612100565b91604051958695865260208601526040850152606084015260a0608084015260a0830190611f53565b5090346102fe5760203660031901126102fe57359060055482101561030257602061061a83612206565b90546040519160031b1c8152f35b503461030257602091826003193601126102fe5782610645611ef0565b602460018060a01b03918260025460081c16604051958694859363df592f7d60e01b855216908301525afa9182156106c257809261068a575b50506040519015158152f35b9091508282813d83116106bb575b6106a281836120df565b8101031261030257506106b490612b29565b388061067e565b503d610698565b604051903d90823e3d90fd5b5090346102fe5760203660031901126102fe576106e9611ef0565b906106f2612308565b6001600160a01b0382161561072a575060028054610100600160a81b03191660089290921b610100600160a81b031691909117905580f35b60405163e6c4247b60e01b8152fd5b5090346102fe5760403660031901126102fe576107769035610759611f06565b90808452836020526107716001604086200154612364565b612408565b5080f35b503461030257806003193601126103025761079361228e565b600160ff196008541617600855337f43f3e8d1092da4d3201e4d117b99bf80e75127516bc6523bd8cdb4464a923cde8280a280f35b50346103025760209081600319360112610302578060409160a083516107ed816120a9565b82815282868201528285820152826060820152606060808201520152833581526006835220906108b060405192610823846120a9565b60018060a01b039485825416855285600183015416848601908152866002840154916040880192835260ff600561086760038801549660608c019788528801612100565b9660808b019788520154169660a089019715158852604051998a99828b52511690890152511660408701525160608601525160808501525160c060a085015260e0840190611f53565b9051151560c08301520390f35b5090346102fe576003196040368201126102f6576108d9611ef0565b602435916001600160401b0383116104165760e09083360301126102fa5760ff600854166105625760ff600254166105515760035460405163ecc2bf1f60e01b815292859284926001600160a01b031691839182916104d69133918a01908a8501612c02565b5090346102fe5760403660031901126102fe57602061095c611ef0565b6044610966611f06565b60035460405163542f1aef60e11b81526001600160a01b0394851696810196909652908316602486015284928391165afa9081156109e55782916109b0575b602082604051908152f35b90506020813d82116109dd575b816109ca602093836120df565b810103126102fe576020915051386109a5565b3d91506109bd565b6040513d84823e3d90fd5b5034610302578060031936011261030257602090604051908152f35b5034610302576040366003190112610302576040610a28611ef0565b91610a31611f06565b9360018060a01b0380941682526020522091166000526020526020604060002054604051908152f35b5034610302578060031936011261030257610a7361228e565b60ff1960085416600855337fbd95437b04432c9bbcf6d10c00e0e1cdc482151ffe5da10870858d456ee9fc238280a280f35b5034610302576020806003193601126102fe5782357f97667070c54ef182b0f5858b034beac1b6f3089aa2d3188bb1e8929f4fa9b9298060005260008352604060002033600052835260ff6040600020541615610c1c5750808352600682526040832091600583019283549060ff8216610c0b5760028101948554928315610bfa5760019060ff191617905560018060a01b03918282541697888852808552604088209084600185015416918260005286528260406000205410610bb65788997f75d86e5bfa1175e2dc677f3abe3aebba3069f2db6ae492f1734d4b4bc65f61c197989952855260408920906000528452610ba66040600020918254612c76565b905554169354604051908152a380f35b60405162461bcd60e51b8152908101869052601760248201527f496e73756666696369656e742068656c642066756e64730000000000000000006044820152606490fd5b60405163bc60d03b60e01b81528990fd5b6040516331da482760e11b81528790fd5b60405163e2517d3f60e01b815233818701526024810191909152604490fd5b50346103025780600319360112610302576003546040516001600160a01b039091168152602090f35b503461030257604036600319011261030257604090610c81611f06565b9235815280602052209060018060a01b0316600052602052602060ff604060002054166040519015158152f35b5034610302576020908160031936011261030257610cca611ef0565b6002546040516341c1615160e11b81526001600160a01b0392831681870152946024946060939092849188918891839160081c165afa908115610dd557849585978693610d87575b5060405195610d20876120c4565b848752843681890137805b858110610d5657604080518a1515815260ff8c1681890152908101889052806102b9818a018b611f53565b8751811015610d76578085610d71921a87828b010153612c31565b610d2b565b50634e487b7160e01b815260328352fd5b9650915095508285813d8311610dce575b610da281836120df565b810103126102fa57610db385612b29565b956040610dc1848801612b04565b9601519695969138610d12565b503d610d98565b6040513d86823e3d90fd5b503461030257806003193601126103025760206040517fa49807205ce4d355092ef5a8a18f56e8913cf4a201fbe287825b095693c217758152f35b5090346102fe57610e2b36611f78565b92919060ff600854166105625760ff600254166105515760035490936001600160a01b0390911690855b818110610e60578680f35b610e8b87610e6f83858a612c40565b6040518093819263ecc2bf1f60e01b835233908a8c8501612c02565b0381875afa908115610f035788908992610ee5575b5080610ead600192611fd7565b14610ec15750610ebc90612c31565b610e55565b604051630bcdbedb60e01b8152602081880152908190610524906024830190611f53565b60019250610efd91503d808b833e6102d481836120df565b91610ea0565b6040513d8a823e3d90fd5b5090346102fe5760203660031901126102fe57610f29611ef0565b906040519161012083018381106001600160401b038211176110ef579060e0916040528484528460208501528460408501528460608501528460808501528460a08501528460c08501526060828501526060610100850152602460018060a01b039182600354166040519586948593631b38e8a3881b855216908301525afa908115610546578391849185918691879188918991611073575b506102b99850151560c0880152151560a087015215156080860152606085015260408401526020830152815260405191829160208352805160208401526020810151604084015260408101516060840152606081015160808401526080810151151560a084015260a0810151151560c084015260c0810151151560e084015261010061105e60e0830151610120838701526101408601906121c9565b910151838203601f19016101208501526121c9565b965050505050505060e0813d60e0116110e7575b8161109460e093836120df565b810103126102f6576102b9925080516020820151916040810151916060820151916110c160808201612b29565b916110da60c06110d360a08501612b29565b9301612b29565b9095949392919038610fc2565b3d9150611087565b604183634e487b7160e01b6000525260246000fd5b50346103025760803660031901126103025761111e611ef0565b611126611f06565b906064359182151583036102f1576002600154146111595761115293945060026001556044359161256e565b6001805580f35b604051633ee5aeb560e01b81528590fd5b50346103025780600319360112610302576020600754604051908152f35b5090346102fe5760203660031901126102fe576111a3611ef0565b6111ab612308565b6001600160a01b031690811561072a57506001600160601b0360a01b600354161760035580f35b5034610302576080366003190112610302576111ec611ef0565b916111f5611f06565b606435936001600160a01b03929183861686036102f1576003546040805163085c1b9b60e11b81526001600160a01b039485169581019586529284166020860152604435908501529190951660608301528392859291169082908190608001610295565b5034610302578060031936011261030257602060ff600254166040519015158152f35b5034610302578060031936011261030257604051809182600554808452602080940190600584527f036b6384b5eca791c62761152d0c79bb0604c104a5fb6f4eb0703f3154bb3db0935b858282106112f1575050506112dd925003836120df565b6102b9604051928284938452830190611ff7565b85548452600195860195889550930192016112c6565b5090346102fe57816003193601126102fe5761132161228e565b6002549060ff8216611366575060019060ff1916176002557f62e78cea01bee320cd4e420270b5ea74000d11b0c9f74754ebdbfc544b05a2586020604051338152a180f35b60405163d93c066560e01b8152fd5b503461030257602091826003193601126102fe57611391611ef0565b60025460405163264aed3360e11b81526001600160a01b0392831684820152939185918591602491839160089190911c165afa9283156102e45781936113e6575b505050604051906113e281611fd7565b8152f35b909192508381813d8311611419575b6113ff81836120df565b810103126102fe57519182101561030257503880806113d2565b503d6113f5565b5090346102fe57816003193601126102fe5761143a61228e565b6002549060ff82161561147c575060ff19166002557f5db9ee0a495bf2e6ff9c91a7834c1ba4fdd244a5e8aa4e537bd38aeae4b073aa6020604051338152a180f35b604051638dfc202b60e01b8152fd5b5034610302576003196060368201126102fe576114a6611ef0565b6024356001600160401b03928382116104165760e09082870192360301126102fa5760443591821515918284036115f4576003546001600160a01b0390811692833b156116165760405163397e877f60e21b8152911688820181905260606024830152928790829081838161151e6064820189612b43565b8a604483015203925af1801561160b576115f8575b503591600c8310156115f4576040516115829392916115528285612b36565b60208201527f72d37f82c8c062748c2dfff698b8d7289a2f5941528017d121338a7f29d21f9660403392a3612e3f565b90156115cf57611590612527565b905b6040519260208401908111848210176115ba576115b794955060405284835233612c83565b80f35b604186634e487b7160e01b6000525260246000fd5b6040516115db816120c4565b600681526511905253115160d21b602082015290611592565b8580fd5b61160490969196612096565b9438611533565b6040513d89823e3d90fd5b8780fd5b503461030257604036600319011261030257611634611f06565b336001600160a01b0382160361164f57610776919235612408565b60405163334bd91960e11b81528390fd5b5090346102fe5760203660031901126102fe5761167b611ef0565b6040519260e084018481106001600160401b038211176117ed5760405280845260208401818152604085018281526060860190838252608087019284845260a088019480865260e060c08a0197828952602460018060a01b039182600354166040519c8d948593630fb6411b60e11b855216908301525afa9788156102e457819882809281928280928192611760575b5050918c95939160e09e95938d5215158b5215158952151587521515855283525260405196875251602087015251151560408601525115156060850152511515608084015251151560a08301525160c0820152f35b96509d9c50505050505060e0813d60e0116117e5575b8161178360e093836120df565b810103126117e15760e098508051976020820151916117a460408201612b29565b906117b160608201612b29565b906117be60808201612b29565b9060c06117cd60a08301612b29565b910151949d9394929391929091829061170b565b8880fd5b3d9150611776565b634e487b7160e01b825260418452602482fd5b5090346102fe5760403660031901126102fe576107769035611820611f06565b90808452836020526118386001604086200154612364565b61238a565b503461030257602036600319011261030257604090823581526006602052209060018060a01b03906118bb82845416926001850154169360028101549260ff600561188e6003850154938501612100565b9301541693604051968796875260208701526040860152606085015260c0608085015260c0840190611f53565b90151560a08301520390f35b5090346102fe57602090816003193601126102f6576118e4611ef0565b90604051916118f283612065565b8483528484840152846080606094856040820152828682015201528460018060a01b0360248160025460081c1693604051948593849263baf1e57f60e01b845216878301525afa9485156106c257809561199c575b505050608060405193838594855260ff8251168186015281015161196a81611fd7565b6040850152611987604082015160a08587015260c0860190611ff7565b92810151828501520151151560a08301520390f35b90919294503d8082843e6119b081846120df565b820184838203126102fe5782516001600160401b03938482116102fa57019260a0848303126102f657604051946119e686612065565b6119ef85612b04565b865286850151908110156102fa578686015260408401519081116102f657830181601f820112156102f657805190611a2682612b12565b93611a3460405195866120df565b828552878086019360051b830101938411610302575086809101915b838310611a82575050505060408301528381015184830152611a7490608001612b29565b608082015291388080611947565b8251815291810191879101611a50565b5090346102fe5760203660031901126102fe576040602092600192358152808452200154604051908152f35b503461030257806003193601126103025760206040517fbf233dd2aafeb4d50879c4aa5c81e96d92f6e6945c906a58f9f2d1c1631b4b268152f35b503461030257806003193601126103025760025460405160089190911c6001600160a01b03168152602090f35b5090346102fe5790611b3736611f78565b919290611b4383612b12565b94611b5160405196876120df565b838652611b5d84612b12565b6020958787019591601f19013687376003546001600160a01b031691855b818110611bd75750505050505060405193838594850191818652518092526040850193925b828110611baf57505050500390f35b91938395509080600192819551611bc581611fd7565b81520195019101918594939192611ba0565b90611c0c8288611bf0819d9b9c9a98979695858b612c40565b6040518094819263ecc2bf1f60e01b83523390898c8501612c02565b0381885afa801561160b57611c3c928891611c4c575b50611c2d828c612c62565b611c3682611fd7565b52612c31565b9091929394509895979698611b7b565b611c6091503d808a833e6102d481836120df565b5038611c22565b5034610302578060031936011261030257602060ff600854166040519015158152f35b5090346102fe5760403660031901126102fe57803590611cac60243583612504565b90600754808311611e48575b50611cc38383612c76565b92611ccd84612b12565b93611cdb60405195866120df565b808552611cea601f1991612b12565b01855b818110611e13575050805b838110611d945760408051602080825287518183018190528993600582901b8401810192808b01929185015b828710611d315785850386f35b909192938280611d84600193603f198a8203018652885180518252858060a01b0384820151168483015260408101516040830152606080820151908301526080809101519160a080928201520190611f53565b9601920196019592919092611d24565b80611e08611da4611e0e93612253565b50611daf8584612c76565b90611df28760405192611dc184612065565b8054845260018101546001600160a01b03166020850152600281015460408501526003810154606085015201612100565b6080820152611e01828a612c62565b5287612c62565b50612c31565b611cf8565b602090604051611e2281612065565b88815282898183015289604083015260608a818401526080830152828901015201611ced565b915038611cb8565b5090346102fe5760403660031901126102fe57602091604091611e71611ef0565b611e79611f06565b6001600160a01b0391821684529185528383209116825283522054604051908152f35b905082346102f65760203660031901126102f6573563ffffffff60e01b81168091036102f65760209250637965db0b60e01b8114908115611edf575b5015158152f35b6301ffc9a760e01b14905083611ed8565b600435906001600160a01b03821682036102f157565b602435906001600160a01b03821682036102f157565b35906001600160a01b03821682036102f157565b60005b838110611f435750506000910152565b8181015183820152602001611f33565b90602091611f6c81518092818552858086019101611f30565b601f01601f1916010190565b60406003198201126102f1576004356001600160a01b03811681036102f157916024356001600160401b03928382116102f157806023830112156102f15781600401359384116102f15760248460051b830101116102f1576024019190565b60041115611fe157565b634e487b7160e01b600052602160045260246000fd5b90815180825260208080930193019160005b828110612017575050505090565b835185529381019392810192600101612009565b90600182811c9216801561205b575b602083101461204557565b634e487b7160e01b600052602260045260246000fd5b91607f169161203a565b60a081019081106001600160401b0382111761208057604052565b634e487b7160e01b600052604160045260246000fd5b6001600160401b03811161208057604052565b60c081019081106001600160401b0382111761208057604052565b604081019081106001600160401b0382111761208057604052565b90601f801991011681019081106001600160401b0382111761208057604052565b90604051918260008254926121148461202b565b9081845260019485811690816000146121835750600114612140575b505061213e925003836120df565b565b9093915060005260209081600020936000915b81831061216b57505061213e93508201013880612130565b85548884018501529485019487945091830191612153565b91505061213e94506020925060ff191682840152151560051b8201013880612130565b6040906121c693926121b781611fd7565b81528160208201520190611f53565b90565b90815180825260208080930193019160005b8281106121e9575050505090565b83516001600160a01b0316855293810193928101926001016121db565b60055481101561223d5760056000527f036b6384b5eca791c62761152d0c79bb0604c104a5fb6f4eb0703f3154bb3db00190600090565b634e487b7160e01b600052603260045260246000fd5b60075481101561223d576005906007600052027fa66cc928b5edb82af9bd49922954155ab7b0942694bea4ce44661d9a8736c6880190600090565b3360009081527f3c1b1854ab1360abbb06c8d4c6b2672d4b8cedc5eff522ab19e51d5cb8fdbd4660205260409020547fbf233dd2aafeb4d50879c4aa5c81e96d92f6e6945c906a58f9f2d1c1631b4b269060ff16156122ea5750565b6044906040519063e2517d3f60e01b82523360048301526024820152fd5b3360009081527f7d7ffb7a348e1c6a02869081a26547b49160dd3df72d1d75a570eb9b698292ec60205260409020547fa49807205ce4d355092ef5a8a18f56e8913cf4a201fbe287825b095693c217759060ff16156122ea5750565b80600052600060205260406000203360005260205260ff60406000205416156122ea5750565b9060009180835282602052604083209160018060a01b03169182845260205260ff6040842054161560001461240357808352826020526040832082845260205260408320600160ff198254161790557f2f8788117e7eff1d82e926ec794901d17c78024a50270940304540a733656f0d339380a4600190565b505090565b9060009180835282602052604083209160018060a01b03169182845260205260ff6040842054166000146124035780835282602052604083208284526020526040832060ff1981541690557ff6391f5c32d9c69d2a47ea670b442974b53935d1edc7fd64eb21e047a839171b339380a4600190565b81601f820112156102f15780516001600160401b03811161208057604051926124b0601f8301601f1916602001856120df565b818452602082840101116102f1576121c69160208085019101611f30565b9190916040818403126102f157805160048110156102f1579260208201516001600160401b0381116102f1576121c6920161247d565b9190820180921161251157565b634e487b7160e01b600052601160045260246000fd5b60405190612534826120c4565b60078252665355434345535360c81b6020830152565b60405190612557826120c4565b60088252672a2920a729a322a960c11b6020830152565b9291909115801590612a8657600380546040805163085c1b9b60e11b81526001600160a01b03888116600480840191909152888216602484015260448301889052336064840152929594909391929160009081908590608490829089165afa948515612a7a5781948296612a58575b506125e785611fd7565b80838614938461276c575b54169a8b3b156102f6578290828a51938492630491bdcb60e21b8452169c8d88840152169c8d60248301528b604483015233606483015289608483015281835a9260a493f180156127625793867feb0b59e06922834468492a0d99ae09ecbfd5445f52b213f9246577627e434bee999897947f8e4e3df28c2883148fdee6a320a42425a316e9721718dab93988c5ec8c298396948e98948e98612753575b5061269a85611fd7565b846126f85750506126bc91506126ae612527565b6126b661254a565b33612c83565b8651908982526126cb81611fd7565b6020820152606087820152806126e633946060830190611f53565b0390a4815193845260208401523392a4565b61270185611fd7565b501561272a5788516126bc92612716826120c4565b8152631211531160e21b60208201526126ae565b6126bc9150885161273a816120c4565b600781526611931051d1d15160ca1b60208201526126ae565b61275c90612096565b38612690565b88513d84823e3d90fd5b90508b895160209081810190858416936001600160601b03199060601b1682523360601b60348201528d6048820152426068820152606881526127ae81612065565b519020908286528781528b862033875281526127cd8d8d882054612504565b8387528882528c872033885282528c87205411612a1e578c868b8e8683528b85528083203384528552808320612804858254612504565b9055805190612812826120a9565b878252858201943386528183019081528a6060840192428452608085019586528960a086019780895252600689528d20935116956001600160601b0360a01b96878554161784556001968c8886019251169082541617905551600283015551888201558b810191519182516001600160401b038111612a0a57612895825461202b565b601f81116129c2575b50868c601f8311600114612962579060059583612957575b5050600019828c1b1c191690861b1790555b019051151560ff8019835416911617905560055490600160401b8210156129445786959493928f8f9284612921917f8cbeca763e52340d6dc1dad8142a1853056dc35577b129a7501b94822f25489a9601600555612206565b8154600019918a1b91821b19169087901b179055825133815291820152a36125f2565b634e487b7160e01b885260418a52602488fd5b0151905038806128b6565b879291601f1983168583528a8320925b8b8282106129ac575050968360059810612994575b505050811b0190556128c8565b0151600019838e1b60f8161c19169055388080612987565b838a015185558b96909401939283019201612972565b828d52878d20601f830160051c810191898410612a00575b601f0160051c019087908e5b8382106129f55750505061289e565b81550187908e6129e6565b90915081906129da565b50634e487b7160e01b8b5260418d5260248bfd5b876064918d5191630bcdbedb60e01b83528201526014602482015273486f6c6420616d6f756e74206f766572666c6f7760601b6044820152fd5b909550612a709194503d8086833e6102d481836120df565b93909394386125dd565b508651903d90823e3d90fd5b5050505061213e604051612a99816120c4565b600f81526e1514905394d1915497d19052531151608a1b6020820152604051612ac1816120c4565b60078152664641494c55524560c81b602082015260405191612ae2836120c4565b600f83526e151c985b9cd9995c8819985a5b1959608a1b602084015233612c83565b519060ff821682036102f157565b6001600160401b0381116120805760051b60200190565b519081151582036102f157565b90600c821015611fe15752565b908135600c8110156102f15781612b5991612b36565b6001600160a01b0380612b6e60208501611f1c565b166020830152604083013560408301526060830135601e19843603018112156102f157830190602082359201936001600160401b0383116102f15782360385136102f15760c09160e060608601528360e08601528361010096878701376000868587010152612bdf60808301611f1c565b16608085015260a08181013590850152013560c0830152601f01601f1916010190565b9190612c2a60409295949560018060a01b038093168552606060208601526060850190612b43565b9416910152565b60001981146125115760010190565b919081101561223d5760051b8101359060de19813603018212156102f1570190565b805182101561223d5760209160051b010190565b9190820391821161251157565b8151602080930120928281519101209060405191612ca083612065565b4283526001600160a01b039182168484019081526040840195865260608401918252608084019687526007549590600160401b87101561208057612ceb600197888101600755612253565b949094612e29576004955185558785019151166001600160601b0360a01b825416179055516002830155516003820155019251908151916001600160401b03831161208057612d3a855461202b565b601f8111612de0575b5081601f8411600114612d7d5750928293918392600094612d72575b50501b916000199060031b1c1916179055565b015192503880612d5f565b919083601f1981168760005284600020946000905b88838310612dc65750505010612dad575b505050811b019055565b015160001960f88460031b161c19169055388080612da3565b858701518855909601959485019487935090810190612d92565b6000868152838120601f860160051c810192858710612e1f575b601f0160051c019186905b838110612e1457505050612d43565b828155018690612e05565b9092508290612dfa565b634e487b7160e01b600052600060045260246000fd5b600c811015611fe157801561303157600181146130075760028114612fdd5760038114612fb25760058114612f915760068114612f6e5760078114612f4c5760088114612f285760098114612f0657600a8114612ee157600b14612ec057604051612ea9816120c4565b60078152662aa725a727aba760c91b602082015290565b604051612ecc816120c4565b600581526408482a886960db1b602082015290565b50604051612eee816120c4565b600881526744454c454741544560c01b602082015290565b50604051612f13816120c4565b6005815264434c41494d60d81b602082015290565b50604051612f35816120c4565b6007815266554e5354414b4560c81b602082015290565b50604051612f59816120c4565b60058152645354414b4560d81b602082015290565b50604051612f7b816120c4565b600681526542524944474560d01b602082015290565b50604051612f9e816120c4565b60048152630535741560e41b602082015290565b50604051612fbf816120c4565b600e81526d2a27a5a2a72faa2920a729a322a960911b602082015290565b50604051612fea816120c4565b600d81526c544f4b454e5f415050524f564560981b602082015290565b50604051613014816120c4565b600d81526c10d3d395149050d517d0d05313609a1b602082015290565b506121c661254a56fea164736f6c6343000814000a2f8788117e7eff1d82e926ec794901d17c78024a50270940304540a733656f0d",
  "linkReferences": {},
  "deployedLinkReferences": {}
}