{
  "_format": "hh-sol-artifact-1",
  "contractName": "ComplianceEngine",
  "sourceName": "contracts/ComplianceEngine.sol",
  "abi": [
    {
      "inputs": [],
      "stateMutability": "nonpayable",
      "type": "constructor"
    },
    {
      "inputs": [],
      "name": "AccessControlBadConfirmation",
      "type": "error"
    },
    {
      "inputs": [
        {
          "internalType": "address",
          "name": "account",
          "type": "address"
        },
        {
          "internalType": "bytes32",
          "name": "neededRole",
          "type": "bytes32"
        }
      ],
      "name": "AccessControlUnauthorizedAccount",
      "type": "error"
    },
    {
      "inputs": [
        {
          "internalType": "address",
          "name": "target",
          "type": "address"
        }
      ],
      "name": "AddressEmptyCode",
      "type": "error"
    },
    {
      "inputs": [
        {
          "internalType": "uint256",
          "name": "size",
          "type": "uint256"
        },
        {
          "internalType": "uint256",
          "name": "maxSize",
          "type": "uint256"
        }
      ],
      "name": "BatchSizeExceeded",
      "type": "error"
    },
    {
      "inputs": [
        {
          "internalType": "uint256",
          "name": "deadline",
          "type": "uint256"
        },
        {
          "internalType": "uint256",
          "name": "currentTime",
          "type": "uint256"
        }
      ],
      "name": "DeadlineExpired",
      "type": "error"
    },
    {
      "inputs": [
        {
          "internalType": "address",
          "name": "implementation",
          "type": "address"
        }
      ],
      "name": "ERC1967InvalidImplementation",
      "type": "error"
    },
    {
      "inputs": [],
      "name": "ERC1967NonPayable",
      "type": "error"
    },
    {
      "inputs": [],
      "name": "EnforcedPause",
      "type": "error"
    },
    {
      "inputs": [],
      "name": "ExpectedPause",
      "type": "error"
    },
    {
      "inputs": [],
      "name": "FailedCall",
      "type": "error"
    },
    {
      "inputs": [],
      "name": "InvalidAddress",
      "type": "error"
    },
    {
      "inputs": [],
      "name": "InvalidInitialization",
      "type": "error"
    },
    {
      "inputs": [],
      "name": "NotInitializing",
      "type": "error"
    },
    {
      "inputs": [],
      "name": "PolicyNotSet",
      "type": "error"
    },
    {
      "inputs": [],
      "name": "ReentrancyGuardReentrantCall",
      "type": "error"
    },
    {
      "inputs": [],
      "name": "RegistryNotSet",
      "type": "error"
    },
    {
      "inputs": [
        {
          "internalType": "bytes32",
          "name": "ruleId",
          "type": "bytes32"
        }
      ],
      "name": "RulePausedError",
      "type": "error"
    },
    {
      "inputs": [],
      "name": "UUPSUnauthorizedCallContext",
      "type": "error"
    },
    {
      "inputs": [
        {
          "internalType": "bytes32",
          "name": "slot",
          "type": "bytes32"
        }
      ],
      "name": "UUPSUnsupportedProxiableUUID",
      "type": "error"
    },
    {
      "inputs": [
        {
          "internalType": "address",
          "name": "caller",
          "type": "address"
        }
      ],
      "name": "UnauthorizedCaller",
      "type": "error"
    },
    {
      "inputs": [
        {
          "internalType": "bytes32",
          "name": "proposalId",
          "type": "bytes32"
        }
      ],
      "name": "UpgradeNotProposed",
      "type": "error"
    },
    {
      "inputs": [
        {
          "internalType": "bytes32",
          "name": "proposalId",
          "type": "bytes32"
        },
        {
          "internalType": "uint256",
          "name": "executeAfter",
          "type": "uint256"
        }
      ],
      "name": "UpgradeTimelockActive",
      "type": "error"
    },
    {
      "anonymous": false,
      "inputs": [
        {
          "indexed": true,
          "internalType": "address",
          "name": "addr",
          "type": "address"
        },
        {
          "indexed": true,
          "internalType": "uint256",
          "name": "riskScore",
          "type": "uint256"
        },
        {
          "indexed": true,
          "internalType": "bool",
          "name": "isCompliant",
          "type": "bool"
        },
        {
          "indexed": false,
          "internalType": "uint256",
          "name": "timestamp",
          "type": "uint256"
        },
        {
          "indexed": false,
          "internalType": "uint256",
          "name": "blockNumber",
          "type": "uint256"
        },
        {
          "indexed": false,
          "internalType": "bytes32",
          "name": "checkType",
          "type": "bytes32"
        }
      ],
      "name": "ComplianceCheckPerformed",
      "type": "event"
    },
    {
      "anonymous": false,
      "inputs": [
        {
          "indexed": true,
          "internalType": "address",
          "name": "account",
          "type": "address"
        },
        {
          "indexed": false,
          "internalType": "uint256",
          "name": "timestamp",
          "type": "uint256"
        }
      ],
      "name": "ContractPaused",
      "type": "event"
    },
    {
      "anonymous": false,
      "inputs": [
        {
          "indexed": true,
          "internalType": "address",
          "name": "account",
          "type": "address"
        },
        {
          "indexed": false,
          "internalType": "uint256",
          "name": "timestamp",
          "type": "uint256"
        }
      ],
      "name": "ContractUnpaused",
      "type": "event"
    },
    {
      "anonymous": false,
      "inputs": [
        {
          "indexed": false,
          "internalType": "uint64",
          "name": "version",
          "type": "uint64"
        }
      ],
      "name": "Initialized",
      "type": "event"
    },
    {
      "anonymous": false,
      "inputs": [
        {
          "indexed": false,
          "internalType": "address",
          "name": "account",
          "type": "address"
        }
      ],
      "name": "Paused",
      "type": "event"
    },
    {
      "anonymous": false,
      "inputs": [
        {
          "indexed": true,
          "internalType": "address",
          "name": "engine",
          "type": "address"
        }
      ],
      "name": "PolicyEngineSet",
      "type": "event"
    },
    {
      "anonymous": false,
      "inputs": [
        {
          "indexed": true,
          "internalType": "bytes32",
          "name": "quarantineId",
          "type": "bytes32"
        },
        {
          "indexed": true,
          "internalType": "address",
          "name": "operator",
          "type": "address"
        },
        {
          "indexed": false,
          "internalType": "uint256",
          "name": "timestamp",
          "type": "uint256"
        }
      ],
      "name": "QuarantineReleased",
      "type": "event"
    },
    {
      "anonymous": false,
      "inputs": [
        {
          "indexed": true,
          "internalType": "address",
          "name": "registry",
          "type": "address"
        }
      ],
      "name": "RiskRegistrySet",
      "type": "event"
    },
    {
      "anonymous": false,
      "inputs": [
        {
          "indexed": true,
          "internalType": "bytes32",
          "name": "role",
          "type": "bytes32"
        },
        {
          "indexed": true,
          "internalType": "bytes32",
          "name": "previousAdminRole",
          "type": "bytes32"
        },
        {
          "indexed": true,
          "internalType": "bytes32",
          "name": "newAdminRole",
          "type": "bytes32"
        }
      ],
      "name": "RoleAdminChanged",
      "type": "event"
    },
    {
      "anonymous": false,
      "inputs": [
        {
          "indexed": true,
          "internalType": "bytes32",
          "name": "role",
          "type": "bytes32"
        },
        {
          "indexed": true,
          "internalType": "address",
          "name": "account",
          "type": "address"
        },
        {
          "indexed": true,
          "internalType": "address",
          "name": "sender",
          "type": "address"
        }
      ],
      "name": "RoleGranted",
      "type": "event"
    },
    {
      "anonymous": false,
      "inputs": [
        {
          "indexed": true,
          "internalType": "bytes32",
          "name": "role",
          "type": "bytes32"
        },
        {
          "indexed": true,
          "internalType": "address",
          "name": "account",
          "type": "address"
        },
        {
          "indexed": true,
          "internalType": "address",
          "name": "sender",
          "type": "address"
        },
        {
          "indexed": false,
          "internalType": "uint256",
          "name": "timestamp",
          "type": "uint256"
        },
        {
          "indexed": false,
          "internalType": "string",
          "name": "reason",
          "type": "string"
        }
      ],
      "name": "RoleGrantedDetailed",
      "type": "event"
    },
    {
      "anonymous": false,
      "inputs": [
        {
          "indexed": true,
          "internalType": "bytes32",
          "name": "role",
          "type": "bytes32"
        },
        {
          "indexed": true,
          "internalType": "address",
          "name": "account",
          "type": "address"
        },
        {
          "indexed": true,
          "internalType": "address",
          "name": "sender",
          "type": "address"
        }
      ],
      "name": "RoleRevoked",
      "type": "event"
    },
    {
      "anonymous": false,
      "inputs": [
        {
          "indexed": true,
          "internalType": "bytes32",
          "name": "role",
          "type": "bytes32"
        },
        {
          "indexed": true,
          "internalType": "address",
          "name": "account",
          "type": "address"
        },
        {
          "indexed": true,
          "internalType": "address",
          "name": "sender",
          "type": "address"
        },
        {
          "indexed": false,
          "internalType": "uint256",
          "name": "timestamp",
          "type": "uint256"
        },
        {
          "indexed": false,
          "internalType": "string",
          "name": "reason",
          "type": "string"
        }
      ],
      "name": "RoleRevokedDetailed",
      "type": "event"
    },
    {
      "anonymous": false,
      "inputs": [
        {
          "indexed": true,
          "internalType": "bytes32",
          "name": "ruleId",
          "type": "bytes32"
        }
      ],
      "name": "RulePaused",
      "type": "event"
    },
    {
      "anonymous": false,
      "inputs": [
        {
          "indexed": true,
          "internalType": "bytes32",
          "name": "ruleId",
          "type": "bytes32"
        }
      ],
      "name": "RuleUnpaused",
      "type": "event"
    },
    {
      "anonymous": false,
      "inputs": [
        {
          "indexed": true,
          "internalType": "address",
          "name": "from",
          "type": "address"
        },
        {
          "indexed": true,
          "internalType": "address",
          "name": "to",
          "type": "address"
        },
        {
          "indexed": true,
          "internalType": "uint256",
          "name": "amount",
          "type": "uint256"
        },
        {
          "indexed": false,
          "internalType": "address",
          "name": "token",
          "type": "address"
        },
        {
          "indexed": false,
          "internalType": "string",
          "name": "reason",
          "type": "string"
        },
        {
          "indexed": false,
          "internalType": "uint256",
          "name": "timestamp",
          "type": "uint256"
        },
        {
          "indexed": false,
          "internalType": "uint256",
          "name": "blockNumber",
          "type": "uint256"
        }
      ],
      "name": "TransactionBlocked",
      "type": "event"
    },
    {
      "anonymous": false,
      "inputs": [
        {
          "indexed": true,
          "internalType": "address",
          "name": "from",
          "type": "address"
        },
        {
          "indexed": true,
          "internalType": "address",
          "name": "to",
          "type": "address"
        },
        {
          "indexed": true,
          "internalType": "uint256",
          "name": "amount",
          "type": "uint256"
        },
        {
          "indexed": false,
          "internalType": "address",
          "name": "token",
          "type": "address"
        },
        {
          "indexed": false,
          "internalType": "bytes32",
          "name": "quarantineId",
          "type": "bytes32"
        },
        {
          "indexed": false,
          "internalType": "uint256",
          "name": "timestamp",
          "type": "uint256"
        },
        {
          "indexed": false,
          "internalType": "uint256",
          "name": "blockNumber",
          "type": "uint256"
        }
      ],
      "name": "TransactionQuarantined",
      "type": "event"
    },
    {
      "anonymous": false,
      "inputs": [
        {
          "indexed": false,
          "internalType": "address",
          "name": "account",
          "type": "address"
        }
      ],
      "name": "Unpaused",
      "type": "event"
    },
    {
      "anonymous": false,
      "inputs": [
        {
          "indexed": true,
          "internalType": "bytes32",
          "name": "proposalId",
          "type": "bytes32"
        },
        {
          "indexed": true,
          "internalType": "address",
          "name": "newImplementation",
          "type": "address"
        }
      ],
      "name": "UpgradeExecuted",
      "type": "event"
    },
    {
      "anonymous": false,
      "inputs": [
        {
          "indexed": true,
          "internalType": "bytes32",
          "name": "proposalId",
          "type": "bytes32"
        },
        {
          "indexed": true,
          "internalType": "address",
          "name": "newImplementation",
          "type": "address"
        },
        {
          "indexed": false,
          "internalType": "uint256",
          "name": "executeAfter",
          "type": "uint256"
        }
      ],
      "name": "UpgradeProposed",
      "type": "event"
    },
    {
      "anonymous": false,
      "inputs": [
        {
          "indexed": false,
          "internalType": "uint256",
          "name": "oldDelay",
          "type": "uint256"
        },
        {
          "indexed": false,
          "internalType": "uint256",
          "name": "newDelay",
          "type": "uint256"
        }
      ],
      "name": "UpgradeTimelockDelayUpdated",
      "type": "event"
    },
    {
      "anonymous": false,
      "inputs": [
        {
          "indexed": true,
          "internalType": "address",
          "name": "implementation",
          "type": "address"
        }
      ],
      "name": "Upgraded",
      "type": "event"
    },
    {
      "anonymous": false,
      "inputs": [
        {
          "indexed": false,
          "internalType": "string",
          "name": "functionName",
          "type": "string"
        },
        {
          "indexed": false,
          "internalType": "uint256",
          "name": "timestamp",
          "type": "uint256"
        }
      ],
      "name": "ZeroAddressRejected",
      "type": "event"
    },
    {
      "inputs": [],
      "name": "ADMIN_ROLE",
      "outputs": [
        {
          "internalType": "bytes32",
          "name": "",
          "type": "bytes32"
        }
      ],
      "stateMutability": "view",
      "type": "function"
    },
    {
      "inputs": [],
      "name": "DEFAULT_ADMIN_ROLE",
      "outputs": [
        {
          "internalType": "bytes32",
          "name": "",
          "type": "bytes32"
        }
      ],
      "stateMutability": "view",
      "type": "function"
    },
    {
      "inputs": [],
      "name": "MAX_HISTORY_SIZE",
      "outputs": [
        {
          "internalType": "uint256",
          "name": "",
          "type": "uint256"
        }
      ],
      "stateMutability": "view",
      "type": "function"
    },
    {
      "inputs": [],
      "name": "OPERATOR_ROLE",
      "outputs": [
        {
          "internalType": "bytes32",
          "name": "",
          "type": "bytes32"
        }
      ],
      "stateMutability": "view",
      "type": "function"
    },
    {
      "inputs": [],
      "name": "UPGRADE_INTERFACE_VERSION",
      "outputs": [
        {
          "internalType": "string",
          "name": "",
          "type": "string"
        }
      ],
      "stateMutability": "view",
      "type": "function"
    },
    {
      "inputs": [],
      "name": "VERSION",
      "outputs": [
        {
          "internalType": "string",
          "name": "",
          "type": "string"
        }
      ],
      "stateMutability": "view",
      "type": "function"
    },
    {
      "inputs": [
        {
          "internalType": "address",
          "name": "",
          "type": "address"
        }
      ],
      "name": "addressCheckCount",
      "outputs": [
        {
          "internalType": "uint256",
          "name": "",
          "type": "uint256"
        }
      ],
      "stateMutability": "view",
      "type": "function"
    },
    {
      "inputs": [
        {
          "internalType": "address[]",
          "name": "addrs",
          "type": "address[]"
        }
      ],
      "name": "batchCheckAddressCompliance",
      "outputs": [
        {
          "internalType": "bool[]",
          "name": "results",
          "type": "bool[]"
        },
        {
          "internalType": "uint256[]",
          "name": "scores",
          "type": "uint256[]"
        }
      ],
      "stateMutability": "nonpayable",
      "type": "function"
    },
    {
      "inputs": [],
      "name": "blockedTransactions",
      "outputs": [
        {
          "internalType": "uint256",
          "name": "",
          "type": "uint256"
        }
      ],
      "stateMutability": "view",
      "type": "function"
    },
    {
      "inputs": [
        {
          "internalType": "address",
          "name": "addr",
          "type": "address"
        }
      ],
      "name": "checkAddressCompliance",
      "outputs": [
        {
          "internalType": "bool",
          "name": "isCompliant",
          "type": "bool"
        },
        {
          "internalType": "uint256",
          "name": "riskScore",
          "type": "uint256"
        },
        {
          "internalType": "string",
          "name": "reason",
          "type": "string"
        }
      ],
      "stateMutability": "nonpayable",
      "type": "function"
    },
    {
      "inputs": [
        {
          "internalType": "uint256",
          "name": "",
          "type": "uint256"
        }
      ],
      "name": "checkHistory",
      "outputs": [
        {
          "internalType": "address",
          "name": "addr",
          "type": "address"
        },
        {
          "internalType": "uint256",
          "name": "riskScore",
          "type": "uint256"
        },
        {
          "internalType": "bool",
          "name": "isCompliant",
          "type": "bool"
        },
        {
          "internalType": "uint256",
          "name": "timestamp",
          "type": "uint256"
        },
        {
          "internalType": "uint256",
          "name": "blockNumber",
          "type": "uint256"
        },
        {
          "internalType": "bytes32",
          "name": "checkType",
          "type": "bytes32"
        },
        {
          "internalType": "string",
          "name": "reason",
          "type": "string"
        }
      ],
      "stateMutability": "view",
      "type": "function"
    },
    {
      "inputs": [
        {
          "internalType": "address",
          "name": "from",
          "type": "address"
        },
        {
          "internalType": "address",
          "name": "to",
          "type": "address"
        },
        {
          "internalType": "uint256",
          "name": "amount",
          "type": "uint256"
        },
        {
          "internalType": "address",
          "name": "token",
          "type": "address"
        }
      ],
      "name": "checkTransfer",
      "outputs": [
        {
          "internalType": "enum IComplianceEngine.Decision",
          "name": "decision",
          "type": "uint8"
        },
        {
          "internalType": "string",
          "name": "reason",
          "type": "string"
        }
      ],
      "stateMutability": "nonpayable",
      "type": "function"
    },
    {
      "inputs": [
        {
          "internalType": "address",
          "name": "from",
          "type": "address"
        },
        {
          "internalType": "address",
          "name": "to",
          "type": "address"
        },
        {
          "internalType": "uint256",
          "name": "amount",
          "type": "uint256"
        },
        {
          "internalType": "address",
          "name": "token",
          "type": "address"
        },
        {
          "internalType": "uint256",
          "name": "deadline",
          "type": "uint256"
        }
      ],
      "name": "checkTransferWithDeadline",
      "outputs": [
        {
          "internalType": "enum IComplianceEngine.Decision",
          "name": "decision",
          "type": "uint8"
        },
        {
          "internalType": "string",
          "name": "reason",
          "type": "string"
        }
      ],
      "stateMutability": "nonpayable",
      "type": "function"
    },
    {
      "inputs": [
        {
          "internalType": "address",
          "name": "",
          "type": "address"
        },
        {
          "internalType": "uint256",
          "name": "",
          "type": "uint256"
        }
      ],
      "name": "dailySpent",
      "outputs": [
        {
          "internalType": "uint256",
          "name": "",
          "type": "uint256"
        }
      ],
      "stateMutability": "view",
      "type": "function"
    },
    {
      "inputs": [],
      "name": "getCheckHistoryLength",
      "outputs": [
        {
          "internalType": "uint256",
          "name": "",
          "type": "uint256"
        }
      ],
      "stateMutability": "view",
      "type": "function"
    },
    {
      "inputs": [
        {
          "internalType": "uint256",
          "name": "index",
          "type": "uint256"
        }
      ],
      "name": "getCheckRecord",
      "outputs": [
        {
          "components": [
            {
              "internalType": "address",
              "name": "addr",
              "type": "address"
            },
            {
              "internalType": "uint256",
              "name": "riskScore",
              "type": "uint256"
            },
            {
              "internalType": "bool",
              "name": "isCompliant",
              "type": "bool"
            },
            {
              "internalType": "uint256",
              "name": "timestamp",
              "type": "uint256"
            },
            {
              "internalType": "uint256",
              "name": "blockNumber",
              "type": "uint256"
            },
            {
              "internalType": "bytes32",
              "name": "checkType",
              "type": "bytes32"
            },
            {
              "internalType": "string",
              "name": "reason",
              "type": "string"
            }
          ],
          "internalType": "struct ComplianceEngine.CheckRecord",
          "name": "",
          "type": "tuple"
        }
      ],
      "stateMutability": "view",
      "type": "function"
    },
    {
      "inputs": [],
      "name": "getQuarantineListLength",
      "outputs": [
        {
          "internalType": "uint256",
          "name": "",
          "type": "uint256"
        }
      ],
      "stateMutability": "view",
      "type": "function"
    },
    {
      "inputs": [
        {
          "internalType": "bytes32",
          "name": "quarantineId",
          "type": "bytes32"
        }
      ],
      "name": "getQuarantineRecord",
      "outputs": [
        {
          "components": [
            {
              "internalType": "address",
              "name": "from",
              "type": "address"
            },
            {
              "internalType": "address",
              "name": "to",
              "type": "address"
            },
            {
              "internalType": "uint256",
              "name": "amount",
              "type": "uint256"
            },
            {
              "internalType": "address",
              "name": "token",
              "type": "address"
            },
            {
              "internalType": "uint256",
              "name": "timestamp",
              "type": "uint256"
            },
            {
              "internalType": "bool",
              "name": "released",
              "type": "bool"
            },
            {
              "internalType": "address",
              "name": "operator",
              "type": "address"
            },
            {
              "internalType": "string",
              "name": "reason",
              "type": "string"
            }
          ],
          "internalType": "struct ComplianceEngine.QuarantineRecord",
          "name": "",
          "type": "tuple"
        }
      ],
      "stateMutability": "view",
      "type": "function"
    },
    {
      "inputs": [
        {
          "internalType": "bytes32",
          "name": "role",
          "type": "bytes32"
        }
      ],
      "name": "getRoleAdmin",
      "outputs": [
        {
          "internalType": "bytes32",
          "name": "",
          "type": "bytes32"
        }
      ],
      "stateMutability": "view",
      "type": "function"
    },
    {
      "inputs": [
        {
          "internalType": "bytes32",
          "name": "role",
          "type": "bytes32"
        },
        {
          "internalType": "address",
          "name": "account",
          "type": "address"
        }
      ],
      "name": "grantRole",
      "outputs": [],
      "stateMutability": "nonpayable",
      "type": "function"
    },
    {
      "inputs": [
        {
          "internalType": "bytes32",
          "name": "role",
          "type": "bytes32"
        },
        {
          "internalType": "address",
          "name": "account",
          "type": "address"
        },
        {
          "internalType": "string",
          "name": "reason",
          "type": "string"
        }
      ],
      "name": "grantRoleWithReason",
      "outputs": [],
      "stateMutability": "nonpayable",
      "type": "function"
    },
    {
      "inputs": [
        {
          "internalType": "bytes32",
          "name": "role",
          "type": "bytes32"
        },
        {
          "internalType": "address",
          "name": "account",
          "type": "address"
        }
      ],
      "name": "hasRole",
      "outputs": [
        {
          "internalType": "bool",
          "name": "",
          "type": "bool"
        }
      ],
      "stateMutability": "view",
      "type": "function"
    },
    {
      "inputs": [
        {
          "internalType": "address",
          "name": "",
          "type": "address"
        }
      ],
      "name": "implementationToProposal",
      "outputs": [
        {
          "internalType": "bytes32",
          "name": "",
          "type": "bytes32"
        }
      ],
      "stateMutability": "view",
      "type": "function"
    },
    {
      "inputs": [
        {
          "internalType": "address",
          "name": "_riskRegistry",
          "type": "address"
        },
        {
          "internalType": "address",
          "name": "_policyEngine",
          "type": "address"
        }
      ],
      "name": "initialize",
      "outputs": [],
      "stateMutability": "nonpayable",
      "type": "function"
    },
    {
      "inputs": [
        {
          "internalType": "address",
          "name": "",
          "type": "address"
        }
      ],
      "name": "issuerPolicies",
      "outputs": [
        {
          "internalType": "uint256",
          "name": "maxTxAmount",
          "type": "uint256"
        },
        {
          "internalType": "uint256",
          "name": "dailyLimit",
          "type": "uint256"
        },
        {
          "internalType": "bool",
          "name": "allowMediumRisk",
          "type": "bool"
        },
        {
          "internalType": "bool",
          "name": "allowHighRisk",
          "type": "bool"
        },
        {
          "internalType": "bool",
          "name": "blockMixer",
          "type": "bool"
        },
        {
          "internalType": "bool",
          "name": "requireDestinationKYC",
          "type": "bool"
        },
        {
          "internalType": "uint256",
          "name": "cooldownPeriod",
          "type": "uint256"
        }
      ],
      "stateMutability": "view",
      "type": "function"
    },
    {
      "inputs": [
        {
          "internalType": "address",
          "name": "",
          "type": "address"
        }
      ],
      "name": "lastTransferTime",
      "outputs": [
        {
          "internalType": "uint256",
          "name": "",
          "type": "uint256"
        }
      ],
      "stateMutability": "view",
      "type": "function"
    },
    {
      "inputs": [],
      "name": "pause",
      "outputs": [],
      "stateMutability": "nonpayable",
      "type": "function"
    },
    {
      "inputs": [
        {
          "internalType": "bytes32",
          "name": "ruleId",
          "type": "bytes32"
        }
      ],
      "name": "pauseRule",
      "outputs": [],
      "stateMutability": "nonpayable",
      "type": "function"
    },
    {
      "inputs": [],
      "name": "paused",
      "outputs": [
        {
          "internalType": "bool",
          "name": "",
          "type": "bool"
        }
      ],
      "stateMutability": "view",
      "type": "function"
    },
    {
      "inputs": [
        {
          "internalType": "bytes32",
          "name": "",
          "type": "bytes32"
        }
      ],
      "name": "pausedRules",
      "outputs": [
        {
          "internalType": "bool",
          "name": "",
          "type": "bool"
        }
      ],
      "stateMutability": "view",
      "type": "function"
    },
    {
      "inputs": [],
      "name": "policyEngine",
      "outputs": [
        {
          "internalType": "contract PolicyEngine",
          "name": "",
          "type": "address"
        }
      ],
      "stateMutability": "view",
      "type": "function"
    },
    {
      "inputs": [
        {
          "internalType": "address",
          "name": "newImplementation",
          "type": "address"
        }
      ],
      "name": "proposeUpgrade",
      "outputs": [
        {
          "internalType": "bytes32",
          "name": "proposalId",
          "type": "bytes32"
        }
      ],
      "stateMutability": "nonpayable",
      "type": "function"
    },
    {
      "inputs": [],
      "name": "proxiableUUID",
      "outputs": [
        {
          "internalType": "bytes32",
          "name": "",
          "type": "bytes32"
        }
      ],
      "stateMutability": "view",
      "type": "function"
    },
    {
      "inputs": [
        {
          "internalType": "uint256",
          "name": "",
          "type": "uint256"
        }
      ],
      "name": "quarantineList",
      "outputs": [
        {
          "internalType": "bytes32",
          "name": "",
          "type": "bytes32"
        }
      ],
      "stateMutability": "view",
      "type": "function"
    },
    {
      "inputs": [],
      "name": "quarantineNonce",
      "outputs": [
        {
          "internalType": "uint256",
          "name": "",
          "type": "uint256"
        }
      ],
      "stateMutability": "view",
      "type": "function"
    },
    {
      "inputs": [
        {
          "internalType": "address",
          "name": "from",
          "type": "address"
        },
        {
          "internalType": "address",
          "name": "to",
          "type": "address"
        },
        {
          "internalType": "uint256",
          "name": "amount",
          "type": "uint256"
        },
        {
          "internalType": "address",
          "name": "token",
          "type": "address"
        },
        {
          "internalType": "string",
          "name": "reason",
          "type": "string"
        }
      ],
      "name": "quarantineTransaction",
      "outputs": [
        {
          "internalType": "bytes32",
          "name": "quarantineId",
          "type": "bytes32"
        }
      ],
      "stateMutability": "nonpayable",
      "type": "function"
    },
    {
      "inputs": [],
      "name": "quarantinedTransactions",
      "outputs": [
        {
          "internalType": "uint256",
          "name": "",
          "type": "uint256"
        }
      ],
      "stateMutability": "view",
      "type": "function"
    },
    {
      "inputs": [
        {
          "internalType": "bytes32",
          "name": "",
          "type": "bytes32"
        }
      ],
      "name": "quarantinedTxs",
      "outputs": [
        {
          "internalType": "address",
          "name": "from",
          "type": "address"
        },
        {
          "internalType": "address",
          "name": "to",
          "type": "address"
        },
        {
          "internalType": "uint256",
          "name": "amount",
          "type": "uint256"
        },
        {
          "internalType": "address",
          "name": "token",
          "type": "address"
        },
        {
          "internalType": "uint256",
          "name": "timestamp",
          "type": "uint256"
        },
        {
          "internalType": "bool",
          "name": "released",
          "type": "bool"
        },
        {
          "internalType": "address",
          "name": "operator",
          "type": "address"
        },
        {
          "internalType": "string",
          "name": "reason",
          "type": "string"
        }
      ],
      "stateMutability": "view",
      "type": "function"
    },
    {
      "inputs": [
        {
          "internalType": "bytes32",
          "name": "quarantineId",
          "type": "bytes32"
        }
      ],
      "name": "releaseQuarantine",
      "outputs": [],
      "stateMutability": "nonpayable",
      "type": "function"
    },
    {
      "inputs": [
        {
          "internalType": "bytes32",
          "name": "role",
          "type": "bytes32"
        },
        {
          "internalType": "address",
          "name": "callerConfirmation",
          "type": "address"
        }
      ],
      "name": "renounceRole",
      "outputs": [],
      "stateMutability": "nonpayable",
      "type": "function"
    },
    {
      "inputs": [
        {
          "internalType": "bytes32",
          "name": "role",
          "type": "bytes32"
        },
        {
          "internalType": "address",
          "name": "account",
          "type": "address"
        }
      ],
      "name": "revokeRole",
      "outputs": [],
      "stateMutability": "nonpayable",
      "type": "function"
    },
    {
      "inputs": [
        {
          "internalType": "bytes32",
          "name": "role",
          "type": "bytes32"
        },
        {
          "internalType": "address",
          "name": "account",
          "type": "address"
        },
        {
          "internalType": "string",
          "name": "reason",
          "type": "string"
        }
      ],
      "name": "revokeRoleWithReason",
      "outputs": [],
      "stateMutability": "nonpayable",
      "type": "function"
    },
    {
      "inputs": [],
      "name": "riskRegistry",
      "outputs": [
        {
          "internalType": "contract RiskRegistry",
          "name": "",
          "type": "address"
        }
      ],
      "stateMutability": "view",
      "type": "function"
    },
    {
      "inputs": [
        {
          "internalType": "address",
          "name": "token",
          "type": "address"
        },
        {
          "components": [
            {
              "internalType": "uint256",
              "name": "maxTxAmount",
              "type": "uint256"
            },
            {
              "internalType": "uint256",
              "name": "dailyLimit",
              "type": "uint256"
            },
            {
              "internalType": "bool",
              "name": "allowMediumRisk",
              "type": "bool"
            },
            {
              "internalType": "bool",
              "name": "allowHighRisk",
              "type": "bool"
            },
            {
              "internalType": "bool",
              "name": "blockMixer",
              "type": "bool"
            },
            {
              "internalType": "bool",
              "name": "requireDestinationKYC",
              "type": "bool"
            },
            {
              "internalType": "uint256",
              "name": "cooldownPeriod",
              "type": "uint256"
            },
            {
              "internalType": "address[]",
              "name": "blockedTokens",
              "type": "address[]"
            }
          ],
          "internalType": "struct ComplianceEngine.IssuerPolicy",
          "name": "policy",
          "type": "tuple"
        }
      ],
      "name": "setIssuerPolicy",
      "outputs": [],
      "stateMutability": "nonpayable",
      "type": "function"
    },
    {
      "inputs": [
        {
          "internalType": "address",
          "name": "_engine",
          "type": "address"
        }
      ],
      "name": "setPolicyEngine",
      "outputs": [],
      "stateMutability": "nonpayable",
      "type": "function"
    },
    {
      "inputs": [
        {
          "internalType": "address",
          "name": "_registry",
          "type": "address"
        }
      ],
      "name": "setRiskRegistry",
      "outputs": [],
      "stateMutability": "nonpayable",
      "type": "function"
    },
    {
      "inputs": [
        {
          "internalType": "uint256",
          "name": "delay",
          "type": "uint256"
        }
      ],
      "name": "setUpgradeTimelockDelay",
      "outputs": [],
      "stateMutability": "nonpayable",
      "type": "function"
    },
    {
      "inputs": [
        {
          "internalType": "bytes4",
          "name": "interfaceId",
          "type": "bytes4"
        }
      ],
      "name": "supportsInterface",
      "outputs": [
        {
          "internalType": "bool",
          "name": "",
          "type": "bool"
        }
      ],
      "stateMutability": "view",
      "type": "function"
    },
    {
      "inputs": [],
      "name": "totalChecks",
      "outputs": [
        {
          "internalType": "uint256",
          "name": "",
          "type": "uint256"
        }
      ],
      "stateMutability": "view",
      "type": "function"
    },
    {
      "inputs": [],
      "name": "unpause",
      "outputs": [],
      "stateMutability": "nonpayable",
      "type": "function"
    },
    {
      "inputs": [
        {
          "internalType": "bytes32",
          "name": "ruleId",
          "type": "bytes32"
        }
      ],
      "name": "unpauseRule",
      "outputs": [],
      "stateMutability": "nonpayable",
      "type": "function"
    },
    {
      "inputs": [
        {
          "internalType": "bytes32",
          "name": "",
          "type": "bytes32"
        }
      ],
      "name": "upgradeProposals",
      "outputs": [
        {
          "internalType": "uint256",
          "name": "",
          "type": "uint256"
        }
      ],
      "stateMutability": "view",
      "type": "function"
    },
    {
      "inputs": [],
      "name": "upgradeTimelockDelay",
      "outputs": [
        {
          "internalType": "uint256",
          "name": "",
          "type": "uint256"
        }
      ],
      "stateMutability": "view",
      "type": "function"
    },
    {
      "inputs": [
        {
          "internalType": "address",
          "name": "newImplementation",
          "type": "address"
        },
        {
          "internalType": "bytes",
          "name": "data",
          "type": "bytes"
        }
      ],
      "name": "upgradeToAndCall",
      "outputs": [],
      "stateMutability": "payable",
      "type": "function"
    }
  ],
  "bytecode": "0x60a06040523461003257610011610036565b604051614a836101e6823960805181818161446701526146b40152614a8390f35b5f80fd5b61003e610048565b610046610109565b565b610046610085565b61006490610067906001600160a01b031682565b90565b6001600160a01b031690565b61006490610050565b61006490610073565b61008e3061007c565b608052565b6100649060401c60ff1690565b6100649054610093565b610064905b6001600160401b031690565b61006490546100aa565b610064906100af906001600160401b031682565b906100e9610064610105926100c5565b82546001600160401b0319166001600160401b03919091161790565b9055565b5f61011261019f565b0161011c816100a0565b61018e57610129816100bb565b6001600160401b0391908290811603610140575050565b8161016f7fc7f505b2f371ae2175ee4913f4499e1f2633a7b5936321eed1cdaeb6115181d293610189936100d9565b604051918291826001600160401b03909116815260200190565b0390a1565b63f92ee8a960e01b5f908152600490fd5b6100646101dd565b6100646100646100649290565b6100647ff0c57e16840df040f15088dc2f81fe391c3923bec73e23a9662efc9c229c6a006101a7565b6100646101b456fe60806040526004361015610011575f80fd5b5f3560e01c806301ffc9a71461037057806307f2d0ee1461036b578063094b5db8146103665780630d2d8a3114610361578063162e22641461035c5780631c3f5b9e146103575780631f6c8236146103525780632115be1b1461034d5780632219e3a214610348578063248a9ca3146103435780632f2ff15d1461033e57806333f782151461033957806335137c011461033457806336568abe1461032f5780633f4ba83a1461032a578063485cc955146103255780634f1ef2861461032057806352d1902d1461031b5780635613135e146103165780635c975abb146103115780635e7df1e51461030c578063609ec9b0146103075780636135b085146103025780636259e448146102fd5780637126dfa6146102f85780637495ae08146102f357806375b238fc146102ee57806381f20a1d146102e95780638241c288146102e45780638456cb59146102df5780638b285e3c146102da5780639061a57f146102d557806391d14854146102d0578063927399a5146102cb578063a00470c2146102c6578063a217fddf146102c1578063aa6466cb146102bc578063ad3cb1cc146102b7578063b2207838146102b2578063b5d56dfb146102ad578063b670b273146102a8578063bacd5623146102a3578063c10662511461029e578063c915fc9314610299578063cc493f8014610294578063d547741f1461028f578063d869848d1461028a578063dcc1d8a614610285578063dfa3db8914610280578063f5b541a61461027b578063f7a17eed14610276578063f8fc35e214610271578063f9edc8d41461026c5763ffa1ad7403610375576116c3565b611666565b611615565b611548565b611415565b6113fa565b6113d7565b6113bb565b61135d565b611345565b61132a565b61130f565b6112e0565b6112ae565b6111fb565b6111dc565b611156565b6110e8565b6110cd565b6110a4565b611089565b611062565b611046565b610fd9565b610fb2565b610f97565b610f6d565b610f3c565b610f20565b610f05565b610ede565b610e52565b610e2b565b610d8e565b610d3d565b610d06565b610bff565b610beb565b610b18565b610ae4565b610acb565b610ab0565b610a86565b610a62565b610a24565b610a09565b6109a3565b6106b2565b6105c2565b61056b565b61052a565b610498565b610453565b6103b6565b5f80fd5b6001600160e01b031981165b0361037557565b9050359061039982610379565b565b90602082820312610375576103af9161038c565b90565b9052565b34610375576103e36103d16103cc36600461039b565b6116de565b60405191829182901515815260200190565b0390f35b6001600160a01b031690565b6001600160a01b038116610385565b90503590610399826103f3565b90816101009103126103755790565b919091604081840312610375576104358382610402565b9260208201356001600160401b038111610375576103af920161040f565b346103755761046c61046636600461041e565b90611c03565b604051005b80610385565b9050359061039982610471565b90602082820312610375576103af91610477565b346103755761046c6104ab366004610484565b611c72565b90602082820312610375576103af91610402565b6103af906103e7906001600160a01b031682565b6103af906104c4565b6103af906104d8565b906104f4906104e1565b5f5260205260405f2090565b6103af916008021c81565b906103af9154610500565b5f6105256103af92603d6104ea565b61050b565b34610375576103e36105456105403660046104b0565b610516565b6040515b9182918290815260200190565b5f91031261037557565b6103af5f603461050b565b346103755761057b366004610556565b6103e3610545610560565b6103af916008021c6103e7565b906103af9154610586565b6103af5f6032610593565b6103b2906104e1565b60208101929161039991906105a9565b34610375576105d2366004610556565b6103e36105dd61059e565b604051918291826105b2565b6103af9081565b6103af90546105e9565b6103af905b60ff1690565b6103af90546105fa565b6103af9060081c6105ff565b6103af905461060f565b6103af9060101c6105ff565b6103af9054610625565b6103af9060181c6105ff565b6103af905461063b565b61065c90603b6104ea565b610665816105f0565b91610672600183016105f0565b9161067f60028201610605565b9161068c6002830161061b565b9161069960028201610631565b916103af60036106ab60028501610647565b93016105f0565b34610375576103e36106cd6106c83660046104b0565b610651565b936106dd97959793919360405190565b9788978890815260e0810197969590949093909290916020860152151560408501521515606084015215156080830152151560a082015260c00152565b634e487b7160e01b5f52603260045260245ffd5b805482101561074e576107466007915f5260205f2090565b910201905f90565b61071a565b6103af906103e7565b6103af9054610753565b634e487b7160e01b5f52602260045260245ffd5b906001600283049216801561079a575b602083101461079557565b610766565b91607f169161078a565b80545f9392916107c06107b68361077a565b8085529360200190565b916001811690811561080f57506001146107d957505050565b6107ea91929394505f5260205f2090565b915f925b8184106107fb5750500190565b8054848401526020909301926001016107ee565b92949550505060ff1916825215156020020190565b906103af916107a4565b634e487b7160e01b5f52604160045260245ffd5b90601f01601f191681019081106001600160401b0382111761086357604052565b61082e565b906103996108829261087960405190565b93848092610824565b0383610842565b603890610894825490565b811015610375576108a49161072e565b506108ae8161075c565b916108bb600183016105f0565b916108c860028201610605565b916108d5600383016105f0565b916108e2600482016105f0565b916103af60066108f4600585016105f0565b9301610868565b90825f9392825e0152565b61092761093060209361093a9361091b815190565b80835293849260200190565b958691016108fb565b601f01601f191690565b0190565b93946109886103af98966109816109969661097861098f969b9761097160e08c019d5f8d01906001600160a01b03169052565b60208b0152565b15156040890152565b6060870152565b6080850152565b60a0830152565b60c0818403910152610906565b34610375576103e36109be6109b9366004610484565b610889565b936109ce97959793919360405190565b9788978861093e565b906104f4565b6103af916008021c6105ff565b906103af91546109dd565b5f610a046103af92603a6109d7565b6109ea565b34610375576103e36103d1610a1f366004610484565b6109f5565b34610375576103e3610545610a3a366004610484565b611c7b565b9190604083820312610375576103af906020610a5b8286610477565b9401610402565b346103755761046c610a75366004610a3f565b90611cc6565b6103af5f603761050b565b3461037557610a96366004610556565b6103e3610545610a7b565b5f6105256103af9260396104ea565b34610375576103e3610545610ac63660046104b0565b610aa1565b346103755761046c610ade366004610a3f565b90611cd0565b3461037557610af4366004610556565b61046c611d64565b9190604083820312610375576103af906020610a5b8286610402565b346103755761046c610b2b366004610afc565b906121bb565b90610399610b3e60405190565b9283610842565b6001600160401b03811161086357602090601f01601f19160190565b90825f939282370152565b90929192610b81610b7c82610b45565b610b31565b938185528183011161037557610399916020850190610b61565b9080601f83011215610375578160206103af93359101610b6c565b91909160408184031261037557610bcd8382610402565b9260208201356001600160401b038111610375576103af9201610b9b565b61046c610bf9366004610bb6565b906121e5565b3461037557610c0f366004610556565b6103e3610545612232565b6103af9060081c6103e7565b6103af9054610c1a565b610c3b90603e6109d7565b90610c458261075c565b91610c526001820161075c565b91610c5f600283016105f0565b91610c6c6003820161075c565b91610c79600483016105f0565b91610c8660058201610605565b916103af60066108f460058501610c26565b95939196949290966101008701975f8801610cba916001600160a01b03169052565b6001600160a01b0316602087015260408601526001600160a01b031660608501526080840152151560a08301526001600160a01b031660c08201528082039060e001526103af91610906565b34610375576103e3610d21610d1c366004610484565b610c30565b94610d3498969894919493929360405190565b98899889610c98565b3461037557610d4d366004610556565b6103e36103d161223b565b805482101561074e576107466001915f5260205f2090565b603f5481101561037557610d886103af91603f610d58565b9061050b565b34610375576103e3610545610da4366004610484565b610d70565b80516001600160a01b031682526103af9160e081019160c090610dd160208201516020850152565b604081810151151590840152610dec60608201516060850152565b610dfb60808201516080850152565b610e0a60a082015160a0850152565b01519060c0818403910152610906565b60208082526103af92910190610da9565b34610375576103e3610e46610e41366004610484565b61239b565b60405191829182610e1a565b346103755761046c610e653660046104b0565b6124a2565b909182601f83011215610375578135916001600160401b03831161037557602001926001830284011161037557565b9160608383031261037557610eae8284610477565b92610ebc8360208301610402565b9260408201356001600160401b03811161037557610eda9201610e6a565b9091565b346103755761046c610ef1366004610e99565b92919091612568565b6103af5f603661050b565b3461037557610f15366004610556565b6103e3610545610efa565b3461037557610f30366004610556565b6103e361054560385490565b3461037557610f4c366004610556565b6103e35f80516020614a57833981519152610545565b6103af5f604061050b565b3461037557610f7d366004610556565b6103e3610545610f62565b5f6105256103af9260426104ea565b34610375576103e3610545610fad3660046104b0565b610f88565b3461037557610fc2366004610556565b61046c6125c8565b5f6105256103af9260416109d7565b34610375576103e3610545610fef366004610484565b610fca565b9190604083820312610375576103af9060206110108286610402565b9401610477565b6103af6103af6103af9290565b906104f490611017565b6105256103af926110415f93603c6104ea565b611024565b34610375576103e361054561105c366004610ff4565b9061102e565b34610375576103e36103d1611078366004610a3f565b906125d0565b6103af5f6033610593565b3461037557611099366004610556565b6103e36105dd61107e565b346103755761046c6110b7366004610484565b612766565b6103af5f611017565b6103af6110bc565b34610375576110dd366004610556565b6103e36105456110c5565b346103755761046c6110fb366004610484565b6127c6565b9061110d610b7c83610b45565b918252565b61111c6005611100565b640352e302e360dc1b602082015290565b6103af611112565b6103af61112d565b6103af611135565b60208082526103af92910190610906565b3461037557611166366004610556565b6103e361117161113d565b60405191829182611145565b91909160a081840312610375576111948382610402565b926111a28160208401610402565b926111b08260408501610477565b926111be8360608301610402565b9260808201356001600160401b038111610375576103af9201610b9b565b34610375576103e36105456111f236600461117d565b93929092612c70565b346103755761120b366004610556565b6103e3610545603f5490565b6080818303126103755761122b8282610402565b926103af61123c8460208501610402565b936060610a5b8260408701610477565b634e487b7160e01b5f52602160045260245ffd5b6004111561126a57565b61124c565b9061039982611260565b6103af9061126f565b6103b290611279565b916103af926112a160408201935f830190611282565b6020818403910152610906565b34610375576112ca6112c1366004611217565b92919091612d15565b906103e36112d760405190565b9283928361128b565b346103755761046c6112f3366004610e99565b92919091612d76565b6103af612710611017565b6103af6112fc565b346103755761131f366004610556565b6103e3610545611307565b34610375576103e36105456113403660046104b0565b612edc565b346103755761046c611358366004610484565b612fd7565b346103755761046c611370366004610a3f565b90612ffb565b919060a0838203126103755761138c8184610402565b9261139a8260208301610402565b926103af6113ab8460408501610477565b9360806110108260608701610402565b34610375576112ca6113ce366004611376565b93929092613885565b346103755761046c6113ea3660046104b0565b613921565b6103af5f603561050b565b346103755761140a366004610556565b6103e36105456113ef565b3461037557611425366004610556565b6103e35f80516020614a17833981519152610545565b909182601f83011215610375578135916001600160401b03831161037557602001926020830284011161037557565b906020828203126103755781356001600160401b03811161037557610eda920161143b565b906114af6114a861149e845190565b8084529260200190565b9260200190565b905f5b8181106114bf5750505090565b9091926114de6114d760019286511515815260200190565b9460200190565b9291016114b2565b906114f56114a861149e845190565b905f5b8181106115055750505090565b90919261151b6114d76001928651815260200190565b9291016114f8565b60408082526103af93919261153a9184019061148f565b9160208184039101526114e6565b346103755761156161155b36600461146a565b90613a55565b906103e361156e60405190565b92839283611523565b80516001600160a01b031682526103af9161010081019160e0906020818101516001600160a01b0316908401526115b360408201516040850152565b6060818101516001600160a01b0316908401526115d560808201516080850152565b60a08181015115159084015260c0808201516001600160a01b03169084015201519060e0818403910152610906565b60208082526103af92910190611577565b34610375576103e361163061162b366004610484565b613b43565b60405191829182611604565b90151581526103af926060820192909190611659905b6020830152565b6040818403910152610906565b34610375576103e361168161167c3660046104b0565b614203565b6040519193919384938461163c565b61169a6005611100565b64312e322e3160d81b602082015290565b6103af611690565b6103af6116ab565b6103af6116b3565b34610375576116d3366004610556565b6103e36111716116bb565b637965db0b60e01b6001600160e01b03198216149081156116fd575090565b6103af91506001600160e01b0319166301ffc9a760e01b1490565b61039991906117385f80516020614a57833981519152614210565b614210565b906103999161174561421b565b611a87565b6103e76103af6103af9290565b6103af9061174a565b903590601e19368290030182121561037557018035906001600160401b0382116103755760200191602082023603831361037557565b6103b290611017565b9081526040810192916103999160200190611796565b356103af81610471565b634e487b7160e01b5f525f60045260245ffd5b905f19905b9181191691161790565b906117f16103af6117f892611017565b82546117d2565b9055565b801515610385565b356103af816117fc565b9060ff906117d7565b906118276103af6117f892151590565b825461180e565b9061ff009060081b6117d7565b9061184b6103af6117f892151590565b825461182e565b9062ff00009060101b6117d7565b906118706103af6117f892151590565b8254611852565b9063ff0000009060181b6117d7565b906118966103af6117f892151590565b8254611877565b634e487b7160e01b5f52601160045260245ffd5b915f1960089290920291821b911b6117d7565b91906118d56103af6117f893611017565b9083546118b1565b610399915f916118c4565b8181106118f3575050565b806119005f6001936118dd565b016118e8565b91909182821061191557505050565b610399929161192890915f5260205f2090565b91820191016118e8565b90600160401b8111610863578161194a610399935490565b90828155611906565b356103af816103f3565b906001600160401b0383116108635761198961197f6001926103af8686611932565b925f5260205f2090565b9204915f5b83811061199b5750505050565b60019060206119ac6103af86611953565b940193818401550161198e565b90610399929161195d565b600490611a74610399936119e26119dc5f83016117b5565b846117e1565b6119fa6119f1602083016117b5565b600185016117e1565b611a5260028401611a16611a1060408501611804565b82611817565b611a2b611a2560608501611804565b8261183b565b611a40611a3a60808501611804565b82611860565b611a4c60a08401611804565b90611886565b611a6a611a6160c083016117b5565b600385016117e1565b60e0810190611760565b929091016119b9565b90610399916119c4565b90611a946103e75f611757565b6001600160a01b03831614611bf25760e08101611ab9611ab48284611760565b905090565b611aca611ac66032611017565b9190565b11611bc85750611ad9816117b5565b6020820190611aed611ac66103af846117b5565b119081611bab575b50611b6657611b0660c082016117b5565b611b15611ac662278d00611017565b11611b2d57611b2861039992603b6104ea565b611a7d565b60405162461bcd60e51b8152602060048201526011602482015270636f6f6c646f776e20746f6f206c6f6e6760781b6044820152606490fd5b60405162461bcd60e51b815260206004820152601860248201527f6d61785478416d6f756e74203e206461696c794c696d697400000000000000006044820152606490fd5b611bb591506117b5565b611bc1611ac65f611017565b115f611af5565b6032611bdb611ab4611bee935f95611760565b63f80a484560e01b84526004840161179f565b035ffd5b63e6c4247b60e01b5f908152600490fd5b9061039991611718565b61039990611c275f80516020614a57833981519152614210565b611c40906103af6001611c3b83603a6109d7565b611817565b7f9a33e54c050bcbdd0438539b4e86c36f991cbeb6d26d28b790373bfda8768d3f611c6a60405190565b80805b0390a2565b61039990611c0d565b6001611ca26103af92611c8b5f90565b505f5f80516020614a378339815191525b016109d7565b016105f0565b9061039991611cb961173382611c7b565b90611cc39161423a565b50565b9061039991611ca8565b90611cda336103e7565b6001600160a01b03821603611cf257611cc3916142c2565b63334bd91960e11b5f908152600490fd5b611d195f80516020614a57833981519152614210565b610399611d246143a5565b611d2d336104e1565b7f107553d8191d85b405879cf752997865edd48d94e20bda4dd27223c94b31a7cc611d5760405190565b4281528060208101611c6d565b610399611d03565b6103af9060401c6105ff565b6103af9054611d6c565b6103af905b6001600160401b031690565b6103af9054611d82565b611d876103af6103af9290565b906001600160401b03906117d7565b611d876103af6103af926001600160401b031690565b90611ddf6103af6117f892611db9565b8254611daa565b9068ff00000000000000009060401b6117d7565b90611e0a6103af6117f892151590565b8254611de6565b6103b290611d9d565b6020810192916103999190611e11565b611e326143ad565b908190611e4e611e48611e4484611d78565b1590565b92611d93565b93611e585f611d9d565b6001600160401b0386161480611f54575b600195611e85611e7888611d9d565b916001600160401b031690565b149081611f30575b155b9081611f27575b50611f1657611ebf9183611eb65f611ead89611d9d565b97019687611dcf565b611f07576120a1565b611ec7575050565b7fc7f505b2f371ae2175ee4913f4499e1f2633a7b5936321eed1cdaeb6115181d291611ef65f611f0293611dfa565b60405191829182611e1a565b0390a1565b611f118686611dfa565b6120a1565b63f92ee8a960e01b5f908152600490fd5b1590505f611e96565b9050611e8f611f3e306104e1565b3b611f4b611ac65f611017565b14919050611e8d565b5082611e69565b15611f6257565b60405162461bcd60e51b8152602060048201526015602482015274496e76616c6964207269736b20726567697374727960581b6044820152606490fd5b15611fa657565b60405162461bcd60e51b8152602060048201526015602482015274496e76616c696420706f6c69637920656e67696e6560581b6044820152606490fd5b15611fea57565b60405162461bcd60e51b815260206004820152601c60248201527f5269736b207265676973747279206e6f74206120636f6e7472616374000000006044820152606490fd5b1561203657565b60405162461bcd60e51b815260206004820152601c60248201527f506f6c69637920656e67696e65206e6f74206120636f6e7472616374000000006044820152606490fd5b906001600160a01b03906117d7565b9061209a6103af6117f8926104e1565b825461207b565b61214e9161213b612140612147936120b76143bd565b6120bf6143bd565b6120c76143bd565b6120cf6143e8565b61210d6120fc6120de5f611757565b6103e76001600160a01b0382166001600160a01b0386161415611f5b565b6001600160a01b0386161415611f9f565b612124813b61211e611ac65f611017565b11611fe3565b61213b843b612135611ac65f611017565b1161202f565b6104e1565b603261208a565b603361208a565b6121606121596110bc565b339061423a565b506121a55f80516020614a5783398151915261217c338261423a565b505f80516020614a17833981519152612195338261423a565b506121a082806143f0565b6143f0565b6103996121b46202a300611017565b60406117e1565b9061039991611e2a565b90610399916121d261445c565b90610399916121e0816145c3565b6145e0565b90610399916121c5565b6103af906121fb61469e565b612229565b6103af7f360894a13ba1a3210667c828492db98dca3e2076cc3735a920a3ca505d382bbc611017565b506103af612200565b6103af5f6121ef565b6103af7fcd5ed15c6e187e77e9aee88184c21f4f2182ab5827cb3b7e07fbedcd63f03300610605565b6103af60e0610b31565b612276612264565b905f8252602080808080808088015f5b8152015f8152015f8152015f8152015f8152016060905250565b6103af61226e565b156122af57565b60405162461bcd60e51b8152602060048201526013602482015272496e646578206f7574206f6620626f756e647360681b6044820152606490fd5b9061039961238b60066122fb612264565b946123156123088261075c565b6001600160a01b03168752565b61232b612324600183016105f0565b6020880152565b61234361233a60028301610605565b15156040880152565b612359612352600383016105f0565b6060880152565b61236f612368600483016105f0565b6080880152565b61238561237e600583016105f0565b60a0880152565b01610868565b60c0840152565b6103af906122ea565b6123c86103af916123aa6122a0565b506123c16123ba6103af60385490565b82106122a8565b603861072e565b50612392565b610399906123e85f80516020614a57833981519152614210565b610399906123f461421b565b612436565b1561240057565b60405162461bcd60e51b815260206004820152600e60248201526d139bdd08184818dbdb9d1c9858dd60921b6044820152606490fd5b6124426103e75f611757565b6001600160a01b03821614611bf2578061246c612478923b612466611ac65f611017565b116123f9565b61213b612147826104e1565b7fea702d7b03617061891442c30c46389ed07aa85858a0711ae3eceabb8618e427611c6a60405190565b610399906123ce565b610399939291906124c85f80516020614a57833981519152614210565b612503565b9190610930816124e48161093a9560209181520190565b8095610b61565b9081526040602082018190526103af939101916124cd565b61254261253c7f26c5264b502d6057e1a4377e90dd7bdad79766d1694ee3204ed9ad4ce061aacd92959495612538858261423a565b5090565b926104e1565b9261254c336104e1565b9461256361255960405190565b92839242846124eb565b0390a4565b906103999392916124ab565b61258a5f80516020614a57833981519152614210565b610399612595614741565b61259e336104e1565b7f80170b5fcdd2bf1e0660ef4b8851f86685f64d41b1a19de1471947ece8725aac611d5760405190565b610399612574565b6103af915f6125f86125fe936125e35f90565b50825f80516020614a37833981519152611c9c565b016104ea565b610605565b6103999061261d5f80516020614a17833981519152614210565b6103999061262961421b565b61263a90612635614753565b6126c4565b6103996143d7565b1561264957565b60405162461bcd60e51b815260206004820152601060248201526f105b1c9958591e481c995b19585cd95960821b6044820152606490fd5b1561268857565b60405162461bcd60e51b8152602060048201526014602482015273145d585c985b9d1a5b99481b9bdd08199bdd5b9960621b6044820152606490fd5b612724906103af60016126db6103af84603e6109d7565b611c3b6127015f60058401936126fb6126f6611e4487610605565b612642565b0161075c565b61271d6127106103e75f611757565b916001600160a01b031690565b1415612681565b61272d336104e1565b907f0ccf282989316fbe81439cda9a50c213585ebe4cd07d4e70559d50c9ac3efc4361275860405190565b42815280602081015b0390a3565b61039990612603565b610399906127895f80516020614a57833981519152614210565b61279c906103af5f611c3b83603a6109d7565b7f6aaa2e669f6ebdd5dffedb999d95bac66825b050a76be3a4bb8fe4978b726b42611c6a60405190565b6103999061276f565b6103af9594939291906127ee5f80516020614a17833981519152614210565b906103af95949392916127ff61421b565b906128159594939291612810614753565b612af1565b906103996143d7565b5f19811461282c5760010190565b61189d565b6103b2906001600160a01b031660601b90565b01918252565b018092612831565b6103af610100610b31565b90610100600160a81b039060081b6117d7565b906128806103af6117f8926104e1565b825461285d565b9190601f811161289657505050565b6128a6610399935f5260205f2090565b906020601f8401819004830193106128c8575b6020601f9091010401906118e8565b90915081906128b9565b906128db815190565b906001600160401b038211610863576128fe826128f8855461077a565b85612887565b602090601f8311600114612937576117f892915f918361292c575b50505f19600883021c1916906002021790565b015190505f80612919565b601f1983169161294a855f5260205f2090565b925f5b8181106129865750916002939185600196941061296e575b50505002019055565b01515f196008601f8516021c191690555f8080612965565b9193602060018192878701518155019501920161294d565b90610399916128d2565b6006612a6d60e0610399946129cf6129c95f8301516001600160a01b031690565b8661208a565b6129ef6129e660208301516001600160a01b031690565b6001870161208a565b612a066129fd604083015190565b600287016117e1565b612a26612a1d60608301516001600160a01b031690565b6003870161208a565b612a3d612a34608083015190565b600487016117e1565b612a6860058601612a54611a1060a0850151151590565b60c08301516001600160a01b031690612870565b015190565b910161299e565b90610399916129a8565b91906118d56103af6117f89390565b90815491600160401b8310156108635782612ab091600161039995018155610d58565b90612a7e565b612aed61039994612ae6606094989795612adf608086019a5f8701906001600160a01b03169052565b6020850152565b6040830152565b0152565b509394937f7fe15c93255636e95b82771c2907436d8d0a556b7d511f40b68955518ced024690612c56612c50612c4a612b2a60376105f0565b612b3d612b368261281e565b60376117e1565b612b9a612b4960405190565b8092612b8e60208301918d8d8d8c33944342896014809998959661284482809961284a602061284a9a61284a61093a9f9a839c612844858d61284461284a9f83969052565b90810382520382610842565b612bac612ba5825190565b9160200190565b2093612c23859b612c13612bbe612852565b6001600160a01b0385168152916001600160a01b038b166020840152612be58c6040850152565b6001600160a01b038d166060840152612bff426080850152565b5f60a08401523360c08401525b60e0830152565b612c1e87603e6109d7565b612a74565b612c2e85603f612a8d565b61213b612c43612c3e60366105f0565b61281e565b60366117e1565b946104e1565b94611017565b94612563612c6360405190565b9283924391429185612ab6565b6103af94939291905f6127cf565b90610eda9594939291612c8f61421b565b612ca1565b9190820180921161282c57565b50919390929091506001600160a01b03831633141580612cf3575b612cde57610eda93612cd8612cd2610e10611017565b42612c94565b93613885565b63d86ad9cf60e01b5f90815233600452602490fd5b50612d10611e445f80516020614a178339815191525b33906125d0565b612cbc565b610eda9392919060605f612c7e565b61039993929190612d415f80516020614a57833981519152614210565b61254261253c7ffcf6f7b79149c04f9387b4ab24ba2b7ca0edce3642a75e43ec9a5a41fb924b539295949561253885826142c2565b90610399939291612d24565b6103af9190612d9d5f80516020614a57833981519152614210565b612e10565b15612da957565b60405162461bcd60e51b815260206004820152600c60248201526b5a65726f206164647265737360a01b6044820152606490fd5b6001600160a01b039091168152606081019392610399929091604091612aed90611652565b906117f16103af6117f89290565b5090612e32612e216103e75f611757565b6001600160a01b0384161415612da2565b604051612e498160208101612b8e42468884612ddd565b612e54612ba5825190565b208092612e77612e67612cd260406105f0565b612e728460416109d7565b6117e1565b612e8b82612e868360426104ea565b612e02565b7fc9d996515c997a89866778418177b5f2c59751d2980a7cc494118c3b9b2845d7612761612ed2612ecc612ec8612ec38760416109d7565b6105f0565b9590565b936104e1565b9361054960405190565b6103af905f612d82565b61039990612f005f80516020614a57833981519152614210565b612f54565b15612f0c57565b60405162461bcd60e51b815260206004820152600d60248201526c496e76616c69642064656c617960981b6044820152606490fd5b9081526040810192916103999160200152565b7f40e4827d6f1bbe3b0017c31b03084e5fb421084f3c4f22c304f7c1b7e149a33690612f81610e10611017565b81101580612fbd575b612f9390612f05565b612f9d60406105f0565b612fa88260406117e1565b611f02612fb460405190565b92839283612f41565b50612f93612fcd62278d00611017565b8211159050612f8a565b61039990612ee6565b9061039991612ff161173382611c7b565b90611cc3916142c2565b9061039991612fe0565b90610eda96959493929161301761421b565b9061302e969594939291613029614753565b61330c565b90916103996143d7565b612aed61306e6060936103999698979561306160808601925f8701906001600160a01b03169052565b8482036020860152610906565b966040830152565b9061308561197f61149e845490565b905f5b8181106130955750505090565b9091926130c26130bb6001926130aa8761075c565b6001600160a01b0316815260200190565b9460010190565b929101613088565b906103af91613076565b90610399610882926130e560405190565b938480926130ca565b9061039961319260046130ff612852565b9461311061310c826105f0565b8752565b61311f612324600183016105f0565b61312e61233a60028301610605565b61314661313d6002830161061b565b15156060880152565b61315e61315560028301610631565b15156080880152565b61317661316d60028301610647565b151560a0880152565b61318c613185600383016105f0565b60c0880152565b016130d4565b60e0840152565b6103af906130ee565b906131ab825190565b81101561074e576020809102010190565b6131c6602d611100565b7f44657374696e6174696f6e20746f6b656e20697320626c6f636b65642062792060208201526c69737375657220706f6c69637960981b604082015290565b6103af6131bc565b613217601e611100565b7f45786365656473206d6178207472616e73616374696f6e20616d6f756e740000602082015290565b6103af61320d565b634e487b7160e01b5f52601260045260245ffd5b8115613266570490565b613248565b6132756014611100565b7311185a5b1e481b1a5b5a5d08195e18d95959195960621b602082015290565b6103af61326b565b9190820391821161282c57565b6132b46016611100565b75436f6f6c646f776e20706572696f642061637469766560501b602082015290565b6103af6132aa565b6132e86010611100565b6f151c985b9cd9995c88185b1b1bddd95960821b602082015290565b6103af6132de565b509095949293919290506001600160a01b03861633141580613866575b612cde5742811061384c575061333e5f611757565b6001600160a01b0381166001600160a01b038716148015613831575b611bf25761337e61271061337161213b603361075c565b926001600160a01b031690565b146138205761339761338f86614203565b929115919050565b6137f857506133a861338f83614203565b6137f857506133c06133bb82603b6104ea565b613199565b9160e083016133ce81515190565b6133da611ac65f611017565b11613735575b50826133ea815190565b6133f6611ac65f611017565b11908161372a575b50613704576020830192613410845190565b61341c611ac65f611017565b1161366d575b60c0018051613433611ac65f611017565b116134c5575b505050926134679161344d61346e94955190565b613459611ac65f611017565b1161347a575b50603d6104ea565b42906117e1565b613476613304565b5f91565b6134bf906134b96134aa61348f85603c6104ea565b6134a461349e62015180611017565b4261325c565b90611024565b916134b4836105f0565b612c94565b906117e1565b5f61345f565b603d906134d5612ec389846104ea565b6134e1611ac65f611017565b14159081613640575b5015613439577f7fe15c93255636e95b82771c2907436d8d0a556b7d511f40b68955518ced024691929493506136136134678861352760376105f0565b613533612b368261281e565b61358461353f60405190565b8092612b8e60208301918d8d8d8933944342896014809998959661284482809961284a602061284a9a61284a61093a9f9a839c612844858d61284461284a9f83969052565b61358f612ba5825190565b20936135f361359c612852565b6001600160a01b03841681526001600160a01b03891660208201526135c28a6040830152565b6001600160a01b038b1660608201526135dc426080830152565b5f60a08201523360c0820152612c13612c0c6132d6565b6135fe85603f612a8d565b61360e612c43612c3e60366105f0565b6104ea565b61362a612c50612c4a6136246132d6565b996104e1565b94613637612c6360405190565b0390a460039190565b9050613666611ac66103af61366161365b612ec38d886104ea565b4261329d565b935190565b105f6134ea565b613691856134b4612ec361368661349e62015180611017565b6110418c603c6104ea565b61369f611ac66103af875190565b11156134225750909291505f805160206149f78339815191526136e46136cc612c50612c4a613624613295565b946136d660405190565b91829143908a429185613038565b0390a46136fe6136f7612c3e60356105f0565b60356117e1565b60019190565b909291505f805160206149f78339815191526136e46136cc612c50612c4a613624613240565b51905084115f6133fe565b6137435f9695929496611017565b61374f6103af83515190565b8110156137ed576137716137648284516131a2565b516001600160a01b031690565b6137836001600160a01b038716612710565b1461379057600101613743565b505090919293506001925f805160206149f78339815191526137da6137c2612c50612c4a6137bc613205565b9a6104e1565b946137cc60405190565b91829143908b429185613038565b0390a4611ac66136f7612c3e60356105f0565b50509293915f6133e0565b946136e46136cc612c50612c4a5f805160206149f783398151915294600198979698506104e1565b6332d53d6960e01b5f908152600490fd5b506001600160a01b0381166001600160a01b0384161461335a565b6302a07ebf60e31b5f90815290611bee9042906004612f41565b50613880611e445f80516020614a17833981519152612d09565b613329565b610eda949392919060605f613005565b610399906138af5f80516020614a57833981519152614210565b610399906138bb61421b565b6138c76103e75f611757565b6001600160a01b03821614611bf257806138eb6138f7923b612466611ac65f611017565b61213b612140826104e1565b7ff7eb890150b6f76e5a12cb549e339ceb8264d107697019802737aae325cb5d3e611c6a60405190565b61039990613895565b90610eda93929161393961421b565b61399a565b6001600160401b0381116108635760208091020190565b9061110d610b7c8361393e565b369037565b9061039961397d61397784613955565b9361393e565b601f190160208401613962565b919081101561074e576020020190565b50506139a38290565b916139ae6064611017565b8311613a3c576139bd83613967565b91826139c885613967565b9586906139d45f611017565b875b811015613a3157613a2a81613a2481613a21818e613a1c8e613a158f8f613a076139d69d613a0c9361167c9361398a565b611953565b509790926131a2565b9015159052565b6131a2565b52565b60010190565b90506139d4565b509450945094505050565b63f80a484560e01b5f908152611bee606485600461179f565b610eda919060608061392a565b613a6a612852565b905f825260208080808080808089015f8152015f612286565b6103af613a62565b906103996131926006613a9c612852565b94613aa96123088261075c565b613ac8613ab86001830161075c565b6001600160a01b03166020880152565b613ade613ad7600283016105f0565b6040880152565b613afd613aed6003830161075c565b6001600160a01b03166060880152565b613b0c612368600483016105f0565b613b1b61316d60058301610605565b612385613b2a60058301610c26565b6001600160a01b031660c0880152565b6103af90613a8b565b613b5a6103af91613b52613a83565b50603e6109d7565b613b3a565b90613b73939291613b6e61421b565b613ef1565b909192565b604080825260169082015275636865636b41646472657373436f6d706c69616e636560501b6060820152919061039990602060808501940152565b9050519061039982610471565b90505190610399826103f3565b63ffffffff8116610385565b9050519061039982613bcd565b60ff8116610385565b9050519061039982613be6565b90505190610399826117fc565b90929192613c19610b7c8261393e565b938185526020808601920283019281841161037557915b838310613c3d5750505050565b60208091613c4b8486613bb3565b815201920191613c30565b9080601f830112156103755781516103af92602001613c09565b9190916101008184031261037557613c888382613bb3565b92613c968160208401613bc0565b92613ca48260408501613bd9565b92613cb28360608301613bef565b92613cc08160808401613bef565b92613cce8260a08501613bfc565b92613cdc8360c08301613bfc565b9260e08201516001600160401b038111610375576103af9201613c56565b6040513d5f823e3d90fd5b613d0f6008611100565b674c6f77207269736b60c01b602082015290565b6103af613d05565b613d35600f611100565b6e48696768207269736b2073636f726560881b602082015290565b6103af613d2b565b613d626013611100565b72437269746963616c207269736b2073636f726560681b602082015290565b6103af613d58565b613d936012611100565b7153616e6374696f6e6564206164647265737360701b602082015290565b6103af613d89565b613dc3601d611100565b7f4e6f207269736b2070726f66696c65202d206661696c20636c6f736564000000602082015290565b6103af613db9565b6006612a6d60c061039994613e156129c95f8301516001600160a01b031690565b613e2c613e23602083015190565b600187016117e1565b613e45613e3c6040830151151590565b60028701611817565b613e5c613e53606083015190565b600387016117e1565b613e6a612a34608083015190565b612a68613e7860a083015190565b60058701612e02565b9190613e905761039991613df4565b6117bf565b90815491600160401b8310156108635782613eb89160016103999501815561072e565b90613e81565b8115613266570690565b90815260608101929161039991604091613ee190611652565b01666164647265737360c81b9052565b505050613efd5f611757565b6001600160a01b0381166001600160a01b038316146141ba57613f2961271061337161213b603261075c565b146141a957613f3b61213b603261075c565b915f613f4660405190565b62f53a4760e41b81526001600160a01b038416600482015293849060249082905afa9283156141a4575f935f915f91614174575b50155b1561411857505f614065613f8f613dec565b935b613fa8613fa1612c3e60346105f0565b60346117e1565b613fc2613fb68260396104ea565b6134b9612c3e826105f0565b60388054613fce6112fc565b9081116140b05790613eb861400261213b93613ffd613fed60346105f0565b613ff76001611017565b9061329d565b613ebe565b61400a612264565b6001600160a01b0386168152926140228b6020860152565b8715156040850152614035426060860152565b614040436080860152565b614055666164647265737360c81b60a0860152565b6140608a60c0860152565b61072e565b61406e85611017565b821515917f90c2153fe2204bb74d22f78ab985d3d722549835a6240f6ada46bf07ce1199bc61409c60405190565b806140a8434283613ec8565b0390a4929190565b5061213b906140bd612264565b6001600160a01b0384168152906140d5896020840152565b85151560408301526140e8426060840152565b6140f3436080840152565b614108666164647265737360c81b60a0840152565b6141138860c0840152565b613e95565b1561412f575f614065614129613db1565b93613f91565b614139605f611017565b831061414b575f614065614129613d81565b6141556050611017565b8310614167575f614065614129613d50565b6001614065614129613d23565b9050613f7d945061419791503d805f833e61418f8183610842565b810190613c70565b5094509497505050613f7a565b613cfa565b630e048e7160e41b5f908152600490fd5b7fb1f7e734443091f517009c88e8427e84b43169fff07951ebad8908160d02104c6141e460405190565b806141ef4282613b78565b0390a163e6c4247b60e01b5f908152600490fd5b613b739060605f80613b5f565b6103999033906147a3565b61422361223b565b61422957565b63d93c066560e01b5f908152600490fd5b5f80516020614a37833981519152614255611e4484846125d0565b156142bb576001611c3b845f6125f8868261427097016109d7565b614288614282612ecc339390565b9390565b916104e1565b917f2f8788117e7eff1d82e926ec794901d17c78024a50270940304540a733656f0d6142b360405190565b5f90a4600190565b5050505f90565b5f80516020614a378339815191526142da83836125d0565b156142bb575f611c3b84826125f886826142f497016109d7565b614302614282612ecc339390565b917ff6391f5c32d9c69d2a47ea670b442974b53935d1edc7fd64eb21e047a839171b6142b360405190565b6143356147d1565b6103996143655f807fcd5ed15c6e187e77e9aee88184c21f4f2182ab5827cb3b7e07fbedcd63f033005b01611817565b7f5db9ee0a495bf2e6ff9c91a7834c1ba4fdd244a5e8aa4e537bd38aeae4b073aa611f02335b604051918291826001600160a01b03909116815260200190565b61039961432d565b6103af61481c565b610399614824565b6103996143b5565b61263a614824565b6103af6001611017565b6103996143e26143cd565b5f6117e1565b6103996143c5565b9061442a611ac661427e5f80516020614a37833981519152946103af856001614424845f61441d82611c7b565b9b016109d7565b01612e02565b917fbd79b86ffe0ab8e8776151514217cd7cacd52c909f66475c3af44e129f0b00ff61445560405190565b8080612563565b614465306104e1565b7f0000000000000000000000000000000000000000000000000000000000000000906144996001600160a01b038316612710565b149081156144ba575b506144a957565b63703e46dd60e11b5f908152600490fd5b90506144ca612710613371614846565b14155f6144a2565b610399906144ec5f80516020614a57833981519152614210565b6144fc565b610399915f91612a7e565b61450a612ec38260426104ea565b6145166103af5f611017565b81146145ac5761452a612ec38260416109d7565b80421061459357506142828161454d5f6145486145619560416109d7565b6118dd565b6103af5f61455c8660426104ea565b6144f1565b907f1b011fae1a8fa8755c05a1200229cf94f1218002d660dae8eca1e796db11e21261458c60405190565b8080612761565b6372f88e7360e11b5f90815291611bee91906004612f41565b633012144f60e21b5f908152600491909152602490fd5b610399906144d2565b90602082820312610375576103af91613bb3565b916145ed61213b846104e1565b9160206145f960405190565b6352d1902d60e01b815293849060049082905afa5f938161466d575b5061463857634c9c8ce360e01b5f9081526001600160a01b038516600452602490fd5b9091926146466103af612200565b840361465757610399929350614855565b632a87526960e21b5f9081526004859052602490fd5b61469091945060203d602011614697575b6146888183610842565b8101906145cc565b925f614615565b503d61467e565b6146a7306104e1565b6146d96001600160a01b037f000000000000000000000000000000000000000000000000000000000000000016612710565b036144a957565b6146e861421b565b61039961471760015f7fcd5ed15c6e187e77e9aee88184c21f4f2182ab5827cb3b7e07fbedcd63f0330061435f565b7f62e78cea01bee320cd4e420270b5ea74000d11b0c9f74754ebdbfc544b05a258611f023361438b565b6103996146e0565b6103af6002611017565b61475c5f6105f0565b614764614749565b90811461477557610399905f6117e1565b633ee5aeb560e01b5f908152600490fd5b6001600160a01b0390911681526040810192916103999160200152565b906147b1611e4482846125d0565b6147b9575050565b63e2517d3f60e01b5f90815291611bee916004614786565b6147dc611e4461223b565b6147e257565b638dfc202b60e01b5f908152600490fd5b6103af7ff0c57e16840df040f15088dc2f81fe391c3923bec73e23a9662efc9c229c6a00611017565b6103af6147f3565b61482f611e446148bc565b61483557565b631afcd79f60e31b5f908152600490fd5b6103af5f6126fb6103af612200565b9061485f826148ce565b614868826104e1565b7fbc7cd75a20ee27fd9adebab32041f755214dbc6bffa90cc0225b39da2e5c2d3b61489260405190565b5f90a280516148a3611ac65f611017565b11156148b257611cc391614939565b5050610399614917565b6103af5f6148c86143ad565b01611d78565b803b6148dc611ac65f611017565b146148f757610399905f6148f16103af612200565b0161208a565b634c9c8ce360e01b5f9081526001600160a01b039091166004526024035ffd5b6149205f611017565b341161492857565b63b398979f60e01b5f908152600490fd5b9061494490826149cd565b80806149a4575b1561495a5750506103af6149dd565b1561497f57639996b31560e01b5f9081526001600160a01b039091166004526024035ffd5b3d61498c611ac65f611017565b115f03613cfa5763d6bda27560e01b5f908152600490fd5b503d6149b2611ac65f611017565b118061494b5750813b6149c7611ac65f611017565b1161494b565b5f918291602082519201905af490565b604051903d82523d5f602084013e3d602001820160405256fe821d9e7c211ba387e5bdeb1323a2db550db64fbf248854206034ac1638aa3cfc97667070c54ef182b0f5858b034beac1b6f3089aa2d3188bb1e8929f4fa9b92902dd7bc7dec4dceedda775e58dd541e08a116c6c53815c0bd028192f7b626800a49807205ce4d355092ef5a8a18f56e8913cf4a201fbe287825b095693c21775a164736f6c634300081a000a",
  "linkReferences": {},
  "deployedLinkReferences": {}
}