{
  "_format": "hh-sol-artifact-1",
  "contractName": "FidesCompliance",
  "sourceName": "contracts/FidesCompliance.sol",
  "abi": [
    {
      "inputs": [
        {
          "internalType": "address",
          "name": "_complianceEngine",
          "type": "address"
        },
        {
          "internalType": "address",
          "name": "_riskRegistry",
          "type": "address"
        },
        {
          "internalType": "address",
          "name": "_policyEngine",
          "type": "address"
        },
        {
          "internalType": "address",
          "name": "_quarantineVault",
          "type": "address"
        }
      ],
      "stateMutability": "nonpayable",
      "type": "constructor"
    },
    {
      "inputs": [],
      "name": "AccessControlBadConfirmation",
      "type": "error"
    },
    {
      "inputs": [
        {
          "internalType": "address",
          "name": "account",
          "type": "address"
        },
        {
          "internalType": "bytes32",
          "name": "neededRole",
          "type": "bytes32"
        }
      ],
      "name": "AccessControlUnauthorizedAccount",
      "type": "error"
    },
    {
      "inputs": [],
      "name": "AlreadyInEmergency",
      "type": "error"
    },
    {
      "inputs": [],
      "name": "AlreadyInEmergencyMode",
      "type": "error"
    },
    {
      "inputs": [
        {
          "internalType": "uint256",
          "name": "size",
          "type": "uint256"
        },
        {
          "internalType": "uint256",
          "name": "maxSize",
          "type": "uint256"
        }
      ],
      "name": "BatchTooLarge",
      "type": "error"
    },
    {
      "inputs": [
        {
          "internalType": "uint256",
          "name": "deadline",
          "type": "uint256"
        },
        {
          "internalType": "uint256",
          "name": "currentTime",
          "type": "uint256"
        }
      ],
      "name": "DeadlineExpired",
      "type": "error"
    },
    {
      "inputs": [],
      "name": "EmergencyCooldownActive",
      "type": "error"
    },
    {
      "inputs": [],
      "name": "EmergencyModeActive",
      "type": "error"
    },
    {
      "inputs": [],
      "name": "EnforcedPause",
      "type": "error"
    },
    {
      "inputs": [],
      "name": "EngineNotSet",
      "type": "error"
    },
    {
      "inputs": [],
      "name": "ExpectedPause",
      "type": "error"
    },
    {
      "inputs": [],
      "name": "InvalidAddress",
      "type": "error"
    },
    {
      "inputs": [
        {
          "internalType": "uint256",
          "name": "cooldown",
          "type": "uint256"
        }
      ],
      "name": "InvalidCooldown",
      "type": "error"
    },
    {
      "inputs": [],
      "name": "NothingPending",
      "type": "error"
    },
    {
      "inputs": [],
      "name": "ReentrancyGuardReentrantCall",
      "type": "error"
    },
    {
      "inputs": [],
      "name": "RiskRegistryNotSet",
      "type": "error"
    },
    {
      "inputs": [
        {
          "internalType": "uint256",
          "name": "availableAt",
          "type": "uint256"
        }
      ],
      "name": "TooEarly",
      "type": "error"
    },
    {
      "inputs": [
        {
          "internalType": "string",
          "name": "reason",
          "type": "string"
        }
      ],
      "name": "TransactionBlockedError",
      "type": "error"
    },
    {
      "inputs": [
        {
          "internalType": "bytes32",
          "name": "quarantineId",
          "type": "bytes32"
        }
      ],
      "name": "TransactionQuarantinedError",
      "type": "error"
    },
    {
      "anonymous": false,
      "inputs": [
        {
          "indexed": true,
          "internalType": "address",
          "name": "proposed",
          "type": "address"
        },
        {
          "indexed": true,
          "internalType": "address",
          "name": "proposer",
          "type": "address"
        },
        {
          "indexed": false,
          "internalType": "uint256",
          "name": "timestamp",
          "type": "uint256"
        }
      ],
      "name": "ComplianceEngineProposed",
      "type": "event"
    },
    {
      "anonymous": false,
      "inputs": [
        {
          "indexed": true,
          "internalType": "address",
          "name": "oldEngine",
          "type": "address"
        },
        {
          "indexed": true,
          "internalType": "address",
          "name": "newEngine",
          "type": "address"
        },
        {
          "indexed": true,
          "internalType": "address",
          "name": "admin",
          "type": "address"
        },
        {
          "indexed": false,
          "internalType": "uint256",
          "name": "timestamp",
          "type": "uint256"
        }
      ],
      "name": "ComplianceEngineUpdated",
      "type": "event"
    },
    {
      "anonymous": false,
      "inputs": [
        {
          "indexed": true,
          "internalType": "address",
          "name": "account",
          "type": "address"
        },
        {
          "indexed": false,
          "internalType": "uint256",
          "name": "timestamp",
          "type": "uint256"
        }
      ],
      "name": "ContractPaused",
      "type": "event"
    },
    {
      "anonymous": false,
      "inputs": [
        {
          "indexed": true,
          "internalType": "address",
          "name": "account",
          "type": "address"
        },
        {
          "indexed": false,
          "internalType": "uint256",
          "name": "timestamp",
          "type": "uint256"
        }
      ],
      "name": "ContractUnpaused",
      "type": "event"
    },
    {
      "anonymous": false,
      "inputs": [
        {
          "indexed": false,
          "internalType": "uint256",
          "name": "remaining",
          "type": "uint256"
        }
      ],
      "name": "EmergencyCooldownRemaining",
      "type": "event"
    },
    {
      "anonymous": false,
      "inputs": [
        {
          "indexed": false,
          "internalType": "uint256",
          "name": "oldValue",
          "type": "uint256"
        },
        {
          "indexed": false,
          "internalType": "uint256",
          "name": "newValue",
          "type": "uint256"
        },
        {
          "indexed": true,
          "internalType": "address",
          "name": "admin",
          "type": "address"
        },
        {
          "indexed": false,
          "internalType": "uint256",
          "name": "timestamp",
          "type": "uint256"
        }
      ],
      "name": "EmergencyCooldownUpdated",
      "type": "event"
    },
    {
      "anonymous": false,
      "inputs": [
        {
          "indexed": false,
          "internalType": "uint256",
          "name": "timestamp",
          "type": "uint256"
        },
        {
          "indexed": false,
          "internalType": "uint256",
          "name": "blockNumber",
          "type": "uint256"
        }
      ],
      "name": "EmergencyModeActivated",
      "type": "event"
    },
    {
      "anonymous": false,
      "inputs": [
        {
          "indexed": false,
          "internalType": "uint256",
          "name": "timestamp",
          "type": "uint256"
        },
        {
          "indexed": false,
          "internalType": "uint256",
          "name": "blockNumber",
          "type": "uint256"
        }
      ],
      "name": "EmergencyModeDeactivated",
      "type": "event"
    },
    {
      "anonymous": false,
      "inputs": [
        {
          "indexed": false,
          "internalType": "address",
          "name": "account",
          "type": "address"
        }
      ],
      "name": "Paused",
      "type": "event"
    },
    {
      "anonymous": false,
      "inputs": [
        {
          "indexed": true,
          "internalType": "address",
          "name": "proposed",
          "type": "address"
        },
        {
          "indexed": true,
          "internalType": "address",
          "name": "proposer",
          "type": "address"
        },
        {
          "indexed": false,
          "internalType": "uint256",
          "name": "timestamp",
          "type": "uint256"
        }
      ],
      "name": "PolicyEngineProposed",
      "type": "event"
    },
    {
      "anonymous": false,
      "inputs": [
        {
          "indexed": true,
          "internalType": "address",
          "name": "oldEngine",
          "type": "address"
        },
        {
          "indexed": true,
          "internalType": "address",
          "name": "newEngine",
          "type": "address"
        },
        {
          "indexed": true,
          "internalType": "address",
          "name": "admin",
          "type": "address"
        },
        {
          "indexed": false,
          "internalType": "uint256",
          "name": "timestamp",
          "type": "uint256"
        }
      ],
      "name": "PolicyEngineUpdated",
      "type": "event"
    },
    {
      "anonymous": false,
      "inputs": [
        {
          "indexed": true,
          "internalType": "address",
          "name": "proposed",
          "type": "address"
        },
        {
          "indexed": true,
          "internalType": "address",
          "name": "proposer",
          "type": "address"
        },
        {
          "indexed": false,
          "internalType": "uint256",
          "name": "timestamp",
          "type": "uint256"
        }
      ],
      "name": "QuarantineVaultProposed",
      "type": "event"
    },
    {
      "anonymous": false,
      "inputs": [
        {
          "indexed": true,
          "internalType": "address",
          "name": "oldVault",
          "type": "address"
        },
        {
          "indexed": true,
          "internalType": "address",
          "name": "newVault",
          "type": "address"
        },
        {
          "indexed": true,
          "internalType": "address",
          "name": "admin",
          "type": "address"
        },
        {
          "indexed": false,
          "internalType": "uint256",
          "name": "timestamp",
          "type": "uint256"
        }
      ],
      "name": "QuarantineVaultUpdated",
      "type": "event"
    },
    {
      "anonymous": false,
      "inputs": [
        {
          "indexed": true,
          "internalType": "address",
          "name": "proposed",
          "type": "address"
        },
        {
          "indexed": true,
          "internalType": "address",
          "name": "proposer",
          "type": "address"
        },
        {
          "indexed": false,
          "internalType": "uint256",
          "name": "timestamp",
          "type": "uint256"
        }
      ],
      "name": "RiskRegistryProposed",
      "type": "event"
    },
    {
      "anonymous": false,
      "inputs": [
        {
          "indexed": true,
          "internalType": "address",
          "name": "oldRegistry",
          "type": "address"
        },
        {
          "indexed": true,
          "internalType": "address",
          "name": "newRegistry",
          "type": "address"
        },
        {
          "indexed": true,
          "internalType": "address",
          "name": "admin",
          "type": "address"
        },
        {
          "indexed": false,
          "internalType": "uint256",
          "name": "timestamp",
          "type": "uint256"
        }
      ],
      "name": "RiskRegistryUpdated",
      "type": "event"
    },
    {
      "anonymous": false,
      "inputs": [
        {
          "indexed": true,
          "internalType": "string",
          "name": "paramName",
          "type": "string"
        },
        {
          "indexed": false,
          "internalType": "uint256",
          "name": "oldValue",
          "type": "uint256"
        },
        {
          "indexed": false,
          "internalType": "uint256",
          "name": "newValue",
          "type": "uint256"
        },
        {
          "indexed": true,
          "internalType": "address",
          "name": "admin",
          "type": "address"
        },
        {
          "indexed": false,
          "internalType": "uint256",
          "name": "timestamp",
          "type": "uint256"
        }
      ],
      "name": "RiskThresholdUpdated",
      "type": "event"
    },
    {
      "anonymous": false,
      "inputs": [
        {
          "indexed": true,
          "internalType": "bytes32",
          "name": "role",
          "type": "bytes32"
        },
        {
          "indexed": true,
          "internalType": "bytes32",
          "name": "previousAdminRole",
          "type": "bytes32"
        },
        {
          "indexed": true,
          "internalType": "bytes32",
          "name": "newAdminRole",
          "type": "bytes32"
        }
      ],
      "name": "RoleAdminChanged",
      "type": "event"
    },
    {
      "anonymous": false,
      "inputs": [
        {
          "indexed": true,
          "internalType": "bytes32",
          "name": "role",
          "type": "bytes32"
        },
        {
          "indexed": true,
          "internalType": "address",
          "name": "account",
          "type": "address"
        },
        {
          "indexed": true,
          "internalType": "address",
          "name": "sender",
          "type": "address"
        }
      ],
      "name": "RoleGranted",
      "type": "event"
    },
    {
      "anonymous": false,
      "inputs": [
        {
          "indexed": true,
          "internalType": "bytes32",
          "name": "role",
          "type": "bytes32"
        },
        {
          "indexed": true,
          "internalType": "address",
          "name": "account",
          "type": "address"
        },
        {
          "indexed": true,
          "internalType": "address",
          "name": "sender",
          "type": "address"
        },
        {
          "indexed": false,
          "internalType": "uint256",
          "name": "timestamp",
          "type": "uint256"
        },
        {
          "indexed": false,
          "internalType": "string",
          "name": "reason",
          "type": "string"
        }
      ],
      "name": "RoleGrantedDetailed",
      "type": "event"
    },
    {
      "anonymous": false,
      "inputs": [
        {
          "indexed": true,
          "internalType": "bytes32",
          "name": "role",
          "type": "bytes32"
        },
        {
          "indexed": true,
          "internalType": "address",
          "name": "account",
          "type": "address"
        },
        {
          "indexed": true,
          "internalType": "address",
          "name": "sender",
          "type": "address"
        }
      ],
      "name": "RoleRevoked",
      "type": "event"
    },
    {
      "anonymous": false,
      "inputs": [
        {
          "indexed": true,
          "internalType": "bytes32",
          "name": "role",
          "type": "bytes32"
        },
        {
          "indexed": true,
          "internalType": "address",
          "name": "account",
          "type": "address"
        },
        {
          "indexed": true,
          "internalType": "address",
          "name": "sender",
          "type": "address"
        },
        {
          "indexed": false,
          "internalType": "uint256",
          "name": "timestamp",
          "type": "uint256"
        },
        {
          "indexed": false,
          "internalType": "string",
          "name": "reason",
          "type": "string"
        }
      ],
      "name": "RoleRevokedDetailed",
      "type": "event"
    },
    {
      "anonymous": false,
      "inputs": [
        {
          "indexed": true,
          "internalType": "address",
          "name": "from",
          "type": "address"
        },
        {
          "indexed": true,
          "internalType": "address",
          "name": "to",
          "type": "address"
        },
        {
          "indexed": true,
          "internalType": "uint256",
          "name": "amount",
          "type": "uint256"
        },
        {
          "indexed": false,
          "internalType": "address",
          "name": "token",
          "type": "address"
        },
        {
          "indexed": false,
          "internalType": "string",
          "name": "reason",
          "type": "string"
        },
        {
          "indexed": false,
          "internalType": "uint256",
          "name": "timestamp",
          "type": "uint256"
        },
        {
          "indexed": false,
          "internalType": "uint256",
          "name": "blockNumber",
          "type": "uint256"
        }
      ],
      "name": "TransactionBlocked",
      "type": "event"
    },
    {
      "anonymous": false,
      "inputs": [
        {
          "indexed": true,
          "internalType": "address",
          "name": "from",
          "type": "address"
        },
        {
          "indexed": true,
          "internalType": "address",
          "name": "to",
          "type": "address"
        },
        {
          "indexed": true,
          "internalType": "uint256",
          "name": "amount",
          "type": "uint256"
        },
        {
          "indexed": false,
          "internalType": "address",
          "name": "token",
          "type": "address"
        },
        {
          "indexed": false,
          "internalType": "bool",
          "name": "allowed",
          "type": "bool"
        },
        {
          "indexed": false,
          "internalType": "uint256",
          "name": "riskScore",
          "type": "uint256"
        },
        {
          "indexed": false,
          "internalType": "uint256",
          "name": "timestamp",
          "type": "uint256"
        },
        {
          "indexed": false,
          "internalType": "uint256",
          "name": "blockNumber",
          "type": "uint256"
        }
      ],
      "name": "TransactionChecked",
      "type": "event"
    },
    {
      "anonymous": false,
      "inputs": [
        {
          "indexed": true,
          "internalType": "address",
          "name": "from",
          "type": "address"
        },
        {
          "indexed": true,
          "internalType": "address",
          "name": "to",
          "type": "address"
        },
        {
          "indexed": true,
          "internalType": "uint256",
          "name": "amount",
          "type": "uint256"
        },
        {
          "indexed": false,
          "internalType": "address",
          "name": "token",
          "type": "address"
        },
        {
          "indexed": false,
          "internalType": "bytes32",
          "name": "quarantineId",
          "type": "bytes32"
        },
        {
          "indexed": false,
          "internalType": "uint256",
          "name": "timestamp",
          "type": "uint256"
        },
        {
          "indexed": false,
          "internalType": "uint256",
          "name": "blockNumber",
          "type": "uint256"
        }
      ],
      "name": "TransactionQuarantined",
      "type": "event"
    },
    {
      "anonymous": false,
      "inputs": [
        {
          "indexed": false,
          "internalType": "address",
          "name": "account",
          "type": "address"
        }
      ],
      "name": "Unpaused",
      "type": "event"
    },
    {
      "anonymous": false,
      "inputs": [
        {
          "indexed": true,
          "internalType": "address",
          "name": "account",
          "type": "address"
        },
        {
          "indexed": false,
          "internalType": "bool",
          "name": "status",
          "type": "bool"
        },
        {
          "indexed": true,
          "internalType": "address",
          "name": "admin",
          "type": "address"
        },
        {
          "indexed": false,
          "internalType": "uint256",
          "name": "timestamp",
          "type": "uint256"
        }
      ],
      "name": "WhitelistUpdated",
      "type": "event"
    },
    {
      "anonymous": false,
      "inputs": [
        {
          "indexed": false,
          "internalType": "string",
          "name": "functionName",
          "type": "string"
        },
        {
          "indexed": false,
          "internalType": "uint256",
          "name": "timestamp",
          "type": "uint256"
        }
      ],
      "name": "ZeroAddressRejected",
      "type": "event"
    },
    {
      "inputs": [],
      "name": "ADMIN_ROLE",
      "outputs": [
        {
          "internalType": "bytes32",
          "name": "",
          "type": "bytes32"
        }
      ],
      "stateMutability": "view",
      "type": "function"
    },
    {
      "inputs": [],
      "name": "DEFAULT_ADMIN_ROLE",
      "outputs": [
        {
          "internalType": "bytes32",
          "name": "",
          "type": "bytes32"
        }
      ],
      "stateMutability": "view",
      "type": "function"
    },
    {
      "inputs": [],
      "name": "MAX_BATCH_SIZE",
      "outputs": [
        {
          "internalType": "uint256",
          "name": "",
          "type": "uint256"
        }
      ],
      "stateMutability": "view",
      "type": "function"
    },
    {
      "inputs": [],
      "name": "MAX_DEADLINE_DURATION",
      "outputs": [
        {
          "internalType": "uint256",
          "name": "",
          "type": "uint256"
        }
      ],
      "stateMutability": "view",
      "type": "function"
    },
    {
      "inputs": [],
      "name": "MAX_EMERGENCY_COOLDOWN",
      "outputs": [
        {
          "internalType": "uint256",
          "name": "",
          "type": "uint256"
        }
      ],
      "stateMutability": "view",
      "type": "function"
    },
    {
      "inputs": [],
      "name": "MIN_EMERGENCY_DURATION",
      "outputs": [
        {
          "internalType": "uint256",
          "name": "",
          "type": "uint256"
        }
      ],
      "stateMutability": "view",
      "type": "function"
    },
    {
      "inputs": [],
      "name": "OPERATOR_ROLE",
      "outputs": [
        {
          "internalType": "bytes32",
          "name": "",
          "type": "bytes32"
        }
      ],
      "stateMutability": "view",
      "type": "function"
    },
    {
      "inputs": [],
      "name": "SETTER_DELAY",
      "outputs": [
        {
          "internalType": "uint256",
          "name": "",
          "type": "uint256"
        }
      ],
      "stateMutability": "view",
      "type": "function"
    },
    {
      "inputs": [],
      "name": "VERSION",
      "outputs": [
        {
          "internalType": "string",
          "name": "",
          "type": "string"
        }
      ],
      "stateMutability": "view",
      "type": "function"
    },
    {
      "inputs": [],
      "name": "activateEmergency",
      "outputs": [],
      "stateMutability": "nonpayable",
      "type": "function"
    },
    {
      "inputs": [
        {
          "internalType": "address",
          "name": "",
          "type": "address"
        }
      ],
      "name": "addressLastCheckTime",
      "outputs": [
        {
          "internalType": "uint256",
          "name": "",
          "type": "uint256"
        }
      ],
      "stateMutability": "view",
      "type": "function"
    },
    {
      "inputs": [
        {
          "internalType": "address",
          "name": "",
          "type": "address"
        }
      ],
      "name": "addressTransactionCount",
      "outputs": [
        {
          "internalType": "uint256",
          "name": "",
          "type": "uint256"
        }
      ],
      "stateMutability": "view",
      "type": "function"
    },
    {
      "inputs": [
        {
          "internalType": "address[]",
          "name": "addrs",
          "type": "address[]"
        }
      ],
      "name": "batchQuickCheck",
      "outputs": [
        {
          "internalType": "bool[]",
          "name": "results",
          "type": "bool[]"
        },
        {
          "internalType": "uint256[]",
          "name": "scores",
          "type": "uint256[]"
        }
      ],
      "stateMutability": "view",
      "type": "function"
    },
    {
      "inputs": [
        {
          "internalType": "address",
          "name": "from",
          "type": "address"
        },
        {
          "internalType": "address",
          "name": "to",
          "type": "address"
        },
        {
          "internalType": "uint256",
          "name": "amount",
          "type": "uint256"
        },
        {
          "internalType": "address",
          "name": "token",
          "type": "address"
        },
        {
          "internalType": "uint256",
          "name": "deadline",
          "type": "uint256"
        }
      ],
      "name": "checkAndExecuteTransaction",
      "outputs": [
        {
          "internalType": "bool",
          "name": "allowed",
          "type": "bool"
        }
      ],
      "stateMutability": "nonpayable",
      "type": "function"
    },
    {
      "inputs": [],
      "name": "complianceEngine",
      "outputs": [
        {
          "internalType": "contract ComplianceEngine",
          "name": "",
          "type": "address"
        }
      ],
      "stateMutability": "view",
      "type": "function"
    },
    {
      "inputs": [],
      "name": "deactivateEmergency",
      "outputs": [],
      "stateMutability": "nonpayable",
      "type": "function"
    },
    {
      "inputs": [],
      "name": "emergencyCooldown",
      "outputs": [
        {
          "internalType": "uint256",
          "name": "",
          "type": "uint256"
        }
      ],
      "stateMutability": "view",
      "type": "function"
    },
    {
      "inputs": [],
      "name": "emergencyMode",
      "outputs": [
        {
          "internalType": "bool",
          "name": "",
          "type": "bool"
        }
      ],
      "stateMutability": "view",
      "type": "function"
    },
    {
      "inputs": [
        {
          "internalType": "address",
          "name": "from",
          "type": "address"
        },
        {
          "internalType": "address",
          "name": "to",
          "type": "address"
        },
        {
          "internalType": "uint256",
          "name": "amount",
          "type": "uint256"
        },
        {
          "internalType": "address",
          "name": "token",
          "type": "address"
        },
        {
          "internalType": "uint256",
          "name": "deadline",
          "type": "uint256"
        }
      ],
      "name": "evaluateTransaction",
      "outputs": [
        {
          "internalType": "bool",
          "name": "allowed",
          "type": "bool"
        },
        {
          "internalType": "uint256",
          "name": "riskScore",
          "type": "uint256"
        }
      ],
      "stateMutability": "nonpayable",
      "type": "function"
    },
    {
      "inputs": [],
      "name": "executeComplianceEngineUpdate",
      "outputs": [],
      "stateMutability": "nonpayable",
      "type": "function"
    },
    {
      "inputs": [],
      "name": "executePolicyEngineUpdate",
      "outputs": [],
      "stateMutability": "nonpayable",
      "type": "function"
    },
    {
      "inputs": [],
      "name": "executeQuarantineVaultUpdate",
      "outputs": [],
      "stateMutability": "nonpayable",
      "type": "function"
    },
    {
      "inputs": [],
      "name": "executeRiskRegistryUpdate",
      "outputs": [],
      "stateMutability": "nonpayable",
      "type": "function"
    },
    {
      "inputs": [
        {
          "internalType": "address",
          "name": "account",
          "type": "address"
        }
      ],
      "name": "getAddressStats",
      "outputs": [
        {
          "internalType": "uint256",
          "name": "count",
          "type": "uint256"
        },
        {
          "internalType": "uint256",
          "name": "lastCheck",
          "type": "uint256"
        }
      ],
      "stateMutability": "view",
      "type": "function"
    },
    {
      "inputs": [
        {
          "internalType": "address",
          "name": "account",
          "type": "address"
        }
      ],
      "name": "getRiskProfile",
      "outputs": [
        {
          "internalType": "uint256",
          "name": "riskScore",
          "type": "uint256"
        },
        {
          "internalType": "bool",
          "name": "isSanctioned",
          "type": "bool"
        },
        {
          "internalType": "uint256",
          "name": "lastUpdated",
          "type": "uint256"
        }
      ],
      "stateMutability": "view",
      "type": "function"
    },
    {
      "inputs": [
        {
          "internalType": "bytes32",
          "name": "role",
          "type": "bytes32"
        }
      ],
      "name": "getRoleAdmin",
      "outputs": [
        {
          "internalType": "bytes32",
          "name": "",
          "type": "bytes32"
        }
      ],
      "stateMutability": "view",
      "type": "function"
    },
    {
      "inputs": [],
      "name": "getTransactionStats",
      "outputs": [
        {
          "internalType": "uint256",
          "name": "checked",
          "type": "uint256"
        },
        {
          "internalType": "uint256",
          "name": "blocked",
          "type": "uint256"
        },
        {
          "internalType": "uint256",
          "name": "quarantined",
          "type": "uint256"
        },
        {
          "internalType": "uint256",
          "name": "allowed",
          "type": "uint256"
        }
      ],
      "stateMutability": "view",
      "type": "function"
    },
    {
      "inputs": [
        {
          "internalType": "bytes32",
          "name": "role",
          "type": "bytes32"
        },
        {
          "internalType": "address",
          "name": "account",
          "type": "address"
        }
      ],
      "name": "grantRole",
      "outputs": [],
      "stateMutability": "nonpayable",
      "type": "function"
    },
    {
      "inputs": [
        {
          "internalType": "bytes32",
          "name": "role",
          "type": "bytes32"
        },
        {
          "internalType": "address",
          "name": "account",
          "type": "address"
        },
        {
          "internalType": "string",
          "name": "reason",
          "type": "string"
        }
      ],
      "name": "grantRoleWithReason",
      "outputs": [],
      "stateMutability": "nonpayable",
      "type": "function"
    },
    {
      "inputs": [
        {
          "internalType": "bytes32",
          "name": "role",
          "type": "bytes32"
        },
        {
          "internalType": "address",
          "name": "account",
          "type": "address"
        }
      ],
      "name": "hasRole",
      "outputs": [
        {
          "internalType": "bool",
          "name": "",
          "type": "bool"
        }
      ],
      "stateMutability": "view",
      "type": "function"
    },
    {
      "inputs": [
        {
          "internalType": "address",
          "name": "account",
          "type": "address"
        }
      ],
      "name": "isBlacklisted",
      "outputs": [
        {
          "internalType": "bool",
          "name": "",
          "type": "bool"
        }
      ],
      "stateMutability": "view",
      "type": "function"
    },
    {
      "inputs": [
        {
          "internalType": "address",
          "name": "account",
          "type": "address"
        }
      ],
      "name": "isWhitelisted",
      "outputs": [
        {
          "internalType": "bool",
          "name": "",
          "type": "bool"
        }
      ],
      "stateMutability": "view",
      "type": "function"
    },
    {
      "inputs": [],
      "name": "lastEmergencyTime",
      "outputs": [
        {
          "internalType": "uint256",
          "name": "",
          "type": "uint256"
        }
      ],
      "stateMutability": "view",
      "type": "function"
    },
    {
      "inputs": [],
      "name": "maxRiskScoreForBlock",
      "outputs": [
        {
          "internalType": "uint256",
          "name": "",
          "type": "uint256"
        }
      ],
      "stateMutability": "view",
      "type": "function"
    },
    {
      "inputs": [],
      "name": "minRiskScoreForQuarantine",
      "outputs": [
        {
          "internalType": "uint256",
          "name": "",
          "type": "uint256"
        }
      ],
      "stateMutability": "view",
      "type": "function"
    },
    {
      "inputs": [],
      "name": "minUpdateInterval",
      "outputs": [
        {
          "internalType": "uint256",
          "name": "",
          "type": "uint256"
        }
      ],
      "stateMutability": "view",
      "type": "function"
    },
    {
      "inputs": [],
      "name": "pause",
      "outputs": [],
      "stateMutability": "nonpayable",
      "type": "function"
    },
    {
      "inputs": [],
      "name": "paused",
      "outputs": [
        {
          "internalType": "bool",
          "name": "",
          "type": "bool"
        }
      ],
      "stateMutability": "view",
      "type": "function"
    },
    {
      "inputs": [],
      "name": "pendingComplianceEngine",
      "outputs": [
        {
          "internalType": "address",
          "name": "",
          "type": "address"
        }
      ],
      "stateMutability": "view",
      "type": "function"
    },
    {
      "inputs": [],
      "name": "pendingPolicyEngine",
      "outputs": [
        {
          "internalType": "address",
          "name": "",
          "type": "address"
        }
      ],
      "stateMutability": "view",
      "type": "function"
    },
    {
      "inputs": [],
      "name": "pendingQuarantineVault",
      "outputs": [
        {
          "internalType": "address",
          "name": "",
          "type": "address"
        }
      ],
      "stateMutability": "view",
      "type": "function"
    },
    {
      "inputs": [],
      "name": "pendingRiskRegistry",
      "outputs": [
        {
          "internalType": "address",
          "name": "",
          "type": "address"
        }
      ],
      "stateMutability": "view",
      "type": "function"
    },
    {
      "inputs": [
        {
          "internalType": "bytes32",
          "name": "",
          "type": "bytes32"
        }
      ],
      "name": "pendingSetTime",
      "outputs": [
        {
          "internalType": "uint256",
          "name": "",
          "type": "uint256"
        }
      ],
      "stateMutability": "view",
      "type": "function"
    },
    {
      "inputs": [],
      "name": "policyEngine",
      "outputs": [
        {
          "internalType": "contract PolicyEngine",
          "name": "",
          "type": "address"
        }
      ],
      "stateMutability": "view",
      "type": "function"
    },
    {
      "inputs": [
        {
          "internalType": "address",
          "name": "_engine",
          "type": "address"
        }
      ],
      "name": "proposeComplianceEngine",
      "outputs": [],
      "stateMutability": "nonpayable",
      "type": "function"
    },
    {
      "inputs": [
        {
          "internalType": "address",
          "name": "_engine",
          "type": "address"
        }
      ],
      "name": "proposePolicyEngine",
      "outputs": [],
      "stateMutability": "nonpayable",
      "type": "function"
    },
    {
      "inputs": [
        {
          "internalType": "address",
          "name": "_vault",
          "type": "address"
        }
      ],
      "name": "proposeQuarantineVault",
      "outputs": [],
      "stateMutability": "nonpayable",
      "type": "function"
    },
    {
      "inputs": [
        {
          "internalType": "address",
          "name": "_registry",
          "type": "address"
        }
      ],
      "name": "proposeRiskRegistry",
      "outputs": [],
      "stateMutability": "nonpayable",
      "type": "function"
    },
    {
      "inputs": [],
      "name": "quarantineVault",
      "outputs": [
        {
          "internalType": "contract QuarantineVault",
          "name": "",
          "type": "address"
        }
      ],
      "stateMutability": "view",
      "type": "function"
    },
    {
      "inputs": [
        {
          "internalType": "address",
          "name": "addr",
          "type": "address"
        }
      ],
      "name": "quickCheckAddress",
      "outputs": [
        {
          "internalType": "bool",
          "name": "isCompliant",
          "type": "bool"
        },
        {
          "internalType": "uint256",
          "name": "riskScore",
          "type": "uint256"
        }
      ],
      "stateMutability": "view",
      "type": "function"
    },
    {
      "inputs": [
        {
          "internalType": "bytes32",
          "name": "role",
          "type": "bytes32"
        },
        {
          "internalType": "address",
          "name": "callerConfirmation",
          "type": "address"
        }
      ],
      "name": "renounceRole",
      "outputs": [],
      "stateMutability": "nonpayable",
      "type": "function"
    },
    {
      "inputs": [
        {
          "internalType": "bytes32",
          "name": "role",
          "type": "bytes32"
        },
        {
          "internalType": "address",
          "name": "account",
          "type": "address"
        }
      ],
      "name": "revokeRole",
      "outputs": [],
      "stateMutability": "nonpayable",
      "type": "function"
    },
    {
      "inputs": [
        {
          "internalType": "bytes32",
          "name": "role",
          "type": "bytes32"
        },
        {
          "internalType": "address",
          "name": "account",
          "type": "address"
        },
        {
          "internalType": "string",
          "name": "reason",
          "type": "string"
        }
      ],
      "name": "revokeRoleWithReason",
      "outputs": [],
      "stateMutability": "nonpayable",
      "type": "function"
    },
    {
      "inputs": [],
      "name": "riskRegistry",
      "outputs": [
        {
          "internalType": "contract RiskRegistry",
          "name": "",
          "type": "address"
        }
      ],
      "stateMutability": "view",
      "type": "function"
    },
    {
      "inputs": [
        {
          "internalType": "uint256",
          "name": "_cooldown",
          "type": "uint256"
        }
      ],
      "name": "setEmergencyCooldown",
      "outputs": [],
      "stateMutability": "nonpayable",
      "type": "function"
    },
    {
      "inputs": [
        {
          "internalType": "uint256",
          "name": "_value",
          "type": "uint256"
        }
      ],
      "name": "setMaxRiskScoreForBlock",
      "outputs": [],
      "stateMutability": "nonpayable",
      "type": "function"
    },
    {
      "inputs": [
        {
          "internalType": "uint256",
          "name": "_value",
          "type": "uint256"
        }
      ],
      "name": "setMinRiskScoreForQuarantine",
      "outputs": [],
      "stateMutability": "nonpayable",
      "type": "function"
    },
    {
      "inputs": [
        {
          "internalType": "uint256",
          "name": "_value",
          "type": "uint256"
        }
      ],
      "name": "setMinUpdateInterval",
      "outputs": [],
      "stateMutability": "nonpayable",
      "type": "function"
    },
    {
      "inputs": [
        {
          "internalType": "address",
          "name": "account",
          "type": "address"
        },
        {
          "internalType": "bool",
          "name": "status",
          "type": "bool"
        }
      ],
      "name": "setWhitelist",
      "outputs": [],
      "stateMutability": "nonpayable",
      "type": "function"
    },
    {
      "inputs": [
        {
          "internalType": "bytes4",
          "name": "interfaceId",
          "type": "bytes4"
        }
      ],
      "name": "supportsInterface",
      "outputs": [
        {
          "internalType": "bool",
          "name": "",
          "type": "bool"
        }
      ],
      "stateMutability": "view",
      "type": "function"
    },
    {
      "inputs": [],
      "name": "totalTransactionsAllowed",
      "outputs": [
        {
          "internalType": "uint256",
          "name": "",
          "type": "uint256"
        }
      ],
      "stateMutability": "view",
      "type": "function"
    },
    {
      "inputs": [],
      "name": "totalTransactionsBlocked",
      "outputs": [
        {
          "internalType": "uint256",
          "name": "",
          "type": "uint256"
        }
      ],
      "stateMutability": "view",
      "type": "function"
    },
    {
      "inputs": [],
      "name": "totalTransactionsChecked",
      "outputs": [
        {
          "internalType": "uint256",
          "name": "",
          "type": "uint256"
        }
      ],
      "stateMutability": "view",
      "type": "function"
    },
    {
      "inputs": [],
      "name": "totalTransactionsQuarantined",
      "outputs": [
        {
          "internalType": "uint256",
          "name": "",
          "type": "uint256"
        }
      ],
      "stateMutability": "view",
      "type": "function"
    },
    {
      "inputs": [],
      "name": "unpause",
      "outputs": [],
      "stateMutability": "nonpayable",
      "type": "function"
    }
  ],
  "bytecode": "0x60806040523461002e5761001d6100146100eb565b92919091610443565b604051613774610885823961377490f35b5f80fd5b634e487b7160e01b5f52604160045260245ffd5b90601f01601f191681019081106001600160401b0382111761006757604052565b610032565b9061008061007960405190565b9283610046565b565b6001600160a01b031690565b90565b6001600160a01b0381160361002e57565b9050519061008082610091565b60808183031261002e576100c382826100a2565b9261008e6100d484602085016100a2565b9360606100e482604087016100a2565b94016100a2565b610109613ff9803803806100fe8161006c565b9283398101906100af565b90919293565b905f19905b9181191691161790565b61008e61008e61008e9290565b9061013b61008e6101429261011e565b825461010f565b9055565b61008261008e61008e9290565b61008e90610146565b1561016357565b60405162461bcd60e51b815260206004820152601960248201527f496e76616c696420636f6d706c69616e636520656e67696e65000000000000006044820152606490fd5b0390fd5b156101b357565b60405162461bcd60e51b815260206004820152601560248201527f496e76616c6964207269736b20726567697374727900000000000000000000006044820152606490fd5b156101ff57565b60405162461bcd60e51b815260206004820152601560248201527f496e76616c696420706f6c69637920656e67696e6500000000000000000000006044820152606490fd5b1561024b57565b60405162461bcd60e51b815260206004820152601860248201527f496e76616c69642071756172616e74696e65207661756c7400000000000000006044820152606490fd5b1561029757565b60405162461bcd60e51b8152806101a8600482016020808252818101527f436f6d706c69616e636520656e67696e65206e6f74206120636f6e7472616374604082015260600190565b156102e757565b60405162461bcd60e51b815260206004820152601c60248201527f5269736b207265676973747279206e6f74206120636f6e7472616374000000006044820152606490fd5b1561033357565b60405162461bcd60e51b815260206004820152601c60248201527f506f6c69637920656e67696e65206e6f74206120636f6e7472616374000000006044820152606490fd5b1561037f57565b60405162461bcd60e51b815260206004820152601f60248201527f51756172616e74696e65207661756c74206e6f74206120636f6e7472616374006044820152606490fd5b61008e90610082906001600160a01b031682565b61008e906103c4565b61008e906103d8565b90610100600160a81b039060081b610114565b9061040d61008e610142926103e1565b82546103ea565b906001600160a01b0390610114565b9061043361008e610142926103e1565b8254610414565b61008e5f61011e565b9261057561058861058f946105756105816105759661057561057a6105969b61046a610618565b6104766050600561012b565b610482605f600661012b565b61049b6201518061049481600761012b565b600f61012b565b6105156105046104aa5f610153565b6104c86001600160a01b0382166001600160a01b038616141561015c565b6104e66001600160a01b0382166001600160a01b03891614156101ac565b6100826001600160a01b0382166001600160a01b038c1614156101f8565b6001600160a01b038c161415610244565b610530813b61052a6105265f61011e565b9190565b11610290565b610547843b6105416105265f61011e565b116102e0565b61055e873b6105586105265f61011e565b1161032c565b6105758a3b61056f6105265f61011e565b11610378565b6103e1565b60016103fd565b6002610423565b6003610423565b6004610423565b6100807fa49807205ce4d355092ef5a8a18f56e8913cf4a201fbe287825b095693c217756105c48180610663565b6106107f97667070c54ef182b0f5858b034beac1b6f3089aa2d3188bb1e8929f4fa9b9296105f28382610663565b6106086105fd61043a565b9361060833866106eb565b5033906106eb565b503390610773565b61008061062a565b61008e600161011e565b610080610635610620565b5f61064161008e6107d2565b0161012b565b905b5f5260205260405f2090565b9061013b61008e6101429290565b9061069161052661068d610676856107eb565b9461008e856001610687845f610647565b01610655565b9390565b917fbd79b86ffe0ab8e8776151514217cd7cacd52c909f66475c3af44e129f0b00ff6106bc60405190565b5f90a4565b90610649906103e1565b9060ff90610114565b906106e461008e61014292151590565b82546106cb565b6106fc6106f88383610808565b1590565b1561076d57610720600161071b845f6107158682610647565b016106c1565b6106d4565b61073a61073461072e339390565b936103e1565b916103e1565b917f2f8788117e7eff1d82e926ec794901d17c78024a50270940304540a733656f0d61076560405190565b5f90a4600190565b50505f90565b9061077d33610082565b6001600160a01b038216036107985761079591610829565b50565b63334bd91960e11b5f908152600490fd5b61008e7f9b779b17422d0df92223018b32b4d1fa46e071723d6817e2486d003becc55f0061011e565b61008e6107a9565b61008e9081565b61008e90546107da565b600161080261008e926107fb5f90565b505f610647565b016107e1565b61008e915f6107156108229361081b5f90565b5082610647565b5460ff1690565b6108338282610808565b1561076d5761084b5f61071b84826107158682610647565b61085961073461072e339390565b917ff6391f5c32d9c69d2a47ea670b442974b53935d1edc7fd64eb21e047a839171b6107656040519056fe60806040526004361015610011575f80fd5b5f3560e01c80630164b6e714610420578063017729f71461041b57806301ffc9a7146104165780630905f560146104115780630964ff261461040c5780630afa2889146104075780630e648dc7146104025780630e7adbe7146103fd578063176e009d146103f857806319a9df44146103f35780631c3f5b9e146103ee5780631deacdf6146103e95780632447213d146103e4578063248a9ca3146103df578063256d6957146103da5780632697bfe4146103d55780632f2ff15d146103d057806336568abe146103cb57806337cbbb01146103c657806337ea7f75146103c1578063390ea8ca146103bc5780633af32abf146103b75780633f4ba83a146103b2578063457e8b97146103ad57806347982dad146103a85780634c6a7d6e146103a35780634e14a5831461039e57806353d6fd59146103995780635c975abb146103945780636259e4481461038f57806364c5368a1461038a578063658242b51461038557806368218611146103805780637322ae371461037b57806375b238fc1461037657806384203576146103715780638456cb591461036c5780638a95f7e8146103675780638d211b9e1461036257806391d148541461035d578063927399a51461035857806398cff688146103535780639abedf011461034e5780639b5d0968146103495780639efb4f0114610344578063a217fddf1461033f578063a4fb8e881461033a578063a888e47714610335578063a9e5e57f14610330578063bacd56231461032b578063baf1e57f14610326578063c25d20c314610321578063c8f4eb6b1461031c578063cfdbf25414610317578063d4638d5f14610312578063d547741f1461030d578063ed7d0ff314610308578063f3860a6014610303578063f5b541a6146102fe578063f70ad876146102f9578063fa686948146102f4578063fae3ac82146102ef578063fba0f69f146102ea578063fe575a87146102e55763ffa1ad740361042557611235565b611114565b6110fc565b6110e4565b6110cc565b6110b4565b611099565b61105a565b61102b565b611007565b610fef565b610fd4565b610fa7565b610f6b565b610f15565b610ede565b610ec6565b610eae565b610e93565b610e6d565b610e41565b610e1b565b610df5565b610dbb565b610c8d565b610c66565b610c47565b610c2f565b610c17565b610bff565b610be4565b610b9d565b610b6f565b610b49565b610b22565b610b06565b610a75565b610a5c565b610a0c565b6109f1565b6109c0565b6109a8565b610990565b610975565b61095a565b610918565b6108ea565b6108c6565b6108ad565b61086f565b610849565b610823565b610808565b6107e2565b6107b0565b61074e565b61071c565b610690565b610632565b61060a565b6105b9565b610593565b610541565b6104f5565b61045c565b5f80fd5b5f91031261042557565b6104406104406104409290565b90565b610440610e10610433565b610440610443565b9052565b565b346104255761046c366004610429565b61048761047761044e565b6040519182918290815260200190565b0390f35b805b0361042557565b9050359061045a8261048b565b906020828203126104255761044091610494565b906104bf90610440565b5f5260205260405f2090565b610440916008021c81565b9061044091546104cb565b5f6104f06104409260156104b5565b6104d6565b346104255761048761047761050b3660046104a1565b6104e1565b6001600160e01b0319811661048d565b9050359061045a82610510565b906020828203126104255761044091610520565b346104255761048761055c61055736600461052d565b61125c565b60405191829182901515815260200190565b610440916008021c5b60ff1690565b90610440915461056e565b6104405f600e61057d565b34610425576105a3366004610429565b61048761055c610588565b6104405f60076104d6565b34610425576105c9366004610429565b6104876104776105ae565b6001600160a01b031690565b61048d816105d4565b9050359061045a826105e0565b9060208282031261042557610440916105e9565b346104255761062261061d3660046105f6565b61142f565b604051005b6104405f600a6104d6565b3461042557610642366004610429565b610487610477610627565b610440916008021c6001600160a01b031690565b90610440915461064d565b6104405f6014610661565b610456906105d4565b60208101929161045a9190610677565b34610425576106a0366004610429565b6104876106ab61066c565b60405191829182610680565b919060a083820312610425576106cd81846105e9565b926106db82602083016105e9565b926104406106ec8460408501610494565b9360806106fc82606087016105e9565b9401610494565b901515815260408101929161045a9160200152565b0152565b346104255761073861072f3660046106b7565b939290926115a1565b9061048761074560405190565b92839283610703565b34610425576106226107613660046104a1565b611947565b6104405f6002610661565b610440906105d4906001600160a01b031682565b61044090610771565b61044090610785565b6104569061078e565b60208101929161045a9190610797565b34610425576107c0366004610429565b6104876107cb610766565b604051918291826107a0565b6104405f6004610661565b34610425576107f2366004610429565b6104876107cb6107d7565b6104405f6011610661565b3461042557610818366004610429565b6104876106ab6107fd565b34610425576104876104776108393660046104a1565b611950565b6104405f60096104d6565b3461042557610859366004610429565b61048761047761083e565b6104405f600f6104d6565b346104255761087f366004610429565b610487610477610864565b9190604083820312610425576104409060206108a68286610494565b94016105e9565b34610425576106226108c036600461088a565b9061198b565b34610425576106226108d936600461088a565b90611995565b6104405f6013610661565b34610425576108fa366004610429565b6104876106ab6108df565b90815260408101929161045a9160200152565b346104255761093061092b3660046105f6565b6119c7565b9061048761093d60405190565b92839283610905565b6104406202a300610433565b610440610946565b346104255761096a366004610429565b610487610477610952565b346104255761048761055c61098b3660046105f6565b6119e9565b34610425576109a0366004610429565b610622611a5a565b34610425576109b8366004610429565b610622611b6b565b34610425576109d0366004610429565b610622611d1f565b906104bf9061078e565b5f6104f061044092600d6109d8565b3461042557610487610477610a073660046105f6565b6109e2565b3461042557610622610a1f3660046104a1565b611dc0565b80151561048d565b9050359061045a82610a24565b919060408382031261042557610440906020610a5582866105e9565b9401610a2c565b3461042557610622610a6f366004610a39565b90611e4d565b3461042557610a85366004610429565b61048761055c611e57565b909182601f830112156104255781359167ffffffffffffffff831161042557602001926001830284011161042557565b9160608383031261042557610ad58284610494565b92610ae383602083016105e9565b92604082013567ffffffffffffffff811161042557610b029201610a90565b9091565b3461042557610622610b19366004610ac0565b92919091611f1b565b3461042557610622610b353660046104a1565b612088565b5f6104f061044092600c6109d8565b3461042557610487610477610b5f3660046105f6565b610b3a565b6104405f60066104d6565b3461042557610b7f366004610429565b610487610477610b64565b61044061012c610433565b610440610b8a565b3461042557610bad366004610429565b610487610477610b95565b7fa49807205ce4d355092ef5a8a18f56e8913cf4a201fbe287825b095693c2177590565b610440610bb8565b3461042557610bf4366004610429565b610487610477610bdc565b3461042557610622610c123660046105f6565b612138565b3461042557610c27366004610429565b61062261218a565b3461042557610c3f366004610429565b6106226122aa565b346104255761048761055c610c5d3660046106b7565b93929092612375565b346104255761048761055c610c7c36600461088a565b90612383565b6104405f6003610661565b3461042557610c9d366004610429565b6104876107cb610c82565b909182601f830112156104255781359167ffffffffffffffff831161042557602001926020830284011161042557565b9060208282031261042557813567ffffffffffffffff811161042557610b029201610ca8565b0190565b90610d22610d1b610d11845190565b8084529260200190565b9260200190565b905f5b818110610d325750505090565b909192610d51610d4a60019286511515815260200190565b9460200190565b929101610d25565b90610d68610d1b610d11845190565b905f5b818110610d785750505090565b909192610d8e610d4a6001928651815260200190565b929101610d6b565b6040808252610440939192610dad91840190610d02565b916020818403910152610d59565b3461042557610dd4610dce366004610cd8565b90612447565b90610487610de160405190565b92839283610d96565b6104405f6012610661565b3461042557610e05366004610429565b6104876106ab610dea565b6104405f60106104d6565b3461042557610e2b366004610429565b610487610477610e10565b6104405f600b6104d6565b3461042557610e51366004610429565b610487610477610e36565b6104405f610433565b610440610e5c565b3461042557610e7d366004610429565b610487610477610e65565b6104405f60086104d6565b3461042557610ea3366004610429565b610487610477610e88565b3461042557610ebe366004610429565b6106226126e5565b3461042557610622610ed93660046104a1565b6127fe565b3461042557610622610ef1366004610ac0565b9291909161284e565b908152901515602082015260608101929161045a9160400152565b3461042557610487610f30610f2b3660046105f6565b61285a565b60405191939193849384610efa565b61071861045a94610f64606094989795610f5d608086019a5f870152565b6020850152565b6040830152565b3461042557610f7b366004610429565b610487610f86612941565b90610f9394929460405190565b94859485610f3f565b610440600180610661565b3461042557610fb7366004610429565b6104876107cb610f9c565b6104406064610433565b610440610fc2565b3461042557610fe4366004610429565b610487610477610fcc565b34610425576106226110023660046105f6565b6129fd565b346104255761062261101a36600461088a565b90612a21565b6104405f60056104d6565b346104255761103b366004610429565b610487610477611020565b61044062093a80610433565b610440611046565b346104255761106a366004610429565b610487610477611052565b7f97667070c54ef182b0f5858b034beac1b6f3089aa2d3188bb1e8929f4fa9b92990565b34610425576110a9366004610429565b610487610477611075565b34610425576106226110c73660046105f6565b612ab5565b34610425576110dc366004610429565b610622612b3e565b34610425576107386110f73660046105f6565b612b46565b346104255761110c366004610429565b610622612ccb565b346104255761048761055c61112a3660046105f6565b612e0e565b634e487b7160e01b5f52604160045260245ffd5b90601f01601f1916810190811067ffffffffffffffff82111761116557604052565b61112f565b9061045a61117760405190565b9283611143565b67ffffffffffffffff811161116557602090601f01601f19160190565b906111ad6111a88361117e565b61116a565b918252565b6111bc600561119b565b64312e332e3160d81b602082015290565b6104406111b2565b6104406111cd565b6104406111d5565b90825f9392825e0152565b61121161121a602093610cfe93611205815190565b80835293849260200190565b958691016111e5565b601f01601f191690565b6020808252610440929101906111f0565b3461042557611245366004610429565b6104876112506111dd565b60405191829182611224565b637965db0b60e01b6001600160e01b031982161490811561127b575090565b61044091506001600160e01b0319166301ffc9a760e01b1490565b61045a906112aa6112a5610bb8565b612f42565b611376565b6105d46104406104409290565b610440906112af565b6020808252600e908201526d139bdd08184818dbdb9d1c9858dd60921b604082015260600190565b156112f457565b60405162461bcd60e51b81528061130d600482016112c5565b0390fd5b906001600160a01b03905b9181191691161790565b9061133661044061133d9261078e565b8254611311565b9055565b6b7269736b526567697374727960a01b6104bf565b905f199061131c565b9061136f61044061133d92610433565b8254611356565b6113876113825f6112bc565b6105d4565b611390826105d4565b1461141a57806113b46113d8923b6113ae6113aa5f610433565b9190565b116112ed565b6113bf816012611326565b6113d36113cc6015611341565b429061135f565b61078e565b6113e13361078e565b907f525f3c9690e06e2b5474f9af91aed79e59b21cba45806aca438ffb63a989027b61140c60405190565b42815280602081015b0390a3565b63e6c4247b60e01b5f908152600490fd5b035ffd5b61045a90611296565b61044090610577565b6104409054611438565b610440906105d4565b610440905461144b565b9050519061045a82610a24565b90602082820312610425576104409161145e565b6040513d5f823e3d90fd5b6104409081565b610440905461148a565b6104409060081c6105d4565b610440905461149b565b6004111561042557565b9050519061045a826114b1565b909291926114d86111a88261117e565b93818552818301116104255761045a9160208501906111e5565b9080601f83011215610425578151610440926020016114c8565b9190916040818403126104255761152383826114bb565b92602082015167ffffffffffffffff81116104255761044092016114f2565b61156d61045a94610f64606094989795611563608086019a5f870190610677565b6020850190610677565b0190610677565b634e487b7160e01b5f52602160045260245ffd5b6004111561159257565b611574565b9061045a82611588565b9394939091906115b05f6112bc565b956115ba876105d4565b6115c3836105d4565b148015611879575b611867576115d85f610433565b8111908161185d575b5061184c576115f0600e611441565b61184c576116016113d36002611454565b61161361160d886105d4565b916105d4565b1461184c5761162181612f4d565b61162a84612f4d565b808211156118445750955b866116436113d36002611454565b63df592f7d602061165360405190565b809361165f8460e01b90565b825281806116708a60048301610680565b03915afa9182156117cc575f9261181e575b5060206116a2916116966113d36002611454565b60405193849260e01b90565b825281806116b38c60048301610680565b03915afa9081156117cc575f916117ef575b5081156117e7575b506117db57506116e06104406006611491565b8710156117d15761170061160d6116fa6113d360016114a7565b926105d4565b0361171d575b505050506117176104406005611491565b82109190565b5f928361172d6113d360016114a7565b9261175461173a60405190565b9788968795869463b670b27360e01b865260048601611542565b03925af19081156117cc575f916117ab575b506117716001611597565b61177a82611597565b146117a55761179261178c6003611597565b91611597565b146117a0575f808080611706565b5f9190565b505f9190565b6117c791503d805f833e6117bf8183611143565b81019061150c565b611766565b61147f565b50505050505f9190565b965050505050505f9190565b90505f6116cd565b611811915060203d602011611817575b6118098183611143565b81019061146b565b5f6116c5565b503d6117ff565b6116a291925061183c602091823d8411611817576118098183611143565b929150611682565b905095611635565b5050505090505f906104405f610433565b905042115f6115e1565b505050505090505f906104405f610433565b50611883876105d4565b61188c856105d4565b146115cb565b61045a906118a16112a5610bb8565b6118c3565b90815260608101939261045a929091604091610718906020830152565b6118ce610440611046565b8111611930577f66cf93b1fbf4239a49f89267a13e1d1da0a1ae97a61d85644943294c93b84f576118ff600f611491565b61190a83600f61135f565b6119133361078e565b9261192b61192060405190565b9283924291846118a6565b0390a2565b636181a74160e11b5f908152600491909152602490fd5b61045a90611892565b6001611967610440926119605f90565b505f6104b5565b01611491565b9061045a9161197e6112a582611950565b9061198891612fbe565b50565b9061045a9161196d565b9061199f336105d4565b6119a8826105d4565b036119b65761198891613034565b63334bd91960e11b5f908152600490fd5b906104406119dc6119e16119dc85600c6109d8565b611491565b93600d6109d8565b6119ff610440916119f75f90565b5060166109d8565b611441565b611a0f6112a5610bb8565b61045a611a1a6130d0565b611a233361078e565b7f107553d8191d85b405879cf752997865edd48d94e20bda4dd27223c94b31a7cc611a4d60405190565b428152806020810161192b565b61045a611a04565b611a6d6112a5610bb8565b61045a611ac0565b634e487b7160e01b5f52601160045260245ffd5b91908201809211611a9657565b611a75565b9060ff9061131c565b151590565b90611ab961044061133d92611aa4565b8254611a9b565b611aca600e611441565b611b5a57611aee610440611ade6010611491565b611ae8600f611491565b90611a89565b4210611b4657611b006001600e611aa9565b611b0b42601061135f565b7f9a412031d3d98959a6d0c98cda92174f7b51270febfb0a6ec88aa632016511f3611b3560405190565b80611b41434283610905565b0390a1565b600162579f1360e01b03195f908152600490fd5b63b09ad1ef60e01b5f908152600490fd5b61045a611a62565b611b7e6112a5610bb8565b61045a611c0f565b6b706f6c696379456e67696e6560a01b6104bf565b916001600160a01b0360089290920291821b911b61131c565b9190611bc561044061133d9361078e565b908354611b9b565b61045a915f91611bb4565b915f1960089290920291821b911b61131c565b9190611bfc61044061133d93610433565b908354611bd8565b61045a915f91611beb565b611c196013611454565b611c256113825f6112bc565b611c2e826105d4565b14611d0e57611c406119dc6015611b86565b611c48610946565b90611c566104408383611a89565b4210611cea575050611ca8611ca2611c716113d36003611454565b611c84611c7d8561078e565b6003611326565b611c8f5f6013611bcd565b6113d35f611c9d6015611b86565b611c04565b9161078e565b611cb13361078e565b917f2a9c287da0d929fcfae2dc024443de551d7782d093bba69b3789c14a55bf8635611cdc60405190565b42815280602081015b0390a4565b611cf85f9261142b92611a89565b630a8d68c960e21b835260048301526024820190565b630bae0d7560e11b5f908152600490fd5b61045a611b73565b61045a90611d366112a5610bb8565b611d6b565b701b5a5b955c19185d19525b9d195c9d985b607a1b815260110190565b60405180611d6581611d3b565b03902090565b611d756007611491565b611d8082600761135f565b7fdf734d782db338921109324e0c0f901388a333d7f365b9525662d7575f5cfe32611da9611d58565b91611db33361078e565b9361141561192060405190565b61045a90611d27565b9061045a91611dd96112a5610bb8565b611de56113825f6112bc565b611dee826105d4565b1461141a57806113d383611e06611e0b9460166109d8565b611aa9565b7f362846f3385edc138fde10924e5dd686b4b102b38543cef33b09ec456f129807611415611e383361078e565b93611e4260405190565b918291429083610703565b9061045a91611dc9565b6104406001611441565b9061045a939291611e736112a5610bb8565b611eb9565b90825f939282370152565b919061121a81611e9a81610cfe9560209181520190565b8095611e78565b90815260406020820181905261044093910191611e83565b611efa611ef47f26c5264b502d6057e1a4377e90dd7bdad79766d1694ee3204ed9ad4ce061aacd92959495611eee8582612fbe565b50610440565b9261078e565b92611f043361078e565b94611ce5611f1160405190565b9283924284611ea1565b9061045a939291611e61565b61045a90611f366112a5610bb8565b61201e565b6020808252600d908201526c496e76616c69642076616c756560981b604082015260600190565b15611f6957565b60405162461bcd60e51b81528061130d60048201611f3b565b60208082526026908201527f4d757374206265206c657373207468616e206d61785269736b53636f7265466f60408201526572426c6f636b60d01b606082015260800190565b15611fcf57565b60405162461bcd60e51b81528061130d60048201611f82565b7f6d696e5269736b53636f7265466f7251756172616e74696e6500000000000000815260190190565b60405180611d6581611fe8565b61203361202b6064610433565b821115611f62565b61204a6120436104406006611491565b8210611fc8565b6120546005611491565b61205f82600561135f565b7fdf734d782db338921109324e0c0f901388a333d7f365b9525662d7575f5cfe32611da9612011565b61045a90611f27565b61045a906120a06112a5610bb8565b6120bd565b6e1c5d585c985b9d1a5b9955985d5b1d608a1b6104bf565b6120c96113825f6112bc565b6120d2826105d4565b1461141a57806120ec612104923b6113ae6113aa5f610433565b6120f7816014611326565b6113d36113cc60156120a5565b61210d3361078e565b907f9c5e048fe7a992bae9091fdad3e1b6e9a78e1902b8b0dfe12fead85d156b517461140c60405190565b61045a90612091565b61214c6112a5610bb8565b61045a612157613118565b6121603361078e565b7f80170b5fcdd2bf1e0660ef4b8851f86685f64d41b1a19de1471947ece8725aac611a4d60405190565b61045a612141565b61219d6112a5610bb8565b61045a6121e8565b6f636f6d706c69616e6365456e67696e6560801b6104bf565b90610100600160a81b039060081b61131c565b906121e161044061133d9261078e565b82546121be565b6121f26011611454565b6121fe6113825f6112bc565b612207826105d4565b14611d0e576122196119dc60156121a5565b612221610946565b9061222f6104408383611a89565b4210611cea575050612276611ca261224a6113d360016114a7565b61225d6122568561078e565b60016121d1565b6122685f6011611bcd565b6113d35f611c9d60156121a5565b61227f3361078e565b917fcdfa4035fab3927431c7838f49157be6c6cc2aae43fc0cec5375426a0a1604d0611cdc60405190565b61045a612192565b9061044095949392916122c3613120565b906122d995949392916122d4613149565b612305565b9061045a613178565b61045690610433565b91602061045a92949361071860408201965f8301906122e2565b5094939291906123145f610433565b841461235d574284106123455761233561044061232f610b8a565b42611a89565b84116123455761044094956132cc565b6302a07ebf60e31b5f90815261142b42866004610905565b6302a07ebf60e31b5f90815261142b428260046122eb565b61044094939291905f6122b2565b610440915f61239d6119ff936123965f90565b50826104b5565b016109d8565b67ffffffffffffffff81116111655760208091020190565b906111ad6111a8836123a3565b369037565b9061045a6123e36123dd846123bb565b936123a3565b601f1901602084016123c8565b60010190565b634e487b7160e01b5f52603260045260245ffd5b919081101561241a576020020190565b6123f6565b35610440816105e0565b90612432825190565b81101561241a576020809102010190565b5190565b6124546113d36002611454565b9061245e5f6112bc565b9161246b61160d846105d4565b146126015782612479610fc2565b8085116125e8575061248a846123cd565b92612494856123cd565b9561249e5f610433565b865b8110156125de576124ba6124b582868861240a565b61241f565b6124c661160d856105d4565b146125c957806124f56124e86124e36124b561253795898b61240a565b612f4d565b6124f2838c612429565b52565b60206125046113d36002611454565b6125126124b584898b61240a565b9061251c60405190565b9485928391829163df592f7d60e01b5b835260048301610680565b03915afa9081156117cc57612558612578926124a0945f916125ad57501590565b8061257f575b6125739061256c838b612429565b9015159052565b6123f0565b905061249e565b50612573612595612590838d612429565b612443565b6125a56113aa6104406006611491565b10905061255e565b6125c5915060203d8111611817576118098183611143565b1590565b612578816125735f61256c6124a0958b612429565b5094505050509190565b63bb1cb70b60e01b5f9081529061142b90866004610905565b632221fe0f60e01b5f908152600490fd5b61261d6112a5610bb8565b61045a61262a6014611454565b6126366113825f6112bc565b61263f826105d4565b14611d0e576126516119dc60156120a5565b612659610946565b906126676104408383611a89565b4210611cea5750506126b1611ca26126826113d36004611454565b6126986126916113d38661078e565b6004611326565b6126a35f6014611bcd565b6113d35f611c9d60156120a5565b6126ba3361078e565b917f0f3819b977cb9dc225f7c1d6965986b1fdec986b2106d37e7bdeb6d922ca1c3e611cdc60405190565b61045a612612565b61045a906126fc6112a5610bb8565b61279c565b6020808252602e908201527f4d7573742062652067726561746572207468616e206d696e5269736b53636f7260408201526d65466f7251756172616e74696e6560901b606082015260800190565b1561275657565b60405162461bcd60e51b81528061130d60048201612701565b736d61785269736b53636f7265466f72426c6f636b60601b815260140190565b60405180611d658161276f565b6127a961202b6064610433565b6127c06127b96104406005611491565b821161274f565b6127ca6006611491565b6127d582600661135f565b7fdf734d782db338921109324e0c0f901388a333d7f365b9525662d7575f5cfe32611da961278f565b61045a906126ed565b9061045a9392916128196112a5610bb8565b611efa611ef47ffcf6f7b79149c04f9387b4ab24ba2b7ca0edce3642a75e43ec9a5a41fb924b5392959495611eee8582613034565b9061045a939291612807565b906128645f6112bc565b61286d816105d4565b612876846105d4565b14908115612925575b506129135761288d82612f4d565b9061289b6113d36002611454565b9260206128a760405190565b94859063df592f7d60e01b825281806128c38660048301610680565b03915afa9384156117cc575f946128ea575b506119dc6128e49160176109d8565b91929190565b6128e491945061290b6119dc9160203d602011611817576118098183611143565b9491506128d5565b905061291e5f610433565b905f908290565b905061293a61160d6116fa6113d36002611454565b145f61287f565b61294b6008611491565b906129566009611491565b91612961600a611491565b9161296c600b611491565b9193929190565b61045a906129826112a5610bb8565b61298e6113825f6112bc565b612997826105d4565b1461141a57806129b16129c9923b6113ae6113aa5f610433565b6129bc816013611326565b6113d36113cc6015611b86565b6129d23361078e565b907fbb0b909e8445593031b588b56ed9050e8b20cdfda7cf1feac568d4dcf3d4014e61140c60405190565b61045a90612973565b9061045a91612a176112a582611950565b9061198891613034565b9061045a91612a06565b61045a90612a3a6112a5610bb8565b612a466113825f6112bc565b612a4f826105d4565b1461141a5780612a69612a81923b6113ae6113aa5f610433565b612a74816011611326565b6113d36113cc60156121a5565b612a8a3361078e565b907f059ca1ae2591792840e0d35a9ba303138604140ff2ab22d1380b4d9f88430ca861140c60405190565b61045a90612a2b565b612ac96112a5610bb8565b61045a612ad66010611491565b612aeb610440612ae4610443565b8093611a89565b4210612b275750612afd5f600e611aa9565b7f9ecd306d62dd97616c41f85ad2708a53257440d539ba2e8eb0903567a9ba370e611b3560405190565b61142b611cf85f92612b396010611491565b611a89565b61045a612abe565b90612b505f6112bc565b612b59816105d4565b612b62846105d4565b1461141a57612b7a61160d6116fa6113d36002611454565b1461260157612bb26020612b8d84612f4d565b93612b9b6113d36002611454565b6040519384928391829163df592f7d60e01b61252c565b03915afa80156117cc57612bcb915f91612be257501590565b80612bd4579190565b506117176104406006611491565b6125c5915060203d602011611817576118098183611143565b612c066112a5610bb8565b61045a612c136012611454565b612c1f6113825f6112bc565b612c28826105d4565b14611d0e57612c3a6119dc6015611341565b612c42610946565b90612c506104408383611a89565b4210611cea575050612c97611ca2612c6b6113d36002611454565b612c7e612c778561078e565b6002611326565b612c895f6012611bcd565b6113d35f611c9d6015611341565b612ca03361078e565b917fabbf02471dd6cc979795fe1cef6e74c508161c0ca9c0466a6211d1707d13703c611cdc60405190565b61045a612bfb565b9050519061045a8261048b565b9050519061045a826105e0565b63ffffffff811661048d565b9050519061045a82612ced565b60ff811661048d565b9050519061045a82612d06565b90929192612d2c6111a8826123a3565b938185526020808601920283019281841161042557915b838310612d505750505050565b60208091612d5e8486612cd3565b815201920191612d43565b9080601f8301121561042557815161044092602001612d1c565b9190916101008184031261042557612d9b8382612cd3565b92612da98160208401612ce0565b92612db78260408501612cf9565b92612dc58360608301612d0f565b92612dd38160808401612d0f565b92612de18260a0850161145e565b92612def8360c0830161145e565b9260e082015167ffffffffffffffff8111610425576104409201612d69565b612e175f6112bc565b612e20816105d4565b612e29836105d4565b1461141a57612e4161160d6116fa6113d36002611454565b14612f2d57612e536113d36002611454565b6020612e5e60405190565b91829063df592f7d60e01b82528180612e7a8760048301610680565b03915afa9081156117cc575f91612f0e575b50612f08575f612eb991612ea36113d36002611454565b6040519384928391829162f53a4760e41b61252c565b03915afa9081156117cc575f91612ee1575b50612edc6113aa6104406006611491565b101590565b612efd91503d805f833e612ef58183611143565b810190612d83565b505050505050612ecb565b50600190565b612f27915060203d602011611817576118098183611143565b5f612e8c565b6394d5973360e01b5f908152600490fd5b1490565b61045a9033906136aa565b612f5a6113d36002611454565b612f6961160d6113825f6112bc565b14612fb3575f612f8091612ea36113d36002611454565b03915afa9081156117cc575f91612f95575090565b612fa991503d805f833e612ef58183611143565b5050505050505090565b506104406064610433565b612fcb6125c58383612383565b1561302e57612fe46001611e06845f61239d86826104b5565b612ffb611ca2612ff5335b93610440565b9361078e565b917f2f8788117e7eff1d82e926ec794901d17c78024a50270940304540a733656f0d61302660405190565b5f90a4600190565b50505f90565b61303e8282612383565b1561302e576130565f611e06848261239d86826104b5565b613065611ca2612ff533612fef565b917ff6391f5c32d9c69d2a47ea670b442974b53935d1edc7fd64eb21e047a839171b61302660405190565b6130986136d8565b61045a6130a65f6001611aa9565b7f5db9ee0a495bf2e6ff9c91a7834c1ba4fdd244a5e8aa4e537bd38aeae4b073aa611b41336106ab565b61045a613090565b6130e0613120565b61045a6130ee600180611aa9565b7f62e78cea01bee320cd4e420270b5ea74000d11b0c9f74754ebdbfc544b05a258611b41336106ab565b61045a6130d8565b613128611e57565b61312e57565b63d93c066560e01b5f908152600490fd5b6104406002610433565b6131516136fa565b61045a61315c61313f565b5f613168610440613742565b0161135f565b6104406001610433565b61045a61315c61316e565b5f198114611a965760010190565b9095949261045a946131c8610718926131c16080966131b760a088019c5f890190610677565b6020870190610677565b6040850152565b6060830190610677565b61071861320060609361045a969897956131f360808601925f870190610677565b84820360208601526111f0565b966040830152565b9095949261045a94613237610718926131c160809661322e60a088019c5f890190610677565b15156020870152565b6060830152565b91908203918211611a9657565b60601b90565b6104409061324b565b613266610456916105d4565b613251565b6020809998959661329d601483996132a5826132a59a61329d610cfe9f9a839c61329d8b8d61329d6132a59f89969052565b01809261325a565b01918252565b61071861045a94610f64606094989795610f5d608086019a5f870190610677565b936132d7600e611441565b61367f576132e45f6112bc565b6132ed816105d4565b6132f6876105d4565b148015613666575b61141a5761331561160d6116fa6113d360016114a7565b14612601575f83859261333a61333361332e6008611491565b613183565b600861135f565b61335a61334889600c6109d8565b61335461332e82611491565b9061135f565b6133686113cc89600d6109d8565b6133766113cc8960176109d8565b8483896133ad6133896113d360016114a7565b9461339360405190565b9889978896879563d869848d60e01b875260048701613191565b03925af19485156117cc575f915f96613648575b506133cb81612f4d565b6133d484612f4d565b808211156136405750915b6001966133eb88611597565b6133f483611597565b149161340361178c6003611597565b14916135b9575080156135a3575b613485579061346461345e6134587f4a16bbea8cfc9fcdf32cbaa295dfbf7c83f3ce0b91ca69b80f2f060ade12358d946113d361345161332e600b611491565b600b61135f565b9461078e565b94610433565b9461347f61347160405190565b92839243918a429286613208565b0390a490565b938461355d94847f7fe15c93255636e95b82771c2907436d8d0a556b7d511f40b68955518ced02466135557f4a16bbea8cfc9fcdf32cbaa295dfbf7c83f3ce0b91ca69b80f2f060ade12358d9761353c6135659b6135056134ff61357f9f6134fa6134f361332e600a611491565b600a61135f565b610433565b4361323e565b6135306135126008611491565b5a908c8b61351f60405190565b98899760208901973390408961326b565b90810382520382611143565b61354e613547825190565b9160200190565b209461078e565b97889261078e565b988993610433565b998a9461357160405190565b918291439042908a856132ab565b0390a461359c61358e60405190565b92839243915f429286613208565b0390a45f90565b506135b16104406005611491565b821015613411565b905061357f965061355d947f4a16bbea8cfc9fcdf32cbaa295dfbf7c83f3ce0b91ca69b80f2f060ade12358d947f821d9e7c211ba387e5bdeb1323a2db550db64fbf248854206034ac1638aa3cfc61355561362699956113d361361f61332e6009611491565b600961135f565b998a9461363260405190565b918291439042908a856131d2565b9050916133df565b90955061365f91503d805f833e6117bf8183611143565b945f6133c1565b50613670816105d4565b613679846105d4565b146132fe565b6319e1bef560e01b5f908152600490fd5b91602061045a92949361071860408201965f830190610677565b906136b86125c58284612383565b6136c0575050565b63e2517d3f60e01b5f9081529161142b916004613690565b6136e36125c5611e57565b6136e957565b638dfc202b60e01b5f908152600490fd5b61370261374a565b61370857565b633ee5aeb560e01b5f908152600490fd5b6104407f9b779b17422d0df92223018b32b4d1fa46e071723d6817e2486d003becc55f00610433565b610440613719565b6137595f611967610440613742565b612f3e6113aa61044061313f56fea164736f6c634300081a000a",
  "linkReferences": {},
  "deployedLinkReferences": {}
}