{
  "_format": "hh-sol-artifact-1",
  "contractName": "QuarantineVault",
  "sourceName": "contracts/QuarantineVault.sol",
  "abi": [
    {
      "inputs": [],
      "stateMutability": "nonpayable",
      "type": "constructor"
    },
    {
      "inputs": [],
      "name": "AccessControlBadConfirmation",
      "type": "error"
    },
    {
      "inputs": [
        {
          "internalType": "address",
          "name": "account",
          "type": "address"
        },
        {
          "internalType": "bytes32",
          "name": "neededRole",
          "type": "bytes32"
        }
      ],
      "name": "AccessControlUnauthorizedAccount",
      "type": "error"
    },
    {
      "inputs": [
        {
          "internalType": "bytes32",
          "name": "recordId",
          "type": "bytes32"
        }
      ],
      "name": "AlreadyFrozen",
      "type": "error"
    },
    {
      "inputs": [
        {
          "internalType": "bytes32",
          "name": "recordId",
          "type": "bytes32"
        }
      ],
      "name": "AlreadyReleased",
      "type": "error"
    },
    {
      "inputs": [],
      "name": "BatchTooLarge",
      "type": "error"
    },
    {
      "inputs": [],
      "name": "EmergencyCooldownActive",
      "type": "error"
    },
    {
      "inputs": [],
      "name": "EmergencyPausedError",
      "type": "error"
    },
    {
      "inputs": [],
      "name": "InvalidAddress",
      "type": "error"
    },
    {
      "inputs": [],
      "name": "InvalidAmount",
      "type": "error"
    },
    {
      "inputs": [
        {
          "internalType": "bytes32",
          "name": "recordId",
          "type": "bytes32"
        }
      ],
      "name": "RecordAlreadyExists",
      "type": "error"
    },
    {
      "inputs": [
        {
          "internalType": "bytes32",
          "name": "recordId",
          "type": "bytes32"
        }
      ],
      "name": "RecordNotFound",
      "type": "error"
    },
    {
      "inputs": [],
      "name": "ReentrancyGuardReentrantCall",
      "type": "error"
    },
    {
      "inputs": [
        {
          "internalType": "address",
          "name": "token",
          "type": "address"
        }
      ],
      "name": "SafeERC20FailedOperation",
      "type": "error"
    },
    {
      "inputs": [],
      "name": "UnauthorizedRelease",
      "type": "error"
    },
    {
      "anonymous": false,
      "inputs": [
        {
          "indexed": true,
          "internalType": "bytes32",
          "name": "recordId",
          "type": "bytes32"
        },
        {
          "indexed": false,
          "internalType": "string",
          "name": "reason",
          "type": "string"
        }
      ],
      "name": "BatchReleaseFailed",
      "type": "event"
    },
    {
      "anonymous": false,
      "inputs": [
        {
          "indexed": true,
          "internalType": "address",
          "name": "account",
          "type": "address"
        },
        {
          "indexed": false,
          "internalType": "uint256",
          "name": "timestamp",
          "type": "uint256"
        }
      ],
      "name": "ContractPaused",
      "type": "event"
    },
    {
      "anonymous": false,
      "inputs": [
        {
          "indexed": true,
          "internalType": "address",
          "name": "account",
          "type": "address"
        },
        {
          "indexed": false,
          "internalType": "uint256",
          "name": "timestamp",
          "type": "uint256"
        }
      ],
      "name": "ContractUnpaused",
      "type": "event"
    },
    {
      "anonymous": false,
      "inputs": [
        {
          "indexed": true,
          "internalType": "address",
          "name": "sender",
          "type": "address"
        },
        {
          "indexed": false,
          "internalType": "uint256",
          "name": "amount",
          "type": "uint256"
        },
        {
          "indexed": false,
          "internalType": "uint256",
          "name": "timestamp",
          "type": "uint256"
        }
      ],
      "name": "ETHReceived",
      "type": "event"
    },
    {
      "anonymous": false,
      "inputs": [
        {
          "indexed": false,
          "internalType": "uint256",
          "name": "timestamp",
          "type": "uint256"
        }
      ],
      "name": "EmergencyPaused",
      "type": "event"
    },
    {
      "anonymous": false,
      "inputs": [
        {
          "indexed": false,
          "internalType": "uint256",
          "name": "timestamp",
          "type": "uint256"
        }
      ],
      "name": "EmergencyUnpaused",
      "type": "event"
    },
    {
      "anonymous": false,
      "inputs": [
        {
          "indexed": true,
          "internalType": "bytes32",
          "name": "recordId",
          "type": "bytes32"
        },
        {
          "indexed": true,
          "internalType": "address",
          "name": "originalOwner",
          "type": "address"
        },
        {
          "indexed": false,
          "internalType": "address",
          "name": "token",
          "type": "address"
        },
        {
          "indexed": false,
          "internalType": "uint256",
          "name": "amount",
          "type": "uint256"
        },
        {
          "indexed": true,
          "internalType": "address",
          "name": "by",
          "type": "address"
        },
        {
          "indexed": false,
          "internalType": "uint256",
          "name": "timestamp",
          "type": "uint256"
        }
      ],
      "name": "FundsFrozen",
      "type": "event"
    },
    {
      "anonymous": false,
      "inputs": [
        {
          "indexed": true,
          "internalType": "bytes32",
          "name": "recordId",
          "type": "bytes32"
        },
        {
          "indexed": true,
          "internalType": "address",
          "name": "originalOwner",
          "type": "address"
        },
        {
          "indexed": false,
          "internalType": "address",
          "name": "token",
          "type": "address"
        },
        {
          "indexed": false,
          "internalType": "uint256",
          "name": "amount",
          "type": "uint256"
        },
        {
          "indexed": false,
          "internalType": "string",
          "name": "reason",
          "type": "string"
        },
        {
          "indexed": false,
          "internalType": "uint256",
          "name": "timestamp",
          "type": "uint256"
        }
      ],
      "name": "FundsQuarantined",
      "type": "event"
    },
    {
      "anonymous": false,
      "inputs": [
        {
          "indexed": true,
          "internalType": "bytes32",
          "name": "recordId",
          "type": "bytes32"
        },
        {
          "indexed": true,
          "internalType": "address",
          "name": "originalOwner",
          "type": "address"
        },
        {
          "indexed": false,
          "internalType": "address",
          "name": "token",
          "type": "address"
        },
        {
          "indexed": false,
          "internalType": "uint256",
          "name": "amount",
          "type": "uint256"
        },
        {
          "indexed": false,
          "internalType": "address",
          "name": "releasedBy",
          "type": "address"
        },
        {
          "indexed": false,
          "internalType": "uint256",
          "name": "timestamp",
          "type": "uint256"
        }
      ],
      "name": "FundsReleased",
      "type": "event"
    },
    {
      "anonymous": false,
      "inputs": [
        {
          "indexed": true,
          "internalType": "bytes32",
          "name": "role",
          "type": "bytes32"
        },
        {
          "indexed": true,
          "internalType": "bytes32",
          "name": "previousAdminRole",
          "type": "bytes32"
        },
        {
          "indexed": true,
          "internalType": "bytes32",
          "name": "newAdminRole",
          "type": "bytes32"
        }
      ],
      "name": "RoleAdminChanged",
      "type": "event"
    },
    {
      "anonymous": false,
      "inputs": [
        {
          "indexed": true,
          "internalType": "bytes32",
          "name": "role",
          "type": "bytes32"
        },
        {
          "indexed": true,
          "internalType": "address",
          "name": "account",
          "type": "address"
        },
        {
          "indexed": true,
          "internalType": "address",
          "name": "sender",
          "type": "address"
        }
      ],
      "name": "RoleGranted",
      "type": "event"
    },
    {
      "anonymous": false,
      "inputs": [
        {
          "indexed": true,
          "internalType": "bytes32",
          "name": "role",
          "type": "bytes32"
        },
        {
          "indexed": true,
          "internalType": "address",
          "name": "account",
          "type": "address"
        },
        {
          "indexed": true,
          "internalType": "address",
          "name": "sender",
          "type": "address"
        },
        {
          "indexed": false,
          "internalType": "uint256",
          "name": "timestamp",
          "type": "uint256"
        },
        {
          "indexed": false,
          "internalType": "string",
          "name": "reason",
          "type": "string"
        }
      ],
      "name": "RoleGrantedDetailed",
      "type": "event"
    },
    {
      "anonymous": false,
      "inputs": [
        {
          "indexed": true,
          "internalType": "bytes32",
          "name": "role",
          "type": "bytes32"
        },
        {
          "indexed": true,
          "internalType": "address",
          "name": "account",
          "type": "address"
        },
        {
          "indexed": true,
          "internalType": "address",
          "name": "sender",
          "type": "address"
        }
      ],
      "name": "RoleRevoked",
      "type": "event"
    },
    {
      "anonymous": false,
      "inputs": [
        {
          "indexed": true,
          "internalType": "bytes32",
          "name": "role",
          "type": "bytes32"
        },
        {
          "indexed": true,
          "internalType": "address",
          "name": "account",
          "type": "address"
        },
        {
          "indexed": true,
          "internalType": "address",
          "name": "sender",
          "type": "address"
        },
        {
          "indexed": false,
          "internalType": "uint256",
          "name": "timestamp",
          "type": "uint256"
        },
        {
          "indexed": false,
          "internalType": "string",
          "name": "reason",
          "type": "string"
        }
      ],
      "name": "RoleRevokedDetailed",
      "type": "event"
    },
    {
      "anonymous": false,
      "inputs": [
        {
          "indexed": false,
          "internalType": "string",
          "name": "functionName",
          "type": "string"
        },
        {
          "indexed": false,
          "internalType": "uint256",
          "name": "timestamp",
          "type": "uint256"
        }
      ],
      "name": "ZeroAddressRejected",
      "type": "event"
    },
    {
      "inputs": [],
      "name": "AUDITOR_ROLE",
      "outputs": [
        {
          "internalType": "bytes32",
          "name": "",
          "type": "bytes32"
        }
      ],
      "stateMutability": "view",
      "type": "function"
    },
    {
      "inputs": [],
      "name": "DEFAULT_ADMIN_ROLE",
      "outputs": [
        {
          "internalType": "bytes32",
          "name": "",
          "type": "bytes32"
        }
      ],
      "stateMutability": "view",
      "type": "function"
    },
    {
      "inputs": [],
      "name": "EMERGENCY_ROLE",
      "outputs": [
        {
          "internalType": "bytes32",
          "name": "",
          "type": "bytes32"
        }
      ],
      "stateMutability": "view",
      "type": "function"
    },
    {
      "inputs": [],
      "name": "MAX_BATCH_SIZE",
      "outputs": [
        {
          "internalType": "uint256",
          "name": "",
          "type": "uint256"
        }
      ],
      "stateMutability": "view",
      "type": "function"
    },
    {
      "inputs": [],
      "name": "MIN_PAUSE_DURATION",
      "outputs": [
        {
          "internalType": "uint256",
          "name": "",
          "type": "uint256"
        }
      ],
      "stateMutability": "view",
      "type": "function"
    },
    {
      "inputs": [],
      "name": "QUARANTINE_ROLE",
      "outputs": [
        {
          "internalType": "bytes32",
          "name": "",
          "type": "bytes32"
        }
      ],
      "stateMutability": "view",
      "type": "function"
    },
    {
      "inputs": [],
      "name": "RELEASE_ROLE",
      "outputs": [
        {
          "internalType": "bytes32",
          "name": "",
          "type": "bytes32"
        }
      ],
      "stateMutability": "view",
      "type": "function"
    },
    {
      "inputs": [],
      "name": "VERSION",
      "outputs": [
        {
          "internalType": "string",
          "name": "",
          "type": "string"
        }
      ],
      "stateMutability": "view",
      "type": "function"
    },
    {
      "inputs": [
        {
          "internalType": "uint256",
          "name": "index",
          "type": "uint256"
        }
      ],
      "name": "allRecordIds",
      "outputs": [
        {
          "internalType": "bytes32",
          "name": "",
          "type": "bytes32"
        }
      ],
      "stateMutability": "view",
      "type": "function"
    },
    {
      "inputs": [
        {
          "internalType": "address[]",
          "name": "owners",
          "type": "address[]"
        },
        {
          "internalType": "address[]",
          "name": "tokens",
          "type": "address[]"
        },
        {
          "internalType": "uint256[]",
          "name": "amounts",
          "type": "uint256[]"
        },
        {
          "internalType": "bytes32[]",
          "name": "reasons",
          "type": "bytes32[]"
        }
      ],
      "name": "batchDeposit",
      "outputs": [],
      "stateMutability": "nonpayable",
      "type": "function"
    },
    {
      "inputs": [
        {
          "internalType": "bytes32[]",
          "name": "ids",
          "type": "bytes32[]"
        }
      ],
      "name": "batchReleaseFunds",
      "outputs": [],
      "stateMutability": "nonpayable",
      "type": "function"
    },
    {
      "inputs": [
        {
          "internalType": "address",
          "name": "originalOwner",
          "type": "address"
        },
        {
          "internalType": "address",
          "name": "token",
          "type": "address"
        },
        {
          "internalType": "uint256",
          "name": "amount",
          "type": "uint256"
        },
        {
          "internalType": "bytes32",
          "name": "reasonHash",
          "type": "bytes32"
        }
      ],
      "name": "deposit",
      "outputs": [
        {
          "internalType": "bytes32",
          "name": "recordId",
          "type": "bytes32"
        }
      ],
      "stateMutability": "nonpayable",
      "type": "function"
    },
    {
      "inputs": [],
      "name": "emergencyPause",
      "outputs": [],
      "stateMutability": "nonpayable",
      "type": "function"
    },
    {
      "inputs": [],
      "name": "emergencyPaused",
      "outputs": [
        {
          "internalType": "bool",
          "name": "",
          "type": "bool"
        }
      ],
      "stateMutability": "view",
      "type": "function"
    },
    {
      "inputs": [],
      "name": "emergencyUnpause",
      "outputs": [],
      "stateMutability": "nonpayable",
      "type": "function"
    },
    {
      "inputs": [
        {
          "internalType": "bytes32",
          "name": "recordId",
          "type": "bytes32"
        }
      ],
      "name": "freezePermanently",
      "outputs": [],
      "stateMutability": "nonpayable",
      "type": "function"
    },
    {
      "inputs": [
        {
          "internalType": "bytes32",
          "name": "recordId",
          "type": "bytes32"
        }
      ],
      "name": "getRecord",
      "outputs": [
        {
          "components": [
            {
              "internalType": "address",
              "name": "originalOwner",
              "type": "address"
            },
            {
              "internalType": "address",
              "name": "token",
              "type": "address"
            },
            {
              "internalType": "uint256",
              "name": "amount",
              "type": "uint256"
            },
            {
              "internalType": "uint256",
              "name": "timestamp",
              "type": "uint256"
            },
            {
              "internalType": "string",
              "name": "reason",
              "type": "string"
            },
            {
              "internalType": "bool",
              "name": "released",
              "type": "bool"
            },
            {
              "internalType": "address",
              "name": "releasedBy",
              "type": "address"
            },
            {
              "internalType": "uint256",
              "name": "releasedAt",
              "type": "uint256"
            },
            {
              "internalType": "bool",
              "name": "frozen",
              "type": "bool"
            }
          ],
          "internalType": "struct QuarantineVault.QuarantineRecord",
          "name": "",
          "type": "tuple"
        }
      ],
      "stateMutability": "view",
      "type": "function"
    },
    {
      "inputs": [],
      "name": "getRecordCount",
      "outputs": [
        {
          "internalType": "uint256",
          "name": "",
          "type": "uint256"
        }
      ],
      "stateMutability": "view",
      "type": "function"
    },
    {
      "inputs": [
        {
          "internalType": "bytes32",
          "name": "role",
          "type": "bytes32"
        }
      ],
      "name": "getRoleAdmin",
      "outputs": [
        {
          "internalType": "bytes32",
          "name": "",
          "type": "bytes32"
        }
      ],
      "stateMutability": "view",
      "type": "function"
    },
    {
      "inputs": [],
      "name": "getStats",
      "outputs": [
        {
          "internalType": "uint256",
          "name": "",
          "type": "uint256"
        },
        {
          "internalType": "uint256",
          "name": "",
          "type": "uint256"
        },
        {
          "internalType": "uint256",
          "name": "",
          "type": "uint256"
        },
        {
          "internalType": "uint256",
          "name": "",
          "type": "uint256"
        }
      ],
      "stateMutability": "view",
      "type": "function"
    },
    {
      "inputs": [
        {
          "internalType": "address",
          "name": "user",
          "type": "address"
        }
      ],
      "name": "getUserRecords",
      "outputs": [
        {
          "internalType": "bytes32[]",
          "name": "",
          "type": "bytes32[]"
        }
      ],
      "stateMutability": "view",
      "type": "function"
    },
    {
      "inputs": [
        {
          "internalType": "bytes32",
          "name": "recordId",
          "type": "bytes32"
        }
      ],
      "name": "governanceUnlock",
      "outputs": [],
      "stateMutability": "nonpayable",
      "type": "function"
    },
    {
      "inputs": [
        {
          "internalType": "address",
          "name": "account",
          "type": "address"
        },
        {
          "internalType": "string",
          "name": "reason",
          "type": "string"
        }
      ],
      "name": "grantAuditorRole",
      "outputs": [],
      "stateMutability": "nonpayable",
      "type": "function"
    },
    {
      "inputs": [
        {
          "internalType": "address",
          "name": "account",
          "type": "address"
        },
        {
          "internalType": "string",
          "name": "reason",
          "type": "string"
        }
      ],
      "name": "grantEmergencyRole",
      "outputs": [],
      "stateMutability": "nonpayable",
      "type": "function"
    },
    {
      "inputs": [
        {
          "internalType": "address",
          "name": "account",
          "type": "address"
        },
        {
          "internalType": "string",
          "name": "reason",
          "type": "string"
        }
      ],
      "name": "grantQuarantineRole",
      "outputs": [],
      "stateMutability": "nonpayable",
      "type": "function"
    },
    {
      "inputs": [
        {
          "internalType": "address",
          "name": "account",
          "type": "address"
        },
        {
          "internalType": "string",
          "name": "reason",
          "type": "string"
        }
      ],
      "name": "grantReleaseRole",
      "outputs": [],
      "stateMutability": "nonpayable",
      "type": "function"
    },
    {
      "inputs": [
        {
          "internalType": "bytes32",
          "name": "role",
          "type": "bytes32"
        },
        {
          "internalType": "address",
          "name": "account",
          "type": "address"
        }
      ],
      "name": "grantRole",
      "outputs": [],
      "stateMutability": "nonpayable",
      "type": "function"
    },
    {
      "inputs": [
        {
          "internalType": "bytes32",
          "name": "role",
          "type": "bytes32"
        },
        {
          "internalType": "address",
          "name": "account",
          "type": "address"
        }
      ],
      "name": "hasRole",
      "outputs": [
        {
          "internalType": "bool",
          "name": "",
          "type": "bool"
        }
      ],
      "stateMutability": "view",
      "type": "function"
    },
    {
      "inputs": [],
      "name": "isEmergencyPaused",
      "outputs": [
        {
          "internalType": "bool",
          "name": "",
          "type": "bool"
        }
      ],
      "stateMutability": "view",
      "type": "function"
    },
    {
      "inputs": [],
      "name": "lastPauseAt",
      "outputs": [
        {
          "internalType": "uint256",
          "name": "",
          "type": "uint256"
        }
      ],
      "stateMutability": "view",
      "type": "function"
    },
    {
      "inputs": [
        {
          "internalType": "address",
          "name": "originalOwner",
          "type": "address"
        },
        {
          "internalType": "address",
          "name": "token",
          "type": "address"
        },
        {
          "internalType": "uint256",
          "name": "amount",
          "type": "uint256"
        },
        {
          "internalType": "string",
          "name": "reason",
          "type": "string"
        }
      ],
      "name": "quarantineFunds",
      "outputs": [
        {
          "internalType": "bytes32",
          "name": "recordId",
          "type": "bytes32"
        }
      ],
      "stateMutability": "nonpayable",
      "type": "function"
    },
    {
      "inputs": [
        {
          "internalType": "uint256",
          "name": "",
          "type": "uint256"
        }
      ],
      "name": "recordIdList",
      "outputs": [
        {
          "internalType": "bytes32",
          "name": "",
          "type": "bytes32"
        }
      ],
      "stateMutability": "view",
      "type": "function"
    },
    {
      "inputs": [],
      "name": "recordNonce",
      "outputs": [
        {
          "internalType": "uint256",
          "name": "",
          "type": "uint256"
        }
      ],
      "stateMutability": "view",
      "type": "function"
    },
    {
      "inputs": [
        {
          "internalType": "bytes32",
          "name": "",
          "type": "bytes32"
        }
      ],
      "name": "records",
      "outputs": [
        {
          "internalType": "address",
          "name": "originalOwner",
          "type": "address"
        },
        {
          "internalType": "address",
          "name": "token",
          "type": "address"
        },
        {
          "internalType": "uint256",
          "name": "amount",
          "type": "uint256"
        },
        {
          "internalType": "uint256",
          "name": "timestamp",
          "type": "uint256"
        },
        {
          "internalType": "string",
          "name": "reason",
          "type": "string"
        },
        {
          "internalType": "bool",
          "name": "released",
          "type": "bool"
        },
        {
          "internalType": "address",
          "name": "releasedBy",
          "type": "address"
        },
        {
          "internalType": "uint256",
          "name": "releasedAt",
          "type": "uint256"
        },
        {
          "internalType": "bool",
          "name": "frozen",
          "type": "bool"
        }
      ],
      "stateMutability": "view",
      "type": "function"
    },
    {
      "inputs": [
        {
          "internalType": "bytes32",
          "name": "recordId",
          "type": "bytes32"
        },
        {
          "internalType": "address",
          "name": "to",
          "type": "address"
        }
      ],
      "name": "release",
      "outputs": [],
      "stateMutability": "nonpayable",
      "type": "function"
    },
    {
      "inputs": [
        {
          "internalType": "bytes32",
          "name": "recordId",
          "type": "bytes32"
        }
      ],
      "name": "releaseFunds",
      "outputs": [],
      "stateMutability": "nonpayable",
      "type": "function"
    },
    {
      "inputs": [
        {
          "internalType": "bytes32",
          "name": "role",
          "type": "bytes32"
        },
        {
          "internalType": "address",
          "name": "callerConfirmation",
          "type": "address"
        }
      ],
      "name": "renounceRole",
      "outputs": [],
      "stateMutability": "nonpayable",
      "type": "function"
    },
    {
      "inputs": [
        {
          "internalType": "address",
          "name": "account",
          "type": "address"
        },
        {
          "internalType": "string",
          "name": "reason",
          "type": "string"
        }
      ],
      "name": "revokeAuditorRole",
      "outputs": [],
      "stateMutability": "nonpayable",
      "type": "function"
    },
    {
      "inputs": [
        {
          "internalType": "address",
          "name": "account",
          "type": "address"
        },
        {
          "internalType": "string",
          "name": "reason",
          "type": "string"
        }
      ],
      "name": "revokeEmergencyRole",
      "outputs": [],
      "stateMutability": "nonpayable",
      "type": "function"
    },
    {
      "inputs": [
        {
          "internalType": "address",
          "name": "account",
          "type": "address"
        },
        {
          "internalType": "string",
          "name": "reason",
          "type": "string"
        }
      ],
      "name": "revokeQuarantineRole",
      "outputs": [],
      "stateMutability": "nonpayable",
      "type": "function"
    },
    {
      "inputs": [
        {
          "internalType": "address",
          "name": "account",
          "type": "address"
        },
        {
          "internalType": "string",
          "name": "reason",
          "type": "string"
        }
      ],
      "name": "revokeReleaseRole",
      "outputs": [],
      "stateMutability": "nonpayable",
      "type": "function"
    },
    {
      "inputs": [
        {
          "internalType": "bytes32",
          "name": "role",
          "type": "bytes32"
        },
        {
          "internalType": "address",
          "name": "account",
          "type": "address"
        }
      ],
      "name": "revokeRole",
      "outputs": [],
      "stateMutability": "nonpayable",
      "type": "function"
    },
    {
      "inputs": [
        {
          "internalType": "bytes4",
          "name": "interfaceId",
          "type": "bytes4"
        }
      ],
      "name": "supportsInterface",
      "outputs": [
        {
          "internalType": "bool",
          "name": "",
          "type": "bool"
        }
      ],
      "stateMutability": "view",
      "type": "function"
    },
    {
      "inputs": [
        {
          "internalType": "address",
          "name": "",
          "type": "address"
        }
      ],
      "name": "tokenQuarantinedAmount",
      "outputs": [
        {
          "internalType": "uint256",
          "name": "",
          "type": "uint256"
        }
      ],
      "stateMutability": "view",
      "type": "function"
    },
    {
      "inputs": [],
      "name": "totalQuarantined",
      "outputs": [
        {
          "internalType": "uint256",
          "name": "",
          "type": "uint256"
        }
      ],
      "stateMutability": "view",
      "type": "function"
    },
    {
      "inputs": [],
      "name": "totalQuarantinedAmount",
      "outputs": [
        {
          "internalType": "uint256",
          "name": "",
          "type": "uint256"
        }
      ],
      "stateMutability": "view",
      "type": "function"
    },
    {
      "inputs": [
        {
          "internalType": "address",
          "name": "token",
          "type": "address"
        }
      ],
      "name": "totalQuarantinedAmountForToken",
      "outputs": [
        {
          "internalType": "uint256",
          "name": "",
          "type": "uint256"
        }
      ],
      "stateMutability": "view",
      "type": "function"
    },
    {
      "inputs": [],
      "name": "totalReleased",
      "outputs": [
        {
          "internalType": "uint256",
          "name": "",
          "type": "uint256"
        }
      ],
      "stateMutability": "view",
      "type": "function"
    },
    {
      "inputs": [],
      "name": "totalReleasedAmount",
      "outputs": [
        {
          "internalType": "uint256",
          "name": "",
          "type": "uint256"
        }
      ],
      "stateMutability": "view",
      "type": "function"
    },
    {
      "inputs": [
        {
          "internalType": "address",
          "name": "",
          "type": "address"
        },
        {
          "internalType": "uint256",
          "name": "",
          "type": "uint256"
        }
      ],
      "name": "userRecords",
      "outputs": [
        {
          "internalType": "bytes32",
          "name": "",
          "type": "bytes32"
        }
      ],
      "stateMutability": "view",
      "type": "function"
    },
    {
      "inputs": [
        {
          "internalType": "address payable",
          "name": "to",
          "type": "address"
        }
      ],
      "name": "withdrawETH",
      "outputs": [],
      "stateMutability": "nonpayable",
      "type": "function"
    },
    {
      "stateMutability": "payable",
      "type": "receive"
    }
  ],
  "bytecode": "0x6080604052346100225761001161003f565b6040516139c56102b982396139c590f35b5f80fd5b6100336100336100339290565b90565b6100335f610026565b610047610138565b610059610052610036565b33906101ce565b506100837fe5a4ffcefcca8dd46f7e5d170b96705c21aeca3033cdc91846cd60a7c648ea2b610052565b506100ad7f59a1c48e5837ad7a7f3dcedcbe129bf3249ec4fbf651fd4f5e2600ead39fe2f5610052565b506100d77f63f32341a2c9659e28e2f3da14b2d4dc3b076a5eebd426f016534536cda2948e610052565b506101017fbf233dd2aafeb4d50879c4aa5c81e96d92f6e6945c906a58f9f2d1c1631b4b26610052565b50565b6100336001610026565b905f19905b9181191691161790565b9061012d61003361013492610026565b825461010e565b9055565b610155610143610104565b5f61014f610033610281565b0161011d565b565b9061016190610033565b5f5260205260405f2090565b61003390610181906001600160a01b031682565b6001600160a01b031690565b6100339061016d565b6100339061018d565b9061016190610196565b9060ff90610113565b151590565b906101c7610033610134926101b2565b82546101a9565b6101df6101db8383610299565b1590565b156102525761020360016101fe845f6101f88682610157565b0161019f565b6101b7565b61021f6102196102133393610033565b93610196565b91610196565b917f2f8788117e7eff1d82e926ec794901d17c78024a50270940304540a733656f0d61024a60405190565b5f90a4600190565b50505f90565b6100337f9b779b17422d0df92223018b32b4d1fa46e071723d6817e2486d003becc55f00610026565b610033610258565b60ff1690565b6100339054610289565b610033915f6101f86102b3936102ac5f90565b5082610157565b61028f56fe60806040526004361015610022575b3615610018575f80fd5b610020612df8565b005b5f3560e01c806301e647251461035157806301ffc9a71461034c57806308828aca146103475780631ab7b637146103425780631bbdcfd31461033d57806320df435914610338578063213681cd14610333578063248a9ca31461032e5780632598697b1461032957806327c830a914610324578063290d10c41461031f5780632f2ff15d1461031a578063317063ad14610315578063325e4b6514610310578063330461881461030b57806336568abe146103065780633dcf65c6146103015780633dd390b2146102fc57806344c63508146102f75780634a4e3bd5146102f25780634bfa5cc4146102ed57806351096b02146102e857806351858e27146102e35780635cba1b8f146102de578063690d8320146102d95780636df3eef8146102d45780636e1d616e146102cf57806370a473ff146102ca57806376c810b5146102c557806383273cd1146102c05780638a425fa1146102bb57806391d14854146102b65780639615a1ad146102b1578063a217fddf146102ac578063a454b039146102a7578063adf62e0f146102a2578063b34273dd1461029d578063c59d484714610298578063c92ee04314610293578063c98444f71461028e578063ca267f2814610289578063ce0a476414610284578063cfdbf2541461027f578063d547741f1461027a578063d7a94b9914610275578063d9975cb114610270578063e33b7de31461026b578063e85d28b914610266578063fe0dcf5914610261578063ff2f75a91461025c5763ffa1ad740361000e57611203565b61115c565b61112b565b61110f565b611078565b611047565b61102e565b611015565b610ffa565b610fd0565b610fb5565b610f96565b610f42565b610f11565b610ec6565b610e99565b610df0565b610dd5565b610da9565b610d8d565b610d72565b610d4c565b610d26565b610ced565b610c5e565b610c46565b610c2e565b610c13565b610bf0565b610bc9565b610b3d565b610b25565b610b06565b610a9b565b610a82565b610a69565b610a4e565b6109dd565b6109c4565b6109ab565b610990565b610975565b610939565b61091e565b6108f7565b610826565b61080d565b6107bf565b610776565b6106c9565b61065d565b805b0361035f57565b5f80fd5b9050359061037082610356565b565b9060208282031261035f5761038691610363565b90565b905b5f5260205260405f2090565b610386905b6001600160a01b031690565b6103869054610397565b6103869081565b61038690546103b2565b634e487b7160e01b5f52602260045260245ffd5b90600160028304921680156103f7575b60208310146103f257565b6103c3565b91607f16916103e7565b80545f93929161041d610413836103d7565b8085529360200190565b916001811690811561046c575060011461043657505050565b61044791929394505f5260205f2090565b915f925b8184106104585750500190565b80548484015260209093019260010161044b565b92949550505060ff1916825215156020020190565b9061038691610401565b634e487b7160e01b5f52604160045260245ffd5b90601f01601f1916810190811067ffffffffffffffff8211176104c157604052565b61048b565b906103706104e0926104d760405190565b93848092610481565b038361049f565b610386905b60ff1690565b61038690546104e7565b6103869060081c61039c565b61038690546104fc565b61051d906001610389565b610526816103a8565b91610533600183016103a8565b91610540600282016103b9565b9161054d600383016103b9565b9161055a600482016104c6565b91610567600583016104f2565b9161057460058201610508565b916103866007610586600685016103b9565b93016104f2565b6105969061039c565b9052565b90825f9392825e0152565b6105c66105cf6020936105d9936105ba815190565b80835293849260200190565b9586910161059a565b601f01601f191690565b0190565b9461063a610100979b9a98926106449261062d610655986106266103709e9961061f61064e9a60208f61061861012082019a5f83019061058d565b019061058d565b60408d0152565b60608b0152565b88820360808a01526105a5565b9a151560a0870152565b60c085019061058d565b60e0830152565b019015159052565b3461035f57610694610678610673366004610372565b610512565b9561068b99979995919594929460405190565b998a998a6105dd565b0390f35b6001600160e01b03198116610358565b9050359061037082610698565b9060208282031261035f57610386916106a8565b3461035f576106946106e46106df3660046106b5565b61122a565b60405191829182901515815260200190565b6103588161039c565b90503590610370826106f6565b909182601f8301121561035f5781359167ffffffffffffffff831161035f57602001926001830284011161035f57565b91909160408184031261035f5761075383826106ff565b92602082013567ffffffffffffffff811161035f57610772920161070c565b9091565b3461035f5761078f61078936600461073c565b91611320565b604051005b5f91031261035f57565b610386916008021c81565b90610386915461079e565b6103865f60096107a9565b3461035f576107cf366004610794565b6106946107da6107b4565b6040519182918290815260200190565b919060408382031261035f576103869060206108068286610363565b94016106ff565b3461035f5761078f6108203660046107ea565b906113fa565b3461035f57610836366004610794565b6106945f805160206138f98339815191526107da565b9061038690610100806108af610120840161086d5f8801515f87019061058d565b61087f6020880151602087019061058d565b61088e60408801516040870152565b61089d60608801516060870152565b608087015185820360808701526105a5565b60a080870151151590850152946108ce60c082015160c086019061058d565b6108dd60e082015160e0860152565b01511515910152565b60208082526103869291019061084c565b3461035f5761069461091261090d366004610372565b611539565b604051918291826108e6565b3461035f576106946107da610934366004610372565b611555565b3461035f5761078f61094c36600461073c565b916115f5565b610386916008021c6104ec565b906103869154610952565b6103865f600861095f565b3461035f57610985366004610794565b6106946106e461096a565b3461035f576109a0366004610794565b6106946106e4611600565b3461035f5761078f6109be3660046107ea565b90611628565b3461035f5761078f6109d736600461073c565b91611680565b3461035f5761078f6109f036600461073c565b916116e0565b9060208282031261035f57610386916106ff565b6103869061039c906001600160a01b031682565b61038690610a0a565b61038690610a1e565b9061038b90610a27565b5f610a4961038692600a610a30565b6107a9565b3461035f576106946107da610a643660046109f6565b610a3a565b3461035f5761078f610a7c3660046107ea565b906116eb565b3461035f5761078f610a9536600461073c565b91611772565b3461035f576106946107da610ab1366004610372565b6117bf565b9060808282031261035f57610acb81836106ff565b92610ad982602085016106ff565b92610ae78360408301610363565b92606082013567ffffffffffffffff811161035f57610772920161070c565b3461035f576106946107da610b1c366004610ab6565b93929092611874565b3461035f57610b35366004610794565b61078f6119ab565b3461035f57610b4d366004610794565b6106945f805160206139598339815191526107da565b90610b83610b7c610b72845190565b8084529260200190565b9260200190565b905f5b818110610b935750505090565b909192610bb0610ba96001928651815260200190565b9460200190565b929101610b86565b602080825261038692910190610b63565b3461035f57610694610be4610bdf3660046109f6565b611a35565b60405191829182610bb8565b3461035f57610c00366004610794565b61078f611b0a565b6103865f60036107a9565b3461035f57610c23366004610794565b6106946107da610c08565b3461035f5761078f610c413660046109f6565b611c2e565b3461035f5761078f610c59366004610372565b611d83565b3461035f57610c6e366004610794565b6106947f59a1c48e5837ad7a7f3dcedcbe129bf3249ec4fbf651fd4f5e2600ead39fe2f56107da565b909182601f8301121561035f5781359167ffffffffffffffff831161035f57602001926020830284011161035f57565b9060208282031261035f57813567ffffffffffffffff811161035f576107729201610c97565b3461035f5761078f610d00366004610cc7565b906121ed565b6103866103866103869290565b610386610e10610d06565b610386610d13565b3461035f57610d36366004610794565b6106946107da610d1e565b6103865f60066107a9565b3461035f57610d5c366004610794565b6106946107da610d41565b6103865f600b6107a9565b3461035f57610d82366004610794565b6106946107da610d67565b3461035f576106946106e4610da33660046107ea565b906121f7565b3461035f576106946107da610dbf3660046109f6565b61221c565b6103865f610d06565b610386610dc4565b3461035f57610de5366004610794565b6106946107da610dcd565b3461035f5761078f610e0336600461073c565b91612287565b909160808284031261035f57813567ffffffffffffffff811161035f5783610e32918401610c97565b929093602082013567ffffffffffffffff811161035f5781610e55918401610c97565b929093604082013567ffffffffffffffff811161035f5783610e78918401610c97565b929093606082013567ffffffffffffffff811161035f576107729201610c97565b3461035f5761078f610eac366004610e09565b96959095949194939293612c08565b6103865f60056107a9565b3461035f57610ed6366004610794565b6106946107da610ebb565b610f0d61037094610f06606094989795610eff608086019a5f870152565b6020850152565b6040830152565b0152565b3461035f57610f21366004610794565b610694610f2c612c18565b90610f3994929460405190565b94859485610ee1565b3461035f5761078f610f55366004610372565b612c7a565b60808183031261035f57610f6e82826106ff565b92610386610f7f84602085016106ff565b936060610f8f8260408701610363565b9401610363565b3461035f576106946107da610fac366004610f5a565b92919091612d05565b3461035f57610fc5366004610794565b6106946107da612d12565b3461035f5761078f610fe3366004610372565b612d2b565b6103866064610d06565b610386610fe8565b3461035f5761100a366004610794565b6106946107da610ff2565b3461035f5761078f6110283660046107ea565b90612d4f565b3461035f5761078f61104136600461073c565b91612d94565b3461035f57611057366004610794565b6106945f805160206139198339815191526107da565b6103865f60046107a9565b3461035f57611088366004610794565b6106946107da61106d565b919060408382031261035f57610386906020610f8f82866106ff565b634e487b7160e01b5f52603260045260245ffd5b80548210156110e3576110db6001915f5260205f2090565b910201905f90565b6110af565b6110f3906002610a30565b805482101561035f5761038691611109916110c3565b906107a9565b3461035f576106946107da611125366004611093565b906110e8565b3461035f5761078f61113e36600461073c565b91612dda565b60075481101561035f576111096103869160076110c3565b3461035f576106946107da611172366004610372565b611144565b9061037061118460405190565b928361049f565b67ffffffffffffffff81116104c157602090601f01601f19160190565b906111ba6111b58361118b565b611177565b918252565b6111c960056111a8565b64312e322e3160d81b602082015290565b6103866111bf565b6103866111da565b6103866111e2565b6020808252610386929101906105a5565b3461035f57611213366004610794565b61069461121e6111ea565b604051918291826111f2565b637965db0b60e01b6001600160e01b0319821614908115611249575090565b61038691506001600160e01b0319166301ffc9a760e01b1490565b90610370929161127a611275610dc4565b612e3b565b6112c0565b90825f939282370152565b91906105cf816112a1816105d99560209181520190565b809561127f565b9081526040602082018190526103869391019161128a565b9091905f805160206139398339815191526112fa6112f45f805160206139598339815191525b6112f08582612e46565b5090565b92610a27565b9261130433610a27565b9461131b61131160405190565b92839242846112a8565b0390a4565b906103709291611264565b61037091906113465f80516020613959833981519152612e3b565b9061135891611353612ec4565b6113cc565b610370612ef3565b61039c6103866103869290565b61038690611360565b1561137d57565b60405162461bcd60e51b815260206004820152602160248201527f5573652072656c6561736546756e647320666f72206f776e65722072657475726044820152603760f91b6064820152608490fd5b5f906113f5610370936113ef6113e96113e48661136d565b61039c565b9161039c565b14611376565b612efe565b906103709161132b565b610386610120611177565b611417611404565b905f8252602080808080808080808a015f8152015f8152015f81520160608152015f8152015f8152015f8152015f905250565b61038661140f565b906105969061039c565b90610370611526600761146d611404565b9461148061147a826103a8565b87611452565b61149861148f600183016103a8565b60208801611452565b6114ae6114a7600283016103b9565b6040880152565b6114c46114bd600383016103b9565b6060880152565b6114da6114d3600483016104c6565b6080880152565b6114f26114e9600583016104f2565b151560a0880152565b61150a61150160058301610508565b60c08801611452565b611520611519600683016103b9565b60e0880152565b016104f2565b1515610100840152565b6103869061145c565b6115506103869161154861144a565b506001610389565b611530565b600161156c610386926115655f90565b505f610389565b016103b9565b906103709291611583611275610dc4565b9190916115926113e45f61136d565b61159b8261039c565b146115e0575f805160206139798339815191526112fa6112f47f59a1c48e5837ad7a7f3dcedcbe129bf3249ec4fbf651fd4f5e2600ead39fe2f55b6112f0858261310b565b63e6c4247b60e01b5f908152600490fd5b035ffd5b906103709291611572565b61038660086104f2565b906103709161161b61127582611555565b906116259161310b565b50565b906103709161160a565b906103709291611643611275610dc4565b9091905f805160206139398339815191526112fa6112f47f59a1c48e5837ad7a7f3dcedcbe129bf3249ec4fbf651fd4f5e2600ead39fe2f56112e6565b906103709291611632565b90610370929161169c611275610dc4565b9190916116ab6113e45f61136d565b6116b48261039c565b146115e0575f805160206139798339815191526112fa6112f45f805160206139198339815191526115d6565b90610370929161168b565b906116f53361039c565b6116fe8261039c565b0361170c5761162591612e46565b63334bd91960e11b5f908152600490fd5b90610370929161172e611275610dc4565b91909161173d6113e45f61136d565b6117468261039c565b146115e0575f805160206139798339815191526112fa6112f45f805160206139598339815191526115d6565b90610370929161171d565b1561178457565b60405162461bcd60e51b8152602060048201526013602482015272496e646578206f7574206f6620626f756e647360681b6044820152606490fd5b611109610386916117cd5f90565b506117e46117dd61038660075490565b821061177d565b60076110c3565b61038695949392919061180a5f80516020613919833981519152612e3b565b90611820959493929161181b612ec4565b61185e565b90610370612ef3565b909291926118396111b58261118b565b938185528183011161035f5761037091602085019061127f565b610386913691611829565b9461186e91946103869650611853565b9261316e565b61038694939291905f6117eb565b6118985f805160206138f9833981519152612e3b565b6103706118f0565b634e487b7160e01b5f52601160045260245ffd5b919082039182116118c157565b6118a0565b9060ff905b9181191691161790565b906118e56103866118ec92151590565b82546118c6565b9055565b6119036118fd600b6103b9565b426118b4565b611915611911610386610d13565b9190565b10611997576119255f60086118d5565b7f4e8fee6624a216c6c87fdeaeaab7686889991b2c1ffcd95d51e9a30352e2908061194f60405190565b428152602090a161195f33610a27565b7f107553d8191d85b405879cf752997865edd48d94e20bda4dd27223c94b31a7cc61198960405190565b42815280602081015b0390a2565b600162579f1360e01b03195f908152600490fd5b610370611882565b906119cc6119c2610b72845490565b925f5260205f2090565b905f5b8181106119dc5750505090565b909192611a006119f96001926119f1876103b9565b815260200190565b9460010190565b9291016119cf565b90610386916119b3565b906103706104e092611a2360405190565b93848092611a08565b61038690611a12565b611a4c61038691611a44606090565b506002610a30565b611a2c565b611a675f805160206138f9833981519152612e3b565b610370611a8f565b905f19906118cb565b90611a886103866118ec92610d06565b8254611a6f565b611a9b600160086118d5565b611aa642600b611a78565b7f11d8c430ae8dff60717610a0356ce3ac35187fc9569e6adfe01d281cc1c167d5611ad060405190565b428152602090a1611ae033610a27565b7f80170b5fcdd2bf1e0660ef4b8851f86685f64d41b1a19de1471947ece8725aac61198960405190565b610370611a51565b61037090611b21611275610dc4565b611bc9565b15611b2d57565b60405162461bcd60e51b81526020600482015260126024820152714e6f2045544820746f20776974686472617760701b6044820152606490fd5b3d15611b8057611b763d6111a8565b903d5f602084013e565b606090565b15611b8c57565b60405162461bcd60e51b8152602060048201526015602482015274115512081dda5d1a191c985dd85b0819985a5b1959605a1b6044820152606490fd5b611bd56113e45f61136d565b611bde82610a27565b146115e0575f8061037092611c0f611bf530610a27565b3191611c0a611c0385610d06565b8411611b26565b610a27565b90611c1960405190565b90818003925af1611c28611b67565b50611b85565b61037090611b12565b61037090611c515f805160206138f9833981519152612e3b565b611c7c565b604090610f0d6103709496959396611c7560608401985f85019061058d565b6020830152565b611c8a610386826001610389565b611c96600382016103b9565b611ca26119115f610d06565b14611d6d57611cb3600582016104f2565b611d575760078101611cc4816104f2565b611d41576001611cd3916118d5565b611cdc816103a8565b7f3a1e7d28302968350a715d773c4579fedd8f19fccbd4329018245682d54b2e02611d1f6112f4611d1b6002611d14600188016103a8565b96016103b9565b9590565b92611d2933610a27565b9461131b611d3660405190565b928392429184611c56565b634f24523360e01b5f9081526004849052602490fd5b633da4d47160e01b5f9081526004839052602490fd5b6333853f3560e11b5f9081526004839052602490fd5b61037090611c37565b6103709190611da75f80516020613959833981519152612e3b565b9061135891611db4612ec4565b611ebd565b15611dc057565b60405162461bcd60e51b815260206004820152600f60248201526e426174636820746f6f206c6172676560881b6044820152606490fd5b91908110156110e3576020020190565b3561038681610356565b90610100600160a81b039060081b6118cb565b90611e346103866118ec92610a27565b8254611e11565b5f1981146118c15760010190565b919082018092116118c157565b15611e5d57565b60405162461bcd60e51b815260206004820152600d60248201526c51563a20756e646572666c6f7760981b6044820152606490fd5b610f0d61037094611eb3606094989795610eff608086019a5f87019061058d565b604083019061058d565b9091908291611ed9611ed0610386610fe8565b845b1115611db9565b611ee25f610d06565b835b8110156121e6576120d281611f05611f00611ee4948988611df7565b611e07565b6001611f146103868383610389565b90611f21600383016103b9565b611f2d6119115f610d06565b146121a15760058201611f3f816104f2565b61215a57611f4f600784016104f2565b61211c57611f5d60086104f2565b6120d957926120af6120a96120a561209f6120996120489761206988611fb28c611fab7f6ae0061b96cdaa5d4e2148b6a50da704f9b7ddd76d9a8cfe1afd1c9dcb50c3639c6120549f6118d5565b3390611e24565b611fbf4260068501611a78565b611fdb611fd4611fcf60046103b9565b611e3b565b6004611a78565b612063600284019c8d9261200a612003611ff4866103b9565b611ffe60066103b9565b611e49565b6006611a78565b61204e600a9187019e8f9561202d61203261202d6120278a6103a8565b87610a30565b6103b9565b612041611911610386856103b9565b1015611e56565b946103a8565b90610a30565b9161205e836103b9565b6118b4565b90611a78565b6120945f612079611c0a8c6103a8565b920191612085836103a8565b61208e8d6103b9565b916134df565b6103a8565b966103a8565b966103b9565b9290565b93610a27565b936120c96120bc60405190565b9283924291339185611e92565b0390a360010190565b9050611ee2565b5050505f805160206139998339815191526120f360405190565b60208082526006908201526514185d5cd95960d21b604082015280606081015b0390a260010190565b5050505f8051602061399983398151915261213660405190565b602080825260069082015265233937bd32b760d11b60408201528060608101612113565b5050505f8051602061399983398151915261217460405190565b6020808252600f908201526e105b1c9958591e54995b19585cd959608a1b60408201528060608101612113565b50505f805160206139998339815191526121ba60405190565b6020808252600e908201526d149958dbdc99139bdd119bdd5b9960921b60408201528060608101612113565b5092505050565b9061037091611d8c565b610386915f6122116122179361220a5f90565b5082610389565b01610a30565b6104f2565b61202d6103869161222a5f90565b50600a610a30565b906103709291612243611275610dc4565b9190916122526113e45f61136d565b61225b8261039c565b146115e0575f805160206139798339815191526112fa6112f45f805160206138f98339815191526115d6565b906103709291612232565b61037097969594939291906122b35f80516020613919833981519152612e3b565b90611358979695949392916122c6612ec4565b6126af565b156122d257565b60405162461bcd60e51b815260206004820152600f60248201526e098cadccee8d040dad2e6dac2e8c6d608b1b6044820152606490fd5b35610386816106f6565b61231f6105969161039c565b60601b90565b60206105d99461235060148399989596612350828761234861235099899c612313565b018092612313565b01918252565b61236060056111a8565b640c4c2e8c6d60db1b602082015290565b610386612356565b9050519061037082610356565b9060208282031261035f5761038691612379565b602081019291610370919061058d565b6040513d5f823e3d90fd5b610386905161039c565b906001600160a01b03906118cb565b906123de6103866118ec92610a27565b82546123bf565b915f1960089290920291821b911b6118cb565b91906124096103866118ec93610d06565b9083546123e5565b610370915f916123f8565b818110612427575050565b806124345f600193612411565b0161241c565b9190601f811161244957505050565b612459610370935f5260205f2090565b906020601f84018190048301931061247b575b6020601f90910104019061241c565b909150819061246c565b9061248e815190565b9067ffffffffffffffff82116104c1576124b2826124ac85546103d7565b8561243a565b602090601f83116001146124eb576118ec92915f91836124e0575b50505f19600883021c1916906002021790565b015190505f806124cd565b601f198316916124fe855f5260205f2090565b925f5b81811061253a57509160029391856001969410612522575b50505002019055565b01515f196008601f8516021c191690555f8080612519565b91936020600181928787015181550195019201612501565b9061037091612485565b60076126266101006103709461257c6125765f83016123b5565b866123ce565b61259461258b602083016123b5565b600187016123ce565b6125ab6125a2604083015190565b60028701611a78565b6125c26125b9606083015190565b60038701611a78565b6125d96125d0608083015190565b60048701612552565b612608600586016125f66125f060a0850151151590565b826118d5565b61260260c084016123b5565b90611e24565b61261f61261660e083015190565b60068701611a78565b0151151590565b91016118d5565b906103709161255c565b91906124096103866118ec9390565b90815491680100000000000000008310156104c1578261266e916001610370950181556110c3565b90612637565b9493916060916103709461269d6126aa9361269660808b01945f8c019061058d565b60208a0152565b87820360408901526105a5565b940152565b979697959391929490956126c360086104f2565b612bf757869786808a149081612be5575b5080612bcf575b6126e4906122cb565b6126f86126f2610386610fe8565b8a611ed2565b6127015f610d06565b89811015612bc25761271c612717828b86611df7565b612309565b6127255f61136d565b906127326113e98361039c565b146115e057612745612717838b8a611df7565b6127516113e98361039c565b146115e057612764611f00838789611df7565b6127706119115f610d06565b14612bb157612783612717838c87611df7565b6127cf612794612717858d8c611df7565b6127a2611f00868a8c611df7565b906127c36127b060096103b9565b6040519586946020860194429286612325565b9081038252038261049f565b6127e16127da825190565b9160200190565b20906127fa6127f3611fcf60096103b9565b6009611a78565b600161280b600361156c8584610389565b6128176119115f610d06565b03612b9b579088916128668f611c0a6127178f8f908a8583612841611f0084611c0a9a8198611df7565b6128506119116103865f610d06565b03612b8557505050612860612371565b98611df7565b906370a082319261287630610a27565b602061288160405190565b809561288d8860e01b90565b8252818061289e866004830161239a565b03915afa938415612b42578f8e8e8e8c945f99612b47575b50611c0a6127178686866129006129279e9f99978c6128f8611f0060209f9e611c0a9b6128f261291c9f6129059f8461271791611c0a93611df7565b95611df7565b91339061375e565b611df7565b9161290f60405190565b9788948593849360e01b90565b83526004830161239a565b03915afa938415612b42578f8f949061294c8f938b9889945f91612b14575b506118b4565b96612957918d611df7565b61296090612309565b9461296a92611df7565b61297390612309565b61297b611404565b936129869085611452565b6129939060208501611452565b61299e846040850152565b6129a9426060850152565b608083018590525f60a08401526129c39060c08401611452565b6129cc5f610d06565b60e08301525f610100830152846129e291610389565b906129ec9161262d565b8260026129fa868f8a611df7565b612a0390612309565b612a0c91610a30565b90612a1691612646565b612a21836007612646565b612a2b60036103b9565b612a3490611e3b565b612a3f906003611a78565b80612a4a60056103b9565b90612a5491611e49565b612a5f906005611a78565b600a612a6c858d8c611df7565b612a7590612309565b612a7e91610a30565b81612a88826103b9565b90612a9291611e49565b612a9b91611a78565b612aa6848d88611df7565b612aaf90612309565b91612abb858d8c611df7565b612ac490612309565b9392612acf90610a27565b93612ad960405190565b9283924291612ae89385612674565b037f2806f54f3e94ee0588ac4ed4ca8743d03b7059d285f5559e5e5dce40c8f6fc0891a3600101612701565b612b35915060203d8111612b3b575b612b2d818361049f565b810190612386565b5f612946565b503d612b23565b6123aa565b85995094869560209b9597929b3d8111612b7e575b612b66818361049f565b8101612b7191612386565b99955099909593996128b6565b503d612b5c565b61286092612b9692611f0092611df7565b6135f0565b6309a2223360e21b5f9081526004849052602490fd5b63162908e360e11b5f908152600490fd5b5098505050505050505050565b506126e483612bdd8c611911565b1490506126db565b9050612bf084611911565b145f6126d4565b6321db2b3360e11b5f908152600490fd5b9061037097969594939291612292565b612c2260036103b9565b90612c2d60046103b9565b91612c3860056103b9565b91612c4360066103b9565b9193929190565b61037090612c645f80516020613959833981519152612e3b565b61135890612c70612ec4565b5f61037091612efe565b61037090612c4a565b6103869493929190612ca15f80516020613919833981519152612e3b565b9061182094939291612cb1612ec4565b612cda565b612cc060066111a8565b651b585b9d585b60d21b602082015290565b610386612cb6565b506103869390929190612ced855f610d06565b8103612cfc575061186e612cd2565b61186e906135f0565b610386939291905f612c83565b61038660036103b9565b61037090612c64611275610dc4565b61037090612d1c565b9061037091612d4561127582611555565b9061162591612e46565b9061037091612d34565b906103709291612d6a611275610dc4565b9091905f805160206139398339815191526112fa6112f45f805160206138f98339815191526112e6565b906103709291612d59565b906103709291612db0611275610dc4565b9091905f805160206139398339815191526112fa6112f45f805160206139198339815191526112e6565b906103709291612d9f565b9081526040810192916103709160200152565b612e0133610a27565b7f7dd768b8b37911c0bb413d9cf56fcb57b286f5def4c57d475c8abdd6737b7e1e612e2b60405190565b80611992423483612de5565b1490565b61037090339061378a565b612e5082826121f7565b15612eb457612e6d5f612e6884826122118682610389565b6118d5565b612e81612e7b6120a9339390565b91610a27565b917ff6391f5c32d9c69d2a47ea670b442974b53935d1edc7fd64eb21e047a839171b612eac60405190565b5f90a4600190565b50505f90565b6103866002610d06565b612ecc6137b8565b610370612ed7612eba565b5f612ee3610386613800565b01611a78565b6103866001610d06565b610370612ed7612ee9565b90612f0d610386836001610389565b90612f1a600383016103b9565b612f266119115f610d06565b146130f5576005820190612f39826104f2565b6130df57612f49600784016104f2565b90816130d6575b50611d4157612f5f60086104f2565b612bf757612f6e6001826118d5565b33612f7891611e24565b612f854260068301611a78565b612f8f60046103b9565b612f9890611e3b565b612fa3906004611a78565b60028101612fb0816103b9565b612fba60066103b9565b90612fc491611e49565b612fcf906006611a78565b6001820191612fdd836103a8565b612fe890600a610a30565b612ff1906103b9565b612ffa836103b9565b111561300590611e56565b61300e826103b9565b613017846103a8565b61302290600a610a30565b9061302c826103b9565b90613036916118b4565b61303f91611a78565b613048836103a8565b61305190610a27565b61305a826103a8565b613063846103b9565b9061306d926134df565b613076906103a8565b91613080906103a8565b9061308a906103b9565b929161309590610a27565b9261309f60405190565b918291429033906130b09385611e92565b037f6ae0061b96cdaa5d4e2148b6a50da704f9b7ddd76d9a8cfe1afd1c9dcb50c36391a3565b1590505f612f50565b633da4d47160e01b5f9081526004859052602490fd5b6333853f3560e11b5f9081526004849052602490fd5b61311c61311883836121f7565b1590565b15612eb4576131356001612e68845f6122118682610389565b613143612e7b6120a9339390565b917f2f8788117e7eff1d82e926ec794901d17c78024a50270940304540a733656f0d612eac60405190565b9091926131785f90565b506131825f61136d565b9061318c8261039c565b6131958461039c565b146115e0576131a38261039c565b6131ac8561039c565b146115e0576131ba5f610d06565b8514612bb1576131ca60086104f2565b612bf7576131d860096103b9565b6131f86131e460405190565b80926127c36020830191428b8b8b86612325565b6132036127da825190565b20946132156127f3611fcf60096103b9565b600192613227600361156c8987610389565b6132336119115f610d06565b036134c9576132b19061328f613247611404565b916132528884611452565b61325f8960208501611452565b61326a856040850152565b613275426060850152565b613280866080850152565b5f60a084015260c08301611452565b61329b61064e5f610d06565b5f6101008201526132ac8886610389565b61262d565b6132c8866132c3610386876002610a30565b612646565b6132d3866007612646565b6132ea6132e3611fcf60036103b9565b6003611a78565b6133026132fb82611ffe60056103b9565b6005611a78565b600a9261331f6133128786610a30565b61206384611ffe836103b9565b61332886610a27565b9361333285610a27565b6370a082319061334130610a27565b9161334b60405190565b976133568260e01b90565b895260208980613369876004830161239a565b0381865afa988915612b42575f99613491575b509161291c8492613395896133a597602097339061375e565b6040519586948593849360e01b90565b03915afa958615612b42577f2806f54f3e94ee0588ac4ed4ca8743d03b7059d285f5559e5e5dce40c8f6fc08966133e2925f9161347857506118b4565b92878985838103613423575b5061341d9450613408935091506134029050565b95610a27565b9561341260405190565b938493429285612674565b0390a390565b611ffe61346894613440836002612ee36134629761346d9c610389565b6134556132fb84611ffe8461205e60056103b9565b61205e61202d8689610a30565b92610a30565b611a78565b5f80808789856133ee565b612b35915060203d602011612b3b57612b2d818361049f565b6020939199508492613395896133a5976134ba61291c95893d8b11612b3b57612b2d818361049f565b9d95975050505092945061337c565b6309a2223360e21b5f9081526004889052602490fd5b916001613118916134f09385613808565b6134f75750565b6115f16135045f92610a27565b635274afe760e01b83526004830161239a565b61352160106111a8565b6f181899199a1a9b1b9c1cb0b131b232b360811b602082015290565b610386613517565b369037565b9061037061356061355a846111a8565b9361118b565b601f190160208401613545565b90613576825190565b8110156110e3570160200190565b6104ec6103866103869260ff1690565b6103869060f81c613584565b6104ec6103866103869290565b6104ec906135c86135c16103869460ff1690565b9160ff1690565b901c90565b6103866103866103869260ff1690565b818102929181159184041417156118c157565b906135f961353d565b61360b6136066042610d06565b61354a565b90603061362061361a5f610d06565b8461356d565b53600193849190607861363b61363585610d06565b8661356d565b536136455f610d06565b925b613658575b50505061038691925090565b60209261366484610d06565b81101561375857838110156110e35761368182821a60f81b613594565b906136b16136a361363561369e61369860046135a0565b866135ad565b6135cd565b516001600160f81b03191690565b946002956136e06136d66136cd6136c78a610d06565b866135dd565b611ffe8a610d06565b915f1a918961356d565b538110156110e357879461374b6137416137326137166136a36137106137529861370a600f6135a0565b166135cd565b8a61356d565b93611ffe61372c61372683610d06565b886135dd565b91610d06565b61373b89610d06565b90611e49565b915f1a918861356d565b5360010190565b92613647565b5061364c565b926001906134f0936131189386613870565b916020610370929493610f0d60408201965f83019061058d565b9061379861311882846121f7565b6137a0575050565b63e2517d3f60e01b5f908152916115f1916004613770565b6137c06138db565b6137c657565b633ee5aeb560e01b5f908152600490fd5b6103867f9b779b17422d0df92223018b32b4d1fa46e071723d6817e2486d003becc55f00610d06565b6103866137d7565b60405163a9059cbb60e01b5f9081526001600160a01b039093166004526024939093529293929060209060448180855af19360015f511485161561384e575b5050604052565b8492941516613867575f903b113d151616915f80613847565b833d5f823e3d90fd5b6040516323b872dd60e01b5f9081526001600160a01b0393841660045293909216602452604493909352929392919060209060648180855af19360015f51148516156138c2575b50506040525f606052565b8492941516613867575f903b113d151616915f806138b7565b6138ea5f61156c610386613800565b612e37611911610386612eba56febf233dd2aafeb4d50879c4aa5c81e96d92f6e6945c906a58f9f2d1c1631b4b26e5a4ffcefcca8dd46f7e5d170b96705c21aeca3033cdc91846cd60a7c648ea2bfcf6f7b79149c04f9387b4ab24ba2b7ca0edce3642a75e43ec9a5a41fb924b5363f32341a2c9659e28e2f3da14b2d4dc3b076a5eebd426f016534536cda2948e26c5264b502d6057e1a4377e90dd7bdad79766d1694ee3204ed9ad4ce061aacd54f2b63b5fda6b16c70e4d260451d9b37faa0f24d9057273c1d35c0e0cdbbbd3a164736f6c634300081a000a",
  "linkReferences": {},
  "deployedLinkReferences": {}
}