{
  "_format": "hh-sol-artifact-1",
  "contractName": "QuarantineVault",
  "sourceName": "contracts/QuarantineVault.sol",
  "abi": [
    {
      "inputs": [],
      "stateMutability": "nonpayable",
      "type": "constructor"
    },
    {
      "inputs": [],
      "name": "AccessControlBadConfirmation",
      "type": "error"
    },
    {
      "inputs": [
        {
          "internalType": "address",
          "name": "account",
          "type": "address"
        },
        {
          "internalType": "bytes32",
          "name": "neededRole",
          "type": "bytes32"
        }
      ],
      "name": "AccessControlUnauthorizedAccount",
      "type": "error"
    },
    {
      "inputs": [
        {
          "internalType": "bytes32",
          "name": "recordId",
          "type": "bytes32"
        }
      ],
      "name": "AlreadyFrozen",
      "type": "error"
    },
    {
      "inputs": [
        {
          "internalType": "bytes32",
          "name": "recordId",
          "type": "bytes32"
        }
      ],
      "name": "AlreadyReleased",
      "type": "error"
    },
    {
      "inputs": [],
      "name": "BatchTooLarge",
      "type": "error"
    },
    {
      "inputs": [],
      "name": "EmergencyCooldownActive",
      "type": "error"
    },
    {
      "inputs": [],
      "name": "EmergencyPausedError",
      "type": "error"
    },
    {
      "inputs": [],
      "name": "InvalidAddress",
      "type": "error"
    },
    {
      "inputs": [],
      "name": "InvalidAmount",
      "type": "error"
    },
    {
      "inputs": [
        {
          "internalType": "bytes32",
          "name": "recordId",
          "type": "bytes32"
        }
      ],
      "name": "RecordAlreadyExists",
      "type": "error"
    },
    {
      "inputs": [
        {
          "internalType": "bytes32",
          "name": "recordId",
          "type": "bytes32"
        }
      ],
      "name": "RecordNotFound",
      "type": "error"
    },
    {
      "inputs": [],
      "name": "ReentrancyGuardReentrantCall",
      "type": "error"
    },
    {
      "inputs": [
        {
          "internalType": "address",
          "name": "token",
          "type": "address"
        }
      ],
      "name": "SafeERC20FailedOperation",
      "type": "error"
    },
    {
      "inputs": [],
      "name": "UnauthorizedRelease",
      "type": "error"
    },
    {
      "anonymous": false,
      "inputs": [
        {
          "indexed": true,
          "internalType": "bytes32",
          "name": "recordId",
          "type": "bytes32"
        },
        {
          "indexed": false,
          "internalType": "string",
          "name": "reason",
          "type": "string"
        }
      ],
      "name": "BatchReleaseFailed",
      "type": "event"
    },
    {
      "anonymous": false,
      "inputs": [
        {
          "indexed": true,
          "internalType": "address",
          "name": "account",
          "type": "address"
        },
        {
          "indexed": false,
          "internalType": "uint256",
          "name": "timestamp",
          "type": "uint256"
        }
      ],
      "name": "ContractPaused",
      "type": "event"
    },
    {
      "anonymous": false,
      "inputs": [
        {
          "indexed": true,
          "internalType": "address",
          "name": "account",
          "type": "address"
        },
        {
          "indexed": false,
          "internalType": "uint256",
          "name": "timestamp",
          "type": "uint256"
        }
      ],
      "name": "ContractUnpaused",
      "type": "event"
    },
    {
      "anonymous": false,
      "inputs": [
        {
          "indexed": true,
          "internalType": "address",
          "name": "sender",
          "type": "address"
        },
        {
          "indexed": false,
          "internalType": "uint256",
          "name": "amount",
          "type": "uint256"
        },
        {
          "indexed": false,
          "internalType": "uint256",
          "name": "timestamp",
          "type": "uint256"
        }
      ],
      "name": "ETHReceived",
      "type": "event"
    },
    {
      "anonymous": false,
      "inputs": [
        {
          "indexed": false,
          "internalType": "uint256",
          "name": "timestamp",
          "type": "uint256"
        }
      ],
      "name": "EmergencyPaused",
      "type": "event"
    },
    {
      "anonymous": false,
      "inputs": [
        {
          "indexed": false,
          "internalType": "uint256",
          "name": "timestamp",
          "type": "uint256"
        }
      ],
      "name": "EmergencyUnpaused",
      "type": "event"
    },
    {
      "anonymous": false,
      "inputs": [
        {
          "indexed": true,
          "internalType": "bytes32",
          "name": "recordId",
          "type": "bytes32"
        },
        {
          "indexed": true,
          "internalType": "address",
          "name": "originalOwner",
          "type": "address"
        },
        {
          "indexed": false,
          "internalType": "address",
          "name": "token",
          "type": "address"
        },
        {
          "indexed": false,
          "internalType": "uint256",
          "name": "amount",
          "type": "uint256"
        },
        {
          "indexed": true,
          "internalType": "address",
          "name": "by",
          "type": "address"
        },
        {
          "indexed": false,
          "internalType": "uint256",
          "name": "timestamp",
          "type": "uint256"
        }
      ],
      "name": "FundsFrozen",
      "type": "event"
    },
    {
      "anonymous": false,
      "inputs": [
        {
          "indexed": true,
          "internalType": "bytes32",
          "name": "recordId",
          "type": "bytes32"
        },
        {
          "indexed": true,
          "internalType": "address",
          "name": "originalOwner",
          "type": "address"
        },
        {
          "indexed": false,
          "internalType": "address",
          "name": "token",
          "type": "address"
        },
        {
          "indexed": false,
          "internalType": "uint256",
          "name": "amount",
          "type": "uint256"
        },
        {
          "indexed": false,
          "internalType": "string",
          "name": "reason",
          "type": "string"
        },
        {
          "indexed": false,
          "internalType": "uint256",
          "name": "timestamp",
          "type": "uint256"
        }
      ],
      "name": "FundsQuarantined",
      "type": "event"
    },
    {
      "anonymous": false,
      "inputs": [
        {
          "indexed": true,
          "internalType": "bytes32",
          "name": "recordId",
          "type": "bytes32"
        },
        {
          "indexed": true,
          "internalType": "address",
          "name": "originalOwner",
          "type": "address"
        },
        {
          "indexed": false,
          "internalType": "address",
          "name": "token",
          "type": "address"
        },
        {
          "indexed": false,
          "internalType": "uint256",
          "name": "amount",
          "type": "uint256"
        },
        {
          "indexed": false,
          "internalType": "address",
          "name": "releasedBy",
          "type": "address"
        },
        {
          "indexed": false,
          "internalType": "uint256",
          "name": "timestamp",
          "type": "uint256"
        }
      ],
      "name": "FundsReleased",
      "type": "event"
    },
    {
      "anonymous": false,
      "inputs": [
        {
          "indexed": true,
          "internalType": "bytes32",
          "name": "role",
          "type": "bytes32"
        },
        {
          "indexed": true,
          "internalType": "bytes32",
          "name": "previousAdminRole",
          "type": "bytes32"
        },
        {
          "indexed": true,
          "internalType": "bytes32",
          "name": "newAdminRole",
          "type": "bytes32"
        }
      ],
      "name": "RoleAdminChanged",
      "type": "event"
    },
    {
      "anonymous": false,
      "inputs": [
        {
          "indexed": true,
          "internalType": "bytes32",
          "name": "role",
          "type": "bytes32"
        },
        {
          "indexed": true,
          "internalType": "address",
          "name": "account",
          "type": "address"
        },
        {
          "indexed": true,
          "internalType": "address",
          "name": "sender",
          "type": "address"
        }
      ],
      "name": "RoleGranted",
      "type": "event"
    },
    {
      "anonymous": false,
      "inputs": [
        {
          "indexed": true,
          "internalType": "bytes32",
          "name": "role",
          "type": "bytes32"
        },
        {
          "indexed": true,
          "internalType": "address",
          "name": "account",
          "type": "address"
        },
        {
          "indexed": true,
          "internalType": "address",
          "name": "sender",
          "type": "address"
        },
        {
          "indexed": false,
          "internalType": "uint256",
          "name": "timestamp",
          "type": "uint256"
        },
        {
          "indexed": false,
          "internalType": "string",
          "name": "reason",
          "type": "string"
        }
      ],
      "name": "RoleGrantedDetailed",
      "type": "event"
    },
    {
      "anonymous": false,
      "inputs": [
        {
          "indexed": true,
          "internalType": "bytes32",
          "name": "role",
          "type": "bytes32"
        },
        {
          "indexed": true,
          "internalType": "address",
          "name": "account",
          "type": "address"
        },
        {
          "indexed": true,
          "internalType": "address",
          "name": "sender",
          "type": "address"
        }
      ],
      "name": "RoleRevoked",
      "type": "event"
    },
    {
      "anonymous": false,
      "inputs": [
        {
          "indexed": true,
          "internalType": "bytes32",
          "name": "role",
          "type": "bytes32"
        },
        {
          "indexed": true,
          "internalType": "address",
          "name": "account",
          "type": "address"
        },
        {
          "indexed": true,
          "internalType": "address",
          "name": "sender",
          "type": "address"
        },
        {
          "indexed": false,
          "internalType": "uint256",
          "name": "timestamp",
          "type": "uint256"
        },
        {
          "indexed": false,
          "internalType": "string",
          "name": "reason",
          "type": "string"
        }
      ],
      "name": "RoleRevokedDetailed",
      "type": "event"
    },
    {
      "anonymous": false,
      "inputs": [
        {
          "indexed": false,
          "internalType": "string",
          "name": "functionName",
          "type": "string"
        },
        {
          "indexed": false,
          "internalType": "uint256",
          "name": "timestamp",
          "type": "uint256"
        }
      ],
      "name": "ZeroAddressRejected",
      "type": "event"
    },
    {
      "inputs": [],
      "name": "AUDITOR_ROLE",
      "outputs": [
        {
          "internalType": "bytes32",
          "name": "",
          "type": "bytes32"
        }
      ],
      "stateMutability": "view",
      "type": "function"
    },
    {
      "inputs": [],
      "name": "DEFAULT_ADMIN_ROLE",
      "outputs": [
        {
          "internalType": "bytes32",
          "name": "",
          "type": "bytes32"
        }
      ],
      "stateMutability": "view",
      "type": "function"
    },
    {
      "inputs": [],
      "name": "EMERGENCY_ROLE",
      "outputs": [
        {
          "internalType": "bytes32",
          "name": "",
          "type": "bytes32"
        }
      ],
      "stateMutability": "view",
      "type": "function"
    },
    {
      "inputs": [],
      "name": "MAX_BATCH_SIZE",
      "outputs": [
        {
          "internalType": "uint256",
          "name": "",
          "type": "uint256"
        }
      ],
      "stateMutability": "view",
      "type": "function"
    },
    {
      "inputs": [],
      "name": "MIN_PAUSE_DURATION",
      "outputs": [
        {
          "internalType": "uint256",
          "name": "",
          "type": "uint256"
        }
      ],
      "stateMutability": "view",
      "type": "function"
    },
    {
      "inputs": [],
      "name": "QUARANTINE_ROLE",
      "outputs": [
        {
          "internalType": "bytes32",
          "name": "",
          "type": "bytes32"
        }
      ],
      "stateMutability": "view",
      "type": "function"
    },
    {
      "inputs": [],
      "name": "RELEASE_ROLE",
      "outputs": [
        {
          "internalType": "bytes32",
          "name": "",
          "type": "bytes32"
        }
      ],
      "stateMutability": "view",
      "type": "function"
    },
    {
      "inputs": [],
      "name": "VERSION",
      "outputs": [
        {
          "internalType": "string",
          "name": "",
          "type": "string"
        }
      ],
      "stateMutability": "view",
      "type": "function"
    },
    {
      "inputs": [
        {
          "internalType": "uint256",
          "name": "index",
          "type": "uint256"
        }
      ],
      "name": "allRecordIds",
      "outputs": [
        {
          "internalType": "bytes32",
          "name": "",
          "type": "bytes32"
        }
      ],
      "stateMutability": "view",
      "type": "function"
    },
    {
      "inputs": [
        {
          "internalType": "address[]",
          "name": "owners",
          "type": "address[]"
        },
        {
          "internalType": "address[]",
          "name": "tokens",
          "type": "address[]"
        },
        {
          "internalType": "uint256[]",
          "name": "amounts",
          "type": "uint256[]"
        },
        {
          "internalType": "bytes32[]",
          "name": "reasons",
          "type": "bytes32[]"
        }
      ],
      "name": "batchDeposit",
      "outputs": [],
      "stateMutability": "nonpayable",
      "type": "function"
    },
    {
      "inputs": [
        {
          "internalType": "bytes32[]",
          "name": "ids",
          "type": "bytes32[]"
        }
      ],
      "name": "batchReleaseFunds",
      "outputs": [],
      "stateMutability": "nonpayable",
      "type": "function"
    },
    {
      "inputs": [
        {
          "internalType": "address",
          "name": "originalOwner",
          "type": "address"
        },
        {
          "internalType": "address",
          "name": "token",
          "type": "address"
        },
        {
          "internalType": "uint256",
          "name": "amount",
          "type": "uint256"
        },
        {
          "internalType": "bytes32",
          "name": "reasonHash",
          "type": "bytes32"
        }
      ],
      "name": "deposit",
      "outputs": [
        {
          "internalType": "bytes32",
          "name": "recordId",
          "type": "bytes32"
        }
      ],
      "stateMutability": "nonpayable",
      "type": "function"
    },
    {
      "inputs": [],
      "name": "emergencyPause",
      "outputs": [],
      "stateMutability": "nonpayable",
      "type": "function"
    },
    {
      "inputs": [],
      "name": "emergencyPaused",
      "outputs": [
        {
          "internalType": "bool",
          "name": "",
          "type": "bool"
        }
      ],
      "stateMutability": "view",
      "type": "function"
    },
    {
      "inputs": [],
      "name": "emergencyUnpause",
      "outputs": [],
      "stateMutability": "nonpayable",
      "type": "function"
    },
    {
      "inputs": [
        {
          "internalType": "bytes32",
          "name": "recordId",
          "type": "bytes32"
        }
      ],
      "name": "freezePermanently",
      "outputs": [],
      "stateMutability": "nonpayable",
      "type": "function"
    },
    {
      "inputs": [
        {
          "internalType": "bytes32",
          "name": "recordId",
          "type": "bytes32"
        }
      ],
      "name": "getRecord",
      "outputs": [
        {
          "components": [
            {
              "internalType": "address",
              "name": "originalOwner",
              "type": "address"
            },
            {
              "internalType": "address",
              "name": "token",
              "type": "address"
            },
            {
              "internalType": "uint256",
              "name": "amount",
              "type": "uint256"
            },
            {
              "internalType": "uint256",
              "name": "timestamp",
              "type": "uint256"
            },
            {
              "internalType": "string",
              "name": "reason",
              "type": "string"
            },
            {
              "internalType": "bool",
              "name": "released",
              "type": "bool"
            },
            {
              "internalType": "address",
              "name": "releasedBy",
              "type": "address"
            },
            {
              "internalType": "uint256",
              "name": "releasedAt",
              "type": "uint256"
            },
            {
              "internalType": "bool",
              "name": "frozen",
              "type": "bool"
            }
          ],
          "internalType": "struct QuarantineVault.QuarantineRecord",
          "name": "",
          "type": "tuple"
        }
      ],
      "stateMutability": "view",
      "type": "function"
    },
    {
      "inputs": [],
      "name": "getRecordCount",
      "outputs": [
        {
          "internalType": "uint256",
          "name": "",
          "type": "uint256"
        }
      ],
      "stateMutability": "view",
      "type": "function"
    },
    {
      "inputs": [
        {
          "internalType": "bytes32",
          "name": "role",
          "type": "bytes32"
        }
      ],
      "name": "getRoleAdmin",
      "outputs": [
        {
          "internalType": "bytes32",
          "name": "",
          "type": "bytes32"
        }
      ],
      "stateMutability": "view",
      "type": "function"
    },
    {
      "inputs": [],
      "name": "getStats",
      "outputs": [
        {
          "internalType": "uint256",
          "name": "",
          "type": "uint256"
        },
        {
          "internalType": "uint256",
          "name": "",
          "type": "uint256"
        },
        {
          "internalType": "uint256",
          "name": "",
          "type": "uint256"
        },
        {
          "internalType": "uint256",
          "name": "",
          "type": "uint256"
        }
      ],
      "stateMutability": "view",
      "type": "function"
    },
    {
      "inputs": [
        {
          "internalType": "address",
          "name": "user",
          "type": "address"
        }
      ],
      "name": "getUserRecords",
      "outputs": [
        {
          "internalType": "bytes32[]",
          "name": "",
          "type": "bytes32[]"
        }
      ],
      "stateMutability": "view",
      "type": "function"
    },
    {
      "inputs": [
        {
          "internalType": "bytes32",
          "name": "recordId",
          "type": "bytes32"
        }
      ],
      "name": "governanceUnlock",
      "outputs": [],
      "stateMutability": "nonpayable",
      "type": "function"
    },
    {
      "inputs": [
        {
          "internalType": "address",
          "name": "account",
          "type": "address"
        },
        {
          "internalType": "string",
          "name": "reason",
          "type": "string"
        }
      ],
      "name": "grantAuditorRole",
      "outputs": [],
      "stateMutability": "nonpayable",
      "type": "function"
    },
    {
      "inputs": [
        {
          "internalType": "address",
          "name": "account",
          "type": "address"
        },
        {
          "internalType": "string",
          "name": "reason",
          "type": "string"
        }
      ],
      "name": "grantEmergencyRole",
      "outputs": [],
      "stateMutability": "nonpayable",
      "type": "function"
    },
    {
      "inputs": [
        {
          "internalType": "address",
          "name": "account",
          "type": "address"
        },
        {
          "internalType": "string",
          "name": "reason",
          "type": "string"
        }
      ],
      "name": "grantQuarantineRole",
      "outputs": [],
      "stateMutability": "nonpayable",
      "type": "function"
    },
    {
      "inputs": [
        {
          "internalType": "address",
          "name": "account",
          "type": "address"
        },
        {
          "internalType": "string",
          "name": "reason",
          "type": "string"
        }
      ],
      "name": "grantReleaseRole",
      "outputs": [],
      "stateMutability": "nonpayable",
      "type": "function"
    },
    {
      "inputs": [
        {
          "internalType": "bytes32",
          "name": "role",
          "type": "bytes32"
        },
        {
          "internalType": "address",
          "name": "account",
          "type": "address"
        }
      ],
      "name": "grantRole",
      "outputs": [],
      "stateMutability": "nonpayable",
      "type": "function"
    },
    {
      "inputs": [
        {
          "internalType": "bytes32",
          "name": "role",
          "type": "bytes32"
        },
        {
          "internalType": "address",
          "name": "account",
          "type": "address"
        }
      ],
      "name": "hasRole",
      "outputs": [
        {
          "internalType": "bool",
          "name": "",
          "type": "bool"
        }
      ],
      "stateMutability": "view",
      "type": "function"
    },
    {
      "inputs": [],
      "name": "isEmergencyPaused",
      "outputs": [
        {
          "internalType": "bool",
          "name": "",
          "type": "bool"
        }
      ],
      "stateMutability": "view",
      "type": "function"
    },
    {
      "inputs": [],
      "name": "lastPauseAt",
      "outputs": [
        {
          "internalType": "uint256",
          "name": "",
          "type": "uint256"
        }
      ],
      "stateMutability": "view",
      "type": "function"
    },
    {
      "inputs": [
        {
          "internalType": "address",
          "name": "originalOwner",
          "type": "address"
        },
        {
          "internalType": "address",
          "name": "token",
          "type": "address"
        },
        {
          "internalType": "uint256",
          "name": "amount",
          "type": "uint256"
        },
        {
          "internalType": "string",
          "name": "reason",
          "type": "string"
        }
      ],
      "name": "quarantineFunds",
      "outputs": [
        {
          "internalType": "bytes32",
          "name": "recordId",
          "type": "bytes32"
        }
      ],
      "stateMutability": "nonpayable",
      "type": "function"
    },
    {
      "inputs": [
        {
          "internalType": "uint256",
          "name": "",
          "type": "uint256"
        }
      ],
      "name": "recordIdList",
      "outputs": [
        {
          "internalType": "bytes32",
          "name": "",
          "type": "bytes32"
        }
      ],
      "stateMutability": "view",
      "type": "function"
    },
    {
      "inputs": [],
      "name": "recordNonce",
      "outputs": [
        {
          "internalType": "uint256",
          "name": "",
          "type": "uint256"
        }
      ],
      "stateMutability": "view",
      "type": "function"
    },
    {
      "inputs": [
        {
          "internalType": "bytes32",
          "name": "",
          "type": "bytes32"
        }
      ],
      "name": "records",
      "outputs": [
        {
          "internalType": "address",
          "name": "originalOwner",
          "type": "address"
        },
        {
          "internalType": "address",
          "name": "token",
          "type": "address"
        },
        {
          "internalType": "uint256",
          "name": "amount",
          "type": "uint256"
        },
        {
          "internalType": "uint256",
          "name": "timestamp",
          "type": "uint256"
        },
        {
          "internalType": "string",
          "name": "reason",
          "type": "string"
        },
        {
          "internalType": "bool",
          "name": "released",
          "type": "bool"
        },
        {
          "internalType": "address",
          "name": "releasedBy",
          "type": "address"
        },
        {
          "internalType": "uint256",
          "name": "releasedAt",
          "type": "uint256"
        },
        {
          "internalType": "bool",
          "name": "frozen",
          "type": "bool"
        }
      ],
      "stateMutability": "view",
      "type": "function"
    },
    {
      "inputs": [
        {
          "internalType": "bytes32",
          "name": "recordId",
          "type": "bytes32"
        },
        {
          "internalType": "address",
          "name": "to",
          "type": "address"
        }
      ],
      "name": "release",
      "outputs": [],
      "stateMutability": "nonpayable",
      "type": "function"
    },
    {
      "inputs": [
        {
          "internalType": "bytes32",
          "name": "recordId",
          "type": "bytes32"
        }
      ],
      "name": "releaseFunds",
      "outputs": [],
      "stateMutability": "nonpayable",
      "type": "function"
    },
    {
      "inputs": [
        {
          "internalType": "bytes32",
          "name": "role",
          "type": "bytes32"
        },
        {
          "internalType": "address",
          "name": "callerConfirmation",
          "type": "address"
        }
      ],
      "name": "renounceRole",
      "outputs": [],
      "stateMutability": "nonpayable",
      "type": "function"
    },
    {
      "inputs": [
        {
          "internalType": "address",
          "name": "account",
          "type": "address"
        },
        {
          "internalType": "string",
          "name": "reason",
          "type": "string"
        }
      ],
      "name": "revokeAuditorRole",
      "outputs": [],
      "stateMutability": "nonpayable",
      "type": "function"
    },
    {
      "inputs": [
        {
          "internalType": "address",
          "name": "account",
          "type": "address"
        },
        {
          "internalType": "string",
          "name": "reason",
          "type": "string"
        }
      ],
      "name": "revokeEmergencyRole",
      "outputs": [],
      "stateMutability": "nonpayable",
      "type": "function"
    },
    {
      "inputs": [
        {
          "internalType": "address",
          "name": "account",
          "type": "address"
        },
        {
          "internalType": "string",
          "name": "reason",
          "type": "string"
        }
      ],
      "name": "revokeQuarantineRole",
      "outputs": [],
      "stateMutability": "nonpayable",
      "type": "function"
    },
    {
      "inputs": [
        {
          "internalType": "address",
          "name": "account",
          "type": "address"
        },
        {
          "internalType": "string",
          "name": "reason",
          "type": "string"
        }
      ],
      "name": "revokeReleaseRole",
      "outputs": [],
      "stateMutability": "nonpayable",
      "type": "function"
    },
    {
      "inputs": [
        {
          "internalType": "bytes32",
          "name": "role",
          "type": "bytes32"
        },
        {
          "internalType": "address",
          "name": "account",
          "type": "address"
        }
      ],
      "name": "revokeRole",
      "outputs": [],
      "stateMutability": "nonpayable",
      "type": "function"
    },
    {
      "inputs": [
        {
          "internalType": "bytes4",
          "name": "interfaceId",
          "type": "bytes4"
        }
      ],
      "name": "supportsInterface",
      "outputs": [
        {
          "internalType": "bool",
          "name": "",
          "type": "bool"
        }
      ],
      "stateMutability": "view",
      "type": "function"
    },
    {
      "inputs": [
        {
          "internalType": "address",
          "name": "",
          "type": "address"
        }
      ],
      "name": "tokenQuarantinedAmount",
      "outputs": [
        {
          "internalType": "uint256",
          "name": "",
          "type": "uint256"
        }
      ],
      "stateMutability": "view",
      "type": "function"
    },
    {
      "inputs": [],
      "name": "totalQuarantined",
      "outputs": [
        {
          "internalType": "uint256",
          "name": "",
          "type": "uint256"
        }
      ],
      "stateMutability": "view",
      "type": "function"
    },
    {
      "inputs": [],
      "name": "totalQuarantinedAmount",
      "outputs": [
        {
          "internalType": "uint256",
          "name": "",
          "type": "uint256"
        }
      ],
      "stateMutability": "view",
      "type": "function"
    },
    {
      "inputs": [
        {
          "internalType": "address",
          "name": "token",
          "type": "address"
        }
      ],
      "name": "totalQuarantinedAmountForToken",
      "outputs": [
        {
          "internalType": "uint256",
          "name": "",
          "type": "uint256"
        }
      ],
      "stateMutability": "view",
      "type": "function"
    },
    {
      "inputs": [],
      "name": "totalReleased",
      "outputs": [
        {
          "internalType": "uint256",
          "name": "",
          "type": "uint256"
        }
      ],
      "stateMutability": "view",
      "type": "function"
    },
    {
      "inputs": [],
      "name": "totalReleasedAmount",
      "outputs": [
        {
          "internalType": "uint256",
          "name": "",
          "type": "uint256"
        }
      ],
      "stateMutability": "view",
      "type": "function"
    },
    {
      "inputs": [
        {
          "internalType": "address",
          "name": "",
          "type": "address"
        },
        {
          "internalType": "uint256",
          "name": "",
          "type": "uint256"
        }
      ],
      "name": "userRecords",
      "outputs": [
        {
          "internalType": "bytes32",
          "name": "",
          "type": "bytes32"
        }
      ],
      "stateMutability": "view",
      "type": "function"
    },
    {
      "inputs": [
        {
          "internalType": "address payable",
          "name": "to",
          "type": "address"
        }
      ],
      "name": "withdrawETH",
      "outputs": [],
      "stateMutability": "nonpayable",
      "type": "function"
    },
    {
      "stateMutability": "payable",
      "type": "receive"
    }
  ],
  "bytecode": "0x6080604052346100225761001161003f565b6040516139fa61035682396139fa90f35b5f80fd5b6100336100336100339290565b90565b6100335f610026565b610047610145565b61010f610052610036565b61005c33826101d9565b506100897fe5a4ffcefcca8dd46f7e5d170b96705c21aeca3033cdc91846cd60a7c648ea2b5b33906101d9565b506100b37f59a1c48e5837ad7a7f3dcedcbe129bf3249ec4fbf651fd4f5e2600ead39fe2f5610082565b506100dd7f63f32341a2c9659e28e2f3da14b2d4dc3b076a5eebd426f016534536cda2948e610082565b506101077fbf233dd2aafeb4d50879c4aa5c81e96d92f6e6945c906a58f9f2d1c1631b4b26610082565b503390610264565b565b6100336001610026565b905f19905b9181191691161790565b9061013a61003361014192610026565b825461011b565b9055565b61010f610150610111565b5f61015c6100336102c2565b0161012a565b9061016c90610033565b5f5260205260405f2090565b6100339061018c906001600160a01b031682565b6001600160a01b031690565b61003390610178565b61003390610198565b9061016c906101a1565b9060ff90610120565b151590565b906101d2610033610141926101bd565b82546101b4565b6101ea6101e683836102da565b1590565b1561025e5761020e6001610209845f6102038682610162565b016101aa565b6101c2565b61022b61022561021f335b93610033565b936101a1565b916101a1565b917f2f8788117e7eff1d82e926ec794901d17c78024a50270940304540a733656f0d61025660405190565b5f90a4600190565b50505f90565b9061026e3361018c565b6102778261018c565b0361028857610285916102f9565b50565b63334bd91960e11b5f908152600490fd5b6100337f9b779b17422d0df92223018b32b4d1fa46e071723d6817e2486d003becc55f00610026565b610033610299565b60ff1690565b61003390546102ca565b610033915f6102036102f4936102ed5f90565b5082610162565b6102d0565b61030382826102da565b1561025e5761031b5f61020984826102038682610162565b61032a61022561021f33610219565b917ff6391f5c32d9c69d2a47ea670b442974b53935d1edc7fd64eb21e047a839171b6102566040519056fe60806040526004361015610022575b3615610018575f80fd5b610020612e0a565b005b5f3560e01c806301e647251461035157806301ffc9a71461034c57806308828aca146103475780631ab7b637146103425780631bbdcfd31461033d57806320df435914610338578063213681cd14610333578063248a9ca31461032e5780632598697b1461032957806327c830a914610324578063290d10c41461031f5780632f2ff15d1461031a578063317063ad14610315578063325e4b6514610310578063330461881461030b57806336568abe146103065780633dcf65c6146103015780633dd390b2146102fc57806344c63508146102f75780634a4e3bd5146102f25780634bfa5cc4146102ed57806351096b02146102e857806351858e27146102e35780635cba1b8f146102de578063690d8320146102d95780636df3eef8146102d45780636e1d616e146102cf57806370a473ff146102ca57806376c810b5146102c557806383273cd1146102c05780638a425fa1146102bb57806391d14854146102b65780639615a1ad146102b1578063a217fddf146102ac578063a454b039146102a7578063adf62e0f146102a2578063b34273dd1461029d578063c59d484714610298578063c92ee04314610293578063c98444f71461028e578063ca267f2814610289578063ce0a476414610284578063cfdbf2541461027f578063d547741f1461027a578063d7a94b9914610275578063d9975cb114610270578063e33b7de31461026b578063e85d28b914610266578063fe0dcf5914610261578063ff2f75a91461025c5763ffa1ad740361000e57611203565b61115c565b61112b565b61110f565b611078565b611047565b61102e565b611015565b610ffa565b610fd0565b610fb5565b610f96565b610f42565b610f11565b610ec6565b610e99565b610df0565b610dd5565b610da9565b610d8d565b610d72565b610d4c565b610d26565b610ced565b610c5e565b610c46565b610c2e565b610c13565b610bf0565b610bc9565b610b3d565b610b25565b610b06565b610a9b565b610a82565b610a69565b610a4e565b6109dd565b6109c4565b6109ab565b610990565b610975565b610939565b61091e565b6108f7565b610826565b61080d565b6107bf565b610776565b6106c9565b61065d565b805b0361035f57565b5f80fd5b9050359061037082610356565b565b9060208282031261035f5761038691610363565b90565b905b5f5260205260405f2090565b610386905b6001600160a01b031690565b6103869054610397565b6103869081565b61038690546103b2565b634e487b7160e01b5f52602260045260245ffd5b90600160028304921680156103f7575b60208310146103f257565b6103c3565b91607f16916103e7565b80545f93929161041d610413836103d7565b8085529360200190565b916001811690811561046c575060011461043657505050565b61044791929394505f5260205f2090565b915f925b8184106104585750500190565b80548484015260209093019260010161044b565b92949550505060ff1916825215156020020190565b9061038691610401565b634e487b7160e01b5f52604160045260245ffd5b90601f01601f1916810190811067ffffffffffffffff8211176104c157604052565b61048b565b906103706104e0926104d760405190565b93848092610481565b038361049f565b610386905b60ff1690565b61038690546104e7565b6103869060081c61039c565b61038690546104fc565b61051d906001610389565b610526816103a8565b91610533600183016103a8565b91610540600282016103b9565b9161054d600383016103b9565b9161055a600482016104c6565b91610567600583016104f2565b9161057460058201610508565b916103866007610586600685016103b9565b93016104f2565b6105969061039c565b9052565b90825f9392825e0152565b6105c66105cf6020936105d9936105ba815190565b80835293849260200190565b9586910161059a565b601f01601f191690565b0190565b9461063a610100979b9a98926106449261062d610655986106266103709e9961061f61064e9a60208f61061861012082019a5f83019061058d565b019061058d565b60408d0152565b60608b0152565b88820360808a01526105a5565b9a151560a0870152565b60c085019061058d565b60e0830152565b019015159052565b3461035f57610694610678610673366004610372565b610512565b9561068b99979995919594929460405190565b998a998a6105dd565b0390f35b6001600160e01b03198116610358565b9050359061037082610698565b9060208282031261035f57610386916106a8565b3461035f576106946106e46106df3660046106b5565b61122a565b60405191829182901515815260200190565b6103588161039c565b90503590610370826106f6565b909182601f8301121561035f5781359167ffffffffffffffff831161035f57602001926001830284011161035f57565b91909160408184031261035f5761075383826106ff565b92602082013567ffffffffffffffff811161035f57610772920161070c565b9091565b3461035f5761078f61078936600461073c565b91611320565b604051005b5f91031261035f57565b610386916008021c81565b90610386915461079e565b6103865f60096107a9565b3461035f576107cf366004610794565b6106946107da6107b4565b6040519182918290815260200190565b919060408382031261035f576103869060206108068286610363565b94016106ff565b3461035f5761078f6108203660046107ea565b906113fa565b3461035f57610836366004610794565b6106945f8051602061392e8339815191526107da565b9061038690610100806108af610120840161086d5f8801515f87019061058d565b61087f6020880151602087019061058d565b61088e60408801516040870152565b61089d60608801516060870152565b608087015185820360808701526105a5565b60a080870151151590850152946108ce60c082015160c086019061058d565b6108dd60e082015160e0860152565b01511515910152565b60208082526103869291019061084c565b3461035f5761069461091261090d366004610372565b611539565b604051918291826108e6565b3461035f576106946107da610934366004610372565b611555565b3461035f5761078f61094c36600461073c565b916115f5565b610386916008021c6104ec565b906103869154610952565b6103865f600861095f565b3461035f57610985366004610794565b6106946106e461096a565b3461035f576109a0366004610794565b6106946106e4611600565b3461035f5761078f6109be3660046107ea565b90611628565b3461035f5761078f6109d736600461073c565b91611680565b3461035f5761078f6109f036600461073c565b916116e0565b9060208282031261035f57610386916106ff565b6103869061039c906001600160a01b031682565b61038690610a0a565b61038690610a1e565b9061038b90610a27565b5f610a4961038692600a610a30565b6107a9565b3461035f576106946107da610a643660046109f6565b610a3a565b3461035f5761078f610a7c3660046107ea565b906116eb565b3461035f5761078f610a9536600461073c565b91611772565b3461035f576106946107da610ab1366004610372565b6117bf565b9060808282031261035f57610acb81836106ff565b92610ad982602085016106ff565b92610ae78360408301610363565b92606082013567ffffffffffffffff811161035f57610772920161070c565b3461035f576106946107da610b1c366004610ab6565b93929092611874565b3461035f57610b35366004610794565b61078f6119ab565b3461035f57610b4d366004610794565b6106945f8051602061398e8339815191526107da565b90610b83610b7c610b72845190565b8084529260200190565b9260200190565b905f5b818110610b935750505090565b909192610bb0610ba96001928651815260200190565b9460200190565b929101610b86565b602080825261038692910190610b63565b3461035f57610694610be4610bdf3660046109f6565b611a35565b60405191829182610bb8565b3461035f57610c00366004610794565b61078f611b0a565b6103865f60036107a9565b3461035f57610c23366004610794565b6106946107da610c08565b3461035f5761078f610c413660046109f6565b611c3a565b3461035f5761078f610c59366004610372565b611d8f565b3461035f57610c6e366004610794565b6106947f59a1c48e5837ad7a7f3dcedcbe129bf3249ec4fbf651fd4f5e2600ead39fe2f56107da565b909182601f8301121561035f5781359167ffffffffffffffff831161035f57602001926020830284011161035f57565b9060208282031261035f57813567ffffffffffffffff811161035f576107729201610c97565b3461035f5761078f610d00366004610cc7565b906121f9565b6103866103866103869290565b610386610e10610d06565b610386610d13565b3461035f57610d36366004610794565b6106946107da610d1e565b6103865f60066107a9565b3461035f57610d5c366004610794565b6106946107da610d41565b6103865f600b6107a9565b3461035f57610d82366004610794565b6106946107da610d67565b3461035f576106946106e4610da33660046107ea565b90612203565b3461035f576106946107da610dbf3660046109f6565b612228565b6103865f610d06565b610386610dc4565b3461035f57610de5366004610794565b6106946107da610dcd565b3461035f5761078f610e0336600461073c565b91612293565b909160808284031261035f57813567ffffffffffffffff811161035f5783610e32918401610c97565b929093602082013567ffffffffffffffff811161035f5781610e55918401610c97565b929093604082013567ffffffffffffffff811161035f5783610e78918401610c97565b929093606082013567ffffffffffffffff811161035f576107729201610c97565b3461035f5761078f610eac366004610e09565b96959095949194939293612c1a565b6103865f60056107a9565b3461035f57610ed6366004610794565b6106946107da610ebb565b610f0d61037094610f06606094989795610eff608086019a5f870152565b6020850152565b6040830152565b0152565b3461035f57610f21366004610794565b610694610f2c612c2a565b90610f3994929460405190565b94859485610ee1565b3461035f5761078f610f55366004610372565b612c8c565b60808183031261035f57610f6e82826106ff565b92610386610f7f84602085016106ff565b936060610f8f8260408701610363565b9401610363565b3461035f576106946107da610fac366004610f5a565b92919091612d17565b3461035f57610fc5366004610794565b6106946107da612d24565b3461035f5761078f610fe3366004610372565b612d3d565b6103866064610d06565b610386610fe8565b3461035f5761100a366004610794565b6106946107da610ff2565b3461035f5761078f6110283660046107ea565b90612d61565b3461035f5761078f61104136600461073c565b91612da6565b3461035f57611057366004610794565b6106945f8051602061394e8339815191526107da565b6103865f60046107a9565b3461035f57611088366004610794565b6106946107da61106d565b919060408382031261035f57610386906020610f8f82866106ff565b634e487b7160e01b5f52603260045260245ffd5b80548210156110e3576110db6001915f5260205f2090565b910201905f90565b6110af565b6110f3906002610a30565b805482101561035f5761038691611109916110c3565b906107a9565b3461035f576106946107da611125366004611093565b906110e8565b3461035f5761078f61113e36600461073c565b91612dec565b60075481101561035f576111096103869160076110c3565b3461035f576106946107da611172366004610372565b611144565b9061037061118460405190565b928361049f565b67ffffffffffffffff81116104c157602090601f01601f19160190565b906111ba6111b58361118b565b611177565b918252565b6111c960056111a8565b64312e322e3160d81b602082015290565b6103866111bf565b6103866111da565b6103866111e2565b6020808252610386929101906105a5565b3461035f57611213366004610794565b61069461121e6111ea565b604051918291826111f2565b637965db0b60e01b6001600160e01b0319821614908115611249575090565b61038691506001600160e01b0319166301ffc9a760e01b1490565b90610370929161127a611275610dc4565b612e4d565b6112c0565b90825f939282370152565b91906105cf816112a1816105d99560209181520190565b809561127f565b9081526040602082018190526103869391019161128a565b9091905f8051602061396e8339815191526112fa6112f45f8051602061398e8339815191525b6112f08582612e58565b5090565b92610a27565b9261130433610a27565b9461131b61131160405190565b92839242846112a8565b0390a4565b906103709291611264565b61037091906113465f8051602061398e833981519152612e4d565b9061135891611353612ed6565b6113cc565b610370612f05565b61039c6103866103869290565b61038690611360565b1561137d57565b60405162461bcd60e51b815260206004820152602160248201527f5573652072656c6561736546756e647320666f72206f776e65722072657475726044820152603760f91b6064820152608490fd5b5f906113f5610370936113ef6113e96113e48661136d565b61039c565b9161039c565b14611376565b612f10565b906103709161132b565b610386610120611177565b611417611404565b905f8252602080808080808080808a015f8152015f8152015f81520160608152015f8152015f8152015f8152015f905250565b61038661140f565b906105969061039c565b90610370611526600761146d611404565b9461148061147a826103a8565b87611452565b61149861148f600183016103a8565b60208801611452565b6114ae6114a7600283016103b9565b6040880152565b6114c46114bd600383016103b9565b6060880152565b6114da6114d3600483016104c6565b6080880152565b6114f26114e9600583016104f2565b151560a0880152565b61150a61150160058301610508565b60c08801611452565b611520611519600683016103b9565b60e0880152565b016104f2565b1515610100840152565b6103869061145c565b6115506103869161154861144a565b506001610389565b611530565b600161156c610386926115655f90565b505f610389565b016103b9565b906103709291611583611275610dc4565b9190916115926113e45f61136d565b61159b8261039c565b146115e0575f805160206139ae8339815191526112fa6112f47f59a1c48e5837ad7a7f3dcedcbe129bf3249ec4fbf651fd4f5e2600ead39fe2f55b6112f0858261311d565b63e6c4247b60e01b5f908152600490fd5b035ffd5b906103709291611572565b61038660086104f2565b906103709161161b61127582611555565b906116259161311d565b50565b906103709161160a565b906103709291611643611275610dc4565b9091905f8051602061396e8339815191526112fa6112f47f59a1c48e5837ad7a7f3dcedcbe129bf3249ec4fbf651fd4f5e2600ead39fe2f56112e6565b906103709291611632565b90610370929161169c611275610dc4565b9190916116ab6113e45f61136d565b6116b48261039c565b146115e0575f805160206139ae8339815191526112fa6112f45f8051602061394e8339815191526115d6565b90610370929161168b565b906116f53361039c565b6116fe8261039c565b0361170c5761162591612e58565b63334bd91960e11b5f908152600490fd5b90610370929161172e611275610dc4565b91909161173d6113e45f61136d565b6117468261039c565b146115e0575f805160206139ae8339815191526112fa6112f45f8051602061398e8339815191526115d6565b90610370929161171d565b1561178457565b60405162461bcd60e51b8152602060048201526013602482015272496e646578206f7574206f6620626f756e647360681b6044820152606490fd5b611109610386916117cd5f90565b506117e46117dd61038660075490565b821061177d565b60076110c3565b61038695949392919061180a5f8051602061394e833981519152612e4d565b90611820959493929161181b612ed6565b61185e565b90610370612f05565b909291926118396111b58261118b565b938185528183011161035f5761037091602085019061127f565b610386913691611829565b9461186e91946103869650611853565b926131a3565b61038694939291905f6117eb565b6118985f8051602061392e833981519152612e4d565b6103706118f0565b634e487b7160e01b5f52601160045260245ffd5b919082039182116118c157565b6118a0565b9060ff905b9181191691161790565b906118e56103866118ec92151590565b82546118c6565b9055565b6119036118fd600b6103b9565b426118b4565b611915611911610386610d13565b9190565b10611997576119255f60086118d5565b7f4e8fee6624a216c6c87fdeaeaab7686889991b2c1ffcd95d51e9a30352e2908061194f60405190565b428152602090a161195f33610a27565b7f107553d8191d85b405879cf752997865edd48d94e20bda4dd27223c94b31a7cc61198960405190565b42815280602081015b0390a2565b600162579f1360e01b03195f908152600490fd5b610370611882565b906119cc6119c2610b72845490565b925f5260205f2090565b905f5b8181106119dc5750505090565b909192611a006119f96001926119f1876103b9565b815260200190565b9460010190565b9291016119cf565b90610386916119b3565b906103706104e092611a2360405190565b93848092611a08565b61038690611a12565b611a4c61038691611a44606090565b506002610a30565b611a2c565b611a675f8051602061392e833981519152612e4d565b610370611a8f565b905f19906118cb565b90611a886103866118ec92610d06565b8254611a6f565b611a9b600160086118d5565b611aa642600b611a78565b7f11d8c430ae8dff60717610a0356ce3ac35187fc9569e6adfe01d281cc1c167d5611ad060405190565b428152602090a1611ae033610a27565b7f80170b5fcdd2bf1e0660ef4b8851f86685f64d41b1a19de1471947ece8725aac61198960405190565b610370611a51565b61037090611b21611275610dc4565b61135890611b2d612ed6565b611bd5565b15611b3957565b60405162461bcd60e51b81526020600482015260126024820152714e6f2045544820746f20776974686472617760701b6044820152606490fd5b3d15611b8c57611b823d6111a8565b903d5f602084013e565b606090565b15611b9857565b60405162461bcd60e51b8152602060048201526015602482015274115512081dda5d1a191c985dd85b0819985a5b1959605a1b6044820152606490fd5b611be16113e45f61136d565b611bea82610a27565b146115e0575f8061037092611c1b611c0130610a27565b3191611c16611c0f85610d06565b8411611b32565b610a27565b90611c2560405190565b90818003925af1611c34611b73565b50611b91565b61037090611b12565b61037090611c5d5f8051602061392e833981519152612e4d565b611c88565b604090610f0d6103709496959396611c8160608401985f85019061058d565b6020830152565b611c96610386826001610389565b611ca2600382016103b9565b611cae6119115f610d06565b14611d7957611cbf600582016104f2565b611d635760078101611cd0816104f2565b611d4d576001611cdf916118d5565b611ce8816103a8565b7f3a1e7d28302968350a715d773c4579fedd8f19fccbd4329018245682d54b2e02611d2b6112f4611d276002611d20600188016103a8565b96016103b9565b9590565b92611d3533610a27565b9461131b611d4260405190565b928392429184611c62565b634f24523360e01b5f9081526004849052602490fd5b633da4d47160e01b5f9081526004839052602490fd5b6333853f3560e11b5f9081526004839052602490fd5b61037090611c43565b6103709190611db35f8051602061398e833981519152612e4d565b9061135891611dc0612ed6565b611ec9565b15611dcc57565b60405162461bcd60e51b815260206004820152600f60248201526e426174636820746f6f206c6172676560881b6044820152606490fd5b91908110156110e3576020020190565b3561038681610356565b90610100600160a81b039060081b6118cb565b90611e406103866118ec92610a27565b8254611e1d565b5f1981146118c15760010190565b919082018092116118c157565b15611e6957565b60405162461bcd60e51b815260206004820152600d60248201526c51563a20756e646572666c6f7760981b6044820152606490fd5b610f0d61037094611ebf606094989795610eff608086019a5f87019061058d565b604083019061058d565b9091908291611ee5611edc610386610fe8565b845b1115611dc5565b611eee5f610d06565b835b8110156121f2576120de81611f11611f0c611ef0948988611e03565b611e13565b6001611f206103868383610389565b90611f2d600383016103b9565b611f396119115f610d06565b146121ad5760058201611f4b816104f2565b61216657611f5b600784016104f2565b61212857611f6960086104f2565b6120e557926120bb6120b56120b16120ab6120a56120549761207588611fbe8c611fb77f6ae0061b96cdaa5d4e2148b6a50da704f9b7ddd76d9a8cfe1afd1c9dcb50c3639c6120609f6118d5565b3390611e30565b611fcb4260068501611a78565b611fe7611fe0611fdb60046103b9565b611e47565b6004611a78565b61206f600284019c8d9261201661200f612000866103b9565b61200a60066103b9565b611e55565b6006611a78565b61205a600a9187019e8f9561203961203e6120396120338a6103a8565b87610a30565b6103b9565b61204d611911610386856103b9565b1015611e62565b946103a8565b90610a30565b9161206a836103b9565b6118b4565b90611a78565b6120a05f612085611c168c6103a8565b920191612091836103a8565b61209a8d6103b9565b91613514565b6103a8565b966103a8565b966103b9565b9290565b93610a27565b936120d56120c860405190565b9283924291339185611e9e565b0390a360010190565b9050611eee565b5050505f805160206139ce8339815191526120ff60405190565b60208082526006908201526514185d5cd95960d21b604082015280606081015b0390a260010190565b5050505f805160206139ce83398151915261214260405190565b602080825260069082015265233937bd32b760d11b6040820152806060810161211f565b5050505f805160206139ce83398151915261218060405190565b6020808252600f908201526e105b1c9958591e54995b19585cd959608a1b6040820152806060810161211f565b50505f805160206139ce8339815191526121c660405190565b6020808252600e908201526d149958dbdc99139bdd119bdd5b9960921b6040820152806060810161211f565b5092505050565b9061037091611d98565b610386915f61221d612223936122165f90565b5082610389565b01610a30565b6104f2565b612039610386916122365f90565b50600a610a30565b90610370929161224f611275610dc4565b91909161225e6113e45f61136d565b6122678261039c565b146115e0575f805160206139ae8339815191526112fa6112f45f8051602061392e8339815191526115d6565b90610370929161223e565b61037097969594939291906122bf5f8051602061394e833981519152612e4d565b90611358979695949392916122d2612ed6565b6126bf565b156122de57565b60405162461bcd60e51b815260206004820152600f60248201526e098cadccee8d040dad2e6dac2e8c6d608b1b6044820152606490fd5b35610386816106f6565b61232b6105969161039c565b60601b90565b6105d994612358602060149661236088839c9b986123608289612358889b6123609d61231f565b01809261231f565b01918252565b61237060056111a8565b640c4c2e8c6d60db1b602082015290565b610386612366565b9050519061037082610356565b9060208282031261035f5761038691612389565b602081019291610370919061058d565b6040513d5f823e3d90fd5b610386905161039c565b906001600160a01b03906118cb565b906123ee6103866118ec92610a27565b82546123cf565b915f1960089290920291821b911b6118cb565b91906124196103866118ec93610d06565b9083546123f5565b610370915f91612408565b818110612437575050565b806124445f600193612421565b0161242c565b9190601f811161245957505050565b612469610370935f5260205f2090565b906020601f84018190048301931061248b575b6020601f90910104019061242c565b909150819061247c565b9061249e815190565b9067ffffffffffffffff82116104c1576124c2826124bc85546103d7565b8561244a565b602090601f83116001146124fb576118ec92915f91836124f0575b50505f19600883021c1916906002021790565b015190505f806124dd565b601f1983169161250e855f5260205f2090565b925f5b81811061254a57509160029391856001969410612532575b50505002019055565b01515f196008601f8516021c191690555f8080612529565b91936020600181928787015181550195019201612511565b9061037091612495565b60076126366101006103709461258c6125865f83016123c5565b866123de565b6125a461259b602083016123c5565b600187016123de565b6125bb6125b2604083015190565b60028701611a78565b6125d26125c9606083015190565b60038701611a78565b6125e96125e0608083015190565b60048701612562565b6126186005860161260661260060a0850151151590565b826118d5565b61261260c084016123c5565b90611e30565b61262f61262660e083015190565b60068701611a78565b0151151590565b91016118d5565b906103709161256c565b91906124196103866118ec9390565b90815491680100000000000000008310156104c1578261267e916001610370950181556110c3565b90612647565b949391606091610370946126ad6126ba936126a660808b01945f8c019061058d565b60208a0152565b87820360408901526105a5565b940152565b979697959391929490956126d360086104f2565b612c0957869786808a149081612bf7575b5080612be1575b6126f4906122d7565b612708612702610386610fe8565b8a611ede565b6127115f610d06565b89811015612bd45761272c612727828b86611e03565b612315565b6127355f61136d565b906127426113e98361039c565b146115e057612755612727838b8a611e03565b6127616113e98361039c565b146115e057612774611f0c838789611e03565b6127806119115f610d06565b14612bc357612793612727838c87611e03565b6127e16127a4612727858d8c611e03565b916127b3611f0c868a8c611e03565b6127d56127c060096103b9565b60405195869460208601943392429287612331565b9081038252038261049f565b6127f36127ec825190565b9160200190565b209061280c612805611fdb60096103b9565b6009611a78565b600161281d600361156c8584610389565b6128296119115f610d06565b03612bad579088916128788f611c166127278f8f908a8583612853611f0c84611c169a8198611e03565b6128626119116103865f610d06565b03612b9757505050612872612381565b98611e03565b906370a082319261288830610a27565b602061289360405190565b809561289f8860e01b90565b825281806128b086600483016123aa565b03915afa938415612b54578f8e8e8e8c945f99612b59575b50611c166127278686866129126129399e9f99978c61290a611f0c60209f9e611c169b61290461292e9f6129179f8461272791611c1693611e03565b95611e03565b913390613793565b611e03565b9161292160405190565b9788948593849360e01b90565b8352600483016123aa565b03915afa938415612b54578f8f949061295e8f938b9889945f91612b26575b506118b4565b96612969918d611e03565b61297290612315565b9461297c92611e03565b61298590612315565b61298d611404565b936129989085611452565b6129a59060208501611452565b6129b0846040850152565b6129bb426060850152565b608083018590525f60a08401526129d59060c08401611452565b6129de5f610d06565b60e08301525f610100830152846129f491610389565b906129fe9161263d565b826002612a0c868f8a611e03565b612a1590612315565b612a1e91610a30565b90612a2891612656565b612a33836007612656565b612a3d60036103b9565b612a4690611e47565b612a51906003611a78565b80612a5c60056103b9565b90612a6691611e55565b612a71906005611a78565b600a612a7e858d8c611e03565b612a8790612315565b612a9091610a30565b81612a9a826103b9565b90612aa491611e55565b612aad91611a78565b612ab8848d88611e03565b612ac190612315565b91612acd858d8c611e03565b612ad690612315565b9392612ae190610a27565b93612aeb60405190565b9283924291612afa9385612684565b037f2806f54f3e94ee0588ac4ed4ca8743d03b7059d285f5559e5e5dce40c8f6fc0891a3600101612711565b612b47915060203d8111612b4d575b612b3f818361049f565b810190612396565b5f612958565b503d612b35565b6123ba565b85995094869560209b9597929b3d8111612b90575b612b78818361049f565b8101612b8391612396565b99955099909593996128c8565b503d612b6e565b61287292612ba892611f0c92611e03565b613625565b6309a2223360e21b5f9081526004849052602490fd5b63162908e360e11b5f908152600490fd5b5098505050505050505050565b506126f483612bef8c611911565b1490506126eb565b9050612c0284611911565b145f6126e4565b6321db2b3360e11b5f908152600490fd5b906103709796959493929161229e565b612c3460036103b9565b90612c3f60046103b9565b91612c4a60056103b9565b91612c5560066103b9565b9193929190565b61037090612c765f8051602061398e833981519152612e4d565b61135890612c82612ed6565b5f61037091612f10565b61037090612c5c565b6103869493929190612cb35f8051602061394e833981519152612e4d565b9061182094939291612cc3612ed6565b612cec565b612cd260066111a8565b651b585b9d585b60d21b602082015290565b610386612cc8565b506103869390929190612cff855f610d06565b8103612d0e575061186e612ce4565b61186e90613625565b610386939291905f612c95565b61038660036103b9565b61037090612c76611275610dc4565b61037090612d2e565b9061037091612d5761127582611555565b9061162591612e58565b9061037091612d46565b906103709291612d7c611275610dc4565b9091905f8051602061396e8339815191526112fa6112f45f8051602061392e8339815191526112e6565b906103709291612d6b565b906103709291612dc2611275610dc4565b9091905f8051602061396e8339815191526112fa6112f45f8051602061394e8339815191526112e6565b906103709291612db1565b9081526040810192916103709160200152565b612e1333610a27565b7f7dd768b8b37911c0bb413d9cf56fcb57b286f5def4c57d475c8abdd6737b7e1e612e3d60405190565b80611992423483612df7565b1490565b6103709033906137bf565b612e628282612203565b15612ec657612e7f5f612e7a848261221d8682610389565b6118d5565b612e93612e8d6120b5339390565b91610a27565b917ff6391f5c32d9c69d2a47ea670b442974b53935d1edc7fd64eb21e047a839171b612ebe60405190565b5f90a4600190565b50505f90565b6103866002610d06565b612ede6137ed565b610370612ee9612ecc565b5f612ef5610386613835565b01611a78565b6103866001610d06565b610370612ee9612efb565b90612f1f610386836001610389565b90612f2c600383016103b9565b612f386119115f610d06565b14613107576005820190612f4b826104f2565b6130f157612f5b600784016104f2565b90816130e8575b50611d4d57612f7160086104f2565b612c0957612f806001826118d5565b33612f8a91611e30565b612f974260068301611a78565b612fa160046103b9565b612faa90611e47565b612fb5906004611a78565b60028101612fc2816103b9565b612fcc60066103b9565b90612fd691611e55565b612fe1906006611a78565b6001820191612fef836103a8565b612ffa90600a610a30565b613003906103b9565b61300c836103b9565b111561301790611e62565b613020826103b9565b613029846103a8565b61303490600a610a30565b9061303e826103b9565b90613048916118b4565b61305191611a78565b61305a836103a8565b61306390610a27565b61306c826103a8565b613075846103b9565b9061307f92613514565b613088906103a8565b91613092906103a8565b9061309c906103b9565b92916130a790610a27565b926130b160405190565b918291429033906130c29385611e9e565b037f6ae0061b96cdaa5d4e2148b6a50da704f9b7ddd76d9a8cfe1afd1c9dcb50c36391a3565b1590505f612f62565b633da4d47160e01b5f9081526004859052602490fd5b6333853f3560e11b5f9081526004849052602490fd5b61312e61312a8383612203565b1590565b15612ec6576131476001612e7a845f61221d8682610389565b613155612e8d6120b5339390565b917f2f8788117e7eff1d82e926ec794901d17c78024a50270940304540a733656f0d612ebe60405190565b60206105d99461236060148399989596612360828761235861236099899c61231f565b9091926131ad5f90565b506131b75f61136d565b906131c18261039c565b6131ca8461039c565b146115e0576131d88261039c565b6131e18561039c565b146115e0576131ef5f610d06565b8514612bc3576131ff60086104f2565b612c095761320d60096103b9565b61322d61321960405190565b80926127d56020830191428b8b8b86613180565b6132386127ec825190565b209461324a612805611fdb60096103b9565b60019261325c600361156c8987610389565b6132686119115f610d06565b036134fe576132e6906132c461327c611404565b916132878884611452565b6132948960208501611452565b61329f856040850152565b6132aa426060850152565b6132b5866080850152565b5f60a084015260c08301611452565b6132d061064e5f610d06565b5f6101008201526132e18886610389565b61263d565b6132fd866132f8610386876002610a30565b612656565b613308866007612656565b61331f613318611fdb60036103b9565b6003611a78565b6133376133308261200a60056103b9565b6005611a78565b600a926133546133478786610a30565b61206f8461200a836103b9565b61335d86610a27565b9361336785610a27565b6370a082319061337630610a27565b9161338060405190565b9761338b8260e01b90565b89526020898061339e87600483016123aa565b0381865afa988915612b54575f996134c6575b509161292e84926133ca896133da976020973390613793565b6040519586948593849360e01b90565b03915afa958615612b54577f2806f54f3e94ee0588ac4ed4ca8743d03b7059d285f5559e5e5dce40c8f6fc0896613417925f916134ad57506118b4565b92878985838103613458575b50613452945061343d935091506134379050565b95610a27565b9561344760405190565b938493429285612684565b0390a390565b61200a61349d94613475836002612ef5613497976134a29c610389565b61348a6133308461200a8461206a60056103b9565b61206a6120398689610a30565b92610a30565b611a78565b5f8080878985613423565b612b47915060203d602011612b4d57612b3f818361049f565b60209391995084926133ca896133da976134ef61292e95893d8b11612b4d57612b3f818361049f565b9d9597505050509294506133b1565b6309a2223360e21b5f9081526004889052602490fd5b91600161312a91613525938561383d565b61352c5750565b6115f16135395f92610a27565b635274afe760e01b8352600483016123aa565b61355660106111a8565b6f181899199a1a9b1b9c1cb0b131b232b360811b602082015290565b61038661354c565b369037565b9061037061359561358f846111a8565b9361118b565b601f19016020840161357a565b906135ab825190565b8110156110e3570160200190565b6104ec6103866103869260ff1690565b6103869060f81c6135b9565b6104ec6103866103869290565b6104ec906135fd6135f66103869460ff1690565b9160ff1690565b901c90565b6103866103866103869260ff1690565b818102929181159184041417156118c157565b9061362e613572565b61364061363b6042610d06565b61357f565b90603061365561364f5f610d06565b846135a2565b53600193849190607861367061366a85610d06565b866135a2565b5361367a5f610d06565b925b61368d575b50505061038691925090565b60209261369984610d06565b81101561378d57838110156110e3576136b682821a60f81b6135c9565b906136e66136d861366a6136d36136cd60046135d5565b866135e2565b613602565b516001600160f81b03191690565b9460029561371561370b6137026136fc8a610d06565b86613612565b61200a8a610d06565b915f1a91896135a2565b538110156110e357879461378061377661376761374b6136d86137456137879861373f600f6135d5565b16613602565b8a6135a2565b9361200a61376161375b83610d06565b88613612565b91610d06565b61377089610d06565b90611e55565b915f1a91886135a2565b5360010190565b9261367c565b50613681565b926001906135259361312a93866138a5565b916020610370929493610f0d60408201965f83019061058d565b906137cd61312a8284612203565b6137d5575050565b63e2517d3f60e01b5f908152916115f19160046137a5565b6137f5613910565b6137fb57565b633ee5aeb560e01b5f908152600490fd5b6103867f9b779b17422d0df92223018b32b4d1fa46e071723d6817e2486d003becc55f00610d06565b61038661380c565b60405163a9059cbb60e01b5f9081526001600160a01b039093166004526024939093529293929060209060448180855af19360015f5114851615613883575b5050604052565b849294151661389c575f903b113d151616915f8061387c565b833d5f823e3d90fd5b6040516323b872dd60e01b5f9081526001600160a01b0393841660045293909216602452604493909352929392919060209060648180855af19360015f51148516156138f7575b50506040525f606052565b849294151661389c575f903b113d151616915f806138ec565b61391f5f61156c610386613835565b612e49611911610386612ecc56febf233dd2aafeb4d50879c4aa5c81e96d92f6e6945c906a58f9f2d1c1631b4b26e5a4ffcefcca8dd46f7e5d170b96705c21aeca3033cdc91846cd60a7c648ea2bfcf6f7b79149c04f9387b4ab24ba2b7ca0edce3642a75e43ec9a5a41fb924b5363f32341a2c9659e28e2f3da14b2d4dc3b076a5eebd426f016534536cda2948e26c5264b502d6057e1a4377e90dd7bdad79766d1694ee3204ed9ad4ce061aacd54f2b63b5fda6b16c70e4d260451d9b37faa0f24d9057273c1d35c0e0cdbbbd3a164736f6c634300081a000a",
  "linkReferences": {},
  "deployedLinkReferences": {}
}