{
  "_format": "hh-sol-artifact-1",
  "contractName": "ComplianceEngine",
  "sourceName": "contracts/ComplianceEngine.sol",
  "abi": [
    {
      "inputs": [],
      "stateMutability": "nonpayable",
      "type": "constructor"
    },
    {
      "inputs": [],
      "name": "AccessControlBadConfirmation",
      "type": "error"
    },
    {
      "inputs": [
        {
          "internalType": "address",
          "name": "account",
          "type": "address"
        },
        {
          "internalType": "bytes32",
          "name": "neededRole",
          "type": "bytes32"
        }
      ],
      "name": "AccessControlUnauthorizedAccount",
      "type": "error"
    },
    {
      "inputs": [
        {
          "internalType": "address",
          "name": "target",
          "type": "address"
        }
      ],
      "name": "AddressEmptyCode",
      "type": "error"
    },
    {
      "inputs": [
        {
          "internalType": "uint256",
          "name": "size",
          "type": "uint256"
        },
        {
          "internalType": "uint256",
          "name": "maxSize",
          "type": "uint256"
        }
      ],
      "name": "BatchSizeExceeded",
      "type": "error"
    },
    {
      "inputs": [
        {
          "internalType": "uint256",
          "name": "deadline",
          "type": "uint256"
        },
        {
          "internalType": "uint256",
          "name": "currentTime",
          "type": "uint256"
        }
      ],
      "name": "DeadlineExpired",
      "type": "error"
    },
    {
      "inputs": [
        {
          "internalType": "address",
          "name": "implementation",
          "type": "address"
        }
      ],
      "name": "ERC1967InvalidImplementation",
      "type": "error"
    },
    {
      "inputs": [],
      "name": "ERC1967NonPayable",
      "type": "error"
    },
    {
      "inputs": [],
      "name": "EnforcedPause",
      "type": "error"
    },
    {
      "inputs": [],
      "name": "ExpectedPause",
      "type": "error"
    },
    {
      "inputs": [],
      "name": "FailedCall",
      "type": "error"
    },
    {
      "inputs": [],
      "name": "InvalidAddress",
      "type": "error"
    },
    {
      "inputs": [],
      "name": "InvalidInitialization",
      "type": "error"
    },
    {
      "inputs": [],
      "name": "NotInitializing",
      "type": "error"
    },
    {
      "inputs": [],
      "name": "PolicyNotSet",
      "type": "error"
    },
    {
      "inputs": [],
      "name": "ReentrancyGuardReentrantCall",
      "type": "error"
    },
    {
      "inputs": [],
      "name": "RegistryNotSet",
      "type": "error"
    },
    {
      "inputs": [
        {
          "internalType": "bytes32",
          "name": "ruleId",
          "type": "bytes32"
        }
      ],
      "name": "RulePausedError",
      "type": "error"
    },
    {
      "inputs": [],
      "name": "UUPSUnauthorizedCallContext",
      "type": "error"
    },
    {
      "inputs": [
        {
          "internalType": "bytes32",
          "name": "slot",
          "type": "bytes32"
        }
      ],
      "name": "UUPSUnsupportedProxiableUUID",
      "type": "error"
    },
    {
      "inputs": [
        {
          "internalType": "address",
          "name": "caller",
          "type": "address"
        }
      ],
      "name": "UnauthorizedCaller",
      "type": "error"
    },
    {
      "anonymous": false,
      "inputs": [
        {
          "indexed": true,
          "internalType": "address",
          "name": "addr",
          "type": "address"
        },
        {
          "indexed": true,
          "internalType": "uint256",
          "name": "riskScore",
          "type": "uint256"
        },
        {
          "indexed": true,
          "internalType": "bool",
          "name": "isCompliant",
          "type": "bool"
        },
        {
          "indexed": false,
          "internalType": "uint256",
          "name": "timestamp",
          "type": "uint256"
        },
        {
          "indexed": false,
          "internalType": "uint256",
          "name": "blockNumber",
          "type": "uint256"
        },
        {
          "indexed": false,
          "internalType": "bytes32",
          "name": "checkType",
          "type": "bytes32"
        }
      ],
      "name": "ComplianceCheckPerformed",
      "type": "event"
    },
    {
      "anonymous": false,
      "inputs": [
        {
          "indexed": true,
          "internalType": "address",
          "name": "account",
          "type": "address"
        },
        {
          "indexed": false,
          "internalType": "uint256",
          "name": "timestamp",
          "type": "uint256"
        }
      ],
      "name": "ContractPaused",
      "type": "event"
    },
    {
      "anonymous": false,
      "inputs": [
        {
          "indexed": true,
          "internalType": "address",
          "name": "account",
          "type": "address"
        },
        {
          "indexed": false,
          "internalType": "uint256",
          "name": "timestamp",
          "type": "uint256"
        }
      ],
      "name": "ContractUnpaused",
      "type": "event"
    },
    {
      "anonymous": false,
      "inputs": [
        {
          "indexed": false,
          "internalType": "uint64",
          "name": "version",
          "type": "uint64"
        }
      ],
      "name": "Initialized",
      "type": "event"
    },
    {
      "anonymous": false,
      "inputs": [
        {
          "indexed": false,
          "internalType": "address",
          "name": "account",
          "type": "address"
        }
      ],
      "name": "Paused",
      "type": "event"
    },
    {
      "anonymous": false,
      "inputs": [
        {
          "indexed": true,
          "internalType": "address",
          "name": "engine",
          "type": "address"
        }
      ],
      "name": "PolicyEngineSet",
      "type": "event"
    },
    {
      "anonymous": false,
      "inputs": [
        {
          "indexed": true,
          "internalType": "bytes32",
          "name": "quarantineId",
          "type": "bytes32"
        },
        {
          "indexed": true,
          "internalType": "address",
          "name": "operator",
          "type": "address"
        },
        {
          "indexed": false,
          "internalType": "uint256",
          "name": "timestamp",
          "type": "uint256"
        }
      ],
      "name": "QuarantineReleased",
      "type": "event"
    },
    {
      "anonymous": false,
      "inputs": [
        {
          "indexed": true,
          "internalType": "address",
          "name": "registry",
          "type": "address"
        }
      ],
      "name": "RiskRegistrySet",
      "type": "event"
    },
    {
      "anonymous": false,
      "inputs": [
        {
          "indexed": true,
          "internalType": "bytes32",
          "name": "role",
          "type": "bytes32"
        },
        {
          "indexed": true,
          "internalType": "bytes32",
          "name": "previousAdminRole",
          "type": "bytes32"
        },
        {
          "indexed": true,
          "internalType": "bytes32",
          "name": "newAdminRole",
          "type": "bytes32"
        }
      ],
      "name": "RoleAdminChanged",
      "type": "event"
    },
    {
      "anonymous": false,
      "inputs": [
        {
          "indexed": true,
          "internalType": "bytes32",
          "name": "role",
          "type": "bytes32"
        },
        {
          "indexed": true,
          "internalType": "address",
          "name": "account",
          "type": "address"
        },
        {
          "indexed": true,
          "internalType": "address",
          "name": "sender",
          "type": "address"
        }
      ],
      "name": "RoleGranted",
      "type": "event"
    },
    {
      "anonymous": false,
      "inputs": [
        {
          "indexed": true,
          "internalType": "bytes32",
          "name": "role",
          "type": "bytes32"
        },
        {
          "indexed": true,
          "internalType": "address",
          "name": "account",
          "type": "address"
        },
        {
          "indexed": true,
          "internalType": "address",
          "name": "sender",
          "type": "address"
        },
        {
          "indexed": false,
          "internalType": "uint256",
          "name": "timestamp",
          "type": "uint256"
        },
        {
          "indexed": false,
          "internalType": "string",
          "name": "reason",
          "type": "string"
        }
      ],
      "name": "RoleGrantedDetailed",
      "type": "event"
    },
    {
      "anonymous": false,
      "inputs": [
        {
          "indexed": true,
          "internalType": "bytes32",
          "name": "role",
          "type": "bytes32"
        },
        {
          "indexed": true,
          "internalType": "address",
          "name": "account",
          "type": "address"
        },
        {
          "indexed": true,
          "internalType": "address",
          "name": "sender",
          "type": "address"
        }
      ],
      "name": "RoleRevoked",
      "type": "event"
    },
    {
      "anonymous": false,
      "inputs": [
        {
          "indexed": true,
          "internalType": "bytes32",
          "name": "role",
          "type": "bytes32"
        },
        {
          "indexed": true,
          "internalType": "address",
          "name": "account",
          "type": "address"
        },
        {
          "indexed": true,
          "internalType": "address",
          "name": "sender",
          "type": "address"
        },
        {
          "indexed": false,
          "internalType": "uint256",
          "name": "timestamp",
          "type": "uint256"
        },
        {
          "indexed": false,
          "internalType": "string",
          "name": "reason",
          "type": "string"
        }
      ],
      "name": "RoleRevokedDetailed",
      "type": "event"
    },
    {
      "anonymous": false,
      "inputs": [
        {
          "indexed": true,
          "internalType": "bytes32",
          "name": "ruleId",
          "type": "bytes32"
        }
      ],
      "name": "RulePaused",
      "type": "event"
    },
    {
      "anonymous": false,
      "inputs": [
        {
          "indexed": true,
          "internalType": "bytes32",
          "name": "ruleId",
          "type": "bytes32"
        }
      ],
      "name": "RuleUnpaused",
      "type": "event"
    },
    {
      "anonymous": false,
      "inputs": [
        {
          "indexed": true,
          "internalType": "address",
          "name": "from",
          "type": "address"
        },
        {
          "indexed": true,
          "internalType": "address",
          "name": "to",
          "type": "address"
        },
        {
          "indexed": true,
          "internalType": "uint256",
          "name": "amount",
          "type": "uint256"
        },
        {
          "indexed": false,
          "internalType": "address",
          "name": "token",
          "type": "address"
        },
        {
          "indexed": false,
          "internalType": "string",
          "name": "reason",
          "type": "string"
        },
        {
          "indexed": false,
          "internalType": "uint256",
          "name": "timestamp",
          "type": "uint256"
        },
        {
          "indexed": false,
          "internalType": "uint256",
          "name": "blockNumber",
          "type": "uint256"
        }
      ],
      "name": "TransactionBlocked",
      "type": "event"
    },
    {
      "anonymous": false,
      "inputs": [
        {
          "indexed": true,
          "internalType": "address",
          "name": "from",
          "type": "address"
        },
        {
          "indexed": true,
          "internalType": "address",
          "name": "to",
          "type": "address"
        },
        {
          "indexed": true,
          "internalType": "uint256",
          "name": "amount",
          "type": "uint256"
        },
        {
          "indexed": false,
          "internalType": "address",
          "name": "token",
          "type": "address"
        },
        {
          "indexed": false,
          "internalType": "bytes32",
          "name": "quarantineId",
          "type": "bytes32"
        },
        {
          "indexed": false,
          "internalType": "uint256",
          "name": "timestamp",
          "type": "uint256"
        },
        {
          "indexed": false,
          "internalType": "uint256",
          "name": "blockNumber",
          "type": "uint256"
        }
      ],
      "name": "TransactionQuarantined",
      "type": "event"
    },
    {
      "anonymous": false,
      "inputs": [
        {
          "indexed": false,
          "internalType": "address",
          "name": "account",
          "type": "address"
        }
      ],
      "name": "Unpaused",
      "type": "event"
    },
    {
      "anonymous": false,
      "inputs": [
        {
          "indexed": true,
          "internalType": "address",
          "name": "implementation",
          "type": "address"
        }
      ],
      "name": "Upgraded",
      "type": "event"
    },
    {
      "anonymous": false,
      "inputs": [
        {
          "indexed": false,
          "internalType": "string",
          "name": "functionName",
          "type": "string"
        },
        {
          "indexed": false,
          "internalType": "uint256",
          "name": "timestamp",
          "type": "uint256"
        }
      ],
      "name": "ZeroAddressRejected",
      "type": "event"
    },
    {
      "inputs": [],
      "name": "ADMIN_ROLE",
      "outputs": [
        {
          "internalType": "bytes32",
          "name": "",
          "type": "bytes32"
        }
      ],
      "stateMutability": "view",
      "type": "function"
    },
    {
      "inputs": [],
      "name": "DEFAULT_ADMIN_ROLE",
      "outputs": [
        {
          "internalType": "bytes32",
          "name": "",
          "type": "bytes32"
        }
      ],
      "stateMutability": "view",
      "type": "function"
    },
    {
      "inputs": [],
      "name": "MAX_HISTORY_SIZE",
      "outputs": [
        {
          "internalType": "uint256",
          "name": "",
          "type": "uint256"
        }
      ],
      "stateMutability": "view",
      "type": "function"
    },
    {
      "inputs": [],
      "name": "OPERATOR_ROLE",
      "outputs": [
        {
          "internalType": "bytes32",
          "name": "",
          "type": "bytes32"
        }
      ],
      "stateMutability": "view",
      "type": "function"
    },
    {
      "inputs": [],
      "name": "UPGRADE_INTERFACE_VERSION",
      "outputs": [
        {
          "internalType": "string",
          "name": "",
          "type": "string"
        }
      ],
      "stateMutability": "view",
      "type": "function"
    },
    {
      "inputs": [],
      "name": "VERSION",
      "outputs": [
        {
          "internalType": "string",
          "name": "",
          "type": "string"
        }
      ],
      "stateMutability": "view",
      "type": "function"
    },
    {
      "inputs": [
        {
          "internalType": "address",
          "name": "",
          "type": "address"
        }
      ],
      "name": "addressCheckCount",
      "outputs": [
        {
          "internalType": "uint256",
          "name": "",
          "type": "uint256"
        }
      ],
      "stateMutability": "view",
      "type": "function"
    },
    {
      "inputs": [
        {
          "internalType": "address[]",
          "name": "addrs",
          "type": "address[]"
        }
      ],
      "name": "batchCheckAddressCompliance",
      "outputs": [
        {
          "internalType": "bool[]",
          "name": "results",
          "type": "bool[]"
        },
        {
          "internalType": "uint256[]",
          "name": "scores",
          "type": "uint256[]"
        }
      ],
      "stateMutability": "nonpayable",
      "type": "function"
    },
    {
      "inputs": [],
      "name": "blockedTransactions",
      "outputs": [
        {
          "internalType": "uint256",
          "name": "",
          "type": "uint256"
        }
      ],
      "stateMutability": "view",
      "type": "function"
    },
    {
      "inputs": [
        {
          "internalType": "address",
          "name": "addr",
          "type": "address"
        }
      ],
      "name": "checkAddressCompliance",
      "outputs": [
        {
          "internalType": "bool",
          "name": "isCompliant",
          "type": "bool"
        },
        {
          "internalType": "uint256",
          "name": "riskScore",
          "type": "uint256"
        },
        {
          "internalType": "string",
          "name": "reason",
          "type": "string"
        }
      ],
      "stateMutability": "nonpayable",
      "type": "function"
    },
    {
      "inputs": [
        {
          "internalType": "uint256",
          "name": "",
          "type": "uint256"
        }
      ],
      "name": "checkHistory",
      "outputs": [
        {
          "internalType": "address",
          "name": "addr",
          "type": "address"
        },
        {
          "internalType": "uint256",
          "name": "riskScore",
          "type": "uint256"
        },
        {
          "internalType": "bool",
          "name": "isCompliant",
          "type": "bool"
        },
        {
          "internalType": "uint256",
          "name": "timestamp",
          "type": "uint256"
        },
        {
          "internalType": "uint256",
          "name": "blockNumber",
          "type": "uint256"
        },
        {
          "internalType": "bytes32",
          "name": "checkType",
          "type": "bytes32"
        },
        {
          "internalType": "string",
          "name": "reason",
          "type": "string"
        }
      ],
      "stateMutability": "view",
      "type": "function"
    },
    {
      "inputs": [
        {
          "internalType": "address",
          "name": "from",
          "type": "address"
        },
        {
          "internalType": "address",
          "name": "to",
          "type": "address"
        },
        {
          "internalType": "uint256",
          "name": "amount",
          "type": "uint256"
        },
        {
          "internalType": "address",
          "name": "token",
          "type": "address"
        }
      ],
      "name": "checkTransfer",
      "outputs": [
        {
          "internalType": "enum IComplianceEngine.Decision",
          "name": "decision",
          "type": "uint8"
        },
        {
          "internalType": "string",
          "name": "reason",
          "type": "string"
        }
      ],
      "stateMutability": "nonpayable",
      "type": "function"
    },
    {
      "inputs": [
        {
          "internalType": "address",
          "name": "from",
          "type": "address"
        },
        {
          "internalType": "address",
          "name": "to",
          "type": "address"
        },
        {
          "internalType": "uint256",
          "name": "amount",
          "type": "uint256"
        },
        {
          "internalType": "address",
          "name": "token",
          "type": "address"
        },
        {
          "internalType": "uint256",
          "name": "deadline",
          "type": "uint256"
        }
      ],
      "name": "checkTransferWithDeadline",
      "outputs": [
        {
          "internalType": "enum IComplianceEngine.Decision",
          "name": "decision",
          "type": "uint8"
        },
        {
          "internalType": "string",
          "name": "reason",
          "type": "string"
        }
      ],
      "stateMutability": "nonpayable",
      "type": "function"
    },
    {
      "inputs": [
        {
          "internalType": "address",
          "name": "",
          "type": "address"
        },
        {
          "internalType": "uint256",
          "name": "",
          "type": "uint256"
        }
      ],
      "name": "dailySpent",
      "outputs": [
        {
          "internalType": "uint256",
          "name": "",
          "type": "uint256"
        }
      ],
      "stateMutability": "view",
      "type": "function"
    },
    {
      "inputs": [],
      "name": "getCheckHistoryLength",
      "outputs": [
        {
          "internalType": "uint256",
          "name": "",
          "type": "uint256"
        }
      ],
      "stateMutability": "view",
      "type": "function"
    },
    {
      "inputs": [
        {
          "internalType": "uint256",
          "name": "index",
          "type": "uint256"
        }
      ],
      "name": "getCheckRecord",
      "outputs": [
        {
          "components": [
            {
              "internalType": "address",
              "name": "addr",
              "type": "address"
            },
            {
              "internalType": "uint256",
              "name": "riskScore",
              "type": "uint256"
            },
            {
              "internalType": "bool",
              "name": "isCompliant",
              "type": "bool"
            },
            {
              "internalType": "uint256",
              "name": "timestamp",
              "type": "uint256"
            },
            {
              "internalType": "uint256",
              "name": "blockNumber",
              "type": "uint256"
            },
            {
              "internalType": "bytes32",
              "name": "checkType",
              "type": "bytes32"
            },
            {
              "internalType": "string",
              "name": "reason",
              "type": "string"
            }
          ],
          "internalType": "struct ComplianceEngine.CheckRecord",
          "name": "",
          "type": "tuple"
        }
      ],
      "stateMutability": "view",
      "type": "function"
    },
    {
      "inputs": [],
      "name": "getQuarantineListLength",
      "outputs": [
        {
          "internalType": "uint256",
          "name": "",
          "type": "uint256"
        }
      ],
      "stateMutability": "view",
      "type": "function"
    },
    {
      "inputs": [
        {
          "internalType": "bytes32",
          "name": "quarantineId",
          "type": "bytes32"
        }
      ],
      "name": "getQuarantineRecord",
      "outputs": [
        {
          "components": [
            {
              "internalType": "address",
              "name": "from",
              "type": "address"
            },
            {
              "internalType": "address",
              "name": "to",
              "type": "address"
            },
            {
              "internalType": "uint256",
              "name": "amount",
              "type": "uint256"
            },
            {
              "internalType": "address",
              "name": "token",
              "type": "address"
            },
            {
              "internalType": "uint256",
              "name": "timestamp",
              "type": "uint256"
            },
            {
              "internalType": "bool",
              "name": "released",
              "type": "bool"
            },
            {
              "internalType": "address",
              "name": "operator",
              "type": "address"
            },
            {
              "internalType": "string",
              "name": "reason",
              "type": "string"
            }
          ],
          "internalType": "struct ComplianceEngine.QuarantineRecord",
          "name": "",
          "type": "tuple"
        }
      ],
      "stateMutability": "view",
      "type": "function"
    },
    {
      "inputs": [
        {
          "internalType": "bytes32",
          "name": "role",
          "type": "bytes32"
        }
      ],
      "name": "getRoleAdmin",
      "outputs": [
        {
          "internalType": "bytes32",
          "name": "",
          "type": "bytes32"
        }
      ],
      "stateMutability": "view",
      "type": "function"
    },
    {
      "inputs": [
        {
          "internalType": "bytes32",
          "name": "role",
          "type": "bytes32"
        },
        {
          "internalType": "address",
          "name": "account",
          "type": "address"
        }
      ],
      "name": "grantRole",
      "outputs": [],
      "stateMutability": "nonpayable",
      "type": "function"
    },
    {
      "inputs": [
        {
          "internalType": "bytes32",
          "name": "role",
          "type": "bytes32"
        },
        {
          "internalType": "address",
          "name": "account",
          "type": "address"
        },
        {
          "internalType": "string",
          "name": "reason",
          "type": "string"
        }
      ],
      "name": "grantRoleWithReason",
      "outputs": [],
      "stateMutability": "nonpayable",
      "type": "function"
    },
    {
      "inputs": [
        {
          "internalType": "bytes32",
          "name": "role",
          "type": "bytes32"
        },
        {
          "internalType": "address",
          "name": "account",
          "type": "address"
        }
      ],
      "name": "hasRole",
      "outputs": [
        {
          "internalType": "bool",
          "name": "",
          "type": "bool"
        }
      ],
      "stateMutability": "view",
      "type": "function"
    },
    {
      "inputs": [
        {
          "internalType": "address",
          "name": "_riskRegistry",
          "type": "address"
        },
        {
          "internalType": "address",
          "name": "_policyEngine",
          "type": "address"
        }
      ],
      "name": "initialize",
      "outputs": [],
      "stateMutability": "nonpayable",
      "type": "function"
    },
    {
      "inputs": [
        {
          "internalType": "address",
          "name": "",
          "type": "address"
        }
      ],
      "name": "issuerPolicies",
      "outputs": [
        {
          "internalType": "uint256",
          "name": "maxTxAmount",
          "type": "uint256"
        },
        {
          "internalType": "uint256",
          "name": "dailyLimit",
          "type": "uint256"
        },
        {
          "internalType": "bool",
          "name": "allowMediumRisk",
          "type": "bool"
        },
        {
          "internalType": "bool",
          "name": "allowHighRisk",
          "type": "bool"
        },
        {
          "internalType": "bool",
          "name": "blockMixer",
          "type": "bool"
        },
        {
          "internalType": "bool",
          "name": "requireDestinationKYC",
          "type": "bool"
        },
        {
          "internalType": "uint256",
          "name": "cooldownPeriod",
          "type": "uint256"
        }
      ],
      "stateMutability": "view",
      "type": "function"
    },
    {
      "inputs": [
        {
          "internalType": "address",
          "name": "",
          "type": "address"
        }
      ],
      "name": "lastTransferTime",
      "outputs": [
        {
          "internalType": "uint256",
          "name": "",
          "type": "uint256"
        }
      ],
      "stateMutability": "view",
      "type": "function"
    },
    {
      "inputs": [],
      "name": "pause",
      "outputs": [],
      "stateMutability": "nonpayable",
      "type": "function"
    },
    {
      "inputs": [
        {
          "internalType": "bytes32",
          "name": "ruleId",
          "type": "bytes32"
        }
      ],
      "name": "pauseRule",
      "outputs": [],
      "stateMutability": "nonpayable",
      "type": "function"
    },
    {
      "inputs": [],
      "name": "paused",
      "outputs": [
        {
          "internalType": "bool",
          "name": "",
          "type": "bool"
        }
      ],
      "stateMutability": "view",
      "type": "function"
    },
    {
      "inputs": [
        {
          "internalType": "bytes32",
          "name": "",
          "type": "bytes32"
        }
      ],
      "name": "pausedRules",
      "outputs": [
        {
          "internalType": "bool",
          "name": "",
          "type": "bool"
        }
      ],
      "stateMutability": "view",
      "type": "function"
    },
    {
      "inputs": [],
      "name": "policyEngine",
      "outputs": [
        {
          "internalType": "contract PolicyEngine",
          "name": "",
          "type": "address"
        }
      ],
      "stateMutability": "view",
      "type": "function"
    },
    {
      "inputs": [],
      "name": "proxiableUUID",
      "outputs": [
        {
          "internalType": "bytes32",
          "name": "",
          "type": "bytes32"
        }
      ],
      "stateMutability": "view",
      "type": "function"
    },
    {
      "inputs": [
        {
          "internalType": "uint256",
          "name": "",
          "type": "uint256"
        }
      ],
      "name": "quarantineList",
      "outputs": [
        {
          "internalType": "bytes32",
          "name": "",
          "type": "bytes32"
        }
      ],
      "stateMutability": "view",
      "type": "function"
    },
    {
      "inputs": [],
      "name": "quarantineNonce",
      "outputs": [
        {
          "internalType": "uint256",
          "name": "",
          "type": "uint256"
        }
      ],
      "stateMutability": "view",
      "type": "function"
    },
    {
      "inputs": [
        {
          "internalType": "address",
          "name": "from",
          "type": "address"
        },
        {
          "internalType": "address",
          "name": "to",
          "type": "address"
        },
        {
          "internalType": "uint256",
          "name": "amount",
          "type": "uint256"
        },
        {
          "internalType": "address",
          "name": "token",
          "type": "address"
        },
        {
          "internalType": "string",
          "name": "reason",
          "type": "string"
        }
      ],
      "name": "quarantineTransaction",
      "outputs": [
        {
          "internalType": "bytes32",
          "name": "quarantineId",
          "type": "bytes32"
        }
      ],
      "stateMutability": "nonpayable",
      "type": "function"
    },
    {
      "inputs": [],
      "name": "quarantinedTransactions",
      "outputs": [
        {
          "internalType": "uint256",
          "name": "",
          "type": "uint256"
        }
      ],
      "stateMutability": "view",
      "type": "function"
    },
    {
      "inputs": [
        {
          "internalType": "bytes32",
          "name": "",
          "type": "bytes32"
        }
      ],
      "name": "quarantinedTxs",
      "outputs": [
        {
          "internalType": "address",
          "name": "from",
          "type": "address"
        },
        {
          "internalType": "address",
          "name": "to",
          "type": "address"
        },
        {
          "internalType": "uint256",
          "name": "amount",
          "type": "uint256"
        },
        {
          "internalType": "address",
          "name": "token",
          "type": "address"
        },
        {
          "internalType": "uint256",
          "name": "timestamp",
          "type": "uint256"
        },
        {
          "internalType": "bool",
          "name": "released",
          "type": "bool"
        },
        {
          "internalType": "address",
          "name": "operator",
          "type": "address"
        },
        {
          "internalType": "string",
          "name": "reason",
          "type": "string"
        }
      ],
      "stateMutability": "view",
      "type": "function"
    },
    {
      "inputs": [
        {
          "internalType": "bytes32",
          "name": "quarantineId",
          "type": "bytes32"
        }
      ],
      "name": "releaseQuarantine",
      "outputs": [],
      "stateMutability": "nonpayable",
      "type": "function"
    },
    {
      "inputs": [
        {
          "internalType": "bytes32",
          "name": "role",
          "type": "bytes32"
        },
        {
          "internalType": "address",
          "name": "callerConfirmation",
          "type": "address"
        }
      ],
      "name": "renounceRole",
      "outputs": [],
      "stateMutability": "nonpayable",
      "type": "function"
    },
    {
      "inputs": [
        {
          "internalType": "bytes32",
          "name": "role",
          "type": "bytes32"
        },
        {
          "internalType": "address",
          "name": "account",
          "type": "address"
        }
      ],
      "name": "revokeRole",
      "outputs": [],
      "stateMutability": "nonpayable",
      "type": "function"
    },
    {
      "inputs": [
        {
          "internalType": "bytes32",
          "name": "role",
          "type": "bytes32"
        },
        {
          "internalType": "address",
          "name": "account",
          "type": "address"
        },
        {
          "internalType": "string",
          "name": "reason",
          "type": "string"
        }
      ],
      "name": "revokeRoleWithReason",
      "outputs": [],
      "stateMutability": "nonpayable",
      "type": "function"
    },
    {
      "inputs": [],
      "name": "riskRegistry",
      "outputs": [
        {
          "internalType": "contract RiskRegistry",
          "name": "",
          "type": "address"
        }
      ],
      "stateMutability": "view",
      "type": "function"
    },
    {
      "inputs": [
        {
          "internalType": "address",
          "name": "token",
          "type": "address"
        },
        {
          "components": [
            {
              "internalType": "uint256",
              "name": "maxTxAmount",
              "type": "uint256"
            },
            {
              "internalType": "uint256",
              "name": "dailyLimit",
              "type": "uint256"
            },
            {
              "internalType": "bool",
              "name": "allowMediumRisk",
              "type": "bool"
            },
            {
              "internalType": "bool",
              "name": "allowHighRisk",
              "type": "bool"
            },
            {
              "internalType": "bool",
              "name": "blockMixer",
              "type": "bool"
            },
            {
              "internalType": "bool",
              "name": "requireDestinationKYC",
              "type": "bool"
            },
            {
              "internalType": "uint256",
              "name": "cooldownPeriod",
              "type": "uint256"
            },
            {
              "internalType": "address[]",
              "name": "blockedTokens",
              "type": "address[]"
            }
          ],
          "internalType": "struct ComplianceEngine.IssuerPolicy",
          "name": "policy",
          "type": "tuple"
        }
      ],
      "name": "setIssuerPolicy",
      "outputs": [],
      "stateMutability": "nonpayable",
      "type": "function"
    },
    {
      "inputs": [
        {
          "internalType": "address",
          "name": "_engine",
          "type": "address"
        }
      ],
      "name": "setPolicyEngine",
      "outputs": [],
      "stateMutability": "nonpayable",
      "type": "function"
    },
    {
      "inputs": [
        {
          "internalType": "address",
          "name": "_registry",
          "type": "address"
        }
      ],
      "name": "setRiskRegistry",
      "outputs": [],
      "stateMutability": "nonpayable",
      "type": "function"
    },
    {
      "inputs": [
        {
          "internalType": "bytes4",
          "name": "interfaceId",
          "type": "bytes4"
        }
      ],
      "name": "supportsInterface",
      "outputs": [
        {
          "internalType": "bool",
          "name": "",
          "type": "bool"
        }
      ],
      "stateMutability": "view",
      "type": "function"
    },
    {
      "inputs": [],
      "name": "totalChecks",
      "outputs": [
        {
          "internalType": "uint256",
          "name": "",
          "type": "uint256"
        }
      ],
      "stateMutability": "view",
      "type": "function"
    },
    {
      "inputs": [],
      "name": "unpause",
      "outputs": [],
      "stateMutability": "nonpayable",
      "type": "function"
    },
    {
      "inputs": [
        {
          "internalType": "bytes32",
          "name": "ruleId",
          "type": "bytes32"
        }
      ],
      "name": "unpauseRule",
      "outputs": [],
      "stateMutability": "nonpayable",
      "type": "function"
    },
    {
      "inputs": [
        {
          "internalType": "address",
          "name": "newImplementation",
          "type": "address"
        },
        {
          "internalType": "bytes",
          "name": "data",
          "type": "bytes"
        }
      ],
      "name": "upgradeToAndCall",
      "outputs": [],
      "stateMutability": "payable",
      "type": "function"
    }
  ],
  "bytecode": "0x60a06040523461003257610011610036565b60405161465c6101e6823960805181818161411a015261428d015261465c90f35b5f80fd5b61003e610048565b610046610109565b565b610046610085565b61006490610067906001600160a01b031682565b90565b6001600160a01b031690565b61006490610050565b61006490610073565b61008e3061007c565b608052565b6100649060401c60ff1690565b6100649054610093565b610064905b6001600160401b031690565b61006490546100aa565b610064906100af906001600160401b031682565b906100e9610064610105926100c5565b82546001600160401b0319166001600160401b03919091161790565b9055565b5f61011261019f565b0161011c816100a0565b61018e57610129816100bb565b6001600160401b0391908290811603610140575050565b8161016f7fc7f505b2f371ae2175ee4913f4499e1f2633a7b5936321eed1cdaeb6115181d293610189936100d9565b604051918291826001600160401b03909116815260200190565b0390a1565b63f92ee8a960e01b5f908152600490fd5b6100646101dd565b6100646100646100649290565b6100647ff0c57e16840df040f15088dc2f81fe391c3923bec73e23a9662efc9c229c6a006101a7565b6100646101b456fe60806040526004361015610011575f80fd5b5f3560e01c806301ffc9a71461032057806307f2d0ee1461031b578063094b5db8146103165780630d2d8a3114610311578063162e22641461030c5780631c3f5b9e146103075780631f6c8236146103025780632115be1b146102fd5780632219e3a2146102f8578063248a9ca3146102f35780632f2ff15d146102ee57806333f78215146102e957806335137c01146102e457806336568abe146102df5780633f4ba83a146102da578063485cc955146102d55780634f1ef286146102d057806352d1902d146102cb5780635613135e146102c65780635c975abb146102c15780635e7df1e5146102bc578063609ec9b0146102b75780636135b085146102b25780636259e448146102ad5780637126dfa6146102a85780637495ae08146102a357806375b238fc1461029e5780638456cb59146102995780639061a57f1461029457806391d148541461028f578063927399a51461028a578063a00470c214610285578063a217fddf14610280578063aa6466cb1461027b578063ad3cb1cc14610276578063b220783814610271578063b5d56dfb1461026c578063b670b27314610267578063bacd562314610262578063c10662511461025d578063d547741f14610258578063d869848d14610253578063dcc1d8a61461024e578063dfa3db8914610249578063f5b541a614610244578063f7a17eed1461023f578063f8fc35e21461023a578063f9edc8d4146102355763ffa1ad7403610325576115c5565b611568565b611517565b61144a565b611317565b6112fc565b6112d9565b6112bd565b61125f565b611244565b611215565b6111e3565b611130565b611111565b61108b565b61101d565b611002565b610fd9565b610fbe565b610f97565b610f7b565b610f11565b610eeb565b610ecf565b610eb4565b610e8d565b610e01565b610dda565b610d3d565b610cec565b610cb5565b610bae565b610b9a565b610ac7565b610a93565b610a7a565b610a5f565b610a35565b610a11565b6109d3565b6109b8565b610952565b610661565b610571565b61051a565b6104da565b610448565b610403565b610366565b5f80fd5b6001600160e01b031981165b0361032557565b9050359061034982610329565b565b906020828203126103255761035f9161033c565b90565b9052565b346103255761039361038161037c36600461034b565b6115e0565b60405191829182901515815260200190565b0390f35b6001600160a01b031690565b6001600160a01b038116610335565b90503590610349826103a3565b90816101009103126103255790565b919091604081840312610325576103e583826103b2565b9260208201356001600160401b0381116103255761035f92016103bf565b346103255761041c6104163660046103ce565b90611b05565b604051005b80610335565b9050359061034982610421565b906020828203126103255761035f91610427565b346103255761041c61045b366004610434565b611b74565b906020828203126103255761035f916103b2565b61035f90610397906001600160a01b031682565b61035f90610474565b61035f90610488565b906104a490610491565b5f5260205260405f2090565b61035f916008021c81565b9061035f91546104b0565b5f6104d561035f92603d61049a565b6104bb565b34610325576103936104f56104f0366004610460565b6104c6565b6040519182918290815260200190565b5f91031261032557565b61035f5f60346104bb565b346103255761052a366004610505565b6103936104f561050f565b61035f916008021c610397565b9061035f9154610535565b61035f5f6032610542565b61036290610491565b6020810192916103499190610558565b3461032557610581366004610505565b61039361058c61054d565b60405191829182610561565b61035f9081565b61035f9054610598565b61035f905b60ff1690565b61035f90546105a9565b61035f9060081c6105ae565b61035f90546105be565b61035f9060101c6105ae565b61035f90546105d4565b61035f9060181c6105ae565b61035f90546105ea565b61060b90603b61049a565b6106148161059f565b916106216001830161059f565b9161062e600282016105b4565b9161063b600283016105ca565b91610648600282016105e0565b9161035f600361065a600285016105f6565b930161059f565b346103255761039361067c610677366004610460565b610600565b9361068c97959793919360405190565b9788978890815260e0810197969590949093909290916020860152151560408501521515606084015215156080830152151560a082015260c00152565b634e487b7160e01b5f52603260045260245ffd5b80548210156106fd576106f56007915f5260205f2090565b910201905f90565b6106c9565b61035f90610397565b61035f9054610702565b634e487b7160e01b5f52602260045260245ffd5b9060016002830492168015610749575b602083101461074457565b610715565b91607f1691610739565b80545f93929161076f61076583610729565b8085529360200190565b91600181169081156107be575060011461078857505050565b61079991929394505f5260205f2090565b915f925b8184106107aa5750500190565b80548484015260209093019260010161079d565b92949550505060ff1916825215156020020190565b9061035f91610753565b634e487b7160e01b5f52604160045260245ffd5b90601f01601f191681019081106001600160401b0382111761081257604052565b6107dd565b906103496108319261082860405190565b938480926107d3565b03836107f1565b603890610843825490565b81101561032557610853916106dd565b5061085d8161070b565b9161086a6001830161059f565b91610877600282016105b4565b916108846003830161059f565b916108916004820161059f565b9161035f60066108a36005850161059f565b9301610817565b90825f9392825e0152565b6108d66108df6020936108e9936108ca815190565b80835293849260200190565b958691016108aa565b601f01601f191690565b0190565b939461093761035f98966109306109459661092761093e969b9761092060e08c019d5f8d01906001600160a01b03169052565b60208b0152565b15156040890152565b6060870152565b6080850152565b60a0830152565b60c08184039101526108b5565b346103255761039361096d610968366004610434565b610838565b9361097d97959793919360405190565b978897886108ed565b906104a4565b61035f916008021c6105ae565b9061035f915461098c565b5f6109b361035f92603a610986565b610999565b34610325576103936103816109ce366004610434565b6109a4565b34610325576103936104f56109e9366004610434565b611b7d565b91906040838203126103255761035f906020610a0a8286610427565b94016103b2565b346103255761041c610a243660046109ee565b90611bc8565b61035f5f60376104bb565b3461032557610a45366004610505565b6103936104f5610a2a565b5f6104d561035f92603961049a565b34610325576103936104f5610a75366004610460565b610a50565b346103255761041c610a8d3660046109ee565b90611bd2565b3461032557610aa3366004610505565b61041c611c66565b91906040838203126103255761035f906020610a0a82866103b2565b346103255761041c610ada366004610aab565b906120b1565b90610349610aed60405190565b92836107f1565b6001600160401b03811161081257602090601f01601f19160190565b90825f939282370152565b90929192610b30610b2b82610af4565b610ae0565b938185528183011161032557610349916020850190610b10565b9080601f830112156103255781602061035f93359101610b1b565b91909160408184031261032557610b7c83826103b2565b9260208201356001600160401b0381116103255761035f9201610b4a565b61041c610ba8366004610b65565b906120db565b3461032557610bbe366004610505565b6103936104f5612128565b61035f9060081c610397565b61035f9054610bc9565b610bea90603e610986565b90610bf48261070b565b91610c016001820161070b565b91610c0e6002830161059f565b91610c1b6003820161070b565b91610c286004830161059f565b91610c35600582016105b4565b9161035f60066108a360058501610bd5565b95939196949290966101008701975f8801610c69916001600160a01b03169052565b6001600160a01b0316602087015260408601526001600160a01b031660608501526080840152151560a08301526001600160a01b031660c08201528082039060e0015261035f916108b5565b3461032557610393610cd0610ccb366004610434565b610bdf565b94610ce398969894919493929360405190565b98899889610c47565b3461032557610cfc366004610505565b610393610381612131565b80548210156106fd576106f56001915f5260205f2090565b603f5481101561032557610d3761035f91603f610d07565b906104bb565b34610325576103936104f5610d53366004610434565b610d1f565b80516001600160a01b0316825261035f9160e081019160c090610d8060208201516020850152565b604081810151151590840152610d9b60608201516060850152565b610daa60808201516080850152565b610db960a082015160a0850152565b01519060c08184039101526108b5565b602080825261035f92910190610d58565b3461032557610393610df5610df0366004610434565b612291565b60405191829182610dc9565b346103255761041c610e14366004610460565b612398565b909182601f83011215610325578135916001600160401b03831161032557602001926001830284011161032557565b9160608383031261032557610e5d8284610427565b92610e6b83602083016103b2565b9260408201356001600160401b03811161032557610e899201610e19565b9091565b346103255761041c610ea0366004610e48565b9291909161245e565b61035f5f60366104bb565b3461032557610ec4366004610505565b6103936104f5610ea9565b3461032557610edf366004610505565b6103936104f560385490565b3461032557610efb366004610505565b6103935f805160206146308339815191526104f5565b3461032557610f21366004610505565b61041c6124be565b91906040838203126103255761035f906020610f4582866103b2565b9401610427565b61035f61035f61035f9290565b906104a490610f4c565b6104d561035f92610f765f93603c61049a565b610f59565b34610325576103936104f5610f91366004610f29565b90610f63565b3461032557610393610381610fad3660046109ee565b906124c6565b61035f5f6033610542565b3461032557610fce366004610505565b61039361058c610fb3565b346103255761041c610fec366004610434565b612657565b61035f5f610f4c565b61035f610ff1565b3461032557611012366004610505565b6103936104f5610ffa565b346103255761041c611030366004610434565b6126b7565b90611042610b2b83610af4565b918252565b6110516005611035565b640352e302e360dc1b602082015290565b61035f611047565b61035f611062565b61035f61106a565b602080825261035f929101906108b5565b346103255761109b366004610505565b6103936110a6611072565b6040519182918261107a565b91909160a081840312610325576110c983826103b2565b926110d781602084016103b2565b926110e58260408501610427565b926110f383606083016103b2565b9260808201356001600160401b0381116103255761035f9201610b4a565b34610325576103936104f56111273660046110b2565b93929092612b61565b3461032557611140366004610505565b6103936104f5603f5490565b6080818303126103255761116082826103b2565b9261035f61117184602085016103b2565b936060610a0a8260408701610427565b634e487b7160e01b5f52602160045260245ffd5b6004111561119f57565b611181565b9061034982611195565b61035f906111a4565b610362906111ae565b9161035f926111d660408201935f8301906111b7565b60208184039101526108b5565b34610325576111ff6111f636600461114c565b92919091612c06565b9061039361120c60405190565b928392836111c0565b346103255761041c611228366004610e48565b92919091612c67565b61035f612710610f4c565b61035f611231565b3461032557611254366004610505565b6103936104f561123c565b346103255761041c6112723660046109ee565b90612c8e565b919060a0838203126103255761128e81846103b2565b9261129c82602083016103b2565b9261035f6112ad8460408501610427565b936080610f4582606087016103b2565b34610325576111ff6112d0366004611278565b93929092613524565b346103255761041c6112ec366004610460565b6135c0565b61035f5f60356104bb565b346103255761130c366004610505565b6103936104f56112f1565b3461032557611327366004610505565b6103935f805160206145f08339815191526104f5565b909182601f83011215610325578135916001600160401b03831161032557602001926020830284011161032557565b906020828203126103255781356001600160401b03811161032557610e89920161133d565b906113b16113aa6113a0845190565b8084529260200190565b9260200190565b905f5b8181106113c15750505090565b9091926113e06113d960019286511515815260200190565b9460200190565b9291016113b4565b906113f76113aa6113a0845190565b905f5b8181106114075750505090565b90919261141d6113d96001928651815260200190565b9291016113fa565b604080825261035f93919261143c91840190611391565b9160208184039101526113e8565b346103255761146361145d36600461136c565b906136f4565b9061039361147060405190565b92839283611425565b80516001600160a01b0316825261035f9161010081019160e0906020818101516001600160a01b0316908401526114b560408201516040850152565b6060818101516001600160a01b0316908401526114d760808201516080850152565b60a08181015115159084015260c0808201516001600160a01b03169084015201519060e08184039101526108b5565b602080825261035f92910190611479565b346103255761039361153261152d366004610434565b6137e2565b60405191829182611506565b901515815261035f92606082019290919061155b905b6020830152565b60408184039101526108b5565b346103255761039361158361157e366004610460565b613eb0565b6040519193919384938461153e565b61159c6005611035565b64312e322e3160d81b602082015290565b61035f611592565b61035f6115ad565b61035f6115b5565b34610325576115d5366004610505565b6103936110a66115bd565b637965db0b60e01b6001600160e01b03198216149081156115ff575090565b61035f91506001600160e01b0319166301ffc9a760e01b1490565b610349919061163a5f80516020614630833981519152613ebd565b613ebd565b9061034991611647613ec8565b611989565b61039761035f61035f9290565b61035f9061164c565b903590601e19368290030182121561032557018035906001600160401b0382116103255760200191602082023603831361032557565b61036290610f4c565b9081526040810192916103499160200190611698565b3561035f81610421565b634e487b7160e01b5f525f60045260245ffd5b905f19905b9181191691161790565b906116f361035f6116fa92610f4c565b82546116d4565b9055565b801515610335565b3561035f816116fe565b9060ff906116d9565b9061172961035f6116fa92151590565b8254611710565b9061ff009060081b6116d9565b9061174d61035f6116fa92151590565b8254611730565b9062ff00009060101b6116d9565b9061177261035f6116fa92151590565b8254611754565b9063ff0000009060181b6116d9565b9061179861035f6116fa92151590565b8254611779565b634e487b7160e01b5f52601160045260245ffd5b915f1960089290920291821b911b6116d9565b91906117d761035f6116fa93610f4c565b9083546117b3565b610349915f916117c6565b8181106117f5575050565b806118025f6001936117df565b016117ea565b91909182821061181757505050565b610349929161182a90915f5260205f2090565b91820191016117ea565b90600160401b8111610812578161184c610349935490565b90828155611808565b3561035f816103a3565b906001600160401b0383116108125761188b61188160019261035f8686611834565b925f5260205f2090565b9204915f5b83811061189d5750505050565b60019060206118ae61035f86611855565b9401938184015501611890565b90610349929161185f565b600490611976610349936118e46118de5f83016116b7565b846116e3565b6118fc6118f3602083016116b7565b600185016116e3565b6119546002840161191861191260408501611706565b82611719565b61192d61192760608501611706565b8261173d565b61194261193c60808501611706565b82611762565b61194e60a08401611706565b90611788565b61196c61196360c083016116b7565b600385016116e3565b60e0810190611662565b929091016118bb565b90610349916118c6565b906119966103975f611659565b6001600160a01b03831614611af45760e081016119bb6119b68284611662565b905090565b6119cc6119c86032610f4c565b9190565b11611aca57506119db816116b7565b60208201906119ef6119c861035f846116b7565b119081611aad575b50611a6857611a0860c082016116b7565b611a176119c862278d00610f4c565b11611a2f57611a2a61034992603b61049a565b61197f565b60405162461bcd60e51b8152602060048201526011602482015270636f6f6c646f776e20746f6f206c6f6e6760781b6044820152606490fd5b60405162461bcd60e51b815260206004820152601860248201527f6d61785478416d6f756e74203e206461696c794c696d697400000000000000006044820152606490fd5b611ab791506116b7565b611ac36119c85f610f4c565b115f6119f7565b6032611add6119b6611af0935f95611662565b63f80a484560e01b8452600484016116a1565b035ffd5b63e6c4247b60e01b5f908152600490fd5b906103499161161a565b61034990611b295f80516020614630833981519152613ebd565b611b429061035f6001611b3d83603a610986565b611719565b7f9a33e54c050bcbdd0438539b4e86c36f991cbeb6d26d28b790373bfda8768d3f611b6c60405190565b80805b0390a2565b61034990611b0f565b6001611ba461035f92611b8d5f90565b505f5f805160206146108339815191525b01610986565b0161059f565b9061034991611bbb61163582611b7d565b90611bc591613ee7565b50565b9061034991611baa565b90611bdc33610397565b6001600160a01b03821603611bf457611bc591613f75565b63334bd91960e11b5f908152600490fd5b611c1b5f80516020614630833981519152613ebd565b610349611c26614058565b611c2f33610491565b7f107553d8191d85b405879cf752997865edd48d94e20bda4dd27223c94b31a7cc611c5960405190565b4281528060208101611b6f565b610349611c05565b61035f9060401c6105ae565b61035f9054611c6e565b61035f905b6001600160401b031690565b61035f9054611c84565b611c8961035f61035f9290565b906001600160401b03906116d9565b611c8961035f61035f926001600160401b031690565b90611ce161035f6116fa92611cbb565b8254611cac565b9068ff00000000000000009060401b6116d9565b90611d0c61035f6116fa92151590565b8254611ce8565b61036290611c9f565b6020810192916103499190611d13565b611d34614060565b908190611d50611d4a611d4684611c7a565b1590565b92611c95565b93611d5a5f611c9f565b6001600160401b0386161480611e56575b600195611d87611d7a88611c9f565b916001600160401b031690565b149081611e32575b155b9081611e29575b50611e1857611dc19183611db85f611daf89611c9f565b97019687611cd1565b611e0957611fa3565b611dc9575050565b7fc7f505b2f371ae2175ee4913f4499e1f2633a7b5936321eed1cdaeb6115181d291611df85f611e0493611cfc565b60405191829182611d1c565b0390a1565b611e138686611cfc565b611fa3565b63f92ee8a960e01b5f908152600490fd5b1590505f611d98565b9050611d91611e4030610491565b3b611e4d6119c85f610f4c565b14919050611d8f565b5082611d6b565b15611e6457565b60405162461bcd60e51b8152602060048201526015602482015274496e76616c6964207269736b20726567697374727960581b6044820152606490fd5b15611ea857565b60405162461bcd60e51b8152602060048201526015602482015274496e76616c696420706f6c69637920656e67696e6560581b6044820152606490fd5b15611eec57565b60405162461bcd60e51b815260206004820152601c60248201527f5269736b207265676973747279206e6f74206120636f6e7472616374000000006044820152606490fd5b15611f3857565b60405162461bcd60e51b815260206004820152601c60248201527f506f6c69637920656e67696e65206e6f74206120636f6e7472616374000000006044820152606490fd5b906001600160a01b03906116d9565b90611f9c61035f6116fa92610491565b8254611f7d565b6120509161203d61204261204993611fb9614070565b611fc1614070565b611fc9614070565b611fd161409b565b61200f611ffe611fe05f611659565b6103976001600160a01b0382166001600160a01b0386161415611e5d565b6001600160a01b0386161415611ea1565b612026813b6120206119c85f610f4c565b11611ee5565b61203d843b6120376119c85f610f4c565b11611f31565b610491565b6032611f8c565b6033611f8c565b61034961205b610ff1565b6120653382613ee7565b506120aa5f805160206146308339815191526120813382613ee7565b505f805160206145f083398151915261209a3382613ee7565b506120a582806140a3565b6140a3565b3390611bd2565b9061034991611d2c565b90610349916120c861410f565b90610349916120d68161419c565b6141b9565b90610349916120bb565b61035f906120f1614277565b61211f565b61035f7f360894a13ba1a3210667c828492db98dca3e2076cc3735a920a3ca505d382bbc610f4c565b5061035f6120f6565b61035f5f6120e5565b61035f7fcd5ed15c6e187e77e9aee88184c21f4f2182ab5827cb3b7e07fbedcd63f033006105b4565b61035f60e0610ae0565b61216c61215a565b905f8252602080808080808088015f5b8152015f8152015f8152015f8152015f8152016060905250565b61035f612164565b156121a557565b60405162461bcd60e51b8152602060048201526013602482015272496e646578206f7574206f6620626f756e647360681b6044820152606490fd5b9061034961228160066121f161215a565b9461220b6121fe8261070b565b6001600160a01b03168752565b61222161221a6001830161059f565b6020880152565b612239612230600283016105b4565b15156040880152565b61224f6122486003830161059f565b6060880152565b61226561225e6004830161059f565b6080880152565b61227b6122746005830161059f565b60a0880152565b01610817565b60c0840152565b61035f906121e0565b6122be61035f916122a0612196565b506122b76122b061035f60385490565b821061219e565b60386106dd565b50612288565b610349906122de5f80516020614630833981519152613ebd565b610349906122ea613ec8565b61232c565b156122f657565b60405162461bcd60e51b815260206004820152600e60248201526d139bdd08184818dbdb9d1c9858dd60921b6044820152606490fd5b6123386103975f611659565b6001600160a01b03821614611af4578061236261236e923b61235c6119c85f610f4c565b116122ef565b61203d61204982610491565b7fea702d7b03617061891442c30c46389ed07aa85858a0711ae3eceabb8618e427611b6c60405190565b610349906122c4565b610349939291906123be5f80516020614630833981519152613ebd565b6123f9565b91906108df816123da816108e99560209181520190565b8095610b10565b90815260406020820181905261035f939101916123c3565b6124386124327f26c5264b502d6057e1a4377e90dd7bdad79766d1694ee3204ed9ad4ce061aacd9295949561242e8582613ee7565b5090565b92610491565b9261244233610491565b9461245961244f60405190565b92839242846123e1565b0390a4565b906103499392916123a1565b6124805f80516020614630833981519152613ebd565b61034961248b61431a565b61249433610491565b7f80170b5fcdd2bf1e0660ef4b8851f86685f64d41b1a19de1471947ece8725aac611c5960405190565b61034961246a565b61035f915f6124ee6124f4936124d95f90565b50825f80516020614610833981519152611b9e565b0161049a565b6105b4565b610349906125135f805160206145f0833981519152613ebd565b6103499061251f613ec8565b6125309061252b61432c565b6125ba565b61034961408a565b1561253f57565b60405162461bcd60e51b815260206004820152601060248201526f105b1c9958591e481c995b19585cd95960821b6044820152606490fd5b1561257e57565b60405162461bcd60e51b8152602060048201526014602482015273145d585c985b9d1a5b99481b9bdd08199bdd5b9960621b6044820152606490fd5b61261a9061035f60016125d161035f84603e610986565b611b3d6125f75f60058401936125f16125ec611d46876105b4565b612538565b0161070b565b6126136126066103975f611659565b916001600160a01b031690565b1415612577565b61262333610491565b907f0ccf282989316fbe81439cda9a50c213585ebe4cd07d4e70559d50c9ac3efc4361264e60405190565b428152602090a3565b610349906124f9565b6103499061267a5f80516020614630833981519152613ebd565b61268d9061035f5f611b3d83603a610986565b7f6aaa2e669f6ebdd5dffedb999d95bac66825b050a76be3a4bb8fe4978b726b42611b6c60405190565b61034990612660565b61035f9594939291906126df5f805160206145f0833981519152613ebd565b9061035f95949392916126f0613ec8565b90612706959493929161270161432c565b6129e2565b9061034961408a565b5f19811461271d5760010190565b61179f565b610362906001600160a01b031660601b90565b01918252565b018092612722565b61035f610100610ae0565b90610100600160a81b039060081b6116d9565b9061277161035f6116fa92610491565b825461274e565b9190601f811161278757505050565b612797610349935f5260205f2090565b906020601f8401819004830193106127b9575b6020601f9091010401906117ea565b90915081906127aa565b906127cc815190565b906001600160401b038211610812576127ef826127e98554610729565b85612778565b602090601f8311600114612828576116fa92915f918361281d575b50505f19600883021c1916906002021790565b015190505f8061280a565b601f1983169161283b855f5260205f2090565b925f5b8181106128775750916002939185600196941061285f575b50505002019055565b01515f196008601f8516021c191690555f8080612856565b9193602060018192878701518155019501920161283e565b90610349916127c3565b600661295e60e0610349946128c06128ba5f8301516001600160a01b031690565b86611f8c565b6128e06128d760208301516001600160a01b031690565b60018701611f8c565b6128f76128ee604083015190565b600287016116e3565b61291761290e60608301516001600160a01b031690565b60038701611f8c565b61292e612925608083015190565b600487016116e3565b6129596005860161294561191260a0850151151590565b60c08301516001600160a01b031690612761565b015190565b910161288f565b9061034991612899565b91906117d761035f6116fa9390565b90815491600160401b83101561081257826129a191600161034995018155610d07565b9061296f565b6129de610349946129d76060949897956129d0608086019a5f8701906001600160a01b03169052565b6020850152565b6040830152565b0152565b509394937f7fe15c93255636e95b82771c2907436d8d0a556b7d511f40b68955518ced024690612b47612b41612b3b612a1b603761059f565b612a2e612a278261270f565b60376116e3565b612a8b612a3a60405190565b8092612a7f60208301918d8d8d8c33944342896014809998959661273582809961273b602061273b9a61273b6108e99f9a839c612735858d61273561273b9f83969052565b908103825203826107f1565b612a9d612a96825190565b9160200190565b2093612b14859b612b04612aaf612743565b6001600160a01b0385168152916001600160a01b038b166020840152612ad68c6040850152565b6001600160a01b038d166060840152612af0426080850152565b5f60a08401523360c08401525b60e0830152565b612b0f87603e610986565b612965565b612b1f85603f61297e565b61203d612b34612b2f603661059f565b61270f565b60366116e3565b94610491565b94610f4c565b94612459612b5460405190565b92839243914291856129a7565b61035f94939291905f6126c0565b90610e899594939291612b80613ec8565b612b92565b9190820180921161271d57565b50919390929091506001600160a01b03831633141580612be4575b612bcf57610e8993612bc9612bc3610e10610f4c565b42612b85565b93613524565b63d86ad9cf60e01b5f90815233600452602490fd5b50612c01611d465f805160206145f08339815191525b33906124c6565b612bad565b610e899392919060605f612b6f565b61034993929190612c325f80516020614630833981519152613ebd565b6124386124327ffcf6f7b79149c04f9387b4ab24ba2b7ca0edce3642a75e43ec9a5a41fb924b539295949561242e8582613f75565b90610349939291612c15565b9061034991612c8461163582611b7d565b90611bc591613f75565b9061034991612c73565b90610e89969594939291612caa613ec8565b90612cc1969594939291612cbc61432c565b612fa6565b909161034961408a565b9081526040810192916103499160200152565b6129de612d1460609361034996989795612d0760808601925f8701906001600160a01b03169052565b84820360208601526108b5565b966040830152565b90612d2b6118816113a0845490565b905f5b818110612d3b5750505090565b909192612d68612d61600192612d508761070b565b6001600160a01b0316815260200190565b9460010190565b929101612d2e565b9061035f91612d1c565b9061034961083192612d8b60405190565b93848092612d70565b90610349612e386004612da5612743565b94612db6612db28261059f565b8752565b612dc561221a6001830161059f565b612dd4612230600283016105b4565b612dec612de3600283016105ca565b15156060880152565b612e04612dfb600283016105e0565b15156080880152565b612e1c612e13600283016105f6565b151560a0880152565b612e32612e2b6003830161059f565b60c0880152565b01612d7a565b60e0840152565b61035f90612d94565b90612e51825190565b8110156106fd576020809102010190565b612e6c6021611035565b7f546f6b656e20697320626c6f636b65642062792069737375657220706f6c69636020820152607960f81b604082015290565b61035f612e62565b612eb1601e611035565b7f45786365656473206d6178207472616e73616374696f6e20616d6f756e740000602082015290565b61035f612ea7565b634e487b7160e01b5f52601260045260245ffd5b8115612f00570490565b612ee2565b612f0f6014611035565b7311185a5b1e481b1a5b5a5d08195e18d95959195960621b602082015290565b61035f612f05565b9190820391821161271d57565b612f4e6016611035565b75436f6f6c646f776e20706572696f642061637469766560501b602082015290565b61035f612f44565b612f826010611035565b6f151c985b9cd9995c88185b1b1bddd95960821b602082015290565b61035f612f78565b509095949293919290506001600160a01b03861633141580613505575b612bcf574281106134eb5750612fd85f611659565b6001600160a01b0381166001600160a01b0387161480156134d0575b611af45761301861260661300b61203d603361070b565b926001600160a01b031690565b146134bf5761303161302986613eb0565b929115919050565b613497575061304261302983613eb0565b613497575061305a61305582603b61049a565b612e3f565b9160e0830161306881515190565b6130746119c85f610f4c565b116133d4575b5082613084815190565b6130906119c85f610f4c565b1190816133c9575b506133a35760208301926130aa845190565b6130b66119c85f610f4c565b1161330c575b60c00180516130cd6119c85f610f4c565b1161315f575b50505092613101916130e761310894955190565b6130f36119c85f610f4c565b11613114575b50603d61049a565b42906116e3565b613110612f9e565b5f91565b6131599061315361314461312985603c61049a565b61313e61313862015180610f4c565b42612ef6565b90610f59565b9161314e8361059f565b612b85565b906116e3565b5f6130f9565b603d9061317461316f898461049a565b61059f565b6131806119c85f610f4c565b141590816132df575b50156130d3577f7fe15c93255636e95b82771c2907436d8d0a556b7d511f40b68955518ced024691929493506132b2613101886131c6603761059f565b6131d2612a278261270f565b6132236131de60405190565b8092612a7f60208301918d8d8d8933944342896014809998959661273582809961273b602061273b9a61273b6108e99f9a839c612735858d61273561273b9f83969052565b61322e612a96825190565b209361329261323b612743565b6001600160a01b03841681526001600160a01b03891660208201526132618a6040830152565b6001600160a01b038b16606082015261327b426080830152565b5f60a08201523360c0820152612b04612afd612f70565b61329d85603f61297e565b6132ad612b34612b2f603661059f565b61049a565b6132c9612b41612b3b6132c3612f70565b99610491565b946132d6612b5460405190565b0390a460039190565b90506133056119c861035f6133006132fa61316f8d8861049a565b42612f37565b935190565b105f613189565b6133308561314e61316f61332561313862015180610f4c565b610f768c603c61049a565b61333e6119c861035f875190565b11156130bc5750909291505f805160206145d083398151915261338361336b612b41612b3b6132c3612f2f565b9461337560405190565b91829143908a429185612cde565b0390a461339d613396612b2f603561059f565b60356116e3565b60019190565b909291505f805160206145d083398151915261338361336b612b41612b3b6132c3612eda565b51905084115f613098565b6133e25f9695929496610f4c565b6133ee61035f83515190565b81101561348c57613410613403828451612e48565b516001600160a01b031690565b6134226001600160a01b038616612606565b1461342f576001016133e2565b505090919293506001925f805160206145d0833981519152613479613461612b41612b3b61345b612e9f565b9a610491565b9461346b60405190565b91829143908b429185612cde565b0390a46119c8613396612b2f603561059f565b50509293915f61307a565b9461338361336b612b41612b3b5f805160206145d08339815191529460019897969850610491565b6332d53d6960e01b5f908152600490fd5b506001600160a01b0381166001600160a01b03841614612ff4565b6302a07ebf60e31b5f90815290611af09042906004612ccb565b5061351f611d465f805160206145f0833981519152612bfa565b612fc3565b610e89949392919060605f612c98565b6103499061354e5f80516020614630833981519152613ebd565b6103499061355a613ec8565b6135666103975f611659565b6001600160a01b03821614611af4578061358a613596923b61235c6119c85f610f4c565b61203d61204282610491565b7ff7eb890150b6f76e5a12cb549e339ceb8264d107697019802737aae325cb5d3e611b6c60405190565b61034990613534565b90610e899392916135d8613ec8565b613639565b6001600160401b0381116108125760208091020190565b90611042610b2b836135dd565b369037565b9061034961361c613616846135f4565b936135dd565b601f190160208401613601565b91908110156106fd576020020190565b50506136428290565b9161364d6064610f4c565b83116136db5761365c83613606565b918261366785613606565b9586906136735f610f4c565b875b8110156136d0576136c9816136c3816136c0818e6136bb8e6136b48f8f6136a66136759d6136ab9361157e93613629565b611855565b50979092612e48565b9015159052565b612e48565b52565b60010190565b9050613673565b509450945094505050565b63f80a484560e01b5f908152611af060648560046116a1565b610e8991906060806135c9565b613709612743565b905f825260208080808080808089015f8152015f61217c565b61035f613701565b90610349612e38600661373b612743565b946137486121fe8261070b565b6137676137576001830161070b565b6001600160a01b03166020880152565b61377d6137766002830161059f565b6040880152565b61379c61378c6003830161070b565b6001600160a01b03166060880152565b6137ab61225e6004830161059f565b6137ba612e13600583016105b4565b61227b6137c960058301610bd5565b6001600160a01b031660c0880152565b61035f9061372a565b6137f961035f916137f1613722565b50603e610986565b6137d9565b9061381293929161380d613ec8565b613b9e565b909192565b604080825260169082015275636865636b41646472657373436f6d706c69616e636560501b6060820152919061034990602060808501940152565b9050519061034982610421565b90505190610349826103a3565b63ffffffff8116610335565b905051906103498261386c565b60ff8116610335565b9050519061034982613885565b90505190610349826116fe565b909291926138b8610b2b826135dd565b938185526020808601920283019281841161032557915b8383106138dc5750505050565b602080916138ea8486613852565b8152019201916138cf565b9080601f8301121561032557815161035f926020016138a8565b91909161010081840312610325576139278382613852565b92613935816020840161385f565b926139438260408501613878565b92613951836060830161388e565b9261395f816080840161388e565b9261396d8260a0850161389b565b9261397b8360c0830161389b565b9260e08201516001600160401b0381116103255761035f92016138f5565b6040513d5f823e3d90fd5b6139ae6008611035565b674c6f77207269736b60c01b602082015290565b61035f6139a4565b6139d4600f611035565b6e48696768207269736b2073636f726560881b602082015290565b61035f6139ca565b613a016013611035565b72437269746963616c207269736b2073636f726560681b602082015290565b61035f6139f7565b613a326012611035565b7153616e6374696f6e6564206164647265737360701b602082015290565b61035f613a28565b613a62601d611035565b7f4e6f207269736b2070726f66696c65202d206661696c20636c6f736564000000602082015290565b61035f613a58565b906116f361035f6116fa9290565b600661295e60c061034994613ac26128ba5f8301516001600160a01b031690565b613ad9613ad0602083015190565b600187016116e3565b613af2613ae96040830151151590565b60028701611719565b613b09613b00606083015190565b600387016116e3565b613b17612925608083015190565b612959613b2560a083015190565b60058701613a93565b9190613b3d5761034991613aa1565b6116c1565b90815491600160401b8310156108125782613b65916001610349950181556106dd565b90613b2e565b8115612f00570690565b90815260608101929161034991604091613b8e90611554565b01666164647265737360c81b9052565b505050613baa5f611659565b6001600160a01b0381166001600160a01b03831614613e6757613bd661260661300b61203d603261070b565b14613e5657613be861203d603261070b565b915f613bf360405190565b62f53a4760e41b81526001600160a01b038416600482015293849060249082905afa928315613e51575f935f915f91613e21575b50155b15613dc557505f613d12613c3c613a8b565b935b613c55613c4e612b2f603461059f565b60346116e3565b613c6f613c6382603961049a565b613153612b2f8261059f565b60388054613c7b611231565b908111613d5d5790613b65613caf61203d93613caa613c9a603461059f565b613ca46001610f4c565b90612f37565b613b6b565b613cb761215a565b6001600160a01b038616815292613ccf8b6020860152565b8715156040850152613ce2426060860152565b613ced436080860152565b613d02666164647265737360c81b60a0860152565b613d0d8a60c0860152565b6106dd565b613d1b85610f4c565b821515917f90c2153fe2204bb74d22f78ab985d3d722549835a6240f6ada46bf07ce1199bc613d4960405190565b80613d55434283613b75565b0390a4929190565b5061203d90613d6a61215a565b6001600160a01b038416815290613d82896020840152565b8515156040830152613d95426060840152565b613da0436080840152565b613db5666164647265737360c81b60a0840152565b613dc08860c0840152565b613b42565b15613ddc575f613d12613dd6613a50565b93613c3e565b613de6605f610f4c565b8310613df8575f613d12613dd6613a20565b613e026050610f4c565b8310613e14575f613d12613dd66139ef565b6001613d12613dd66139c2565b9050613c2a9450613e4491503d805f833e613e3c81836107f1565b81019061390f565b5094509497505050613c27565b613999565b630e048e7160e41b5f908152600490fd5b7fb1f7e734443091f517009c88e8427e84b43169fff07951ebad8908160d02104c613e9160405190565b80613e9c4282613817565b0390a163e6c4247b60e01b5f908152600490fd5b6138129060605f806137fe565b61034990339061437c565b613ed0612131565b613ed657565b63d93c066560e01b5f908152600490fd5b5f80516020614610833981519152613f02611d4684846124c6565b15613f6e576001611b3d845f6124ee8682613f1d9701610986565b613f3b613f35613f2f339390565b9390565b93610491565b91610491565b917f2f8788117e7eff1d82e926ec794901d17c78024a50270940304540a733656f0d613f6660405190565b5f90a4600190565b5050505f90565b5f80516020614610833981519152613f8d83836124c6565b15613f6e575f611b3d84826124ee8682613fa79701610986565b613fb5613f35613f2f339390565b917ff6391f5c32d9c69d2a47ea670b442974b53935d1edc7fd64eb21e047a839171b613f6660405190565b613fe86143aa565b6103496140185f807fcd5ed15c6e187e77e9aee88184c21f4f2182ab5827cb3b7e07fbedcd63f033005b01611719565b7f5db9ee0a495bf2e6ff9c91a7834c1ba4fdd244a5e8aa4e537bd38aeae4b073aa611e04335b604051918291826001600160a01b03909116815260200190565b610349613fe0565b61035f6143f5565b6103496143fd565b610349614068565b6125306143fd565b61035f6001610f4c565b610349614095614080565b5f6116e3565b610349614078565b906140dd6119c8613f2b5f805160206146108339815191529461035f8560016140d7845f6140d082611b7d565b9b01610986565b01613a93565b917fbd79b86ffe0ab8e8776151514217cd7cacd52c909f66475c3af44e129f0b00ff61410860405190565b8080612459565b61411830610491565b7f00000000000000000000000000000000000000000000000000000000000000009061414c6001600160a01b038316612606565b1490811561416d575b5061415c57565b63703e46dd60e11b5f908152600490fd5b905061417d61260661300b61441f565b14155f614155565b506103495f80516020614630833981519152613ebd565b61034990614185565b906020828203126103255761035f91613852565b916141c661203d84610491565b9160206141d260405190565b6352d1902d60e01b815293849060049082905afa5f9381614246575b5061421157634c9c8ce360e01b5f9081526001600160a01b038516600452602490fd5b90919261421f61035f6120f6565b84036142305761034992935061442e565b632a87526960e21b5f9081526004859052602490fd5b61426991945060203d602011614270575b61426181836107f1565b8101906141a5565b925f6141ee565b503d614257565b61428030610491565b6142b26001600160a01b037f000000000000000000000000000000000000000000000000000000000000000016612606565b0361415c57565b6142c1613ec8565b6103496142f060015f7fcd5ed15c6e187e77e9aee88184c21f4f2182ab5827cb3b7e07fbedcd63f03300614012565b7f62e78cea01bee320cd4e420270b5ea74000d11b0c9f74754ebdbfc544b05a258611e043361403e565b6103496142b9565b61035f6002610f4c565b6143355f61059f565b61433d614322565b90811461434e57610349905f6116e3565b633ee5aeb560e01b5f908152600490fd5b6001600160a01b0390911681526040810192916103499160200152565b9061438a611d4682846124c6565b614392575050565b63e2517d3f60e01b5f90815291611af091600461435f565b6143b5611d46612131565b6143bb57565b638dfc202b60e01b5f908152600490fd5b61035f7ff0c57e16840df040f15088dc2f81fe391c3923bec73e23a9662efc9c229c6a00610f4c565b61035f6143cc565b614408611d46614495565b61440e57565b631afcd79f60e31b5f908152600490fd5b61035f5f6125f161035f6120f6565b90614438826144a7565b61444182610491565b7fbc7cd75a20ee27fd9adebab32041f755214dbc6bffa90cc0225b39da2e5c2d3b61446b60405190565b5f90a2805161447c6119c85f610f4c565b111561448b57611bc591614512565b50506103496144f0565b61035f5f6144a1614060565b01611c7a565b803b6144b56119c85f610f4c565b146144d057610349905f6144ca61035f6120f6565b01611f8c565b634c9c8ce360e01b5f9081526001600160a01b039091166004526024035ffd5b6144f95f610f4c565b341161450157565b63b398979f60e01b5f908152600490fd5b9061451d90826145a6565b808061457d575b1561453357505061035f6145b6565b1561455857639996b31560e01b5f9081526001600160a01b039091166004526024035ffd5b3d6145656119c85f610f4c565b115f036139995763d6bda27560e01b5f908152600490fd5b503d61458b6119c85f610f4c565b11806145245750813b6145a06119c85f610f4c565b11614524565b5f918291602082519201905af490565b604051903d82523d5f602084013e3d602001820160405256fe821d9e7c211ba387e5bdeb1323a2db550db64fbf248854206034ac1638aa3cfc97667070c54ef182b0f5858b034beac1b6f3089aa2d3188bb1e8929f4fa9b92902dd7bc7dec4dceedda775e58dd541e08a116c6c53815c0bd028192f7b626800a49807205ce4d355092ef5a8a18f56e8913cf4a201fbe287825b095693c21775a164736f6c634300081a000a",
  "linkReferences": {},
  "deployedLinkReferences": {}
}