{
  "_format": "hh-sol-artifact-1",
  "contractName": "FunctionsRequest",
  "sourceName": "@chainlink/contracts/src/v0.8/functions/v1_0_0/libraries/FunctionsRequest.sol",
  "abi": [
    {
      "inputs": [],
      "name": "EmptyArgs",
      "type": "error"
    },
    {
      "inputs": [],
      "name": "EmptySecrets",
      "type": "error"
    },
    {
      "inputs": [],
      "name": "EmptySource",
      "type": "error"
    },
    {
      "inputs": [],
      "name": "NoInlineSecrets",
      "type": "error"
    },
    {
      "inputs": [],
      "name": "REQUEST_DATA_VERSION",
      "outputs": [
        {
          "internalType": "uint16",
          "name": "",
          "type": "uint16"
        }
      ],
      "stateMutability": "view",
      "type": "function"
    }
  ],
  "bytecode": "0x608060405234601a576040516085601f823930815050608590f35b5f80fdfe608060405260043610156010575f80fd5b5f3560e01c635d641dfc14604e575b5f80fd5b5f910312601f57565b6039603660369290565b90565b61ffff1690565b60366001602c565b60366040565b60573660046023565b6074605f6048565b6040519182918261ffff909116815260200190565b0390f3fea164736f6c634300081a000a",
  "linkReferences": {},
  "deployedLinkReferences": {}
}