{
  "_format": "hh-sol-artifact-1",
  "contractName": "RiskRegistryV2",
  "sourceName": "contracts/RiskRegistryV2.sol",
  "abi": [
    {
      "inputs": [],
      "stateMutability": "nonpayable",
      "type": "constructor"
    },
    {
      "inputs": [],
      "name": "AccessControlBadConfirmation",
      "type": "error"
    },
    {
      "inputs": [
        {
          "internalType": "address",
          "name": "account",
          "type": "address"
        },
        {
          "internalType": "bytes32",
          "name": "neededRole",
          "type": "bytes32"
        }
      ],
      "name": "AccessControlUnauthorizedAccount",
      "type": "error"
    },
    {
      "inputs": [
        {
          "internalType": "address",
          "name": "target",
          "type": "address"
        }
      ],
      "name": "AddressEmptyCode",
      "type": "error"
    },
    {
      "inputs": [],
      "name": "BatchTooLarge",
      "type": "error"
    },
    {
      "inputs": [
        {
          "internalType": "address",
          "name": "implementation",
          "type": "address"
        }
      ],
      "name": "ERC1967InvalidImplementation",
      "type": "error"
    },
    {
      "inputs": [],
      "name": "ERC1967NonPayable",
      "type": "error"
    },
    {
      "inputs": [],
      "name": "EnforcedPause",
      "type": "error"
    },
    {
      "inputs": [],
      "name": "ExpectedPause",
      "type": "error"
    },
    {
      "inputs": [],
      "name": "FailedCall",
      "type": "error"
    },
    {
      "inputs": [],
      "name": "InvalidAddress",
      "type": "error"
    },
    {
      "inputs": [],
      "name": "InvalidInitialization",
      "type": "error"
    },
    {
      "inputs": [],
      "name": "InvalidRiskScore",
      "type": "error"
    },
    {
      "inputs": [
        {
          "internalType": "uint8",
          "name": "tier",
          "type": "uint8"
        }
      ],
      "name": "InvalidRiskTier",
      "type": "error"
    },
    {
      "inputs": [],
      "name": "LengthMismatch",
      "type": "error"
    },
    {
      "inputs": [],
      "name": "NotInitializing",
      "type": "error"
    },
    {
      "inputs": [
        {
          "internalType": "address",
          "name": "addr",
          "type": "address"
        }
      ],
      "name": "ProfileNotFound",
      "type": "error"
    },
    {
      "inputs": [],
      "name": "TooManyTags",
      "type": "error"
    },
    {
      "inputs": [],
      "name": "UUPSUnauthorizedCallContext",
      "type": "error"
    },
    {
      "inputs": [
        {
          "internalType": "bytes32",
          "name": "slot",
          "type": "bytes32"
        }
      ],
      "name": "UUPSUnsupportedProxiableUUID",
      "type": "error"
    },
    {
      "inputs": [],
      "name": "UpdateTooFrequent",
      "type": "error"
    },
    {
      "anonymous": false,
      "inputs": [
        {
          "indexed": true,
          "internalType": "address",
          "name": "account",
          "type": "address"
        },
        {
          "indexed": true,
          "internalType": "bytes32",
          "name": "tag",
          "type": "bytes32"
        }
      ],
      "name": "AddressTagged",
      "type": "event"
    },
    {
      "anonymous": false,
      "inputs": [
        {
          "indexed": true,
          "internalType": "address",
          "name": "account",
          "type": "address"
        },
        {
          "indexed": true,
          "internalType": "bytes32",
          "name": "tag",
          "type": "bytes32"
        }
      ],
      "name": "AddressUntagged",
      "type": "event"
    },
    {
      "anonymous": false,
      "inputs": [
        {
          "indexed": false,
          "internalType": "uint256",
          "name": "count",
          "type": "uint256"
        },
        {
          "indexed": false,
          "internalType": "uint256",
          "name": "gasUsed",
          "type": "uint256"
        }
      ],
      "name": "BatchUpdateCompleted",
      "type": "event"
    },
    {
      "anonymous": false,
      "inputs": [
        {
          "indexed": true,
          "internalType": "uint256",
          "name": "index",
          "type": "uint256"
        },
        {
          "indexed": false,
          "internalType": "address",
          "name": "addr",
          "type": "address"
        },
        {
          "indexed": false,
          "internalType": "string",
          "name": "reason",
          "type": "string"
        }
      ],
      "name": "BatchUpdateSkipped",
      "type": "event"
    },
    {
      "anonymous": false,
      "inputs": [
        {
          "indexed": true,
          "internalType": "address",
          "name": "contractAddr",
          "type": "address"
        },
        {
          "indexed": false,
          "internalType": "bytes32",
          "name": "contractType",
          "type": "bytes32"
        },
        {
          "indexed": false,
          "internalType": "bool",
          "name": "verified",
          "type": "bool"
        }
      ],
      "name": "ContractRegistered",
      "type": "event"
    },
    {
      "anonymous": false,
      "inputs": [
        {
          "indexed": false,
          "internalType": "uint64",
          "name": "version",
          "type": "uint64"
        }
      ],
      "name": "Initialized",
      "type": "event"
    },
    {
      "anonymous": false,
      "inputs": [
        {
          "indexed": false,
          "internalType": "address",
          "name": "account",
          "type": "address"
        }
      ],
      "name": "Paused",
      "type": "event"
    },
    {
      "anonymous": false,
      "inputs": [
        {
          "indexed": true,
          "internalType": "address",
          "name": "account",
          "type": "address"
        },
        {
          "indexed": false,
          "internalType": "uint8",
          "name": "riskScore",
          "type": "uint8"
        },
        {
          "indexed": false,
          "internalType": "enum RiskRegistryV2.RiskTier",
          "name": "tier",
          "type": "uint8"
        },
        {
          "indexed": false,
          "internalType": "bool",
          "name": "isSanctioned",
          "type": "bool"
        }
      ],
      "name": "RiskProfileUpdated",
      "type": "event"
    },
    {
      "anonymous": false,
      "inputs": [
        {
          "indexed": true,
          "internalType": "bytes32",
          "name": "role",
          "type": "bytes32"
        },
        {
          "indexed": true,
          "internalType": "bytes32",
          "name": "previousAdminRole",
          "type": "bytes32"
        },
        {
          "indexed": true,
          "internalType": "bytes32",
          "name": "newAdminRole",
          "type": "bytes32"
        }
      ],
      "name": "RoleAdminChanged",
      "type": "event"
    },
    {
      "anonymous": false,
      "inputs": [
        {
          "indexed": true,
          "internalType": "bytes32",
          "name": "role",
          "type": "bytes32"
        },
        {
          "indexed": true,
          "internalType": "address",
          "name": "account",
          "type": "address"
        },
        {
          "indexed": true,
          "internalType": "address",
          "name": "sender",
          "type": "address"
        }
      ],
      "name": "RoleGranted",
      "type": "event"
    },
    {
      "anonymous": false,
      "inputs": [
        {
          "indexed": true,
          "internalType": "bytes32",
          "name": "role",
          "type": "bytes32"
        },
        {
          "indexed": true,
          "internalType": "address",
          "name": "account",
          "type": "address"
        },
        {
          "indexed": true,
          "internalType": "address",
          "name": "sender",
          "type": "address"
        }
      ],
      "name": "RoleRevoked",
      "type": "event"
    },
    {
      "anonymous": false,
      "inputs": [
        {
          "indexed": true,
          "internalType": "address",
          "name": "account",
          "type": "address"
        },
        {
          "indexed": false,
          "internalType": "string",
          "name": "reason",
          "type": "string"
        }
      ],
      "name": "SanctionAdded",
      "type": "event"
    },
    {
      "anonymous": false,
      "inputs": [
        {
          "indexed": true,
          "internalType": "address",
          "name": "account",
          "type": "address"
        }
      ],
      "name": "SanctionRemoved",
      "type": "event"
    },
    {
      "anonymous": false,
      "inputs": [
        {
          "indexed": false,
          "internalType": "address",
          "name": "account",
          "type": "address"
        }
      ],
      "name": "Unpaused",
      "type": "event"
    },
    {
      "anonymous": false,
      "inputs": [
        {
          "indexed": true,
          "internalType": "address",
          "name": "proposedImplementation",
          "type": "address"
        },
        {
          "indexed": false,
          "internalType": "uint256",
          "name": "proposedAt",
          "type": "uint256"
        },
        {
          "indexed": false,
          "internalType": "string",
          "name": "reason",
          "type": "string"
        }
      ],
      "name": "UpgradeProposed",
      "type": "event"
    },
    {
      "anonymous": false,
      "inputs": [
        {
          "indexed": true,
          "internalType": "address",
          "name": "implementation",
          "type": "address"
        }
      ],
      "name": "Upgraded",
      "type": "event"
    },
    {
      "inputs": [],
      "name": "ADMIN_ROLE",
      "outputs": [
        {
          "internalType": "bytes32",
          "name": "",
          "type": "bytes32"
        }
      ],
      "stateMutability": "view",
      "type": "function"
    },
    {
      "inputs": [],
      "name": "BATCH_MAX_SIZE",
      "outputs": [
        {
          "internalType": "uint256",
          "name": "",
          "type": "uint256"
        }
      ],
      "stateMutability": "view",
      "type": "function"
    },
    {
      "inputs": [],
      "name": "COMPLIANCE_ENGINE_ROLE",
      "outputs": [
        {
          "internalType": "bytes32",
          "name": "",
          "type": "bytes32"
        }
      ],
      "stateMutability": "view",
      "type": "function"
    },
    {
      "inputs": [],
      "name": "DEFAULT_ADMIN_ROLE",
      "outputs": [
        {
          "internalType": "bytes32",
          "name": "",
          "type": "bytes32"
        }
      ],
      "stateMutability": "view",
      "type": "function"
    },
    {
      "inputs": [],
      "name": "MAX_TAGS_PER_ADDRESS",
      "outputs": [
        {
          "internalType": "uint256",
          "name": "",
          "type": "uint256"
        }
      ],
      "stateMutability": "view",
      "type": "function"
    },
    {
      "inputs": [],
      "name": "MIN_UPDATE_INTERVAL",
      "outputs": [
        {
          "internalType": "uint256",
          "name": "",
          "type": "uint256"
        }
      ],
      "stateMutability": "view",
      "type": "function"
    },
    {
      "inputs": [],
      "name": "OPERATOR_ROLE",
      "outputs": [
        {
          "internalType": "bytes32",
          "name": "",
          "type": "bytes32"
        }
      ],
      "stateMutability": "view",
      "type": "function"
    },
    {
      "inputs": [],
      "name": "ORACLE_ROLE",
      "outputs": [
        {
          "internalType": "bytes32",
          "name": "",
          "type": "bytes32"
        }
      ],
      "stateMutability": "view",
      "type": "function"
    },
    {
      "inputs": [],
      "name": "UPGRADE_INTERFACE_VERSION",
      "outputs": [
        {
          "internalType": "string",
          "name": "",
          "type": "string"
        }
      ],
      "stateMutability": "view",
      "type": "function"
    },
    {
      "inputs": [],
      "name": "UPGRADE_TIMELOCK",
      "outputs": [
        {
          "internalType": "uint256",
          "name": "",
          "type": "uint256"
        }
      ],
      "stateMutability": "view",
      "type": "function"
    },
    {
      "inputs": [],
      "name": "VERSION",
      "outputs": [
        {
          "internalType": "string",
          "name": "",
          "type": "string"
        }
      ],
      "stateMutability": "view",
      "type": "function"
    },
    {
      "inputs": [
        {
          "internalType": "address",
          "name": "account",
          "type": "address"
        },
        {
          "internalType": "bytes32",
          "name": "tag",
          "type": "bytes32"
        }
      ],
      "name": "addTag",
      "outputs": [],
      "stateMutability": "nonpayable",
      "type": "function"
    },
    {
      "inputs": [
        {
          "internalType": "uint256",
          "name": "_totalProfiles",
          "type": "uint256"
        },
        {
          "internalType": "uint256",
          "name": "_totalHighRisk",
          "type": "uint256"
        },
        {
          "internalType": "uint256",
          "name": "_totalSanctioned",
          "type": "uint256"
        }
      ],
      "name": "backfillCounters",
      "outputs": [],
      "stateMutability": "nonpayable",
      "type": "function"
    },
    {
      "inputs": [
        {
          "internalType": "address[]",
          "name": "accounts",
          "type": "address[]"
        },
        {
          "internalType": "uint8[]",
          "name": "riskScores",
          "type": "uint8[]"
        },
        {
          "internalType": "uint8[]",
          "name": "tiers",
          "type": "uint8[]"
        },
        {
          "internalType": "bool[]",
          "name": "isSanctionedList",
          "type": "bool[]"
        },
        {
          "internalType": "bytes32[][]",
          "name": "tags",
          "type": "bytes32[][]"
        }
      ],
      "name": "batchUpdateRiskProfiles",
      "outputs": [],
      "stateMutability": "nonpayable",
      "type": "function"
    },
    {
      "inputs": [],
      "name": "chainId",
      "outputs": [
        {
          "internalType": "uint256",
          "name": "",
          "type": "uint256"
        }
      ],
      "stateMutability": "view",
      "type": "function"
    },
    {
      "inputs": [
        {
          "internalType": "address",
          "name": "",
          "type": "address"
        }
      ],
      "name": "contractRegistry",
      "outputs": [
        {
          "internalType": "bool",
          "name": "isVerified",
          "type": "bool"
        },
        {
          "internalType": "uint8",
          "name": "riskScore",
          "type": "uint8"
        },
        {
          "internalType": "bytes32",
          "name": "contractType",
          "type": "bytes32"
        },
        {
          "internalType": "uint256",
          "name": "verifiedAt",
          "type": "uint256"
        },
        {
          "internalType": "address",
          "name": "verifiedBy",
          "type": "address"
        }
      ],
      "stateMutability": "view",
      "type": "function"
    },
    {
      "inputs": [
        {
          "internalType": "address[]",
          "name": "accounts",
          "type": "address[]"
        },
        {
          "internalType": "string",
          "name": "reason",
          "type": "string"
        }
      ],
      "name": "emergencySanction",
      "outputs": [],
      "stateMutability": "nonpayable",
      "type": "function"
    },
    {
      "inputs": [
        {
          "internalType": "bytes32",
          "name": "",
          "type": "bytes32"
        },
        {
          "internalType": "uint256",
          "name": "",
          "type": "uint256"
        }
      ],
      "name": "entityAddresses",
      "outputs": [
        {
          "internalType": "address",
          "name": "",
          "type": "address"
        }
      ],
      "stateMutability": "view",
      "type": "function"
    },
    {
      "inputs": [
        {
          "internalType": "address",
          "name": "contractAddr",
          "type": "address"
        }
      ],
      "name": "getContractRisk",
      "outputs": [
        {
          "internalType": "bool",
          "name": "verified",
          "type": "bool"
        },
        {
          "internalType": "uint8",
          "name": "riskScore",
          "type": "uint8"
        },
        {
          "internalType": "bytes32",
          "name": "contractType",
          "type": "bytes32"
        }
      ],
      "stateMutability": "view",
      "type": "function"
    },
    {
      "inputs": [
        {
          "internalType": "bytes32",
          "name": "entityType",
          "type": "bytes32"
        }
      ],
      "name": "getEntityAddresses",
      "outputs": [
        {
          "internalType": "address[]",
          "name": "",
          "type": "address[]"
        }
      ],
      "stateMutability": "view",
      "type": "function"
    },
    {
      "inputs": [
        {
          "internalType": "address",
          "name": "addr",
          "type": "address"
        }
      ],
      "name": "getProfile",
      "outputs": [
        {
          "internalType": "uint256",
          "name": "riskScore",
          "type": "uint256"
        },
        {
          "internalType": "address",
          "name": "profileAddr",
          "type": "address"
        },
        {
          "internalType": "uint32",
          "name": "lastUpdated",
          "type": "uint32"
        },
        {
          "internalType": "uint8",
          "name": "riskTier",
          "type": "uint8"
        },
        {
          "internalType": "uint8",
          "name": "sourceConfidence",
          "type": "uint8"
        },
        {
          "internalType": "bool",
          "name": "sanctioned",
          "type": "bool"
        },
        {
          "internalType": "bool",
          "name": "exists",
          "type": "bool"
        },
        {
          "internalType": "bytes32[]",
          "name": "tags",
          "type": "bytes32[]"
        }
      ],
      "stateMutability": "view",
      "type": "function"
    },
    {
      "inputs": [
        {
          "internalType": "address",
          "name": "account",
          "type": "address"
        }
      ],
      "name": "getRiskProfile",
      "outputs": [
        {
          "internalType": "uint8",
          "name": "riskScore",
          "type": "uint8"
        },
        {
          "internalType": "uint8",
          "name": "tier",
          "type": "uint8"
        },
        {
          "internalType": "bytes32[]",
          "name": "tags",
          "type": "bytes32[]"
        },
        {
          "internalType": "uint256",
          "name": "lastUpdated",
          "type": "uint256"
        },
        {
          "internalType": "bool",
          "name": "isSanctioned",
          "type": "bool"
        }
      ],
      "stateMutability": "view",
      "type": "function"
    },
    {
      "inputs": [
        {
          "internalType": "address",
          "name": "account",
          "type": "address"
        }
      ],
      "name": "getRiskScore",
      "outputs": [
        {
          "internalType": "uint8",
          "name": "",
          "type": "uint8"
        }
      ],
      "stateMutability": "view",
      "type": "function"
    },
    {
      "inputs": [
        {
          "internalType": "address",
          "name": "account",
          "type": "address"
        }
      ],
      "name": "getRiskTier",
      "outputs": [
        {
          "internalType": "enum RiskRegistryV2.RiskTier",
          "name": "",
          "type": "uint8"
        }
      ],
      "stateMutability": "view",
      "type": "function"
    },
    {
      "inputs": [
        {
          "internalType": "bytes32",
          "name": "role",
          "type": "bytes32"
        }
      ],
      "name": "getRoleAdmin",
      "outputs": [
        {
          "internalType": "bytes32",
          "name": "",
          "type": "bytes32"
        }
      ],
      "stateMutability": "view",
      "type": "function"
    },
    {
      "inputs": [
        {
          "internalType": "address",
          "name": "account",
          "type": "address"
        }
      ],
      "name": "getTags",
      "outputs": [
        {
          "internalType": "bytes32[]",
          "name": "",
          "type": "bytes32[]"
        }
      ],
      "stateMutability": "view",
      "type": "function"
    },
    {
      "inputs": [
        {
          "internalType": "bytes32",
          "name": "role",
          "type": "bytes32"
        },
        {
          "internalType": "address",
          "name": "account",
          "type": "address"
        }
      ],
      "name": "grantRole",
      "outputs": [],
      "stateMutability": "nonpayable",
      "type": "function"
    },
    {
      "inputs": [
        {
          "internalType": "bytes32",
          "name": "role",
          "type": "bytes32"
        },
        {
          "internalType": "address",
          "name": "account",
          "type": "address"
        }
      ],
      "name": "hasRole",
      "outputs": [
        {
          "internalType": "bool",
          "name": "",
          "type": "bool"
        }
      ],
      "stateMutability": "view",
      "type": "function"
    },
    {
      "inputs": [
        {
          "internalType": "address",
          "name": "account",
          "type": "address"
        },
        {
          "internalType": "bytes32",
          "name": "tag",
          "type": "bytes32"
        }
      ],
      "name": "hasTag",
      "outputs": [
        {
          "internalType": "bool",
          "name": "",
          "type": "bool"
        }
      ],
      "stateMutability": "view",
      "type": "function"
    },
    {
      "inputs": [],
      "name": "initializeV2",
      "outputs": [],
      "stateMutability": "nonpayable",
      "type": "function"
    },
    {
      "inputs": [],
      "name": "initializeV2_2",
      "outputs": [],
      "stateMutability": "nonpayable",
      "type": "function"
    },
    {
      "inputs": [
        {
          "internalType": "address",
          "name": "account",
          "type": "address"
        }
      ],
      "name": "isSanctioned",
      "outputs": [
        {
          "internalType": "bool",
          "name": "",
          "type": "bool"
        }
      ],
      "stateMutability": "view",
      "type": "function"
    },
    {
      "inputs": [],
      "name": "lastGlobalUpdate",
      "outputs": [
        {
          "internalType": "uint256",
          "name": "",
          "type": "uint256"
        }
      ],
      "stateMutability": "view",
      "type": "function"
    },
    {
      "inputs": [],
      "name": "pause",
      "outputs": [],
      "stateMutability": "nonpayable",
      "type": "function"
    },
    {
      "inputs": [],
      "name": "paused",
      "outputs": [
        {
          "internalType": "bool",
          "name": "",
          "type": "bool"
        }
      ],
      "stateMutability": "view",
      "type": "function"
    },
    {
      "inputs": [
        {
          "internalType": "address",
          "name": "",
          "type": "address"
        }
      ],
      "name": "preSanctionProfiles",
      "outputs": [
        {
          "internalType": "uint256",
          "name": "",
          "type": "uint256"
        }
      ],
      "stateMutability": "view",
      "type": "function"
    },
    {
      "inputs": [
        {
          "internalType": "address",
          "name": "newImplementation",
          "type": "address"
        }
      ],
      "name": "proposeUpgrade",
      "outputs": [],
      "stateMutability": "nonpayable",
      "type": "function"
    },
    {
      "inputs": [],
      "name": "proxiableUUID",
      "outputs": [
        {
          "internalType": "bytes32",
          "name": "",
          "type": "bytes32"
        }
      ],
      "stateMutability": "view",
      "type": "function"
    },
    {
      "inputs": [
        {
          "internalType": "address",
          "name": "contractAddr",
          "type": "address"
        },
        {
          "internalType": "bytes32",
          "name": "contractType",
          "type": "bytes32"
        },
        {
          "internalType": "bool",
          "name": "verified",
          "type": "bool"
        },
        {
          "internalType": "uint8",
          "name": "riskScore",
          "type": "uint8"
        }
      ],
      "name": "registerContract",
      "outputs": [],
      "stateMutability": "nonpayable",
      "type": "function"
    },
    {
      "inputs": [
        {
          "internalType": "address",
          "name": "account",
          "type": "address"
        }
      ],
      "name": "removeSanction",
      "outputs": [],
      "stateMutability": "nonpayable",
      "type": "function"
    },
    {
      "inputs": [
        {
          "internalType": "address",
          "name": "account",
          "type": "address"
        },
        {
          "internalType": "bytes32",
          "name": "tag",
          "type": "bytes32"
        }
      ],
      "name": "removeTag",
      "outputs": [],
      "stateMutability": "nonpayable",
      "type": "function"
    },
    {
      "inputs": [
        {
          "internalType": "bytes32",
          "name": "role",
          "type": "bytes32"
        },
        {
          "internalType": "address",
          "name": "callerConfirmation",
          "type": "address"
        }
      ],
      "name": "renounceRole",
      "outputs": [],
      "stateMutability": "nonpayable",
      "type": "function"
    },
    {
      "inputs": [
        {
          "internalType": "bytes32",
          "name": "role",
          "type": "bytes32"
        },
        {
          "internalType": "address",
          "name": "account",
          "type": "address"
        }
      ],
      "name": "revokeRole",
      "outputs": [],
      "stateMutability": "nonpayable",
      "type": "function"
    },
    {
      "inputs": [
        {
          "internalType": "address",
          "name": "account",
          "type": "address"
        }
      ],
      "name": "riskProfiles",
      "outputs": [
        {
          "internalType": "uint256",
          "name": "riskScore",
          "type": "uint256"
        },
        {
          "internalType": "address",
          "name": "addr",
          "type": "address"
        },
        {
          "internalType": "uint32",
          "name": "lastUpdated",
          "type": "uint32"
        },
        {
          "internalType": "uint8",
          "name": "riskTier",
          "type": "uint8"
        },
        {
          "internalType": "uint8",
          "name": "sourceConfidence",
          "type": "uint8"
        },
        {
          "internalType": "bool",
          "name": "sanctioned",
          "type": "bool"
        },
        {
          "internalType": "bool",
          "name": "exists",
          "type": "bool"
        }
      ],
      "stateMutability": "view",
      "type": "function"
    },
    {
      "inputs": [
        {
          "internalType": "address",
          "name": "",
          "type": "address"
        }
      ],
      "name": "sanctionedAddresses",
      "outputs": [
        {
          "internalType": "bool",
          "name": "",
          "type": "bool"
        }
      ],
      "stateMutability": "view",
      "type": "function"
    },
    {
      "inputs": [
        {
          "internalType": "bytes4",
          "name": "interfaceId",
          "type": "bytes4"
        }
      ],
      "name": "supportsInterface",
      "outputs": [
        {
          "internalType": "bool",
          "name": "",
          "type": "bool"
        }
      ],
      "stateMutability": "view",
      "type": "function"
    },
    {
      "inputs": [],
      "name": "totalHighRisk",
      "outputs": [
        {
          "internalType": "uint256",
          "name": "",
          "type": "uint256"
        }
      ],
      "stateMutability": "view",
      "type": "function"
    },
    {
      "inputs": [],
      "name": "totalProfiles",
      "outputs": [
        {
          "internalType": "uint256",
          "name": "",
          "type": "uint256"
        }
      ],
      "stateMutability": "view",
      "type": "function"
    },
    {
      "inputs": [],
      "name": "totalSanctioned",
      "outputs": [
        {
          "internalType": "uint256",
          "name": "",
          "type": "uint256"
        }
      ],
      "stateMutability": "view",
      "type": "function"
    },
    {
      "inputs": [],
      "name": "unpause",
      "outputs": [],
      "stateMutability": "nonpayable",
      "type": "function"
    },
    {
      "inputs": [
        {
          "internalType": "address",
          "name": "account",
          "type": "address"
        },
        {
          "internalType": "uint8",
          "name": "riskScore",
          "type": "uint8"
        },
        {
          "internalType": "uint8",
          "name": "tier",
          "type": "uint8"
        },
        {
          "internalType": "bytes32[]",
          "name": "tags",
          "type": "bytes32[]"
        },
        {
          "internalType": "bool",
          "name": "sanctionedStatus",
          "type": "bool"
        }
      ],
      "name": "updateRiskProfile",
      "outputs": [],
      "stateMutability": "nonpayable",
      "type": "function"
    },
    {
      "inputs": [
        {
          "internalType": "bytes32",
          "name": "",
          "type": "bytes32"
        }
      ],
      "name": "upgradeProposals",
      "outputs": [
        {
          "internalType": "uint256",
          "name": "",
          "type": "uint256"
        }
      ],
      "stateMutability": "view",
      "type": "function"
    },
    {
      "inputs": [
        {
          "internalType": "address",
          "name": "newImplementation",
          "type": "address"
        },
        {
          "internalType": "bytes",
          "name": "data",
          "type": "bytes"
        }
      ],
      "name": "upgradeToAndCall",
      "outputs": [],
      "stateMutability": "payable",
      "type": "function"
    }
  ],
  "bytecode": "0x60a06040523461003257610011610036565b604051613f656101de82396080518181816136c101526139480152613f6590f35b5f80fd5b61003e61007d565b610046610101565b565b61005c9061005f906001600160a01b031682565b90565b6001600160a01b031690565b61005c90610048565b61005c9061006b565b61008630610074565b608052565b61005c9060401c60ff1690565b61005c905461008b565b61005c905b6001600160401b031690565b61005c90546100a2565b61005c906100a7906001600160401b031682565b906100e161005c6100fd926100bd565b82546001600160401b0319166001600160401b03919091161790565b9055565b5f61010a610197565b0161011481610098565b61018657610121816100b3565b6001600160401b0391908290811603610138575050565b816101677fc7f505b2f371ae2175ee4913f4499e1f2633a7b5936321eed1cdaeb6115181d293610181936100d1565b604051918291826001600160401b03909116815260200190565b0390a1565b63f92ee8a960e01b5f908152600490fd5b61005c6101d5565b61005c61005c61005c9290565b61005c7ff0c57e16840df040f15088dc2f81fe391c3923bec73e23a9662efc9c229c6a0061019f565b61005c6101ac56fe6102806040526004361015610012575f80fd5b5f3560e01c806301ffc9a71461036157806307e2cea51461035c57806309a212b9146103575780630de593ba146103525780630e9514e71461034d5780630f53a47014610348578063227b4db114610343578063248a9ca31461033e57806324facdbc1461033957806325ed32ca146103345780632f2ff15d1461032f57806336568abe1461032a5780633f4ba83a14610325578063426c31d3146103205780634c95da661461031b5780634f1ef2861461031657806351276d201461031157806352d1902d1461030c57806359ccf211146103075780635a6fcd40146103025780635c975abb146102fd5780635cd8a76b146102f85780635e2b2072146102f35780635eafd108146102ee5780635fc46f90146102e957806375b238fc146102e45780638382c2a2146102df5780638456cb59146102da5780638b285e3c146102d557806391d14854146102d05780639948b18d146102cb5780639a8a0592146102c6578063a217fddf146102c1578063a556a563146102bc578063a91565e7146102b7578063ad3cb1cc146102b2578063b1c486c0146102ad578063baf1e57f146102a8578063bd3be27c146102a3578063c915fc931461029e578063d019577a14610299578063d2adbe7914610294578063d37373ba1461028f578063d547741f1461028a578063d55470c614610285578063dc08706d14610280578063df592f7d1461027b578063e2fdc7f614610276578063ed111b0614610271578063ed56f51e1461026c578063f5b541a614610267578063ff7cc7f6146102625763ffa1ad7403610366576113e3565b61138b565b6112b8565b61129c565b6111f0565b611109565b6110dc565b6110ad565b611074565b61105b565b611042565b611027565b611000565b610fe8565b610fcd565b610f89565b610f1f565b610eed565b610e3d565b610e17565b610dce565b610da2565b610d63565b610cf9565b610cde565b610cb7565b610c8d565b610c40565b610c19565b610bef565b610bbb565b610ba3565b610b88565b610b6d565b610b43565b610a99565b610a81565b610a6d565b610952565b6108e8565b610876565b61085d565b610844565b610806565b6107d9565b610795565b61076e565b6106cb565b6105e3565b61053e565b610446565b6103e2565b6103a7565b5f80fd5b6001600160e01b031981165b0361036657565b9050359061038a8261036a565b565b90602082820312610366576103a09161037d565b90565b9052565b34610366576103d46103c26103bd36600461038c565b6113fe565b60405191829182901515815260200190565b0390f35b5f91031261036657565b34610366576103f23660046103d8565b6103d47f68e79a7bf1e0bc45d0a330c573bc367f9cf464fd326078812f301165fbda4ef15b6040519182918290815260200190565b6103a06103a06103a09290565b6103a0600a610427565b6103a0610434565b34610366576104563660046103d8565b6103d461041761043e565b80610376565b9050359061038a82610461565b9190604083820312610366576103a09060206104908286610467565b9401610467565b905b5f5260205260405f2090565b634e487b7160e01b5f52603260045260245ffd5b80548210156104d9576104d16001915f5260205f2090565b910201905f90565b6104a5565b6103a0916008021c5b6001600160a01b031690565b906103a091546104de565b610509906007610497565b8054821015610366576103a09161051f916104b9565b906104f3565b6103a3906104e7565b60208101929161038a9190610525565b34610366576103d461055a610554366004610474565b906104fe565b6040519182918261052e565b610376816104e7565b9050359061038a82610566565b801515610376565b9050359061038a8261057c565b60ff8116610376565b9050359061038a82610591565b608081830312610366576105bb828261056f565b926103a06105cc8460208501610467565b9360606105dc8260408701610584565b940161059a565b34610366576105ff6105f63660046105a7565b929190916116be565b604051005b90602082820312610366576103a09161056f565b0190565b9061063c61063561062b845190565b8084529260200190565b9260200190565b905f5b81811061064c5750505090565b9091926106696106626001928651815260200190565b9460200190565b92910161063f565b908152610100810196909590949093909290916020870161069191610525565b63ffffffff16604086015260ff16606085015260ff166080840152151560a0830152151560c08201528082039060e001526103a09161061c565b34610366576103d46106e66106e1366004610604565b611786565b946106f998969894919493929360405190565b98899889610671565b90602082820312610366576103a091610467565b9061061881602093610525565b9061073261063561062b845190565b905f5b8181106107425750505090565b9091926107556106626001928651610716565b929101610735565b60208082526103a092910190610723565b34610366576103d4610789610784366004610702565b611899565b6040519182918261075d565b34610366576103d46104176107ab366004610702565b6118b5565b9091606082840312610366576103a06107c98484610467565b9360406104908260208701610467565b34610366576105ff6107ec3660046107b0565b9161198f565b6103a06202a300610427565b6103a06107f2565b34610366576108163660046103d8565b6103d46104176107fe565b9190604083820312610366576103a090602061083d8286610467565b940161056f565b34610366576105ff610857366004610821565b906119b8565b34610366576105ff610870366004610821565b906119c2565b34610366576108863660046103d8565b6105ff611a15565b6103a0906104e7906001600160a01b031682565b6103a09061088e565b6103a0906108a2565b90610499906108ab565b6103a0916008021c81565b906103a091546108be565b5f6108e36103a092600d6108b4565b6108c9565b34610366576103d46104176108fe366004610604565b6108d4565b634e487b7160e01b5f52602160045260245ffd5b6005111561092157565b610903565b9061038a82610917565b6103a090610926565b6103a390610930565b60208101929161038a9190610939565b34610366576103d461096d610968366004610604565b611a32565b60405191829182610942565b634e487b7160e01b5f52604160045260245ffd5b90601f01601f191681019081106001600160401b038211176109ae57604052565b610979565b9061038a6109c060405190565b928361098d565b6001600160401b0381116109ae57602090601f01601f19160190565b90825f939282370152565b90929192610a036109fe826109c7565b6109b3565b93818552818301116103665761038a9160208501906109e3565b9080601f83011215610366578160206103a0933591016109ee565b91909160408184031261036657610a4f838261056f565b9260208201356001600160401b038111610366576103a09201610a1d565b6105ff610a7b366004610a38565b90611a87565b3461036657610a913660046103d8565b6105ff611c22565b3461036657610aa93660046103d8565b6103d4610417611c6d565b909182601f83011215610366578135916001600160401b03831161036657602001926020830284011161036657565b9160a08383031261036657610af8828461056f565b92610b06836020830161059a565b92610b14816040840161059a565b9260608301356001600160401b0381116103665782610b3a6080946103a0938701610ab4565b94909501610584565b34610366576105ff610b56366004610ae3565b9493909392919261201a565b6103a05f600b6108c9565b3461036657610b7d3660046103d8565b6103d4610417610b62565b3461036657610b983660046103d8565b6103d46103c2612028565b3461036657610bb33660046103d8565b6105ff612103565b34610366576105ff610bce366004610604565b6122a0565b9190604083820312610366576103a0906020610490828661056f565b34610366576105ff610c02366004610bd3565b9061241a565b60208082526103a09291019061061c565b34610366576103d4610c34610c2f366004610604565b612424565b60405191829182610c08565b3461036657610c503660046103d8565b6103d45f80516020613f39833981519152610417565b901515815260608101939261038a929091604091610c89905b60ff166020830152565b0152565b34610366576103d4610ca8610ca3366004610604565b6124be565b60405191939193849384610c66565b3461036657610cc73660046103d8565b6105ff612525565b5f6108e36103a092600e610497565b34610366576103d4610417610cf4366004610702565b610ccf565b34610366576103d46103c2610d0f366004610821565b9061252d565b90815260e08101979695909490939092909160208601610d3491610525565b63ffffffff16604085015260ff16606084015260ff166080830152151560a082015260c00161038a9115159052565b34610366576103d4610d7e610d79366004610604565b61255b565b93610d8e97959793919360405190565b97889788610d15565b6103a05f600c6108c9565b3461036657610db23660046103d8565b6103d4610417610d97565b6103a05f610427565b6103a0610dbd565b3461036657610dde3660046103d8565b6103d4610417610dc6565b6103a0916008021c5b60ff1690565b906103a09154610de9565b5f610e126103a09260036108b4565b610df8565b34610366576103d46103c2610e2d366004610604565b610e03565b6103a05f600a6108c9565b3461036657610e4d3660046103d8565b6103d4610417610e32565b90610e656109fe836109c7565b918252565b610e746005610e58565b640352e302e360dc1b602082015290565b6103a0610e6a565b6103a0610e85565b6103a0610e8d565b90825f9392825e0152565b610ec9610ed260209361061893610ebd815190565b80835293849260200190565b95869101610e9d565b601f01601f191690565b60208082526103a092910190610ea8565b3461036657610efd3660046103d8565b6103d4610f08610e95565b60405191829182610edc565b6103a05f60096108c9565b3461036657610f2f3660046103d8565b6103d4610417610f14565b90610f79610f819161038a96989795610f6c608096610f6260a08801945f89019060ff169052565b60ff166020870152565b848203604086015261061c565b966060830152565b019015159052565b34610366576103d4610fa4610f9f366004610604565b6125bf565b91610fb195939560405190565b95869586610f3a565b6103a0610e10610427565b6103a0610fba565b3461036657610fdd3660046103d8565b6103d4610417610fc5565b34610366576105ff610ffb366004610604565b612789565b34610366576103d46103c2611016366004610bd3565b90612792565b6103a05f60086108c9565b34610366576110373660046103d8565b6103d461041761101c565b34610366576105ff611055366004610bd3565b90612936565b34610366576105ff61106e366004610821565b9061295b565b34610366576110843660046103d8565b6103d47fdb857e9d93c247629b25e70ad22514c7c659a3f0f17748df0f8afa934124c948610417565b34610366576103d46110c86110c3366004610604565b612965565b6040519182918260ff909116815260200190565b34610366576103d46103c26110f2366004610604565b61297d565b6103a06064610427565b6103a06110f7565b34610366576111193660046103d8565b6103d4610417611101565b6103a090610df2565b6103a09054611124565b6103a09060081c610df2565b6103a09054611137565b6103a09081565b6103a0905461114d565b6103a0906104e7565b6103a0905461115e565b61117c9060066108b4565b6111858161112d565b9161118f82611143565b9161119c60018201611154565b916103a060036111ae60028501611154565b9301611167565b901515815260a08101959461038a9490936080936111e992916111e2916111db90610f62565b6040850152565b6060830152565b0190610525565b34610366576103d461120b611206366004610604565b611171565b9161121895939560405190565b958695866111b5565b909182601f83011215610366578135916001600160401b03831161036657602001926001830284011161036657565b90916040828403126103665781356001600160401b0381116103665783611278918401610ab4565b92909360208201356001600160401b038111610366576112989201611221565b9091565b34610366576105ff6112af366004611250565b92919091612c87565b34610366576112c83660046103d8565b6103d45f80516020613ef9833981519152610417565b9060a0828203126103665781356001600160401b0381116103665781611305918401610ab4565b92909360208201356001600160401b0381116103665783611327918401610ab4565b92909360408201356001600160401b0381116103665781611349918401610ab4565b92909360608201356001600160401b038111610366578361136b918401610ab4565b92909360808201356001600160401b038111610366576112989201610ab4565b34610366576105ff61139e3660046112de565b989790979691969592959493946134ae565b6113ba6005610e58565b64322e332e3160d81b602082015290565b6103a06113b0565b6103a06113cb565b6103a06113d3565b34610366576113f33660046103d8565b6103d4610f086113db565b637965db0b60e01b6001600160e01b031982161490811561141d575090565b6103a091506001600160e01b0319166301ffc9a760e01b1490565b61038a9392919061145a5f80516020613ef98339815191526134c4565b6134c4565b611475565b6104e76103a06103a09290565b6103a09061145f565b9291906114896114845f61146c565b6104e7565b611492856104e7565b146114a05761038a9361162a565b63e6c4247b60e01b5f908152600490fd5b035ffd5b6103a060a06109b3565b906103a3906104e7565b634e487b7160e01b5f525f60045260245ffd5b9060ff905b9181191691161790565b151590565b906115006103a061150792151590565b82546114dc565b9055565b9061ff009060081b6114e1565b610df26103a06103a09260ff1690565b906115386103a061150792611518565b825461150b565b905f19906114e1565b906115566103a06115079290565b825461153f565b906115566103a061150792610427565b6103a090516104e7565b906001600160a01b03906114e1565b906115966103a0611507926108ab565b8254611577565b61038a91600390611604906080906115d0856115c26115bc8451151590565b826114f0565b602083015160ff1690611528565b6115e76115de604083015190565b60018701611548565b6115fe6115f5606083015190565b6002870161155d565b0161156d565b9101611586565b9061038a9161159d565b90815260408101929161038a91602090610f81565b6116a39061169e7ffca60842491f2afe99a6a05326b02d87c0fb22e652006799891e2c81b776399f94939561166b6116606114b5565b861515815291610c7f565b611676876040830152565b611681426060830152565b61168e33608083016114bf565b6116998360066108b4565b61160b565b6108ab565b926116b96116b060405190565b92839283611615565b0390a2565b9061038a939291611438565b6103a06103a06103a09260ff1690565b6116e76103a06103a09290565b63ffffffff1690565b610df26103a06103a09290565b9061171661170c61062b845490565b925f5260205f2090565b905f5b8181106117265750505090565b90919261174a61174360019261173b87611154565b815260200190565b9460010190565b929101611719565b906103a0916116fd565b9061038a6117769261176d60405190565b93848092611752565b038361098d565b6103a09061175c565b90611799611794835f6108b4565b611154565b6117a2816134e8565b918215611810575b6117bb6117b683613514565b6116ca565b926117cd6117c88461351d565b6116da565b936117d78461353f565b936117e86117e45f610427565b9190565b1415906117f68760056108b4565b90969594936103a061180860646116f0565b94939261177d565b91506118256118208460036108b4565b61112d565b916117aa565b9061183a61170c61062b845490565b905f5b81811061184a5750505090565b90919261186461174360019261185f87611167565b610716565b92910161183d565b906103a09161182b565b9061038a6117769261188760405190565b9384809261186c565b6103a090611876565b6118b06103a0916118a8606090565b506007610497565b611890565b60016118dc6103a0926118c55f90565b505f5f80516020613f198339815191525b01610497565b01611154565b61038a9291906118fe5f80516020613f398339815191526134c4565b611944565b1561190a57565b60405162461bcd60e51b8152602060048201526012602482015271105b1c9958591e48189858dad99a5b1b195960721b6044820152606490fd5b611984929161197661197d9261196f61195d6008611154565b6119696117e45f610427565b14611903565b600861155d565b600961155d565b600a61155d565b61038a42600b61155d565b9061038a92916118e2565b9061038a916119ab611455826118b5565b906119b59161355d565b50565b9061038a9161199a565b906119cc336104e7565b6119d5826104e7565b036119e3576119b5916135e1565b63334bd91960e11b5f908152600490fd5b611a0a5f80516020613f398339815191526134c4565b61038a61038a6136ae565b61038a6119f4565b611a2d6103a06103a09260ff1690565b610926565b611a406118208260036108b4565b611a6157611a5c611a576117946103a0935f6108b4565b61353f565b611a1d565b50600490565b9061038a91611a746136b6565b9061038a91611a828161384e565b613878565b9061038a91611a67565b611a9e6103a06103a09290565b6001600160401b031690565b6103a09060401c610df2565b6103a09054611aaa565b6103a090611a9e565b6103a09054611ac0565b906001600160401b03906114e1565b611a9e6103a06103a0926001600160401b031690565b90611b086103a061150792611ae2565b8254611ad3565b9068ff00000000000000009060401b6114e1565b90611b336103a061150792151590565b8254611b0f565b611b446003611a91565b611b4c61392f565b908190611b5882611ab6565b8015611be0575b611bcf57611bb05f80611bca94611ba2600188611b9d887fc7f505b2f371ae2175ee4913f4499e1f2633a7b5936321eed1cdaeb6115181d29b611af8565b611b23565b611baa611c0c565b01611b23565b604051918291826001600160401b03909116815260200190565b0390a1565b63f92ee8a960e01b5f908152600490fd5b50611bea83611ac9565b611c056001600160401b0383165b916001600160401b031690565b1015611b5f565b61038a5f80516020613f398339815191526134c4565b61038a611b3a565b6103a090611c36613937565b611c64565b6103a07f360894a13ba1a3210667c828492db98dca3e2076cc3735a920a3ca505d382bbc610427565b506103a0611c3b565b6103a05f611c2a565b61038a959493929190611ca87f68e79a7bf1e0bc45d0a330c573bc367f9cf464fd326078812f301165fbda4ef16134c4565b9061038a9594939291611cb9613973565b9493929190611cca6114845f61146c565b611cd3876104e7565b146114a05761038a95611d45565b634e487b7160e01b5f52601160045260245ffd5b91908203918211611d0257565b611ce1565b8015611d02575f190190565b5f198114611d025760010190565b60ff909116815260608101939261038a929091604091610f81906020830190610939565b92919091611d5360646116f0565b60ff84161161200957611d69610df26004610930565b60ff831611611ff15784611d816117e46103a0610434565b11611fe0578590611d9f611d996117948760016108b4565b42611cf5565b611dad6117e46103a0610fba565b10611fa6575b82611ec89285611e766116b9966114eb7f6acf7a47157b8e5efce757b2b66c90ddecd0b5e3622ac13ddf01e52ebe92bff59b611ec297611e70611e698e611e62611e53611e03611794845f6108b4565b611e0f6117e45f610427565b149a611e26611e21611794865f6108b4565b613514565b611e3a611e3360506116f0565b9160ff1690565b10159c611e4b6118208660036108b4565b9a4292613992565b611e5d835f6108b4565b61155d565b60016108b4565b429061155d565b8c613aa0565b8a151503611f4b575b611f36575b611e8e60506116f0565b60ff871610158080611f2e575b15611edb575050611eb7611976611eb26009611154565b611d13565b611a5c42600b61155d565b936108ab565b94611ed260405190565b93849384611d21565b159081611f26575b5080611f09575b15611eb757611f04611976611eff6009611154565b611d07565b611eb7565b50611f146009611154565b611f206117e45f610427565b11611eea565b90505f611ee3565b508115611e9b565b611f4661196f611eb26008611154565b611e84565b611f5f8a611f5a8a60036108b4565b6114f0565b8915611f7a57611f7561197d611eb2600a611154565b611e7f565b611f84600a611154565b611f906117e45f610427565b1115611e7f57611f7561197d611eff600a611154565b9050611fc06114eb611fbb611794875f6108b4565b6134e8565b86151514611fcf578590611db3565b6329fbd37760e11b5f908152600490fd5b63ee39e85560e01b5f908152600490fd5b637871e1b960e01b5f90815260ff8316600452602490fd5b6330cdce3160e21b5f908152600490fd5b9061038a9594939291611c76565b6103a07fcd5ed15c6e187e77e9aee88184c21f4f2182ab5827cb3b7e07fbedcd63f0330061112d565b61205b6002611a91565b61206361392f565b90819061206f82611ab6565b80156120bc575b611bcf57611bb05f80611bca946120b4600188611b9d887fc7f505b2f371ae2175ee4913f4499e1f2633a7b5936321eed1cdaeb6115181d29b611af8565b611baa6120df565b506120c683611ac9565b6120d86001600160401b038316611bf8565b1015612076565b6120f55f80516020613f398339815191526134c4565b61038a61038a46600c61155d565b61038a612051565b61038a906121255f80516020613f398339815191526134c4565b6121316114845f61146c565b61213a826104e7565b146114a05761038a9061217f565b915f1960089290920291821b911b6114e1565b919061216c6103a061150793610427565b908354612148565b61038a915f9161215b565b61218d6118208260036108b4565b6121945750565b806121a5611794612203935f6108b4565b6121ae816134e8565b612271575b506121c35f611f5a8360036108b4565b6121cd600a611154565b6121d96117e45f610427565b1161225c575b6121ed61179482600d6108b4565b6121f65f610427565b8103612234575b506108ab565b7f97faab8fde81914a8f7f87da64f6bc88bddc68b474ddfc51d2b834ccd9c2da1c61222d60405190565b80806116b9565b61224290611e5d835f6108b4565b6122565f61225183600d6108b4565b612174565b5f6121fd565b61226c61197d611eff600a611154565b6121df565b61229a9061228861228462010000610427565b1990565b612292845f6108b4565b91169061155d565b5f6121b3565b61038a9061210b565b61038a91906122c45f80516020613ef98339815191526134c4565b906122d16114845f61146c565b6122da836104e7565b146114a05761038a9161237b565b919061216c6103a06115079390565b90815491600160401b8310156109ae578261231a91600161038a950181556104b9565b906122e8565b916001600160a01b0360089290920291821b911b6114e1565b919061234a6103a0611507936108ab565b908354612320565b90815491600160401b8310156109ae578261237591600161038a950181556104b9565b90612339565b612399612395611820846123908560046108b4565b610497565b1590565b6123a1575050565b6117e4816123bc6001611f5a866123906123ea9760046108b4565b6123d3846123ce6103a08460056108b4565b6122f7565b61169e816123e56103a0876007610497565b612352565b907fb43b75fefd7158b7712b04b678f575e8220a990f0ef29e843a52f8520431c9ce61241560405190565b5f90a3565b9061038a916122a9565b61243b6103a091612433606090565b5060056108b4565b61177d565b9061038a6124ac60036124516114b5565b9461246461245e8261112d565b15158752565b61247a61247082611143565b60ff166020880152565b61249061248960018301611154565b6040880152565b6124a661249f60028301611154565b6060880152565b01611167565b608084016114bf565b6103a090612440565b6124d46124d9916124cc5f90565b5060066108b4565b6124b5565b906124e48251151590565b906124fe60406124f8602086015160ff1690565b94015190565b91929190565b61251a5f80516020613f398339815191526134c4565b61038a61038a613cbc565b61038a612504565b6103a0915f612555611820936125405f90565b50825f80516020613f198339815191526118d6565b016108b4565b90612569611794835f6108b4565b9061257382613514565b906125806117c88461351d565b9261258a8161353f565b926125ac612597836134e8565b926125a46117e45f610427565b1415916116ca565b959493926125ba60646116f0565b929190565b906125cd611794835f6108b4565b6125d681613514565b6125ea6125e28361353f565b9460056108b4565b926125ba6126006125fa8561351d565b946134e8565b92959461177d565b61038a906126225f80516020613f398339815191526134c4565b612695565b1561262e57565b60405162461bcd60e51b815260206004820152600c60248201526b5a65726f206164647265737360a01b6044820152606490fd5b6040906111e961038a949695939661268160608401985f850190610525565b6020830152565b91908201809211611d0257565b61271d906126b86126a86114845f61146c565b6126b1836104e7565b1415612627565b61169e6126c4306108ab565b6126ee6126d060405190565b80926126e26020830191468884612662565b9081038252038261098d565b6127006126f9825190565b9160200190565b20611e5d61271561270f6107f2565b42612688565b91600e610497565b7fd532abb2f6bca225e142fdd017122f92b0799844e0a8be4d331374c22af1761a61274760405190565b428152604060208201819052601f908201527f5269736b5265676973747279563220757067726164652070726f706f73616c00606082015280608081016116b9565b61038a90612608565b6103a091612390611820926127a45f90565b5060046108b4565b61038a91906127c75f80516020613ef98339815191526134c4565b906127d46114845f61146c565b6127dd836104e7565b146114a05761038a91612831565b634e487b7160e01b5f52603160045260245ffd5b61038a915f91612339565b8054801561282c575f19019061282961282383836104b9565b906127ff565b55565b6127eb565b90612844611820826123908560046108b4565b61284c575050565b61285f5f611f5a836123908660046108b4565b61286d6103a0826007610497565b916128775f610427565b6128826103a0855490565b8110156129265761289661051f82866104b9565b6128a86128a2846104e7565b916104e7565b146128b557600101612877565b9061169e846128f66117e4946123756128ef61051f6128e96128d96128fb9b9c5490565b6128e36001610427565b90611cf5565b866104b9565b91846104b9565b61280a565b907f4211ad398ce42edd1863832a4f8e443d3bf6155e4799704c88be0ddc63afbfd661241560405190565b506128fb9192506117e4906108ab565b9061038a916127ac565b9061038a91612951611455826118b5565b906119b5916135e1565b9061038a91612940565b611e216117946103a0926129765f90565b505f6108b4565b6118206103a09161298b5f90565b5060036108b4565b61038a939291906129b05f80516020613f398339815191526134c4565b612a17565b91908110156104d9576020020190565b356103a081610566565b6103a0906129e36117e46103a09460ff1690565b901b90565b9190610ed2816129ff816106189560209181520190565b80956109e3565b60208082526103a0939101916129e8565b909392612a235f610427565b85811015612c7f5780808488612a45612a40612be09683856129b5565b6129c5565b612a546128a26114845f61146c565b14612c7657612ab8611794612a9e612a4086612aa4611794612a9e612a40611e699b8a7f6acf7a47157b8e5efce757b2b66c90ddecd0b5e3622ac13ddf01e52ebe92bff59c6129b5565b5f6108b4565b612ab06117e45f610427565b14958c6129b5565b90848b898493612adb86611e5d600d612ad5612a408989896129b5565b906108b4565b600495612ae787610930565b90612af18161353f565b612afd60ff8416611e33565b03612c35575b5050612b0e85613514565b605a90612b1d611e33836116f0565b10612bfa575b50612a40848484612b8194612b4c8a611e5d612a9e612a40612b8d9d611ec89d612b879d6129b5565b612b7860019d8e612b6a81611f5a6003612ad5612a408c8c8c6129b5565b612ad5612a408888886129b5565b612be5576129b5565b93613514565b926108ab565b0390a2612ba161169e612a40838a886129b5565b7f960e42515e613878fe8ad6297fccc9b2507b3afa6eff580b86ce9aaba8a9e57d612bcb60405190565b80612bd7878a83612a06565b0390a260010190565b612a23565b612bf561196f611eb26008611154565b6129b5565b612b8d94611ec894612b8794612a4093612c26612b81969a612c1f61228460ff610427565b1691610427565b17989450945094509450612b23565b612c6d91929650612c68612c4960ff610427565b91612c61612284612c5a60086116f0565b80956129cf565b16936116ca565b6129cf565b17935f80612b03565b50505060010190565b505050509050565b9061038a939291612993565b61038a99989796959493929190612cc97f68e79a7bf1e0bc45d0a330c573bc367f9cf464fd326078812f301165fbda4ef16134c4565b9061038a999897969594939291612cde613973565b612e14565b6103a091604082019190612cf8908290610525565b6020818303910152600f81526e496e76616c6964206164647265737360881b602082015260400190565b356103a081610591565b6103a091604082019190612d41908290610525565b60208183039101526012815271496e76616c6964207269736b2073636f726560701b602082015260400190565b6103a091604082019190612d83908290610525565b6020818303910152600c81526b24b73b30b634b2103a34b2b960a11b602082015260400190565b356103a08161057c565b903590601e19368290030182121561036657018035906001600160401b0382116103665760200191602082023603831361036657565b908210156104d95760206112989202810190612db4565b90815260408101929161038a9160200152565b61010052610220526101205261026052610140526101a05261016052610180526102405261020052612e4b61022051610100515090565b6102605181141580156134a1575b8015613494575b8015613487575b61347357612e766103a06110f7565b8111613462575a6101e052612e8a5f610427565b60e05260e0516101c0525b805b6101c051101561341657612e9790612ebc612a406101c05161022051610100516129b5565b612ecb6128a26114845f61146c565b146133bc57612eec612ee76101c05161026051610120516129b5565b612d22565b612ef9611e3360646116f0565b1161336257612f15612ee76101c0516101a051610140516129b5565b612f25611e33610df26004610930565b1161330057612f47611794612a9e612a406101c05161022051610100516129b5565b612f536117e45f610427565b14608052612f7b611820612f74612a406101c05161022051610100516129b5565b60036108b4565b60a052612f9e611e21611794612a9e612a406101c05161022051610100516129b5565b612fab611e3360506116f0565b101560c052613022613008612fcd612ee76101c05161026051610120516129b5565b612fe4612ee76101c0516101a051610140516129b5565b613000612ffb6101c05161018051610160516129b5565b612daa565b904292613992565b611e5d612a9e612a406101c05161022051610100516129b5565b613041611e696001612ad5612a406101c05161022051610100516129b5565b61307561305b612ffb6101c05161018051610160516129b5565b611f5a612f74612a406101c05161022051610100516129b5565b610200516101c05110806132d1575b613298575b608051613283575b6130a8612ffb6101c05161018051610160516129b5565b80613279575b613264575b6130cd612395612ffb6101c05161018051610160516129b5565b8061325b575b8061323e575b613229575b6130f5612ee76101c05161026051610120516129b5565b613102611e3360506116f0565b1015808061321f575b156131d25750613121611976611eb26009611154565b61312c60e051611d13565b60e052613146612a406101c05161022051610100516129b5565b7f6acf7a47157b8e5efce757b2b66c90ddecd0b5e3622ac13ddf01e52ebe92bff561317e612ee76101c05161026051610120516129b5565b613198611a5c612ee76101c0516101a051610140516129b5565b906131bc611ec86131b6612ffb6101c05161018051610160516129b5565b956108ab565b0390a25b6101c0516001016101c0529050612e95565b1580613216575b806131f9575b15613121576131f4611976611eff6009611154565b613121565b506132046009611154565b6132106117e45f610427565b116131df565b5060c0516131d9565b5060c0511561310b565b61323961197d611eff600a611154565b6130de565b50613249600a611154565b6132556117e45f610427565b116130d9565b5060a0516130d3565b61327461197d611eb2600a611154565b6130b3565b5060a051156130ae565b61329361196f611eb26008611154565b613091565b6132cc6132b2612a406101c05161022051610100516129b5565b6132c66101c0516102005161024051612dea565b91613aa0565b613089565b506132ee6132e96101c0516102005161024051612dea565b905090565b6132fa6117e45f610427565b11613084565b613317612a406101c05161022051610100516129b5565b7f82dc8a0cfd6f31109d330b111a56911d6c6667243fe5ee840d59a003733262e461335a6133476101c051610427565b9261335160405190565b91829182612d6e565b0390a26131c0565b613379612a406101c05161022051610100516129b5565b7f82dc8a0cfd6f31109d330b111a56911d6c6667243fe5ee840d59a003733262e461335a6133a96101c051610427565b926133b360405190565b91829182612d2c565b6133d3612a406101c05161022051610100516129b5565b7f82dc8a0cfd6f31109d330b111a56911d6c6667243fe5ee840d59a003733262e461335a6134036101c051610427565b9261340d60405190565b91829182612ce3565b5061342242600b61155d565b7fe6591ec7b7ee15e85a2a74819e56941ae9edaa6be2df85ac70c5193de646a08d611bca6134535a6101e051611cf5565b60405191829160e05183612e01565b6305beb17160e11b5f908152600490fd5b6001621398b960e31b03195f908152600490fd5b5061020051811415612e67565b5061018051811415612e60565b506101a051811415612e59565b9061038a999897969594939291612c93565b1490565b61038a903390613cde565b6103a0906134e36117e46103a09460ff1690565b901c90565b6134fc906134f660106116f0565b906134cf565b6135066001610427565b166134c06117e46001610427565b6103a0906116f0565b61352b906134f660116116f0565b61353b6001600160401b03610427565b1690565b6135586103a09161354d5f90565b506134f660086116f0565b6116f0565b5f80516020613f19833981519152613578612395848461252d565b156135da576001611f5a845f61255586826135939701610497565b6135a76135a1611ec2339390565b916108ab565b917f2f8788117e7eff1d82e926ec794901d17c78024a50270940304540a733656f0d6135d260405190565b5f90a4600190565b5050505f90565b5f80516020613f198339815191526135f9838361252d565b156135da575f611f5a848261255586826136139701610497565b6136216135a1611ec2339390565b917ff6391f5c32d9c69d2a47ea670b442974b53935d1edc7fd64eb21e047a839171b6135d260405190565b613654613d0c565b61038a6136845f807fcd5ed15c6e187e77e9aee88184c21f4f2182ab5827cb3b7e07fbedcd63f033005b016114f0565b7f5db9ee0a495bf2e6ff9c91a7834c1ba4fdd244a5e8aa4e537bd38aeae4b073aa611bca3361055a565b61038a61364c565b6136bf306108ab565b7f0000000000000000000000000000000000000000000000000000000000000000906136ed6128a2836104e7565b1490811561370e575b506136fd57565b63703e46dd60e11b5f908152600490fd5b90506137246128a261371e613d2e565b926104e7565b14155f6136f6565b61038a906137465f80516020613f398339815191526134c4565b6137da565b1561375257565b60405162461bcd60e51b815260206004820152601e60248201527f4e6f2070726f706f73616c20666f7220696d706c656d656e746174696f6e00006044820152606490fd5b1561379e57565b60405162461bcd60e51b8152602060048201526014602482015273151a5b595b1bd8dac81b9bdd08195e1c1a5c995960621b6044820152606490fd5b5f6122516126e261380b61038a946137f1306108ab565b906137fb60405190565b9384926020840192469084612662565b6138166126f9825190565b2061384761383f61382b61179484600e610497565b6103a061383787610427565b82141561374b565b421015613797565b600e610497565b61038a9061372c565b9050519061038a82610461565b90602082820312610366576103a091613857565b9161388561169e846108ab565b91602061389160405190565b6352d1902d60e01b815293849060049082905afa5f93816138fe575b506138c957634c9c8ce360e01b5f9081526114b185600461052e565b9091926138d76103a0611c3b565b84036138e85761038a929350613d3d565b632a87526960e21b5f9081526004859052602490fd5b61392191945060203d602011613928575b613919818361098d565b810190613864565b925f6138ad565b503d61390f565b6103a0613dcd565b613940306108ab565b61396c6128a27f00000000000000000000000000000000000000000000000000000000000000006104e7565b036136fd57565b61397b612028565b61398157565b63d93c066560e01b5f908152600490fd5b6139c66139b66139b06139e293969495966139aa5f90565b506116ca565b946116ca565b6139c060086116f0565b906129cf565b916139d76001600160401b03610427565b166139c060116116f0565b91171780916139ef575090565b90506139fd62010000610427565b1790565b61038a915f916122e8565b818110613a17575050565b80613a245f600193613a01565b01613a0c565b919091828210613a3957505050565b61038a9291613a4c90915f5260205f2090565b9182019101613a0c565b90600160401b81116109ae5781613a6e61038a935490565b90828155613a2a565b5f61038a91613a56565b905f03613a915761038a90613a77565b6114c9565b356103a081610461565b9291613aab5f610427565b925b6005613ac36103a0613abf88846108b4565b5490565b851015613b84576103a0613aec613ae687613ae18a613b06966108b4565b6104b9565b906108c9565b613aff5f611f5a836123908c60046108b4565b6007610497565b92613b105f610427565b613b1b6103a0865490565b811015613b7657613b2f61051f82876104b9565b613b3b6128a2896104e7565b14613b4857600101613b10565b846128f6613b6a926123756128ef61051f6128e96128d9613b709a9d999c5490565b60010190565b92613aad565b50925092613b709060010190565b50925092600591613b9f5f613b9a8460056108b4565b613a81565b613ba85f610427565b85811015612c7f57613bf190836004613be46123956118208b613bde613bd988613bd289896108b4565b938c6129b5565b613a96565b90610497565b613bf6575b505060010190565b613ba8565b611f5a613c08613c16936001936108b4565b613bde613bd9868d8a6129b5565b613c3a613c266103a086886108b4565b613c34613bd9848b886129b5565b906122f7565b613c54846123e56103a06007613bde613bd9878e8b6129b5565b835f613be9565b613c63613973565b61038a613c9260015f7fcd5ed15c6e187e77e9aee88184c21f4f2182ab5827cb3b7e07fbedcd63f0330061367e565b7f62e78cea01bee320cd4e420270b5ea74000d11b0c9f74754ebdbfc544b05a258611bca3361055a565b61038a613c5b565b91602061038a929493610c8960408201965f830190610525565b90613cec612395828461252d565b613cf4575050565b63e2517d3f60e01b5f908152916114b1916004613cc4565b613d17612395612028565b613d1d57565b638dfc202b60e01b5f908152600490fd5b6103a05f6124a66103a0611c3b565b90613d4782613dd5565b613d50826108ab565b7fbc7cd75a20ee27fd9adebab32041f755214dbc6bffa90cc0225b39da2e5c2d3b613d7a60405190565b5f90a28051613d8b6117e45f610427565b1115613d9a576119b591613e38565b505061038a613e16565b6103a07ff0c57e16840df040f15088dc2f81fe391c3923bec73e23a9662efc9c229c6a00610427565b6103a0613da4565b803b613de36117e45f610427565b14613dfe5761038a905f613df86103a0611c3b565b01611586565b634c9c8ce360e01b5f908152906114b190600461052e565b613e1f5f610427565b3411613e2757565b63b398979f60e01b5f908152600490fd5b90613e439082613ec4565b8080613e9b575b15613e595750506103a0613edf565b15613e7657639996b31560e01b5f908152906114b190600461052e565b3d613e836117e45f610427565b115f03613ed45763d6bda27560e01b5f908152600490fd5b503d613ea96117e45f610427565b1180613e4a5750813b613ebe6117e45f610427565b11613e4a565b5f918291602082519201905af490565b6040513d5f823e3d90fd5b604051903d82523d5f602084013e3d602001820160405256fe97667070c54ef182b0f5858b034beac1b6f3089aa2d3188bb1e8929f4fa9b92902dd7bc7dec4dceedda775e58dd541e08a116c6c53815c0bd028192f7b626800a49807205ce4d355092ef5a8a18f56e8913cf4a201fbe287825b095693c21775a164736f6c634300081a000a",
  "linkReferences": {},
  "deployedLinkReferences": {}
}