{
  "_format": "hh-sol-artifact-1",
  "contractName": "RiskRegistryV2",
  "sourceName": "contracts/RiskRegistryV2.sol",
  "abi": [
    {
      "inputs": [],
      "stateMutability": "nonpayable",
      "type": "constructor"
    },
    {
      "inputs": [],
      "name": "AccessControlBadConfirmation",
      "type": "error"
    },
    {
      "inputs": [
        {
          "internalType": "address",
          "name": "account",
          "type": "address"
        },
        {
          "internalType": "bytes32",
          "name": "neededRole",
          "type": "bytes32"
        }
      ],
      "name": "AccessControlUnauthorizedAccount",
      "type": "error"
    },
    {
      "inputs": [
        {
          "internalType": "address",
          "name": "target",
          "type": "address"
        }
      ],
      "name": "AddressEmptyCode",
      "type": "error"
    },
    {
      "inputs": [],
      "name": "BatchTooLarge",
      "type": "error"
    },
    {
      "inputs": [
        {
          "internalType": "address",
          "name": "implementation",
          "type": "address"
        }
      ],
      "name": "ERC1967InvalidImplementation",
      "type": "error"
    },
    {
      "inputs": [],
      "name": "ERC1967NonPayable",
      "type": "error"
    },
    {
      "inputs": [],
      "name": "EnforcedPause",
      "type": "error"
    },
    {
      "inputs": [],
      "name": "ExpectedPause",
      "type": "error"
    },
    {
      "inputs": [],
      "name": "FailedCall",
      "type": "error"
    },
    {
      "inputs": [],
      "name": "InvalidAddress",
      "type": "error"
    },
    {
      "inputs": [],
      "name": "InvalidInitialization",
      "type": "error"
    },
    {
      "inputs": [],
      "name": "InvalidRiskScore",
      "type": "error"
    },
    {
      "inputs": [
        {
          "internalType": "uint8",
          "name": "tier",
          "type": "uint8"
        }
      ],
      "name": "InvalidRiskTier",
      "type": "error"
    },
    {
      "inputs": [],
      "name": "LengthMismatch",
      "type": "error"
    },
    {
      "inputs": [],
      "name": "NotInitializing",
      "type": "error"
    },
    {
      "inputs": [
        {
          "internalType": "address",
          "name": "addr",
          "type": "address"
        }
      ],
      "name": "ProfileNotFound",
      "type": "error"
    },
    {
      "inputs": [],
      "name": "TooManyTags",
      "type": "error"
    },
    {
      "inputs": [],
      "name": "UUPSUnauthorizedCallContext",
      "type": "error"
    },
    {
      "inputs": [
        {
          "internalType": "bytes32",
          "name": "slot",
          "type": "bytes32"
        }
      ],
      "name": "UUPSUnsupportedProxiableUUID",
      "type": "error"
    },
    {
      "inputs": [],
      "name": "UpdateTooFrequent",
      "type": "error"
    },
    {
      "anonymous": false,
      "inputs": [
        {
          "indexed": true,
          "internalType": "address",
          "name": "account",
          "type": "address"
        },
        {
          "indexed": true,
          "internalType": "bytes32",
          "name": "tag",
          "type": "bytes32"
        }
      ],
      "name": "AddressTagged",
      "type": "event"
    },
    {
      "anonymous": false,
      "inputs": [
        {
          "indexed": true,
          "internalType": "address",
          "name": "account",
          "type": "address"
        },
        {
          "indexed": true,
          "internalType": "bytes32",
          "name": "tag",
          "type": "bytes32"
        }
      ],
      "name": "AddressUntagged",
      "type": "event"
    },
    {
      "anonymous": false,
      "inputs": [
        {
          "indexed": false,
          "internalType": "uint256",
          "name": "count",
          "type": "uint256"
        },
        {
          "indexed": false,
          "internalType": "uint256",
          "name": "gasUsed",
          "type": "uint256"
        }
      ],
      "name": "BatchUpdateCompleted",
      "type": "event"
    },
    {
      "anonymous": false,
      "inputs": [
        {
          "indexed": true,
          "internalType": "uint256",
          "name": "index",
          "type": "uint256"
        },
        {
          "indexed": false,
          "internalType": "address",
          "name": "addr",
          "type": "address"
        },
        {
          "indexed": false,
          "internalType": "string",
          "name": "reason",
          "type": "string"
        }
      ],
      "name": "BatchUpdateSkipped",
      "type": "event"
    },
    {
      "anonymous": false,
      "inputs": [
        {
          "indexed": true,
          "internalType": "address",
          "name": "contractAddr",
          "type": "address"
        },
        {
          "indexed": false,
          "internalType": "bytes32",
          "name": "contractType",
          "type": "bytes32"
        },
        {
          "indexed": false,
          "internalType": "bool",
          "name": "verified",
          "type": "bool"
        }
      ],
      "name": "ContractRegistered",
      "type": "event"
    },
    {
      "anonymous": false,
      "inputs": [
        {
          "indexed": false,
          "internalType": "uint64",
          "name": "version",
          "type": "uint64"
        }
      ],
      "name": "Initialized",
      "type": "event"
    },
    {
      "anonymous": false,
      "inputs": [
        {
          "indexed": false,
          "internalType": "address",
          "name": "account",
          "type": "address"
        }
      ],
      "name": "Paused",
      "type": "event"
    },
    {
      "anonymous": false,
      "inputs": [
        {
          "indexed": true,
          "internalType": "address",
          "name": "account",
          "type": "address"
        },
        {
          "indexed": false,
          "internalType": "uint8",
          "name": "riskScore",
          "type": "uint8"
        },
        {
          "indexed": false,
          "internalType": "enum RiskRegistryV2.RiskTier",
          "name": "tier",
          "type": "uint8"
        },
        {
          "indexed": false,
          "internalType": "bool",
          "name": "isSanctioned",
          "type": "bool"
        }
      ],
      "name": "RiskProfileUpdated",
      "type": "event"
    },
    {
      "anonymous": false,
      "inputs": [
        {
          "indexed": true,
          "internalType": "bytes32",
          "name": "role",
          "type": "bytes32"
        },
        {
          "indexed": true,
          "internalType": "bytes32",
          "name": "previousAdminRole",
          "type": "bytes32"
        },
        {
          "indexed": true,
          "internalType": "bytes32",
          "name": "newAdminRole",
          "type": "bytes32"
        }
      ],
      "name": "RoleAdminChanged",
      "type": "event"
    },
    {
      "anonymous": false,
      "inputs": [
        {
          "indexed": true,
          "internalType": "bytes32",
          "name": "role",
          "type": "bytes32"
        },
        {
          "indexed": true,
          "internalType": "address",
          "name": "account",
          "type": "address"
        },
        {
          "indexed": true,
          "internalType": "address",
          "name": "sender",
          "type": "address"
        }
      ],
      "name": "RoleGranted",
      "type": "event"
    },
    {
      "anonymous": false,
      "inputs": [
        {
          "indexed": true,
          "internalType": "bytes32",
          "name": "role",
          "type": "bytes32"
        },
        {
          "indexed": true,
          "internalType": "address",
          "name": "account",
          "type": "address"
        },
        {
          "indexed": true,
          "internalType": "address",
          "name": "sender",
          "type": "address"
        }
      ],
      "name": "RoleRevoked",
      "type": "event"
    },
    {
      "anonymous": false,
      "inputs": [
        {
          "indexed": true,
          "internalType": "address",
          "name": "account",
          "type": "address"
        },
        {
          "indexed": false,
          "internalType": "string",
          "name": "reason",
          "type": "string"
        }
      ],
      "name": "SanctionAdded",
      "type": "event"
    },
    {
      "anonymous": false,
      "inputs": [
        {
          "indexed": true,
          "internalType": "address",
          "name": "account",
          "type": "address"
        }
      ],
      "name": "SanctionRemoved",
      "type": "event"
    },
    {
      "anonymous": false,
      "inputs": [
        {
          "indexed": false,
          "internalType": "address",
          "name": "account",
          "type": "address"
        }
      ],
      "name": "Unpaused",
      "type": "event"
    },
    {
      "anonymous": false,
      "inputs": [
        {
          "indexed": true,
          "internalType": "address",
          "name": "proposedImplementation",
          "type": "address"
        },
        {
          "indexed": false,
          "internalType": "uint256",
          "name": "proposedAt",
          "type": "uint256"
        },
        {
          "indexed": false,
          "internalType": "string",
          "name": "reason",
          "type": "string"
        }
      ],
      "name": "UpgradeProposed",
      "type": "event"
    },
    {
      "anonymous": false,
      "inputs": [
        {
          "indexed": true,
          "internalType": "address",
          "name": "implementation",
          "type": "address"
        }
      ],
      "name": "Upgraded",
      "type": "event"
    },
    {
      "inputs": [],
      "name": "ADMIN_ROLE",
      "outputs": [
        {
          "internalType": "bytes32",
          "name": "",
          "type": "bytes32"
        }
      ],
      "stateMutability": "view",
      "type": "function"
    },
    {
      "inputs": [],
      "name": "BATCH_MAX_SIZE",
      "outputs": [
        {
          "internalType": "uint256",
          "name": "",
          "type": "uint256"
        }
      ],
      "stateMutability": "view",
      "type": "function"
    },
    {
      "inputs": [],
      "name": "COMPLIANCE_ENGINE_ROLE",
      "outputs": [
        {
          "internalType": "bytes32",
          "name": "",
          "type": "bytes32"
        }
      ],
      "stateMutability": "view",
      "type": "function"
    },
    {
      "inputs": [],
      "name": "DEFAULT_ADMIN_ROLE",
      "outputs": [
        {
          "internalType": "bytes32",
          "name": "",
          "type": "bytes32"
        }
      ],
      "stateMutability": "view",
      "type": "function"
    },
    {
      "inputs": [],
      "name": "MAX_TAGS_PER_ADDRESS",
      "outputs": [
        {
          "internalType": "uint256",
          "name": "",
          "type": "uint256"
        }
      ],
      "stateMutability": "view",
      "type": "function"
    },
    {
      "inputs": [],
      "name": "MIN_UPDATE_INTERVAL",
      "outputs": [
        {
          "internalType": "uint256",
          "name": "",
          "type": "uint256"
        }
      ],
      "stateMutability": "view",
      "type": "function"
    },
    {
      "inputs": [],
      "name": "OPERATOR_ROLE",
      "outputs": [
        {
          "internalType": "bytes32",
          "name": "",
          "type": "bytes32"
        }
      ],
      "stateMutability": "view",
      "type": "function"
    },
    {
      "inputs": [],
      "name": "ORACLE_ROLE",
      "outputs": [
        {
          "internalType": "bytes32",
          "name": "",
          "type": "bytes32"
        }
      ],
      "stateMutability": "view",
      "type": "function"
    },
    {
      "inputs": [],
      "name": "UPGRADE_INTERFACE_VERSION",
      "outputs": [
        {
          "internalType": "string",
          "name": "",
          "type": "string"
        }
      ],
      "stateMutability": "view",
      "type": "function"
    },
    {
      "inputs": [],
      "name": "UPGRADE_TIMELOCK",
      "outputs": [
        {
          "internalType": "uint256",
          "name": "",
          "type": "uint256"
        }
      ],
      "stateMutability": "view",
      "type": "function"
    },
    {
      "inputs": [],
      "name": "VERSION",
      "outputs": [
        {
          "internalType": "string",
          "name": "",
          "type": "string"
        }
      ],
      "stateMutability": "view",
      "type": "function"
    },
    {
      "inputs": [
        {
          "internalType": "address",
          "name": "account",
          "type": "address"
        },
        {
          "internalType": "bytes32",
          "name": "tag",
          "type": "bytes32"
        }
      ],
      "name": "addTag",
      "outputs": [],
      "stateMutability": "nonpayable",
      "type": "function"
    },
    {
      "inputs": [
        {
          "internalType": "uint256",
          "name": "_totalProfiles",
          "type": "uint256"
        },
        {
          "internalType": "uint256",
          "name": "_totalHighRisk",
          "type": "uint256"
        },
        {
          "internalType": "uint256",
          "name": "_totalSanctioned",
          "type": "uint256"
        }
      ],
      "name": "backfillCounters",
      "outputs": [],
      "stateMutability": "nonpayable",
      "type": "function"
    },
    {
      "inputs": [
        {
          "internalType": "address[]",
          "name": "accounts",
          "type": "address[]"
        },
        {
          "internalType": "uint8[]",
          "name": "riskScores",
          "type": "uint8[]"
        },
        {
          "internalType": "uint8[]",
          "name": "tiers",
          "type": "uint8[]"
        },
        {
          "internalType": "bool[]",
          "name": "isSanctionedList",
          "type": "bool[]"
        },
        {
          "internalType": "bytes32[][]",
          "name": "tags",
          "type": "bytes32[][]"
        }
      ],
      "name": "batchUpdateRiskProfiles",
      "outputs": [],
      "stateMutability": "nonpayable",
      "type": "function"
    },
    {
      "inputs": [],
      "name": "chainId",
      "outputs": [
        {
          "internalType": "uint256",
          "name": "",
          "type": "uint256"
        }
      ],
      "stateMutability": "view",
      "type": "function"
    },
    {
      "inputs": [
        {
          "internalType": "address",
          "name": "",
          "type": "address"
        }
      ],
      "name": "contractRegistry",
      "outputs": [
        {
          "internalType": "bool",
          "name": "isVerified",
          "type": "bool"
        },
        {
          "internalType": "uint8",
          "name": "riskScore",
          "type": "uint8"
        },
        {
          "internalType": "bytes32",
          "name": "contractType",
          "type": "bytes32"
        },
        {
          "internalType": "uint256",
          "name": "verifiedAt",
          "type": "uint256"
        },
        {
          "internalType": "address",
          "name": "verifiedBy",
          "type": "address"
        }
      ],
      "stateMutability": "view",
      "type": "function"
    },
    {
      "inputs": [
        {
          "internalType": "address[]",
          "name": "accounts",
          "type": "address[]"
        },
        {
          "internalType": "string",
          "name": "reason",
          "type": "string"
        }
      ],
      "name": "emergencySanction",
      "outputs": [],
      "stateMutability": "nonpayable",
      "type": "function"
    },
    {
      "inputs": [
        {
          "internalType": "bytes32",
          "name": "",
          "type": "bytes32"
        },
        {
          "internalType": "uint256",
          "name": "",
          "type": "uint256"
        }
      ],
      "name": "entityAddresses",
      "outputs": [
        {
          "internalType": "address",
          "name": "",
          "type": "address"
        }
      ],
      "stateMutability": "view",
      "type": "function"
    },
    {
      "inputs": [
        {
          "internalType": "address",
          "name": "contractAddr",
          "type": "address"
        }
      ],
      "name": "getContractRisk",
      "outputs": [
        {
          "internalType": "bool",
          "name": "verified",
          "type": "bool"
        },
        {
          "internalType": "uint8",
          "name": "riskScore",
          "type": "uint8"
        },
        {
          "internalType": "bytes32",
          "name": "contractType",
          "type": "bytes32"
        }
      ],
      "stateMutability": "view",
      "type": "function"
    },
    {
      "inputs": [
        {
          "internalType": "bytes32",
          "name": "entityType",
          "type": "bytes32"
        }
      ],
      "name": "getEntityAddresses",
      "outputs": [
        {
          "internalType": "address[]",
          "name": "",
          "type": "address[]"
        }
      ],
      "stateMutability": "view",
      "type": "function"
    },
    {
      "inputs": [
        {
          "internalType": "address",
          "name": "addr",
          "type": "address"
        }
      ],
      "name": "getProfile",
      "outputs": [
        {
          "internalType": "uint256",
          "name": "riskScore",
          "type": "uint256"
        },
        {
          "internalType": "address",
          "name": "profileAddr",
          "type": "address"
        },
        {
          "internalType": "uint32",
          "name": "lastUpdated",
          "type": "uint32"
        },
        {
          "internalType": "uint8",
          "name": "riskTier",
          "type": "uint8"
        },
        {
          "internalType": "uint8",
          "name": "sourceConfidence",
          "type": "uint8"
        },
        {
          "internalType": "bool",
          "name": "sanctioned",
          "type": "bool"
        },
        {
          "internalType": "bool",
          "name": "exists",
          "type": "bool"
        },
        {
          "internalType": "bytes32[]",
          "name": "tags",
          "type": "bytes32[]"
        }
      ],
      "stateMutability": "view",
      "type": "function"
    },
    {
      "inputs": [
        {
          "internalType": "address",
          "name": "account",
          "type": "address"
        }
      ],
      "name": "getRiskProfile",
      "outputs": [
        {
          "internalType": "uint8",
          "name": "riskScore",
          "type": "uint8"
        },
        {
          "internalType": "uint8",
          "name": "tier",
          "type": "uint8"
        },
        {
          "internalType": "bytes32[]",
          "name": "tags",
          "type": "bytes32[]"
        },
        {
          "internalType": "uint256",
          "name": "lastUpdated",
          "type": "uint256"
        },
        {
          "internalType": "bool",
          "name": "isSanctioned",
          "type": "bool"
        }
      ],
      "stateMutability": "view",
      "type": "function"
    },
    {
      "inputs": [
        {
          "internalType": "address",
          "name": "account",
          "type": "address"
        }
      ],
      "name": "getRiskScore",
      "outputs": [
        {
          "internalType": "uint8",
          "name": "",
          "type": "uint8"
        }
      ],
      "stateMutability": "view",
      "type": "function"
    },
    {
      "inputs": [
        {
          "internalType": "address",
          "name": "account",
          "type": "address"
        }
      ],
      "name": "getRiskTier",
      "outputs": [
        {
          "internalType": "enum RiskRegistryV2.RiskTier",
          "name": "",
          "type": "uint8"
        }
      ],
      "stateMutability": "view",
      "type": "function"
    },
    {
      "inputs": [
        {
          "internalType": "bytes32",
          "name": "role",
          "type": "bytes32"
        }
      ],
      "name": "getRoleAdmin",
      "outputs": [
        {
          "internalType": "bytes32",
          "name": "",
          "type": "bytes32"
        }
      ],
      "stateMutability": "view",
      "type": "function"
    },
    {
      "inputs": [
        {
          "internalType": "address",
          "name": "account",
          "type": "address"
        }
      ],
      "name": "getTags",
      "outputs": [
        {
          "internalType": "bytes32[]",
          "name": "",
          "type": "bytes32[]"
        }
      ],
      "stateMutability": "view",
      "type": "function"
    },
    {
      "inputs": [
        {
          "internalType": "bytes32",
          "name": "role",
          "type": "bytes32"
        },
        {
          "internalType": "address",
          "name": "account",
          "type": "address"
        }
      ],
      "name": "grantRole",
      "outputs": [],
      "stateMutability": "nonpayable",
      "type": "function"
    },
    {
      "inputs": [
        {
          "internalType": "bytes32",
          "name": "role",
          "type": "bytes32"
        },
        {
          "internalType": "address",
          "name": "account",
          "type": "address"
        }
      ],
      "name": "hasRole",
      "outputs": [
        {
          "internalType": "bool",
          "name": "",
          "type": "bool"
        }
      ],
      "stateMutability": "view",
      "type": "function"
    },
    {
      "inputs": [
        {
          "internalType": "address",
          "name": "account",
          "type": "address"
        },
        {
          "internalType": "bytes32",
          "name": "tag",
          "type": "bytes32"
        }
      ],
      "name": "hasTag",
      "outputs": [
        {
          "internalType": "bool",
          "name": "",
          "type": "bool"
        }
      ],
      "stateMutability": "view",
      "type": "function"
    },
    {
      "inputs": [],
      "name": "initializeV2",
      "outputs": [],
      "stateMutability": "nonpayable",
      "type": "function"
    },
    {
      "inputs": [],
      "name": "initializeV2_2",
      "outputs": [],
      "stateMutability": "nonpayable",
      "type": "function"
    },
    {
      "inputs": [
        {
          "internalType": "address",
          "name": "account",
          "type": "address"
        }
      ],
      "name": "isSanctioned",
      "outputs": [
        {
          "internalType": "bool",
          "name": "",
          "type": "bool"
        }
      ],
      "stateMutability": "view",
      "type": "function"
    },
    {
      "inputs": [],
      "name": "lastGlobalUpdate",
      "outputs": [
        {
          "internalType": "uint256",
          "name": "",
          "type": "uint256"
        }
      ],
      "stateMutability": "view",
      "type": "function"
    },
    {
      "inputs": [],
      "name": "pause",
      "outputs": [],
      "stateMutability": "nonpayable",
      "type": "function"
    },
    {
      "inputs": [],
      "name": "paused",
      "outputs": [
        {
          "internalType": "bool",
          "name": "",
          "type": "bool"
        }
      ],
      "stateMutability": "view",
      "type": "function"
    },
    {
      "inputs": [],
      "name": "proxiableUUID",
      "outputs": [
        {
          "internalType": "bytes32",
          "name": "",
          "type": "bytes32"
        }
      ],
      "stateMutability": "view",
      "type": "function"
    },
    {
      "inputs": [
        {
          "internalType": "address",
          "name": "contractAddr",
          "type": "address"
        },
        {
          "internalType": "bytes32",
          "name": "contractType",
          "type": "bytes32"
        },
        {
          "internalType": "bool",
          "name": "verified",
          "type": "bool"
        },
        {
          "internalType": "uint8",
          "name": "riskScore",
          "type": "uint8"
        }
      ],
      "name": "registerContract",
      "outputs": [],
      "stateMutability": "nonpayable",
      "type": "function"
    },
    {
      "inputs": [
        {
          "internalType": "address",
          "name": "account",
          "type": "address"
        }
      ],
      "name": "removeSanction",
      "outputs": [],
      "stateMutability": "nonpayable",
      "type": "function"
    },
    {
      "inputs": [
        {
          "internalType": "address",
          "name": "account",
          "type": "address"
        },
        {
          "internalType": "bytes32",
          "name": "tag",
          "type": "bytes32"
        }
      ],
      "name": "removeTag",
      "outputs": [],
      "stateMutability": "nonpayable",
      "type": "function"
    },
    {
      "inputs": [
        {
          "internalType": "bytes32",
          "name": "role",
          "type": "bytes32"
        },
        {
          "internalType": "address",
          "name": "callerConfirmation",
          "type": "address"
        }
      ],
      "name": "renounceRole",
      "outputs": [],
      "stateMutability": "nonpayable",
      "type": "function"
    },
    {
      "inputs": [
        {
          "internalType": "bytes32",
          "name": "role",
          "type": "bytes32"
        },
        {
          "internalType": "address",
          "name": "account",
          "type": "address"
        }
      ],
      "name": "revokeRole",
      "outputs": [],
      "stateMutability": "nonpayable",
      "type": "function"
    },
    {
      "inputs": [
        {
          "internalType": "address",
          "name": "account",
          "type": "address"
        }
      ],
      "name": "riskProfiles",
      "outputs": [
        {
          "internalType": "uint256",
          "name": "riskScore",
          "type": "uint256"
        },
        {
          "internalType": "address",
          "name": "addr",
          "type": "address"
        },
        {
          "internalType": "uint32",
          "name": "lastUpdated",
          "type": "uint32"
        },
        {
          "internalType": "uint8",
          "name": "riskTier",
          "type": "uint8"
        },
        {
          "internalType": "uint8",
          "name": "sourceConfidence",
          "type": "uint8"
        },
        {
          "internalType": "bool",
          "name": "sanctioned",
          "type": "bool"
        },
        {
          "internalType": "bool",
          "name": "exists",
          "type": "bool"
        }
      ],
      "stateMutability": "view",
      "type": "function"
    },
    {
      "inputs": [
        {
          "internalType": "address",
          "name": "",
          "type": "address"
        }
      ],
      "name": "sanctionedAddresses",
      "outputs": [
        {
          "internalType": "bool",
          "name": "",
          "type": "bool"
        }
      ],
      "stateMutability": "view",
      "type": "function"
    },
    {
      "inputs": [
        {
          "internalType": "bytes4",
          "name": "interfaceId",
          "type": "bytes4"
        }
      ],
      "name": "supportsInterface",
      "outputs": [
        {
          "internalType": "bool",
          "name": "",
          "type": "bool"
        }
      ],
      "stateMutability": "view",
      "type": "function"
    },
    {
      "inputs": [],
      "name": "totalHighRisk",
      "outputs": [
        {
          "internalType": "uint256",
          "name": "",
          "type": "uint256"
        }
      ],
      "stateMutability": "view",
      "type": "function"
    },
    {
      "inputs": [],
      "name": "totalProfiles",
      "outputs": [
        {
          "internalType": "uint256",
          "name": "",
          "type": "uint256"
        }
      ],
      "stateMutability": "view",
      "type": "function"
    },
    {
      "inputs": [],
      "name": "totalSanctioned",
      "outputs": [
        {
          "internalType": "uint256",
          "name": "",
          "type": "uint256"
        }
      ],
      "stateMutability": "view",
      "type": "function"
    },
    {
      "inputs": [],
      "name": "unpause",
      "outputs": [],
      "stateMutability": "nonpayable",
      "type": "function"
    },
    {
      "inputs": [
        {
          "internalType": "address",
          "name": "account",
          "type": "address"
        },
        {
          "internalType": "uint8",
          "name": "riskScore",
          "type": "uint8"
        },
        {
          "internalType": "uint8",
          "name": "tier",
          "type": "uint8"
        },
        {
          "internalType": "bytes32[]",
          "name": "tags",
          "type": "bytes32[]"
        },
        {
          "internalType": "bool",
          "name": "sanctionedStatus",
          "type": "bool"
        }
      ],
      "name": "updateRiskProfile",
      "outputs": [],
      "stateMutability": "nonpayable",
      "type": "function"
    },
    {
      "inputs": [
        {
          "internalType": "address",
          "name": "newImplementation",
          "type": "address"
        },
        {
          "internalType": "bytes",
          "name": "data",
          "type": "bytes"
        }
      ],
      "name": "upgradeToAndCall",
      "outputs": [],
      "stateMutability": "payable",
      "type": "function"
    }
  ],
  "bytecode": "0x60a06040523461003257610011610036565b604051613bdb6101de823960805181818161344201526135be0152613bdb90f35b5f80fd5b61003e61007d565b610046610101565b565b61005c9061005f906001600160a01b031682565b90565b6001600160a01b031690565b61005c90610048565b61005c9061006b565b61008630610074565b608052565b61005c9060401c60ff1690565b61005c905461008b565b61005c905b6001600160401b031690565b61005c90546100a2565b61005c906100a7906001600160401b031682565b906100e161005c6100fd926100bd565b82546001600160401b0319166001600160401b03919091161790565b9055565b5f61010a610197565b0161011481610098565b61018657610121816100b3565b6001600160401b0391908290811603610138575050565b816101677fc7f505b2f371ae2175ee4913f4499e1f2633a7b5936321eed1cdaeb6115181d293610181936100d1565b604051918291826001600160401b03909116815260200190565b0390a1565b63f92ee8a960e01b5f908152600490fd5b61005c6101d5565b61005c61005c61005c9290565b61005c7ff0c57e16840df040f15088dc2f81fe391c3923bec73e23a9662efc9c229c6a0061019f565b61005c6101ac56fe6102806040526004361015610012575f80fd5b5f3560e01c806301ffc9a71461033157806307e2cea51461032c57806309a212b9146103275780630de593ba146103225780630e9514e71461031d5780630f53a47014610318578063227b4db114610313578063248a9ca31461030e57806324facdbc1461030957806325ed32ca146103045780632f2ff15d146102ff57806336568abe146102fa5780633f4ba83a146102f55780634c95da66146102f05780634f1ef286146102eb57806351276d20146102e657806352d1902d146102e157806359ccf211146102dc5780635a6fcd40146102d75780635c975abb146102d25780635cd8a76b146102cd5780635e2b2072146102c85780635eafd108146102c35780635fc46f90146102be57806375b238fc146102b95780638382c2a2146102b45780638456cb59146102af57806391d14854146102aa5780639948b18d146102a55780639a8a0592146102a0578063a217fddf1461029b578063a556a56314610296578063a91565e714610291578063ad3cb1cc1461028c578063b1c486c014610287578063baf1e57f14610282578063bd3be27c1461027d578063d019577a14610278578063d2adbe7914610273578063d37373ba1461026e578063d547741f14610269578063d55470c614610264578063dc08706d1461025f578063df592f7d1461025a578063e2fdc7f614610255578063ed111b0614610250578063ed56f51e1461024b578063f5b541a614610246578063ff7cc7f6146102415763ffa1ad740361033657611342565b6112ea565b611217565b6111fb565b61114f565b611068565b61103b565b61100c565b610fd3565b610fba565b610fa1565b610f86565b610f5f565b610f44565b610f00565b610e96565b610e64565b610db4565b610d8e565b610d15565b610ce9565b610caa565b610c40565b610c28565b610bfe565b610bb1565b610b8a565b610b60565b610b2c565b610b14565b610af9565b610ade565b610a9e565b6109f4565b6109dc565b6109c8565b6108ad565b610846565b61082d565b610814565b6107d6565b6107a9565b610765565b61073e565b61069b565b6105b3565b61050e565b610416565b6103b2565b610377565b5f80fd5b6001600160e01b031981165b0361033657565b9050359061035a8261033a565b565b90602082820312610336576103709161034d565b90565b9052565b34610336576103a461039261038d36600461035c565b61135d565b60405191829182901515815260200190565b0390f35b5f91031261033657565b34610336576103c23660046103a8565b6103a47f68e79a7bf1e0bc45d0a330c573bc367f9cf464fd326078812f301165fbda4ef15b6040519182918290815260200190565b6103706103706103709290565b610370600a6103f7565b610370610404565b34610336576104263660046103a8565b6103a46103e761040e565b80610346565b9050359061035a82610431565b9190604083820312610336576103709060206104608286610437565b9401610437565b905b5f5260205260405f2090565b634e487b7160e01b5f52603260045260245ffd5b80548210156104a9576104a16001915f5260205f2090565b910201905f90565b610475565b610370916008021c5b6001600160a01b031690565b9061037091546104ae565b6104d9906007610467565b805482101561033657610370916104ef91610489565b906104c3565b610373906104b7565b60208101929161035a91906104f5565b34610336576103a461052a610524366004610444565b906104ce565b604051918291826104fe565b610346816104b7565b9050359061035a82610536565b801515610346565b9050359061035a8261054c565b60ff8116610346565b9050359061035a82610561565b6080818303126103365761058b828261053f565b9261037061059c8460208501610437565b9360606105ac8260408701610554565b940161056a565b34610336576105cf6105c6366004610577565b9291909161161d565b604051005b90602082820312610336576103709161053f565b0190565b9061060c6106056105fb845190565b8084529260200190565b9260200190565b905f5b81811061061c5750505090565b9091926106396106326001928651815260200190565b9460200190565b92910161060f565b9081526101008101969095909490939092909160208701610661916104f5565b63ffffffff16604086015260ff16606085015260ff166080840152151560a0830152151560c08201528082039060e00152610370916105ec565b34610336576103a46106b66106b13660046105d4565b6116e5565b946106c998969894919493929360405190565b98899889610641565b906020828203126103365761037091610437565b906105e8816020936104f5565b906107026106056105fb845190565b905f5b8181106107125750505090565b90919261072561063260019286516106e6565b929101610705565b6020808252610370929101906106f3565b34610336576103a46107596107543660046106d2565b6117f8565b6040519182918261072d565b34610336576103a46103e761077b3660046106d2565b611814565b9091606082840312610336576103706107998484610437565b9360406104608260208701610437565b34610336576105cf6107bc366004610780565b916118ee565b6103706202a3006103f7565b6103706107c2565b34610336576107e63660046103a8565b6103a46103e76107ce565b91906040838203126103365761037090602061080d8286610437565b940161053f565b34610336576105cf6108273660046107f1565b90611917565b34610336576105cf6108403660046107f1565b90611921565b34610336576108563660046103a8565b6105cf611974565b634e487b7160e01b5f52602160045260245ffd5b6005111561087c57565b61085e565b9061035a82610872565b61037090610881565b6103739061088b565b60208101929161035a9190610894565b34610336576103a46108c86108c33660046105d4565b611991565b6040519182918261089d565b634e487b7160e01b5f52604160045260245ffd5b90601f01601f191681019081106001600160401b0382111761090957604052565b6108d4565b9061035a61091b60405190565b92836108e8565b6001600160401b03811161090957602090601f01601f19160190565b90825f939282370152565b9092919261095e61095982610922565b61090e565b93818552818301116103365761035a91602085019061093e565b9080601f830112156103365781602061037093359101610949565b919091604081840312610336576109aa838261053f565b9260208201356001600160401b038111610336576103709201610978565b6105cf6109d6366004610993565b906119e6565b34610336576109ec3660046103a8565b6105cf611b81565b3461033657610a043660046103a8565b6103a46103e7611bcc565b909182601f83011215610336578135916001600160401b03831161033657602001926020830284011161033657565b9160a08383031261033657610a53828461053f565b92610a61836020830161056a565b92610a6f816040840161056a565b9260608301356001600160401b0381116103365782610a95608094610370938701610a0f565b94909501610554565b34610336576105cf610ab1366004610a3e565b94939093929192611f79565b610370916008021c81565b906103709154610abd565b6103705f600b610ac8565b3461033657610aee3660046103a8565b6103a46103e7610ad3565b3461033657610b093660046103a8565b6103a4610392611f87565b3461033657610b243660046103a8565b6105cf612062565b34610336576105cf610b3f3660046105d4565b612176565b919060408382031261033657610370906020610460828661053f565b34610336576105cf610b73366004610b44565b9061230b565b6020808252610370929101906105ec565b34610336576103a4610ba5610ba03660046105d4565b612315565b60405191829182610b79565b3461033657610bc13660046103a8565b6103a45f80516020613baf8339815191526103e7565b901515815260608101939261035a929091604091610bfa905b60ff166020830152565b0152565b34610336576103a4610c19610c143660046105d4565b6123af565b60405191939193849384610bd7565b3461033657610c383660046103a8565b6105cf612416565b34610336576103a4610392610c563660046107f1565b9061241e565b90815260e08101979695909490939092909160208601610c7b916104f5565b63ffffffff16604085015260ff16606084015260ff166080830152151560a082015260c00161035a9115159052565b34610336576103a4610cc5610cc03660046105d4565b61244c565b93610cd597959793919360405190565b97889788610c5c565b6103705f600c610ac8565b3461033657610cf93660046103a8565b6103a46103e7610cde565b6103705f6103f7565b610370610d04565b3461033657610d253660046103a8565b6103a46103e7610d0d565b610370906104b7906001600160a01b031682565b61037090610d30565b61037090610d44565b9061046990610d4d565b610370916008021c5b60ff1690565b906103709154610d60565b5f610d89610370926003610d56565b610d6f565b34610336576103a4610392610da43660046105d4565b610d7a565b6103705f600a610ac8565b3461033657610dc43660046103a8565b6103a46103e7610da9565b90610ddc61095983610922565b918252565b610deb6005610dcf565b640352e302e360dc1b602082015290565b610370610de1565b610370610dfc565b610370610e04565b90825f9392825e0152565b610e40610e496020936105e893610e34815190565b80835293849260200190565b95869101610e14565b601f01601f191690565b602080825261037092910190610e1f565b3461033657610e743660046103a8565b6103a4610e7f610e0c565b60405191829182610e53565b6103705f6009610ac8565b3461033657610ea63660046103a8565b6103a46103e7610e8b565b90610ef0610ef89161035a96989795610ee3608096610ed960a08801945f89019060ff169052565b60ff166020870152565b84820360408601526105ec565b966060830152565b019015159052565b34610336576103a4610f1b610f163660046105d4565b6124b0565b91610f2895939560405190565b95869586610eb1565b610370610e106103f7565b610370610f31565b3461033657610f543660046103a8565b6103a46103e7610f3c565b34610336576103a4610392610f75366004610b44565b906124f9565b6103705f6008610ac8565b3461033657610f963660046103a8565b6103a46103e7610f7b565b34610336576105cf610fb4366004610b44565b9061269d565b34610336576105cf610fcd3660046107f1565b906126c2565b3461033657610fe33660046103a8565b6103a47fdb857e9d93c247629b25e70ad22514c7c659a3f0f17748df0f8afa934124c9486103e7565b34610336576103a46110276110223660046105d4565b6126cc565b6040519182918260ff909116815260200190565b34610336576103a46103926110513660046105d4565b6126e4565b61037060646103f7565b610370611056565b34610336576110783660046103a8565b6103a46103e7611060565b61037090610d69565b6103709054611083565b6103709060081c610d69565b6103709054611096565b6103709081565b61037090546110ac565b610370906104b7565b61037090546110bd565b6110db906006610d56565b6110e48161108c565b916110ee826110a2565b916110fb600182016110b3565b91610370600361110d600285016110b3565b93016110c6565b901515815260a08101959461035a94909360809361114892916111419161113a90610ed9565b6040850152565b6060830152565b01906104f5565b34610336576103a461116a6111653660046105d4565b6110d0565b9161117795939560405190565b95869586611114565b909182601f83011215610336578135916001600160401b03831161033657602001926001830284011161033657565b90916040828403126103365781356001600160401b03811161033657836111d7918401610a0f565b92909360208201356001600160401b038111610336576111f79201611180565b9091565b34610336576105cf61120e3660046111af565b92919091612a08565b34610336576112273660046103a8565b6103a45f80516020613b6f8339815191526103e7565b9060a0828203126103365781356001600160401b0381116103365781611264918401610a0f565b92909360208201356001600160401b0381116103365783611286918401610a0f565b92909360408201356001600160401b03811161033657816112a8918401610a0f565b92909360608201356001600160401b03811161033657836112ca918401610a0f565b92909360808201356001600160401b038111610336576111f79201610a0f565b34610336576105cf6112fd36600461123d565b9897909796919695929594939461322f565b6113196005610dcf565b64322e332e3160d81b602082015290565b61037061130f565b61037061132a565b610370611332565b34610336576113523660046103a8565b6103a4610e7f61133a565b637965db0b60e01b6001600160e01b031982161490811561137c575090565b61037091506001600160e01b0319166301ffc9a760e01b1490565b61035a939291906113b95f80516020613b6f833981519152613245565b613245565b6113d4565b6104b76103706103709290565b610370906113be565b9291906113e86113e35f6113cb565b6104b7565b6113f1856104b7565b146113ff5761035a93611589565b63e6c4247b60e01b5f908152600490fd5b035ffd5b61037060a061090e565b90610373906104b7565b634e487b7160e01b5f525f60045260245ffd5b9060ff905b9181191691161790565b151590565b9061145f61037061146692151590565b825461143b565b9055565b9061ff009060081b611440565b610d696103706103709260ff1690565b9061149761037061146692611477565b825461146a565b905f1990611440565b906114b56103706114669290565b825461149e565b906114b5610370611466926103f7565b61037090516104b7565b906001600160a01b0390611440565b906114f561037061146692610d4d565b82546114d6565b61035a916003906115639060809061152f8561152161151b8451151590565b8261144f565b602083015160ff1690611487565b61154661153d604083015190565b600187016114a7565b61155d611554606083015190565b600287016114bc565b016114cc565b91016114e5565b9061035a916114fc565b90815260408101929161035a91602090610ef8565b611602906115fd7ffca60842491f2afe99a6a05326b02d87c0fb22e652006799891e2c81b776399f9493956115ca6115bf611414565b861515815291610bf0565b6115d5876040830152565b6115e0426060830152565b6115ed336080830161141e565b6115f8836006610d56565b61156a565b610d4d565b9261161861160f60405190565b92839283611574565b0390a2565b9061035a939291611397565b6103706103706103709260ff1690565b6116466103706103709290565b63ffffffff1690565b610d696103706103709290565b9061167561166b6105fb845490565b925f5260205f2090565b905f5b8181106116855750505090565b9091926116a96116a260019261169a876110b3565b815260200190565b9460010190565b929101611678565b906103709161165c565b9061035a6116d5926116cc60405190565b938480926116b1565b03836108e8565b610370906116bb565b906116f86116f3835f610d56565b6110b3565b61170181613269565b91821561176f575b61171a61171583613295565b611629565b9261172c6117278461329e565b611639565b93611736846132c0565b936117476117435f6103f7565b9190565b141590611755876005610d56565b9096959493610370611767606461164f565b9493926116dc565b915061178461177f846003610d56565b61108c565b91611709565b9061179961166b6105fb845490565b905f5b8181106117a95750505090565b9091926117c36116a26001926117be876110c6565b6106e6565b92910161179c565b906103709161178a565b9061035a6116d5926117e660405190565b938480926117cb565b610370906117d5565b61180f61037091611807606090565b506007610467565b6117ef565b600161183b610370926118245f90565b505f5f80516020613b8f8339815191525b01610467565b016110b3565b61035a92919061185d5f80516020613baf833981519152613245565b6118a3565b1561186957565b60405162461bcd60e51b8152602060048201526012602482015271105b1c9958591e48189858dad99a5b1b195960721b6044820152606490fd5b6118e392916118d56118dc926118ce6118bc60086110b3565b6118c86117435f6103f7565b14611862565b60086114bc565b60096114bc565b600a6114bc565b61035a42600b6114bc565b9061035a9291611841565b9061035a9161190a6113b482611814565b90611914916132de565b50565b9061035a916118f9565b9061192b336104b7565b611934826104b7565b036119425761191491613362565b63334bd91960e11b5f908152600490fd5b6119695f80516020613baf833981519152613245565b61035a61035a61342f565b61035a611953565b61198c6103706103709260ff1690565b610881565b61199f61177f826003610d56565b6119c0576119bb6119b66116f3610370935f610d56565b6132c0565b61197c565b50600490565b9061035a916119d3613437565b9061035a916119e1816134c4565b6134ee565b9061035a916119c6565b6119fd6103706103709290565b6001600160401b031690565b6103709060401c610d69565b6103709054611a09565b610370906119fd565b6103709054611a1f565b906001600160401b0390611440565b6119fd610370610370926001600160401b031690565b90611a6761037061146692611a41565b8254611a32565b9068ff00000000000000009060401b611440565b90611a9261037061146692151590565b8254611a6e565b611aa360036119f0565b611aab6135a5565b908190611ab782611a15565b8015611b3f575b611b2e57611b0f5f80611b2994611b01600188611afc887fc7f505b2f371ae2175ee4913f4499e1f2633a7b5936321eed1cdaeb6115181d29b611a57565b611a82565b611b09611b6b565b01611a82565b604051918291826001600160401b03909116815260200190565b0390a1565b63f92ee8a960e01b5f908152600490fd5b50611b4983611a28565b611b646001600160401b0383165b916001600160401b031690565b1015611abe565b61035a5f80516020613baf833981519152613245565b61035a611a99565b61037090611b956135ad565b611bc3565b6103707f360894a13ba1a3210667c828492db98dca3e2076cc3735a920a3ca505d382bbc6103f7565b50610370611b9a565b6103705f611b89565b61035a959493929190611c077f68e79a7bf1e0bc45d0a330c573bc367f9cf464fd326078812f301165fbda4ef1613245565b9061035a9594939291611c186135e9565b9493929190611c296113e35f6113cb565b611c32876104b7565b146113ff5761035a95611ca4565b634e487b7160e01b5f52601160045260245ffd5b91908203918211611c6157565b611c40565b8015611c61575f190190565b5f198114611c615760010190565b60ff909116815260608101939261035a929091604091610ef8906020830190610894565b92919091611cb2606461164f565b60ff841611611f6857611cc8610d69600461088b565b60ff831611611f505784611ce0611743610370610404565b11611f3f578590611cfe611cf86116f3876001610d56565b42611c54565b611d0c611743610370610f31565b10611f05575b82611e279285611dd56116189661144a7f6acf7a47157b8e5efce757b2b66c90ddecd0b5e3622ac13ddf01e52ebe92bff59b611e2197611dcf611dc88e611dc1611db2611d626116f3845f610d56565b611d6e6117435f6103f7565b149a611d85611d806116f3865f610d56565b613295565b611d99611d92605061164f565b9160ff1690565b10159c611daa61177f866003610d56565b9a4292613608565b611dbc835f610d56565b6114bc565b6001610d56565b42906114bc565b8c613716565b8a151503611eaa575b611e95575b611ded605061164f565b60ff871610158080611e8d575b15611e3a575050611e166118d5611e1160096110b3565b611c72565b6119bb42600b6114bc565b93610d4d565b94611e3160405190565b93849384611c80565b159081611e85575b5080611e68575b15611e1657611e636118d5611e5e60096110b3565b611c66565b611e16565b50611e7360096110b3565b611e7f6117435f6103f7565b11611e49565b90505f611e42565b508115611dfa565b611ea56118ce611e1160086110b3565b611de3565b611ebe8a611eb98a6003610d56565b61144f565b8915611ed957611ed46118dc611e11600a6110b3565b611dde565b611ee3600a6110b3565b611eef6117435f6103f7565b1115611dde57611ed46118dc611e5e600a6110b3565b9050611f1f61144a611f1a6116f3875f610d56565b613269565b86151514611f2e578590611d12565b6329fbd37760e11b5f908152600490fd5b63ee39e85560e01b5f908152600490fd5b637871e1b960e01b5f90815260ff8316600452602490fd5b6330cdce3160e21b5f908152600490fd5b9061035a9594939291611bd5565b6103707fcd5ed15c6e187e77e9aee88184c21f4f2182ab5827cb3b7e07fbedcd63f0330061108c565b611fba60026119f0565b611fc26135a5565b908190611fce82611a15565b801561201b575b611b2e57611b0f5f80611b2994612013600188611afc887fc7f505b2f371ae2175ee4913f4499e1f2633a7b5936321eed1cdaeb6115181d29b611a57565b611b0961203e565b5061202583611a28565b6120376001600160401b038316611b57565b1015611fd5565b6120545f80516020613baf833981519152613245565b61035a61035a46600c6114bc565b61035a611fb0565b61035a906120845f80516020613baf833981519152613245565b6120906113e35f6113cb565b612099826104b7565b146113ff5761035a906120b061177f826003610d56565b6120b75750565b806120c86116f3612106935f610d56565b6120d181613269565b612147575b506120e65f611eb9836003610d56565b6120f0600a6110b3565b6120fc6117435f6103f7565b1161213757610d4d565b7f97faab8fde81914a8f7f87da64f6bc88bddc68b474ddfc51d2b834ccd9c2da1c61213060405190565b8080611618565b6115fd6118dc611e5e600a6110b3565b6121709061215e61215a620100006103f7565b1990565b612168845f610d56565b9116906114bc565b5f6120d6565b61035a9061206a565b61035a919061219a5f80516020613b6f833981519152613245565b906121a76113e35f6113cb565b6121b0836104b7565b146113ff5761035a9161226c565b915f1960089290920291821b911b611440565b91906121e06103706114669390565b9083546121be565b90815491600160401b831015610909578261220b91600161035a95018155610489565b906121d1565b916001600160a01b0360089290920291821b911b611440565b919061223b61037061146693610d4d565b908354612211565b90815491600160401b831015610909578261226691600161035a95018155610489565b9061222a565b61228a61228661177f84612281856004610d56565b610467565b1590565b612292575050565b611743816122ad6001611eb9866122816122db976004610d56565b6122c4846122bf610370846005610d56565b6121e8565b6115fd816122d6610370876007610467565b612243565b907fb43b75fefd7158b7712b04b678f575e8220a990f0ef29e843a52f8520431c9ce61230660405190565b5f90a3565b9061035a9161217f565b61232c61037091612324606090565b506005610d56565b6116dc565b9061035a61239d6003612342611414565b9461235561234f8261108c565b15158752565b61236b612361826110a2565b60ff166020880152565b61238161237a600183016110b3565b6040880152565b612397612390600283016110b3565b6060880152565b016110c6565b6080840161141e565b61037090612331565b6123c56123ca916123bd5f90565b506006610d56565b6123a6565b906123d58251151590565b906123ef60406123e9602086015160ff1690565b94015190565b91929190565b61240b5f80516020613baf833981519152613245565b61035a61035a613932565b61035a6123f5565b610370915f61244661177f936124315f90565b50825f80516020613b8f833981519152611835565b01610d56565b9061245a6116f3835f610d56565b9061246482613295565b906124716117278461329e565b9261247b816132c0565b9261249d61248883613269565b926124956117435f6103f7565b141591611629565b959493926124ab606461164f565b929190565b906124be6116f3835f610d56565b6124c781613295565b6124db6124d3836132c0565b946005610d56565b926124ab6124f16124eb8561329e565b94613269565b9295946116dc565b6103709161228161177f9261250b5f90565b506004610d56565b61035a919061252e5f80516020613b6f833981519152613245565b9061253b6113e35f6113cb565b612544836104b7565b146113ff5761035a91612598565b634e487b7160e01b5f52603160045260245ffd5b61035a915f9161222a565b80548015612593575f19019061259061258a8383610489565b90612566565b55565b612552565b906125ab61177f82612281856004610d56565b6125b3575050565b6125c65f611eb983612281866004610d56565b6125d4610370826007610467565b916125de5f6103f7565b6125e9610370855490565b81101561268d576125fd6104ef8286610489565b61260f612609846104b7565b916104b7565b1461261c576001016125de565b906115fd8461265d611743946122666126566104ef6126506126406126629b9c5490565b61264a60016103f7565b90611c54565b86610489565b9184610489565b612571565b907f4211ad398ce42edd1863832a4f8e443d3bf6155e4799704c88be0ddc63afbfd661230660405190565b5061266291925061174390610d4d565b9061035a91612513565b9061035a916126b86113b482611814565b9061191491613362565b9061035a916126a7565b611d806116f3610370926126dd5f90565b505f610d56565b61177f610370916126f25f90565b506003610d56565b61035a939291906127175f80516020613baf833981519152613245565b61277e565b91908110156104a9576020020190565b3561037081610536565b6103709061274a6117436103709460ff1690565b901b90565b9190610e4981612766816105e89560209181520190565b809561093e565b60208082526103709391019161274f565b90939261278a5f6103f7565b85811015612a0057808084886127ac6127a761293e96838561271c565b61272c565b6127bb6126096113e35f6113cb565b146129f75761281f6116f36128056127a78661280b6116f36128056127a7611dc89b8a7f6acf7a47157b8e5efce757b2b66c90ddecd0b5e3622ac13ddf01e52ebe92bff59c61271c565b5f610d56565b6128176117435f6103f7565b14958c61271c565b8061282c61228682613269565b6129d2575b50848b896004946128418661088b565b61284a866132c0565b61285660ff8316611d92565b03612993575b5061286685613295565b605a90612875611d928361164f565b10612958575b506127a78484846128df946128a48a611dbc6128056127a76128eb9d611e279d6128e59d61271c565b6128d660019d8e6128c881611eb960036128c26127a78c8c8c61271c565b90610d56565b6128c26127a788888861271c565b6129435761271c565b93613295565b92610d4d565b0390a26128ff6115fd6127a7838a8861271c565b7f960e42515e613878fe8ad6297fccc9b2507b3afa6eff580b86ce9aaba8a9e57d61292960405190565b80612935878a8361276d565b0390a260010190565b61278a565b6129536118ce611e1160086110b3565b61271c565b6128eb94611e27946128e5946127a7936129846128df969a61297d61215a60ff6103f7565b16916103f7565b1798945094509450945061287b565b90946129ca906129c56129a660ff6103f7565b916129be61215a6129b7600861164f565b8095612736565b1693611629565b612736565b17935f61285c565b90506129e0620100006103f7565b176129f16118dc611e11600a6110b3565b5f612831565b50505060010190565b505050509050565b9061035a9392916126fa565b61035a99989796959493929190612a4a7f68e79a7bf1e0bc45d0a330c573bc367f9cf464fd326078812f301165fbda4ef1613245565b9061035a999897969594939291612a5f6135e9565b612b95565b61037091604082019190612a799082906104f5565b6020818303910152600f81526e496e76616c6964206164647265737360881b602082015260400190565b3561037081610561565b61037091604082019190612ac29082906104f5565b60208183039101526012815271496e76616c6964207269736b2073636f726560701b602082015260400190565b61037091604082019190612b049082906104f5565b6020818303910152600c81526b24b73b30b634b2103a34b2b960a11b602082015260400190565b356103708161054c565b903590601e19368290030182121561033657018035906001600160401b0382116103365760200191602082023603831361033657565b908210156104a95760206111f79202810190612b35565b90815260408101929161035a9160200152565b61010052610220526101205261026052610140526101a05261016052610180526102405261020052612bcc61022051610100515090565b610260518114158015613222575b8015613215575b8015613208575b6131f457612bf7610370611056565b81116131e3575a6101e052612c0b5f6103f7565b60e05260e0516101c0525b805b6101c051101561319757612c1890612c3d6127a76101c051610220516101005161271c565b612c4c6126096113e35f6113cb565b1461313d57612c6d612c686101c051610260516101205161271c565b612aa3565b612c7a611d92606461164f565b116130e357612c96612c686101c0516101a0516101405161271c565b612ca6611d92610d69600461088b565b1161308157612cc86116f36128056127a76101c051610220516101005161271c565b612cd46117435f6103f7565b14608052612cfc61177f612cf56127a76101c051610220516101005161271c565b6003610d56565b60a052612d1f611d806116f36128056127a76101c051610220516101005161271c565b612d2c611d92605061164f565b101560c052612da3612d89612d4e612c686101c051610260516101205161271c565b612d65612c686101c0516101a0516101405161271c565b612d81612d7c6101c051610180516101605161271c565b612b2b565b904292613608565b611dbc6128056127a76101c051610220516101005161271c565b612dc2611dc860016128c26127a76101c051610220516101005161271c565b612df6612ddc612d7c6101c051610180516101605161271c565b611eb9612cf56127a76101c051610220516101005161271c565b610200516101c0511080613052575b613019575b608051613004575b612e29612d7c6101c051610180516101605161271c565b80612ffa575b612fe5575b612e4e612286612d7c6101c051610180516101605161271c565b80612fdc575b80612fbf575b612faa575b612e76612c686101c051610260516101205161271c565b612e83611d92605061164f565b10158080612fa0575b15612f535750612ea26118d5611e1160096110b3565b612ead60e051611c72565b60e052612ec76127a76101c051610220516101005161271c565b7f6acf7a47157b8e5efce757b2b66c90ddecd0b5e3622ac13ddf01e52ebe92bff5612eff612c686101c051610260516101205161271c565b612f196119bb612c686101c0516101a0516101405161271c565b90612f3d611e27612f37612d7c6101c051610180516101605161271c565b95610d4d565b0390a25b6101c0516001016101c0529050612c16565b1580612f97575b80612f7a575b15612ea257612f756118d5611e5e60096110b3565b612ea2565b50612f8560096110b3565b612f916117435f6103f7565b11612f60565b5060c051612f5a565b5060c05115612e8c565b612fba6118dc611e5e600a6110b3565b612e5f565b50612fca600a6110b3565b612fd66117435f6103f7565b11612e5a565b5060a051612e54565b612ff56118dc611e11600a6110b3565b612e34565b5060a05115612e2f565b6130146118ce611e1160086110b3565b612e12565b61304d6130336127a76101c051610220516101005161271c565b6130476101c0516102005161024051612b6b565b91613716565b612e0a565b5061306f61306a6101c0516102005161024051612b6b565b905090565b61307b6117435f6103f7565b11612e05565b6130986127a76101c051610220516101005161271c565b7f82dc8a0cfd6f31109d330b111a56911d6c6667243fe5ee840d59a003733262e46130db6130c86101c0516103f7565b926130d260405190565b91829182612aef565b0390a2612f41565b6130fa6127a76101c051610220516101005161271c565b7f82dc8a0cfd6f31109d330b111a56911d6c6667243fe5ee840d59a003733262e46130db61312a6101c0516103f7565b9261313460405190565b91829182612aad565b6131546127a76101c051610220516101005161271c565b7f82dc8a0cfd6f31109d330b111a56911d6c6667243fe5ee840d59a003733262e46130db6131846101c0516103f7565b9261318e60405190565b91829182612a64565b506131a342600b6114bc565b7fe6591ec7b7ee15e85a2a74819e56941ae9edaa6be2df85ac70c5193de646a08d611b296131d45a6101e051611c54565b60405191829160e05183612b82565b6305beb17160e11b5f908152600490fd5b6001621398b960e31b03195f908152600490fd5b5061020051811415612be8565b5061018051811415612be1565b506101a051811415612bda565b9061035a999897969594939291612a14565b1490565b61035a903390613954565b610370906132646117436103709460ff1690565b901c90565b61327d90613277601061164f565b90613250565b61328760016103f7565b1661324161174360016103f7565b6103709061164f565b6132ac90613277601161164f565b6132bc6001600160401b036103f7565b1690565b6132d9610370916132ce5f90565b50613277600861164f565b61164f565b5f80516020613b8f8339815191526132f9612286848461241e565b1561335b576001611eb9845f61244686826133149701610467565b613328613322611e21339390565b91610d4d565b917f2f8788117e7eff1d82e926ec794901d17c78024a50270940304540a733656f0d61335360405190565b5f90a4600190565b5050505f90565b5f80516020613b8f83398151915261337a838361241e565b1561335b575f611eb9848261244686826133949701610467565b6133a2613322611e21339390565b917ff6391f5c32d9c69d2a47ea670b442974b53935d1edc7fd64eb21e047a839171b61335360405190565b6133d5613982565b61035a6134055f807fcd5ed15c6e187e77e9aee88184c21f4f2182ab5827cb3b7e07fbedcd63f033005b0161144f565b7f5db9ee0a495bf2e6ff9c91a7834c1ba4fdd244a5e8aa4e537bd38aeae4b073aa611b293361052a565b61035a6133cd565b61344030610d4d565b7f00000000000000000000000000000000000000000000000000000000000000009061346e612609836104b7565b1490811561348f575b5061347e57565b63703e46dd60e11b5f908152600490fd5b90506134a561260961349f6139a4565b926104b7565b14155f613477565b5061035a5f80516020613baf833981519152613245565b61035a906134ad565b9050519061035a82610431565b9060208282031261033657610370916134cd565b916134fb6115fd84610d4d565b91602061350760405190565b6352d1902d60e01b815293849060049082905afa5f9381613574575b5061353f57634c9c8ce360e01b5f9081526114108560046104fe565b90919261354d610370611b9a565b840361355e5761035a9293506139b3565b632a87526960e21b5f9081526004859052602490fd5b61359791945060203d60201161359e575b61358f81836108e8565b8101906134da565b925f613523565b503d613585565b610370613a43565b6135b630610d4d565b6135e26126097f00000000000000000000000000000000000000000000000000000000000000006104b7565b0361347e57565b6135f1611f87565b6135f757565b63d93c066560e01b5f908152600490fd5b61363c61362c61362661365893969495966136205f90565b50611629565b94611629565b613636600861164f565b90612736565b9161364d6001600160401b036103f7565b16613636601161164f565b9117178091613665575090565b9050613673620100006103f7565b1790565b61035a915f916121d1565b81811061368d575050565b8061369a5f600193613677565b01613682565b9190918282106136af57505050565b61035a92916136c290915f5260205f2090565b9182019101613682565b90600160401b811161090957816136e461035a935490565b908281556136a0565b5f61035a916136cc565b905f036137075761035a906136ed565b611428565b3561037081610431565b92916137215f6103f7565b925b60056137396103706137358884610d56565b5490565b8510156137fa5761037061376261375c876137578a61377c96610d56565b610489565b90610ac8565b6137755f611eb9836122818c6004610d56565b6007610467565b926137865f6103f7565b613791610370865490565b8110156137ec576137a56104ef8287610489565b6137b1612609896104b7565b146137be57600101613786565b8461265d6137e0926122666126566104ef6126506126406137e69a9d999c5490565b60010190565b92613723565b509250926137e69060010190565b509250926005916138155f613810846005610d56565b6136f7565b61381e5f6103f7565b85811015612a00576138679083600461385a61228661177f8b61385461384f886138488989610d56565b938c61271c565b61370c565b90610467565b61386c575b505060010190565b61381e565b611eb961387e61388c93600193610d56565b61385461384f868d8a61271c565b6138b061389c6103708688610d56565b6138aa61384f848b8861271c565b906121e8565b6138ca846122d6610370600761385461384f878e8b61271c565b835f61385f565b6138d96135e9565b61035a61390860015f7fcd5ed15c6e187e77e9aee88184c21f4f2182ab5827cb3b7e07fbedcd63f033006133ff565b7f62e78cea01bee320cd4e420270b5ea74000d11b0c9f74754ebdbfc544b05a258611b293361052a565b61035a6138d1565b91602061035a929493610bfa60408201965f8301906104f5565b90613962612286828461241e565b61396a575050565b63e2517d3f60e01b5f9081529161141091600461393a565b61398d612286611f87565b61399357565b638dfc202b60e01b5f908152600490fd5b6103705f612397610370611b9a565b906139bd82613a4b565b6139c682610d4d565b7fbc7cd75a20ee27fd9adebab32041f755214dbc6bffa90cc0225b39da2e5c2d3b6139f060405190565b5f90a28051613a016117435f6103f7565b1115613a105761191491613aae565b505061035a613a8c565b6103707ff0c57e16840df040f15088dc2f81fe391c3923bec73e23a9662efc9c229c6a006103f7565b610370613a1a565b803b613a596117435f6103f7565b14613a745761035a905f613a6e610370611b9a565b016114e5565b634c9c8ce360e01b5f908152906114109060046104fe565b613a955f6103f7565b3411613a9d57565b63b398979f60e01b5f908152600490fd5b90613ab99082613b3a565b8080613b11575b15613acf575050610370613b55565b15613aec57639996b31560e01b5f908152906114109060046104fe565b3d613af96117435f6103f7565b115f03613b4a5763d6bda27560e01b5f908152600490fd5b503d613b1f6117435f6103f7565b1180613ac05750813b613b346117435f6103f7565b11613ac0565b5f918291602082519201905af490565b6040513d5f823e3d90fd5b604051903d82523d5f602084013e3d602001820160405256fe97667070c54ef182b0f5858b034beac1b6f3089aa2d3188bb1e8929f4fa9b92902dd7bc7dec4dceedda775e58dd541e08a116c6c53815c0bd028192f7b626800a49807205ce4d355092ef5a8a18f56e8913cf4a201fbe287825b095693c21775a164736f6c634300081a000a",
  "linkReferences": {},
  "deployedLinkReferences": {}
}