{
  "_format": "hh-sol-artifact-1",
  "contractName": "FidesBridgeReceiver",
  "sourceName": "contracts/FidesBridgeReceiver.sol",
  "abi": [
    {
      "inputs": [],
      "stateMutability": "nonpayable",
      "type": "constructor"
    },
    {
      "inputs": [],
      "name": "AccessControlBadConfirmation",
      "type": "error"
    },
    {
      "inputs": [
        {
          "internalType": "address",
          "name": "account",
          "type": "address"
        },
        {
          "internalType": "bytes32",
          "name": "neededRole",
          "type": "bytes32"
        }
      ],
      "name": "AccessControlUnauthorizedAccount",
      "type": "error"
    },
    {
      "inputs": [
        {
          "internalType": "address",
          "name": "target",
          "type": "address"
        }
      ],
      "name": "AddressEmptyCode",
      "type": "error"
    },
    {
      "inputs": [
        {
          "internalType": "address",
          "name": "implementation",
          "type": "address"
        }
      ],
      "name": "ERC1967InvalidImplementation",
      "type": "error"
    },
    {
      "inputs": [],
      "name": "ERC1967NonPayable",
      "type": "error"
    },
    {
      "inputs": [],
      "name": "FailedCall",
      "type": "error"
    },
    {
      "inputs": [],
      "name": "InvalidInitialization",
      "type": "error"
    },
    {
      "inputs": [],
      "name": "InvalidMerkleRoot",
      "type": "error"
    },
    {
      "inputs": [],
      "name": "NotInitializing",
      "type": "error"
    },
    {
      "inputs": [
        {
          "internalType": "uint256",
          "name": "nonce",
          "type": "uint256"
        },
        {
          "internalType": "uint256",
          "name": "expected",
          "type": "uint256"
        }
      ],
      "name": "ReplayDetected",
      "type": "error"
    },
    {
      "inputs": [
        {
          "internalType": "uint256",
          "name": "receivedTime",
          "type": "uint256"
        },
        {
          "internalType": "uint256",
          "name": "lastSyncTime",
          "type": "uint256"
        }
      ],
      "name": "StaleUpdate",
      "type": "error"
    },
    {
      "inputs": [
        {
          "internalType": "uint256",
          "name": "elapsed",
          "type": "uint256"
        },
        {
          "internalType": "uint256",
          "name": "required",
          "type": "uint256"
        }
      ],
      "name": "SyncTooFrequent",
      "type": "error"
    },
    {
      "inputs": [],
      "name": "UUPSUnauthorizedCallContext",
      "type": "error"
    },
    {
      "inputs": [
        {
          "internalType": "bytes32",
          "name": "slot",
          "type": "bytes32"
        }
      ],
      "name": "UUPSUnsupportedProxiableUUID",
      "type": "error"
    },
    {
      "inputs": [
        {
          "internalType": "uint256",
          "name": "chainId",
          "type": "uint256"
        },
        {
          "internalType": "address",
          "name": "sender",
          "type": "address"
        }
      ],
      "name": "UnauthorizedSender",
      "type": "error"
    },
    {
      "anonymous": false,
      "inputs": [
        {
          "indexed": true,
          "internalType": "uint256",
          "name": "sourceChainId",
          "type": "uint256"
        },
        {
          "indexed": true,
          "internalType": "bytes32",
          "name": "merkleRoot",
          "type": "bytes32"
        },
        {
          "indexed": false,
          "internalType": "uint256",
          "name": "timestamp",
          "type": "uint256"
        },
        {
          "indexed": false,
          "internalType": "uint256",
          "name": "nonce",
          "type": "uint256"
        }
      ],
      "name": "CrossChainSynced",
      "type": "event"
    },
    {
      "anonymous": false,
      "inputs": [
        {
          "indexed": false,
          "internalType": "uint64",
          "name": "version",
          "type": "uint64"
        }
      ],
      "name": "Initialized",
      "type": "event"
    },
    {
      "anonymous": false,
      "inputs": [
        {
          "indexed": false,
          "internalType": "address",
          "name": "newRegistry",
          "type": "address"
        }
      ],
      "name": "MerkleRegistryUpdated",
      "type": "event"
    },
    {
      "anonymous": false,
      "inputs": [
        {
          "indexed": true,
          "internalType": "bytes32",
          "name": "role",
          "type": "bytes32"
        },
        {
          "indexed": true,
          "internalType": "bytes32",
          "name": "previousAdminRole",
          "type": "bytes32"
        },
        {
          "indexed": true,
          "internalType": "bytes32",
          "name": "newAdminRole",
          "type": "bytes32"
        }
      ],
      "name": "RoleAdminChanged",
      "type": "event"
    },
    {
      "anonymous": false,
      "inputs": [
        {
          "indexed": true,
          "internalType": "bytes32",
          "name": "role",
          "type": "bytes32"
        },
        {
          "indexed": true,
          "internalType": "address",
          "name": "account",
          "type": "address"
        },
        {
          "indexed": true,
          "internalType": "address",
          "name": "sender",
          "type": "address"
        }
      ],
      "name": "RoleGranted",
      "type": "event"
    },
    {
      "anonymous": false,
      "inputs": [
        {
          "indexed": true,
          "internalType": "bytes32",
          "name": "role",
          "type": "bytes32"
        },
        {
          "indexed": true,
          "internalType": "address",
          "name": "account",
          "type": "address"
        },
        {
          "indexed": true,
          "internalType": "address",
          "name": "sender",
          "type": "address"
        }
      ],
      "name": "RoleRevoked",
      "type": "event"
    },
    {
      "anonymous": false,
      "inputs": [
        {
          "indexed": false,
          "internalType": "uint256",
          "name": "chainId",
          "type": "uint256"
        },
        {
          "indexed": false,
          "internalType": "address",
          "name": "sender",
          "type": "address"
        }
      ],
      "name": "SenderAuthorized",
      "type": "event"
    },
    {
      "anonymous": false,
      "inputs": [
        {
          "indexed": false,
          "internalType": "uint256",
          "name": "chainId",
          "type": "uint256"
        },
        {
          "indexed": false,
          "internalType": "address",
          "name": "sender",
          "type": "address"
        }
      ],
      "name": "SenderDeauthorized",
      "type": "event"
    },
    {
      "anonymous": false,
      "inputs": [
        {
          "indexed": true,
          "internalType": "address",
          "name": "implementation",
          "type": "address"
        }
      ],
      "name": "Upgraded",
      "type": "event"
    },
    {
      "inputs": [],
      "name": "ADMIN_ROLE",
      "outputs": [
        {
          "internalType": "bytes32",
          "name": "",
          "type": "bytes32"
        }
      ],
      "stateMutability": "view",
      "type": "function"
    },
    {
      "inputs": [],
      "name": "BRIDGE_RELAYER_ROLE",
      "outputs": [
        {
          "internalType": "bytes32",
          "name": "",
          "type": "bytes32"
        }
      ],
      "stateMutability": "view",
      "type": "function"
    },
    {
      "inputs": [],
      "name": "DEFAULT_ADMIN_ROLE",
      "outputs": [
        {
          "internalType": "bytes32",
          "name": "",
          "type": "bytes32"
        }
      ],
      "stateMutability": "view",
      "type": "function"
    },
    {
      "inputs": [],
      "name": "MAX_ROOT_HISTORY",
      "outputs": [
        {
          "internalType": "uint256",
          "name": "",
          "type": "uint256"
        }
      ],
      "stateMutability": "view",
      "type": "function"
    },
    {
      "inputs": [],
      "name": "MIN_SYNC_INTERVAL",
      "outputs": [
        {
          "internalType": "uint256",
          "name": "",
          "type": "uint256"
        }
      ],
      "stateMutability": "view",
      "type": "function"
    },
    {
      "inputs": [],
      "name": "UPGRADE_INTERFACE_VERSION",
      "outputs": [
        {
          "internalType": "string",
          "name": "",
          "type": "string"
        }
      ],
      "stateMutability": "view",
      "type": "function"
    },
    {
      "inputs": [
        {
          "internalType": "uint256",
          "name": "chainId",
          "type": "uint256"
        },
        {
          "internalType": "address",
          "name": "sender",
          "type": "address"
        }
      ],
      "name": "authorizeSender",
      "outputs": [],
      "stateMutability": "nonpayable",
      "type": "function"
    },
    {
      "inputs": [
        {
          "internalType": "uint256",
          "name": "",
          "type": "uint256"
        },
        {
          "internalType": "address",
          "name": "",
          "type": "address"
        }
      ],
      "name": "authorizedSenders",
      "outputs": [
        {
          "internalType": "bool",
          "name": "",
          "type": "bool"
        }
      ],
      "stateMutability": "view",
      "type": "function"
    },
    {
      "inputs": [
        {
          "internalType": "uint256",
          "name": "chainId",
          "type": "uint256"
        },
        {
          "internalType": "address",
          "name": "sender",
          "type": "address"
        }
      ],
      "name": "deauthorizeSender",
      "outputs": [],
      "stateMutability": "nonpayable",
      "type": "function"
    },
    {
      "inputs": [
        {
          "internalType": "bytes32",
          "name": "role",
          "type": "bytes32"
        }
      ],
      "name": "getRoleAdmin",
      "outputs": [
        {
          "internalType": "bytes32",
          "name": "",
          "type": "bytes32"
        }
      ],
      "stateMutability": "view",
      "type": "function"
    },
    {
      "inputs": [],
      "name": "getRootHistory",
      "outputs": [
        {
          "internalType": "bytes32[]",
          "name": "",
          "type": "bytes32[]"
        }
      ],
      "stateMutability": "view",
      "type": "function"
    },
    {
      "inputs": [
        {
          "internalType": "bytes32",
          "name": "role",
          "type": "bytes32"
        },
        {
          "internalType": "address",
          "name": "account",
          "type": "address"
        }
      ],
      "name": "grantRole",
      "outputs": [],
      "stateMutability": "nonpayable",
      "type": "function"
    },
    {
      "inputs": [
        {
          "internalType": "bytes32",
          "name": "role",
          "type": "bytes32"
        },
        {
          "internalType": "address",
          "name": "account",
          "type": "address"
        }
      ],
      "name": "hasRole",
      "outputs": [
        {
          "internalType": "bool",
          "name": "",
          "type": "bool"
        }
      ],
      "stateMutability": "view",
      "type": "function"
    },
    {
      "inputs": [],
      "name": "historyIndex",
      "outputs": [
        {
          "internalType": "uint256",
          "name": "",
          "type": "uint256"
        }
      ],
      "stateMutability": "view",
      "type": "function"
    },
    {
      "inputs": [
        {
          "internalType": "address",
          "name": "admin",
          "type": "address"
        },
        {
          "internalType": "address",
          "name": "_merkleRegistry",
          "type": "address"
        }
      ],
      "name": "initialize",
      "outputs": [],
      "stateMutability": "nonpayable",
      "type": "function"
    },
    {
      "inputs": [
        {
          "internalType": "uint256",
          "name": "chainId",
          "type": "uint256"
        },
        {
          "internalType": "address",
          "name": "sender",
          "type": "address"
        }
      ],
      "name": "isSenderAuthorized",
      "outputs": [
        {
          "internalType": "bool",
          "name": "",
          "type": "bool"
        }
      ],
      "stateMutability": "view",
      "type": "function"
    },
    {
      "inputs": [],
      "name": "lastSyncTime",
      "outputs": [
        {
          "internalType": "uint256",
          "name": "",
          "type": "uint256"
        }
      ],
      "stateMutability": "view",
      "type": "function"
    },
    {
      "inputs": [],
      "name": "lastSyncedRoot",
      "outputs": [
        {
          "internalType": "bytes32",
          "name": "",
          "type": "bytes32"
        }
      ],
      "stateMutability": "view",
      "type": "function"
    },
    {
      "inputs": [],
      "name": "merkleRegistry",
      "outputs": [
        {
          "internalType": "contract IMerkleRiskRegistry",
          "name": "",
          "type": "address"
        }
      ],
      "stateMutability": "view",
      "type": "function"
    },
    {
      "inputs": [],
      "name": "proxiableUUID",
      "outputs": [
        {
          "internalType": "bytes32",
          "name": "",
          "type": "bytes32"
        }
      ],
      "stateMutability": "view",
      "type": "function"
    },
    {
      "inputs": [
        {
          "internalType": "uint256",
          "name": "sourceChainId",
          "type": "uint256"
        },
        {
          "internalType": "address",
          "name": "sender",
          "type": "address"
        },
        {
          "internalType": "bytes32",
          "name": "newRoot",
          "type": "bytes32"
        },
        {
          "internalType": "uint256",
          "name": "timestamp",
          "type": "uint256"
        },
        {
          "internalType": "uint256",
          "name": "nonce",
          "type": "uint256"
        }
      ],
      "name": "receiveCrossChainUpdate",
      "outputs": [],
      "stateMutability": "nonpayable",
      "type": "function"
    },
    {
      "inputs": [
        {
          "internalType": "bytes32",
          "name": "role",
          "type": "bytes32"
        },
        {
          "internalType": "address",
          "name": "callerConfirmation",
          "type": "address"
        }
      ],
      "name": "renounceRole",
      "outputs": [],
      "stateMutability": "nonpayable",
      "type": "function"
    },
    {
      "inputs": [
        {
          "internalType": "bytes32",
          "name": "role",
          "type": "bytes32"
        },
        {
          "internalType": "address",
          "name": "account",
          "type": "address"
        }
      ],
      "name": "revokeRole",
      "outputs": [],
      "stateMutability": "nonpayable",
      "type": "function"
    },
    {
      "inputs": [
        {
          "internalType": "uint256",
          "name": "",
          "type": "uint256"
        }
      ],
      "name": "rootHistory",
      "outputs": [
        {
          "internalType": "bytes32",
          "name": "",
          "type": "bytes32"
        }
      ],
      "stateMutability": "view",
      "type": "function"
    },
    {
      "inputs": [
        {
          "internalType": "address",
          "name": "_merkleRegistry",
          "type": "address"
        }
      ],
      "name": "setMerkleRegistry",
      "outputs": [],
      "stateMutability": "nonpayable",
      "type": "function"
    },
    {
      "inputs": [
        {
          "internalType": "bytes4",
          "name": "interfaceId",
          "type": "bytes4"
        }
      ],
      "name": "supportsInterface",
      "outputs": [
        {
          "internalType": "bool",
          "name": "",
          "type": "bool"
        }
      ],
      "stateMutability": "view",
      "type": "function"
    },
    {
      "inputs": [],
      "name": "syncNonce",
      "outputs": [
        {
          "internalType": "uint256",
          "name": "",
          "type": "uint256"
        }
      ],
      "stateMutability": "view",
      "type": "function"
    },
    {
      "inputs": [
        {
          "internalType": "address",
          "name": "newImplementation",
          "type": "address"
        },
        {
          "internalType": "bytes",
          "name": "data",
          "type": "bytes"
        }
      ],
      "name": "upgradeToAndCall",
      "outputs": [],
      "stateMutability": "payable",
      "type": "function"
    }
  ],
  "bytecode": "0x60a06040523461003257610011610036565b604051611bfc6101de8239608051818181611799015261192f0152611bfc90f35b5f80fd5b61003e61007d565b610046610101565b565b61005c9061005f906001600160a01b031682565b90565b6001600160a01b031690565b61005c90610048565b61005c9061006b565b61008630610074565b608052565b61005c9060401c60ff1690565b61005c905461008b565b61005c905b6001600160401b031690565b61005c90546100a2565b61005c906100a7906001600160401b031682565b906100e161005c6100fd926100bd565b82546001600160401b0319166001600160401b03919091161790565b9055565b5f61010a610197565b0161011481610098565b61018657610121816100b3565b6001600160401b0391908290811603610138575050565b816101677fc7f505b2f371ae2175ee4913f4499e1f2633a7b5936321eed1cdaeb6115181d293610181936100d1565b604051918291826001600160401b03909116815260200190565b0390a1565b63f92ee8a960e01b5f908152600490fd5b61005c6101d5565b61005c61005c61005c9290565b61005c7ff0c57e16840df040f15088dc2f81fe391c3923bec73e23a9662efc9c229c6a0061019f565b61005c6101ac56fe60806040526004361015610011575f80fd5b5f3560e01c806301ffc9a7146101d0578063066a1714146101cb57806309cb40e5146101c65780630ab176b7146101c157806321e46e07146101bc578063248a9ca3146101b75780632f2ff15d146101b257806330df983e146101ad57806333b8f451146101a857806336568abe146101a357806339ce2d501461019e578063485cc955146101995780634f1ef2861461019457806352d1902d1461018f578063637d200e1461018a57806367a4cf23146101855780636e855e7f14610180578063754635b51461017b57806375b238fc1461017657806391d1485414610171578063a217fddf1461016c578063a2e398fa14610167578063ad3cb1cc14610162578063b49023871461015d578063d547741f14610158578063ea6454cd14610153578063f1c621ee1461014e5763f7a54f89036101d5576109df565b6109b1565b61093f565b61091b565b610900565b6108ce565b61081d565b6107b6565b610789565b610763565b610748565b61071c565b610704565b6106d5565b6106af565b61069b565b61058b565b610556565b61053d565b610521565b610484565b610466565b61044b565b610410565b610381565b6102ec565b6102a5565b610216565b5f80fd5b6001600160e01b031981165b036101d557565b905035906101f9826101d9565b565b906020828203126101d55761020f916101ec565b90565b9052565b346101d55761024361023161022c3660046101fb565b6109fa565b60405191829182901515815260200190565b0390f35b806101e5565b905035906101f982610247565b6001600160a01b031690565b6001600160a01b0381166101e5565b905035906101f982610266565b91906040838203126101d55761020f90602061029e828661024d565b9401610275565b346101d5576102436102316102bb366004610282565b90610a47565b5f9103126101d557565b61020f916008021c81565b9061020f91546102cb565b61020f5f60026102d6565b346101d5576102fc3660046102c1565b6102436103076102e1565b6040519182918290815260200190565b0190565b9061033b61033461032a845190565b8084529260200190565b9260200190565b905f5b81811061034b5750505090565b9091926103686103616001928651815260200190565b9460200190565b92910161033e565b602080825261020f9291019061031b565b346101d5576103913660046102c1565b61024361039c610b00565b60405191829182610370565b61020f916008021c6001600160a01b031690565b9061020f91546103a8565b61020f5f806103bc565b61020f9061025a906001600160a01b031682565b61020f906103d1565b61020f906103e5565b610212906103ee565b6020810192916101f991906103f7565b346101d5576104203660046102c1565b61024361042b6103c7565b60405191829182610400565b906020828203126101d55761020f9161024d565b346101d557610243610307610461366004610437565b610b10565b346101d55761047f610479366004610282565b90610b60565b604051005b346101d5576104943660046102c1565b6102437f6fbe1963728bc9789d3917248877fc291038ecc45d913d3dc0deda506072e940610307565b61020f61020f61020f9290565b906104d4906104bd565b5f5260205260405f2090565b906104d4906103ee565b61020f916008021c5b60ff1690565b9061020f91546104ea565b61051c61020f926105175f9360016104ca565b6104e0565b6104f9565b346101d557610243610231610537366004610282565b90610504565b346101d55761047f610550366004610282565b90610b6a565b346101d55761047f610569366004610282565b90610c54565b91906040838203126101d55761020f90602061029e8286610275565b346101d55761047f61059e36600461056f565b90610fb6565b634e487b7160e01b5f52604160045260245ffd5b90601f01601f1916810190811067ffffffffffffffff8211176105da57604052565b6105a4565b906101f96105ec60405190565b92836105b8565b67ffffffffffffffff81116105da57602090601f01601f19160190565b90825f939282370152565b9092919261063061062b826105f3565b6105df565b93818552818301116101d5576101f9916020850190610610565b9080601f830112156101d55781602061020f9335910161061b565b9190916040818403126101d55761067c8382610275565b92602082013567ffffffffffffffff81116101d55761020f920161064a565b61047f6106a9366004610665565b90610fe0565b346101d5576106bf3660046102c1565b61024361030761102d565b61020f5f60036102d6565b346101d5576106e53660046102c1565b6102436103076106ca565b906020828203126101d55761020f91610275565b346101d55761047f6107173660046106f0565b6111bd565b346101d55761047f61072f366004610282565b90611217565b61020f6101006104bd565b61020f610735565b346101d5576107583660046102c1565b610243610307610740565b346101d5576107733660046102c1565b6102435f80516020611bd0833981519152610307565b346101d55761024361023161079f366004610282565b90611221565b61020f5f6104bd565b61020f6107a5565b346101d5576107c63660046102c1565b6102436103076107ae565b919060a0838203126101d5576107e7818461024d565b926107f58260208301610275565b9261020f610806846040850161024d565b936080610816826060870161024d565b940161024d565b346101d55761047f6108303660046107d1565b93929092611644565b9061084661062b836105f3565b918252565b6108556005610839565b640352e302e360dc1b602082015290565b61020f61084b565b61020f610866565b61020f61086e565b90825f9392825e0152565b6108aa6108b36020936103179361089e815190565b80835293849260200190565b9586910161087e565b601f01601f191690565b602080825261020f92910190610889565b346101d5576108de3660046102c1565b6102436108e9610876565b604051918291826108bd565b61020f5f60046102d6565b346101d5576109103660046102c1565b6102436103076108f5565b346101d55761047f61092e366004610282565b9061166c565b61020f5f60066102d6565b346101d55761094f3660046102c1565b610243610307610934565b634e487b7160e01b5f52603260045260245ffd5b805482101561098e576109866001915f5260205f2090565b910201905f90565b61095a565b6005548110156101d5576109ab61020f91600561096e565b906102d6565b346101d5576102436103076109c7366004610437565b610993565b61020f61012c6104bd565b61020f6109cc565b346101d5576109ef3660046102c1565b6102436103076109d7565b637965db0b60e01b6001600160e01b0319821614908115610a19575090565b61020f91506001600160e01b0319166301ffc9a760e01b1490565b61020f906104f3565b61020f9054610a34565b61020f91610517610a6192610a595f90565b5060016104ca565b610a3d565b61020f9081565b61020f9054610a66565b90610a90610a8661032a845490565b925f5260205f2090565b905f5b818110610aa05750505090565b909192610ac4610abd600192610ab587610a6d565b815260200190565b9460010190565b929101610a93565b9061020f91610a77565b906101f9610af092610ae760405190565b93848092610acc565b03836105b8565b61020f90610ad6565b61020f6005610af7565b906104d4565b6001610b3761020f92610b205f90565b505f5f80516020611bb08339815191525b01610b0a565b01610a6d565b906101f991610b53610b4e82610b10565b611676565b90610b5d91611681565b50565b906101f991610b3d565b90610b743361025a565b6001600160a01b03821603610b8c57610b5d9161170b565b63334bd91960e11b5f908152600490fd5b035ffd5b6101f99190610bbc5f80516020611bd0833981519152611676565b610beb565b9060ff905b9181191691161790565b90610be061020f610be792151590565b8254610bc1565b9055565b907f50956c26a14d525f245979026eb45ab789cb6da876522a31427ca989c4e7563c91610c265f610c21846105178560016104ca565b610bd0565b610c4f610c3260405190565b928392839081526001600160a01b03909116602082015260400190565b0390a1565b906101f991610ba1565b61020f9060401c6104f3565b61020f9054610c5e565b61020f905b67ffffffffffffffff1690565b61020f9054610c74565b610c7961020f61020f9290565b9067ffffffffffffffff90610bc6565b610c7961020f61020f9267ffffffffffffffff1690565b90610cd461020f610be792610cad565b8254610c9d565b9068ff00000000000000009060401b610bc6565b90610cff61020f610be792151590565b8254610cdb565b61021290610c90565b6020810192916101f99190610d06565b610d27611776565b908190610d43610d3d610d3984610c6a565b1590565b92610c86565b93610d4d5f610c90565b67ffffffffffffffff86161480610e4a575b600195610d7c610d6e88610c90565b9167ffffffffffffffff1690565b149081610e22575b155b9081610e19575b50610e0857610db69183610dad5f610da489610c90565b97019687610cc4565b610df957610f08565b610dbe575050565b7fc7f505b2f371ae2175ee4913f4499e1f2633a7b5936321eed1cdaeb6115181d291610ded5f610c4f93610cef565b60405191829182610d0f565b610e038686610cef565b610f08565b63f92ee8a960e01b5f908152600490fd5b1590505f610d8d565b9050610d86610e30306103ee565b3b610e41610e3d5f6104bd565b9190565b14919050610d84565b5082610d5f565b61025a61020f61020f9290565b61020f90610e51565b15610e6e57565b60405162461bcd60e51b815260206004820152600d60248201526c24b73b30b634b21030b236b4b760991b6044820152606490fd5b15610eaa57565b60405162461bcd60e51b815260206004820152601060248201526f496e76616c696420726567697374727960801b6044820152606490fd5b906001600160a01b0390610bc6565b90610f0161020f610be7926103ee565b8254610ee2565b6101f991610faa610fb092610f1b611786565b610f5a610f48610f2a5f610e5e565b61025a6001600160a01b0382166001600160a01b0386161415610e67565b6001600160a01b0385165b1415610ea3565b610f6b81610f666107a5565b611681565b50610f83815f80516020611bd0833981519152611681565b507f6fbe1963728bc9789d3917248877fc291038ecc45d913d3dc0deda506072e940611681565b506103ee565b5f610ef1565b906101f991610d1f565b906101f991610fcd61178e565b906101f991610fdb81611831565b61185b565b906101f991610fc0565b61020f90610ff6611919565b611024565b61020f7f360894a13ba1a3210667c828492db98dca3e2076cc3735a920a3ca505d382bbc6104bd565b5061020f610ffb565b61020f5f610fea565b6101f9906110505f80516020611bd0833981519152611676565b6110fc565b1561105c57565b60405162461bcd60e51b815260206004820152600e60248201526d139bdd08184818dbdb9d1c9858dd60921b6044820152606490fd5b3d156110ab576110a13d610839565b903d5f602084013e565b606090565b156110b757565b60405162461bcd60e51b815260206004820152601860248201527f4e6f742061204d65726b6c655269736b526567697374727900000000000000006044820152606490fd5b610c4f7fdd6c58ab26ce39e1659ee0e629507aa0de938208fb38827464b713c0515f576f9161113f61113061025a5f610e5e565b6001600160a01b038316610f53565b611156813b611150610e3d5f6104bd565b11611055565b6111975f8061116460405190565b632eb4a7ab60e01b6020820152600481526111806024826105b8565b602081519101855afa611191611092565b506110b0565b6111a3610fb0826103ee565b604051918291826001600160a01b03909116815260200190565b6101f990611036565b6101f991906111e15f80516020611bd0833981519152611676565b907fc97bba9dc382ce4b27c773f0ae1d3be9822d8a5312d63b7a4fd571d7a875fa7291610c266001610c218461051785846104ca565b906101f9916111c6565b61020f915f611249610a61936112345f90565b50825f80516020611bb0833981519152610b31565b016104e0565b6101f994939291906112807f6fbe1963728bc9789d3917248877fc291038ecc45d913d3dc0deda506072e940611676565b6113a0565b634e487b7160e01b5f52601160045260245ffd5b919082018092116112a657565b611285565b9081526040810192916101f99160200152565b919082039182116112a657565b905f1990610bc6565b906112e461020f610be7926104bd565b82546112cb565b906112e461020f610be79290565b915f1960089290920291821b911b610bc6565b919061131b61020f610be79390565b9083546112f9565b90815491680100000000000000008310156105da578261134b9160016101f99501815561096e565b9061130c565b634e487b7160e01b5f52601260045260245ffd5b811561136f570690565b611351565b5f1981146112a65760010190565b61020f9061025a565b61020f9054611382565b6040513d5f823e3d90fd5b919293906113b9610d39610a61836105178760016104ca565b61161f57506113cb61020f6004610a6d565b8111156115e9576113df61020f6002610a6d565b84106115c6576113fc61020f6113f6610e106104bd565b42611299565b84116115ae5761141561140f6002610a6d565b426112be565b61141d6109cc565b908111611589575061143161020f5f6104bd565b8314611578576114428160046112d4565b61144d4260026112d4565b6114588360036112eb565b600583611463825490565b61146b610735565b908111611569576114929261148c61134b926114876006610a6d565b611365565b9061096e565b6114ae6114a76114a26006610a6d565b611374565b60066112d4565b6114bf6114ba5f61138b565b6103ee565b803b156101d5575f6114d060405190565b634783f0ef60e01b815260048101869052918290602490829084905af18015611564577f26789d5485f8489e0e15f6736d734d9f2b96a31d13d43d7a1c9e7628652402b29361152c9261152892611547575b506104bd565b9390565b9361154261153960405190565b928392836112ab565b0390a3565b61155e905f61155681836105b8565b8101906102c1565b5f611522565b611395565b5061157391611323565b611492565b639dd854d360e01b5f908152600490fd5b610b9d5f9161159b61140f6002610a6d565b63c13f320d60e01b8452600484016112ab565b63079986ef60e31b5f908152610b9d428660046112ab565b5f610b9d856115d56002610a6d565b63079986ef60e31b845290600484016112ab565b610b9d5f9161160b6115fb6004610a6d565b61160560016104bd565b90611299565b63396e9aef60e21b845290600484016112ab565b636627132f60e11b5f90815260048490526001600160a01b039091166024526044035ffd5b906101f99493929161124f565b906101f991611662610b4e82610b10565b90610b5d9161170b565b906101f991611651565b6101f9903390611978565b5f80516020611bb083398151915261169c610d398484611221565b15611704576001610c21845f61124986826116b79701610b0a565b6116d16116cb6116c5339390565b936103ee565b916103ee565b917f2f8788117e7eff1d82e926ec794901d17c78024a50270940304540a733656f0d6116fc60405190565b5f90a4600190565b5050505f90565b5f80516020611bb08339815191526117238383611221565b15611704575f610c218482611249868261173d9701610b0a565b61174b6116cb6116c5339390565b917ff6391f5c32d9c69d2a47ea670b442974b53935d1edc7fd64eb21e047a839171b6116fc60405190565b61020f6119cf565b6101f96119d7565b6101f961177e565b611797306103ee565b7f0000000000000000000000000000000000000000000000000000000000000000906117d46001600160a01b0383165b916001600160a01b031690565b149081156117f5575b506117e457565b63703e46dd60e11b5f908152600490fd5b90506118126117c76118056119f9565b926001600160a01b031690565b14155f6117dd565b506101f95f80516020611bd0833981519152611676565b6101f99061181a565b905051906101f982610247565b906020828203126101d55761020f9161183a565b916118686114ba846103ee565b91602061187460405190565b6352d1902d60e01b815293849060049082905afa5f93816118e8575b506118b357634c9c8ce360e01b5f9081526001600160a01b038516600452602490fd5b9091926118c161020f610ffb565b84036118d2576101f9929350611a0e565b632a87526960e21b5f9081526004859052602490fd5b61190b91945060203d602011611912575b61190381836105b8565b810190611847565b925f611890565b503d6118f9565b611922306103ee565b6119546001600160a01b037f0000000000000000000000000000000000000000000000000000000000000000166117c7565b036117e457565b6001600160a01b0390911681526040810192916101f99160200152565b90611986610d398284611221565b61198e575050565b63e2517d3f60e01b5f90815291610b9d91600461195b565b61020f7ff0c57e16840df040f15088dc2f81fe391c3923bec73e23a9662efc9c229c6a006104bd565b61020f6119a6565b6119e2610d39611a75565b6119e857565b631afcd79f60e31b5f908152600490fd5b61020f5f611a0861020f610ffb565b0161138b565b90611a1882611a87565b611a21826103ee565b7fbc7cd75a20ee27fd9adebab32041f755214dbc6bffa90cc0225b39da2e5c2d3b611a4b60405190565b5f90a28051611a5c610e3d5f6104bd565b1115611a6b57610b5d91611af2565b50506101f9611ad0565b61020f5f611a81611776565b01610c6a565b803b611a95610e3d5f6104bd565b14611ab0576101f9905f611aaa61020f610ffb565b01610ef1565b634c9c8ce360e01b5f9081526001600160a01b039091166004526024035ffd5b611ad95f6104bd565b3411611ae157565b63b398979f60e01b5f908152600490fd5b90611afd9082611b86565b8080611b5d575b15611b1357505061020f611b96565b15611b3857639996b31560e01b5f9081526001600160a01b039091166004526024035ffd5b3d611b45610e3d5f6104bd565b115f036113955763d6bda27560e01b5f908152600490fd5b503d611b6b610e3d5f6104bd565b1180611b045750813b611b80610e3d5f6104bd565b11611b04565b5f918291602082519201905af490565b604051903d82523d5f602084013e3d602001820160405256fe02dd7bc7dec4dceedda775e58dd541e08a116c6c53815c0bd028192f7b626800a49807205ce4d355092ef5a8a18f56e8913cf4a201fbe287825b095693c21775a164736f6c634300081a000a",
  "linkReferences": {},
  "deployedLinkReferences": {}
}