{
  "_format": "hh-sol-artifact-1",
  "contractName": "CompliantSmartWalletBase",
  "sourceName": "contracts/examples/CompliantSmartWalletBase.sol",
  "abi": [
    {
      "inputs": [
        {
          "internalType": "address",
          "name": "_owner",
          "type": "address"
        },
        {
          "internalType": "address",
          "name": "_complianceEngine",
          "type": "address"
        },
        {
          "internalType": "address",
          "name": "_fidesCompliance",
          "type": "address"
        },
        {
          "internalType": "address",
          "name": "_operator",
          "type": "address"
        },
        {
          "internalType": "address",
          "name": "_quarantineVault",
          "type": "address"
        }
      ],
      "stateMutability": "nonpayable",
      "type": "constructor"
    },
    {
      "inputs": [],
      "name": "BatchTooLarge",
      "type": "error"
    },
    {
      "inputs": [],
      "name": "ContractCallFailed",
      "type": "error"
    },
    {
      "inputs": [],
      "name": "DailyEthLimitExceeded",
      "type": "error"
    },
    {
      "inputs": [],
      "name": "DailyTokenLimitExceeded",
      "type": "error"
    },
    {
      "inputs": [],
      "name": "EmptyBatch",
      "type": "error"
    },
    {
      "inputs": [],
      "name": "EthTransferFailed",
      "type": "error"
    },
    {
      "inputs": [
        {
          "internalType": "address",
          "name": "sender",
          "type": "address"
        },
        {
          "internalType": "bytes32",
          "name": "reasonCode",
          "type": "bytes32"
        }
      ],
      "name": "IncomingTransferDenied",
      "type": "error"
    },
    {
      "inputs": [],
      "name": "InsufficientAvailableBalance",
      "type": "error"
    },
    {
      "inputs": [],
      "name": "InvalidAddress",
      "type": "error"
    },
    {
      "inputs": [],
      "name": "NoPendingChange",
      "type": "error"
    },
    {
      "inputs": [],
      "name": "NotOperator",
      "type": "error"
    },
    {
      "inputs": [],
      "name": "QuarantineFailed",
      "type": "error"
    },
    {
      "inputs": [],
      "name": "QuarantineVaultNotSet",
      "type": "error"
    },
    {
      "inputs": [],
      "name": "ReentrancyGuardReentrantCall",
      "type": "error"
    },
    {
      "inputs": [
        {
          "internalType": "address",
          "name": "token",
          "type": "address"
        }
      ],
      "name": "SafeERC20FailedOperation",
      "type": "error"
    },
    {
      "inputs": [],
      "name": "TimelockNotExpired",
      "type": "error"
    },
    {
      "anonymous": false,
      "inputs": [
        {
          "indexed": true,
          "internalType": "address",
          "name": "token",
          "type": "address"
        },
        {
          "indexed": false,
          "internalType": "uint256",
          "name": "amount",
          "type": "uint256"
        },
        {
          "indexed": true,
          "internalType": "bytes32",
          "name": "recordId",
          "type": "bytes32"
        },
        {
          "indexed": false,
          "internalType": "string",
          "name": "reason",
          "type": "string"
        }
      ],
      "name": "AutoQuarantineTriggered",
      "type": "event"
    },
    {
      "anonymous": false,
      "inputs": [
        {
          "indexed": true,
          "internalType": "address",
          "name": "token",
          "type": "address"
        },
        {
          "indexed": false,
          "internalType": "uint256",
          "name": "amount",
          "type": "uint256"
        },
        {
          "indexed": false,
          "internalType": "string",
          "name": "reason",
          "type": "string"
        }
      ],
      "name": "BalanceFrozen",
      "type": "event"
    },
    {
      "anonymous": false,
      "inputs": [
        {
          "indexed": true,
          "internalType": "address",
          "name": "token",
          "type": "address"
        },
        {
          "indexed": false,
          "internalType": "uint256",
          "name": "amount",
          "type": "uint256"
        }
      ],
      "name": "BalanceReleased",
      "type": "event"
    },
    {
      "anonymous": false,
      "inputs": [
        {
          "indexed": false,
          "internalType": "uint256",
          "name": "count",
          "type": "uint256"
        },
        {
          "indexed": false,
          "internalType": "uint256",
          "name": "successCount",
          "type": "uint256"
        },
        {
          "indexed": false,
          "internalType": "uint256",
          "name": "blockedCount",
          "type": "uint256"
        }
      ],
      "name": "BatchExecuted",
      "type": "event"
    },
    {
      "anonymous": false,
      "inputs": [
        {
          "indexed": false,
          "internalType": "bool",
          "name": "success",
          "type": "bool"
        },
        {
          "indexed": false,
          "internalType": "string",
          "name": "reason",
          "type": "string"
        }
      ],
      "name": "BatchHookResult",
      "type": "event"
    },
    {
      "anonymous": false,
      "inputs": [
        {
          "indexed": true,
          "internalType": "address",
          "name": "engine",
          "type": "address"
        }
      ],
      "name": "ComplianceEngineSet",
      "type": "event"
    },
    {
      "anonymous": false,
      "inputs": [
        {
          "indexed": true,
          "internalType": "address",
          "name": "triggeredBy",
          "type": "address"
        }
      ],
      "name": "EmergencyPaused",
      "type": "event"
    },
    {
      "anonymous": false,
      "inputs": [
        {
          "indexed": true,
          "internalType": "address",
          "name": "triggeredBy",
          "type": "address"
        }
      ],
      "name": "EmergencyUnpaused",
      "type": "event"
    },
    {
      "anonymous": false,
      "inputs": [
        {
          "indexed": true,
          "internalType": "address",
          "name": "proposed",
          "type": "address"
        },
        {
          "indexed": false,
          "internalType": "uint256",
          "name": "effectiveTime",
          "type": "uint256"
        }
      ],
      "name": "EngineChangeProposed",
      "type": "event"
    },
    {
      "anonymous": false,
      "inputs": [
        {
          "indexed": true,
          "internalType": "address",
          "name": "vault",
          "type": "address"
        },
        {
          "indexed": false,
          "internalType": "uint256",
          "name": "amount",
          "type": "uint256"
        }
      ],
      "name": "EthQuarantinedToVault",
      "type": "event"
    },
    {
      "anonymous": false,
      "inputs": [
        {
          "indexed": true,
          "internalType": "address",
          "name": "sender",
          "type": "address"
        },
        {
          "indexed": false,
          "internalType": "uint256",
          "name": "amount",
          "type": "uint256"
        },
        {
          "indexed": false,
          "internalType": "string",
          "name": "reason",
          "type": "string"
        }
      ],
      "name": "IncomingTransferIntercepted",
      "type": "event"
    },
    {
      "anonymous": false,
      "inputs": [
        {
          "indexed": true,
          "internalType": "bytes32",
          "name": "opHash",
          "type": "bytes32"
        },
        {
          "indexed": false,
          "internalType": "enum IWalletCompliance.OperationType",
          "name": "opType",
          "type": "uint8"
        },
        {
          "indexed": false,
          "internalType": "address",
          "name": "target",
          "type": "address"
        },
        {
          "indexed": false,
          "internalType": "uint256",
          "name": "value",
          "type": "uint256"
        },
        {
          "indexed": false,
          "internalType": "bool",
          "name": "success",
          "type": "bool"
        }
      ],
      "name": "OperationExecuted",
      "type": "event"
    },
    {
      "anonymous": false,
      "inputs": [
        {
          "indexed": true,
          "internalType": "address",
          "name": "current",
          "type": "address"
        },
        {
          "indexed": true,
          "internalType": "address",
          "name": "pending",
          "type": "address"
        }
      ],
      "name": "OwnerChangeProposed",
      "type": "event"
    },
    {
      "anonymous": false,
      "inputs": [
        {
          "indexed": true,
          "internalType": "address",
          "name": "newOwner",
          "type": "address"
        }
      ],
      "name": "OwnerChanged",
      "type": "event"
    },
    {
      "anonymous": false,
      "inputs": [
        {
          "indexed": true,
          "internalType": "address",
          "name": "vault",
          "type": "address"
        }
      ],
      "name": "QuarantineVaultSet",
      "type": "event"
    },
    {
      "anonymous": false,
      "inputs": [
        {
          "indexed": true,
          "internalType": "address",
          "name": "from",
          "type": "address"
        },
        {
          "indexed": false,
          "internalType": "uint256",
          "name": "amount",
          "type": "uint256"
        }
      ],
      "name": "Received",
      "type": "event"
    },
    {
      "anonymous": false,
      "inputs": [
        {
          "indexed": true,
          "internalType": "address",
          "name": "target",
          "type": "address"
        }
      ],
      "name": "TargetRemovedFromWhitelist",
      "type": "event"
    },
    {
      "anonymous": false,
      "inputs": [
        {
          "indexed": true,
          "internalType": "address",
          "name": "target",
          "type": "address"
        }
      ],
      "name": "TargetWhitelisted",
      "type": "event"
    },
    {
      "stateMutability": "payable",
      "type": "fallback"
    },
    {
      "inputs": [],
      "name": "ENGINE_CHANGE_TIMELOCK",
      "outputs": [
        {
          "internalType": "uint256",
          "name": "",
          "type": "uint256"
        }
      ],
      "stateMutability": "view",
      "type": "function"
    },
    {
      "inputs": [],
      "name": "MAX_BATCH_SIZE",
      "outputs": [
        {
          "internalType": "uint256",
          "name": "",
          "type": "uint256"
        }
      ],
      "stateMutability": "view",
      "type": "function"
    },
    {
      "inputs": [],
      "name": "acceptOwnership",
      "outputs": [],
      "stateMutability": "nonpayable",
      "type": "function"
    },
    {
      "inputs": [],
      "name": "autoQuarantineEnabled",
      "outputs": [
        {
          "internalType": "bool",
          "name": "",
          "type": "bool"
        }
      ],
      "stateMutability": "view",
      "type": "function"
    },
    {
      "inputs": [
        {
          "internalType": "address",
          "name": "",
          "type": "address"
        }
      ],
      "name": "availableBalances",
      "outputs": [
        {
          "internalType": "uint256",
          "name": "",
          "type": "uint256"
        }
      ],
      "stateMutability": "view",
      "type": "function"
    },
    {
      "inputs": [
        {
          "internalType": "address",
          "name": "target",
          "type": "address"
        },
        {
          "internalType": "uint256",
          "name": "value",
          "type": "uint256"
        },
        {
          "internalType": "bytes",
          "name": "data",
          "type": "bytes"
        }
      ],
      "name": "callContract",
      "outputs": [
        {
          "internalType": "bytes",
          "name": "",
          "type": "bytes"
        }
      ],
      "stateMutability": "nonpayable",
      "type": "function"
    },
    {
      "inputs": [],
      "name": "complianceEnabled",
      "outputs": [
        {
          "internalType": "bool",
          "name": "",
          "type": "bool"
        }
      ],
      "stateMutability": "view",
      "type": "function"
    },
    {
      "inputs": [],
      "name": "complianceEngine",
      "outputs": [
        {
          "internalType": "contract IWalletCompliance",
          "name": "",
          "type": "address"
        }
      ],
      "stateMutability": "view",
      "type": "function"
    },
    {
      "inputs": [
        {
          "internalType": "uint256",
          "name": "",
          "type": "uint256"
        }
      ],
      "name": "dailyEthSpent",
      "outputs": [
        {
          "internalType": "uint256",
          "name": "",
          "type": "uint256"
        }
      ],
      "stateMutability": "view",
      "type": "function"
    },
    {
      "inputs": [
        {
          "internalType": "address",
          "name": "",
          "type": "address"
        },
        {
          "internalType": "uint256",
          "name": "",
          "type": "uint256"
        }
      ],
      "name": "dailyTokenSpent",
      "outputs": [
        {
          "internalType": "uint256",
          "name": "",
          "type": "uint256"
        }
      ],
      "stateMutability": "view",
      "type": "function"
    },
    {
      "inputs": [],
      "name": "emergencyPause",
      "outputs": [],
      "stateMutability": "nonpayable",
      "type": "function"
    },
    {
      "inputs": [],
      "name": "emergencyPaused",
      "outputs": [
        {
          "internalType": "bool",
          "name": "",
          "type": "bool"
        }
      ],
      "stateMutability": "view",
      "type": "function"
    },
    {
      "inputs": [],
      "name": "emergencyUnpause",
      "outputs": [],
      "stateMutability": "nonpayable",
      "type": "function"
    },
    {
      "inputs": [
        {
          "components": [
            {
              "internalType": "enum IWalletCompliance.OperationType",
              "name": "opType",
              "type": "uint8"
            },
            {
              "internalType": "address",
              "name": "target",
              "type": "address"
            },
            {
              "internalType": "uint256",
              "name": "value",
              "type": "uint256"
            },
            {
              "internalType": "bytes",
              "name": "data",
              "type": "bytes"
            },
            {
              "internalType": "address",
              "name": "token",
              "type": "address"
            },
            {
              "internalType": "uint256",
              "name": "tokenAmount",
              "type": "uint256"
            },
            {
              "internalType": "uint256",
              "name": "chainId",
              "type": "uint256"
            }
          ],
          "internalType": "struct IWalletCompliance.Operation",
          "name": "op",
          "type": "tuple"
        }
      ],
      "name": "execute",
      "outputs": [
        {
          "internalType": "bytes",
          "name": "",
          "type": "bytes"
        }
      ],
      "stateMutability": "nonpayable",
      "type": "function"
    },
    {
      "inputs": [
        {
          "components": [
            {
              "internalType": "enum IWalletCompliance.OperationType",
              "name": "opType",
              "type": "uint8"
            },
            {
              "internalType": "address",
              "name": "target",
              "type": "address"
            },
            {
              "internalType": "uint256",
              "name": "value",
              "type": "uint256"
            },
            {
              "internalType": "bytes",
              "name": "data",
              "type": "bytes"
            },
            {
              "internalType": "address",
              "name": "token",
              "type": "address"
            },
            {
              "internalType": "uint256",
              "name": "tokenAmount",
              "type": "uint256"
            },
            {
              "internalType": "uint256",
              "name": "chainId",
              "type": "uint256"
            }
          ],
          "internalType": "struct IWalletCompliance.Operation[]",
          "name": "ops",
          "type": "tuple[]"
        }
      ],
      "name": "executeBatch",
      "outputs": [
        {
          "components": [
            {
              "internalType": "bool",
              "name": "success",
              "type": "bool"
            },
            {
              "internalType": "bytes",
              "name": "returnData",
              "type": "bytes"
            },
            {
              "internalType": "enum IAssetCompliance.Decision",
              "name": "decision",
              "type": "uint8"
            },
            {
              "internalType": "string",
              "name": "reason",
              "type": "string"
            }
          ],
          "internalType": "struct CompliantSmartWalletBase.OperationResult[]",
          "name": "results",
          "type": "tuple[]"
        }
      ],
      "stateMutability": "nonpayable",
      "type": "function"
    },
    {
      "inputs": [],
      "name": "executeEngineChange",
      "outputs": [],
      "stateMutability": "nonpayable",
      "type": "function"
    },
    {
      "inputs": [],
      "name": "fidesCompliance",
      "outputs": [
        {
          "internalType": "contract IFidesCompliance",
          "name": "",
          "type": "address"
        }
      ],
      "stateMutability": "view",
      "type": "function"
    },
    {
      "inputs": [
        {
          "internalType": "address",
          "name": "",
          "type": "address"
        }
      ],
      "name": "frozenBalances",
      "outputs": [
        {
          "internalType": "uint256",
          "name": "",
          "type": "uint256"
        }
      ],
      "stateMutability": "view",
      "type": "function"
    },
    {
      "inputs": [
        {
          "internalType": "address",
          "name": "token",
          "type": "address"
        }
      ],
      "name": "getAvailableBalance",
      "outputs": [
        {
          "internalType": "uint256",
          "name": "",
          "type": "uint256"
        }
      ],
      "stateMutability": "view",
      "type": "function"
    },
    {
      "inputs": [],
      "name": "getDailyEthSpent",
      "outputs": [
        {
          "internalType": "uint256",
          "name": "",
          "type": "uint256"
        }
      ],
      "stateMutability": "view",
      "type": "function"
    },
    {
      "inputs": [
        {
          "internalType": "address",
          "name": "token",
          "type": "address"
        }
      ],
      "name": "getDailyTokenSpent",
      "outputs": [
        {
          "internalType": "uint256",
          "name": "",
          "type": "uint256"
        }
      ],
      "stateMutability": "view",
      "type": "function"
    },
    {
      "inputs": [
        {
          "internalType": "address",
          "name": "token",
          "type": "address"
        }
      ],
      "name": "getFrozenBalance",
      "outputs": [
        {
          "internalType": "uint256",
          "name": "",
          "type": "uint256"
        }
      ],
      "stateMutability": "view",
      "type": "function"
    },
    {
      "inputs": [],
      "name": "operationNonce",
      "outputs": [
        {
          "internalType": "uint256",
          "name": "",
          "type": "uint256"
        }
      ],
      "stateMutability": "view",
      "type": "function"
    },
    {
      "inputs": [],
      "name": "operator",
      "outputs": [
        {
          "internalType": "address",
          "name": "",
          "type": "address"
        }
      ],
      "stateMutability": "view",
      "type": "function"
    },
    {
      "inputs": [],
      "name": "owner",
      "outputs": [
        {
          "internalType": "address",
          "name": "",
          "type": "address"
        }
      ],
      "stateMutability": "view",
      "type": "function"
    },
    {
      "inputs": [],
      "name": "pendingComplianceEngine",
      "outputs": [
        {
          "internalType": "address",
          "name": "",
          "type": "address"
        }
      ],
      "stateMutability": "view",
      "type": "function"
    },
    {
      "inputs": [],
      "name": "pendingEngineChangeTime",
      "outputs": [
        {
          "internalType": "uint256",
          "name": "",
          "type": "uint256"
        }
      ],
      "stateMutability": "view",
      "type": "function"
    },
    {
      "inputs": [],
      "name": "pendingOwner",
      "outputs": [
        {
          "internalType": "address",
          "name": "",
          "type": "address"
        }
      ],
      "stateMutability": "view",
      "type": "function"
    },
    {
      "inputs": [],
      "name": "policy",
      "outputs": [
        {
          "internalType": "uint256",
          "name": "maxTxValue",
          "type": "uint256"
        },
        {
          "internalType": "uint256",
          "name": "maxTokenTxAmount",
          "type": "uint256"
        },
        {
          "internalType": "uint256",
          "name": "dailyEthLimit",
          "type": "uint256"
        },
        {
          "internalType": "uint256",
          "name": "dailyTokenLimit",
          "type": "uint256"
        },
        {
          "internalType": "bool",
          "name": "blockContractCalls",
          "type": "bool"
        },
        {
          "internalType": "bool",
          "name": "blockUnknownTokens",
          "type": "bool"
        },
        {
          "internalType": "bool",
          "name": "requireWhitelist",
          "type": "bool"
        }
      ],
      "stateMutability": "view",
      "type": "function"
    },
    {
      "inputs": [
        {
          "internalType": "address",
          "name": "newEngine",
          "type": "address"
        }
      ],
      "name": "proposeEngineChange",
      "outputs": [],
      "stateMutability": "nonpayable",
      "type": "function"
    },
    {
      "inputs": [
        {
          "internalType": "address",
          "name": "token",
          "type": "address"
        },
        {
          "internalType": "uint256",
          "name": "amount",
          "type": "uint256"
        },
        {
          "internalType": "string",
          "name": "reason",
          "type": "string"
        }
      ],
      "name": "quarantineAssets",
      "outputs": [
        {
          "internalType": "bytes32",
          "name": "recordId",
          "type": "bytes32"
        }
      ],
      "stateMutability": "nonpayable",
      "type": "function"
    },
    {
      "inputs": [
        {
          "internalType": "address",
          "name": "",
          "type": "address"
        },
        {
          "internalType": "uint256",
          "name": "",
          "type": "uint256"
        }
      ],
      "name": "quarantineRecordIds",
      "outputs": [
        {
          "internalType": "bytes32",
          "name": "",
          "type": "bytes32"
        }
      ],
      "stateMutability": "view",
      "type": "function"
    },
    {
      "inputs": [
        {
          "internalType": "bytes32",
          "name": "",
          "type": "bytes32"
        }
      ],
      "name": "quarantineRecords",
      "outputs": [
        {
          "internalType": "bytes32",
          "name": "recordId",
          "type": "bytes32"
        },
        {
          "internalType": "address",
          "name": "token",
          "type": "address"
        },
        {
          "internalType": "uint256",
          "name": "amount",
          "type": "uint256"
        },
        {
          "internalType": "uint256",
          "name": "timestamp",
          "type": "uint256"
        }
      ],
      "stateMutability": "view",
      "type": "function"
    },
    {
      "inputs": [],
      "name": "quarantineThreshold",
      "outputs": [
        {
          "internalType": "uint256",
          "name": "",
          "type": "uint256"
        }
      ],
      "stateMutability": "view",
      "type": "function"
    },
    {
      "inputs": [],
      "name": "quarantineVault",
      "outputs": [
        {
          "internalType": "contract QuarantineVault",
          "name": "",
          "type": "address"
        }
      ],
      "stateMutability": "view",
      "type": "function"
    },
    {
      "inputs": [
        {
          "internalType": "address",
          "name": "token",
          "type": "address"
        },
        {
          "internalType": "uint256",
          "name": "amount",
          "type": "uint256"
        },
        {
          "internalType": "bytes32",
          "name": "recordId",
          "type": "bytes32"
        }
      ],
      "name": "releaseQuarantinedAssets",
      "outputs": [],
      "stateMutability": "nonpayable",
      "type": "function"
    },
    {
      "inputs": [
        {
          "internalType": "address",
          "name": "target",
          "type": "address"
        }
      ],
      "name": "removeFromWhitelist",
      "outputs": [],
      "stateMutability": "nonpayable",
      "type": "function"
    },
    {
      "inputs": [
        {
          "internalType": "bool",
          "name": "_enabled",
          "type": "bool"
        }
      ],
      "name": "setAutoQuarantineEnabled",
      "outputs": [],
      "stateMutability": "nonpayable",
      "type": "function"
    },
    {
      "inputs": [
        {
          "internalType": "bool",
          "name": "_enabled",
          "type": "bool"
        }
      ],
      "name": "setComplianceEnabled",
      "outputs": [],
      "stateMutability": "nonpayable",
      "type": "function"
    },
    {
      "inputs": [
        {
          "internalType": "address",
          "name": "_operator",
          "type": "address"
        }
      ],
      "name": "setOperator",
      "outputs": [],
      "stateMutability": "nonpayable",
      "type": "function"
    },
    {
      "inputs": [
        {
          "components": [
            {
              "internalType": "uint256",
              "name": "maxTxValue",
              "type": "uint256"
            },
            {
              "internalType": "uint256",
              "name": "maxTokenTxAmount",
              "type": "uint256"
            },
            {
              "internalType": "uint256",
              "name": "dailyEthLimit",
              "type": "uint256"
            },
            {
              "internalType": "uint256",
              "name": "dailyTokenLimit",
              "type": "uint256"
            },
            {
              "internalType": "bool",
              "name": "blockContractCalls",
              "type": "bool"
            },
            {
              "internalType": "bool",
              "name": "blockUnknownTokens",
              "type": "bool"
            },
            {
              "internalType": "bool",
              "name": "requireWhitelist",
              "type": "bool"
            },
            {
              "internalType": "address[]",
              "name": "allowedDex",
              "type": "address[]"
            },
            {
              "internalType": "address[]",
              "name": "blockedContracts",
              "type": "address[]"
            },
            {
              "internalType": "bytes32[]",
              "name": "whitelistedContracts",
              "type": "bytes32[]"
            }
          ],
          "internalType": "struct IWalletCompliance.WalletPolicy",
          "name": "_policy",
          "type": "tuple"
        }
      ],
      "name": "setPolicy",
      "outputs": [],
      "stateMutability": "nonpayable",
      "type": "function"
    },
    {
      "inputs": [
        {
          "internalType": "uint256",
          "name": "_threshold",
          "type": "uint256"
        }
      ],
      "name": "setQuarantineThreshold",
      "outputs": [],
      "stateMutability": "nonpayable",
      "type": "function"
    },
    {
      "inputs": [
        {
          "internalType": "address",
          "name": "_vault",
          "type": "address"
        }
      ],
      "name": "setQuarantineVault",
      "outputs": [],
      "stateMutability": "nonpayable",
      "type": "function"
    },
    {
      "inputs": [
        {
          "internalType": "address",
          "name": "to",
          "type": "address"
        },
        {
          "internalType": "uint256",
          "name": "amount",
          "type": "uint256"
        }
      ],
      "name": "transferETH",
      "outputs": [
        {
          "internalType": "bool",
          "name": "",
          "type": "bool"
        }
      ],
      "stateMutability": "nonpayable",
      "type": "function"
    },
    {
      "inputs": [
        {
          "internalType": "address",
          "name": "newOwner",
          "type": "address"
        }
      ],
      "name": "transferOwnership",
      "outputs": [],
      "stateMutability": "nonpayable",
      "type": "function"
    },
    {
      "inputs": [
        {
          "internalType": "address",
          "name": "token",
          "type": "address"
        },
        {
          "internalType": "address",
          "name": "to",
          "type": "address"
        },
        {
          "internalType": "uint256",
          "name": "amount",
          "type": "uint256"
        }
      ],
      "name": "transferToken",
      "outputs": [
        {
          "internalType": "bool",
          "name": "",
          "type": "bool"
        }
      ],
      "stateMutability": "nonpayable",
      "type": "function"
    },
    {
      "inputs": [
        {
          "internalType": "address",
          "name": "target",
          "type": "address"
        }
      ],
      "name": "whitelistTarget",
      "outputs": [],
      "stateMutability": "nonpayable",
      "type": "function"
    },
    {
      "inputs": [
        {
          "internalType": "address",
          "name": "",
          "type": "address"
        }
      ],
      "name": "whitelistedTargets",
      "outputs": [
        {
          "internalType": "bool",
          "name": "",
          "type": "bool"
        }
      ],
      "stateMutability": "view",
      "type": "function"
    },
    {
      "stateMutability": "payable",
      "type": "receive"
    }
  ],
  "bytecode": "0x60806040523461002e5761001d6100146100fb565b93929092610592565b604051614b5c6108188239614b5c90f35b5f80fd5b634e487b7160e01b5f52604160045260245ffd5b90601f01601f191681019081106001600160401b0382111761006757604052565b610032565b9061008061007960405190565b9283610046565b565b6001600160a01b031690565b90565b6001600160a01b0381160361002e57565b9050519061008082610091565b919060a08382031261002e576100c581846100a2565b926100d382602083016100a2565b9261008e6100e484604085016100a2565b9360806100f482606087016100a2565b94016100a2565b6101196153748038038061010e8161006c565b9283398101906100af565b9091929394565b9060ff60a01b9060a01b5b9181191691161790565b9061014561008e61014c92151590565b8254610120565b9055565b9060ff9061012b565b9061016961008e61014c92151590565b8254610150565b905f199061012b565b61008e61008e61008e9290565b9061019661008e61014c92610179565b8254610170565b61008261008e61008e9290565b61008e9061019d565b906001600160a01b039061012b565b61008e90610082906001600160a01b031682565b61008e906101c2565b61008e906101d6565b906101f861008e61014c926101df565b82546101b3565b6001600160401b0381116100675760208091020190565b90610228610223836101ff565b61006c565b918252565b369037565b9061008061024861024284610216565b936101ff565b601f19016020840161022d565b61008e61014061006c565b9061ff009060081b61012b565b9061027d61008e61014c92151590565b8254610260565b9062ff00009060101b61012b565b906102a261008e61014c92151590565b8254610284565b915f1960089290920291821b911b61012b565b91906102cd61008e61014c93610179565b9083546102a9565b610080915f916102bc565b8181106102eb575050565b806102f85f6001936102d5565b016102e0565b91909182821061030d57505050565b6100809291610321905b915f5260205f2090565b91820191016102e0565b906801000000000000000081116100675781610348610080935490565b908281556102fe565b8151916001600160401b0383116100675761038561037b600192610375868661032b565b60200190565b925f5260205f2090565b9204915f5b8381106103975750505050565b60019060206103b061008e86516001600160a01b031690565b940193818401550161038a565b9061008091610351565b91906102cd61008e61014c9390565b610080915f916103c7565b8181106103ec575050565b806103f95f6001936103d6565b016103e1565b91909182821061040e57505050565b610080929161041c90610317565b91820191016103e1565b906801000000000000000081116100675781610443610080935490565b908281556103ff565b8151916001600160401b0383116100675761047061037b6001926103758686610426565b9204915f5b8381106104825750505050565b600190602061049261008e865190565b9401938184015501610475565b906100809161044c565b6007610581610120610080946104c86104c25f83015190565b86610186565b6104df6104d6602083015190565b60018701610186565b6104f66104ed604083015190565b60028701610186565b61050d610504606083015190565b60038701610186565b61054d6004860161052a6105246080850151151590565b82610159565b61054061053a60a0850151151590565b8261026d565b60c0830151151590610292565b61056461055b60e083015190565b600587016103bd565b61057c61057361010083015190565b600687016103bd565b015190565b910161049f565b90610080916104a9565b919293909361059f6107c9565b6105ab60016004610135565b6105b760016013610159565b6105cb683635c9adc5dea000006014610186565b6105d45f6101aa565b6001600160a01b0381166001600160a01b038516146107ae576001600160a01b0381166001600160a01b038716146107ae576001600160a01b0381166001600160a01b038616146107ae576001600160a01b0381166001600160a01b038316146107ae576001600160a01b03166001600160a01b038316146107ae57843b61066261065e5f610179565b9190565b146107ae57833b61067561065e5f610179565b146107ae57813b61068861065e5f610179565b146107ae576106c56106cc946106b96106be6106d3986106b96106b9966106b26106b99a5f6101e8565b60186101e8565b6101df565b60026101e8565b60036101e8565b60046101e8565b6100806106df5f610179565b6107a76106eb82610232565b9161079f6107016106fb83610232565b92610232565b9161079761070d610255565b9561072761072368056bc75e2d63100000610179565b8852565b61074461073d69d3c21bcecceda1000000610179565b6020890152565b610760610759681b1ae4d6e2ef500000610179565b6040890152565b61077e6107776a0422ca8b0a00a425000000610179565b6060890152565b5f60808801525f60a08801525f60c088015260e0870152565b610100850152565b610120830152565b6009610588565b63e6c4247b60e01b5f908152600490fd5b61008e6001610179565b6100806107d46107bf565b5f6107e061008e61080f565b01610186565b61008e7f9b779b17422d0df92223018b32b4d1fa46e071723d6817e2486d003becc55f00610179565b61008e6107e656fe6080604052600436101561001d575b36613d255761001b613c34565b005b5f3560e01c806303d8a8761461031c5780630505c8c9146103175780630ad9e7bf1461031257806313390c041461030d5780631cfda9fa146103085780631deacdf61461030357806322c22741146102fe5780632447213d146102f957806324d78c05146102f457806327c830a9146102ef5780634a4e3bd5146102ea5780634e3f1002146102e557806351858e27146102e0578063570ca735146102db57806361eaaa04146102d6578063698bf6fb146102d15780636c24a76f146102cc5780636ee37dfa146102c757806376aa984e146102c257806379ba5097146102bd5780637b1a4909146102b85780637b95bb03146102b357806383129b9a146102ae5780638ab1d681146102a95780638da5cb5b146102a45780638da952d01461029f57806394fbdbd01461029a5780639cbcd65b146102955780639f2cfaf114610290578063a7f4aaed1461028b578063b3ab15fb14610286578063b66e18cb14610281578063bb0891e61461027c578063c674c87b14610277578063c677945a14610272578063c8f4eb6b1461026d578063cf104ee414610268578063cfdbf25414610263578063d83c82701461025e578063dc3774b314610259578063e04e77f714610254578063e30c39781461024f578063ef7fa1ab1461024a578063f0c4265a14610245578063f2fde38b14610240578063f5537ede1461023b578063f9b231cb146102365763fb9ed2570361000e57610fd3565b610fa7565b610f8b565b610f4a565b610f22565b610da6565b610d80565b610d5d565b610d19565b610cef565b610cc8565b610c9e565b610c83565b610c5d565b610c45565b610c2a565b610c00565b610be8565b610bcd565b610bb2565b610b96565b610b1e565b610acf565b610aa9565b610a87565b610a6b565b610a3b565b610a1f565b6109eb565b6109d0565b610982565b61095c565b610941565b61090d565b6108d1565b6108ae565b610893565b610870565b610843565b6107f5565b6106f8565b6106bb565b610607565b6105b3565b61059b565b61055b565b6104ad565b610398565b6001600160a01b031690565b90565b6001600160a01b0381165b0361034257565b5f80fd5b9050359061035382610330565b565b8061033b565b9050359061035382610355565b90916060828403126103425761032d6103818484610346565b936040610391826020870161035b565b940161035b565b34610342576103b16103ab366004610368565b91611449565b604051005b0390f35b5f91031261034257565b61032d9081565b61032d90546103c4565b61032d905b60ff1690565b61032d90546103d5565b61032d9060081c6103da565b61032d90546103ea565b61032d9060101c6103da565b61032d9054610400565b6009610421816103cb565b9161042e600183016103cb565b9161043b600282016103cb565b91610448600383016103cb565b91610455600482016103e0565b9161032d60046104668185016103f6565b930161040c565b9052565b90815260e08101979695909490939092909160208601526040850152606084015215156080830152151560a082015260c0016103539115159052565b34610342576104bd3660046103ba565b6103b66104c8610416565b936104d897959793919360405190565b97889788610471565b906020828203126103425761032d91610346565b61032d90610321906001600160a01b031682565b61032d906104f5565b61032d90610509565b9061052590610512565b5f5260205260405f2090565b61032d916008021c81565b9061032d9154610531565b5f61055661032d92601561051b565b61053c565b34610342576103b66105766105713660046104e1565b610547565b6040515b9182918290815260200190565b906020828203126103425761032d9161035b565b34610342576103b16105ae366004610587565b6114b1565b34610342576103b16105c63660046104e1565b61156d565b61032d916008021c610321565b9061032d91546105cb565b61032d5f60046105d8565b61046d90610512565b60208101929161035391906105ee565b34610342576106173660046103ba565b6103b66106226105e3565b604051918291826105f7565b90610525565b61032d90610321565b61032d9054610634565b61065290601961062e565b9061065c826103cb565b916106696001820161063d565b9161032d600361067b600285016103cb565b93016103cb565b6106b7610353946106b06060949897956106a0608086019a5f870152565b6001600160a01b03166020850152565b6040830152565b0152565b34610342576103b66106d66106d1366004610587565b610647565b906106e394929460405190565b94859485610682565b61032d600160116105d8565b34610342576107083660046103ba565b6103b66107136106ec565b604051918291826001600160a01b03909116815260200190565b909182601f83011215610342578135916001600160401b03831161034257602001926001830284011161034257565b91606083830312610342576107718284610346565b9261077f836020830161035b565b9260408201356001600160401b0381116103425761079d920161072d565b9091565b90825f9392825e0152565b6107cd6107d66020936107e0936107c1815190565b80835293849260200190565b958691016107a1565b601f01601f191690565b0190565b602080825261032d929101906107ac565b34610342576103b661081461080b36600461075c565b929190916119fa565b604051918291826107e4565b61032d916008021c6103da565b9061032d9154610820565b61032d5f601161082d565b34610342576108533660046103ba565b6103b661085e610838565b60405191829182901515815260200190565b34610342576108803660046103ba565b6103b1611a58565b61032d5f600561053c565b34610342576108a33660046103ba565b6103b6610576610888565b34610342576108be3660046103ba565b6103b1611adf565b61032d5f60186105d8565b34610342576108e13660046103ba565b6103b66107136108c6565b61032d61032d61032d9290565b61032d6202a3006108ec565b61032d6108f9565b346103425761091d3660046103ba565b6103b6610576610905565b90610525906108ec565b5f61055661032d926007610928565b34610342576103b6610576610957366004610587565b610932565b34610342576103b66105766109723660046104e1565b611ae7565b61032d5f601461053c565b34610342576109923660046103ba565b6103b6610576610977565b908160e09103126103425790565b906020828203126103425781356001600160401b0381116103425761032d920161099d565b34610342576103b66108146109e63660046109ab565b611c5a565b34610342576109fb3660046103ba565b6103b1611cc8565b91906040838203126103425761032d9060206103918286610346565b34610342576103b661085e610a35366004610a03565b90611f6d565b3461034257610a4b3660046103ba565b6103b1612060565b61055661032d92610a665f93600861051b565b610928565b34610342576103b6610576610a81366004610a03565b90610a53565b34610342576103b1610a9a3660046104e1565b6120b8565b61032d5f806105d8565b3461034257610ab93660046103ba565b6103b6610713610a9f565b61032d5f601361082d565b3461034257610adf3660046103ba565b6103b661085e610ac4565b90816101409103126103425790565b906020828203126103425781356001600160401b0381116103425761032d9201610aea565b34610342576103b1610b31366004610af9565b612413565b634e487b7160e01b5f52603260045260245ffd5b8054821015610b6a57610b626001915f5260205f2090565b910201905f90565b610b36565b610b7a90601661051b565b80548210156103425761032d91610b9091610b4a565b9061053c565b34610342576103b6610576610bac366004610a03565b90610b6f565b34610342576103b6610576610bc83660046104e1565b61241c565b3461034257610bdd3660046103ba565b6103b6610576612455565b34610342576103b1610bfb3660046104e1565b6124b0565b34610342576103b6610576610c1636600461075c565b92919091612986565b61032d5f601261053c565b3461034257610c3a3660046103ba565b6103b6610576610c1f565b34610342576103b1610c583660046104e1565b612a18565b34610342576103b6610576610c733660046104e1565b612a21565b61032d5f60026105d8565b3461034257610c933660046103ba565b6103b6610622610c78565b34610342576103b1610cb13660046104e1565b612b09565b61032d60326108ec565b61032d610cb6565b3461034257610cd83660046103ba565b6103b6610576610cc0565b61032d6014600461082d565b3461034257610cff3660046103ba565b6103b661085e610ce3565b5f61055661032d92601761051b565b34610342576103b6610576610d2f3660046104e1565b610d0a565b80151561033b565b9050359061035382610d34565b906020828203126103425761032d91610d3c565b34610342576103b1610d70366004610d49565b612b5b565b61032d5f60016105d8565b3461034257610d903660046103ba565b6103b6610713610d75565b61032d5f60036105d8565b3461034257610db63660046103ba565b6103b6610622610d9b565b909182601f83011215610342578135916001600160401b03831161034257602001926020830284011161034257565b906020828203126103425781356001600160401b0381116103425761079d9201610dc1565b634e487b7160e01b5f52602160045260245ffd5b60041115610e3357565b610e15565b9061035382610e29565b61032d90610e38565b61046d90610e42565b80511515825261032d916060610e7960808301602085015184820360208601526107ac565b92610e8c60408201516040850190610e4b565b01519060608184039101526107ac565b9061032d91610e54565b90610ebc610eb2835190565b8083529160200190565b9081610ece6020830284019460200190565b925f915b838310610ee157505050505090565b90919293946020610f04610efd83856001950387528951610e9c565b9760200190565b9301930191939290610ed2565b602080825261032d92910190610ea6565b34610342576103b6610f3e610f38366004610df0565b90613649565b60405191829182610f11565b34610342576103b1610f5d3660046104e1565b6136d5565b90916060828403126103425761032d610f7b8484610346565b9360406103918260208701610346565b34610342576103b661085e610fa1366004610f62565b91613955565b34610342576103b1610fba366004610d49565b61397f565b5f610fce61032d92600661051b565b61082d565b34610342576103b661085e610fe93660046104e1565b610fbf565b15610ff557565b60405162461bcd60e51b81526020600482015260156024820152742737ba1037b832b930ba37b91037b91037bbb732b960591b6044820152606490fd5b0390fd5b906103539291611049610321601861063d565b33148015611060575b61105b90610fee565b611079565b5061105b6110706103215f61063d565b33149050611052565b9061108c9291611087613d34565b6111db565b610353613d63565b634e487b7160e01b5f52604160045260245ffd5b90601f01601f191681019081106001600160401b038211176110c957604052565b611094565b6040513d5f823e3d90fd5b634e487b7160e01b5f52601160045260245ffd5b919082039182116110fa57565b6110d9565b905f19905b9181191691161790565b9061111e61032d611125926108ec565b82546110ff565b9055565b919082018092116110fa57565b915f1960089290920291821b911b611104565b919061115861032d6111259390565b908354611136565b610353915f91611149565b919061115861032d611125936108ec565b610353915f9161116b565b5f60036103539261119a83808301611160565b8260018201556111ad836002830161117c565b0161117c565b634e487b7160e01b5f525f60045260245ffd5b905f036111d65761035390611187565b6111b3565b90916111e65f6108ec565b8314611438576111fa61032d82601961062e565b611203816103cb565b61121661121261032d5f6108ec565b9190565b14611400576112276001820161063d565b6112426001600160a01b0385165b916001600160a01b031690565b036113ca57600261125391016103cb565b8390036113935761126d61126883601561051b565b6103cb565b831161137e57611285611280600461063d565b610512565b803b15610342575f61129660405190565b63c92ee04360e01b815260048101849052918290602490829084905af1928315611379576112806113579361134d937f3cb50900cb5f9de3ef4c3deb4bd3a97154b01e866df20b2c88781e40a6a9dc889661135c575b506113136112fb84601561051b565b61130d89611308836103cb565b6110ed565b9061110e565b61133361132184601761051b565b61130d8961132e836103cb565b611129565b6113475f61134283601961062e565b6111c6565b82613da9565b9261057a60405190565b0390a2565b611373905f61136b81836110a8565b8101906103ba565b5f6112ec565b6110ce565b63528ef59f60e11b5f908152600490fd5b035ffd5b60405162461bcd60e51b815260206004820152600f60248201526e082dadeeadce840dad2e6dac2e8c6d608b1b6044820152606490fd5b60405162461bcd60e51b815260206004820152600e60248201526d0a8ded6cadc40dad2e6dac2e8c6d60931b6044820152606490fd5b60405162461bcd60e51b815260206004820152601060248201526f149958dbdc99081b9bdd08199bdd5b9960821b6044820152606490fd5b63e6c4247b60e01b5f908152600490fd5b906103539291611036565b1561145b57565b60405162461bcd60e51b81526020600482015260096024820152682737ba1037bbb732b960b91b6044820152606490fd5b610353906114a661149f6103215f61063d565b3314611454565b61035390601461110e565b6103539061148c565b610353906114cd61149f6103215f61063d565b611508565b61032161032d61032d9290565b61032d906114d2565b9060ff90611104565b9061150161032d61112592151590565b82546114e8565b6115146103215f6114df565b6001600160a01b038216146114385780611280600161153761153c94600661051b565b6114f1565b7f3d5490c3a5f2e74f927ed836bbeb02e5cf4f5e601f134742ec4c00235710b08261156660405190565b8080611357565b610353906114ba565b9061032d9493929161158d61149f6103215f61063d565b6115d6565b1561159957565b60405162461bcd60e51b8152602060048201526015602482015274456d657267656e6379206d6f64652061637469766560581b6044820152606490fd5b9061032d949392916115f76115f26115ee60116103e0565b1590565b611592565b9061160c94939291611607613d34565b611814565b90610353613d63565b9061035361162260405190565b92836110a8565b61032d60e0611615565b600c1115610e3357565b9061035382611633565b9061046d9061163d565b6001600160401b0381116110c957602090601f01601f19160190565b90825f939282370152565b9092919261168d61168882611651565b611615565b93818552818301116103425761035391602085019061166d565b61032d913691611678565b61032d9060a01c6103da565b61032d90546116b2565b90916107e0908390809361166d565b909161032d926116c8565b906116ef61168883611651565b918252565b3d1561170d576117033d6116e2565b903d5f602084013e565b606090565b5f1981146110fa5760010190565b61032d9061163d565b61046d90611720565b9061032d9060c08061178560e084016117515f8801515f870190611729565b6020878101516001600160a01b03169086015261177360408801516040870152565b606087015185820360608701526107ac565b6080808701516001600160a01b031690850152946117a860a082015160a0860152565b0151910152565b6117dc610353946106b06117d46060959998969960808601908682035f880152611732565b986020850152565b01906001600160a01b03169052565b61180c610353946106b06060949897956106a0608086019a5f870190611729565b019015159052565b5061181e5f6114df565b936001600160a01b0385166001600160a01b038316146114385761184130610512565b908382311061137e575f80611854611629565b926118626001838601611647565b6001600160a01b038616602085015261187c876040860152565b611890611889828a6116a7565b6060860152565b6001600160a01b03891660808501526118a8826108ec565b976118b48960a0870152565b6118bf4660c0870152565b6118c960046116be565b6119e3575b6118d785613f91565b6118e2898b8a614240565b6118f76118ee60405190565b928392836116d7565b039087875af1946119066116f4565b9686156119c75750506119945f80516020614b1083398151915294939261197e6119a99361193460046116be565b6119af575b61194360056103cb565b61195661194f82611712565b600561110e565b61197261196260405190565b94859360208501934691856117af565b908103825203826110a8565b611990611989825190565b9160200190565b2090565b9461199e60405190565b9384936001856117eb565b0390a290565b6119c289826119bd5f61063d565b6143cf565b611939565b6119d29250856142d3565b63024d9cdb60e01b5f908152600490fd5b6119f5856119f08561063d565b613e60565b6118ce565b61032d939291906060611576565b611a1761149f6103215f61063d565b610353611a255f60116114f1565b611a2e33610512565b7ff5cbf596165cc457b2cd92e8d8450827ee314968160a5696402d75766fc52caf61156660405190565b610353611a08565b611a6d610321601861063d565b33148015611a87575b611a7f90610fee565b610353611aa0565b50611a7f611a976103215f61063d565b33149050611a76565b611aac600160116114f1565b611ab533610512565b7fb8fad2fa0ed7a383e747c309ef2c4391d7b65592a48893e57ccc1fab7079145661156660405190565b610353611a60565b61126861032d91611af55f90565b50601761051b565b9061032d91611b1161149f6103215f61063d565b611bf6565b600c111561034257565b9050359061035382611b16565b9080601f830112156103425781602061032d93359101611678565b91909160e08184031261034257611b5f60e0611615565b92611b6a8183611b20565b8452611b798160208401610346565b6020850152611b8b816040840161035b565b604085015260608201356001600160401b0381116103425782611bb58360c093611be49601611b2d565b6060870152611bc78360808301610346565b6080870152611bd98360a0830161035b565b60a08701520161035b565b60c0830152565b61032d903690611b48565b9061032d91611c0560046116be565b15611c2557611c25611c165f61063d565b611c1f84611beb565b90613e60565b9061032d91611c3a6115f26115ee60116103e0565b9061160c91611c47613d34565b61032d91611c559150611beb565b61445c565b61032d906060611afd565b906001600160a01b0390611104565b90611c8461032d61112592610512565b8254611c65565b916001600160a01b0360089290920291821b911b611104565b9190611cb561032d61112593610512565b908354611c8b565b610353915f91611ca4565b611cd5610321600161063d565b3303611d2f57611cee611ce8600161063d565b5f611c74565b611cf95f6001611cbd565b611d056112805f61063d565b7fa2ea9883a321a3e97b8266c2b078bfeec6d50c711ed71f874a90d500ae2eaf3661156660405190565b60405162461bcd60e51b81526020600482015260116024820152702737ba103832b73234b7339037bbb732b960791b6044820152606490fd5b9061032d9291611d7d61149f6103215f61063d565b9061032d9291611d936115f26115ee60116103e0565b9061160c9291611da1613d34565b611db7565b61032d5f6116e2565b61032d611da6565b50611dc15f6114df565b916001600160a01b0383166001600160a01b038316148015611f5c575b61143857611deb836146b6565b611df961126884601761051b565b811161137e57611e07611629565b611e115f82611647565b6001600160a01b0383166020820152611e2b826040830152565b611e3d611e36611daf565b6060830152565b6001600160a01b0384166080820152611e555f6108ec565b611e608160a0840152565b611e6b4660c0840152565b611e7560046116be565b611f4a575b611e8382613f91565b611e8e818685614240565b5f80611e9960405190565b5f9086885af194611ea86116f4565b508515611f2e57505090611f035f80516020614b1083398151915292611ece60046116be565b611f1b575b61197e611ee060056103cb565b91611eed61194f84611712565b611ef630610512565b9261197261196260405190565b926119a985611f1160405190565b9384935f856117eb565b611f2986826119bd5f61063d565b611ed3565b611f399250836142d3565b630db2c7f160e31b5f908152600490fd5b611f57826119f05f61063d565b611e7a565b50611f665f6108ec565b8114611dde565b61032d91905f611d68565b611f8761149f6103215f61063d565b610353611fa5565b61032d9060081c610321565b61032d9054611f8f565b611faf6011611f9b565b611fbe6112356103215f6114df565b1461204f57611fd061032d60126103cb565b421061203e57611fed611fe66112806011611f9b565b6002611c74565b611ffa6112806011611f9b565b7ffb6fb1ffa5ce9f6148489aa41ebd619a443018a4b6305499e686c0c503d9f45361202460405190565b5f90a261203360016011611cbd565b6103535f601261117c565b63621e25c360e01b5f908152600490fd5b63147fde5f60e31b5f908152600490fd5b610353611f78565b6103539061207b61149f6103215f61063d565b61208e906112805f61153783600661051b565b7f09443fc4fa9f38ce51944d7db4f773a5ffb81b85d76c7119b37194b3d831256761156660405190565b61035390612068565b610353906120d461149f6103215f61063d565b612408565b3561032d81610355565b3561032d81610d34565b9061ff009060081b611104565b9061210a61032d61112592151590565b82546120ed565b9062ff00009060101b611104565b9061212f61032d61112592151590565b8254612111565b903590601e19368290030182121561034257018035906001600160401b0382116103425760200191602082023603831361034257565b818110612177575050565b806121845f60019361117c565b0161216c565b91909182821061219957505050565b61035392916121ad905b915f5260205f2090565b918201910161216c565b90600160401b81116110c957816121cf610353935490565b9082815561218a565b3561032d81610330565b906001600160401b0383116110c95761220e61220460019261032d86866121b7565b925f5260205f2090565b9204915f5b8381106122205750505050565b600190602061223161032d866121d8565b9401938184015501612213565b9061035392916121e2565b818110612254575050565b806122615f600193611160565b01612249565b91909182821061227657505050565b6103539291612284906121a3565b9182019101612249565b90600160401b81116110c957816122a6610353935490565b90828155612267565b906001600160401b0383116110c9576122d161220460019261032d868661228e565b9204915f5b8381106122e35750505050565b60019060206122f461032d866120d9565b94019381840155016122d6565b9061035392916122af565b6007906123f56103539361232a6123245f83016120d9565b8461110e565b612342612339602083016120d9565b6001850161110e565b61235a612351604083016120d9565b6002850161110e565b612372612369606083016120d9565b6003850161110e565b6123b56004840161238e612388608085016120e3565b826114f1565b6123a361239d60a085016120e3565b826120fa565b6123af60c084016120e3565b9061211f565b6123cf6123c560e0830183612136565b906005860161223e565b6123ea6123e0610100830183612136565b906006860161223e565b610120810190612136565b92909101612301565b906103539161230c565b6103539060096123fe565b610353906120c1565b61126861032d9161242a5f90565b50601561051b565b634e487b7160e01b5f52601260045260245ffd5b8115612450570490565b612432565b61032d61126861247061246a620151806108ec565b42612446565b6007610928565b6103539061248a61149f6103215f61063d565b6124966103215f6114df565b6001600160a01b0382161461143857610353906018611c74565b61035390612477565b9061032d949392916124ce610321601861063d565b331480156124e5575b6124e090610fee565b6124fe565b506124e06124f56103215f61063d565b331490506124d7565b9061160c9493929161250e613d34565b61266c565b9050519061035382610355565b906020828203126103425761032d91612513565b91906107d68161254b816107e09560209181520190565b809561166d565b90939161032d95936106b061257a926106a060808601985f8701906001600160a01b03169052565b6060818503910152612534565b90815491600160401b8310156110c957826125aa91600161035395018155610b4a565b90611149565b61032d6080611615565b9061111e61032d6111259290565b60036126226060610353946125e66125e05f83015190565b866125ba565b6126066125fd60208301516001600160a01b031690565b60018701611c74565b61261d612614604083015190565b6002870161110e565b015190565b910161110e565b90610353916125c8565b61046d906001600160a01b031660601b90565b01918252565b018092612633565b90815260406020820181905261032d93910191612534565b509392916126795f6108ec565b82146114385761268c611280600461063d565b946126965f6114df565b6001600160a01b0381166001600160a01b03881614612975576001600160a01b0381166001600160a01b0383160361281f576126d260056103cb565b6126de61194f82611712565b6127216126ea60405190565b809261197260208301918988334342876107e094612646601460209998959661264c8b809961264c8289612646889b6126469d9052565b61272c611989825190565b209661273730610512565b319061275260159261274c611268868661051b565b906110ed565b861161137e575f8061278e9261277861276b878761051b565b61130d8b61132e836103cb565b6040515f918a905af16127896116f4565b501590565b612804575050906127ac5f80516020614b3083398151915292610512565b92837f440818643a5a59001e283b5a9a6053b601a98dee66ec003d5f4df415c503ae426127d860405190565b806127e589878784612654565b0390a26127ff87956127f660405190565b93849384612654565b0390a3565b61130d612815611f3993879361051b565b91611308836103cb565b5061283161126882601798949861051b565b831161137e5761284b83879361284684610512565b6147e5565b60208361285b611280600461063d565b835f61286630610512565b61288d8a61287360405190565b9d8e9788968795630898c6a160e31b875260048701612552565b03925af1958615611379575f9661292f575b50906127ac5f80516020614b3083398151915292611280886128c561132184601561051b565b6128d36112fb84601761051b565b6128ea816128e561032d86601661051b565b612587565b61292a6128f56125b0565b916128fe818452565b6001600160a01b0385166020840152612918896040850152565b612923426060850152565b601961062e565b612629565b5f80516020614b30833981519152929196506129656127ac9160203d60201161296e575b61295d81836110a8565b810190612520565b9691925061289f565b503d612953565b63204c705f60e01b5f908152600490fd5b61032d939291905f6124b9565b610353906129a661149f6103215f61063d565b6129b26103215f6114df565b6001600160a01b0382161461143857803b6129cf6112125f6108ec565b1461143857806112806129e76112806129ee94610512565b6004611c74565b7f20551eeadd52a2ff31f065b249916d4fd7679a9f12efd4216bd408d10e31c77661156660405190565b61035390612993565b611268612a3a61032d92612a325f90565b50600861051b565b612a4961246a620151806108ec565b90610928565b61035390612a6261149f6103215f61063d565b612a91565b90610100600160a81b039060081b611104565b90612a8a61032d61112592610512565b8254612a67565b612a9d6103215f6114df565b6001600160a01b0382161461143857612ab7816011612a7a565b612ad2612acb612ac56108f9565b42611129565b601261110e565b7f66419bd61095a2d5617843af79e609a31d8a9546360a752b5a8db7e973c7827c61135761134d612b0360126103cb565b93610512565b61035390612a4f565b61035390612b2561149f6103215f61063d565b612b50565b9060ff60a01b9060a01b611104565b90612b4961032d61112592151590565b8254612b2a565b610353906004612b39565b61035390612b12565b9061032d9291612b7961149f6103215f61063d565b9061032d9291612b8f6115f26115ee60116103e0565b9061160c9291612b9d613d34565b6130de565b6001600160401b0381116110c95760208091020190565b906116ef61168883612ba2565b612bce6125b0565b905f82526020808080850160608152015f8152016060905250565b61032d612bc6565b5f5b828110612bff57505050565b602090612c0a612be9565b8184015201612bf3565b90610353612c2a612c2484612bb9565b93612ba2565b601f190160208401612bf1565b5061032d906020810190611b20565b5061032d906020810190610346565b5061032d90602081019061035b565b9035601e1936839003018112156103425701602081359101916001600160401b0382116103425736829003831361034257565b9061032d9060c0612d4f612d0e60e08401612cbc612cb58880612c37565b8690611729565b612cdc612ccc6020890189612c46565b6001600160a01b03166020870152565b612cf3612cec6040890189612c55565b6040870152565b612d006060880188612c64565b908683036060880152612534565b94612d2f612d1f6080830183612c46565b6001600160a01b03166080860152565b612d46612d3f60a0830183612c55565b60a0860152565b82810190612c55565b910152565b9061032d91612c97565b903560de193683900301811215610342570190565b818352916020019081612d896020830284019490565b92835f925b848410612d9e5750505050505090565b9091929394956020612dca612dc38385600195038852612dbe8b88612d5e565b612d54565b9860200190565b940194019294939190612d8e565b6001600160a01b0391909116815260406020820181905261032d93910191612d73565b5f9060033d11612e0757565b905060045f803e5f5160e01c90565b5f9060443d106103535760405160043d036004823e8051903d60248301116001600160401b03831117612e7f578181019182516001600160401b038111612e795760043d03830181602086010111612e795761032d9394955060200101906110a8565b50505050565b5050565b612e8d601a6116e2565b7f626174636820686f6f6b20756e6b6e6f776e206661696c757265000000000000602082015290565b61032d612e83565b901515815260406020820181905261032d929101906107ac565b6107e0612ef092602092612eea815190565b94859290565b938491016107a1565b6e03130ba31b410313637b1b5b2b21d1608d1b815261032d9190600f015b90612ed8565b15612f255750565b61103290612f3260405190565b62461bcd60e51b8152918291600483016107e4565b90359060de193682900301821215610342570190565b90821015610b6a57602061032d9202810190612f47565b6004111561034257565b9050519061035382612f74565b90929192612f9b61168882611651565b9381855281830111610342576103539160208501906107a1565b9080601f8301121561034257815161032d92602001612f8b565b91909160408184031261034257612fe68382612f7e565b9260208201516001600160401b0381116103425761032d9201612fb5565b6001600160a01b0390911681529291610353916040906130309060608701908782036020890152612c97565b9401906001600160a01b03169052565b9061046d90610e38565b90613053825190565b811015610b6a576020809102010190565b61306e60106116e2565b6f195e1958dd5d1a5bdb8819985a5b195960821b602082015290565b61032d613064565b6117dc610353946106b06117d46060959998969960808601908682035f880152612c97565b3561032d81611b16565b9081526060810193926103539290916040916106b7906020830152565b50816130e95f6108ec565b8314613638576130fa61032d610cb6565b83116136275761310983612c14565b9361311460046116be565b80613603575b6134c8575b6131285f6108ec565b908190825b868110156134835761315061314b61314683888a612f5d565b611beb565b613f91565b61315a60046116be565b8061345f575b61336c575b61317b61317661314683888a612f5d565b61486b565b9094908515613362576131be5f5b871561335157611e3661319a611daf565b915b6131b56131a76125b0565b8b15158152955b6020870152565b60408501613040565b6131c8838b61304a565b526131d3828a61304a565b508415613340576131e390611712565b9361322a6131fd60406131f7858a8c612f5d565b016120d9565b8861322460a06131f7878c61321e608061321884848a612f5d565b016121d8565b95612f5d565b91614240565b61323460046116be565b61331a575b61324360056103cb565b61324c81611712565b61325790600561110e565b61326283888a612f5d565b9061326c30610512565b9061327660405190565b9283926020840192469061328a9385613092565b90810382520361329a90826110a8565b805190602001206132ac83888a612f5d565b6132b5906130b7565b6132c084898b612f5d565b6020016132cc906121d8565b906132d8858a8c612f5d565b6040016132e4906120d9565b92936132ef60405190565b9384936132fc93856117eb565b035f80516020614b1083398151915291a260010161312d565b61312d565b61333b816133275f61063d565b613335613146868b8d612f5d565b906143cf565b613239565b939261334b90611712565b9261322a565b611e3661335c61308a565b9161319c565b6131be6001613189565b6133bf5f61337d611280600261063d565b6133868261063d565b90613392858a8c612f5d565b61339b30610512565b926133a560405190565b95869485938493637c88e98560e11b855260048501613004565b03915afa8015611379575f915f9161343b575b506133dd6001610e38565b6133e683610e38565b146133f2575050613165565b93613434916134196133159496611e3661340a6125b0565b5f8152936131b56131ae611daf565b613423868c61304a565b5261342e858b61304a565b50611712565b9260010190565b905061345991503d805f833e61345181836110a8565b810190612fcf565b5f6133d2565b5061346d611280600261063d565b61347c6112356103215f6114df565b1415613160565b5095949192507f2403003b183ff811dedab647749b7525f94e39ff05e4a7b4f02743c21b6c162293506134c2906134b960405190565b938493846130c1565b0390a190565b606060016134d9611280600261063d565b6134e25f61063d565b90803b1561034257855f9188613515946134fb60405190565b95869485938493631c8265d760e21b855260048501612dd8565b03915afa90816135ee575b506135e257600161352f612dfb565b6308c379a0146135c0575b6135a7575b61359c6135a2925b7fc0feb3747cdff72b5f95f5e401f842820c7e78b13ceb3aa2764d611023e8395961357160405190565b8061357d848783612ebe565b0390a161032d61358c60405190565b8092611972602083019182612ef9565b90612f1d565b61311f565b50506135a25f61359c6135b8612eb6565b92505061353f565b6135c8612e16565b806135d4575b5061353a565b92505f9150819050806135ce565b61359c6135a292613547565b6135fd905f61136b81836110a8565b5f613520565b50613611611280600261063d565b6136206112356103215f6114df565b141561311a565b6305beb17160e11b5f908152600490fd5b63c2e5347d60e01b5f908152600490fd5b61032d91906060612b64565b6103539061366861149f6103215f61063d565b6136746103215f6114df565b6001600160a01b038216146114385761368e816001611c74565b6136a361369d6112805f61063d565b91610512565b907fc63b9e5336585f530c9d3fcf87d1003c570ffbf3665bd119b9d5ce84461db2456136ce60405190565b80806127ff565b61035390613655565b9061032d9392916136f461149f6103215f61063d565b9061032d93929161370b6115f26115ee60116103e0565b9061160c93929161371a613d34565b61373c565b6001600160a01b0390911681526040810192916103539160200152565b50916137475f6114df565b6001600160a01b0381166001600160a01b03851614908115613939575b508015613928575b61143857613779836146b6565b601792613789611268828661051b565b821161137e5760405163a9059cbb60e01b6020820152906137c1826137b285876024840161371f565b602082018103825203836110a8565b6137c9611629565b916137d5600384611647565b6001600160a01b03851660208401526138036137f05f6108ec565b916137fc836040870152565b6060850152565b6001600160a01b038216608084015261381d8460a0850152565b6138284660c0850152565b61383260046116be565b613916575b61384083613f91565b61385a61384d838861051b565b61130d86611308836103cb565b613865848383614240565b5f8061387060405190565b63a9059cbb60e01b602082015261389e8161388f898b6024840161371f565b602082018103825203826110a8565b60208151910182865af1956138b16116f4565b5086156138f157505050906138d85f80516020614b1083398151915292611ece60046116be565b926119a9856138e660405190565b9384936003856117eb565b6119d2949350613904836139119261051b565b61130d8561132e836103cb565b6142d3565b613923836119f05f61063d565b613837565b506139325f6108ec565b811461376c565b6001600160a01b031690506001600160a01b038316145f613764565b61032d9291905f6136de565b6103539061397461149f6103215f61063d565b6103539060136114f1565b61035390613961565b613990613d34565b61108c6139b5565b9261264660206107e094612646601488612646859b9a8699612633565b6139be33610512565b807f88a5966d370b9919b20f3e2c13ff65706f196a4e32cc2c12bf57088f885258746139e960405190565b348152602090a26139fa60136103e0565b80613c1e575b613a075750565b613a14611280600461063d565b613a1d5f6114df565b916001600160a01b0383166001600160a01b03831614613bb857613a58613a4584601561051b565b61130d613a51826103cb565b3490611129565b613a745f80613a6660405190565b5f9034875af16127896116f4565b613b975790613ae8917f7c9d9deacd381b86bb06128f044436d171b305a3e3635406a945f801b8afa50c613aa760405190565b3481526040602082018190526017908201527f6574682d6465706f7369742d71756172616e74696e65640000000000000000006060820152608090a2610512565b7f191e55d56882ec8ef3fc21b90dbd0d63efa1199625b57ab8ebe93e2f670033c9613b1260405190565b348152602090a2613b4f611212613b2860405190565b613b3d81602081016119724342343385613998565b613b48611989825190565b2092610512565b905f80516020614b30833981519152613b6760405190565b348152604060208201819052600b908201526a195d1a0b59195c1bdcda5d60aa1b606082015280608081016127ff565b611f39613ba584601561051b565b61130d613bb1826103cb565b34906110ed565b9150507f7c9d9deacd381b86bb06128f044436d171b305a3e3635406a945f801b8afa50c613be560405190565b34815260406020820181905260149082015273195d1a0b59195c1bdcda5d0b5b9bcb5d985d5b1d60621b60608201528060808101611357565b50613c2c61032d60146103cb565b341015613a00565b610353613988565b613c44613d34565b613c506103215f61063d565b33141580613d09575b613c9e575f80613c6860405190565b80613c743684836116d7565b039034335af1613c8a613c856116f4565b911590565b613c9657602081519101f35b602081519101fd5b60405162461bcd60e51b815260206004820152603960248201527f46616c6c6261636b2063616c6c73207265737472696374656420746f206f776e60448201527f6572206f722077686974656c69737465642074617267657473000000000000006064820152608490fd5b50613d206115ee613d1b33600661051b565b6103e0565b613c59565b613c3c565b61032d60026108ec565b613d3c614a30565b610353613d47613d2a565b5f613d5361032d614a78565b0161110e565b61032d60016108ec565b610353613d47613d59565b634e487b7160e01b5f52603160045260245ffd5b80548015613da4575f190190613da1613d9b8383610b4a565b90611160565b55565b613d6e565b61032d613db791601661051b565b8054613dc25f6108ec565b81811015612e7957613dd7610b908285610b4a565b8414613de557600101613dc2565b61035393506125aa613e0a610b90613e04613e119561274c60016108ec565b86610b4a565b9184610b4a565b613d82565b6001600160a01b03909116815261032d9160408201916020818403910152611732565b73031b7b6b83634b0b731b290313637b1b5b2b21d160651b815261032d9190601401612f17565b613e6d611280600261063d565b613e7c6112356103215f6114df565b14612e7f57613e8e611280600261063d565b91823b1561034257613ec4925f92613ea560405190565b809581948293613eb963c538fec060e01b90565b845260048401613e16565b03915afa9081613f72575b50610353576001613ede612dfb565b6308c379a014613f34575b613eef57565b60405162461bcd60e51b815260206004820152601760248201527f636f6d706c69616e636520636865636b206661696c65640000000000000000006044820152606490fd5b613f3c612e16565b80613f475750613ee9565b613f6a6110329161032d613f5a60405190565b8092611972602083019182613e39565b604051612f32565b613f81905f61136b81836110a8565b5f613ecf565b61032d905161163d565b60408101805160099190613faa61121261032d856103cb565b116141dd576080830180516001600160a01b0316613fc75f6114df565b90613fda6001600160a01b038316611235565b141580614222575b6141b457613ff561246a620151806108ec565b92613ffe815190565b61400a6112125f6108ec565b1190816141ee575b506141dd5761403b61123561402e84516001600160a01b031690565b926001600160a01b031690565b1415806141c5575b614165575b5050600401614056816103e0565b80614142575b6140e2575b61406a9061040c565b90816140b6575b5061407857565b60405162461bcd60e51b815260206004820152601660248201527515185c99d95d081b9bdd081dda1a5d195b1a5cdd195960521b6044820152606490fd5b6140dc9150613d1b6140d560206115ee9301516001600160a01b031690565b600661051b565b5f614071565b6140ff6115ee613d1b6140d560208601516001600160a01b031690565b156140615760405162461bcd60e51b815260206004820152601660248201527510dbdb9d1c9858dd0818d85b1b1cc8189b1bd8dad95960521b6044820152606490fd5b5061414c82613f87565b61415f614159600161163d565b9161163d565b1461405c565b61126861419692610a6661418361418a94516001600160a01b031690565b600861051b565b60a08401515b90611129565b6141a861121261032d600385016103cb565b116141b4575f80614048565b63136bcee560e01b5f908152600490fd5b5060a08401516141d76112125f6108ec565b11614043565b6327de36f760e21b5f908152600490fd5b6142099150614190614204611268876007610928565b915190565b61421b61121261032d600288016103cb565b115f614012565b5060a085015161423a61121261032d600188016103cb565b11613fe2565b91909161425261246a620151806108ec565b9061425c5f6108ec565b81116142bb575b506142706103215f6114df565b6001600160a01b0384161415806142aa575b61428b57505050565b6142a061130d91610a6661035395600861051b565b9161132e836103cb565b506142b45f6108ec565b8211614282565b6142cd9061130d6142a0846007610928565b5f614263565b9190916142e561246a620151806108ec565b906142ef5f6108ec565b811180614383575b61436b575b506143096103215f6114df565b6001600160a01b03841614158061435a575b8061433f575b61432a57505050565b61281561130d91610a6661035395600861051b565b5061435261126882610a6686600861051b565b821115614321565b506143645f6108ec565b821161431b565b61437d9061130d612815846007610928565b5f6142fc565b50614392611268836007610928565b8111156142f7565b6001600160a01b0390911681529291610353916040906143c69060608701908782036020890152611732565b94019015159052565b90916143de611280600261063d565b6143ed6112356103215f6114df565b14614457576143ff611280600261063d565b803b1561034257614430935f809461441660405190565b96879586948593633dcdee0760e01b85526004850161439a565b03925af19081614442575b5061035357565b614451905f61136b81836110a8565b5f61443b565b505050565b61446581613f91565b6040810190614472825190565b91608082019261449a61448c85516001600160a01b031690565b9160a0850192613224845190565b83516001600160a01b0316936144af5f6114df565b946144c26001600160a01b038716611235565b1415806146a1575b614625575b60208401915f806144e785516001600160a01b031690565b865190606089015191602083519301915af1916145026116f4565b96831561458d57505050906119a95f80516020614b10833981519152939261457a6145766145716145635f61453760056103cb565b61454361194f82611712565b6145508c611ef630610512565b61455b611989825190565b209a01613f87565b95516001600160a01b031690565b955190565b9690565b9561458460405190565b948594856117eb565b6145ac614598875190565b83516001600160a01b031685515b916142d3565b6145c361123561402e84516001600160a01b031690565b141580614610575b6145e05763024d9cdb60e01b5f908152600490fd5b61130d6142a06146026145f4614609955190565b93516001600160a01b031690565b601761051b565b80806119d2565b50815161461f6112125f6108ec565b116145cb565b61463e61463982516001600160a01b031690565b6146b6565b61465561126861460283516001600160a01b031690565b61466361121261032d855190565b1061468f5761468a614673835190565b61130d61281561460285516001600160a01b031690565b6144cf565b906145a66142046145f461137e955190565b5081516146b06112125f6108ec565b116144ca565b6146bf5f6114df565b906001600160a01b0382166001600160a01b0382160361472a57506146e861126882601561051b565b906146f230610512565b828131106147185761470b6103539361471392316110ed565b91601761051b565b61110e565b50610353915061471361470b5f6108ec565b5f9150818061388f61476861473e30610512565b6040516370a0823160e01b6020820152928391602483016001600160a01b03909116815260200190565b602081519101845afa6147796116f4565b90806147ce575b6147ac575b5061479461126882601561051b565b918281106147185761470b61035393614713926110ed565b6147c791925060206147bc825190565b818301019101612520565b905f614785565b5080516147de61121260206108ec565b1015614780565b91906147f66115ee5f848487614a80565b6147ff57505050565b6148176115ee60016148105f6108ec565b8487614a80565b61485e57600161482b926115ee9285614a80565b6148325750565b61138f61483f5f92610512565b635274afe760e01b83526001600160a01b031660048301526024820190565b5f61138f61483f85610512565b906040820190614879825190565b6148856112125f6108ec565b1180614a11575b614a045760808301926148a684516001600160a01b031690565b926148b05f6114df565b936148c36001600160a01b038616611235565b1415806149ec575b61496c575b5f80916148ea61420460208601516001600160a01b031690565b90606085015191602083519301915af1936149036116f4565b938515908161494b575b5080614933575b61491c575050565b61130d6142a06146026145f460a061035396015190565b5060a08201516149456112125f6108ec565b11614914565b905061496461123561402e84516001600160a01b031690565b14155f61490d565b61498061463986516001600160a01b031690565b61499761126861460287516001600160a01b031690565b60a08301906149aa61121261032d845190565b106149dc575f916149d46149bd84935190565b61130d6128156146028b516001600160a01b031690565b9150506148d0565b5050509150505f9061032d611daf565b5060a08201516149fe6112125f6108ec565b116148cb565b9150505f9061032d611daf565b50614a1b30610512565b31614a2a61121261032d855190565b1061488c565b614a38614ae8565b614a3e57565b633ee5aeb560e01b5f908152600490fd5b61032d7f9b779b17422d0df92223018b32b4d1fa46e071723d6817e2486d003becc55f006108ec565b61032d614a4f565b60405163095ea7b360e01b5f9081526001600160a01b039093166004526024939093529293929060209060448180855af19360015f5114851615614ac6575b5050604052565b8492941516614adf575f903b113d151616915f80614abf565b833d5f823e3d90fd5b614afd5f614af761032d614a78565b016103cb565b614b0b61121261032d613d2a565b149056fef3359997818a07db03325cddbb394b5abd5d4be681051dd8f00c2737d81e04d99ccfd64c8c081c4ace661cb3b742a779d03c8c3c8a2ad7625ce5b3c9a575f5a4a164736f6c634300081a000a",
  "linkReferences": {},
  "deployedLinkReferences": {}
}