{
  "_format": "hh-sol-artifact-1",
  "contractName": "CompliantSmartWalletBase",
  "sourceName": "contracts/examples/CompliantSmartWalletBase.sol",
  "abi": [
    {
      "inputs": [
        {
          "internalType": "address",
          "name": "_owner",
          "type": "address"
        },
        {
          "internalType": "address",
          "name": "_complianceEngine",
          "type": "address"
        },
        {
          "internalType": "address",
          "name": "_fidesCompliance",
          "type": "address"
        },
        {
          "internalType": "address",
          "name": "_operator",
          "type": "address"
        },
        {
          "internalType": "address",
          "name": "_quarantineVault",
          "type": "address"
        }
      ],
      "stateMutability": "nonpayable",
      "type": "constructor"
    },
    {
      "inputs": [],
      "name": "BatchTooLarge",
      "type": "error"
    },
    {
      "inputs": [],
      "name": "ContractCallFailed",
      "type": "error"
    },
    {
      "inputs": [],
      "name": "DailyEthLimitExceeded",
      "type": "error"
    },
    {
      "inputs": [],
      "name": "DailyTokenLimitExceeded",
      "type": "error"
    },
    {
      "inputs": [],
      "name": "EmptyBatch",
      "type": "error"
    },
    {
      "inputs": [],
      "name": "EthTransferFailed",
      "type": "error"
    },
    {
      "inputs": [
        {
          "internalType": "address",
          "name": "sender",
          "type": "address"
        },
        {
          "internalType": "bytes32",
          "name": "reasonCode",
          "type": "bytes32"
        }
      ],
      "name": "IncomingTransferDenied",
      "type": "error"
    },
    {
      "inputs": [],
      "name": "InsufficientAvailableBalance",
      "type": "error"
    },
    {
      "inputs": [],
      "name": "InvalidAddress",
      "type": "error"
    },
    {
      "inputs": [],
      "name": "NoPendingChange",
      "type": "error"
    },
    {
      "inputs": [],
      "name": "NotOperator",
      "type": "error"
    },
    {
      "inputs": [],
      "name": "QuarantineFailed",
      "type": "error"
    },
    {
      "inputs": [],
      "name": "QuarantineVaultNotSet",
      "type": "error"
    },
    {
      "inputs": [],
      "name": "ReentrancyGuardReentrantCall",
      "type": "error"
    },
    {
      "inputs": [
        {
          "internalType": "address",
          "name": "token",
          "type": "address"
        }
      ],
      "name": "SafeERC20FailedOperation",
      "type": "error"
    },
    {
      "inputs": [],
      "name": "TimelockNotExpired",
      "type": "error"
    },
    {
      "anonymous": false,
      "inputs": [
        {
          "indexed": true,
          "internalType": "address",
          "name": "token",
          "type": "address"
        },
        {
          "indexed": false,
          "internalType": "uint256",
          "name": "amount",
          "type": "uint256"
        },
        {
          "indexed": true,
          "internalType": "bytes32",
          "name": "recordId",
          "type": "bytes32"
        },
        {
          "indexed": false,
          "internalType": "string",
          "name": "reason",
          "type": "string"
        }
      ],
      "name": "AutoQuarantineTriggered",
      "type": "event"
    },
    {
      "anonymous": false,
      "inputs": [
        {
          "indexed": true,
          "internalType": "address",
          "name": "token",
          "type": "address"
        },
        {
          "indexed": false,
          "internalType": "uint256",
          "name": "amount",
          "type": "uint256"
        },
        {
          "indexed": false,
          "internalType": "string",
          "name": "reason",
          "type": "string"
        }
      ],
      "name": "BalanceFrozen",
      "type": "event"
    },
    {
      "anonymous": false,
      "inputs": [
        {
          "indexed": true,
          "internalType": "address",
          "name": "token",
          "type": "address"
        },
        {
          "indexed": false,
          "internalType": "uint256",
          "name": "amount",
          "type": "uint256"
        }
      ],
      "name": "BalanceReleased",
      "type": "event"
    },
    {
      "anonymous": false,
      "inputs": [
        {
          "indexed": false,
          "internalType": "uint256",
          "name": "count",
          "type": "uint256"
        },
        {
          "indexed": false,
          "internalType": "uint256",
          "name": "successCount",
          "type": "uint256"
        },
        {
          "indexed": false,
          "internalType": "uint256",
          "name": "blockedCount",
          "type": "uint256"
        }
      ],
      "name": "BatchExecuted",
      "type": "event"
    },
    {
      "anonymous": false,
      "inputs": [
        {
          "indexed": false,
          "internalType": "bool",
          "name": "success",
          "type": "bool"
        },
        {
          "indexed": false,
          "internalType": "string",
          "name": "reason",
          "type": "string"
        }
      ],
      "name": "BatchHookResult",
      "type": "event"
    },
    {
      "anonymous": false,
      "inputs": [
        {
          "indexed": true,
          "internalType": "address",
          "name": "engine",
          "type": "address"
        }
      ],
      "name": "ComplianceEngineSet",
      "type": "event"
    },
    {
      "anonymous": false,
      "inputs": [
        {
          "indexed": true,
          "internalType": "address",
          "name": "triggeredBy",
          "type": "address"
        }
      ],
      "name": "EmergencyPaused",
      "type": "event"
    },
    {
      "anonymous": false,
      "inputs": [
        {
          "indexed": true,
          "internalType": "address",
          "name": "triggeredBy",
          "type": "address"
        }
      ],
      "name": "EmergencyUnpaused",
      "type": "event"
    },
    {
      "anonymous": false,
      "inputs": [
        {
          "indexed": true,
          "internalType": "address",
          "name": "proposed",
          "type": "address"
        },
        {
          "indexed": false,
          "internalType": "uint256",
          "name": "effectiveTime",
          "type": "uint256"
        }
      ],
      "name": "EngineChangeProposed",
      "type": "event"
    },
    {
      "anonymous": false,
      "inputs": [
        {
          "indexed": true,
          "internalType": "address",
          "name": "vault",
          "type": "address"
        },
        {
          "indexed": false,
          "internalType": "uint256",
          "name": "amount",
          "type": "uint256"
        }
      ],
      "name": "EthQuarantinedToVault",
      "type": "event"
    },
    {
      "anonymous": false,
      "inputs": [
        {
          "indexed": true,
          "internalType": "address",
          "name": "sender",
          "type": "address"
        },
        {
          "indexed": false,
          "internalType": "uint256",
          "name": "amount",
          "type": "uint256"
        },
        {
          "indexed": false,
          "internalType": "string",
          "name": "reason",
          "type": "string"
        }
      ],
      "name": "IncomingTransferIntercepted",
      "type": "event"
    },
    {
      "anonymous": false,
      "inputs": [
        {
          "indexed": true,
          "internalType": "bytes32",
          "name": "opHash",
          "type": "bytes32"
        },
        {
          "indexed": false,
          "internalType": "enum IWalletCompliance.OperationType",
          "name": "opType",
          "type": "uint8"
        },
        {
          "indexed": false,
          "internalType": "address",
          "name": "target",
          "type": "address"
        },
        {
          "indexed": false,
          "internalType": "uint256",
          "name": "value",
          "type": "uint256"
        },
        {
          "indexed": false,
          "internalType": "bool",
          "name": "success",
          "type": "bool"
        }
      ],
      "name": "OperationExecuted",
      "type": "event"
    },
    {
      "anonymous": false,
      "inputs": [
        {
          "indexed": true,
          "internalType": "address",
          "name": "current",
          "type": "address"
        },
        {
          "indexed": true,
          "internalType": "address",
          "name": "pending",
          "type": "address"
        }
      ],
      "name": "OwnerChangeProposed",
      "type": "event"
    },
    {
      "anonymous": false,
      "inputs": [
        {
          "indexed": true,
          "internalType": "address",
          "name": "newOwner",
          "type": "address"
        }
      ],
      "name": "OwnerChanged",
      "type": "event"
    },
    {
      "anonymous": false,
      "inputs": [
        {
          "indexed": true,
          "internalType": "address",
          "name": "vault",
          "type": "address"
        }
      ],
      "name": "QuarantineVaultSet",
      "type": "event"
    },
    {
      "anonymous": false,
      "inputs": [
        {
          "indexed": true,
          "internalType": "address",
          "name": "from",
          "type": "address"
        },
        {
          "indexed": false,
          "internalType": "uint256",
          "name": "amount",
          "type": "uint256"
        }
      ],
      "name": "Received",
      "type": "event"
    },
    {
      "anonymous": false,
      "inputs": [
        {
          "indexed": true,
          "internalType": "address",
          "name": "target",
          "type": "address"
        }
      ],
      "name": "TargetRemovedFromWhitelist",
      "type": "event"
    },
    {
      "anonymous": false,
      "inputs": [
        {
          "indexed": true,
          "internalType": "address",
          "name": "target",
          "type": "address"
        }
      ],
      "name": "TargetWhitelisted",
      "type": "event"
    },
    {
      "stateMutability": "payable",
      "type": "fallback"
    },
    {
      "inputs": [],
      "name": "ENGINE_CHANGE_TIMELOCK",
      "outputs": [
        {
          "internalType": "uint256",
          "name": "",
          "type": "uint256"
        }
      ],
      "stateMutability": "view",
      "type": "function"
    },
    {
      "inputs": [],
      "name": "MAX_BATCH_SIZE",
      "outputs": [
        {
          "internalType": "uint256",
          "name": "",
          "type": "uint256"
        }
      ],
      "stateMutability": "view",
      "type": "function"
    },
    {
      "inputs": [],
      "name": "acceptOwnership",
      "outputs": [],
      "stateMutability": "nonpayable",
      "type": "function"
    },
    {
      "inputs": [],
      "name": "autoQuarantineEnabled",
      "outputs": [
        {
          "internalType": "bool",
          "name": "",
          "type": "bool"
        }
      ],
      "stateMutability": "view",
      "type": "function"
    },
    {
      "inputs": [
        {
          "internalType": "address",
          "name": "",
          "type": "address"
        }
      ],
      "name": "availableBalances",
      "outputs": [
        {
          "internalType": "uint256",
          "name": "",
          "type": "uint256"
        }
      ],
      "stateMutability": "view",
      "type": "function"
    },
    {
      "inputs": [
        {
          "internalType": "address",
          "name": "target",
          "type": "address"
        },
        {
          "internalType": "uint256",
          "name": "value",
          "type": "uint256"
        },
        {
          "internalType": "bytes",
          "name": "data",
          "type": "bytes"
        }
      ],
      "name": "callContract",
      "outputs": [
        {
          "internalType": "bytes",
          "name": "",
          "type": "bytes"
        }
      ],
      "stateMutability": "nonpayable",
      "type": "function"
    },
    {
      "inputs": [],
      "name": "complianceEnabled",
      "outputs": [
        {
          "internalType": "bool",
          "name": "",
          "type": "bool"
        }
      ],
      "stateMutability": "view",
      "type": "function"
    },
    {
      "inputs": [],
      "name": "complianceEngine",
      "outputs": [
        {
          "internalType": "contract IWalletCompliance",
          "name": "",
          "type": "address"
        }
      ],
      "stateMutability": "view",
      "type": "function"
    },
    {
      "inputs": [
        {
          "internalType": "uint256",
          "name": "",
          "type": "uint256"
        }
      ],
      "name": "dailyEthSpent",
      "outputs": [
        {
          "internalType": "uint256",
          "name": "",
          "type": "uint256"
        }
      ],
      "stateMutability": "view",
      "type": "function"
    },
    {
      "inputs": [
        {
          "internalType": "address",
          "name": "",
          "type": "address"
        },
        {
          "internalType": "uint256",
          "name": "",
          "type": "uint256"
        }
      ],
      "name": "dailyTokenSpent",
      "outputs": [
        {
          "internalType": "uint256",
          "name": "",
          "type": "uint256"
        }
      ],
      "stateMutability": "view",
      "type": "function"
    },
    {
      "inputs": [],
      "name": "emergencyPause",
      "outputs": [],
      "stateMutability": "nonpayable",
      "type": "function"
    },
    {
      "inputs": [],
      "name": "emergencyPaused",
      "outputs": [
        {
          "internalType": "bool",
          "name": "",
          "type": "bool"
        }
      ],
      "stateMutability": "view",
      "type": "function"
    },
    {
      "inputs": [],
      "name": "emergencyUnpause",
      "outputs": [],
      "stateMutability": "nonpayable",
      "type": "function"
    },
    {
      "inputs": [
        {
          "components": [
            {
              "internalType": "enum IWalletCompliance.OperationType",
              "name": "opType",
              "type": "uint8"
            },
            {
              "internalType": "address",
              "name": "target",
              "type": "address"
            },
            {
              "internalType": "uint256",
              "name": "value",
              "type": "uint256"
            },
            {
              "internalType": "bytes",
              "name": "data",
              "type": "bytes"
            },
            {
              "internalType": "address",
              "name": "token",
              "type": "address"
            },
            {
              "internalType": "uint256",
              "name": "tokenAmount",
              "type": "uint256"
            },
            {
              "internalType": "uint256",
              "name": "chainId",
              "type": "uint256"
            }
          ],
          "internalType": "struct IWalletCompliance.Operation",
          "name": "op",
          "type": "tuple"
        }
      ],
      "name": "execute",
      "outputs": [
        {
          "internalType": "bytes",
          "name": "",
          "type": "bytes"
        }
      ],
      "stateMutability": "nonpayable",
      "type": "function"
    },
    {
      "inputs": [
        {
          "components": [
            {
              "internalType": "enum IWalletCompliance.OperationType",
              "name": "opType",
              "type": "uint8"
            },
            {
              "internalType": "address",
              "name": "target",
              "type": "address"
            },
            {
              "internalType": "uint256",
              "name": "value",
              "type": "uint256"
            },
            {
              "internalType": "bytes",
              "name": "data",
              "type": "bytes"
            },
            {
              "internalType": "address",
              "name": "token",
              "type": "address"
            },
            {
              "internalType": "uint256",
              "name": "tokenAmount",
              "type": "uint256"
            },
            {
              "internalType": "uint256",
              "name": "chainId",
              "type": "uint256"
            }
          ],
          "internalType": "struct IWalletCompliance.Operation[]",
          "name": "ops",
          "type": "tuple[]"
        }
      ],
      "name": "executeBatch",
      "outputs": [
        {
          "components": [
            {
              "internalType": "bool",
              "name": "success",
              "type": "bool"
            },
            {
              "internalType": "bytes",
              "name": "returnData",
              "type": "bytes"
            },
            {
              "internalType": "enum IAssetCompliance.Decision",
              "name": "decision",
              "type": "uint8"
            },
            {
              "internalType": "string",
              "name": "reason",
              "type": "string"
            }
          ],
          "internalType": "struct CompliantSmartWalletBase.OperationResult[]",
          "name": "results",
          "type": "tuple[]"
        }
      ],
      "stateMutability": "nonpayable",
      "type": "function"
    },
    {
      "inputs": [],
      "name": "executeEngineChange",
      "outputs": [],
      "stateMutability": "nonpayable",
      "type": "function"
    },
    {
      "inputs": [],
      "name": "fidesCompliance",
      "outputs": [
        {
          "internalType": "contract IFidesCompliance",
          "name": "",
          "type": "address"
        }
      ],
      "stateMutability": "view",
      "type": "function"
    },
    {
      "inputs": [
        {
          "internalType": "address",
          "name": "",
          "type": "address"
        }
      ],
      "name": "frozenBalances",
      "outputs": [
        {
          "internalType": "uint256",
          "name": "",
          "type": "uint256"
        }
      ],
      "stateMutability": "view",
      "type": "function"
    },
    {
      "inputs": [
        {
          "internalType": "address",
          "name": "token",
          "type": "address"
        }
      ],
      "name": "getAvailableBalance",
      "outputs": [
        {
          "internalType": "uint256",
          "name": "",
          "type": "uint256"
        }
      ],
      "stateMutability": "view",
      "type": "function"
    },
    {
      "inputs": [],
      "name": "getDailyEthSpent",
      "outputs": [
        {
          "internalType": "uint256",
          "name": "",
          "type": "uint256"
        }
      ],
      "stateMutability": "view",
      "type": "function"
    },
    {
      "inputs": [
        {
          "internalType": "address",
          "name": "token",
          "type": "address"
        }
      ],
      "name": "getDailyTokenSpent",
      "outputs": [
        {
          "internalType": "uint256",
          "name": "",
          "type": "uint256"
        }
      ],
      "stateMutability": "view",
      "type": "function"
    },
    {
      "inputs": [
        {
          "internalType": "address",
          "name": "token",
          "type": "address"
        }
      ],
      "name": "getFrozenBalance",
      "outputs": [
        {
          "internalType": "uint256",
          "name": "",
          "type": "uint256"
        }
      ],
      "stateMutability": "view",
      "type": "function"
    },
    {
      "inputs": [],
      "name": "operationNonce",
      "outputs": [
        {
          "internalType": "uint256",
          "name": "",
          "type": "uint256"
        }
      ],
      "stateMutability": "view",
      "type": "function"
    },
    {
      "inputs": [],
      "name": "operator",
      "outputs": [
        {
          "internalType": "address",
          "name": "",
          "type": "address"
        }
      ],
      "stateMutability": "view",
      "type": "function"
    },
    {
      "inputs": [],
      "name": "owner",
      "outputs": [
        {
          "internalType": "address",
          "name": "",
          "type": "address"
        }
      ],
      "stateMutability": "view",
      "type": "function"
    },
    {
      "inputs": [],
      "name": "pendingComplianceEngine",
      "outputs": [
        {
          "internalType": "address",
          "name": "",
          "type": "address"
        }
      ],
      "stateMutability": "view",
      "type": "function"
    },
    {
      "inputs": [],
      "name": "pendingEngineChangeTime",
      "outputs": [
        {
          "internalType": "uint256",
          "name": "",
          "type": "uint256"
        }
      ],
      "stateMutability": "view",
      "type": "function"
    },
    {
      "inputs": [],
      "name": "pendingOwner",
      "outputs": [
        {
          "internalType": "address",
          "name": "",
          "type": "address"
        }
      ],
      "stateMutability": "view",
      "type": "function"
    },
    {
      "inputs": [],
      "name": "policy",
      "outputs": [
        {
          "internalType": "uint256",
          "name": "maxTxValue",
          "type": "uint256"
        },
        {
          "internalType": "uint256",
          "name": "maxTokenTxAmount",
          "type": "uint256"
        },
        {
          "internalType": "uint256",
          "name": "dailyEthLimit",
          "type": "uint256"
        },
        {
          "internalType": "uint256",
          "name": "dailyTokenLimit",
          "type": "uint256"
        },
        {
          "internalType": "bool",
          "name": "blockContractCalls",
          "type": "bool"
        },
        {
          "internalType": "bool",
          "name": "blockUnknownTokens",
          "type": "bool"
        },
        {
          "internalType": "bool",
          "name": "requireWhitelist",
          "type": "bool"
        }
      ],
      "stateMutability": "view",
      "type": "function"
    },
    {
      "inputs": [
        {
          "internalType": "address",
          "name": "newEngine",
          "type": "address"
        }
      ],
      "name": "proposeEngineChange",
      "outputs": [],
      "stateMutability": "nonpayable",
      "type": "function"
    },
    {
      "inputs": [
        {
          "internalType": "address",
          "name": "token",
          "type": "address"
        },
        {
          "internalType": "uint256",
          "name": "amount",
          "type": "uint256"
        },
        {
          "internalType": "string",
          "name": "reason",
          "type": "string"
        }
      ],
      "name": "quarantineAssets",
      "outputs": [
        {
          "internalType": "bytes32",
          "name": "recordId",
          "type": "bytes32"
        }
      ],
      "stateMutability": "nonpayable",
      "type": "function"
    },
    {
      "inputs": [
        {
          "internalType": "address",
          "name": "",
          "type": "address"
        },
        {
          "internalType": "uint256",
          "name": "",
          "type": "uint256"
        }
      ],
      "name": "quarantineRecordIds",
      "outputs": [
        {
          "internalType": "bytes32",
          "name": "",
          "type": "bytes32"
        }
      ],
      "stateMutability": "view",
      "type": "function"
    },
    {
      "inputs": [
        {
          "internalType": "bytes32",
          "name": "",
          "type": "bytes32"
        }
      ],
      "name": "quarantineRecords",
      "outputs": [
        {
          "internalType": "bytes32",
          "name": "recordId",
          "type": "bytes32"
        },
        {
          "internalType": "address",
          "name": "token",
          "type": "address"
        },
        {
          "internalType": "uint256",
          "name": "amount",
          "type": "uint256"
        },
        {
          "internalType": "uint256",
          "name": "timestamp",
          "type": "uint256"
        }
      ],
      "stateMutability": "view",
      "type": "function"
    },
    {
      "inputs": [],
      "name": "quarantineThreshold",
      "outputs": [
        {
          "internalType": "uint256",
          "name": "",
          "type": "uint256"
        }
      ],
      "stateMutability": "view",
      "type": "function"
    },
    {
      "inputs": [],
      "name": "quarantineVault",
      "outputs": [
        {
          "internalType": "contract QuarantineVault",
          "name": "",
          "type": "address"
        }
      ],
      "stateMutability": "view",
      "type": "function"
    },
    {
      "inputs": [
        {
          "internalType": "address",
          "name": "token",
          "type": "address"
        },
        {
          "internalType": "uint256",
          "name": "amount",
          "type": "uint256"
        },
        {
          "internalType": "bytes32",
          "name": "recordId",
          "type": "bytes32"
        }
      ],
      "name": "releaseQuarantinedAssets",
      "outputs": [],
      "stateMutability": "nonpayable",
      "type": "function"
    },
    {
      "inputs": [
        {
          "internalType": "address",
          "name": "target",
          "type": "address"
        }
      ],
      "name": "removeFromWhitelist",
      "outputs": [],
      "stateMutability": "nonpayable",
      "type": "function"
    },
    {
      "inputs": [
        {
          "internalType": "uint256",
          "name": "dayKey",
          "type": "uint256"
        }
      ],
      "name": "resetDailyEthSpent",
      "outputs": [],
      "stateMutability": "nonpayable",
      "type": "function"
    },
    {
      "inputs": [
        {
          "internalType": "address",
          "name": "token",
          "type": "address"
        },
        {
          "internalType": "uint256",
          "name": "dayKey",
          "type": "uint256"
        }
      ],
      "name": "resetDailyTokenSpent",
      "outputs": [],
      "stateMutability": "nonpayable",
      "type": "function"
    },
    {
      "inputs": [
        {
          "internalType": "bool",
          "name": "_enabled",
          "type": "bool"
        }
      ],
      "name": "setAutoQuarantineEnabled",
      "outputs": [],
      "stateMutability": "nonpayable",
      "type": "function"
    },
    {
      "inputs": [
        {
          "internalType": "bool",
          "name": "_enabled",
          "type": "bool"
        }
      ],
      "name": "setComplianceEnabled",
      "outputs": [],
      "stateMutability": "nonpayable",
      "type": "function"
    },
    {
      "inputs": [
        {
          "internalType": "address",
          "name": "_operator",
          "type": "address"
        }
      ],
      "name": "setOperator",
      "outputs": [],
      "stateMutability": "nonpayable",
      "type": "function"
    },
    {
      "inputs": [
        {
          "components": [
            {
              "internalType": "uint256",
              "name": "maxTxValue",
              "type": "uint256"
            },
            {
              "internalType": "uint256",
              "name": "maxTokenTxAmount",
              "type": "uint256"
            },
            {
              "internalType": "uint256",
              "name": "dailyEthLimit",
              "type": "uint256"
            },
            {
              "internalType": "uint256",
              "name": "dailyTokenLimit",
              "type": "uint256"
            },
            {
              "internalType": "bool",
              "name": "blockContractCalls",
              "type": "bool"
            },
            {
              "internalType": "bool",
              "name": "blockUnknownTokens",
              "type": "bool"
            },
            {
              "internalType": "bool",
              "name": "requireWhitelist",
              "type": "bool"
            },
            {
              "internalType": "address[]",
              "name": "allowedDex",
              "type": "address[]"
            },
            {
              "internalType": "address[]",
              "name": "blockedContracts",
              "type": "address[]"
            },
            {
              "internalType": "bytes32[]",
              "name": "whitelistedContracts",
              "type": "bytes32[]"
            }
          ],
          "internalType": "struct IWalletCompliance.WalletPolicy",
          "name": "_policy",
          "type": "tuple"
        }
      ],
      "name": "setPolicy",
      "outputs": [],
      "stateMutability": "nonpayable",
      "type": "function"
    },
    {
      "inputs": [
        {
          "internalType": "uint256",
          "name": "_threshold",
          "type": "uint256"
        }
      ],
      "name": "setQuarantineThreshold",
      "outputs": [],
      "stateMutability": "nonpayable",
      "type": "function"
    },
    {
      "inputs": [
        {
          "internalType": "address",
          "name": "_vault",
          "type": "address"
        }
      ],
      "name": "setQuarantineVault",
      "outputs": [],
      "stateMutability": "nonpayable",
      "type": "function"
    },
    {
      "inputs": [
        {
          "internalType": "address",
          "name": "to",
          "type": "address"
        },
        {
          "internalType": "uint256",
          "name": "amount",
          "type": "uint256"
        }
      ],
      "name": "transferETH",
      "outputs": [
        {
          "internalType": "bool",
          "name": "",
          "type": "bool"
        }
      ],
      "stateMutability": "nonpayable",
      "type": "function"
    },
    {
      "inputs": [
        {
          "internalType": "address",
          "name": "newOwner",
          "type": "address"
        }
      ],
      "name": "transferOwnership",
      "outputs": [],
      "stateMutability": "nonpayable",
      "type": "function"
    },
    {
      "inputs": [
        {
          "internalType": "address",
          "name": "token",
          "type": "address"
        },
        {
          "internalType": "address",
          "name": "to",
          "type": "address"
        },
        {
          "internalType": "uint256",
          "name": "amount",
          "type": "uint256"
        }
      ],
      "name": "transferToken",
      "outputs": [
        {
          "internalType": "bool",
          "name": "",
          "type": "bool"
        }
      ],
      "stateMutability": "nonpayable",
      "type": "function"
    },
    {
      "inputs": [
        {
          "internalType": "address",
          "name": "target",
          "type": "address"
        }
      ],
      "name": "whitelistTarget",
      "outputs": [],
      "stateMutability": "nonpayable",
      "type": "function"
    },
    {
      "inputs": [
        {
          "internalType": "address",
          "name": "",
          "type": "address"
        }
      ],
      "name": "whitelistedTargets",
      "outputs": [
        {
          "internalType": "bool",
          "name": "",
          "type": "bool"
        }
      ],
      "stateMutability": "view",
      "type": "function"
    },
    {
      "stateMutability": "payable",
      "type": "receive"
    }
  ],
  "bytecode": "0x60806040523461002e5761001d6100146100fb565b93929092610592565b604051614c276108188239614c2790f35b5f80fd5b634e487b7160e01b5f52604160045260245ffd5b90601f01601f191681019081106001600160401b0382111761006757604052565b610032565b9061008061007960405190565b9283610046565b565b6001600160a01b031690565b90565b6001600160a01b0381160361002e57565b9050519061008082610091565b919060a08382031261002e576100c581846100a2565b926100d382602083016100a2565b9261008e6100e484604085016100a2565b9360806100f482606087016100a2565b94016100a2565b61011961543f8038038061010e8161006c565b9283398101906100af565b9091929394565b9060ff60a01b9060a01b5b9181191691161790565b9061014561008e61014c92151590565b8254610120565b9055565b9060ff9061012b565b9061016961008e61014c92151590565b8254610150565b905f199061012b565b61008e61008e61008e9290565b9061019661008e61014c92610179565b8254610170565b61008261008e61008e9290565b61008e9061019d565b906001600160a01b039061012b565b61008e90610082906001600160a01b031682565b61008e906101c2565b61008e906101d6565b906101f861008e61014c926101df565b82546101b3565b6001600160401b0381116100675760208091020190565b90610228610223836101ff565b61006c565b918252565b369037565b9061008061024861024284610216565b936101ff565b601f19016020840161022d565b61008e61014061006c565b9061ff009060081b61012b565b9061027d61008e61014c92151590565b8254610260565b9062ff00009060101b61012b565b906102a261008e61014c92151590565b8254610284565b915f1960089290920291821b911b61012b565b91906102cd61008e61014c93610179565b9083546102a9565b610080915f916102bc565b8181106102eb575050565b806102f85f6001936102d5565b016102e0565b91909182821061030d57505050565b6100809291610321905b915f5260205f2090565b91820191016102e0565b906801000000000000000081116100675781610348610080935490565b908281556102fe565b8151916001600160401b0383116100675761038561037b600192610375868661032b565b60200190565b925f5260205f2090565b9204915f5b8381106103975750505050565b60019060206103b061008e86516001600160a01b031690565b940193818401550161038a565b9061008091610351565b91906102cd61008e61014c9390565b610080915f916103c7565b8181106103ec575050565b806103f95f6001936103d6565b016103e1565b91909182821061040e57505050565b610080929161041c90610317565b91820191016103e1565b906801000000000000000081116100675781610443610080935490565b908281556103ff565b8151916001600160401b0383116100675761047061037b6001926103758686610426565b9204915f5b8381106104825750505050565b600190602061049261008e865190565b9401938184015501610475565b906100809161044c565b6007610581610120610080946104c86104c25f83015190565b86610186565b6104df6104d6602083015190565b60018701610186565b6104f66104ed604083015190565b60028701610186565b61050d610504606083015190565b60038701610186565b61054d6004860161052a6105246080850151151590565b82610159565b61054061053a60a0850151151590565b8261026d565b60c0830151151590610292565b61056461055b60e083015190565b600587016103bd565b61057c61057361010083015190565b600687016103bd565b015190565b910161049f565b90610080916104a9565b919293909361059f6107c9565b6105ab60016004610135565b6105b760016013610159565b6105cb683635c9adc5dea000006014610186565b6105d45f6101aa565b6001600160a01b0381166001600160a01b038516146107ae576001600160a01b0381166001600160a01b038716146107ae576001600160a01b0381166001600160a01b038616146107ae576001600160a01b0381166001600160a01b038316146107ae576001600160a01b03166001600160a01b038316146107ae57843b61066261065e5f610179565b9190565b146107ae57833b61067561065e5f610179565b146107ae57813b61068861065e5f610179565b146107ae576106c56106cc946106b96106be6106d3986106b96106b9966106b26106b99a5f6101e8565b60186101e8565b6101df565b60026101e8565b60036101e8565b60046101e8565b6100806106df5f610179565b6107a76106eb82610232565b9161079f6107016106fb83610232565b92610232565b9161079761070d610255565b9561072761072368056bc75e2d63100000610179565b8852565b61074461073d69d3c21bcecceda1000000610179565b6020890152565b610760610759681b1ae4d6e2ef500000610179565b6040890152565b61077e6107776a0422ca8b0a00a425000000610179565b6060890152565b5f60808801525f60a08801525f60c088015260e0870152565b610100850152565b610120830152565b6009610588565b63e6c4247b60e01b5f908152600490fd5b61008e6001610179565b6100806107d46107bf565b5f6107e061008e61080f565b01610186565b61008e7f9b779b17422d0df92223018b32b4d1fa46e071723d6817e2486d003becc55f00610179565b61008e6107e656fe6080604052600436101561001d575b36613d9b5761001b613cad565b005b5f3560e01c806303d8a8761461033c5780630505c8c9146103375780630ad9e7bf1461033257806313390c041461032d5780631cfda9fa146103285780631deacdf61461032357806322c227411461031e5780632447213d1461031957806324d78c051461031457806327c830a91461030f5780633af556961461030a5780634a4e3bd5146103055780634e3f10021461030057806351858e27146102fb578063570ca735146102f657806361eaaa04146102f1578063645b99fa146102ec578063698bf6fb146102e75780636c24a76f146102e25780636ee37dfa146102dd57806376aa984e146102d857806379ba5097146102d35780637b1a4909146102ce5780637b95bb03146102c957806383129b9a146102c45780638ab1d681146102bf5780638da5cb5b146102ba5780638da952d0146102b557806394fbdbd0146102b05780639cbcd65b146102ab5780639f2cfaf1146102a6578063a7f4aaed146102a1578063b3ab15fb1461029c578063b66e18cb14610297578063bb0891e614610292578063c674c87b1461028d578063c677945a14610288578063c8f4eb6b14610283578063cf104ee41461027e578063cfdbf25414610279578063d83c827014610274578063dc3774b31461026f578063e04e77f71461026a578063e30c397814610265578063ef7fa1ab14610260578063f0c4265a1461025b578063f2fde38b14610256578063f5537ede14610251578063f9b231cb1461024c5763fb9ed2570361000e57611024565b610ff8565b610fdc565b610f9b565b610f73565b610df7565b610dd1565b610dae565b610d6a565b610d40565b610d19565b610cef565b610cd4565b610cae565b610c96565b610c7b565b610c51565b610c39565b610c1e565b610c03565b610be7565b610b6f565b610b20565b610afa565b610ad8565b610abc565b610a8c565b610a70565b610a58565b610a3d565b6109ef565b6109c9565b6109ae565b61097c565b610945565b610909565b6108e6565b6108cb565b6108a8565b610890565b610863565b610815565b610718565b6106db565b610627565b6105d3565b6105bb565b61057b565b6104cd565b6103b8565b6001600160a01b031690565b90565b6001600160a01b0381165b0361036257565b5f80fd5b9050359061037382610350565b565b8061035b565b9050359061037382610375565b90916060828403126103625761034d6103a18484610366565b9360406103b1826020870161037b565b940161037b565b34610362576103d16103cb366004610388565b9161149a565b604051005b0390f35b5f91031261036257565b61034d9081565b61034d90546103e4565b61034d905b60ff1690565b61034d90546103f5565b61034d9060081c6103fa565b61034d905461040a565b61034d9060101c6103fa565b61034d9054610420565b6009610441816103eb565b9161044e600183016103eb565b9161045b600282016103eb565b91610468600383016103eb565b9161047560048201610400565b9161034d6004610486818501610416565b930161042c565b9052565b90815260e08101979695909490939092909160208601526040850152606084015215156080830152151560a082015260c0016103739115159052565b34610362576104dd3660046103da565b6103d66104e8610436565b936104f897959793919360405190565b97889788610491565b906020828203126103625761034d91610366565b61034d90610341906001600160a01b031682565b61034d90610515565b61034d90610529565b9061054590610532565b5f5260205260405f2090565b61034d916008021c81565b9061034d9154610551565b5f61057661034d92601561053b565b61055c565b34610362576103d6610596610591366004610501565b610567565b6040515b9182918290815260200190565b906020828203126103625761034d9161037b565b34610362576103d16105ce3660046105a7565b611502565b34610362576103d16105e6366004610501565b6115be565b61034d916008021c610341565b9061034d91546105eb565b61034d5f60046105f8565b61048d90610532565b602081019291610373919061060e565b34610362576106373660046103da565b6103d6610642610603565b60405191829182610617565b90610545565b61034d90610341565b61034d9054610654565b61067290601961064e565b9061067c826103eb565b916106896001820161065d565b9161034d600361069b600285016103eb565b93016103eb565b6106d7610373946106d06060949897956106c0608086019a5f870152565b6001600160a01b03166020850152565b6040830152565b0152565b34610362576103d66106f66106f13660046105a7565b610667565b9061070394929460405190565b948594856106a2565b61034d600160116105f8565b34610362576107283660046103da565b6103d661073361070c565b604051918291826001600160a01b03909116815260200190565b909182601f83011215610362578135916001600160401b03831161036257602001926001830284011161036257565b91606083830312610362576107918284610366565b9261079f836020830161037b565b9260408201356001600160401b038111610362576107bd920161074d565b9091565b90825f9392825e0152565b6107ed6107f6602093610800936107e1815190565b80835293849260200190565b958691016107c1565b601f01601f191690565b0190565b602080825261034d929101906107cc565b34610362576103d661083461082b36600461077c565b92919091611a4b565b60405191829182610804565b61034d916008021c6103fa565b9061034d9154610840565b61034d5f601161084d565b34610362576108733660046103da565b6103d661087e610858565b60405191829182901515815260200190565b34610362576103d16108a33660046105a7565b611a89565b34610362576108b83660046103da565b6103d1611ae2565b61034d5f600561055c565b34610362576108db3660046103da565b6103d66105966108c0565b34610362576108f63660046103da565b6103d1611b69565b61034d5f60186105f8565b34610362576109193660046103da565b6103d66107336108fe565b61034d61034d61034d9290565b61034d6202a300610924565b61034d610931565b34610362576109553660046103da565b6103d661059661093d565b91906040838203126103625761034d9060206103b18286610366565b34610362576103d161098f366004610960565b90611ba0565b9061054590610924565b5f61057661034d926007610995565b34610362576103d66105966109c43660046105a7565b61099f565b34610362576103d66105966109df366004610501565b611baa565b61034d5f601461055c565b34610362576109ff3660046103da565b6103d66105966109e4565b908160e09103126103625790565b906020828203126103625781356001600160401b0381116103625761034d9201610a0a565b34610362576103d6610834610a53366004610a18565b611d1d565b3461036257610a683660046103da565b6103d1611d8b565b34610362576103d661087e610a86366004610960565b90612030565b3461036257610a9c3660046103da565b6103d1612123565b61057661034d92610ab75f93600861053b565b610995565b34610362576103d6610596610ad2366004610960565b90610aa4565b34610362576103d1610aeb366004610501565b61217b565b61034d5f806105f8565b3461036257610b0a3660046103da565b6103d6610733610af0565b61034d5f601361084d565b3461036257610b303660046103da565b6103d661087e610b15565b90816101409103126103625790565b906020828203126103625781356001600160401b0381116103625761034d9201610b3b565b34610362576103d1610b82366004610b4a565b6124d6565b634e487b7160e01b5f52603260045260245ffd5b8054821015610bbb57610bb36001915f5260205f2090565b910201905f90565b610b87565b610bcb90601661053b565b80548210156103625761034d91610be191610b9b565b9061055c565b34610362576103d6610596610bfd366004610960565b90610bc0565b34610362576103d6610596610c19366004610501565b6124df565b3461036257610c2e3660046103da565b6103d6610596612518565b34610362576103d1610c4c366004610501565b612573565b34610362576103d6610596610c6736600461077c565b92919091612a49565b61034d5f601261055c565b3461036257610c8b3660046103da565b6103d6610596610c70565b34610362576103d1610ca9366004610501565b612adb565b34610362576103d6610596610cc4366004610501565b612ae4565b61034d5f60026105f8565b3461036257610ce43660046103da565b6103d6610642610cc9565b34610362576103d1610d02366004610501565b612bcc565b61034d6032610924565b61034d610d07565b3461036257610d293660046103da565b6103d6610596610d11565b61034d6014600461084d565b3461036257610d503660046103da565b6103d661087e610d34565b5f61057661034d92601761053b565b34610362576103d6610596610d80366004610501565b610d5b565b80151561035b565b9050359061037382610d85565b906020828203126103625761034d91610d8d565b34610362576103d1610dc1366004610d9a565b612c1e565b61034d5f60016105f8565b3461036257610de13660046103da565b6103d6610733610dc6565b61034d5f60036105f8565b3461036257610e073660046103da565b6103d6610642610dec565b909182601f83011215610362578135916001600160401b03831161036257602001926020830284011161036257565b906020828203126103625781356001600160401b038111610362576107bd9201610e12565b634e487b7160e01b5f52602160045260245ffd5b60041115610e8457565b610e66565b9061037382610e7a565b61034d90610e89565b61048d90610e93565b80511515825261034d916060610eca60808301602085015184820360208601526107cc565b92610edd60408201516040850190610e9c565b01519060608184039101526107cc565b9061034d91610ea5565b90610f0d610f03835190565b8083529160200190565b9081610f1f6020830284019460200190565b925f915b838310610f3257505050505090565b90919293946020610f55610f4e83856001950387528951610eed565b9760200190565b9301930191939290610f23565b602080825261034d92910190610ef7565b34610362576103d6610f8f610f89366004610e41565b9061370c565b60405191829182610f62565b34610362576103d1610fae366004610501565b613798565b90916060828403126103625761034d610fcc8484610366565b9360406103b18260208701610366565b34610362576103d661087e610ff2366004610fb3565b916139ce565b34610362576103d161100b366004610d9a565b6139f8565b5f61101f61034d92600661053b565b61084d565b34610362576103d661087e61103a366004610501565b611010565b1561104657565b60405162461bcd60e51b81526020600482015260156024820152742737ba1037b832b930ba37b91037b91037bbb732b960591b6044820152606490fd5b0390fd5b90610373929161109a610341601861065d565b331480156110b1575b6110ac9061103f565b6110ca565b506110ac6110c16103415f61065d565b331490506110a3565b906110dd92916110d8613daa565b61122c565b610373613dd9565b634e487b7160e01b5f52604160045260245ffd5b90601f01601f191681019081106001600160401b0382111761111a57604052565b6110e5565b6040513d5f823e3d90fd5b634e487b7160e01b5f52601160045260245ffd5b9190820391821161114b57565b61112a565b905f19905b9181191691161790565b9061116f61034d61117692610924565b8254611150565b9055565b9190820180921161114b57565b915f1960089290920291821b911b611155565b91906111a961034d6111769390565b908354611187565b610373915f9161119a565b91906111a961034d61117693610924565b610373915f916111bc565b5f6003610373926111eb838083016111b1565b8260018201556111fe83600283016111cd565b016111cd565b634e487b7160e01b5f525f60045260245ffd5b905f0361122757610373906111d8565b611204565b90916112375f610924565b83146114895761124b61034d82601961064e565b611254816103eb565b61126761126361034d5f610924565b9190565b14611451576112786001820161065d565b6112936001600160a01b0385165b916001600160a01b031690565b0361141b5760026112a491016103eb565b8390036113e4576112be6112b983601561053b565b6103eb565b83116113cf576112d66112d1600461065d565b610532565b803b15610362575f6112e760405190565b63c92ee04360e01b815260048101849052918290602490829084905af19283156113ca576112d16113a89361139e937f3cb50900cb5f9de3ef4c3deb4bd3a97154b01e866df20b2c88781e40a6a9dc88966113ad575b5061136461134c84601561053b565b61135e89611359836103eb565b61113e565b9061115f565b61138461137284601761053b565b61135e8961137f836103eb565b61117a565b6113985f61139383601961064e565b611217565b82613e1f565b9261059a60405190565b0390a2565b6113c4905f6113bc81836110f9565b8101906103da565b5f61133d565b61111f565b63528ef59f60e11b5f908152600490fd5b035ffd5b60405162461bcd60e51b815260206004820152600f60248201526e082dadeeadce840dad2e6dac2e8c6d608b1b6044820152606490fd5b60405162461bcd60e51b815260206004820152600e60248201526d0a8ded6cadc40dad2e6dac2e8c6d60931b6044820152606490fd5b60405162461bcd60e51b815260206004820152601060248201526f149958dbdc99081b9bdd08199bdd5b9960821b6044820152606490fd5b63e6c4247b60e01b5f908152600490fd5b906103739291611087565b156114ac57565b60405162461bcd60e51b81526020600482015260096024820152682737ba1037bbb732b960b91b6044820152606490fd5b610373906114f76114f06103415f61065d565b33146114a5565b61037390601461115f565b610373906114dd565b6103739061151e6114f06103415f61065d565b611559565b61034161034d61034d9290565b61034d90611523565b9060ff90611155565b9061155261034d61117692151590565b8254611539565b6115656103415f611530565b6001600160a01b0382161461148957806112d1600161158861158d94600661053b565b611542565b7f3d5490c3a5f2e74f927ed836bbeb02e5cf4f5e601f134742ec4c00235710b0826115b760405190565b80806113a8565b6103739061150b565b9061034d949392916115de6114f06103415f61065d565b611627565b156115ea57565b60405162461bcd60e51b8152602060048201526015602482015274456d657267656e6379206d6f64652061637469766560581b6044820152606490fd5b9061034d9493929161164861164361163f6011610400565b1590565b6115e3565b9061165d94939291611658613daa565b611865565b90610373613dd9565b9061037361167360405190565b92836110f9565b61034d60e0611666565b600c1115610e8457565b9061037382611684565b9061048d9061168e565b6001600160401b03811161111a57602090601f01601f19160190565b90825f939282370152565b909291926116de6116d9826116a2565b611666565b9381855281830111610362576103739160208501906116be565b61034d9136916116c9565b61034d9060a01c6103fa565b61034d9054611703565b909161080090839080936116be565b909161034d92611719565b906117406116d9836116a2565b918252565b3d1561175e576117543d611733565b903d5f602084013e565b606090565b5f19811461114b5760010190565b61034d9061168e565b61048d90611771565b9061034d9060c0806117d660e084016117a25f8801515f87019061177a565b6020878101516001600160a01b0316908601526117c460408801516040870152565b606087015185820360608701526107cc565b6080808701516001600160a01b031690850152946117f960a082015160a0860152565b0151910152565b61182d610373946106d06118256060959998969960808601908682035f880152611783565b986020850152565b01906001600160a01b03169052565b61185d610373946106d06060949897956106c0608086019a5f87019061177a565b019015159052565b5061186f5f611530565b936001600160a01b0385166001600160a01b038316146114895761189230610532565b90838231106113cf575f806118a561167a565b926118b36001838601611698565b6001600160a01b03861660208501526118cd876040860152565b6118e16118da828a6116f8565b6060860152565b6001600160a01b03891660808501526118f982610924565b976119058960a0870152565b6119104660c0870152565b61191a600461170f565b611a34575b61192885614007565b611933898b8a6142b6565b61194861193f60405190565b92839283611728565b039087875af194611957611745565b968615611a185750506119e55f80516020614bdb8339815191529493926119cf6119fa93611985600461170f565b611a00575b61199460056103eb565b6119a76119a082611763565b600561115f565b6119c36119b360405190565b9485936020850193469185611800565b908103825203826110f9565b6119e16119da825190565b9160200190565b2090565b946119ef60405190565b93849360018561183c565b0390a290565b611a138982611a0e5f61065d565b614445565b61198a565b611a23925085614349565b63024d9cdb60e01b5f908152600490fd5b611a4685611a418561065d565b613ed6565b61191f565b61034d9392919060606115c7565b61037390611a6c6114f06103415f61065d565b61037390611a84611a7c5f610924565b916007610995565b61115f565b61037390611a59565b611aa16114f06103415f61065d565b610373611aaf5f6011611542565b611ab833610532565b7ff5cbf596165cc457b2cd92e8d8450827ee314968160a5696402d75766fc52caf6115b760405190565b610373611a92565b611af7610341601861065d565b33148015611b11575b611b099061103f565b610373611b2a565b50611b09611b216103415f61065d565b33149050611b00565b611b3660016011611542565b611b3f33610532565b7fb8fad2fa0ed7a383e747c309ef2c4391d7b65592a48893e57ccc1fab707914566115b760405190565b610373611aea565b9061037391611b856114f06103415f61065d565b611a8461037392610ab7611b985f610924565b93600861053b565b9061037391611b71565b6112b961034d91611bb85f90565b50601761053b565b9061034d91611bd46114f06103415f61065d565b611cb9565b600c111561036257565b9050359061037382611bd9565b9080601f830112156103625781602061034d933591016116c9565b91909160e08184031261036257611c2260e0611666565b92611c2d8183611be3565b8452611c3c8160208401610366565b6020850152611c4e816040840161037b565b604085015260608201356001600160401b0381116103625782611c788360c093611ca79601611bf0565b6060870152611c8a8360808301610366565b6080870152611c9c8360a0830161037b565b60a08701520161037b565b60c0830152565b61034d903690611c0b565b9061034d91611cc8600461170f565b15611ce857611ce8611cd95f61065d565b611ce284611cae565b90613ed6565b9061034d91611cfd61164361163f6011610400565b9061165d91611d0a613daa565b61034d91611d189150611cae565b6144d2565b61034d906060611bc0565b906001600160a01b0390611155565b90611d4761034d61117692610532565b8254611d28565b916001600160a01b0360089290920291821b911b611155565b9190611d7861034d61117693610532565b908354611d4e565b610373915f91611d67565b611d98610341600161065d565b3303611df257611db1611dab600161065d565b5f611d37565b611dbc5f6001611d80565b611dc86112d15f61065d565b7fa2ea9883a321a3e97b8266c2b078bfeec6d50c711ed71f874a90d500ae2eaf366115b760405190565b60405162461bcd60e51b81526020600482015260116024820152702737ba103832b73234b7339037bbb732b960791b6044820152606490fd5b9061034d9291611e406114f06103415f61065d565b9061034d9291611e5661164361163f6011610400565b9061165d9291611e64613daa565b611e7a565b61034d5f611733565b61034d611e69565b50611e845f611530565b916001600160a01b0383166001600160a01b03831614801561201f575b61148957611eae83614721565b611ebc6112b984601761053b565b81116113cf57611eca61167a565b611ed45f82611698565b6001600160a01b0383166020820152611eee826040830152565b611f00611ef9611e72565b6060830152565b6001600160a01b0384166080820152611f185f610924565b611f238160a0840152565b611f2e4660c0840152565b611f38600461170f565b61200d575b611f4682614007565b611f518186856142b6565b5f80611f5c60405190565b5f9086885af194611f6b611745565b508515611ff157505090611fc65f80516020614bdb83398151915292611f91600461170f565b611fde575b6119cf611fa360056103eb565b91611fb06119a084611763565b611fb930610532565b926119c36119b360405190565b926119fa85611fd460405190565b9384935f8561183c565b611fec8682611a0e5f61065d565b611f96565b611ffc925083614349565b630db2c7f160e31b5f908152600490fd5b61201a82611a415f61065d565b611f3d565b506120295f610924565b8114611ea1565b61034d91905f611e2b565b61204a6114f06103415f61065d565b610373612068565b61034d9060081c610341565b61034d9054612052565b612072601161205e565b6120816112866103415f611530565b146121125761209361034d60126103eb565b4210612101576120b06120a96112d1601161205e565b6002611d37565b6120bd6112d1601161205e565b7ffb6fb1ffa5ce9f6148489aa41ebd619a443018a4b6305499e686c0c503d9f4536120e760405190565b5f90a26120f660016011611d80565b6103735f60126111cd565b63621e25c360e01b5f908152600490fd5b63147fde5f60e31b5f908152600490fd5b61037361203b565b6103739061213e6114f06103415f61065d565b612151906112d15f61158883600661053b565b7f09443fc4fa9f38ce51944d7db4f773a5ffb81b85d76c7119b37194b3d83125676115b760405190565b6103739061212b565b610373906121976114f06103415f61065d565b6124cb565b3561034d81610375565b3561034d81610d85565b9061ff009060081b611155565b906121cd61034d61117692151590565b82546121b0565b9062ff00009060101b611155565b906121f261034d61117692151590565b82546121d4565b903590601e19368290030182121561036257018035906001600160401b0382116103625760200191602082023603831361036257565b81811061223a575050565b806122475f6001936111cd565b0161222f565b91909182821061225c57505050565b6103739291612270905b915f5260205f2090565b918201910161222f565b90600160401b811161111a5781612292610373935490565b9082815561224d565b3561034d81610350565b906001600160401b03831161111a576122d16122c760019261034d868661227a565b925f5260205f2090565b9204915f5b8381106122e35750505050565b60019060206122f461034d8661229b565b94019381840155016122d6565b9061037392916122a5565b818110612317575050565b806123245f6001936111b1565b0161230c565b91909182821061233957505050565b610373929161234790612266565b918201910161230c565b90600160401b811161111a5781612369610373935490565b9082815561232a565b906001600160401b03831161111a576123946122c760019261034d8686612351565b9204915f5b8381106123a65750505050565b60019060206123b761034d8661219c565b9401938184015501612399565b906103739291612372565b6007906124b8610373936123ed6123e75f830161219c565b8461115f565b6124056123fc6020830161219c565b6001850161115f565b61241d6124146040830161219c565b6002850161115f565b61243561242c6060830161219c565b6003850161115f565b6124786004840161245161244b608085016121a6565b82611542565b61246661246060a085016121a6565b826121bd565b61247260c084016121a6565b906121e2565b61249261248860e08301836121f9565b9060058601612301565b6124ad6124a36101008301836121f9565b9060068601612301565b6101208101906121f9565b929091016123c4565b90610373916123cf565b6103739060096124c1565b61037390612184565b6112b961034d916124ed5f90565b50601561053b565b634e487b7160e01b5f52601260045260245ffd5b8115612513570490565b6124f5565b61034d6112b961253361252d62015180610924565b42612509565b6007610995565b6103739061254d6114f06103415f61065d565b6125596103415f611530565b6001600160a01b0382161461148957610373906018611d37565b6103739061253a565b9061034d94939291612591610341601861065d565b331480156125a8575b6125a39061103f565b6125c1565b506125a36125b86103415f61065d565b3314905061259a565b9061165d949392916125d1613daa565b61272f565b9050519061037382610375565b906020828203126103625761034d916125d6565b91906107f68161260e816108009560209181520190565b80956116be565b90939161034d95936106d061263d926106c060808601985f8701906001600160a01b03169052565b60608185039101526125f7565b90815491600160401b83101561111a578261266d91600161037395018155610b9b565b9061119a565b61034d6080611666565b9061116f61034d6111769290565b60036126e56060610373946126a96126a35f83015190565b8661267d565b6126c96126c060208301516001600160a01b031690565b60018701611d37565b6126e06126d7604083015190565b6002870161115f565b015190565b910161115f565b906103739161268b565b61048d906001600160a01b031660601b90565b01918252565b0180926126f6565b90815260406020820181905261034d939101916125f7565b5093929161273c5f610924565b82146114895761274f6112d1600461065d565b946127595f611530565b6001600160a01b0381166001600160a01b03881614612a38576001600160a01b0381166001600160a01b038316036128e25761279560056103eb565b6127a16119a082611763565b6127e46127ad60405190565b80926119c3602083019189883343428761080094612709601460209998959661270f8b809961270f8289612709889b6127099d9052565b6127ef6119da825190565b20966127fa30610532565b319061281560159261280f6112b9868661053b565b9061113e565b86116113cf575f806128519261283b61282e878761053b565b61135e8b61137f836103eb565b6040515f918a905af161284c611745565b501590565b6128c75750509061286f5f80516020614bfb83398151915292610532565b92837f440818643a5a59001e283b5a9a6053b601a98dee66ec003d5f4df415c503ae4261289b60405190565b806128a889878784612717565b0390a26128c287956128b960405190565b93849384612717565b0390a3565b61135e6128d8611ffc93879361053b565b91611359836103eb565b506128f46112b982601798949861053b565b83116113cf5761290e83879361290984610532565b61485a565b60208361291e6112d1600461065d565b835f61292930610532565b6129508a61293660405190565b9d8e9788968795630898c6a160e31b875260048701612615565b03925af19586156113ca575f966129f2575b509061286f5f80516020614bfb833981519152926112d18861298861137284601561053b565b61299661134c84601761053b565b6129ad816129a861034d86601661053b565b61264a565b6129ed6129b8612673565b916129c1818452565b6001600160a01b03851660208401526129db896040850152565b6129e6426060850152565b601961064e565b6126ec565b5f80516020614bfb83398151915292919650612a2861286f9160203d602011612a31575b612a2081836110f9565b8101906125e3565b96919250612962565b503d612a16565b63204c705f60e01b5f908152600490fd5b61034d939291905f61257c565b61037390612a696114f06103415f61065d565b612a756103415f611530565b6001600160a01b0382161461148957803b612a926112635f610924565b1461148957806112d1612aaa6112d1612ab194610532565b6004611d37565b7f20551eeadd52a2ff31f065b249916d4fd7679a9f12efd4216bd408d10e31c7766115b760405190565b61037390612a56565b6112b9612afd61034d92612af55f90565b50600861053b565b612b0c61252d62015180610924565b90610995565b61037390612b256114f06103415f61065d565b612b54565b90610100600160a81b039060081b611155565b90612b4d61034d61117692610532565b8254612b2a565b612b606103415f611530565b6001600160a01b0382161461148957612b7a816011612b3d565b612b95612b8e612b88610931565b4261117a565b601261115f565b7f66419bd61095a2d5617843af79e609a31d8a9546360a752b5a8db7e973c7827c6113a861139e612bc660126103eb565b93610532565b61037390612b12565b61037390612be86114f06103415f61065d565b612c13565b9060ff60a01b9060a01b611155565b90612c0c61034d61117692151590565b8254612bed565b610373906004612bfc565b61037390612bd5565b9061034d9291612c3c6114f06103415f61065d565b9061034d9291612c5261164361163f6011610400565b9061165d9291612c60613daa565b6131a1565b6001600160401b03811161111a5760208091020190565b906117406116d983612c65565b612c91612673565b905f82526020808080850160608152015f8152016060905250565b61034d612c89565b5f5b828110612cc257505050565b602090612ccd612cac565b8184015201612cb6565b90610373612ced612ce784612c7c565b93612c65565b601f190160208401612cb4565b5061034d906020810190611be3565b5061034d906020810190610366565b5061034d90602081019061037b565b9035601e1936839003018112156103625701602081359101916001600160401b0382116103625736829003831361036257565b9061034d9060c0612e12612dd160e08401612d7f612d788880612cfa565b869061177a565b612d9f612d8f6020890189612d09565b6001600160a01b03166020870152565b612db6612daf6040890189612d18565b6040870152565b612dc36060880188612d27565b9086830360608801526125f7565b94612df2612de26080830183612d09565b6001600160a01b03166080860152565b612e09612e0260a0830183612d18565b60a0860152565b82810190612d18565b910152565b9061034d91612d5a565b903560de193683900301811215610362570190565b818352916020019081612e4c6020830284019490565b92835f925b848410612e615750505050505090565b9091929394956020612e8d612e868385600195038852612e818b88612e21565b612e17565b9860200190565b940194019294939190612e51565b6001600160a01b0391909116815260406020820181905261034d93910191612e36565b5f9060033d11612eca57565b905060045f803e5f5160e01c90565b5f9060443d106103735760405160043d036004823e8051903d60248301116001600160401b03831117612f42578181019182516001600160401b038111612f3c5760043d03830181602086010111612f3c5761034d9394955060200101906110f9565b50505050565b5050565b612f50601a611733565b7f626174636820686f6f6b20756e6b6e6f776e206661696c757265000000000000602082015290565b61034d612f46565b901515815260406020820181905261034d929101906107cc565b610800612fb392602092612fad815190565b94859290565b938491016107c1565b6e03130ba31b410313637b1b5b2b21d1608d1b815261034d9190600f015b90612f9b565b15612fe85750565b61108390612ff560405190565b62461bcd60e51b815291829160048301610804565b90359060de193682900301821215610362570190565b90821015610bbb57602061034d920281019061300a565b6004111561036257565b9050519061037382613037565b9092919261305e6116d9826116a2565b9381855281830111610362576103739160208501906107c1565b9080601f8301121561036257815161034d9260200161304e565b919091604081840312610362576130a98382613041565b9260208201516001600160401b0381116103625761034d9201613078565b6001600160a01b0390911681529291610373916040906130f39060608701908782036020890152612d5a565b9401906001600160a01b03169052565b9061048d90610e89565b90613116825190565b811015610bbb576020809102010190565b6131316010611733565b6f195e1958dd5d1a5bdb8819985a5b195960821b602082015290565b61034d613127565b61182d610373946106d06118256060959998969960808601908682035f880152612d5a565b3561034d81611bd9565b9081526060810193926103739290916040916106d7906020830152565b50816131ac5f610924565b83146136fb576131bd61034d610d07565b83116136ea576131cc83612cd7565b936131d7600461170f565b806136c6575b61358b575b6131eb5f610924565b908190825b868110156135465761321361320e61320983888a613020565b611cae565b614007565b61321d600461170f565b80613522575b61342f575b61323e61323961320983888a613020565b6148e0565b9094908515613425576132815f5b871561341457611ef961325d611e72565b915b61327861326a612673565b8b15158152955b6020870152565b60408501613103565b61328b838b61310d565b52613296828a61310d565b508415613403576132a690611763565b936132ed6132c060406132ba858a8c613020565b0161219c565b886132e760a06132ba878c6132e160806132db84848a613020565b0161229b565b95613020565b916142b6565b6132f7600461170f565b6133dd575b61330660056103eb565b61330f81611763565b61331a90600561115f565b61332583888a613020565b9061332f30610532565b9061333960405190565b9283926020840192469061334d9385613155565b90810382520361335d90826110f9565b8051906020012061336f83888a613020565b6133789061317a565b61338384898b613020565b60200161338f9061229b565b9061339b858a8c613020565b6040016133a79061219c565b92936133b260405190565b9384936133bf938561183c565b035f80516020614bdb83398151915291a26001016131f0565b6131f0565b6133fe816133ea5f61065d565b6133f8613209868b8d613020565b90614445565b6132fc565b939261340e90611763565b926132ed565b611ef961341f61314d565b9161325f565b613281600161324c565b6134825f6134406112d1600261065d565b6134498261065d565b90613455858a8c613020565b61345e30610532565b9261346860405190565b95869485938493637c88e98560e11b8552600485016130c7565b03915afa80156113ca575f915f916134fe575b506134a06001610e89565b6134a983610e89565b146134b5575050613228565b936134f7916134dc6133d89496611ef96134cd612673565b5f815293613278613271611e72565b6134e6868c61310d565b526134f1858b61310d565b50611763565b9260010190565b905061351c91503d805f833e61351481836110f9565b810190613092565b5f613495565b506135306112d1600261065d565b61353f6112866103415f611530565b1415613223565b5095949192507f2403003b183ff811dedab647749b7525f94e39ff05e4a7b4f02743c21b6c162293506135859061357c60405190565b93849384613184565b0390a190565b6060600161359c6112d1600261065d565b6135a55f61065d565b90803b1561036257855f91886135d8946135be60405190565b95869485938493631c8265d760e21b855260048501612e9b565b03915afa90816136b1575b506136a55760016135f2612ebe565b6308c379a014613683575b61366a575b61365f613665925b7fc0feb3747cdff72b5f95f5e401f842820c7e78b13ceb3aa2764d611023e8395961363460405190565b80613640848783612f81565b0390a161034d61364f60405190565b80926119c3602083019182612fbc565b90612fe0565b6131e2565b50506136655f61365f61367b612f79565b925050613602565b61368b612ed9565b80613697575b506135fd565b92505f915081905080613691565b61365f6136659261360a565b6136c0905f6113bc81836110f9565b5f6135e3565b506136d46112d1600261065d565b6136e36112866103415f611530565b14156131dd565b6305beb17160e11b5f908152600490fd5b63c2e5347d60e01b5f908152600490fd5b61034d91906060612c27565b6103739061372b6114f06103415f61065d565b6137376103415f611530565b6001600160a01b0382161461148957613751816001611d37565b6137666137606112d15f61065d565b91610532565b907fc63b9e5336585f530c9d3fcf87d1003c570ffbf3665bd119b9d5ce84461db24561379160405190565b80806128c2565b61037390613718565b9061034d9392916137b76114f06103415f61065d565b9061034d9392916137ce61164361163f6011610400565b9061165d9392916137dd613daa565b6137ff565b6001600160a01b0390911681526040810192916103739160200152565b50909161380b5f611530565b6001600160a01b0381166001600160a01b038416149081156139b2575b5080156139a1575b6114895761383d82614721565b61384b6112b983601761053b565b81116113cf5761395e6020613943838661393e876112d1845f80516020614bdb8339815191529a60406138e161388060405190565b6138ad8161389f878f60048e91850163a9059cbb60e01b8152016137e2565b8e82018103825203826110f9565b6138c6896138b961167a565b9d8e61182d600382611698565b6138da8c6138d35f610924565b9485910152565b60608c0152565b6001600160a01b03821660808b01526138fb8360a08c0152565b6139064660c08c0152565b613910600461170f565b61398f575b61391e8a614007565b61393961392c83601761053b565b61135e85611359836103eb565b6142b6565b614aa5565b61394d600461170f565b613980576119cf611fa360056103eb565b92613978600161396d60405190565b93849360038561183c565b0390a2600190565b611fec600182611a0e5f61065d565b61399c8a611a415f61065d565b613915565b506139ab5f610924565b8114613830565b6001600160a01b031690506001600160a01b038416145f613828565b61034d9291905f6137a1565b610373906139ed6114f06103415f61065d565b610373906013611542565b610373906139da565b613a09613daa565b6110dd613a2e565b92612709602061080094612709601488612709859b9a86996126f6565b613a3733610532565b807f88a5966d370b9919b20f3e2c13ff65706f196a4e32cc2c12bf57088f88525874613a6260405190565b348152602090a2613a736013610400565b80613c97575b613a805750565b613a8d6112d1600461065d565b613a965f611530565b916001600160a01b0383166001600160a01b03831614613c3157613ad1613abe84601561053b565b61135e613aca826103eb565b349061117a565b613aed5f80613adf60405190565b5f9034875af161284c611745565b613c105790613b61917f7c9d9deacd381b86bb06128f044436d171b305a3e3635406a945f801b8afa50c613b2060405190565b3481526040602082018190526017908201527f6574682d6465706f7369742d71756172616e74696e65640000000000000000006060820152608090a2610532565b7f191e55d56882ec8ef3fc21b90dbd0d63efa1199625b57ab8ebe93e2f670033c9613b8b60405190565b348152602090a2613bc8611263613ba160405190565b613bb681602081016119c34342343385613a11565b613bc16119da825190565b2092610532565b905f80516020614bfb833981519152613be060405190565b348152604060208201819052600b908201526a195d1a0b59195c1bdcda5d60aa1b606082015280608081016128c2565b611ffc613c1e84601561053b565b61135e613c2a826103eb565b349061113e565b9150507f7c9d9deacd381b86bb06128f044436d171b305a3e3635406a945f801b8afa50c613c5e60405190565b34815260406020820181905260149082015273195d1a0b59195c1bdcda5d0b5b9bcb5d985d5b1d60621b606082015280608081016113a8565b50613ca561034d60146103eb565b341015613a79565b610373613a01565b613cbd613daa565b613cd361163f613cce33600661053b565b610400565b613d3d575a620186a090613ce961126383610924565b1115613d34575f613cfa8192610924565b60405180613d09368583611728565b039134903390f1613d20613d1b611745565b911590565b613d2c57602081519101f35b602081519101fd5b505f805a613cfa565b60405162461bcd60e51b815260206004820152603060248201527f46616c6c6261636b2063616c6c73207265737472696374656420746f2077686960448201526f74656c6973746564207461726765747360801b6064820152608490fd5b613cb5565b61034d6002610924565b613db2614ab6565b610373613dbd613da0565b5f613dc961034d614afe565b0161115f565b61034d6001610924565b610373613dbd613dcf565b634e487b7160e01b5f52603160045260245ffd5b80548015613e1a575f190190613e17613e118383610b9b565b906111b1565b55565b613de4565b61034d613e2d91601661053b565b8054613e385f610924565b81811015612f3c57613e4d610be18285610b9b565b8414613e5b57600101613e38565b610373935061266d613e80610be1613e7a613e879561280f6001610924565b86610b9b565b9184610b9b565b613df8565b6001600160a01b03909116815261034d9160408201916020818403910152611783565b73031b7b6b83634b0b731b290313637b1b5b2b21d160651b815261034d9190601401612fda565b613ee36112d1600261065d565b613ef26112866103415f611530565b14612f4257613f046112d1600261065d565b91823b1561036257613f3a925f92613f1b60405190565b809581948293613f2f63c538fec060e01b90565b845260048401613e8c565b03915afa9081613fe8575b50610373576001613f54612ebe565b6308c379a014613faa575b613f6557565b60405162461bcd60e51b815260206004820152601760248201527f636f6d706c69616e636520636865636b206661696c65640000000000000000006044820152606490fd5b613fb2612ed9565b80613fbd5750613f5f565b613fe06110839161034d613fd060405190565b80926119c3602083019182613eaf565b604051612ff5565b613ff7905f6113bc81836110f9565b5f613f45565b61034d905161168e565b6040810180516009919061402061126361034d856103eb565b11614253576080830180516001600160a01b031661403d5f611530565b906140506001600160a01b038316611286565b141580614298575b61422a5761406b61252d62015180610924565b92614074815190565b6140806112635f610924565b119081614264575b50614253576140b16112866140a484516001600160a01b031690565b926001600160a01b031690565b14158061423b575b6141db575b50506004016140cc81610400565b806141b8575b614158575b6140e09061042c565b908161412c575b506140ee57565b60405162461bcd60e51b815260206004820152601660248201527515185c99d95d081b9bdd081dda1a5d195b1a5cdd195960521b6044820152606490fd5b6141529150613cce61414b602061163f9301516001600160a01b031690565b600661053b565b5f6140e7565b61417561163f613cce61414b60208601516001600160a01b031690565b156140d75760405162461bcd60e51b815260206004820152601660248201527510dbdb9d1c9858dd0818d85b1b1cc8189b1bd8dad95960521b6044820152606490fd5b506141c282613ffd565b6141d56141cf600161168e565b9161168e565b146140d2565b6112b961420c92610ab76141f961420094516001600160a01b031690565b600861053b565b60a08401515b9061117a565b61421e61126361034d600385016103eb565b1161422a575f806140be565b63136bcee560e01b5f908152600490fd5b5060a084015161424d6112635f610924565b116140b9565b6327de36f760e21b5f908152600490fd5b61427f915061420661427a6112b9876007610995565b915190565b61429161126361034d600288016103eb565b115f614088565b5060a08501516142b061126361034d600188016103eb565b11614058565b9190916142c861252d62015180610924565b906142d25f610924565b8111614331575b506142e66103415f611530565b6001600160a01b038416141580614320575b61430157505050565b61431661135e91610ab761037395600861053b565b9161137f836103eb565b5061432a5f610924565b82116142f8565b6143439061135e614316846007610995565b5f6142d9565b91909161435b61252d62015180610924565b906143655f610924565b8111806143f9575b6143e1575b5061437f6103415f611530565b6001600160a01b0384161415806143d0575b806143b5575b6143a057505050565b6128d861135e91610ab761037395600861053b565b506143c86112b982610ab786600861053b565b821115614397565b506143da5f610924565b8211614391565b6143f39061135e6128d8846007610995565b5f614372565b506144086112b9836007610995565b81111561436d565b6001600160a01b03909116815292916103739160409061443c9060608701908782036020890152611783565b94019015159052565b90916144546112d1600261065d565b6144636112866103415f611530565b146144cd576144756112d1600261065d565b803b15610362576144a6935f809461448c60405190565b96879586948593633dcdee0760e01b855260048501614410565b03925af190816144b8575b5061037357565b6144c7905f6113bc81836110f9565b5f6144b1565b505050565b6144db81614007565b60808101906144f182516001600160a01b031690565b916144fb5f611530565b9261450e6001600160a01b038516611286565b141580614709575b6146a0575b6040820190614528825190565b9061454b61453d82516001600160a01b031690565b9260a08601936132e7855190565b60208401915f8061456385516001600160a01b031690565b865190606089015191602083519301915af19161457e611745565b96831561460957505050906119fa5f80516020614bdb83398151915293926145f66145f26145ed6145df5f6145b360056103eb565b6145bf6119a082611763565b6145cc8c611fb930610532565b6145d76119da825190565b209a01613ffd565b95516001600160a01b031690565b955190565b9690565b9561460060405190565b9485948561183c565b614627614614875190565b83516001600160a01b0316855191614349565b61463e6112866140a484516001600160a01b031690565b14158061468b575b61465b5763024d9cdb60e01b5f908152600490fd5b61135e61431661467d61466f614684955190565b93516001600160a01b031690565b601761053b565b8080611a23565b50815161469a6112635f610924565b11614646565b6146b96146b482516001600160a01b031690565b614721565b6146d06112b961467d83516001600160a01b031690565b60a08301906146e361126361034d845190565b106113cf57516147049061135e6128d861467d85516001600160a01b031690565b61451b565b5060a082015161471b6112635f610924565b11614516565b61472a5f611530565b906001600160a01b0382166001600160a01b0382160361479057506147536112b982601561053b565b9061475d30610532565b8281311061477e5761477661037393611a84923161113e565b91601761053b565b506103739150611a846147765f610924565b5f915081806147ce6147dd6147a430610532565b6040516370a0823160e01b6020820152928391602483016001600160a01b03909116815260200190565b602082018103825203826110f9565b602081519101845afa6147ee611745565b9080614843575b614821575b506148096112b982601561053b565b9182811061477e5761477661037393611a849261113e565b61483c9192506020614831825190565b8183010191016125e3565b905f6147fa565b5080516148536112636020610924565b10156147f5565b919061486b61163f5f848487614b06565b61487457505050565b61488c61163f60016148855f610924565b8487614b06565b6148d35760016148a09261163f9285614b06565b6148a75750565b6113e06148b45f92610532565b635274afe760e01b83526001600160a01b031660048301526024820190565b5f6113e06148b485610532565b9060408201906148ee825190565b6148fa6112635f610924565b1180614a86575b614a7957608083019261491b84516001600160a01b031690565b926149255f611530565b936149386001600160a01b038616611286565b141580614a61575b6149e1575b5f809161495f61427a60208601516001600160a01b031690565b90606085015191602083519301915af193614978611745565b93851590816149c0575b50806149a8575b614991575050565b61135e61431661467d61466f60a061037396015190565b5060a08201516149ba6112635f610924565b11614989565b90506149d96112866140a484516001600160a01b031690565b14155f614982565b6149f56146b486516001600160a01b031690565b614a0c6112b961467d87516001600160a01b031690565b60a0830190614a1f61126361034d845190565b10614a51575f91614a49614a3284935190565b61135e6128d861467d8b516001600160a01b031690565b915050614945565b5050509150505f9061034d611e72565b5060a0820151614a736112635f610924565b11614940565b9150505f9061034d611e72565b50614a9030610532565b31614a9f61126361034d855190565b10614901565b91600161163f916148a09385614b6e565b614abe614bb3565b614ac457565b633ee5aeb560e01b5f908152600490fd5b61034d7f9b779b17422d0df92223018b32b4d1fa46e071723d6817e2486d003becc55f00610924565b61034d614ad5565b60405163095ea7b360e01b5f9081526001600160a01b039093166004526024939093529293929060209060448180855af19360015f5114851615614b4c575b5050604052565b8492941516614b65575f903b113d151616915f80614b45565b833d5f823e3d90fd5b60405163a9059cbb60e01b5f9081526001600160a01b039093166004526024939093529293929060209060448180855af19360015f5114851615614b4c575050604052565b614bc85f614bc261034d614afe565b016103eb565b614bd661126361034d613da0565b149056fef3359997818a07db03325cddbb394b5abd5d4be681051dd8f00c2737d81e04d99ccfd64c8c081c4ace661cb3b742a779d03c8c3c8a2ad7625ce5b3c9a575f5a4a164736f6c634300081a000a",
  "linkReferences": {},
  "deployedLinkReferences": {}
}