{
  "_format": "hh-sol-artifact-1",
  "contractName": "CompliantStableCoin",
  "sourceName": "contracts/examples/CompliantStableCoin.sol",
  "abi": [
    {
      "inputs": [
        {
          "internalType": "string",
          "name": "name",
          "type": "string"
        },
        {
          "internalType": "string",
          "name": "symbol",
          "type": "string"
        },
        {
          "internalType": "address",
          "name": "_complianceEngine",
          "type": "address"
        }
      ],
      "stateMutability": "nonpayable",
      "type": "constructor"
    },
    {
      "inputs": [],
      "name": "AccessControlBadConfirmation",
      "type": "error"
    },
    {
      "inputs": [
        {
          "internalType": "address",
          "name": "account",
          "type": "address"
        },
        {
          "internalType": "bytes32",
          "name": "neededRole",
          "type": "bytes32"
        }
      ],
      "name": "AccessControlUnauthorizedAccount",
      "type": "error"
    },
    {
      "inputs": [
        {
          "internalType": "string",
          "name": "reason",
          "type": "string"
        }
      ],
      "name": "ComplianceCheckFailed",
      "type": "error"
    },
    {
      "inputs": [
        {
          "internalType": "address",
          "name": "spender",
          "type": "address"
        },
        {
          "internalType": "uint256",
          "name": "allowance",
          "type": "uint256"
        },
        {
          "internalType": "uint256",
          "name": "needed",
          "type": "uint256"
        }
      ],
      "name": "ERC20InsufficientAllowance",
      "type": "error"
    },
    {
      "inputs": [
        {
          "internalType": "address",
          "name": "sender",
          "type": "address"
        },
        {
          "internalType": "uint256",
          "name": "balance",
          "type": "uint256"
        },
        {
          "internalType": "uint256",
          "name": "needed",
          "type": "uint256"
        }
      ],
      "name": "ERC20InsufficientBalance",
      "type": "error"
    },
    {
      "inputs": [
        {
          "internalType": "address",
          "name": "approver",
          "type": "address"
        }
      ],
      "name": "ERC20InvalidApprover",
      "type": "error"
    },
    {
      "inputs": [
        {
          "internalType": "address",
          "name": "receiver",
          "type": "address"
        }
      ],
      "name": "ERC20InvalidReceiver",
      "type": "error"
    },
    {
      "inputs": [
        {
          "internalType": "address",
          "name": "sender",
          "type": "address"
        }
      ],
      "name": "ERC20InvalidSender",
      "type": "error"
    },
    {
      "inputs": [
        {
          "internalType": "address",
          "name": "spender",
          "type": "address"
        }
      ],
      "name": "ERC20InvalidSpender",
      "type": "error"
    },
    {
      "inputs": [],
      "name": "EnforcedPause",
      "type": "error"
    },
    {
      "inputs": [],
      "name": "ExceedsMaxTransaction",
      "type": "error"
    },
    {
      "inputs": [],
      "name": "ExpectedPause",
      "type": "error"
    },
    {
      "inputs": [],
      "name": "InsufficientAllowance",
      "type": "error"
    },
    {
      "inputs": [],
      "name": "InsufficientBalance",
      "type": "error"
    },
    {
      "inputs": [],
      "name": "InvalidAddress",
      "type": "error"
    },
    {
      "inputs": [],
      "name": "InvalidLength",
      "type": "error"
    },
    {
      "inputs": [],
      "name": "InvalidPolicy",
      "type": "error"
    },
    {
      "inputs": [],
      "name": "LengthMismatch",
      "type": "error"
    },
    {
      "inputs": [],
      "name": "NotKYCVerified",
      "type": "error"
    },
    {
      "anonymous": false,
      "inputs": [
        {
          "indexed": true,
          "internalType": "address",
          "name": "owner",
          "type": "address"
        },
        {
          "indexed": true,
          "internalType": "address",
          "name": "spender",
          "type": "address"
        },
        {
          "indexed": false,
          "internalType": "uint256",
          "name": "value",
          "type": "uint256"
        }
      ],
      "name": "Approval",
      "type": "event"
    },
    {
      "anonymous": false,
      "inputs": [
        {
          "indexed": true,
          "internalType": "address",
          "name": "engine",
          "type": "address"
        }
      ],
      "name": "ComplianceEngineSet",
      "type": "event"
    },
    {
      "anonymous": false,
      "inputs": [
        {
          "indexed": false,
          "internalType": "bool",
          "name": "enabled",
          "type": "bool"
        }
      ],
      "name": "ComplianceToggled",
      "type": "event"
    },
    {
      "anonymous": false,
      "inputs": [
        {
          "indexed": true,
          "internalType": "address",
          "name": "account",
          "type": "address"
        },
        {
          "indexed": false,
          "internalType": "bool",
          "name": "verified",
          "type": "bool"
        }
      ],
      "name": "KYCStatusUpdated",
      "type": "event"
    },
    {
      "anonymous": false,
      "inputs": [
        {
          "indexed": false,
          "internalType": "address",
          "name": "account",
          "type": "address"
        }
      ],
      "name": "Paused",
      "type": "event"
    },
    {
      "anonymous": false,
      "inputs": [
        {
          "indexed": true,
          "internalType": "uint256",
          "name": "maxTxAmount",
          "type": "uint256"
        },
        {
          "indexed": true,
          "internalType": "uint256",
          "name": "dailyLimit",
          "type": "uint256"
        },
        {
          "indexed": false,
          "internalType": "bool",
          "name": "allowMediumRisk",
          "type": "bool"
        },
        {
          "indexed": false,
          "internalType": "bool",
          "name": "allowHighRisk",
          "type": "bool"
        },
        {
          "indexed": false,
          "internalType": "bool",
          "name": "blockMixer",
          "type": "bool"
        },
        {
          "indexed": false,
          "internalType": "bool",
          "name": "requireDestinationKYC",
          "type": "bool"
        },
        {
          "indexed": false,
          "internalType": "uint256",
          "name": "cooldownPeriod",
          "type": "uint256"
        }
      ],
      "name": "PolicyUpdated",
      "type": "event"
    },
    {
      "anonymous": false,
      "inputs": [
        {
          "indexed": true,
          "internalType": "bytes32",
          "name": "role",
          "type": "bytes32"
        },
        {
          "indexed": true,
          "internalType": "bytes32",
          "name": "previousAdminRole",
          "type": "bytes32"
        },
        {
          "indexed": true,
          "internalType": "bytes32",
          "name": "newAdminRole",
          "type": "bytes32"
        }
      ],
      "name": "RoleAdminChanged",
      "type": "event"
    },
    {
      "anonymous": false,
      "inputs": [
        {
          "indexed": true,
          "internalType": "bytes32",
          "name": "role",
          "type": "bytes32"
        },
        {
          "indexed": true,
          "internalType": "address",
          "name": "account",
          "type": "address"
        },
        {
          "indexed": true,
          "internalType": "address",
          "name": "sender",
          "type": "address"
        }
      ],
      "name": "RoleGranted",
      "type": "event"
    },
    {
      "anonymous": false,
      "inputs": [
        {
          "indexed": true,
          "internalType": "bytes32",
          "name": "role",
          "type": "bytes32"
        },
        {
          "indexed": true,
          "internalType": "address",
          "name": "account",
          "type": "address"
        },
        {
          "indexed": true,
          "internalType": "address",
          "name": "sender",
          "type": "address"
        }
      ],
      "name": "RoleRevoked",
      "type": "event"
    },
    {
      "anonymous": false,
      "inputs": [
        {
          "indexed": true,
          "internalType": "address",
          "name": "from",
          "type": "address"
        },
        {
          "indexed": true,
          "internalType": "address",
          "name": "to",
          "type": "address"
        },
        {
          "indexed": false,
          "internalType": "uint256",
          "name": "value",
          "type": "uint256"
        }
      ],
      "name": "Transfer",
      "type": "event"
    },
    {
      "anonymous": false,
      "inputs": [
        {
          "indexed": true,
          "internalType": "address",
          "name": "from",
          "type": "address"
        },
        {
          "indexed": true,
          "internalType": "address",
          "name": "to",
          "type": "address"
        },
        {
          "indexed": false,
          "internalType": "uint256",
          "name": "amount",
          "type": "uint256"
        },
        {
          "indexed": false,
          "internalType": "string",
          "name": "reason",
          "type": "string"
        }
      ],
      "name": "TransferBlocked",
      "type": "event"
    },
    {
      "anonymous": false,
      "inputs": [
        {
          "indexed": false,
          "internalType": "address",
          "name": "account",
          "type": "address"
        }
      ],
      "name": "Unpaused",
      "type": "event"
    },
    {
      "inputs": [],
      "name": "BURNER_ROLE",
      "outputs": [
        {
          "internalType": "bytes32",
          "name": "",
          "type": "bytes32"
        }
      ],
      "stateMutability": "view",
      "type": "function"
    },
    {
      "inputs": [],
      "name": "COMPLIANCE_ADMIN_ROLE",
      "outputs": [
        {
          "internalType": "bytes32",
          "name": "",
          "type": "bytes32"
        }
      ],
      "stateMutability": "view",
      "type": "function"
    },
    {
      "inputs": [],
      "name": "DEFAULT_ADMIN_ROLE",
      "outputs": [
        {
          "internalType": "bytes32",
          "name": "",
          "type": "bytes32"
        }
      ],
      "stateMutability": "view",
      "type": "function"
    },
    {
      "inputs": [],
      "name": "MAX_BATCH_SIZE",
      "outputs": [
        {
          "internalType": "uint256",
          "name": "",
          "type": "uint256"
        }
      ],
      "stateMutability": "view",
      "type": "function"
    },
    {
      "inputs": [],
      "name": "MAX_DAILY_LIMIT",
      "outputs": [
        {
          "internalType": "uint256",
          "name": "",
          "type": "uint256"
        }
      ],
      "stateMutability": "view",
      "type": "function"
    },
    {
      "inputs": [],
      "name": "MAX_KYC_BATCH_SIZE",
      "outputs": [
        {
          "internalType": "uint256",
          "name": "",
          "type": "uint256"
        }
      ],
      "stateMutability": "view",
      "type": "function"
    },
    {
      "inputs": [],
      "name": "MAX_TX_AMOUNT",
      "outputs": [
        {
          "internalType": "uint256",
          "name": "",
          "type": "uint256"
        }
      ],
      "stateMutability": "view",
      "type": "function"
    },
    {
      "inputs": [],
      "name": "MINTER_ROLE",
      "outputs": [
        {
          "internalType": "bytes32",
          "name": "",
          "type": "bytes32"
        }
      ],
      "stateMutability": "view",
      "type": "function"
    },
    {
      "inputs": [],
      "name": "MIN_MAX_TX",
      "outputs": [
        {
          "internalType": "uint256",
          "name": "",
          "type": "uint256"
        }
      ],
      "stateMutability": "view",
      "type": "function"
    },
    {
      "inputs": [
        {
          "internalType": "address",
          "name": "owner",
          "type": "address"
        },
        {
          "internalType": "address",
          "name": "spender",
          "type": "address"
        }
      ],
      "name": "allowance",
      "outputs": [
        {
          "internalType": "uint256",
          "name": "",
          "type": "uint256"
        }
      ],
      "stateMutability": "view",
      "type": "function"
    },
    {
      "inputs": [
        {
          "internalType": "address",
          "name": "spender",
          "type": "address"
        },
        {
          "internalType": "uint256",
          "name": "value",
          "type": "uint256"
        }
      ],
      "name": "approve",
      "outputs": [
        {
          "internalType": "bool",
          "name": "",
          "type": "bool"
        }
      ],
      "stateMutability": "nonpayable",
      "type": "function"
    },
    {
      "inputs": [
        {
          "internalType": "address",
          "name": "account",
          "type": "address"
        }
      ],
      "name": "balanceOf",
      "outputs": [
        {
          "internalType": "uint256",
          "name": "",
          "type": "uint256"
        }
      ],
      "stateMutability": "view",
      "type": "function"
    },
    {
      "inputs": [
        {
          "internalType": "address[]",
          "name": "accounts",
          "type": "address[]"
        },
        {
          "internalType": "bool",
          "name": "verified",
          "type": "bool"
        }
      ],
      "name": "batchSetKYC",
      "outputs": [],
      "stateMutability": "nonpayable",
      "type": "function"
    },
    {
      "inputs": [
        {
          "internalType": "address[]",
          "name": "recipients",
          "type": "address[]"
        },
        {
          "internalType": "uint256[]",
          "name": "amounts",
          "type": "uint256[]"
        }
      ],
      "name": "batchTransfer",
      "outputs": [
        {
          "internalType": "bool",
          "name": "",
          "type": "bool"
        }
      ],
      "stateMutability": "nonpayable",
      "type": "function"
    },
    {
      "inputs": [
        {
          "internalType": "address",
          "name": "from",
          "type": "address"
        },
        {
          "internalType": "uint256",
          "name": "amount",
          "type": "uint256"
        }
      ],
      "name": "burn",
      "outputs": [],
      "stateMutability": "nonpayable",
      "type": "function"
    },
    {
      "inputs": [],
      "name": "complianceEnabled",
      "outputs": [
        {
          "internalType": "bool",
          "name": "",
          "type": "bool"
        }
      ],
      "stateMutability": "view",
      "type": "function"
    },
    {
      "inputs": [],
      "name": "complianceEngine",
      "outputs": [
        {
          "internalType": "contract IAssetCompliance",
          "name": "",
          "type": "address"
        }
      ],
      "stateMutability": "view",
      "type": "function"
    },
    {
      "inputs": [
        {
          "internalType": "address",
          "name": "",
          "type": "address"
        },
        {
          "internalType": "uint256",
          "name": "",
          "type": "uint256"
        }
      ],
      "name": "dailySpent",
      "outputs": [
        {
          "internalType": "uint256",
          "name": "",
          "type": "uint256"
        }
      ],
      "stateMutability": "view",
      "type": "function"
    },
    {
      "inputs": [],
      "name": "decimals",
      "outputs": [
        {
          "internalType": "uint8",
          "name": "",
          "type": "uint8"
        }
      ],
      "stateMutability": "pure",
      "type": "function"
    },
    {
      "inputs": [
        {
          "internalType": "address",
          "name": "account",
          "type": "address"
        }
      ],
      "name": "getAddressRiskInfo",
      "outputs": [
        {
          "internalType": "uint8",
          "name": "riskScore",
          "type": "uint8"
        },
        {
          "internalType": "enum IAssetCompliance.RiskTier",
          "name": "tier",
          "type": "uint8"
        },
        {
          "internalType": "bool",
          "name": "isSanctioned",
          "type": "bool"
        },
        {
          "internalType": "uint256",
          "name": "spent",
          "type": "uint256"
        }
      ],
      "stateMutability": "view",
      "type": "function"
    },
    {
      "inputs": [
        {
          "internalType": "bytes32",
          "name": "role",
          "type": "bytes32"
        }
      ],
      "name": "getRoleAdmin",
      "outputs": [
        {
          "internalType": "bytes32",
          "name": "",
          "type": "bytes32"
        }
      ],
      "stateMutability": "view",
      "type": "function"
    },
    {
      "inputs": [
        {
          "internalType": "bytes32",
          "name": "role",
          "type": "bytes32"
        },
        {
          "internalType": "address",
          "name": "account",
          "type": "address"
        }
      ],
      "name": "grantRole",
      "outputs": [],
      "stateMutability": "nonpayable",
      "type": "function"
    },
    {
      "inputs": [
        {
          "internalType": "bytes32",
          "name": "role",
          "type": "bytes32"
        },
        {
          "internalType": "address",
          "name": "account",
          "type": "address"
        }
      ],
      "name": "hasRole",
      "outputs": [
        {
          "internalType": "bool",
          "name": "",
          "type": "bool"
        }
      ],
      "stateMutability": "view",
      "type": "function"
    },
    {
      "inputs": [
        {
          "internalType": "address",
          "name": "",
          "type": "address"
        }
      ],
      "name": "kycVerified",
      "outputs": [
        {
          "internalType": "bool",
          "name": "",
          "type": "bool"
        }
      ],
      "stateMutability": "view",
      "type": "function"
    },
    {
      "inputs": [
        {
          "internalType": "address",
          "name": "to",
          "type": "address"
        },
        {
          "internalType": "uint256",
          "name": "amount",
          "type": "uint256"
        }
      ],
      "name": "mint",
      "outputs": [],
      "stateMutability": "nonpayable",
      "type": "function"
    },
    {
      "inputs": [],
      "name": "name",
      "outputs": [
        {
          "internalType": "string",
          "name": "",
          "type": "string"
        }
      ],
      "stateMutability": "view",
      "type": "function"
    },
    {
      "inputs": [],
      "name": "pause",
      "outputs": [],
      "stateMutability": "nonpayable",
      "type": "function"
    },
    {
      "inputs": [],
      "name": "paused",
      "outputs": [
        {
          "internalType": "bool",
          "name": "",
          "type": "bool"
        }
      ],
      "stateMutability": "view",
      "type": "function"
    },
    {
      "inputs": [],
      "name": "policy",
      "outputs": [
        {
          "internalType": "uint256",
          "name": "maxTxAmount",
          "type": "uint256"
        },
        {
          "internalType": "uint256",
          "name": "dailyLimit",
          "type": "uint256"
        },
        {
          "internalType": "bool",
          "name": "allowMediumRisk",
          "type": "bool"
        },
        {
          "internalType": "bool",
          "name": "allowHighRisk",
          "type": "bool"
        },
        {
          "internalType": "bool",
          "name": "blockMixer",
          "type": "bool"
        },
        {
          "internalType": "bool",
          "name": "requireDestinationKYC",
          "type": "bool"
        },
        {
          "internalType": "uint256",
          "name": "cooldownPeriod",
          "type": "uint256"
        }
      ],
      "stateMutability": "view",
      "type": "function"
    },
    {
      "inputs": [
        {
          "internalType": "bytes32",
          "name": "role",
          "type": "bytes32"
        },
        {
          "internalType": "address",
          "name": "callerConfirmation",
          "type": "address"
        }
      ],
      "name": "renounceRole",
      "outputs": [],
      "stateMutability": "nonpayable",
      "type": "function"
    },
    {
      "inputs": [
        {
          "internalType": "bytes32",
          "name": "role",
          "type": "bytes32"
        },
        {
          "internalType": "address",
          "name": "account",
          "type": "address"
        }
      ],
      "name": "revokeRole",
      "outputs": [],
      "stateMutability": "nonpayable",
      "type": "function"
    },
    {
      "inputs": [
        {
          "internalType": "address",
          "name": "_engine",
          "type": "address"
        }
      ],
      "name": "setComplianceEngine",
      "outputs": [],
      "stateMutability": "nonpayable",
      "type": "function"
    },
    {
      "inputs": [
        {
          "internalType": "address",
          "name": "account",
          "type": "address"
        },
        {
          "internalType": "bool",
          "name": "verified",
          "type": "bool"
        }
      ],
      "name": "setKYCStatus",
      "outputs": [],
      "stateMutability": "nonpayable",
      "type": "function"
    },
    {
      "inputs": [
        {
          "components": [
            {
              "internalType": "uint256",
              "name": "maxTxAmount",
              "type": "uint256"
            },
            {
              "internalType": "uint256",
              "name": "dailyLimit",
              "type": "uint256"
            },
            {
              "internalType": "bool",
              "name": "allowMediumRisk",
              "type": "bool"
            },
            {
              "internalType": "bool",
              "name": "allowHighRisk",
              "type": "bool"
            },
            {
              "internalType": "bool",
              "name": "blockMixer",
              "type": "bool"
            },
            {
              "internalType": "bool",
              "name": "requireDestinationKYC",
              "type": "bool"
            },
            {
              "internalType": "uint256",
              "name": "cooldownPeriod",
              "type": "uint256"
            },
            {
              "internalType": "bytes32[]",
              "name": "blockedTokens",
              "type": "bytes32[]"
            }
          ],
          "internalType": "struct IAssetCompliance.IssuerPolicy",
          "name": "_policy",
          "type": "tuple"
        }
      ],
      "name": "setPolicy",
      "outputs": [],
      "stateMutability": "nonpayable",
      "type": "function"
    },
    {
      "inputs": [
        {
          "internalType": "address",
          "name": "from",
          "type": "address"
        },
        {
          "internalType": "address",
          "name": "to",
          "type": "address"
        },
        {
          "internalType": "uint256",
          "name": "amount",
          "type": "uint256"
        }
      ],
      "name": "simulateTransfer",
      "outputs": [
        {
          "internalType": "bool",
          "name": "wouldSucceed",
          "type": "bool"
        },
        {
          "internalType": "enum IAssetCompliance.Decision",
          "name": "decision",
          "type": "uint8"
        },
        {
          "internalType": "string",
          "name": "reason",
          "type": "string"
        }
      ],
      "stateMutability": "view",
      "type": "function"
    },
    {
      "inputs": [
        {
          "internalType": "bytes4",
          "name": "interfaceId",
          "type": "bytes4"
        }
      ],
      "name": "supportsInterface",
      "outputs": [
        {
          "internalType": "bool",
          "name": "",
          "type": "bool"
        }
      ],
      "stateMutability": "view",
      "type": "function"
    },
    {
      "inputs": [],
      "name": "symbol",
      "outputs": [
        {
          "internalType": "string",
          "name": "",
          "type": "string"
        }
      ],
      "stateMutability": "view",
      "type": "function"
    },
    {
      "inputs": [
        {
          "internalType": "bool",
          "name": "_enabled",
          "type": "bool"
        }
      ],
      "name": "toggleCompliance",
      "outputs": [],
      "stateMutability": "nonpayable",
      "type": "function"
    },
    {
      "inputs": [],
      "name": "totalSupply",
      "outputs": [
        {
          "internalType": "uint256",
          "name": "",
          "type": "uint256"
        }
      ],
      "stateMutability": "view",
      "type": "function"
    },
    {
      "inputs": [
        {
          "internalType": "address",
          "name": "to",
          "type": "address"
        },
        {
          "internalType": "uint256",
          "name": "value",
          "type": "uint256"
        }
      ],
      "name": "transfer",
      "outputs": [
        {
          "internalType": "bool",
          "name": "",
          "type": "bool"
        }
      ],
      "stateMutability": "nonpayable",
      "type": "function"
    },
    {
      "inputs": [
        {
          "internalType": "address",
          "name": "from",
          "type": "address"
        },
        {
          "internalType": "address",
          "name": "to",
          "type": "address"
        },
        {
          "internalType": "uint256",
          "name": "value",
          "type": "uint256"
        }
      ],
      "name": "transferFrom",
      "outputs": [
        {
          "internalType": "bool",
          "name": "",
          "type": "bool"
        }
      ],
      "stateMutability": "nonpayable",
      "type": "function"
    },
    {
      "inputs": [],
      "name": "unpause",
      "outputs": [],
      "stateMutability": "nonpayable",
      "type": "function"
    }
  ],
  "bytecode": "0x60806040523461002b5761001a610014610171565b91610515565b604051613188610900823961318890f35b5f80fd5b634e487b7160e01b5f52604160045260245ffd5b90601f01601f191681019081106001600160401b0382111761006457604052565b61002f565b9061007d61007660405190565b9283610043565b565b6001600160401b03811161006457602090601f01601f19160190565b90825f9392825e0152565b909291926100bb6100b68261007f565b610069565b938185528183011161002b5761007d91602085019061009b565b9080601f8301121561002b5781516100ef926020016100a6565b90565b6001600160a01b031690565b6001600160a01b0381160361002b57565b9050519061007d826100fe565b909160608284031261002b5781516001600160401b03811161002b57836101449184016100d5565b602083015190936001600160401b03821161002b57604061016a826100ef9487016100d5565b940161010f565b61018f613a888038038061018481610069565b92833981019061011c565b909192565b9060ff60a81b9060a81b5b9181191691161790565b906101b96100ef6101c092151590565b8254610194565b9055565b6100f26100ef6100ef9290565b6100ef906101c4565b6100ef906100f2906001600160a01b031682565b6100ef906101da565b6100ef906101ee565b90610100600160a81b039060081b61019f565b906102236100ef6101c0926101f7565b8254610200565b6100ef6100ef6100ef9290565b6100ef5f61022a565b6001600160401b0381116100645760208091020190565b906102646100b683610240565b918252565b369037565b9061007d61028461027e84610257565b93610240565b601f190160208401610269565b6100ef610100610069565b905f199061019f565b906102b56100ef6101c09261022a565b825461029c565b9060ff9061019f565b906102d56100ef6101c092151590565b82546102bc565b9061ff009060081b61019f565b906102f96100ef6101c092151590565b82546102dc565b9062ff00009060101b61019f565b9061031e6100ef6101c092151590565b8254610300565b9063ff0000009060181b61019f565b906103446100ef6101c092151590565b8254610325565b915f1960089290920291821b911b61019f565b919061036d6100ef6101c09390565b90835461034b565b61007d915f9161035e565b81811061038b575050565b806103985f600193610375565b01610380565b9190918282106103ad57505050565b61007d92916103c090915f5260205f2090565b9182019101610380565b9068010000000000000000811161006457816103e761007d935490565b9082815561039e565b8151916001600160401b0383116100645761042461041a60019261041486866103ca565b60200190565b925f5260205f2090565b9204915f5b8381106104365750505050565b60019060206104466100ef865190565b9401938184015501610429565b9061007d916103f0565b600461050460e061007d9461047b6104755f83015190565b866102a5565b610492610489602083015190565b600187016102a5565b6104e8600286016104af6104a96040850151151590565b826102c5565b6104c56104bf6060850151151590565b826102e9565b6104db6104d56080850151151590565b8261030e565b60a0830151151590610334565b6104ff6104f660c083015190565b600387016102a5565b015190565b9101610453565b9061007d9161045d565b9061051f9161067b565b61052b600160066101a9565b6105376100f25f6101d1565b6001600160a01b0382161461066a57610552610559916101f7565b6006610213565b61056b610564610237565b3390610854565b506105957f9f2df0fed2c77648de5860a4cc508cd0818c85b8b8a1ab4ceeef8d981c8956a6610564565b506105bf7f3c11d16cbaffd01df69ce1c404f6340ee057498f5f00246190ea54220576a848610564565b506105e97f6390f5a69ff59edce8e461308dbd399b74f0414e629057022cbc92159a014c76610564565b5061007d6105f65f61022a565b6106636106028261026e565b61065c61060d610291565b9361062361061f64e8d4a5100061022a565b8652565b61063c61063565048c2739500061022a565b6020870152565b5f60408601525f6060860152600160808601525f60a086015260c0850152565b60e0830152565b600761050b565b63e6c4247b60e01b5f908152600490fd5b61007d91829182918291829190610826565b634e487b7160e01b5f52602260045260245ffd5b90600160028304921680156106c1575b60208310146106bc57565b61068d565b91607f16916106b1565b919061036d6100ef6101c09361022a565b61007d915f916106cb565b8181106106f2575050565b806106ff5f6001936106dc565b016106e7565b9190601f811161071457505050565b61072461007d935f5260205f2090565b906020601f840181900483019310610746575b6020601f9091010401906106e7565b9091508190610737565b90610759815190565b906001600160401b0382116100645761077c8261077685546106a1565b85610705565b602090601f83116001146107b5576101c092915f91836107aa575b50505f19600883021c1916906002021790565b015190505f80610797565b601f198316916107c8855f5260205f2090565b925f5b818110610804575091600293918560019694106107ec575b50505002019055565b01515f196008601f8516021c191690555f80806107e3565b919360206001819287870151815501950192016107cb565b9061007d91610750565b9061083561007d92600361081c565b600461081c565b905b5f5260205260405f2090565b9061083e906101f7565b61086561086183836108dd565b1590565b156108d75761088a6001610885845f61087f86600561083c565b0161084a565b6102c5565b6108a461089e610898339390565b936101f7565b916101f7565b917f2f8788117e7eff1d82e926ec794901d17c78024a50270940304540a733656f0d6108cf60405190565b5f90a4600190565b50505f90565b6100ef915f61087f6108f8936108f05f90565b50600561083c565b5460ff169056fe60806040526004361015610011575f80fd5b5f3560e01c806301ffc9a7146102b05780630505c8c9146102ab57806306fdde03146102a6578063095ea7b3146102a157806318160ddd1461029c57806323b872dd14610297578063245f02ee14610292578063248a9ca31461028d578063282c51f3146102885780632ae96a80146102835780632bbb3abc1461027e5780632f2ff15d14610279578063313ce5671461027457806336568abe1461026f5780633b652d271461026a5780633f4ba83a1461026557806340c10f19146102605780635c975abb1461025b578063634adf461461025657806370a08231146102515780638456cb591461024c57806388d695b2146102475780638ae2702f1461024257806390543cae1461023d5780639061a57f1461023857806391d148541461023357806395d89b411461022e5780639b3c6b22146102295780639dc29fac14610224578063a11939bd1461021f578063a217fddf1461021a578063a3f569ae14610215578063a5410a6614610210578063a9059cbb1461020b578063c8f4eb6b14610206578063cfdbf25414610201578063d5391393146101fc578063d547741f146101f7578063d83c8270146101f2578063dd62ed3e146101ed578063e62a4c9f146101e85763e74307bb036102b557610dc6565b610dab565b610d78565b610d41565b610d1c565b610ce3565b610cc8565b610c8f565b610c36565b610c1b565b610bd6565b610b98565b610b61565b610b48565b610b2f565b610ade565b610ac2565b610aa6565b610a15565b6109d1565b61099b565b610908565b6108ed565b6108d5565b610886565b61086d565b610855565b61083a565b61080d565b6107de565b6107c0565b610782565b610738565b6106ad565b610692565b61064d565b6105a4565b61054f565b610533565b6104ae565b6103f2565b6102f6565b5f80fd5b6001600160e01b031981165b036102b557565b905035906102d9826102b9565b565b906020828203126102b5576102ef916102cc565b90565b9052565b346102b55761032461031161030c3660046102db565b610dde565b6040515b91829182901515815260200190565b0390f35b5f9103126102b557565b6102ef9081565b6102ef9054610332565b6102ef905b60ff1690565b6102ef9054610343565b6102ef9060081c610348565b6102ef9054610358565b6102ef9060101c610348565b6102ef905461036e565b6102ef9060181c610348565b6102ef9054610384565b60076103a581610339565b916103b260018301610339565b916103bf6002820161034e565b916103cc60028301610364565b916103d96002820161037a565b916102ef60036103eb60028501610390565b9301610339565b346102b557610402366004610328565b61032461040d61039a565b9361041d97959793919360405190565b9788978890815260e0810197969590949093909290916020860152151560408501521515606084015215156080830152151560a082015260c00152565b90825f9392825e0152565b61048661048f6020936104999361047a815190565b80835293849260200190565b9586910161045a565b601f01601f191690565b0190565b60208082526102ef92910190610465565b346102b5576104be366004610328565b6103246104c9610f33565b6040519182918261049d565b6001600160a01b031690565b6001600160a01b0381166102c5565b905035906102d9826104e1565b806102c5565b905035906102d9826104fd565b91906040838203126102b5576102ef90602061052c82866104f0565b9401610503565b346102b557610324610311610549366004610510565b90610f3d565b346102b55761055f366004610328565b61032461056a610f4d565b6040515b9182918290815260200190565b90916060828403126102b5576102ef61059484846104f0565b93604061052c82602087016104f0565b346102b5576103246103116105ba36600461057b565b91610f57565b906020828203126102b5576102ef916104f0565b634e487b7160e01b5f52602160045260245ffd5b600511156105f257565b6105d4565b906102d9826105e8565b6102ef906105f7565b6102f290610601565b6106496102d994610640606094989795610636608086019a5f87019060ff169052565b602085019061060a565b15156040830152565b0152565b346102b5576103246106686106633660046105c0565b61117b565b9061067594929460405190565b94859485610613565b906020828203126102b5576102ef91610503565b346102b55761032461056a6106a836600461067e565b6112f5565b346102b5576106bd366004610328565b6103247f3c11d16cbaffd01df69ce1c404f6340ee057498f5f00246190ea54220576a84861056a565b600411156105f257565b906102d9826106e6565b6102ef906106f0565b6102f2906106fa565b90151581526102ef92606082019290919061072b906020830190610703565b6040818403910152610465565b346102b55761032461075461074e36600461057b565b9161148b565b6040519193919384938461070c565b6102ef6102ef6102ef9290565b6102ef60c8610763565b6102ef610770565b346102b557610792366004610328565b61032461056a61077a565b91906040838203126102b5576102ef9060206107b98286610503565b94016104f0565b346102b5576107d96107d336600461079d565b906115e3565b604051005b346102b5576107ee366004610328565b6103246107f96115f7565b6040519182918260ff909116815260200190565b346102b5576107d961082036600461079d565b906115ff565b6102ef620f4240610763565b6102ef610826565b346102b55761084a366004610328565b61032461056a610832565b346102b557610865366004610328565b6107d961164c565b346102b5576107d9610880366004610510565b9061180a565b346102b557610896366004610328565b610324610311611814565b90816101009103126102b55790565b906020828203126102b55781356001600160401b0381116102b5576102ef92016108a1565b346102b5576107d96108e83660046108b0565b611cc7565b346102b55761032461056a6109033660046105c0565b611cd0565b346102b557610918366004610328565b6107d9611d00565b909182601f830112156102b5578135916001600160401b0383116102b55760200192602083028401116102b557565b90916040828403126102b55781356001600160401b0381116102b55783610977918401610920565b92909360208201356001600160401b0381116102b5576109979201610920565b9091565b346102b5576103246103116109b136600461094f565b92919091611e96565b6102ef6509184e72a000610763565b6102ef6109ba565b346102b5576109e1366004610328565b61032461056a6109c9565b8015156102c5565b905035906102d9826109ec565b906020828203126102b5576102ef916109f4565b346102b5576107d9610a28366004610a01565b611f1d565b6102ef906104d5906001600160a01b031682565b6102ef90610a2d565b6102ef90610a41565b90610a5d90610a4a565b5f5260205260405f2090565b90610a5d90610763565b6102ef916008021c81565b906102ef9154610a73565b610aa16102ef92610a9c5f93600d610a53565b610a69565b610a7e565b346102b55761032461056a610abc366004610510565b90610a89565b346102b557610324610311610ad836600461079d565b90611f26565b346102b557610aee366004610328565b6103246104c9611f3f565b916040838303126102b55782356001600160401b0381116102b55782610b266020946102ef938701610920565b949095016109f4565b346102b5576107d9610b42366004610af9565b9161204a565b346102b5576107d9610b5b366004610510565b9061228c565b346102b557610b71366004610328565b6103245f8051602061315c83398151915261056a565b6102ef5f610763565b6102ef610b87565b346102b557610ba8366004610328565b61032461056a610b90565b91906040838203126102b5576102ef906020610bcf82866104f0565b94016109f4565b346102b5576107d9610be9366004610bb3565b90612312565b6102ef916008021c610348565b906102ef9154610bef565b5f610c166102ef92600c610a53565b610bfc565b346102b557610324610311610c313660046105c0565b610c07565b346102b557610324610311610c4c366004610510565b9061231c565b6102ef916008021c6104d5565b906102ef9154610c52565b6102ef60016006610c5f565b6102f290610a4a565b6020810192916102d99190610c76565b346102b557610c9f366004610328565b610324610caa610c6a565b60405191829182610c7f565b6102ef6032610763565b6102ef610cb6565b346102b557610cd8366004610328565b61032461056a610cc0565b346102b557610cf3366004610328565b6103247f9f2df0fed2c77648de5860a4cc508cd0818c85b8b8a1ab4ceeef8d981c8956a661056a565b346102b5576107d9610d2f36600461079d565b90612342565b6102ef60156006610bfc565b346102b557610d51366004610328565b610324610311610d35565b91906040838203126102b5576102ef9060206107b982866104f0565b346102b55761032461056a610d8e366004610d5c565b9061234c565b6102ef655af3107a4000610763565b6102ef610d94565b346102b557610dbb366004610328565b61032461056a610da3565b346102b5576107d9610dd93660046105c0565b61242a565b637965db0b60e01b6001600160e01b0319821614908115610dfd575090565b6102ef9150612433565b634e487b7160e01b5f52602260045260245ffd5b9060016002830492168015610e3b575b6020831014610e3657565b610e07565b91607f1691610e2b565b80545f939291610e61610e5783610e1b565b8085529360200190565b9160018116908115610eb05750600114610e7a57505050565b610e8b91929394505f5260205f2090565b915f925b818410610e9c5750500190565b805484840152602090930192600101610e8f565b92949550505060ff1916825215156020020190565b906102ef91610e45565b634e487b7160e01b5f52604160045260245ffd5b90601f01601f191681019081106001600160401b03821117610f0457604052565b610ecf565b906102d9610f2392610f1a60405190565b93848092610ec5565b0383610ee3565b6102ef90610f09565b6102ef6003610f2a565b610f48919033612451565b600190565b6102ef6002610339565b610f48929190610f68833383612485565b6124dd565b6102ef9060081c6104d5565b6102ef9054610f6d565b6104d56102ef6102ef9290565b6102ef90610f83565b6103486102ef6102ef9290565b906102d9610fb360405190565b9283610ee3565b60ff81166102c5565b905051906102d982610fba565b600511156102b557565b905051906102d982610fd0565b6001600160401b038111610f045760208091020190565b905051906102d9826104fd565b9092919261102061101b82610fe7565b610fa6565b93818552602080860192028301928184116102b557915b8383106110445750505050565b602080916110528486610ffe565b815201920191611037565b9080601f830112156102b55781516102ef9260200161100b565b905051906102d9826109ec565b91909160a0818403126102b55761109b60a0610fa6565b926110a68183610fc3565b84526110b58160208401610fda565b602085015260408201516001600160401b0381116102b557826110df836080936110fc960161105d565b60408701526110f18360608301610ffe565b606087015201611077565b6080830152565b906020828203126102b55781516001600160401b0381116102b5576102ef9201611084565b6040513d5f823e3d90fd5b906020828203126102b5576102ef91610ffe565b6001600160a01b0390911681526040810192916102d9916020905b01906001600160a01b03169052565b6102ef90516105f7565b9061118e6111896006610f79565b610a4a565b6111aa61119d6104d55f610f90565b916001600160a01b031690565b146112d6576111bc6111896006610f79565b915f6111c760405190565b63137f777960e11b81526001600160a01b038316600482015293849060249082905afa9283156112a6575f936112ab575b50602061123e9161120c6111896006610f79565b61121530610a4a565b9161121f60405190565b80958194829361123363a85e35de60e01b90565b845260048401611147565b03915afa9081156112a6575f91611277575b50825160ff1691611270608061126860208701611171565b950151151590565b9293929190565b611299915060203d60201161129f575b6112918183610ee3565b810190611133565b5f611250565b503d611287565b611128565b61123e9193506112ce6020913d805f833e6112c68183610ee3565b810190611103565b9391506111f8565b90506112e15f610f99565b905f905f906102ef5f610763565b90610a5d565b600161130d6102ef926113055f90565b5060056112ef565b01610339565b6001600160401b038111610f0457602090601f01601f19160190565b9061133c61101b83611313565b918252565b61134b601e61132f565b7f45786365656473206d6178207472616e73616374696f6e20616d6f756e740000602082015290565b6102ef611341565b611386601061132f565b6f139bdd0812d650c81d995c9a599a595960821b602082015290565b6102ef61137c565b6102ef5f61132f565b6102ef6113aa565b600411156102b557565b905051906102d9826113bb565b909291926113e261101b82611313565b93818552818301116102b5576102d991602085019061045a565b9080601f830112156102b55781516102ef926020016113d2565b9190916040818403126102b55761142d83826113c5565b9260208201516001600160401b0381116102b5576102ef92016113fc565b6111626102d994611484606094989795611474608086019a5f8701906001600160a01b03169052565b6001600160a01b03166020850152565b6040830152565b92919061149b6102ef6007610339565b82116115af576114ab6009610390565b8061158f575b61157e576114c26111896006610f79565b6114d161119d6104d55f610f90565b1461156d57905f916114e66111896006610f79565b906114f030610a4a565b956115176114fd60405190565b97889586948594633041e90760e11b86526004860161144b565b03915afa9081156112a6575f925f92611546575b5061153660016106f0565b61153f846106f0565b1415929190565b90925061156591503d805f833e61155d8183610ee3565b810190611416565b90915f61152b565b505090506001905f906102ef6113b3565b505090505f906001906102ef6113a2565b506115aa6115a66115a183600c610a53565b61034e565b1590565b6114b1565b505090505f906001906102ef611374565b906102d9916115d66115d1826112f5565b612563565b906115e09161256e565b50565b906102d9916115c0565b6102ef6006610f99565b6102ef6115ed565b90611609336104d5565b6001600160a01b03821603611621576115e0916125e2565b63334bd91960e11b5f908152600490fd5b035ffd5b6116416115d1610b87565b6102d96102d9612694565b6102d9611636565b6102d991906116827f9f2df0fed2c77648de5860a4cc508cd0818c85b8b8a1ab4ceeef8d981c8956a6612563565b906102d99161168f61269c565b6116ce565b6102ef9060a81c610348565b6102ef9054611694565b6001600160a01b039182168152911660208201526060810192916102d99160400152565b906116d85f610f90565b6001600160a01b0381166001600160a01b038416146117f9576116fb60066116a0565b806117d2575b611710575b506102d9916126bb565b61171d6111896006610f79565b803b156102b557825f918561174f9461173560405190565b95869485938493630795958360e51b8552600485016116aa565b03915afa90816117b5575b506117ad5760405163327d269360e01b8152806117a9600482016020808252818101527f436f6d706c69616e636520636865636b206661696c656420666f72206d696e74604082015260600190565b0390fd5b6102d9611706565b6117cc905f6117c48183610ee3565b810190610328565b5f61175a565b506117e06111896006610f79565b6117f26001600160a01b03831661119d565b1415611701565b63e6c4247b60e01b5f908152600490fd5b906102d991611654565b6102ef600661034e565b6102d9906118385f8051602061315c833981519152612563565b611b5f565b356102ef816104fd565b905f19905b9181191691161790565b906118666102ef61186d92610763565b8254611847565b9055565b356102ef816109ec565b9060ff9061184c565b906118946102ef61186d92151590565b825461187b565b9061ff009060081b61184c565b906118b86102ef61186d92151590565b825461189b565b9062ff00009060101b61184c565b906118dd6102ef61186d92151590565b82546118bf565b9063ff0000009060181b61184c565b906119036102ef61186d92151590565b82546118e4565b903590601e1936829003018212156102b557018035906001600160401b0382116102b5576020019160208202360383136102b557565b634e487b7160e01b5f52601160045260245ffd5b915f1960089290920291821b911b61184c565b91906119766102ef61186d9390565b908354611954565b6102d9915f91611967565b818110611994575050565b806119a15f60019361197e565b01611989565b9190918282106119b657505050565b6102d992916119c990915f5260205f2090565b9182019101611989565b90680100000000000000008111610f0457816119f06102d9935490565b908281556119a7565b906001600160401b038311610f0457611a25611a1b6001926102ef86866119d3565b925f5260205f2090565b9204915f5b838110611a375750505050565b6001906020611a486102ef8661183d565b9401938184015501611a2a565b906102d992916119f9565b600490611b106102d993611a7e611a785f830161183d565b84611856565b611a96611a8d6020830161183d565b60018501611856565b611aee60028401611ab2611aac60408501611871565b82611884565b611ac7611ac160608501611871565b826118a8565b611adc611ad660808501611871565b826118cd565b611ae860a08401611871565b906118f3565b611b06611afd60c0830161183d565b60038501611856565b60e081019061190a565b92909101611a55565b906102d991611a60565b901515815260a0810195946102d99490936080936106499291611b5691611b4d9015156020870152565b15156040850152565b15156060830152565b80611b698161183d565b611b7b611b776102ef610826565b9190565b108015611ca9575b611c7a576020820190611b958261183d565b611ba4611b776102ef8461183d565b108015611c8b575b611c7a5760c0830190611bbe8261183d565b611bcd611b7762278d00610763565b11611c7a577ffdeadb506389e7477cae30cd27ccbc01c36365bf0190f2739ed1570ec06d78e691611c75611c15611c0f8794611c0a866007611b19565b61183d565b9561183d565b94611c2260408501611871565b92611c62611c5c611c56611c5060a0611c496080611c4260608d01611871565b9b01611871565b9c01611871565b9361183d565b93610763565b97610763565b97611c6c60405190565b95869586611b23565b0390a3565b63d06b96b160e01b5f908152600490fd5b50611c958261183d565b611ca3611b776102ef610d94565b11611bac565b50611cb38161183d565b611cc1611b776102ef6109ba565b11611b83565b6102d99061181e565b611ce56102ef91611cde5f90565b505f610a53565b610339565b611cf56115d1610b87565b6102d96102d9612749565b6102d9611cea565b906102ef94939291611d1861269c565b611d6b565b634e487b7160e01b5f52603260045260245ffd5b9190811015611d41576020020190565b611d1d565b9190611d51565b9290565b8201809211611d5c57565b611940565b356102ef816104e1565b5093929190808395868303611e8257611d835f610763565b83148015611e6f575b611e5e575f95611d9b5f610763565b965b885b881015611dd357611dcb611dc4611d9f92611dbe611c0a8c8c8c611d31565b90611d46565b9860010190565b979050611d9d565b9193965091939650611dea611b77611d4d33611cd0565b10611e4d57611df85f610763565b855b811015611e4157611e3a81611e3489611e2d611c0a848b611e27611e22611dfa9a8e8e611d31565b611d61565b94611d31565b90336127a5565b60010190565b9050611df8565b50945050505050600190565b631e9acf1760e31b5f908152600490fd5b63251f56a160e21b5f908152600490fd5b50611e7b6102ef610cb6565b8311611d8c565b6001621398b960e31b03195f908152600490fd5b6102ef939291905f611d08565b6102d990611ebd5f8051602061315c833981519152612563565b611ee8565b9060ff60a81b9060a81b61184c565b90611ee16102ef61186d92151590565b8254611ec2565b611f187f86dbbd7363d461824ae381ba7a2b6467bec699ca8b2089833e2fb7341ead10ba91610311816006611ed1565b0390a1565b6102d990611ea3565b6102ef915f611f396115a1936113055f90565b01610a53565b6102ef6004610f2a565b6102d9929190611f655f8051602061315c833981519152612563565b9291908092611f735f610763565b84148015612037575b611e5e57611f895f610763565b845b81101561202f57611fa0611e22828589611d31565b611faf61119d6104d55f610f90565b146117f95761202881611fde86611fd98a611fd3611e22611f8b988b600c94611d31565b90610a53565b611884565b611fef611189611e2283888c611d31565b7f2df1cad2a2659e001c3804c872f69655356013e35c18c2e77a5d568078ab788f61201960405190565b8815158152602090a260010190565b9050611f89565b509350505050565b506120436102ef610770565b8411611f7c565b906102d99291611f49565b6102d991906120837f3c11d16cbaffd01df69ce1c404f6340ee057498f5f00246190ea54220576a848612563565b906102d99161209061269c565b6120cb565b3d156120ae576120a43d61132f565b903d5f602084013e565b606090565b9081526040602082018190526102ef92910190610465565b6120d45f610f90565b6001600160a01b0381166001600160a01b038316146117f957336001600160a01b0383160361225b575b61210860066116a0565b80612234575b61211e575b50906102d991612b51565b919261212d6111896006610f79565b803b156102b5575f61213e60405190565b918290630795958360e51b8252818061215c8a8a8a600485016116aa565b03915afa908161221f575b5061221457507f1cd777a4ec443eb956395f9e9826b4af21e70dd5040dcaa08ac23efd0d479d0c906121b16121ab6121a56121a0612095565b612a8e565b92610a4a565b93610a4a565b936121c76121be60405190565b928392836120b3565b0390a360405163327d269360e01b8152806117a9600482016020808252818101527f436f6d706c69616e636520636865636b206661696c656420666f72206275726e604082015260600190565b9291506102d9612113565b61222e905f6117c48183610ee3565b5f612167565b506122426111896006610f79565b6122546001600160a01b03831661119d565b141561210e565b612265338361234c565b831161227b57612276833384612485565b6120fe565b6313be252b60e01b5f908152600490fd5b906102d991612055565b6102d991906122b15f8051602061315c833981519152612563565b6122bd6104d55f610f90565b6001600160a01b038216146117f95761230d6123038261118985611fd97f2df1cad2a2659e001c3804c872f69655356013e35c18c2e77a5d568078ab788f96600c610a53565b9261031560405190565b0390a2565b906102d991612296565b610f489190336124dd565b906102d9916123386115d1826112f5565b906115e0916125e2565b906102d991612327565b6102ef91612366611ce59261235e5f90565b506001610a53565b610a53565b6102d9906123855f8051602061315c833981519152612563565b6123b4565b90610100600160a81b039060081b61184c565b906123ad6102ef61186d92610a4a565b825461238a565b6123c06104d55f610f90565b6001600160a01b038216146117f957803b6123dd611b775f610763565b146117f957806111896123f26123f993610a4a565b600661239d565b7ffb6fb1ffa5ce9f6148489aa41ebd619a443018a4b6305499e686c0c503d9f45361242360405190565b808061230d565b6102d99061236b565b61244d6301ffc9a760e01b5b916001600160e01b03191690565b1490565b916001916102d993612b9f565b6001600160a01b0390911681526060810193926102d9929091604091610649906020830152565b91612490828461234c565b5f19811061249f575b50505050565b8181106124c457916124b56124bb94925f940390565b91612b9f565b5f808080612499565b637dc7a0d960e11b5f908152935061163292600461245e565b9291906124e95f610f90565b936001600160a01b0385166001600160a01b03821614612545576001600160a01b0385166001600160a01b03831614612527576102d99394506127a5565b63ec442f0560e01b5f9081526001600160a01b038616600452602490fd5b634b637e8f60e11b5f9081526001600160a01b038616600452602490fd5b6102d9903390612c96565b61257b6115a68383611f26565b156125dc576125956001611fd9845f611f398660056112ef565b6125a96125a36121ab339390565b91610a4a565b917f2f8788117e7eff1d82e926ec794901d17c78024a50270940304540a733656f0d6125d460405190565b5f90a4600190565b50505f90565b6125ec8282611f26565b156125dc576126055f611fd98482611f398660056112ef565b6126136125a36121ab339390565b917ff6391f5c32d9c69d2a47ea670b442974b53935d1edc7fd64eb21e047a839171b6125d460405190565b612646612cc4565b6102d96126545f6006611884565b7f5db9ee0a495bf2e6ff9c91a7834c1ba4fdd244a5e8aa4e537bd38aeae4b073aa611f18335b604051918291826001600160a01b03909116815260200190565b6102d961263e565b6126a4611814565b6126aa57565b63d93c066560e01b5f908152600490fd5b91906126c65f610f90565b926001600160a01b0384166001600160a01b038216146126ea576102d992936127a5565b63ec442f0560e01b5f9081526001600160a01b038516600452602490fd5b61271061269c565b6102d961271f60016006611884565b7f62e78cea01bee320cd4e420270b5ea74000d11b0c9f74754ebdbfc544b05a258611f183361267a565b6102d9612708565b634e487b7160e01b5f52601260045260245ffd5b811561276f570490565b612751565b61279d6102d994611484606094989795611474608086019a5f8701906001600160a01b03169052565b019015159052565b6127ae5f610f90565b6001600160a01b0381166001600160a01b03831614159081806129a2575b80612992575b612982575b6127e2858585612ee3565b8180612966575b80612956575b612913575b816128f5575b816128e3575b816128b9575b5061281057505050565b61281d6111896006610f79565b803b156102b5575f61282e60405190565b91829063656998e760e01b825281838161284f60018b8b8b60048601612774565b03925af190816128a4575b5061289f577f1cd777a4ec443eb956395f9e9826b4af21e70dd5040dcaa08ac23efd0d479d0c906128926121ab6121a56121a0612095565b93611c756121be60405190565b505050565b6128b3905f6117c48183610ee3565b5f61285a565b90506128db61119d6128ce6111896006610f79565b926001600160a01b031690565b14155f612806565b90506128ef60066116a0565b90612800565b90506001600160a01b0381166001600160a01b0384161415906127fa565b61295161293961292e61292862015180610763565b42612765565b610a9c86600d610a53565b61294b8761294683610339565b611d46565b90611856565b6127f4565b5061296160066116a0565b6127ef565b506001600160a01b0381166001600160a01b03851614156127e9565b61298d858585612ce6565b6127d7565b5061299d60066116a0565b6127d2565b506001600160a01b0381166001600160a01b03851614156127cc565b6129c8601d61132f565b7f5472616e73616374696f6e2072657665727465642073696c656e746c79000000602082015290565b6102ef6129be565b612a0c612a066102ef9290565b60e01b90565b6001600160e01b03191690565b612a23600561132f565b6450616e696360d81b602082015290565b6102ef612a19565b612a46600861132f565b6714995d995c9d195960c21b602082015290565b6102ef612a3c565b612a6c600e61132f565b6d155b9adb9bdddb881c995d995c9d60921b602082015290565b6102ef612a62565b8051612a9c611b775f610763565b14612b48578051612ab0611b776004610763565b1015612adb575b51612ac5611b776020610763565b1015612ad3576102ef612a86565b6102ef612a5a565b6020810151612af0612a0c6308c379a06129f9565b6001600160e01b031982161480612b31575b612b2757612b1961243f612a0c634e487b716129f9565b03612ab757506102ef612a34565b506102ef90613094565b508151612b41611b776044610763565b1015612b02565b506102ef6129f1565b9190612b5c5f610f90565b926001600160a01b0384166001600160a01b03821614612b8157926102d992936127a5565b634b637e8f60e11b5f9081526001600160a01b038516600452602490fd5b909192612bab5f610f90565b6001600160a01b0381166001600160a01b03841614612c59576001600160a01b0381166001600160a01b03851614612c395750612bf684612bf185612366866001610a53565b611856565b612bff57505050565b611c75612c2f6121ab7f8c5be1e5ebec7d5bd14f71427d1e84f3dd0314c0f7b2291e5b200ac8c7c3b92593610a4a565b9361056e60405190565b634a1406b160e11b5f9081526001600160a01b039091166004526024035ffd5b63e602df0560e01b5f9081526001600160a01b039091166004526024035ffd5b6001600160a01b0390911681526040810192916102d99160200152565b90612ca46115a68284611f26565b612cac575050565b63e2517d3f60e01b5f90815291611632916004612c79565b612ccf6115a6611814565b612cd557565b638dfc202b60e01b5f908152600490fd5b909192612cf66111896006610f79565b612d0561119d6104d55f610f90565b14612e1f576007612d186102ef82610339565b8511612e9d57612d4285612946611ce5612d3761292862015180610763565b610a9c88600d610a53565b612d54611b776102ef60018501610339565b11612e61576002612d659101610390565b612e3a575b612d776111896006610f79565b803b156102b5575f612d8860405190565b918290630795958360e51b82528180612da68a8a8a600485016116aa565b03915afa9081612e25575b50612e1f576117a96121ab85857f1cd777a4ec443eb956395f9e9826b4af21e70dd5040dcaa08ac23efd0d479d0c86612df6612dee6121a0612095565b958692610a4a565b93612e036121be60405190565b0390a360405163327d269360e01b81529182916004830161049d565b92505050565b612e34905f6117c48183610ee3565b5f612db1565b612e4b6115a66115a185600c610a53565b15612d6a57639d90af4760e01b5f908152600490fd5b60405163327d269360e01b8152602060048201526013602482015272115e18d959591cc819185a5b1e481b1a5b5a5d606a1b6044820152606490fd5b60405163327d269360e01b815260206004820152601e60248201527f45786365656473206d6178207472616e73616374696f6e20616d6f756e7400006044820152606490fd5b612eec5f610f90565b6001600160a01b0381166001600160a01b03831603612f8a57612c2f6121ab7fddf252ad1be2c89b69c2b068fc378daa952ba7f163c4a11628f55a4df523b3ef93612f4c611c75946104d5612f458a6129466002610339565b6002611856565b6001600160a01b03871603612f7057611189612f4588612f6c6002610339565b0390565b611189612f7d875f610a53565b61294b8961049983610339565b612f97611ce5835f610a53565b848110612fe3576121ab7fddf252ad1be2c89b69c2b068fc378daa952ba7f163c4a11628f55a4df523b3ef93612f4c611c75946104d5612fd98a612c2f970390565b612bf1855f610a53565b63391434e360e21b5f9081529061163290869085600461245e565b613008600761132f565b662ab735b737bbb760c91b602082015290565b6102ef612ffe565b91908203918211611d5c57565b369037565b906102d961304b6130458461132f565b93611313565b601f190160208401613030565b90613061825190565b811015611d41570160200190565b906020828203126102b55781516001600160401b0381116102b5576102ef92016113fc565b9081516004906130a7611b776004610763565b10613150576130cf6130ca6130ba855190565b6130c46004610763565b90613023565b613035565b906130d95f610763565b6130e46102ef845190565b8110156131335761312e9061311b61310d61310761310186610763565b84611d46565b88613058565b516001600160f81b03191690565b5f1a6131278286613058565b5360010190565b6130d9565b50506102ef9192506020613145825190565b81830101910161306f565b5090506102ef61301b56fe6390f5a69ff59edce8e461308dbd399b74f0414e629057022cbc92159a014c76a164736f6c634300081a000a",
  "linkReferences": {},
  "deployedLinkReferences": {}
}