{
  "_format": "hh-sol-artifact-1",
  "contractName": "MockFidesCompliance",
  "sourceName": "contracts/examples/MockFidesCompliance.sol",
  "abi": [
    {
      "inputs": [
        {
          "internalType": "address",
          "name": "account",
          "type": "address"
        }
      ],
      "name": "blacklist",
      "outputs": [],
      "stateMutability": "nonpayable",
      "type": "function"
    },
    {
      "inputs": [
        {
          "internalType": "address",
          "name": "",
          "type": "address"
        },
        {
          "internalType": "address",
          "name": "",
          "type": "address"
        },
        {
          "internalType": "uint256",
          "name": "",
          "type": "uint256"
        },
        {
          "internalType": "address",
          "name": "",
          "type": "address"
        },
        {
          "internalType": "uint256",
          "name": "",
          "type": "uint256"
        }
      ],
      "name": "evaluateTransaction",
      "outputs": [
        {
          "internalType": "bool",
          "name": "",
          "type": "bool"
        },
        {
          "internalType": "uint256",
          "name": "",
          "type": "uint256"
        }
      ],
      "stateMutability": "pure",
      "type": "function"
    },
    {
      "inputs": [
        {
          "internalType": "address",
          "name": "account",
          "type": "address"
        }
      ],
      "name": "getRiskProfile",
      "outputs": [
        {
          "internalType": "uint256",
          "name": "riskScore",
          "type": "uint256"
        },
        {
          "internalType": "bool",
          "name": "isSanctioned",
          "type": "bool"
        },
        {
          "internalType": "uint256",
          "name": "lastUpdated",
          "type": "uint256"
        }
      ],
      "stateMutability": "view",
      "type": "function"
    },
    {
      "inputs": [
        {
          "internalType": "address",
          "name": "account",
          "type": "address"
        }
      ],
      "name": "isBlacklisted",
      "outputs": [
        {
          "internalType": "bool",
          "name": "",
          "type": "bool"
        }
      ],
      "stateMutability": "view",
      "type": "function"
    },
    {
      "inputs": [
        {
          "internalType": "address",
          "name": "account",
          "type": "address"
        }
      ],
      "name": "isWhitelisted",
      "outputs": [
        {
          "internalType": "bool",
          "name": "",
          "type": "bool"
        }
      ],
      "stateMutability": "view",
      "type": "function"
    },
    {
      "inputs": [
        {
          "internalType": "address",
          "name": "account",
          "type": "address"
        },
        {
          "components": [
            {
              "internalType": "enum IFidesCompliance.RiskLevel",
              "name": "level",
              "type": "uint8"
            },
            {
              "internalType": "uint256",
              "name": "score",
              "type": "uint256"
            },
            {
              "internalType": "string[]",
              "name": "tags",
              "type": "string[]"
            },
            {
              "internalType": "uint256",
              "name": "lastUpdated",
              "type": "uint256"
            },
            {
              "internalType": "address",
              "name": "updatedBy",
              "type": "address"
            },
            {
              "internalType": "bytes32",
              "name": "reasonHash",
              "type": "bytes32"
            },
            {
              "internalType": "bool",
              "name": "exists",
              "type": "bool"
            }
          ],
          "internalType": "struct IFidesCompliance.RiskProfile",
          "name": "profile",
          "type": "tuple"
        }
      ],
      "name": "setRiskProfile",
      "outputs": [],
      "stateMutability": "nonpayable",
      "type": "function"
    }
  ],
  "bytecode": "0x608060405234601957604051610c3a61001e8239610c3a90f35b5f80fdfe60806040526004361015610011575f80fd5b5f3560e01c8063176e009d146100705780633af32abf1461006b5780639029d05514610066578063baf1e57f14610061578063f9f92be41461005c5763fe575a870361007557610257565b61023f565b610215565b6101dc565b61016b565b610121565b5f80fd5b6001600160a01b031690565b90565b6001600160a01b0381165b0361007557565b905035906100a782610088565b565b80610093565b905035906100a7826100a9565b919060a083820312610075576100d2818461009a565b926100e0826020830161009a565b926100856100f184604085016100af565b936080610101826060870161009a565b94016100af565b9052565b90151581526040810192916100a79160200152565b346100755761013d6101343660046100bc565b9392909261027f565b9061015361014a60405190565b9283928361010c565b0390f35b90602082820312610075576100859161009a565b3461007557610153610186610181366004610157565b505f90565b60405191829182901515815260200190565b908160e09103126100755790565b919091604081840312610075576101bd838261009a565b92602082013567ffffffffffffffff8111610075576100859201610198565b34610075576101f56101ef3660046101a6565b9061092f565b604051005b90815290151560208201526060810192916100a79160400152565b346100755761015361023061022b366004610157565b610ba9565b604051919391938493846101fa565b34610075576101f5610252366004610157565b610bff565b346100755761015361018661026d366004610157565b610c13565b6100856100856100859290565b505050505061028b5f90565b506001906100855f610272565b61008590610079906001600160a01b031682565b61008590610298565b610085906102ac565b906102c8906102b5565b5f5260205260405f2090565b634e487b7160e01b5f525f60045260245ffd5b6006111561007557565b634e487b7160e01b5f52602160045260245ffd5b6006111561030f57565b6102f1565b906100a782610305565b35610085816102e7565b9060ff905b9181191691161790565b61008590610314565b9061035061008561035792610337565b8254610328565b9055565b35610085816100a9565b905f199061032d565b9061037e61008561035792610272565b8254610365565b903590601e193682900301821215610075570180359067ffffffffffffffff82116100755760200191602082023603831361007557565b903590601e193682900301821215610075570180359067ffffffffffffffff8211610075576020019136829003831361007557565b634e487b7160e01b5f52604160045260245ffd5b634e487b7160e01b5f52602260045260245ffd5b9060016002830492168015610439575b602083101461043457565b610405565b91607f1691610429565b90610455905f19906020036008021c90565b8154169055565b915f1960089290920291821b911b61032d565b919061048061008561035793610272565b90835461045c565b6100a7915f9161046f565b81811061049e575050565b806104ab5f600193610488565b01610493565b5f19600883021c1916906002021790565b905f916104dd6104d5825f5260205f2090565b9283546104b1565b905555565b919290602082101561053857601f8411600114610504576103579293506104b1565b50906105336100a793600161052a61051f855f5260205f2090565b92601f602091010490565b82019101610493565b6104c2565b50610576829361054d6001945f5260205f2090565b61056f6020601f860104820192601f86168061057e575b50601f602091010490565b0190610493565b600202179055565b61058a90888603610443565b5f610564565b929091600160401b82116105e157602011156105d55760208110156105b857610357916104b1565b60019160ff19166105cc845f5260205f2090565b55600202019055565b60019150600202019055565b6103f1565b9081546105f281610419565b9081831161061b575b818310610609575b50505050565b610612936104e2565b5f808080610603565b61062783838387610590565b6105fb565b5f6100a7916105e6565b905f03610646576100a79061062c565b6102d4565b818110610656575050565b806106635f600193610636565b0161064b565b91909182821061067857505050565b6100a7929161068b90915f5260205f2090565b918201910161064b565b90600160401b81116105e157816106ad6100a7935490565b90828155610669565b9190601f81116106c557505050565b6106d56100a7935f5260205f2090565b906020601f8401819004830193106106f5575b6020601f9091010461056f565b90915081906106e8565b919067ffffffffffffffff82116105e1576107248261071e8554610419565b856106b6565b5f90601f83116001146107505761035792915f9183610745575b50506104b1565b013590505f8061073e565b90601f19831691610764855f5260205f2090565b925f5b8181106107a057509160029391856001969410610788575b50505002019055565b01355f19601f84166008021c191690555f808061077f565b92936020600181928786013581550195019301610767565b906100a792916106ff565b906107ce8383610695565b6107dc81925f5260205f2090565b905f925b8484106107ee575050505050565b60016020826108086108018495876103bc565b90886107b8565b019301930192916107e0565b906100a792916107c3565b3561008581610088565b906001600160a01b039061032d565b90610848610085610357926102b5565b8254610829565b9061037e6100856103579290565b801515610093565b356100858161085d565b9061035061008561035792151590565b600661091e60c06100a79461089e6108985f830161031e565b86610340565b6108b66108ad6020830161035b565b6001870161036e565b6108d06108c66040830183610385565b9060028801610814565b6108e86108df6060830161035b565b6003870161036e565b6109006108f76080830161081f565b60048701610838565b61091861090f60a0830161035b565b6005870161084f565b01610865565b910161086f565b906100a79161087f565b9061093e6100a79260016102be565b610925565b5460ff1690565b9061010890610314565b6100859081565b6100859054610954565b90601f01601f1916810190811067ffffffffffffffff8211176105e157604052565b906100a761099460405190565b9283610965565b67ffffffffffffffff81116105e15760208091020190565b906109c56109c08361099b565b610987565b918252565b80545f9392916109e66109dc83610419565b8085529360200190565b9160018116908115610a3557506001146109ff57505050565b610a1091929394505f5260205f2090565b915f925b818410610a215750500190565b805484840152602090930192600101610a14565b92949550505060ff1916825215156020020190565b90610085916109ca565b906100a7610a6e92610a6560405190565b93848092610a4a565b0383610965565b61008590610a54565b90610a87825490565b610a90816109b3565b92610aa260208501915f5260205f2090565b5f915b838310610ab25750505050565b600160208192610ac185610a75565b815201920192019190610aa5565b61008590610079565b6100859054610acf565b61008560e0610987565b906100a7610b8d6006610afd610ae2565b94610b10610b0a82610943565b8761094a565b610b26610b1f6001830161095b565b6020880152565b610b3c610b3560028301610a7e565b6040880152565b610b52610b4b6003830161095b565b6060880152565b610b71610b6160048301610ad8565b6001600160a01b03166080880152565b610b87610b806005830161095b565b60a0880152565b01610943565b151560c0840152565b61008590610aec565b6100859051610314565b610bbf610bc491610bb75f90565b5060016102be565b610b96565b90610bd0602083015190565b90610bf96060610bdf85610b9f565b610bf2610bec6005610314565b91610314565b1494015190565b91929190565b6001610c0e6100a7925f6102be565b61086f565b610c2861008591610c215f90565b505f6102be565b61094356fea164736f6c634300081a000a",
  "linkReferences": {},
  "deployedLinkReferences": {}
}