{
  "_format": "hh-sol-artifact-1",
  "contractName": "MockFidesCompliance",
  "sourceName": "contracts/examples/MockFidesCompliance.sol",
  "abi": [
    {
      "inputs": [
        {
          "internalType": "address",
          "name": "account",
          "type": "address"
        }
      ],
      "name": "blacklist",
      "outputs": [],
      "stateMutability": "nonpayable",
      "type": "function"
    },
    {
      "inputs": [
        {
          "internalType": "address",
          "name": "",
          "type": "address"
        },
        {
          "internalType": "address",
          "name": "",
          "type": "address"
        },
        {
          "internalType": "uint256",
          "name": "",
          "type": "uint256"
        },
        {
          "internalType": "address",
          "name": "",
          "type": "address"
        }
      ],
      "name": "evaluateTransaction",
      "outputs": [
        {
          "internalType": "bool",
          "name": "",
          "type": "bool"
        },
        {
          "internalType": "uint256",
          "name": "",
          "type": "uint256"
        }
      ],
      "stateMutability": "pure",
      "type": "function"
    },
    {
      "inputs": [
        {
          "internalType": "address",
          "name": "account",
          "type": "address"
        }
      ],
      "name": "getRiskProfile",
      "outputs": [
        {
          "components": [
            {
              "internalType": "enum IFidesCompliance.RiskLevel",
              "name": "level",
              "type": "uint8"
            },
            {
              "internalType": "uint256",
              "name": "score",
              "type": "uint256"
            },
            {
              "internalType": "string[]",
              "name": "tags",
              "type": "string[]"
            },
            {
              "internalType": "uint256",
              "name": "lastUpdated",
              "type": "uint256"
            },
            {
              "internalType": "address",
              "name": "updatedBy",
              "type": "address"
            },
            {
              "internalType": "bytes32",
              "name": "reasonHash",
              "type": "bytes32"
            },
            {
              "internalType": "bool",
              "name": "exists",
              "type": "bool"
            }
          ],
          "internalType": "struct IFidesCompliance.RiskProfile",
          "name": "",
          "type": "tuple"
        }
      ],
      "stateMutability": "view",
      "type": "function"
    },
    {
      "inputs": [
        {
          "internalType": "address",
          "name": "account",
          "type": "address"
        }
      ],
      "name": "isBlacklisted",
      "outputs": [
        {
          "internalType": "bool",
          "name": "",
          "type": "bool"
        }
      ],
      "stateMutability": "view",
      "type": "function"
    },
    {
      "inputs": [
        {
          "internalType": "address",
          "name": "account",
          "type": "address"
        }
      ],
      "name": "isWhitelisted",
      "outputs": [
        {
          "internalType": "bool",
          "name": "",
          "type": "bool"
        }
      ],
      "stateMutability": "view",
      "type": "function"
    },
    {
      "inputs": [
        {
          "internalType": "address",
          "name": "account",
          "type": "address"
        },
        {
          "components": [
            {
              "internalType": "enum IFidesCompliance.RiskLevel",
              "name": "level",
              "type": "uint8"
            },
            {
              "internalType": "uint256",
              "name": "score",
              "type": "uint256"
            },
            {
              "internalType": "string[]",
              "name": "tags",
              "type": "string[]"
            },
            {
              "internalType": "uint256",
              "name": "lastUpdated",
              "type": "uint256"
            },
            {
              "internalType": "address",
              "name": "updatedBy",
              "type": "address"
            },
            {
              "internalType": "bytes32",
              "name": "reasonHash",
              "type": "bytes32"
            },
            {
              "internalType": "bool",
              "name": "exists",
              "type": "bool"
            }
          ],
          "internalType": "struct IFidesCompliance.RiskProfile",
          "name": "profile",
          "type": "tuple"
        }
      ],
      "name": "setRiskProfile",
      "outputs": [],
      "stateMutability": "nonpayable",
      "type": "function"
    }
  ],
  "bytecode": "0x608060405234601957604051610d4c61001e8239610d4c90f35b5f80fdfe60806040526004361015610011575f80fd5b5f3560e01c80633af32abf146100705780639029d0551461006b578063b1b6a97014610066578063baf1e57f14610061578063f9f92be41461005c5763fe575a8703610075576103ac565b610394565b61036d565b6101b8565b610136565b6100c1565b5f80fd5b6001600160a01b031690565b90565b6001600160a01b0381165b0361007557565b905035906100a782610088565b565b90602082820312610075576100859161009a565b9052565b34610075576100ee6100dc6100d73660046100a9565b505f90565b60405191829182901515815260200190565b0390f35b908160e09103126100755790565b91909160408184031261007557610117838261009a565b92602082013567ffffffffffffffff81116100755761008592016100f2565b346100755761014f610149366004610100565b90610a35565b604051005b80610093565b905035906100a782610154565b6080818303126100755761017b828261009a565b9261008561018c846020850161009a565b93606061019c826040870161015a565b940161009a565b90151581526040810192916100a79160200152565b34610075576101d46101cb366004610167565b92919091610a49565b906100ee6101e160405190565b928392836101a3565b634e487b7160e01b5f52602160045260245ffd5b6006111561020857565b6101ea565b906100a7826101fe565b6100859061020d565b6100bd90610217565b90825f9392825e0152565b61025561025e60209361026893610249815190565b80835293849260200190565b95869101610229565b601f01601f191690565b0190565b9061008591610234565b9061028c610282835190565b8083529160200190565b908161029e6020830284019460200190565b925f915b8383106102b157505050505090565b909192939460206102d46102cd8385600195038752895161026c565b9760200190565b93019301919392906102a2565b906100859060c08061032160e084016103005f8801515f870190610220565b61030f60208801516020870152565b60408701518582036040870152610276565b9461033160608201516060860152565b6080818101516001600160a01b03169085015261035360a082015160a0860152565b01511515910152565b6020808252610085929101906102e1565b34610075576100ee6103886103833660046100a9565b610cf3565b6040519182918261035c565b346100755761014f6103a73660046100a9565b610d0f565b34610075576100ee6100dc6103c23660046100a9565b610d23565b61008590610079906001600160a01b031682565b610085906103c7565b610085906103db565b906103f7906103e4565b5f5260205260405f2090565b634e487b7160e01b5f525f60045260245ffd5b6006111561007557565b3561008581610416565b9060ff905b9181191691161790565b9061044961008561045092610217565b825461042a565b9055565b3561008581610154565b905f199061042f565b6100856100856100859290565b9061048461008561045092610467565b825461045e565b903590601e193682900301821215610075570180359067ffffffffffffffff82116100755760200191602082023603831361007557565b903590601e193682900301821215610075570180359067ffffffffffffffff8211610075576020019136829003831361007557565b634e487b7160e01b5f52604160045260245ffd5b634e487b7160e01b5f52602260045260245ffd5b906001600283049216801561053f575b602083101461053a57565b61050b565b91607f169161052f565b9061055b905f19906020036008021c90565b8154169055565b915f1960089290920291821b911b61042f565b919061058661008561045093610467565b908354610562565b6100a7915f91610575565b8181106105a4575050565b806105b15f60019361058e565b01610599565b5f19600883021c1916906002021790565b905f916105e36105db825f5260205f2090565b9283546105b7565b905555565b919290602082101561063e57601f841160011461060a576104509293506105b7565b50906106396100a7936001610630610625855f5260205f2090565b92601f602091010490565b82019101610599565b6105c8565b5061067c82936106536001945f5260205f2090565b6106756020601f860104820192601f861680610684575b50601f602091010490565b0190610599565b600202179055565b61069090888603610549565b5f61066a565b929091600160401b82116106e757602011156106db5760208110156106be57610450916105b7565b60019160ff19166106d2845f5260205f2090565b55600202019055565b60019150600202019055565b6104f7565b9081546106f88161051f565b90818311610721575b81831061070f575b50505050565b610718936105e8565b5f808080610709565b61072d83838387610696565b610701565b5f6100a7916106ec565b905f0361074c576100a790610732565b610403565b81811061075c575050565b806107695f60019361073c565b01610751565b91909182821061077e57505050565b6100a7929161079190915f5260205f2090565b9182019101610751565b90600160401b81116106e757816107b36100a7935490565b9082815561076f565b9190601f81116107cb57505050565b6107db6100a7935f5260205f2090565b906020601f8401819004830193106107fb575b6020601f90910104610675565b90915081906107ee565b919067ffffffffffffffff82116106e75761082a82610824855461051f565b856107bc565b5f90601f83116001146108565761045092915f918361084b575b50506105b7565b013590505f80610844565b90601f1983169161086a855f5260205f2090565b925f5b8181106108a65750916002939185600196941061088e575b50505002019055565b01355f19601f84166008021c191690555f8080610885565b9293602060018192878601358155019501930161086d565b906100a79291610805565b906108d4838361079b565b6108e281925f5260205f2090565b905f925b8484106108f4575050505050565b600160208261090e6109078495876104c2565b90886108be565b019301930192916108e6565b906100a792916108c9565b3561008581610088565b906001600160a01b039061042f565b9061094e610085610450926103e4565b825461092f565b906104846100856104509290565b801515610093565b3561008581610963565b9061044961008561045092151590565b6006610a2460c06100a7946109a461099e5f8301610420565b86610439565b6109bc6109b360208301610454565b60018701610474565b6109d66109cc604083018361048b565b906002880161091a565b6109ee6109e560608301610454565b60038701610474565b610a066109fd60808301610925565b6004870161093e565b610a1e610a1560a08301610454565b60058701610955565b0161096b565b9101610975565b906100a791610985565b90610a446100a79260016103ed565b610a2b565b50505050610a545f90565b506001906100855f610467565b90601f01601f1916810190811067ffffffffffffffff8211176106e757604052565b906100a7610a9060405190565b9283610a61565b61008560e0610a83565b610aa9610a97565b905f8252602080808080808088015f81520160608152015f8152015f8152015f8152015f905250565b610085610aa1565b906100bd9061020d565b6100859081565b6100859054610ae4565b67ffffffffffffffff81116106e75760208091020190565b90610b1f610b1a83610af5565b610a83565b918252565b80545f939291610b40610b368361051f565b8085529360200190565b9160018116908115610b8f5750600114610b5957505050565b610b6a91929394505f5260205f2090565b915f925b818410610b7b5750500190565b805484840152602090930192600101610b6e565b92949550505060ff1916825215156020020190565b9061008591610b24565b906100a7610bc892610bbf60405190565b93848092610ba4565b0383610a61565b61008590610bae565b90610be1825490565b610bea81610b0d565b92610bfc60208501915f5260205f2090565b5f915b838310610c0c5750505050565b600160208192610c1b85610bcf565b815201920192019190610bff565b61008590610079565b6100859054610c29565b906100a7610ce16006610c4d610a97565b94610c62610c5c825460ff1690565b87610ada565b610c78610c7160018301610aeb565b6020880152565b610c8e610c8760028301610bd8565b6040880152565b610ca4610c9d60038301610aeb565b6060880152565b610cc3610cb360048301610c32565b6001600160a01b03166080880152565b610cd9610cd260058301610aeb565b60a0880152565b015460ff1690565b151560c0840152565b61008590610c3c565b610d0a61008591610d02610ad2565b5060016103ed565b610cea565b6001610d1e6100a7925f6103ed565b610975565b610d3861008591610d315f90565b505f6103ed565b5460ff169056fea164736f6c634300081a000a",
  "linkReferences": {},
  "deployedLinkReferences": {}
}