{
  "_format": "hh-sol-artifact-1",
  "contractName": "CompliantSmartWallet",
  "sourceName": "contracts/examples/CompliantSmartWallet.sol",
  "abi": [
    {
      "inputs": [
        {
          "internalType": "address",
          "name": "_owner",
          "type": "address"
        },
        {
          "internalType": "address",
          "name": "_complianceEngine",
          "type": "address"
        },
        {
          "internalType": "address",
          "name": "_fidesCompliance",
          "type": "address"
        },
        {
          "internalType": "address",
          "name": "_operator",
          "type": "address"
        },
        {
          "internalType": "address",
          "name": "_quarantineVault",
          "type": "address"
        }
      ],
      "stateMutability": "nonpayable",
      "type": "constructor"
    },
    {
      "inputs": [],
      "name": "BatchTooLarge",
      "type": "error"
    },
    {
      "inputs": [],
      "name": "ContractCallFailed",
      "type": "error"
    },
    {
      "inputs": [],
      "name": "DailyEthLimitExceeded",
      "type": "error"
    },
    {
      "inputs": [],
      "name": "DailyTokenLimitExceeded",
      "type": "error"
    },
    {
      "inputs": [],
      "name": "ECDSAInvalidSignature",
      "type": "error"
    },
    {
      "inputs": [
        {
          "internalType": "uint256",
          "name": "length",
          "type": "uint256"
        }
      ],
      "name": "ECDSAInvalidSignatureLength",
      "type": "error"
    },
    {
      "inputs": [
        {
          "internalType": "bytes32",
          "name": "s",
          "type": "bytes32"
        }
      ],
      "name": "ECDSAInvalidSignatureS",
      "type": "error"
    },
    {
      "inputs": [],
      "name": "EmptyBatch",
      "type": "error"
    },
    {
      "inputs": [],
      "name": "EthTransferFailed",
      "type": "error"
    },
    {
      "inputs": [
        {
          "internalType": "address",
          "name": "sender",
          "type": "address"
        },
        {
          "internalType": "bytes32",
          "name": "reasonCode",
          "type": "bytes32"
        }
      ],
      "name": "IncomingTransferDenied",
      "type": "error"
    },
    {
      "inputs": [],
      "name": "InsufficientAvailableBalance",
      "type": "error"
    },
    {
      "inputs": [],
      "name": "InvalidAddress",
      "type": "error"
    },
    {
      "inputs": [],
      "name": "InvalidSignature",
      "type": "error"
    },
    {
      "inputs": [],
      "name": "NoPendingChange",
      "type": "error"
    },
    {
      "inputs": [],
      "name": "NotOperator",
      "type": "error"
    },
    {
      "inputs": [],
      "name": "OperationAlreadyExecuted",
      "type": "error"
    },
    {
      "inputs": [],
      "name": "QuarantineFailed",
      "type": "error"
    },
    {
      "inputs": [],
      "name": "QuarantineVaultNotSet",
      "type": "error"
    },
    {
      "inputs": [],
      "name": "ReentrancyGuardReentrantCall",
      "type": "error"
    },
    {
      "inputs": [
        {
          "internalType": "address",
          "name": "token",
          "type": "address"
        }
      ],
      "name": "SafeERC20FailedOperation",
      "type": "error"
    },
    {
      "inputs": [],
      "name": "SignatureExpired",
      "type": "error"
    },
    {
      "inputs": [],
      "name": "TimelockNotExpired",
      "type": "error"
    },
    {
      "anonymous": false,
      "inputs": [
        {
          "indexed": true,
          "internalType": "address",
          "name": "token",
          "type": "address"
        },
        {
          "indexed": false,
          "internalType": "uint256",
          "name": "amount",
          "type": "uint256"
        },
        {
          "indexed": true,
          "internalType": "bytes32",
          "name": "recordId",
          "type": "bytes32"
        },
        {
          "indexed": false,
          "internalType": "string",
          "name": "reason",
          "type": "string"
        }
      ],
      "name": "AutoQuarantineTriggered",
      "type": "event"
    },
    {
      "anonymous": false,
      "inputs": [
        {
          "indexed": true,
          "internalType": "address",
          "name": "token",
          "type": "address"
        },
        {
          "indexed": false,
          "internalType": "uint256",
          "name": "amount",
          "type": "uint256"
        },
        {
          "indexed": false,
          "internalType": "string",
          "name": "reason",
          "type": "string"
        }
      ],
      "name": "BalanceFrozen",
      "type": "event"
    },
    {
      "anonymous": false,
      "inputs": [
        {
          "indexed": true,
          "internalType": "address",
          "name": "token",
          "type": "address"
        },
        {
          "indexed": false,
          "internalType": "uint256",
          "name": "amount",
          "type": "uint256"
        }
      ],
      "name": "BalanceReleased",
      "type": "event"
    },
    {
      "anonymous": false,
      "inputs": [
        {
          "indexed": false,
          "internalType": "uint256",
          "name": "count",
          "type": "uint256"
        },
        {
          "indexed": false,
          "internalType": "uint256",
          "name": "successCount",
          "type": "uint256"
        },
        {
          "indexed": false,
          "internalType": "uint256",
          "name": "blockedCount",
          "type": "uint256"
        }
      ],
      "name": "BatchExecuted",
      "type": "event"
    },
    {
      "anonymous": false,
      "inputs": [
        {
          "indexed": false,
          "internalType": "bool",
          "name": "success",
          "type": "bool"
        },
        {
          "indexed": false,
          "internalType": "string",
          "name": "reason",
          "type": "string"
        }
      ],
      "name": "BatchHookResult",
      "type": "event"
    },
    {
      "anonymous": false,
      "inputs": [
        {
          "indexed": true,
          "internalType": "address",
          "name": "engine",
          "type": "address"
        }
      ],
      "name": "ComplianceEngineSet",
      "type": "event"
    },
    {
      "anonymous": false,
      "inputs": [
        {
          "indexed": true,
          "internalType": "address",
          "name": "triggeredBy",
          "type": "address"
        }
      ],
      "name": "EmergencyPaused",
      "type": "event"
    },
    {
      "anonymous": false,
      "inputs": [
        {
          "indexed": true,
          "internalType": "address",
          "name": "triggeredBy",
          "type": "address"
        }
      ],
      "name": "EmergencyUnpaused",
      "type": "event"
    },
    {
      "anonymous": false,
      "inputs": [
        {
          "indexed": true,
          "internalType": "address",
          "name": "proposed",
          "type": "address"
        },
        {
          "indexed": false,
          "internalType": "uint256",
          "name": "effectiveTime",
          "type": "uint256"
        }
      ],
      "name": "EngineChangeProposed",
      "type": "event"
    },
    {
      "anonymous": false,
      "inputs": [
        {
          "indexed": true,
          "internalType": "address",
          "name": "vault",
          "type": "address"
        },
        {
          "indexed": false,
          "internalType": "uint256",
          "name": "amount",
          "type": "uint256"
        }
      ],
      "name": "EthQuarantinedToVault",
      "type": "event"
    },
    {
      "anonymous": false,
      "inputs": [
        {
          "indexed": true,
          "internalType": "address",
          "name": "sender",
          "type": "address"
        },
        {
          "indexed": false,
          "internalType": "uint256",
          "name": "amount",
          "type": "uint256"
        },
        {
          "indexed": false,
          "internalType": "string",
          "name": "reason",
          "type": "string"
        }
      ],
      "name": "IncomingTransferIntercepted",
      "type": "event"
    },
    {
      "anonymous": false,
      "inputs": [
        {
          "indexed": true,
          "internalType": "bytes32",
          "name": "opHash",
          "type": "bytes32"
        },
        {
          "indexed": true,
          "internalType": "address",
          "name": "executor",
          "type": "address"
        },
        {
          "indexed": true,
          "internalType": "bytes32",
          "name": "salt",
          "type": "bytes32"
        }
      ],
      "name": "OperationExecuted",
      "type": "event"
    },
    {
      "anonymous": false,
      "inputs": [
        {
          "indexed": true,
          "internalType": "bytes32",
          "name": "opHash",
          "type": "bytes32"
        },
        {
          "indexed": false,
          "internalType": "enum IWalletCompliance.OperationType",
          "name": "opType",
          "type": "uint8"
        },
        {
          "indexed": false,
          "internalType": "address",
          "name": "target",
          "type": "address"
        },
        {
          "indexed": false,
          "internalType": "uint256",
          "name": "value",
          "type": "uint256"
        },
        {
          "indexed": false,
          "internalType": "bool",
          "name": "success",
          "type": "bool"
        }
      ],
      "name": "OperationExecuted",
      "type": "event"
    },
    {
      "anonymous": false,
      "inputs": [
        {
          "indexed": true,
          "internalType": "address",
          "name": "current",
          "type": "address"
        },
        {
          "indexed": true,
          "internalType": "address",
          "name": "pending",
          "type": "address"
        }
      ],
      "name": "OwnerChangeProposed",
      "type": "event"
    },
    {
      "anonymous": false,
      "inputs": [
        {
          "indexed": true,
          "internalType": "address",
          "name": "newOwner",
          "type": "address"
        }
      ],
      "name": "OwnerChanged",
      "type": "event"
    },
    {
      "anonymous": false,
      "inputs": [
        {
          "indexed": true,
          "internalType": "address",
          "name": "vault",
          "type": "address"
        }
      ],
      "name": "QuarantineVaultSet",
      "type": "event"
    },
    {
      "anonymous": false,
      "inputs": [
        {
          "indexed": true,
          "internalType": "address",
          "name": "from",
          "type": "address"
        },
        {
          "indexed": false,
          "internalType": "uint256",
          "name": "amount",
          "type": "uint256"
        }
      ],
      "name": "Received",
      "type": "event"
    },
    {
      "anonymous": false,
      "inputs": [
        {
          "indexed": true,
          "internalType": "address",
          "name": "target",
          "type": "address"
        }
      ],
      "name": "TargetRemovedFromWhitelist",
      "type": "event"
    },
    {
      "anonymous": false,
      "inputs": [
        {
          "indexed": true,
          "internalType": "address",
          "name": "target",
          "type": "address"
        }
      ],
      "name": "TargetWhitelisted",
      "type": "event"
    },
    {
      "stateMutability": "payable",
      "type": "fallback"
    },
    {
      "inputs": [],
      "name": "ENGINE_CHANGE_TIMELOCK",
      "outputs": [
        {
          "internalType": "uint256",
          "name": "",
          "type": "uint256"
        }
      ],
      "stateMutability": "view",
      "type": "function"
    },
    {
      "inputs": [],
      "name": "MAX_BATCH_SIZE",
      "outputs": [
        {
          "internalType": "uint256",
          "name": "",
          "type": "uint256"
        }
      ],
      "stateMutability": "view",
      "type": "function"
    },
    {
      "inputs": [],
      "name": "acceptOwnership",
      "outputs": [],
      "stateMutability": "nonpayable",
      "type": "function"
    },
    {
      "inputs": [],
      "name": "autoQuarantineEnabled",
      "outputs": [
        {
          "internalType": "bool",
          "name": "",
          "type": "bool"
        }
      ],
      "stateMutability": "view",
      "type": "function"
    },
    {
      "inputs": [
        {
          "internalType": "address",
          "name": "",
          "type": "address"
        }
      ],
      "name": "availableBalances",
      "outputs": [
        {
          "internalType": "uint256",
          "name": "",
          "type": "uint256"
        }
      ],
      "stateMutability": "view",
      "type": "function"
    },
    {
      "inputs": [
        {
          "internalType": "address",
          "name": "target",
          "type": "address"
        },
        {
          "internalType": "uint256",
          "name": "value",
          "type": "uint256"
        },
        {
          "internalType": "bytes",
          "name": "data",
          "type": "bytes"
        }
      ],
      "name": "callContract",
      "outputs": [
        {
          "internalType": "bytes",
          "name": "",
          "type": "bytes"
        }
      ],
      "stateMutability": "nonpayable",
      "type": "function"
    },
    {
      "inputs": [],
      "name": "complianceEnabled",
      "outputs": [
        {
          "internalType": "bool",
          "name": "",
          "type": "bool"
        }
      ],
      "stateMutability": "view",
      "type": "function"
    },
    {
      "inputs": [],
      "name": "complianceEngine",
      "outputs": [
        {
          "internalType": "contract IWalletCompliance",
          "name": "",
          "type": "address"
        }
      ],
      "stateMutability": "view",
      "type": "function"
    },
    {
      "inputs": [
        {
          "internalType": "uint256",
          "name": "",
          "type": "uint256"
        }
      ],
      "name": "dailyEthSpent",
      "outputs": [
        {
          "internalType": "uint256",
          "name": "",
          "type": "uint256"
        }
      ],
      "stateMutability": "view",
      "type": "function"
    },
    {
      "inputs": [
        {
          "internalType": "address",
          "name": "",
          "type": "address"
        },
        {
          "internalType": "uint256",
          "name": "",
          "type": "uint256"
        }
      ],
      "name": "dailyTokenSpent",
      "outputs": [
        {
          "internalType": "uint256",
          "name": "",
          "type": "uint256"
        }
      ],
      "stateMutability": "view",
      "type": "function"
    },
    {
      "inputs": [],
      "name": "emergencyPause",
      "outputs": [],
      "stateMutability": "nonpayable",
      "type": "function"
    },
    {
      "inputs": [],
      "name": "emergencyPaused",
      "outputs": [
        {
          "internalType": "bool",
          "name": "",
          "type": "bool"
        }
      ],
      "stateMutability": "view",
      "type": "function"
    },
    {
      "inputs": [],
      "name": "emergencyUnpause",
      "outputs": [],
      "stateMutability": "nonpayable",
      "type": "function"
    },
    {
      "inputs": [
        {
          "components": [
            {
              "internalType": "enum IWalletCompliance.OperationType",
              "name": "opType",
              "type": "uint8"
            },
            {
              "internalType": "address",
              "name": "target",
              "type": "address"
            },
            {
              "internalType": "uint256",
              "name": "value",
              "type": "uint256"
            },
            {
              "internalType": "bytes",
              "name": "data",
              "type": "bytes"
            },
            {
              "internalType": "address",
              "name": "token",
              "type": "address"
            },
            {
              "internalType": "uint256",
              "name": "tokenAmount",
              "type": "uint256"
            },
            {
              "internalType": "uint256",
              "name": "chainId",
              "type": "uint256"
            }
          ],
          "internalType": "struct IWalletCompliance.Operation",
          "name": "op",
          "type": "tuple"
        }
      ],
      "name": "execute",
      "outputs": [
        {
          "internalType": "bytes",
          "name": "",
          "type": "bytes"
        }
      ],
      "stateMutability": "nonpayable",
      "type": "function"
    },
    {
      "inputs": [
        {
          "components": [
            {
              "internalType": "enum IWalletCompliance.OperationType",
              "name": "opType",
              "type": "uint8"
            },
            {
              "internalType": "address",
              "name": "target",
              "type": "address"
            },
            {
              "internalType": "uint256",
              "name": "value",
              "type": "uint256"
            },
            {
              "internalType": "bytes",
              "name": "data",
              "type": "bytes"
            },
            {
              "internalType": "address",
              "name": "token",
              "type": "address"
            },
            {
              "internalType": "uint256",
              "name": "tokenAmount",
              "type": "uint256"
            },
            {
              "internalType": "uint256",
              "name": "chainId",
              "type": "uint256"
            }
          ],
          "internalType": "struct IWalletCompliance.Operation[]",
          "name": "ops",
          "type": "tuple[]"
        }
      ],
      "name": "executeBatch",
      "outputs": [
        {
          "components": [
            {
              "internalType": "bool",
              "name": "success",
              "type": "bool"
            },
            {
              "internalType": "bytes",
              "name": "returnData",
              "type": "bytes"
            },
            {
              "internalType": "enum IAssetCompliance.Decision",
              "name": "decision",
              "type": "uint8"
            },
            {
              "internalType": "string",
              "name": "reason",
              "type": "string"
            }
          ],
          "internalType": "struct CompliantSmartWalletBase.OperationResult[]",
          "name": "results",
          "type": "tuple[]"
        }
      ],
      "stateMutability": "nonpayable",
      "type": "function"
    },
    {
      "inputs": [],
      "name": "executeEngineChange",
      "outputs": [],
      "stateMutability": "nonpayable",
      "type": "function"
    },
    {
      "inputs": [
        {
          "components": [
            {
              "internalType": "enum IWalletCompliance.OperationType",
              "name": "opType",
              "type": "uint8"
            },
            {
              "internalType": "address",
              "name": "target",
              "type": "address"
            },
            {
              "internalType": "uint256",
              "name": "value",
              "type": "uint256"
            },
            {
              "internalType": "bytes",
              "name": "data",
              "type": "bytes"
            },
            {
              "internalType": "address",
              "name": "token",
              "type": "address"
            },
            {
              "internalType": "uint256",
              "name": "tokenAmount",
              "type": "uint256"
            },
            {
              "internalType": "uint256",
              "name": "chainId",
              "type": "uint256"
            }
          ],
          "internalType": "struct IWalletCompliance.Operation",
          "name": "op",
          "type": "tuple"
        },
        {
          "internalType": "bytes",
          "name": "signature",
          "type": "bytes"
        },
        {
          "internalType": "uint256",
          "name": "deadline",
          "type": "uint256"
        },
        {
          "internalType": "bytes32",
          "name": "salt",
          "type": "bytes32"
        }
      ],
      "name": "executeWithSignature",
      "outputs": [
        {
          "internalType": "bytes",
          "name": "",
          "type": "bytes"
        }
      ],
      "stateMutability": "nonpayable",
      "type": "function"
    },
    {
      "inputs": [
        {
          "internalType": "bytes32",
          "name": "",
          "type": "bytes32"
        }
      ],
      "name": "executedOps",
      "outputs": [
        {
          "internalType": "bool",
          "name": "",
          "type": "bool"
        }
      ],
      "stateMutability": "view",
      "type": "function"
    },
    {
      "inputs": [],
      "name": "fidesCompliance",
      "outputs": [
        {
          "internalType": "contract IFidesCompliance",
          "name": "",
          "type": "address"
        }
      ],
      "stateMutability": "view",
      "type": "function"
    },
    {
      "inputs": [
        {
          "internalType": "address",
          "name": "",
          "type": "address"
        }
      ],
      "name": "frozenBalances",
      "outputs": [
        {
          "internalType": "uint256",
          "name": "",
          "type": "uint256"
        }
      ],
      "stateMutability": "view",
      "type": "function"
    },
    {
      "inputs": [
        {
          "internalType": "address",
          "name": "token",
          "type": "address"
        }
      ],
      "name": "getAvailableBalance",
      "outputs": [
        {
          "internalType": "uint256",
          "name": "",
          "type": "uint256"
        }
      ],
      "stateMutability": "view",
      "type": "function"
    },
    {
      "inputs": [],
      "name": "getDailyEthSpent",
      "outputs": [
        {
          "internalType": "uint256",
          "name": "",
          "type": "uint256"
        }
      ],
      "stateMutability": "view",
      "type": "function"
    },
    {
      "inputs": [
        {
          "internalType": "address",
          "name": "token",
          "type": "address"
        }
      ],
      "name": "getDailyTokenSpent",
      "outputs": [
        {
          "internalType": "uint256",
          "name": "",
          "type": "uint256"
        }
      ],
      "stateMutability": "view",
      "type": "function"
    },
    {
      "inputs": [
        {
          "internalType": "address",
          "name": "token",
          "type": "address"
        }
      ],
      "name": "getFrozenBalance",
      "outputs": [
        {
          "internalType": "uint256",
          "name": "",
          "type": "uint256"
        }
      ],
      "stateMutability": "view",
      "type": "function"
    },
    {
      "inputs": [],
      "name": "operationNonce",
      "outputs": [
        {
          "internalType": "uint256",
          "name": "",
          "type": "uint256"
        }
      ],
      "stateMutability": "view",
      "type": "function"
    },
    {
      "inputs": [],
      "name": "operator",
      "outputs": [
        {
          "internalType": "address",
          "name": "",
          "type": "address"
        }
      ],
      "stateMutability": "view",
      "type": "function"
    },
    {
      "inputs": [],
      "name": "owner",
      "outputs": [
        {
          "internalType": "address",
          "name": "",
          "type": "address"
        }
      ],
      "stateMutability": "view",
      "type": "function"
    },
    {
      "inputs": [],
      "name": "pendingComplianceEngine",
      "outputs": [
        {
          "internalType": "address",
          "name": "",
          "type": "address"
        }
      ],
      "stateMutability": "view",
      "type": "function"
    },
    {
      "inputs": [],
      "name": "pendingEngineChangeTime",
      "outputs": [
        {
          "internalType": "uint256",
          "name": "",
          "type": "uint256"
        }
      ],
      "stateMutability": "view",
      "type": "function"
    },
    {
      "inputs": [],
      "name": "pendingOwner",
      "outputs": [
        {
          "internalType": "address",
          "name": "",
          "type": "address"
        }
      ],
      "stateMutability": "view",
      "type": "function"
    },
    {
      "inputs": [],
      "name": "policy",
      "outputs": [
        {
          "internalType": "uint256",
          "name": "maxTxValue",
          "type": "uint256"
        },
        {
          "internalType": "uint256",
          "name": "maxTokenTxAmount",
          "type": "uint256"
        },
        {
          "internalType": "uint256",
          "name": "dailyEthLimit",
          "type": "uint256"
        },
        {
          "internalType": "uint256",
          "name": "dailyTokenLimit",
          "type": "uint256"
        },
        {
          "internalType": "bool",
          "name": "blockContractCalls",
          "type": "bool"
        },
        {
          "internalType": "bool",
          "name": "blockUnknownTokens",
          "type": "bool"
        },
        {
          "internalType": "bool",
          "name": "requireWhitelist",
          "type": "bool"
        }
      ],
      "stateMutability": "view",
      "type": "function"
    },
    {
      "inputs": [
        {
          "internalType": "address",
          "name": "newEngine",
          "type": "address"
        }
      ],
      "name": "proposeEngineChange",
      "outputs": [],
      "stateMutability": "nonpayable",
      "type": "function"
    },
    {
      "inputs": [
        {
          "internalType": "address",
          "name": "token",
          "type": "address"
        },
        {
          "internalType": "uint256",
          "name": "amount",
          "type": "uint256"
        },
        {
          "internalType": "string",
          "name": "reason",
          "type": "string"
        }
      ],
      "name": "quarantineAssets",
      "outputs": [
        {
          "internalType": "bytes32",
          "name": "recordId",
          "type": "bytes32"
        }
      ],
      "stateMutability": "nonpayable",
      "type": "function"
    },
    {
      "inputs": [
        {
          "internalType": "address",
          "name": "",
          "type": "address"
        },
        {
          "internalType": "uint256",
          "name": "",
          "type": "uint256"
        }
      ],
      "name": "quarantineRecordIds",
      "outputs": [
        {
          "internalType": "bytes32",
          "name": "",
          "type": "bytes32"
        }
      ],
      "stateMutability": "view",
      "type": "function"
    },
    {
      "inputs": [
        {
          "internalType": "bytes32",
          "name": "",
          "type": "bytes32"
        }
      ],
      "name": "quarantineRecords",
      "outputs": [
        {
          "internalType": "bytes32",
          "name": "recordId",
          "type": "bytes32"
        },
        {
          "internalType": "address",
          "name": "token",
          "type": "address"
        },
        {
          "internalType": "uint256",
          "name": "amount",
          "type": "uint256"
        },
        {
          "internalType": "uint256",
          "name": "timestamp",
          "type": "uint256"
        }
      ],
      "stateMutability": "view",
      "type": "function"
    },
    {
      "inputs": [],
      "name": "quarantineThreshold",
      "outputs": [
        {
          "internalType": "uint256",
          "name": "",
          "type": "uint256"
        }
      ],
      "stateMutability": "view",
      "type": "function"
    },
    {
      "inputs": [],
      "name": "quarantineVault",
      "outputs": [
        {
          "internalType": "contract QuarantineVault",
          "name": "",
          "type": "address"
        }
      ],
      "stateMutability": "view",
      "type": "function"
    },
    {
      "inputs": [
        {
          "internalType": "address",
          "name": "token",
          "type": "address"
        },
        {
          "internalType": "uint256",
          "name": "amount",
          "type": "uint256"
        },
        {
          "internalType": "bytes32",
          "name": "recordId",
          "type": "bytes32"
        }
      ],
      "name": "releaseQuarantinedAssets",
      "outputs": [],
      "stateMutability": "nonpayable",
      "type": "function"
    },
    {
      "inputs": [
        {
          "internalType": "address",
          "name": "target",
          "type": "address"
        }
      ],
      "name": "removeFromWhitelist",
      "outputs": [],
      "stateMutability": "nonpayable",
      "type": "function"
    },
    {
      "inputs": [
        {
          "internalType": "uint256",
          "name": "dayKey",
          "type": "uint256"
        }
      ],
      "name": "resetDailyEthSpent",
      "outputs": [],
      "stateMutability": "nonpayable",
      "type": "function"
    },
    {
      "inputs": [
        {
          "internalType": "address",
          "name": "token",
          "type": "address"
        },
        {
          "internalType": "uint256",
          "name": "dayKey",
          "type": "uint256"
        }
      ],
      "name": "resetDailyTokenSpent",
      "outputs": [],
      "stateMutability": "nonpayable",
      "type": "function"
    },
    {
      "inputs": [
        {
          "internalType": "bool",
          "name": "_enabled",
          "type": "bool"
        }
      ],
      "name": "setAutoQuarantineEnabled",
      "outputs": [],
      "stateMutability": "nonpayable",
      "type": "function"
    },
    {
      "inputs": [
        {
          "internalType": "bool",
          "name": "_enabled",
          "type": "bool"
        }
      ],
      "name": "setComplianceEnabled",
      "outputs": [],
      "stateMutability": "nonpayable",
      "type": "function"
    },
    {
      "inputs": [
        {
          "internalType": "address",
          "name": "_operator",
          "type": "address"
        }
      ],
      "name": "setOperator",
      "outputs": [],
      "stateMutability": "nonpayable",
      "type": "function"
    },
    {
      "inputs": [
        {
          "components": [
            {
              "internalType": "uint256",
              "name": "maxTxValue",
              "type": "uint256"
            },
            {
              "internalType": "uint256",
              "name": "maxTokenTxAmount",
              "type": "uint256"
            },
            {
              "internalType": "uint256",
              "name": "dailyEthLimit",
              "type": "uint256"
            },
            {
              "internalType": "uint256",
              "name": "dailyTokenLimit",
              "type": "uint256"
            },
            {
              "internalType": "bool",
              "name": "blockContractCalls",
              "type": "bool"
            },
            {
              "internalType": "bool",
              "name": "blockUnknownTokens",
              "type": "bool"
            },
            {
              "internalType": "bool",
              "name": "requireWhitelist",
              "type": "bool"
            },
            {
              "internalType": "address[]",
              "name": "allowedDex",
              "type": "address[]"
            },
            {
              "internalType": "address[]",
              "name": "blockedContracts",
              "type": "address[]"
            },
            {
              "internalType": "bytes32[]",
              "name": "whitelistedContracts",
              "type": "bytes32[]"
            }
          ],
          "internalType": "struct IWalletCompliance.WalletPolicy",
          "name": "_policy",
          "type": "tuple"
        }
      ],
      "name": "setPolicy",
      "outputs": [],
      "stateMutability": "nonpayable",
      "type": "function"
    },
    {
      "inputs": [
        {
          "internalType": "uint256",
          "name": "_threshold",
          "type": "uint256"
        }
      ],
      "name": "setQuarantineThreshold",
      "outputs": [],
      "stateMutability": "nonpayable",
      "type": "function"
    },
    {
      "inputs": [
        {
          "internalType": "address",
          "name": "_vault",
          "type": "address"
        }
      ],
      "name": "setQuarantineVault",
      "outputs": [],
      "stateMutability": "nonpayable",
      "type": "function"
    },
    {
      "inputs": [
        {
          "internalType": "address",
          "name": "to",
          "type": "address"
        },
        {
          "internalType": "uint256",
          "name": "amount",
          "type": "uint256"
        }
      ],
      "name": "transferETH",
      "outputs": [
        {
          "internalType": "bool",
          "name": "",
          "type": "bool"
        }
      ],
      "stateMutability": "nonpayable",
      "type": "function"
    },
    {
      "inputs": [
        {
          "internalType": "address",
          "name": "newOwner",
          "type": "address"
        }
      ],
      "name": "transferOwnership",
      "outputs": [],
      "stateMutability": "nonpayable",
      "type": "function"
    },
    {
      "inputs": [
        {
          "internalType": "address",
          "name": "token",
          "type": "address"
        },
        {
          "internalType": "address",
          "name": "to",
          "type": "address"
        },
        {
          "internalType": "uint256",
          "name": "amount",
          "type": "uint256"
        }
      ],
      "name": "transferToken",
      "outputs": [
        {
          "internalType": "bool",
          "name": "",
          "type": "bool"
        }
      ],
      "stateMutability": "nonpayable",
      "type": "function"
    },
    {
      "inputs": [
        {
          "internalType": "address",
          "name": "target",
          "type": "address"
        }
      ],
      "name": "whitelistTarget",
      "outputs": [],
      "stateMutability": "nonpayable",
      "type": "function"
    },
    {
      "inputs": [
        {
          "internalType": "address",
          "name": "",
          "type": "address"
        }
      ],
      "name": "whitelistedTargets",
      "outputs": [
        {
          "internalType": "bool",
          "name": "",
          "type": "bool"
        }
      ],
      "stateMutability": "view",
      "type": "function"
    },
    {
      "stateMutability": "payable",
      "type": "receive"
    }
  ],
  "bytecode": "0x60806040523461002e5761001d6100146100fb565b93929092610120565b604051615352610825823961535290f35b5f80fd5b634e487b7160e01b5f52604160045260245ffd5b90601f01601f191681019081106001600160401b0382111761006757604052565b610032565b9061008061007960405190565b9283610046565b565b6001600160a01b031690565b90565b6001600160a01b0381160361002e57565b9050519061008082610091565b919060a08382031261002e576100c581846100a2565b926100d382602083016100a2565b9261008e6100e484604085016100a2565b9360806100f482606087016100a2565b94016100a2565b610119615b778038038061010e8161006c565b9283398101906100af565b9091929394565b906100809493929161059f565b9060ff60a01b9060a01b5b9181191691161790565b9061015261008e61015992151590565b825461012d565b9055565b9060ff90610138565b9061017661008e61015992151590565b825461015d565b905f1990610138565b61008e61008e61008e9290565b906101a361008e61015992610186565b825461017d565b61008261008e61008e9290565b61008e906101aa565b906001600160a01b0390610138565b61008e90610082906001600160a01b031682565b61008e906101cf565b61008e906101e3565b9061020561008e610159926101ec565b82546101c0565b6001600160401b0381116100675760208091020190565b906102356102308361020c565b61006c565b918252565b369037565b9061008061025561024f84610223565b9361020c565b601f19016020840161023a565b61008e61014061006c565b9061ff009060081b610138565b9061028a61008e61015992151590565b825461026d565b9062ff00009060101b610138565b906102af61008e61015992151590565b8254610291565b915f1960089290920291821b911b610138565b91906102da61008e61015993610186565b9083546102b6565b610080915f916102c9565b8181106102f8575050565b806103055f6001936102e2565b016102ed565b91909182821061031a57505050565b610080929161032e905b915f5260205f2090565b91820191016102ed565b906801000000000000000081116100675781610355610080935490565b9082815561030b565b8151916001600160401b038311610067576103926103886001926103828686610338565b60200190565b925f5260205f2090565b9204915f5b8381106103a45750505050565b60019060206103bd61008e86516001600160a01b031690565b9401938184015501610397565b906100809161035e565b91906102da61008e6101599390565b610080915f916103d4565b8181106103f9575050565b806104065f6001936103e3565b016103ee565b91909182821061041b57505050565b610080929161042990610324565b91820191016103ee565b906801000000000000000081116100675781610450610080935490565b9082815561040c565b8151916001600160401b0383116100675761047d6103886001926103828686610433565b9204915f5b83811061048f5750505050565b600190602061049f61008e865190565b9401938184015501610482565b9061008091610459565b600761058e610120610080946104d56104cf5f83015190565b86610193565b6104ec6104e3602083015190565b60018701610193565b6105036104fa604083015190565b60028701610193565b61051a610511606083015190565b60038701610193565b61055a600486016105376105316080850151151590565b82610166565b61054d61054760a0850151151590565b8261027a565b60c083015115159061029f565b61057161056860e083015190565b600587016103ca565b61058961058061010083015190565b600687016103ca565b015190565b91016104ac565b90610080916104b6565b91929390936105ac6107d6565b6105b860016004610142565b6105c460016013610166565b6105d8683635c9adc5dea000006014610193565b6105e15f6101b7565b6001600160a01b0381166001600160a01b038516146107bb576001600160a01b0381166001600160a01b038716146107bb576001600160a01b0381166001600160a01b038616146107bb576001600160a01b0381166001600160a01b038316146107bb576001600160a01b03166001600160a01b038316146107bb57843b61066f61066b5f610186565b9190565b146107bb57833b61068261066b5f610186565b146107bb57813b61069561066b5f610186565b146107bb576106d26106d9946106c66106cb6106e0986106c66106c6966106bf6106c69a5f6101f5565b60186101f5565b6101ec565b60026101f5565b60036101f5565b60046101f5565b6100806106ec5f610186565b6107b46106f88261023f565b916107ac61070e6107088361023f565b9261023f565b916107a461071a610262565b9561073461073068056bc75e2d63100000610186565b8852565b61075161074a69d3c21bcecceda1000000610186565b6020890152565b61076d610766681b1ae4d6e2ef500000610186565b6040890152565b61078b6107846a0422ca8b0a00a425000000610186565b6060890152565b5f60808801525f60a08801525f60c088015260e0870152565b610100850152565b610120830152565b6009610595565b63e6c4247b60e01b5f908152600490fd5b61008e6001610186565b6100806107e16107cc565b5f6107ed61008e61081c565b01610193565b61008e7f9b779b17422d0df92223018b32b4d1fa46e071723d6817e2486d003becc55f00610186565b61008e6107f356fe6080604052600436101561001d575b366142be5761001b6141d5565b005b5f3560e01c806303d8a8761461035c5780630505c8c9146103575780630ad9e7bf1461035257806313390c041461034d5780631cfda9fa146103485780631deacdf61461034357806322c227411461033e5780632447213d14610339578063245afe2d1461033457806324d78c051461032f57806327c830a91461032a5780633af55696146103255780634a4e3bd5146103205780634e3f10021461031b57806351858e2714610316578063570ca7351461031157806361eaaa041461030c578063645b99fa14610307578063698bf6fb146103025780636c24a76f146102fd5780636ee37dfa146102f857806376aa984e146102f357806379ba5097146102ee5780637b1a4909146102e95780637b95bb03146102e457806383129b9a146102df5780638ab1d681146102da5780638da5cb5b146102d55780638da952d0146102d057806394fbdbd0146102cb5780639cbcd65b146102c65780639f2cfaf1146102c1578063a7f4aaed146102bc578063b3ab15fb146102b7578063b66e18cb146102b2578063bb0891e6146102ad578063c674c87b146102a8578063c677945a146102a3578063c8f4eb6b1461029e578063cd15fc3014610299578063cf104ee414610294578063cfdbf2541461028f578063d83c82701461028a578063dc3774b314610285578063e04e77f714610280578063e30c39781461027b578063ef7fa1ab14610276578063f0c4265a14610271578063f2fde38b1461026c578063f5537ede14610267578063f9b231cb146102625763fb9ed2570361000e576110ea565b6110c3565b6110a7565b611066565b61103e565b610ec2565b610e9c565b610e79565b610e35565b610e0b565b610de4565b610dba565b610d9f565b610d70565b610d4a565b610d32565b610d17565b610ced565b610cd5565b610cba565b610c9f565b610c83565b610c0b565b610bbc565b610b96565b610b74565b610b58565b610b28565b610b0c565b610af4565b610ad9565b610a99565b610a73565b610a58565b610a26565b6109ef565b6109b3565b610990565b610975565b610952565b61093a565b61090d565b6108cb565b61085b565b610738565b6106fb565b610647565b6105f3565b6105db565b61059b565b6104ed565b6103d8565b6001600160a01b031690565b90565b6001600160a01b0381165b0361038257565b5f80fd5b9050359061039382610370565b565b8061037b565b9050359061039382610395565b90916060828403126103825761036d6103c18484610386565b9360406103d1826020870161039b565b940161039b565b34610382576103f16103eb3660046103a8565b91611560565b604051005b0390f35b5f91031261038257565b61036d9081565b61036d9054610404565b61036d905b60ff1690565b61036d9054610415565b61036d9060081c61041a565b61036d905461042a565b61036d9060101c61041a565b61036d9054610440565b60096104618161040b565b9161046e6001830161040b565b9161047b6002820161040b565b916104886003830161040b565b9161049560048201610420565b9161036d60046104a6818501610436565b930161044c565b9052565b90815260e08101979695909490939092909160208601526040850152606084015215156080830152151560a082015260c0016103939115159052565b34610382576104fd3660046103fa565b6103f6610508610456565b9361051897959793919360405190565b978897886104b1565b906020828203126103825761036d91610386565b61036d90610361906001600160a01b031682565b61036d90610535565b61036d90610549565b9061056590610552565b5f5260205260405f2090565b61036d916008021c81565b9061036d9154610571565b5f61059661036d92601561055b565b61057c565b34610382576103f66105b66105b1366004610521565b610587565b6040515b9182918290815260200190565b906020828203126103825761036d9161039b565b34610382576103f16105ee3660046105c7565b6115c8565b34610382576103f1610606366004610521565b611684565b61036d916008021c610361565b9061036d915461060b565b61036d5f6004610618565b6104ad90610552565b602081019291610393919061062e565b34610382576106573660046103fa565b6103f6610662610623565b60405191829182610637565b90610565565b61036d90610361565b61036d9054610674565b61069290601961066e565b9061069c8261040b565b916106a96001820161067d565b9161036d60036106bb6002850161040b565b930161040b565b6106f7610393946106f06060949897956106e0608086019a5f870152565b6001600160a01b03166020850152565b6040830152565b0152565b34610382576103f66107166107113660046105c7565b610687565b9061072394929460405190565b948594856106c2565b61036d60016011610618565b34610382576107483660046103fa565b6103f661075361072c565b604051918291826001600160a01b03909116815260200190565b908160e09103126103825790565b909182601f83011215610382578135916001600160401b03831161038257602001926001830284011161038257565b916080838303126103825782356001600160401b03811161038257826107d191850161076d565b926020810135916001600160401b038311610382576107f58461036d94840161077b565b93909460606103d1826040870161039b565b90825f9392825e0152565b61083361083c60209361084693610827815190565b80835293849260200190565b95869101610807565b601f01601f191690565b0190565b602080825261036d92910190610812565b34610382576103f661087a6108713660046107aa565b93929092611e50565b6040519182918261084a565b916060838303126103825761089b8284610386565b926108a9836020830161039b565b9260408201356001600160401b038111610382576108c7920161077b565b9091565b34610382576103f661087a6108e1366004610886565b929190916121c4565b61036d916008021c61041a565b9061036d91546108ea565b61036d5f60116108f7565b346103825761091d3660046103fa565b6103f6610928610902565b60405191829182901515815260200190565b34610382576103f161094d3660046105c7565b612202565b34610382576109623660046103fa565b6103f161225b565b61036d5f600561057c565b34610382576109853660046103fa565b6103f66105b661096a565b34610382576109a03660046103fa565b6103f16122e2565b61036d5f6018610618565b34610382576109c33660046103fa565b6103f66107536109a8565b61036d61036d61036d9290565b61036d6202a3006109ce565b61036d6109db565b34610382576109ff3660046103fa565b6103f66105b66109e7565b91906040838203126103825761036d9060206103d18286610386565b34610382576103f1610a39366004610a0a565b90612319565b90610565906109ce565b5f61059661036d926007610a3f565b34610382576103f66105b6610a6e3660046105c7565b610a49565b34610382576103f66105b6610a89366004610521565b612323565b61036d5f601461057c565b3461038257610aa93660046103fa565b6103f66105b6610a8e565b906020828203126103825781356001600160401b0381116103825761036d920161076d565b34610382576103f661087a610aef366004610ab4565b6123ac565b3461038257610b043660046103fa565b6103f161241a565b34610382576103f6610928610b22366004610a0a565b906126bf565b3461038257610b383660046103fa565b6103f16127b2565b61059661036d92610b535f93600861055b565b610a3f565b34610382576103f66105b6610b6e366004610a0a565b90610b40565b34610382576103f1610b87366004610521565b61280a565b61036d5f80610618565b3461038257610ba63660046103fa565b6103f6610753610b8c565b61036d5f60136108f7565b3461038257610bcc3660046103fa565b6103f6610928610bb1565b90816101409103126103825790565b906020828203126103825781356001600160401b0381116103825761036d9201610bd7565b34610382576103f1610c1e366004610be6565b612b51565b634e487b7160e01b5f52603260045260245ffd5b8054821015610c5757610c4f6001915f5260205f2090565b910201905f90565b610c23565b610c6790601661055b565b80548210156103825761036d91610c7d91610c37565b9061057c565b34610382576103f66105b6610c99366004610a0a565b90610c5c565b34610382576103f66105b6610cb5366004610521565b612b5a565b3461038257610cca3660046103fa565b6103f66105b6612b93565b34610382576103f1610ce8366004610521565b612bee565b34610382576103f66105b6610d03366004610886565b929190916130a6565b61036d5f601261057c565b3461038257610d273660046103fa565b6103f66105b6610d0c565b34610382576103f1610d45366004610521565b613138565b34610382576103f66105b6610d60366004610521565b613141565b61036d5f6002610618565b3461038257610d803660046103fa565b6103f6610662610d65565b5f610d9a61036d92601a61066e565b6108f7565b34610382576103f6610928610db53660046105c7565b610d8b565b34610382576103f1610dcd366004610521565b613223565b61036d60326109ce565b61036d610dd2565b3461038257610df43660046103fa565b6103f66105b6610ddc565b61036d601460046108f7565b3461038257610e1b3660046103fa565b6103f6610928610dff565b5f61059661036d92601761055b565b34610382576103f66105b6610e4b366004610521565b610e26565b80151561037b565b9050359061039382610e50565b906020828203126103825761036d91610e58565b34610382576103f1610e8c366004610e65565b613275565b61036d5f6001610618565b3461038257610eac3660046103fa565b6103f6610753610e91565b61036d5f6003610618565b3461038257610ed23660046103fa565b6103f6610662610eb7565b909182601f83011215610382578135916001600160401b03831161038257602001926020830284011161038257565b906020828203126103825781356001600160401b038111610382576108c79201610edd565b634e487b7160e01b5f52602160045260245ffd5b60041115610f4f57565b610f31565b9061039382610f45565b61036d90610f54565b6104ad90610f5e565b80511515825261036d916060610f956080830160208501518482036020860152610812565b92610fa860408201516040850190610f67565b0151906060818403910152610812565b9061036d91610f70565b90610fd8610fce835190565b8083529160200190565b9081610fea6020830284019460200190565b925f915b838310610ffd57505050505090565b9091929394602061102061101983856001950387528951610fb8565b9760200190565b9301930191939290610fee565b602080825261036d92910190610fc2565b34610382576103f661105a611054366004610f0c565b90613c34565b6040519182918261102d565b34610382576103f1611079366004610521565b613cc0565b90916060828403126103825761036d6110978484610386565b9360406103d18260208701610386565b34610382576103f66109286110bd36600461107e565b91613ef6565b34610382576103f16110d6366004610e65565b613f20565b5f610d9a61036d92600661055b565b34610382576103f6610928611100366004610521565b6110db565b1561110c57565b60405162461bcd60e51b81526020600482015260156024820152742737ba1037b832b930ba37b91037b91037bbb732b960591b6044820152606490fd5b0390fd5b906103939291611160610361601861067d565b33148015611177575b61117290611105565b611190565b506111726111876103615f61067d565b33149050611169565b906111a3929161119e6142cd565b6112f2565b6103936142fc565b634e487b7160e01b5f52604160045260245ffd5b90601f01601f191681019081106001600160401b038211176111e057604052565b6111ab565b6040513d5f823e3d90fd5b634e487b7160e01b5f52601160045260245ffd5b9190820391821161121157565b6111f0565b905f19905b9181191691161790565b9061123561036d61123c926109ce565b8254611216565b9055565b9190820180921161121157565b915f1960089290920291821b911b61121b565b919061126f61036d61123c9390565b90835461124d565b610393915f91611260565b919061126f61036d61123c936109ce565b610393915f91611282565b5f6003610393926112b183808301611277565b8260018201556112c48360028301611293565b01611293565b634e487b7160e01b5f525f60045260245ffd5b905f036112ed576103939061129e565b6112ca565b90916112fd5f6109ce565b831461154f5761131161036d82601961066e565b61131a8161040b565b61132d61132961036d5f6109ce565b9190565b146115175761133e6001820161067d565b6113596001600160a01b0385165b916001600160a01b031690565b036114e157600261136a910161040b565b8390036114aa5761138461137f83601561055b565b61040b565b83116114955761139c611397600461067d565b610552565b803b15610382575f6113ad60405190565b63c92ee04360e01b815260048101849052918290602490829084905af19283156114905761139761146e93611464937f3cb50900cb5f9de3ef4c3deb4bd3a97154b01e866df20b2c88781e40a6a9dc8896611473575b5061142a61141284601561055b565b6114248961141f8361040b565b611204565b90611225565b61144a61143884601761055b565b611424896114458361040b565b611240565b61145e5f61145983601961066e565b6112dd565b82614342565b926105ba60405190565b0390a2565b61148a905f61148281836111bf565b8101906103fa565b5f611403565b6111e5565b63528ef59f60e11b5f908152600490fd5b035ffd5b60405162461bcd60e51b815260206004820152600f60248201526e082dadeeadce840dad2e6dac2e8c6d608b1b6044820152606490fd5b60405162461bcd60e51b815260206004820152600e60248201526d0a8ded6cadc40dad2e6dac2e8c6d60931b6044820152606490fd5b60405162461bcd60e51b815260206004820152601060248201526f149958dbdc99081b9bdd08199bdd5b9960821b6044820152606490fd5b63e6c4247b60e01b5f908152600490fd5b90610393929161114d565b1561157257565b60405162461bcd60e51b81526020600482015260096024820152682737ba1037bbb732b960b91b6044820152606490fd5b610393906115bd6115b66103615f61067d565b331461156b565b610393906014611225565b610393906115a3565b610393906115e46115b66103615f61067d565b61161f565b61036161036d61036d9290565b61036d906115e9565b9060ff9061121b565b9061161861036d61123c92151590565b82546115ff565b61162b6103615f6115f6565b6001600160a01b0382161461154f5780611397600161164e61165394600661055b565b611608565b7f3d5490c3a5f2e74f927ed836bbeb02e5cf4f5e601f134742ec4c00235710b08261167d60405190565b808061146e565b610393906115d1565b1561169457565b60405162461bcd60e51b8152602060048201526015602482015274456d657267656e6379206d6f64652061637469766560581b6044820152606490fd5b9061036d95949392916116f36116ee6116ea6011610420565b1590565b61168d565b9061170995949392916117046142cd565b611af9565b906103936142fc565b600c111561038257565b600c1115610f4f57565b906103938261171c565b3561036d81611712565b3561036d81610370565b3561036d81610395565b903590601e19368290030182121561038257018035906001600160401b038211610382576020019136829003831361038257565b9061039361178f60405190565b92836111bf565b6001600160401b0381116111e057602090601f01601f19160190565b90825f939282370152565b909291926117d26117cd82611796565b611782565b9381855281830111610382576103939160208501906117b2565b61036d9136916117bd565b61036d90611726565b6104ad906117f7565b979593919a9998969492909a61014089019b5f8a01611826919052565b6001600160a01b031660208901526040880161184191611800565b6001600160a01b03166060870152608086015260a08501526001600160a01b031660c084015260e08301526101008201526101200152565b61036d9060a01c61041a565b61036d9054611879565b9050359061039382611712565b5061036d90602081019061188f565b5061036d906020810190610386565b5061036d90602081019061039b565b9035601e1936839003018112156103825701602081359101916001600160401b0382116103825736829003831361038257565b919061083c81611913816108469560209181520190565b80956117b2565b9061036d9060c06119d261199160e0840161193f611938888061189c565b8690611800565b61195f61194f60208901896118ab565b6001600160a01b03166020870152565b61197661196f60408901896118ba565b6040870152565b61198360608801886118c9565b9086830360608801526118fc565b946119b26119a260808301836118ab565b6001600160a01b03166080860152565b6119c96119c260a08301836118ba565b60a0860152565b828101906118ba565b910152565b6001600160a01b03909116815261036d916040820191602081840391015261191a565b9080601f830112156103825781602061036d933591016117bd565b91909160e08184031261038257611a2c60e0611782565b92611a37818361188f565b8452611a468160208401610386565b6020850152611a58816040840161039b565b604085015260608201356001600160401b0381116103825782611a828360c093611ab196016119fa565b6060870152611a948360808301610386565b6080870152611aa68360a0830161039b565b60a08701520161039b565b60c0830152565b61036d903690611a15565b6001600160a01b039091168152929161039391604090611af09060608701905b878203602089015261191a565b94019015159052565b5090939092909190804211611e3f57611ba2611b1430610552565b611b1d86611730565b90611b96611b2d6020890161173a565b9487611b3b60408b01611744565b8a611b52611b4c606083018361174e565b906117ec565b611b64611b5d825190565b9160200190565b20611b7d60a0611b766080850161173a565b9301611744565b92611b8760405190565b9a8b9960208b0199468b611809565b908103825203826111bf565b611bad611b5d825190565b2093611bc2611bbd86601a61066e565b610420565b611e2e57611c04611c0a92611bfe877f19457468657265756d205369676e6564204d6573736167653a0a3332000000005f52601c52603c5f2090565b926117ec565b906143af565b90611c145f6115f6565b936001600160a01b0385166001600160a01b038416148015611e10575b611dff57611329611c4f8261036d600161164e611c5596601a61066e565b93610552565b917f48686cca1e5c197c526f0150601119b033f9fdb1c54ad0600f21ddff63a673d9611c8060405190565b5f90a4611c8d6004611885565b80611dd8575b611d61575b611ca9611ca482611ab8565b6143cf565b91611cb46004611885565b9081611d37575b50611cc4575090565b611cd1611397600261067d565b90611cdb5f61067d565b823b1561038257611d0f925f9283600193611cf560405190565b96879586948593633dcdee0760e01b855260048501611ac3565b03925af19081611d22575b5061036d5790565b611d31905f61148281836111bf565b5f611d1a565b9050611d5961134c611d4c611397600261067d565b926001600160a01b031690565b14155f611cbb565b611d6e611397600261067d565b611d775f61067d565b90803b1561038257825f91611dae93611d8f60405190565b809581948293611da363c538fec060e01b90565b8452600484016119d7565b03915afa801561149057611dc3575b50611c98565b611dd2905f61148281836111bf565b5f611dbd565b50611de6611397600261067d565b611df86001600160a01b03841661134c565b1415611c93565b638baa579f60e01b5f908152600490fd5b50611e1d6103615f61067d565b6001600160a01b0384161415611c31565b632e108c6960e21b5f908152600490fd5b630819bdcd60e01b5f908152600490fd5b61036d949392919060606116d1565b9061036d94939291611e766115b66103615f61067d565b9061036d94939291611e8e6116ee6116ea6011610420565b9061170994939291611e9e6142cd565b611ff1565b61036d60e0611782565b906104ad90611726565b909161084690839080936117b2565b909161036d92611eb7565b90611ede6117cd83611796565b918252565b3d15611efc57611ef23d611ed1565b903d5f602084013e565b606090565b5f1981146112115760010190565b9061036d9060c080611f6260e08401611f2e5f8801515f870190611800565b6020878101516001600160a01b031690860152611f5060408801516040870152565b60608701518582036060870152610812565b6080808701516001600160a01b03169085015294611f8560a082015160a0860152565b0151910152565b611fb9610393946106f0611fb16060959998969960808601908682035f880152611f0f565b986020850152565b01906001600160a01b03169052565b611fe9610393946106f06060949897956106e0608086019a5f870190611800565b019015159052565b50611ffb5f6115f6565b936001600160a01b0385166001600160a01b0383161461154f5761201e30610552565b9083823110611495575f80612031611ea3565b9261203f6001838601611ead565b6001600160a01b0386166020850152612059876040860152565b61206d612066828a6117ec565b6060860152565b6001600160a01b0389166080850152612085826109ce565b976120918960a0870152565b61209c4660c0870152565b6120a66004611885565b6121ad575b6120b485614799565b6120bf898b8a614a3b565b6120d46120cb60405190565b92839283611ec6565b039087875af1946120e3611ee3565b96861561219157505061215e5f8051602061530683398151915294939261214f612173936121116004611885565b612179575b612120600561040b565b61213361212c82611f01565b6005611225565b611b9661213f60405190565b9485936020850193469185611f8c565b61215a611b5d825190565b2090565b9461216860405190565b938493600185611fc8565b0390a290565b61218c89826121875f61067d565b614bb7565b612116565b61219c925085614ac4565b63024d9cdb60e01b5f908152600490fd5b6121bf856121ba8561067d565b614672565b6120ab565b61036d939291906060611e5f565b610393906121e56115b66103615f61067d565b610393906121fd6121f55f6109ce565b916007610a3f565b611225565b610393906121d2565b61221a6115b66103615f61067d565b6103936122285f6011611608565b61223133610552565b7ff5cbf596165cc457b2cd92e8d8450827ee314968160a5696402d75766fc52caf61167d60405190565b61039361220b565b612270610361601861067d565b3314801561228a575b61228290611105565b6103936122a3565b5061228261229a6103615f61067d565b33149050612279565b6122af60016011611608565b6122b833610552565b7fb8fad2fa0ed7a383e747c309ef2c4391d7b65592a48893e57ccc1fab7079145661167d60405190565b610393612263565b90610393916122fe6115b66103615f61067d565b6121fd61039392610b536123115f6109ce565b93600861055b565b90610393916122ea565b61137f61036d916123315f90565b50601761055b565b9061036d9161234d6115b66103615f61067d565b9061036d9161235c6004611885565b1561237c5761237c61236d5f61067d565b61237684611ab8565b90614672565b9061036d916123916116ee6116ea6011610420565b906117099161239e6142cd565b61036d91611ca49150611ab8565b61036d906060612339565b906001600160a01b039061121b565b906123d661036d61123c92610552565b82546123b7565b916001600160a01b0360089290920291821b911b61121b565b919061240761036d61123c93610552565b9083546123dd565b610393915f916123f6565b612427610361600161067d565b33036124815761244061243a600161067d565b5f6123c6565b61244b5f600161240f565b6124576113975f61067d565b7fa2ea9883a321a3e97b8266c2b078bfeec6d50c711ed71f874a90d500ae2eaf3661167d60405190565b60405162461bcd60e51b81526020600482015260116024820152702737ba103832b73234b7339037bbb732b960791b6044820152606490fd5b9061036d92916124cf6115b66103615f61067d565b9061036d92916124e56116ee6116ea6011610420565b9061170992916124f36142cd565b612509565b61036d5f611ed1565b61036d6124f8565b506125135f6115f6565b916001600160a01b0383166001600160a01b0383161480156126ae575b61154f5761253d83614c44565b61254b61137f84601761055b565b811161149557612559611ea3565b6125635f82611ead565b6001600160a01b038316602082015261257d826040830152565b61258f612588612501565b6060830152565b6001600160a01b03841660808201526125a75f6109ce565b6125b28160a0840152565b6125bd4660c0840152565b6125c76004611885565b61269c575b6125d582614799565b6125e0818685614a3b565b5f806125eb60405190565b5f9086885af1946125fa611ee3565b508515612680575050906126555f80516020615306833981519152926126206004611885565b61266d575b61214f612632600561040b565b9161263f61212c84611f01565b61264830610552565b92611b9661213f60405190565b926121738561266360405190565b9384935f85611fc8565b61267b86826121875f61067d565b612625565b61268b925083614ac4565b630db2c7f160e31b5f908152600490fd5b6126a9826121ba5f61067d565b6125cc565b506126b85f6109ce565b8114612530565b61036d91905f6124ba565b6126d96115b66103615f61067d565b6103936126f7565b61036d9060081c610361565b61036d90546126e1565b61270160116126ed565b61271061134c6103615f6115f6565b146127a15761272261036d601261040b565b42106127905761273f61273861139760116126ed565b60026123c6565b61274c61139760116126ed565b7ffb6fb1ffa5ce9f6148489aa41ebd619a443018a4b6305499e686c0c503d9f45361277660405190565b5f90a26127856001601161240f565b6103935f6012611293565b63621e25c360e01b5f908152600490fd5b63147fde5f60e31b5f908152600490fd5b6103936126ca565b610393906127cd6115b66103615f61067d565b6127e0906113975f61164e83600661055b565b7f09443fc4fa9f38ce51944d7db4f773a5ffb81b85d76c7119b37194b3d831256761167d60405190565b610393906127ba565b610393906128266115b66103615f61067d565b612b46565b3561036d81610e50565b9061ff009060081b61121b565b9061285261036d61123c92151590565b8254612835565b9062ff00009060101b61121b565b9061287761036d61123c92151590565b8254612859565b903590601e19368290030182121561038257018035906001600160401b0382116103825760200191602082023603831361038257565b8181106128bf575050565b806128cc5f600193611293565b016128b4565b9190918282106128e157505050565b61039392916128f5905b915f5260205f2090565b91820191016128b4565b90600160401b81116111e05781612917610393935490565b908281556128d2565b906001600160401b0383116111e05761294c61294260019261036d86866128ff565b925f5260205f2090565b9204915f5b83811061295e5750505050565b600190602061296f61036d8661173a565b9401938184015501612951565b906103939291612920565b818110612992575050565b8061299f5f600193611277565b01612987565b9190918282106129b457505050565b61039392916129c2906128eb565b9182019101612987565b90600160401b81116111e057816129e4610393935490565b908281556129a5565b906001600160401b0383116111e057612a0f61294260019261036d86866129cc565b9204915f5b838110612a215750505050565b6001906020612a3261036d86611744565b9401938184015501612a14565b9061039392916129ed565b600790612b3361039393612a68612a625f8301611744565b84611225565b612a80612a7760208301611744565b60018501611225565b612a98612a8f60408301611744565b60028501611225565b612ab0612aa760608301611744565b60038501611225565b612af360048401612acc612ac66080850161282b565b82611608565b612ae1612adb60a0850161282b565b82612842565b612aed60c0840161282b565b90612867565b612b0d612b0360e083018361287e565b906005860161297c565b612b28612b1e61010083018361287e565b906006860161297c565b61012081019061287e565b92909101612a3f565b9061039391612a4a565b610393906009612b3c565b61039390612813565b61137f61036d91612b685f90565b50601561055b565b634e487b7160e01b5f52601260045260245ffd5b8115612b8e570490565b612b70565b61036d61137f612bae612ba8620151806109ce565b42612b84565b6007610a3f565b61039390612bc86115b66103615f61067d565b612bd46103615f6115f6565b6001600160a01b0382161461154f576103939060186123c6565b61039390612bb5565b9061036d94939291612c0c610361601861067d565b33148015612c23575b612c1e90611105565b612c3c565b50612c1e612c336103615f61067d565b33149050612c15565b9061170994939291612c4c6142cd565b612d8c565b9050519061039382610395565b906020828203126103825761036d91612c51565b90939161036d95936106f0612c9a926106e060808601985f8701906001600160a01b03169052565b60608185039101526118fc565b90815491600160401b8310156111e05782612cca91600161039395018155610c37565b90611260565b61036d6080611782565b9061123561036d61123c9290565b6003612d42606061039394612d06612d005f83015190565b86612cda565b612d26612d1d60208301516001600160a01b031690565b600187016123c6565b612d3d612d34604083015190565b60028701611225565b015190565b9101611225565b9061039391612ce8565b6104ad906001600160a01b031660601b90565b01918252565b018092612d53565b90815260406020820181905261036d939101916118fc565b50939291612d995f6109ce565b821461154f57612dac611397600461067d565b94612db65f6115f6565b6001600160a01b0381166001600160a01b03881614613095576001600160a01b0381166001600160a01b03831603612f3f57612df2600561040b565b612dfe61212c82611f01565b612e41612e0a60405190565b8092611b96602083019189883343428761084694612d666014602099989596612d6c8b8099612d6c8289612d66889b612d669d9052565b612e4c611b5d825190565b2096612e5730610552565b3190612e72601592612e6c61137f868661055b565b90611204565b8611611495575f80612eae92612e98612e8b878761055b565b6114248b6114458361040b565b6040515f918a905af1612ea9611ee3565b501590565b612f2457505090612ecc5f8051602061532683398151915292610552565b92837f440818643a5a59001e283b5a9a6053b601a98dee66ec003d5f4df415c503ae42612ef860405190565b80612f0589878784612d74565b0390a2612f1f8795612f1660405190565b93849384612d74565b0390a3565b611424612f3561268b93879361055b565b9161141f8361040b565b50612f5161137f82601798949861055b565b831161149557612f6b838793612f6684610552565b614d7d565b602083612f7b611397600461067d565b835f612f8630610552565b612fad8a612f9360405190565b9d8e9788968795630898c6a160e31b875260048701612c72565b03925af1958615611490575f9661304f575b5090612ecc5f805160206153268339815191529261139788612fe561143884601561055b565b612ff361141284601761055b565b61300a8161300561036d86601661055b565b612ca7565b61304a613015612cd0565b9161301e818452565b6001600160a01b0385166020840152613038896040850152565b613043426060850152565b601961066e565b612d49565b5f8051602061532683398151915292919650613085612ecc9160203d60201161308e575b61307d81836111bf565b810190612c5e565b96919250612fbf565b503d613073565b63204c705f60e01b5f908152600490fd5b61036d939291905f612bf7565b610393906130c66115b66103615f61067d565b6130d26103615f6115f6565b6001600160a01b0382161461154f57803b6130ef6113295f6109ce565b1461154f578061139761310761139761310e94610552565b60046123c6565b7f20551eeadd52a2ff31f065b249916d4fd7679a9f12efd4216bd408d10e31c77661167d60405190565b610393906130b3565b61137f61315a61036d926131525f90565b50600861055b565b613169612ba8620151806109ce565b90610a3f565b610393906131826115b66103615f61067d565b6131b1565b90610100600160a81b039060081b61121b565b906131aa61036d61123c92610552565b8254613187565b6131bd6103615f6115f6565b6001600160a01b0382161461154f576131d781601161319a565b6131f26131eb6131e56109db565b42611240565b6012611225565b7f66419bd61095a2d5617843af79e609a31d8a9546360a752b5a8db7e973c7827c61146e611464611c4f601261040b565b6103939061316f565b6103939061323f6115b66103615f61067d565b61326a565b9060ff60a01b9060a01b61121b565b9061326361036d61123c92151590565b8254613244565b610393906004613253565b6103939061322c565b9061036d92916132936115b66103615f61067d565b9061036d92916132a96116ee6116ea6011610420565b9061170992916132b76142cd565b6136c9565b6001600160401b0381116111e05760208091020190565b90611ede6117cd836132bc565b6132e8612cd0565b905f82526020808080850160608152015f8152016060905250565b61036d6132e0565b5f5b82811061331957505050565b602090613324613303565b818401520161330d565b9061039361334461333e846132d3565b936132bc565b601f19016020840161330b565b9061036d9161191a565b903560de193683900301811215610382570190565b8183529160200190816133866020830284019490565b92835f925b84841061339b5750505050505090565b90919293949560206133c76133c083856001950388526133bb8b8861335b565b613351565b9860200190565b94019401929493919061338b565b6001600160a01b0391909116815260406020820181905261036d93910191613370565b5f9060033d1161340457565b905060045f803e5f5160e01c90565b5f9060443d106103935760405160043d036004823e8051903d60248301116001600160401b0383111761347c578181019182516001600160401b0381116134765760043d038301816020860101116134765761036d9394955060200101906111bf565b50505050565b5050565b61348a601a611ed1565b7f626174636820686f6f6b20756e6b6e6f776e206661696c757265000000000000602082015290565b61036d613480565b901515815260406020820181905261036d92910190610812565b6108466134ed926020926134e7815190565b94859290565b93849101610807565b6e03130ba31b410313637b1b5b2b21d1608d1b815261036d9190600f015b906134d5565b156135225750565b6111499061352f60405190565b62461bcd60e51b81529182916004830161084a565b90359060de193682900301821215610382570190565b90821015610c5757602061036d9202810190613544565b6004111561038257565b9050519061039382613571565b909291926135986117cd82611796565b938185528183011161038257610393916020850190610807565b9080601f8301121561038257815161036d92602001613588565b919091604081840312610382576135e3838261357b565b9260208201516001600160401b0381116103825761036d92016135b2565b6001600160a01b039091168152929161039391604090613625906060870190611ae3565b9401906001600160a01b03169052565b906104ad90610f54565b90613648825190565b811015610c57576020809102010190565b6136636010611ed1565b6f195e1958dd5d1a5bdb8819985a5b195960821b602082015290565b61036d613659565b611fb9610393946106f0611fb16060959998969960808601908682035f88015261191a565b9081526060810193926103939290916040916106f7906020830152565b50816136d45f6109ce565b8314613c23576136e561036d610dd2565b8311613c12576136f48361332e565b936136ff6004611885565b80613bee575b613ab3575b6137135f6109ce565b908190825b86811015613a6e5761373b61373661373183888a61355a565b611ab8565b614799565b6137456004611885565b80613a4a575b613957575b61376661376161373183888a61355a565b614e03565b909490851561394d576137a95f5b871561393c57612588613785612501565b915b6137a0613792612cd0565b8b15158152955b6020870152565b60408501613635565b6137b3838b61363f565b526137be828a61363f565b50841561392b576137ce90611f01565b936138156137e860406137e2858a8c61355a565b01611744565b8861380f60a06137e2878c613809608061380384848a61355a565b0161173a565b9561355a565b91614a3b565b61381f6004611885565b613905575b61382e600561040b565b61383781611f01565b613842906005611225565b61384d83888a61355a565b9061385730610552565b9061386160405190565b928392602084019246906138759385613687565b90810382520361388590826111bf565b8051906020012061389783888a61355a565b6138a090611730565b6138ab84898b61355a565b6020016138b79061173a565b906138c3858a8c61355a565b6040016138cf90611744565b92936138da60405190565b9384936138e79385611fc8565b035f8051602061530683398151915291a2600101613718565b613718565b613926816139125f61067d565b613920613731868b8d61355a565b90614bb7565b613824565b939261393690611f01565b92613815565b61258861394761367f565b91613787565b6137a96001613774565b6139aa5f613968611397600261067d565b6139718261067d565b9061397d858a8c61355a565b61398630610552565b9261399060405190565b95869485938493637c88e98560e11b855260048501613601565b03915afa8015611490575f915f91613a26575b506139c86001610f54565b6139d183610f54565b146139dd575050613750565b93613a1f91613a0461390094966125886139f5612cd0565b5f8152936137a0613799612501565b613a0e868c61363f565b52613a19858b61363f565b50611f01565b9260010190565b9050613a4491503d805f833e613a3c81836111bf565b8101906135cc565b5f6139bd565b50613a58611397600261067d565b613a6761134c6103615f6115f6565b141561374b565b5095949192507f2403003b183ff811dedab647749b7525f94e39ff05e4a7b4f02743c21b6c16229350613aad90613aa460405190565b938493846136ac565b0390a190565b60606001613ac4611397600261067d565b613acd5f61067d565b90803b1561038257855f9188613b0094613ae660405190565b95869485938493631c8265d760e21b8552600485016133d5565b03915afa9081613bd9575b50613bcd576001613b1a6133f8565b6308c379a014613bab575b613b92575b613b87613b8d925b7fc0feb3747cdff72b5f95f5e401f842820c7e78b13ceb3aa2764d611023e83959613b5c60405190565b80613b688487836134bb565b0390a161036d613b7760405190565b8092611b966020830191826134f6565b9061351a565b61370a565b5050613b8d5f613b87613ba36134b3565b925050613b2a565b613bb3613413565b80613bbf575b50613b25565b92505f915081905080613bb9565b613b87613b8d92613b32565b613be8905f61148281836111bf565b5f613b0b565b50613bfc611397600261067d565b613c0b61134c6103615f6115f6565b1415613705565b6305beb17160e11b5f908152600490fd5b63c2e5347d60e01b5f908152600490fd5b61036d9190606061327e565b61039390613c536115b66103615f61067d565b613c5f6103615f6115f6565b6001600160a01b0382161461154f57613c798160016123c6565b613c8e613c886113975f61067d565b91610552565b907fc63b9e5336585f530c9d3fcf87d1003c570ffbf3665bd119b9d5ce84461db245613cb960405190565b8080612f1f565b61039390613c40565b9061036d939291613cdf6115b66103615f61067d565b9061036d939291613cf66116ee6116ea6011610420565b90611709939291613d056142cd565b613d27565b6001600160a01b0390911681526040810192916103939160200152565b509091613d335f6115f6565b6001600160a01b0381166001600160a01b03841614908115613eda575b508015613ec9575b61154f57613d6582614c44565b613d7361137f83601761055b565b811161149557613e866020613e6b8386613e6687611397845f805160206153068339815191529a6040613e09613da860405190565b613dd581613dc7878f60048e91850163a9059cbb60e01b815201613d0a565b8e82018103825203826111bf565b613dee89613de1611ea3565b9d8e611fb9600382611ead565b613e028c613dfb5f6109ce565b9485910152565b60608c0152565b6001600160a01b03821660808b0152613e238360a08c0152565b613e2e4660c08c0152565b613e386004611885565b613eb7575b613e468a614799565b613e61613e5483601761055b565b6114248561141f8361040b565b614a3b565b614fc8565b613e756004611885565b613ea85761214f612632600561040b565b92613ea06001613e9560405190565b938493600385611fc8565b0390a2600190565b61267b6001826121875f61067d565b613ec48a6121ba5f61067d565b613e3d565b50613ed35f6109ce565b8114613d58565b6001600160a01b031690506001600160a01b038416145f613d50565b61036d9291905f613cc9565b61039390613f156115b66103615f61067d565b610393906013611608565b61039390613f02565b613f316142cd565b6111a3613f56565b92612d66602061084694612d66601488612d66859b9a8699612d53565b613f5f33610552565b807f88a5966d370b9919b20f3e2c13ff65706f196a4e32cc2c12bf57088f88525874613f8a60405190565b348152602090a2613f9b6013610420565b806141bf575b613fa85750565b613fb5611397600461067d565b613fbe5f6115f6565b916001600160a01b0383166001600160a01b0383161461415957613ff9613fe684601561055b565b611424613ff28261040b565b3490611240565b6140155f8061400760405190565b5f9034875af1612ea9611ee3565b6141385790614089917f7c9d9deacd381b86bb06128f044436d171b305a3e3635406a945f801b8afa50c61404860405190565b3481526040602082018190526017908201527f6574682d6465706f7369742d71756172616e74696e65640000000000000000006060820152608090a2610552565b7f191e55d56882ec8ef3fc21b90dbd0d63efa1199625b57ab8ebe93e2f670033c96140b360405190565b348152602090a26140f06113296140c960405190565b6140de8160208101611b964342343385613f39565b6140e9611b5d825190565b2092610552565b905f8051602061532683398151915261410860405190565b348152604060208201819052600b908201526a195d1a0b59195c1bdcda5d60aa1b60608201528060808101612f1f565b61268b61414684601561055b565b6114246141528261040b565b3490611204565b9150507f7c9d9deacd381b86bb06128f044436d171b305a3e3635406a945f801b8afa50c61418660405190565b34815260406020820181905260149082015273195d1a0b59195c1bdcda5d0b5b9bcb5d985d5b1d60621b6060820152806080810161146e565b506141cd61036d601461040b565b341015613fa1565b610393613f29565b6141e56142cd565b6141f66116ea611bbd33600661055b565b614260575a620186a09061420c611329836109ce565b1115614257575f61421d81926109ce565b6040518061422c368583611ec6565b039134903390f161424361423e611ee3565b911590565b61424f57602081519101f35b602081519101fd5b505f805a61421d565b60405162461bcd60e51b815260206004820152603060248201527f46616c6c6261636b2063616c6c73207265737472696374656420746f2077686960448201526f74656c6973746564207461726765747360801b6064820152608490fd5b6141dd565b61036d60026109ce565b6142d5614fd9565b6103936142e06142c3565b5f6142ec61036d615021565b01611225565b61036d60016109ce565b6103936142e06142f2565b634e487b7160e01b5f52603160045260245ffd5b8054801561433d575f19019061433a6143348383610c37565b90611277565b55565b614307565b61036d61435091601661055b565b805461435b5f6109ce565b8181101561347657614370610c7d8285610c37565b841461437e5760010161435b565b6103939350612cca6143a3610c7d61439d6143aa95612e6c60016109ce565b86610c37565b9184610c37565b61431b565b61036d916143bc91615029565b90929192615097565b61036d9051611726565b6143d881614799565b60808101906143ee82516001600160a01b031690565b916143f85f6115f6565b9261440b6001600160a01b03851661134c565b141580614610575b6145a7575b6040820190614425825190565b9061444861443a82516001600160a01b031690565b9260a086019361380f855190565b60208401915f8061446085516001600160a01b031690565b865190606089015191602083519301915af19161447b611ee3565b96831561450657505050906121735f8051602061530683398151915293926144f36144ef6144ea6144dc5f6144b0600561040b565b6144bc61212c82611f01565b6144c98c61264830610552565b6144d4611b5d825190565b209a016143c5565b95516001600160a01b031690565b955190565b9690565b956144fd60405190565b94859485611fc8565b614524614511875190565b83516001600160a01b0316855191614ac4565b61453b61134c611d4c84516001600160a01b031690565b141580614592575b6145585763024d9cdb60e01b5f908152600490fd5b61142461458161457a61456c61458b955190565b93516001600160a01b031690565b601761055b565b916114458361040b565b808061219c565b5081516145a16113295f6109ce565b11614543565b6145c06145bb82516001600160a01b031690565b614c44565b6145d761137f61457a83516001600160a01b031690565b60a08301906145ea61132961036d845190565b10611495575161460b90611424612f3561457a85516001600160a01b031690565b614418565b5060a08201516146226113295f6109ce565b11614413565b6001600160a01b03909116815261036d9160408201916020818403910152611f0f565b73031b7b6b83634b0b731b290313637b1b5b2b21d160651b815261036d9190601401613514565b61467f611397600261067d565b61468e61134c6103615f6115f6565b1461347c576146a0611397600261067d565b91823b15610382576146d6925f926146b760405190565b8095819482936146cb63c538fec060e01b90565b845260048401614628565b03915afa9081614784575b506103935760016146f06133f8565b6308c379a014614746575b61470157565b60405162461bcd60e51b815260206004820152601760248201527f636f6d706c69616e636520636865636b206661696c65640000000000000000006044820152606490fd5b61474e613413565b8061475957506146fb565b61477c6111499161036d61476c60405190565b8092611b9660208301918261464b565b60405161352f565b614793905f61148281836111bf565b5f6146e1565b604081018051600991906147b261132961036d8561040b565b116149d8576080830180516001600160a01b03166147cf5f6115f6565b906147e26001600160a01b03831661134c565b141580614a1d575b6149af576147fd612ba8620151806109ce565b92614806815190565b6148126113295f6109ce565b1190816149e9575b506149d85761483661134c611d4c84516001600160a01b031690565b1415806149c0575b614960575b505060040161485181610420565b8061493d575b6148dd575b6148659061044c565b90816148b1575b5061487357565b60405162461bcd60e51b815260206004820152601660248201527515185c99d95d081b9bdd081dda1a5d195b1a5cdd195960521b6044820152606490fd5b6148d79150611bbd6148d060206116ea9301516001600160a01b031690565b600661055b565b5f61486c565b6148fa6116ea611bbd6148d060208601516001600160a01b031690565b1561485c5760405162461bcd60e51b815260206004820152601660248201527510dbdb9d1c9858dd0818d85b1b1cc8189b1bd8dad95960521b6044820152606490fd5b50614947826143c5565b61495a6149546001611726565b91611726565b14614857565b61137f61499192610b5361497e61498594516001600160a01b031690565b600861055b565b60a08401515b90611240565b6149a361132961036d6003850161040b565b116149af575f80614843565b63136bcee560e01b5f908152600490fd5b5060a08401516149d26113295f6109ce565b1161483e565b6327de36f760e21b5f908152600490fd5b614a04915061498b6149ff61137f876007610a3f565b915190565b614a1661132961036d6002880161040b565b115f61481a565b5060a0850151614a3561132961036d6001880161040b565b116147ea565b919091614a4d612ba8620151806109ce565b90614a575f6109ce565b8111614aac575b50614a6b6103615f6115f6565b6001600160a01b038416141580614a9b575b614a8657505050565b61458161142491610b5361039395600861055b565b50614aa55f6109ce565b8211614a7d565b614abe90611424614581846007610a3f565b5f614a5e565b919091614ad6612ba8620151806109ce565b90614ae05f6109ce565b811180614b74575b614b5c575b50614afa6103615f6115f6565b6001600160a01b038416141580614b4b575b80614b30575b614b1b57505050565b612f3561142491610b5361039395600861055b565b50614b4361137f82610b5386600861055b565b821115614b12565b50614b555f6109ce565b8211614b0c565b614b6e90611424612f35846007610a3f565b5f614aed565b50614b8361137f836007610a3f565b811115614ae8565b6001600160a01b039091168152929161039391604090611af09060608701908782036020890152611f0f565b9091614bc6611397600261067d565b614bd561134c6103615f6115f6565b14614c3f57614be7611397600261067d565b803b1561038257614c18935f8094614bfe60405190565b96879586948593633dcdee0760e01b855260048501614b8b565b03925af19081614c2a575b5061039357565b614c39905f61148281836111bf565b5f614c23565b505050565b614c4d5f6115f6565b906001600160a01b0382166001600160a01b03821603614cb35750614c7661137f82601561055b565b90614c8030610552565b82813110614ca157614c99610393936121fd9231611204565b91601761055b565b5061039391506121fd614c995f6109ce565b5f91508180614cf1614d00614cc730610552565b6040516370a0823160e01b6020820152928391602483016001600160a01b03909116815260200190565b602082018103825203826111bf565b602081519101845afa614d11611ee3565b9080614d66575b614d44575b50614d2c61137f82601561055b565b91828110614ca157614c99610393936121fd92611204565b614d5f9192506020614d54825190565b818301019101612c5e565b905f614d1d565b508051614d7661132960206109ce565b1015614d18565b9190614d8e6116ea5f848487615148565b614d9757505050565b614daf6116ea6001614da85f6109ce565b8487615148565b614df6576001614dc3926116ea9285615148565b614dca5750565b6114a6614dd75f92610552565b635274afe760e01b83526001600160a01b031660048301526024820190565b5f6114a6614dd785610552565b906040820190614e11825190565b614e1d6113295f6109ce565b1180614fa9575b614f9c576080830192614e3e84516001600160a01b031690565b92614e485f6115f6565b93614e5b6001600160a01b03861661134c565b141580614f84575b614f04575b5f8091614e826149ff60208601516001600160a01b031690565b90606085015191602083519301915af193614e9b611ee3565b9385159081614ee3575b5080614ecb575b614eb4575050565b61142461458161457a61456c60a061039396015190565b5060a0820151614edd6113295f6109ce565b11614eac565b9050614efc61134c611d4c84516001600160a01b031690565b14155f614ea5565b614f186145bb86516001600160a01b031690565b614f2f61137f61457a87516001600160a01b031690565b60a0830190614f4261132961036d845190565b10614f74575f91614f6c614f5584935190565b611424612f3561457a8b516001600160a01b031690565b915050614e68565b5050509150505f9061036d612501565b5060a0820151614f966113295f6109ce565b11614e63565b9150505f9061036d612501565b50614fb330610552565b31614fc261132961036d855190565b10614e24565b9160016116ea91614dc393856151b0565b614fe16151f5565b614fe757565b633ee5aeb560e01b5f908152600490fd5b61036d7f9b779b17422d0df92223018b32b4d1fa46e071723d6817e2486d003becc55f006109ce565b61036d614ff8565b905f91615034825190565b61504161132960416109ce565b0361506a576150639250602082015190606060408401519301515f1a90615244565b9192909190565b50905061508661508161507c5f6115f6565b925190565b6109ce565b909160029190565b61036d906109ce565b6150a05f610f54565b6150a982610f54565b036150b2575050565b6150bc6001610f54565b6150c582610f54565b036150db5763f645eedf60e01b5f908152600490fd5b6150e56002610f54565b6150ee82610f54565b03615116575f6114a66151008461508e565b63fce698f760e01b835260048301526024820190565b6151296151236003610f54565b91610f54565b146151315750565b6335e2f38360e21b5f908152600491909152602490fd5b60405163095ea7b360e01b5f9081526001600160a01b039093166004526024939093529293929060209060448180855af19360015f511485161561518e575b5050604052565b84929415166151a7575f903b113d151616915f80615187565b833d5f823e3d90fd5b60405163a9059cbb60e01b5f9081526001600160a01b039093166004526024939093529293929060209060448180855af19360015f511485161561518e575050604052565b61520a5f61520461036d615021565b0161040b565b61521861132961036d6142c3565b1490565b6106f7610393946106f060609498979561523a608086019a5f870152565b60ff166020850152565b909161524f8461508e565b61527b6113297f7fffffffffffffffffffffffffffffff5d576e7357a4501ddfe92f46681b20a06109ce565b116152f2579061529c6020945f949361529360405190565b9485948561521c565b838052039060015afa15611490575f516152b55f6115f6565b6001600160a01b0381166001600160a01b038316146152df57506152d85f6109ce565b90915f9190565b90506152ea5f6109ce565b909160019190565b5050506152fe5f6115f6565b916003919056fef3359997818a07db03325cddbb394b5abd5d4be681051dd8f00c2737d81e04d99ccfd64c8c081c4ace661cb3b742a779d03c8c3c8a2ad7625ce5b3c9a575f5a4a164736f6c634300081a000a",
  "linkReferences": {},
  "deployedLinkReferences": {}
}