{
  "_format": "hh-sol-artifact-1",
  "contractName": "CompliantSmartWallet",
  "sourceName": "contracts/examples/CompliantSmartWallet.sol",
  "abi": [
    {
      "inputs": [
        {
          "internalType": "address",
          "name": "_owner",
          "type": "address"
        },
        {
          "internalType": "address",
          "name": "_complianceEngine",
          "type": "address"
        },
        {
          "internalType": "address",
          "name": "_fidesCompliance",
          "type": "address"
        },
        {
          "internalType": "address",
          "name": "_operator",
          "type": "address"
        },
        {
          "internalType": "address",
          "name": "_quarantineVault",
          "type": "address"
        }
      ],
      "stateMutability": "nonpayable",
      "type": "constructor"
    },
    {
      "inputs": [],
      "name": "BatchTooLarge",
      "type": "error"
    },
    {
      "inputs": [],
      "name": "ContractCallFailed",
      "type": "error"
    },
    {
      "inputs": [],
      "name": "DailyEthLimitExceeded",
      "type": "error"
    },
    {
      "inputs": [],
      "name": "DailyTokenLimitExceeded",
      "type": "error"
    },
    {
      "inputs": [],
      "name": "ECDSAInvalidSignature",
      "type": "error"
    },
    {
      "inputs": [
        {
          "internalType": "uint256",
          "name": "length",
          "type": "uint256"
        }
      ],
      "name": "ECDSAInvalidSignatureLength",
      "type": "error"
    },
    {
      "inputs": [
        {
          "internalType": "bytes32",
          "name": "s",
          "type": "bytes32"
        }
      ],
      "name": "ECDSAInvalidSignatureS",
      "type": "error"
    },
    {
      "inputs": [],
      "name": "EmptyBatch",
      "type": "error"
    },
    {
      "inputs": [],
      "name": "EthTransferFailed",
      "type": "error"
    },
    {
      "inputs": [
        {
          "internalType": "address",
          "name": "sender",
          "type": "address"
        },
        {
          "internalType": "bytes32",
          "name": "reasonCode",
          "type": "bytes32"
        }
      ],
      "name": "IncomingTransferDenied",
      "type": "error"
    },
    {
      "inputs": [],
      "name": "InsufficientAvailableBalance",
      "type": "error"
    },
    {
      "inputs": [],
      "name": "InvalidAddress",
      "type": "error"
    },
    {
      "inputs": [],
      "name": "InvalidSignature",
      "type": "error"
    },
    {
      "inputs": [],
      "name": "NoPendingChange",
      "type": "error"
    },
    {
      "inputs": [],
      "name": "NotOperator",
      "type": "error"
    },
    {
      "inputs": [],
      "name": "OperationAlreadyExecuted",
      "type": "error"
    },
    {
      "inputs": [],
      "name": "QuarantineFailed",
      "type": "error"
    },
    {
      "inputs": [],
      "name": "QuarantineVaultNotSet",
      "type": "error"
    },
    {
      "inputs": [],
      "name": "ReentrancyGuardReentrantCall",
      "type": "error"
    },
    {
      "inputs": [
        {
          "internalType": "address",
          "name": "token",
          "type": "address"
        }
      ],
      "name": "SafeERC20FailedOperation",
      "type": "error"
    },
    {
      "inputs": [],
      "name": "SignatureExpired",
      "type": "error"
    },
    {
      "inputs": [],
      "name": "TimelockNotExpired",
      "type": "error"
    },
    {
      "anonymous": false,
      "inputs": [
        {
          "indexed": true,
          "internalType": "address",
          "name": "token",
          "type": "address"
        },
        {
          "indexed": false,
          "internalType": "uint256",
          "name": "amount",
          "type": "uint256"
        },
        {
          "indexed": true,
          "internalType": "bytes32",
          "name": "recordId",
          "type": "bytes32"
        },
        {
          "indexed": false,
          "internalType": "string",
          "name": "reason",
          "type": "string"
        }
      ],
      "name": "AutoQuarantineTriggered",
      "type": "event"
    },
    {
      "anonymous": false,
      "inputs": [
        {
          "indexed": true,
          "internalType": "address",
          "name": "token",
          "type": "address"
        },
        {
          "indexed": false,
          "internalType": "uint256",
          "name": "amount",
          "type": "uint256"
        },
        {
          "indexed": false,
          "internalType": "string",
          "name": "reason",
          "type": "string"
        }
      ],
      "name": "BalanceFrozen",
      "type": "event"
    },
    {
      "anonymous": false,
      "inputs": [
        {
          "indexed": true,
          "internalType": "address",
          "name": "token",
          "type": "address"
        },
        {
          "indexed": false,
          "internalType": "uint256",
          "name": "amount",
          "type": "uint256"
        }
      ],
      "name": "BalanceReleased",
      "type": "event"
    },
    {
      "anonymous": false,
      "inputs": [
        {
          "indexed": false,
          "internalType": "uint256",
          "name": "count",
          "type": "uint256"
        },
        {
          "indexed": false,
          "internalType": "uint256",
          "name": "successCount",
          "type": "uint256"
        },
        {
          "indexed": false,
          "internalType": "uint256",
          "name": "blockedCount",
          "type": "uint256"
        }
      ],
      "name": "BatchExecuted",
      "type": "event"
    },
    {
      "anonymous": false,
      "inputs": [
        {
          "indexed": false,
          "internalType": "bool",
          "name": "success",
          "type": "bool"
        },
        {
          "indexed": false,
          "internalType": "string",
          "name": "reason",
          "type": "string"
        }
      ],
      "name": "BatchHookResult",
      "type": "event"
    },
    {
      "anonymous": false,
      "inputs": [
        {
          "indexed": true,
          "internalType": "address",
          "name": "engine",
          "type": "address"
        }
      ],
      "name": "ComplianceEngineSet",
      "type": "event"
    },
    {
      "anonymous": false,
      "inputs": [
        {
          "indexed": true,
          "internalType": "address",
          "name": "triggeredBy",
          "type": "address"
        }
      ],
      "name": "EmergencyPaused",
      "type": "event"
    },
    {
      "anonymous": false,
      "inputs": [
        {
          "indexed": true,
          "internalType": "address",
          "name": "triggeredBy",
          "type": "address"
        }
      ],
      "name": "EmergencyUnpaused",
      "type": "event"
    },
    {
      "anonymous": false,
      "inputs": [
        {
          "indexed": true,
          "internalType": "address",
          "name": "proposed",
          "type": "address"
        },
        {
          "indexed": false,
          "internalType": "uint256",
          "name": "effectiveTime",
          "type": "uint256"
        }
      ],
      "name": "EngineChangeProposed",
      "type": "event"
    },
    {
      "anonymous": false,
      "inputs": [
        {
          "indexed": true,
          "internalType": "address",
          "name": "vault",
          "type": "address"
        },
        {
          "indexed": false,
          "internalType": "uint256",
          "name": "amount",
          "type": "uint256"
        }
      ],
      "name": "EthQuarantinedToVault",
      "type": "event"
    },
    {
      "anonymous": false,
      "inputs": [
        {
          "indexed": true,
          "internalType": "address",
          "name": "sender",
          "type": "address"
        },
        {
          "indexed": false,
          "internalType": "uint256",
          "name": "amount",
          "type": "uint256"
        },
        {
          "indexed": false,
          "internalType": "string",
          "name": "reason",
          "type": "string"
        }
      ],
      "name": "IncomingTransferIntercepted",
      "type": "event"
    },
    {
      "anonymous": false,
      "inputs": [
        {
          "indexed": true,
          "internalType": "bytes32",
          "name": "opHash",
          "type": "bytes32"
        },
        {
          "indexed": true,
          "internalType": "address",
          "name": "executor",
          "type": "address"
        },
        {
          "indexed": true,
          "internalType": "bytes32",
          "name": "salt",
          "type": "bytes32"
        }
      ],
      "name": "OperationExecuted",
      "type": "event"
    },
    {
      "anonymous": false,
      "inputs": [
        {
          "indexed": true,
          "internalType": "bytes32",
          "name": "opHash",
          "type": "bytes32"
        },
        {
          "indexed": false,
          "internalType": "enum IWalletCompliance.OperationType",
          "name": "opType",
          "type": "uint8"
        },
        {
          "indexed": false,
          "internalType": "address",
          "name": "target",
          "type": "address"
        },
        {
          "indexed": false,
          "internalType": "uint256",
          "name": "value",
          "type": "uint256"
        },
        {
          "indexed": false,
          "internalType": "bool",
          "name": "success",
          "type": "bool"
        }
      ],
      "name": "OperationExecuted",
      "type": "event"
    },
    {
      "anonymous": false,
      "inputs": [
        {
          "indexed": true,
          "internalType": "address",
          "name": "current",
          "type": "address"
        },
        {
          "indexed": true,
          "internalType": "address",
          "name": "pending",
          "type": "address"
        }
      ],
      "name": "OwnerChangeProposed",
      "type": "event"
    },
    {
      "anonymous": false,
      "inputs": [
        {
          "indexed": true,
          "internalType": "address",
          "name": "newOwner",
          "type": "address"
        }
      ],
      "name": "OwnerChanged",
      "type": "event"
    },
    {
      "anonymous": false,
      "inputs": [
        {
          "indexed": true,
          "internalType": "address",
          "name": "vault",
          "type": "address"
        }
      ],
      "name": "QuarantineVaultSet",
      "type": "event"
    },
    {
      "anonymous": false,
      "inputs": [
        {
          "indexed": true,
          "internalType": "address",
          "name": "from",
          "type": "address"
        },
        {
          "indexed": false,
          "internalType": "uint256",
          "name": "amount",
          "type": "uint256"
        }
      ],
      "name": "Received",
      "type": "event"
    },
    {
      "anonymous": false,
      "inputs": [
        {
          "indexed": true,
          "internalType": "address",
          "name": "target",
          "type": "address"
        }
      ],
      "name": "TargetRemovedFromWhitelist",
      "type": "event"
    },
    {
      "anonymous": false,
      "inputs": [
        {
          "indexed": true,
          "internalType": "address",
          "name": "target",
          "type": "address"
        }
      ],
      "name": "TargetWhitelisted",
      "type": "event"
    },
    {
      "stateMutability": "payable",
      "type": "fallback"
    },
    {
      "inputs": [],
      "name": "ENGINE_CHANGE_TIMELOCK",
      "outputs": [
        {
          "internalType": "uint256",
          "name": "",
          "type": "uint256"
        }
      ],
      "stateMutability": "view",
      "type": "function"
    },
    {
      "inputs": [],
      "name": "MAX_BATCH_SIZE",
      "outputs": [
        {
          "internalType": "uint256",
          "name": "",
          "type": "uint256"
        }
      ],
      "stateMutability": "view",
      "type": "function"
    },
    {
      "inputs": [],
      "name": "acceptOwnership",
      "outputs": [],
      "stateMutability": "nonpayable",
      "type": "function"
    },
    {
      "inputs": [],
      "name": "autoQuarantineEnabled",
      "outputs": [
        {
          "internalType": "bool",
          "name": "",
          "type": "bool"
        }
      ],
      "stateMutability": "view",
      "type": "function"
    },
    {
      "inputs": [
        {
          "internalType": "address",
          "name": "",
          "type": "address"
        }
      ],
      "name": "availableBalances",
      "outputs": [
        {
          "internalType": "uint256",
          "name": "",
          "type": "uint256"
        }
      ],
      "stateMutability": "view",
      "type": "function"
    },
    {
      "inputs": [
        {
          "internalType": "address",
          "name": "target",
          "type": "address"
        },
        {
          "internalType": "uint256",
          "name": "value",
          "type": "uint256"
        },
        {
          "internalType": "bytes",
          "name": "data",
          "type": "bytes"
        }
      ],
      "name": "callContract",
      "outputs": [
        {
          "internalType": "bytes",
          "name": "",
          "type": "bytes"
        }
      ],
      "stateMutability": "nonpayable",
      "type": "function"
    },
    {
      "inputs": [],
      "name": "complianceEnabled",
      "outputs": [
        {
          "internalType": "bool",
          "name": "",
          "type": "bool"
        }
      ],
      "stateMutability": "view",
      "type": "function"
    },
    {
      "inputs": [],
      "name": "complianceEngine",
      "outputs": [
        {
          "internalType": "contract IWalletCompliance",
          "name": "",
          "type": "address"
        }
      ],
      "stateMutability": "view",
      "type": "function"
    },
    {
      "inputs": [
        {
          "internalType": "uint256",
          "name": "",
          "type": "uint256"
        }
      ],
      "name": "dailyEthSpent",
      "outputs": [
        {
          "internalType": "uint256",
          "name": "",
          "type": "uint256"
        }
      ],
      "stateMutability": "view",
      "type": "function"
    },
    {
      "inputs": [
        {
          "internalType": "address",
          "name": "",
          "type": "address"
        },
        {
          "internalType": "uint256",
          "name": "",
          "type": "uint256"
        }
      ],
      "name": "dailyTokenSpent",
      "outputs": [
        {
          "internalType": "uint256",
          "name": "",
          "type": "uint256"
        }
      ],
      "stateMutability": "view",
      "type": "function"
    },
    {
      "inputs": [],
      "name": "emergencyPause",
      "outputs": [],
      "stateMutability": "nonpayable",
      "type": "function"
    },
    {
      "inputs": [],
      "name": "emergencyPaused",
      "outputs": [
        {
          "internalType": "bool",
          "name": "",
          "type": "bool"
        }
      ],
      "stateMutability": "view",
      "type": "function"
    },
    {
      "inputs": [],
      "name": "emergencyUnpause",
      "outputs": [],
      "stateMutability": "nonpayable",
      "type": "function"
    },
    {
      "inputs": [
        {
          "components": [
            {
              "internalType": "enum IWalletCompliance.OperationType",
              "name": "opType",
              "type": "uint8"
            },
            {
              "internalType": "address",
              "name": "target",
              "type": "address"
            },
            {
              "internalType": "uint256",
              "name": "value",
              "type": "uint256"
            },
            {
              "internalType": "bytes",
              "name": "data",
              "type": "bytes"
            },
            {
              "internalType": "address",
              "name": "token",
              "type": "address"
            },
            {
              "internalType": "uint256",
              "name": "tokenAmount",
              "type": "uint256"
            },
            {
              "internalType": "uint256",
              "name": "chainId",
              "type": "uint256"
            }
          ],
          "internalType": "struct IWalletCompliance.Operation",
          "name": "op",
          "type": "tuple"
        }
      ],
      "name": "execute",
      "outputs": [
        {
          "internalType": "bytes",
          "name": "",
          "type": "bytes"
        }
      ],
      "stateMutability": "nonpayable",
      "type": "function"
    },
    {
      "inputs": [
        {
          "components": [
            {
              "internalType": "enum IWalletCompliance.OperationType",
              "name": "opType",
              "type": "uint8"
            },
            {
              "internalType": "address",
              "name": "target",
              "type": "address"
            },
            {
              "internalType": "uint256",
              "name": "value",
              "type": "uint256"
            },
            {
              "internalType": "bytes",
              "name": "data",
              "type": "bytes"
            },
            {
              "internalType": "address",
              "name": "token",
              "type": "address"
            },
            {
              "internalType": "uint256",
              "name": "tokenAmount",
              "type": "uint256"
            },
            {
              "internalType": "uint256",
              "name": "chainId",
              "type": "uint256"
            }
          ],
          "internalType": "struct IWalletCompliance.Operation[]",
          "name": "ops",
          "type": "tuple[]"
        }
      ],
      "name": "executeBatch",
      "outputs": [
        {
          "components": [
            {
              "internalType": "bool",
              "name": "success",
              "type": "bool"
            },
            {
              "internalType": "bytes",
              "name": "returnData",
              "type": "bytes"
            },
            {
              "internalType": "enum IAssetCompliance.Decision",
              "name": "decision",
              "type": "uint8"
            },
            {
              "internalType": "string",
              "name": "reason",
              "type": "string"
            }
          ],
          "internalType": "struct CompliantSmartWalletBase.OperationResult[]",
          "name": "results",
          "type": "tuple[]"
        }
      ],
      "stateMutability": "nonpayable",
      "type": "function"
    },
    {
      "inputs": [],
      "name": "executeEngineChange",
      "outputs": [],
      "stateMutability": "nonpayable",
      "type": "function"
    },
    {
      "inputs": [
        {
          "components": [
            {
              "internalType": "enum IWalletCompliance.OperationType",
              "name": "opType",
              "type": "uint8"
            },
            {
              "internalType": "address",
              "name": "target",
              "type": "address"
            },
            {
              "internalType": "uint256",
              "name": "value",
              "type": "uint256"
            },
            {
              "internalType": "bytes",
              "name": "data",
              "type": "bytes"
            },
            {
              "internalType": "address",
              "name": "token",
              "type": "address"
            },
            {
              "internalType": "uint256",
              "name": "tokenAmount",
              "type": "uint256"
            },
            {
              "internalType": "uint256",
              "name": "chainId",
              "type": "uint256"
            }
          ],
          "internalType": "struct IWalletCompliance.Operation",
          "name": "op",
          "type": "tuple"
        },
        {
          "internalType": "bytes",
          "name": "signature",
          "type": "bytes"
        },
        {
          "internalType": "uint256",
          "name": "deadline",
          "type": "uint256"
        },
        {
          "internalType": "bytes32",
          "name": "salt",
          "type": "bytes32"
        }
      ],
      "name": "executeWithSignature",
      "outputs": [
        {
          "internalType": "bytes",
          "name": "",
          "type": "bytes"
        }
      ],
      "stateMutability": "nonpayable",
      "type": "function"
    },
    {
      "inputs": [
        {
          "internalType": "bytes32",
          "name": "",
          "type": "bytes32"
        }
      ],
      "name": "executedOps",
      "outputs": [
        {
          "internalType": "bool",
          "name": "",
          "type": "bool"
        }
      ],
      "stateMutability": "view",
      "type": "function"
    },
    {
      "inputs": [],
      "name": "fidesCompliance",
      "outputs": [
        {
          "internalType": "contract IFidesCompliance",
          "name": "",
          "type": "address"
        }
      ],
      "stateMutability": "view",
      "type": "function"
    },
    {
      "inputs": [
        {
          "internalType": "address",
          "name": "",
          "type": "address"
        }
      ],
      "name": "frozenBalances",
      "outputs": [
        {
          "internalType": "uint256",
          "name": "",
          "type": "uint256"
        }
      ],
      "stateMutability": "view",
      "type": "function"
    },
    {
      "inputs": [
        {
          "internalType": "address",
          "name": "token",
          "type": "address"
        }
      ],
      "name": "getAvailableBalance",
      "outputs": [
        {
          "internalType": "uint256",
          "name": "",
          "type": "uint256"
        }
      ],
      "stateMutability": "view",
      "type": "function"
    },
    {
      "inputs": [],
      "name": "getDailyEthSpent",
      "outputs": [
        {
          "internalType": "uint256",
          "name": "",
          "type": "uint256"
        }
      ],
      "stateMutability": "view",
      "type": "function"
    },
    {
      "inputs": [
        {
          "internalType": "address",
          "name": "token",
          "type": "address"
        }
      ],
      "name": "getDailyTokenSpent",
      "outputs": [
        {
          "internalType": "uint256",
          "name": "",
          "type": "uint256"
        }
      ],
      "stateMutability": "view",
      "type": "function"
    },
    {
      "inputs": [
        {
          "internalType": "address",
          "name": "token",
          "type": "address"
        }
      ],
      "name": "getFrozenBalance",
      "outputs": [
        {
          "internalType": "uint256",
          "name": "",
          "type": "uint256"
        }
      ],
      "stateMutability": "view",
      "type": "function"
    },
    {
      "inputs": [],
      "name": "operationNonce",
      "outputs": [
        {
          "internalType": "uint256",
          "name": "",
          "type": "uint256"
        }
      ],
      "stateMutability": "view",
      "type": "function"
    },
    {
      "inputs": [],
      "name": "operator",
      "outputs": [
        {
          "internalType": "address",
          "name": "",
          "type": "address"
        }
      ],
      "stateMutability": "view",
      "type": "function"
    },
    {
      "inputs": [],
      "name": "owner",
      "outputs": [
        {
          "internalType": "address",
          "name": "",
          "type": "address"
        }
      ],
      "stateMutability": "view",
      "type": "function"
    },
    {
      "inputs": [],
      "name": "pendingComplianceEngine",
      "outputs": [
        {
          "internalType": "address",
          "name": "",
          "type": "address"
        }
      ],
      "stateMutability": "view",
      "type": "function"
    },
    {
      "inputs": [],
      "name": "pendingEngineChangeTime",
      "outputs": [
        {
          "internalType": "uint256",
          "name": "",
          "type": "uint256"
        }
      ],
      "stateMutability": "view",
      "type": "function"
    },
    {
      "inputs": [],
      "name": "pendingOwner",
      "outputs": [
        {
          "internalType": "address",
          "name": "",
          "type": "address"
        }
      ],
      "stateMutability": "view",
      "type": "function"
    },
    {
      "inputs": [],
      "name": "policy",
      "outputs": [
        {
          "internalType": "uint256",
          "name": "maxTxValue",
          "type": "uint256"
        },
        {
          "internalType": "uint256",
          "name": "maxTokenTxAmount",
          "type": "uint256"
        },
        {
          "internalType": "uint256",
          "name": "dailyEthLimit",
          "type": "uint256"
        },
        {
          "internalType": "uint256",
          "name": "dailyTokenLimit",
          "type": "uint256"
        },
        {
          "internalType": "bool",
          "name": "blockContractCalls",
          "type": "bool"
        },
        {
          "internalType": "bool",
          "name": "blockUnknownTokens",
          "type": "bool"
        },
        {
          "internalType": "bool",
          "name": "requireWhitelist",
          "type": "bool"
        }
      ],
      "stateMutability": "view",
      "type": "function"
    },
    {
      "inputs": [
        {
          "internalType": "address",
          "name": "newEngine",
          "type": "address"
        }
      ],
      "name": "proposeEngineChange",
      "outputs": [],
      "stateMutability": "nonpayable",
      "type": "function"
    },
    {
      "inputs": [
        {
          "internalType": "address",
          "name": "token",
          "type": "address"
        },
        {
          "internalType": "uint256",
          "name": "amount",
          "type": "uint256"
        },
        {
          "internalType": "string",
          "name": "reason",
          "type": "string"
        }
      ],
      "name": "quarantineAssets",
      "outputs": [
        {
          "internalType": "bytes32",
          "name": "recordId",
          "type": "bytes32"
        }
      ],
      "stateMutability": "nonpayable",
      "type": "function"
    },
    {
      "inputs": [
        {
          "internalType": "address",
          "name": "",
          "type": "address"
        },
        {
          "internalType": "uint256",
          "name": "",
          "type": "uint256"
        }
      ],
      "name": "quarantineRecordIds",
      "outputs": [
        {
          "internalType": "bytes32",
          "name": "",
          "type": "bytes32"
        }
      ],
      "stateMutability": "view",
      "type": "function"
    },
    {
      "inputs": [
        {
          "internalType": "bytes32",
          "name": "",
          "type": "bytes32"
        }
      ],
      "name": "quarantineRecords",
      "outputs": [
        {
          "internalType": "bytes32",
          "name": "recordId",
          "type": "bytes32"
        },
        {
          "internalType": "address",
          "name": "token",
          "type": "address"
        },
        {
          "internalType": "uint256",
          "name": "amount",
          "type": "uint256"
        },
        {
          "internalType": "uint256",
          "name": "timestamp",
          "type": "uint256"
        }
      ],
      "stateMutability": "view",
      "type": "function"
    },
    {
      "inputs": [],
      "name": "quarantineThreshold",
      "outputs": [
        {
          "internalType": "uint256",
          "name": "",
          "type": "uint256"
        }
      ],
      "stateMutability": "view",
      "type": "function"
    },
    {
      "inputs": [],
      "name": "quarantineVault",
      "outputs": [
        {
          "internalType": "contract QuarantineVault",
          "name": "",
          "type": "address"
        }
      ],
      "stateMutability": "view",
      "type": "function"
    },
    {
      "inputs": [
        {
          "internalType": "address",
          "name": "token",
          "type": "address"
        },
        {
          "internalType": "uint256",
          "name": "amount",
          "type": "uint256"
        },
        {
          "internalType": "bytes32",
          "name": "recordId",
          "type": "bytes32"
        }
      ],
      "name": "releaseQuarantinedAssets",
      "outputs": [],
      "stateMutability": "nonpayable",
      "type": "function"
    },
    {
      "inputs": [
        {
          "internalType": "address",
          "name": "target",
          "type": "address"
        }
      ],
      "name": "removeFromWhitelist",
      "outputs": [],
      "stateMutability": "nonpayable",
      "type": "function"
    },
    {
      "inputs": [
        {
          "internalType": "bool",
          "name": "_enabled",
          "type": "bool"
        }
      ],
      "name": "setAutoQuarantineEnabled",
      "outputs": [],
      "stateMutability": "nonpayable",
      "type": "function"
    },
    {
      "inputs": [
        {
          "internalType": "bool",
          "name": "_enabled",
          "type": "bool"
        }
      ],
      "name": "setComplianceEnabled",
      "outputs": [],
      "stateMutability": "nonpayable",
      "type": "function"
    },
    {
      "inputs": [
        {
          "internalType": "address",
          "name": "_operator",
          "type": "address"
        }
      ],
      "name": "setOperator",
      "outputs": [],
      "stateMutability": "nonpayable",
      "type": "function"
    },
    {
      "inputs": [
        {
          "components": [
            {
              "internalType": "uint256",
              "name": "maxTxValue",
              "type": "uint256"
            },
            {
              "internalType": "uint256",
              "name": "maxTokenTxAmount",
              "type": "uint256"
            },
            {
              "internalType": "uint256",
              "name": "dailyEthLimit",
              "type": "uint256"
            },
            {
              "internalType": "uint256",
              "name": "dailyTokenLimit",
              "type": "uint256"
            },
            {
              "internalType": "bool",
              "name": "blockContractCalls",
              "type": "bool"
            },
            {
              "internalType": "bool",
              "name": "blockUnknownTokens",
              "type": "bool"
            },
            {
              "internalType": "bool",
              "name": "requireWhitelist",
              "type": "bool"
            },
            {
              "internalType": "address[]",
              "name": "allowedDex",
              "type": "address[]"
            },
            {
              "internalType": "address[]",
              "name": "blockedContracts",
              "type": "address[]"
            },
            {
              "internalType": "bytes32[]",
              "name": "whitelistedContracts",
              "type": "bytes32[]"
            }
          ],
          "internalType": "struct IWalletCompliance.WalletPolicy",
          "name": "_policy",
          "type": "tuple"
        }
      ],
      "name": "setPolicy",
      "outputs": [],
      "stateMutability": "nonpayable",
      "type": "function"
    },
    {
      "inputs": [
        {
          "internalType": "uint256",
          "name": "_threshold",
          "type": "uint256"
        }
      ],
      "name": "setQuarantineThreshold",
      "outputs": [],
      "stateMutability": "nonpayable",
      "type": "function"
    },
    {
      "inputs": [
        {
          "internalType": "address",
          "name": "_vault",
          "type": "address"
        }
      ],
      "name": "setQuarantineVault",
      "outputs": [],
      "stateMutability": "nonpayable",
      "type": "function"
    },
    {
      "inputs": [
        {
          "internalType": "address",
          "name": "to",
          "type": "address"
        },
        {
          "internalType": "uint256",
          "name": "amount",
          "type": "uint256"
        }
      ],
      "name": "transferETH",
      "outputs": [
        {
          "internalType": "bool",
          "name": "",
          "type": "bool"
        }
      ],
      "stateMutability": "nonpayable",
      "type": "function"
    },
    {
      "inputs": [
        {
          "internalType": "address",
          "name": "newOwner",
          "type": "address"
        }
      ],
      "name": "transferOwnership",
      "outputs": [],
      "stateMutability": "nonpayable",
      "type": "function"
    },
    {
      "inputs": [
        {
          "internalType": "address",
          "name": "token",
          "type": "address"
        },
        {
          "internalType": "address",
          "name": "to",
          "type": "address"
        },
        {
          "internalType": "uint256",
          "name": "amount",
          "type": "uint256"
        }
      ],
      "name": "transferToken",
      "outputs": [
        {
          "internalType": "bool",
          "name": "",
          "type": "bool"
        }
      ],
      "stateMutability": "nonpayable",
      "type": "function"
    },
    {
      "inputs": [
        {
          "internalType": "address",
          "name": "target",
          "type": "address"
        }
      ],
      "name": "whitelistTarget",
      "outputs": [],
      "stateMutability": "nonpayable",
      "type": "function"
    },
    {
      "inputs": [
        {
          "internalType": "address",
          "name": "",
          "type": "address"
        }
      ],
      "name": "whitelistedTargets",
      "outputs": [
        {
          "internalType": "bool",
          "name": "",
          "type": "bool"
        }
      ],
      "stateMutability": "view",
      "type": "function"
    },
    {
      "stateMutability": "payable",
      "type": "receive"
    }
  ],
  "bytecode": "0x60806040523461002e5761001d6100146100fb565b93929092610120565b6040516152bc61082582396152bc90f35b5f80fd5b634e487b7160e01b5f52604160045260245ffd5b90601f01601f191681019081106001600160401b0382111761006757604052565b610032565b9061008061007960405190565b9283610046565b565b6001600160a01b031690565b90565b6001600160a01b0381160361002e57565b9050519061008082610091565b919060a08382031261002e576100c581846100a2565b926100d382602083016100a2565b9261008e6100e484604085016100a2565b9360806100f482606087016100a2565b94016100a2565b610119615ae18038038061010e8161006c565b9283398101906100af565b9091929394565b906100809493929161059f565b9060ff60a01b9060a01b5b9181191691161790565b9061015261008e61015992151590565b825461012d565b9055565b9060ff90610138565b9061017661008e61015992151590565b825461015d565b905f1990610138565b61008e61008e61008e9290565b906101a361008e61015992610186565b825461017d565b61008261008e61008e9290565b61008e906101aa565b906001600160a01b0390610138565b61008e90610082906001600160a01b031682565b61008e906101cf565b61008e906101e3565b9061020561008e610159926101ec565b82546101c0565b6001600160401b0381116100675760208091020190565b906102356102308361020c565b61006c565b918252565b369037565b9061008061025561024f84610223565b9361020c565b601f19016020840161023a565b61008e61014061006c565b9061ff009060081b610138565b9061028a61008e61015992151590565b825461026d565b9062ff00009060101b610138565b906102af61008e61015992151590565b8254610291565b915f1960089290920291821b911b610138565b91906102da61008e61015993610186565b9083546102b6565b610080915f916102c9565b8181106102f8575050565b806103055f6001936102e2565b016102ed565b91909182821061031a57505050565b610080929161032e905b915f5260205f2090565b91820191016102ed565b906801000000000000000081116100675781610355610080935490565b9082815561030b565b8151916001600160401b038311610067576103926103886001926103828686610338565b60200190565b925f5260205f2090565b9204915f5b8381106103a45750505050565b60019060206103bd61008e86516001600160a01b031690565b9401938184015501610397565b906100809161035e565b91906102da61008e6101599390565b610080915f916103d4565b8181106103f9575050565b806104065f6001936103e3565b016103ee565b91909182821061041b57505050565b610080929161042990610324565b91820191016103ee565b906801000000000000000081116100675781610450610080935490565b9082815561040c565b8151916001600160401b0383116100675761047d6103886001926103828686610433565b9204915f5b83811061048f5750505050565b600190602061049f61008e865190565b9401938184015501610482565b9061008091610459565b600761058e610120610080946104d56104cf5f83015190565b86610193565b6104ec6104e3602083015190565b60018701610193565b6105036104fa604083015190565b60028701610193565b61051a610511606083015190565b60038701610193565b61055a600486016105376105316080850151151590565b82610166565b61054d61054760a0850151151590565b8261027a565b60c083015115159061029f565b61057161056860e083015190565b600587016103ca565b61058961058061010083015190565b600687016103ca565b015190565b91016104ac565b90610080916104b6565b91929390936105ac6107d6565b6105b860016004610142565b6105c460016013610166565b6105d8683635c9adc5dea000006014610193565b6105e15f6101b7565b6001600160a01b0381166001600160a01b038516146107bb576001600160a01b0381166001600160a01b038716146107bb576001600160a01b0381166001600160a01b038616146107bb576001600160a01b0381166001600160a01b038316146107bb576001600160a01b03166001600160a01b038316146107bb57843b61066f61066b5f610186565b9190565b146107bb57833b61068261066b5f610186565b146107bb57813b61069561066b5f610186565b146107bb576106d26106d9946106c66106cb6106e0986106c66106c6966106bf6106c69a5f6101f5565b60186101f5565b6101ec565b60026101f5565b60036101f5565b60046101f5565b6100806106ec5f610186565b6107b46106f88261023f565b916107ac61070e6107088361023f565b9261023f565b916107a461071a610262565b9561073461073068056bc75e2d63100000610186565b8852565b61075161074a69d3c21bcecceda1000000610186565b6020890152565b61076d610766681b1ae4d6e2ef500000610186565b6040890152565b61078b6107846a0422ca8b0a00a425000000610186565b6060890152565b5f60808801525f60a08801525f60c088015260e0870152565b610100850152565b610120830152565b6009610595565b63e6c4247b60e01b5f908152600490fd5b61008e6001610186565b6100806107e16107cc565b5f6107ed61008e61081c565b01610193565b61008e7f9b779b17422d0df92223018b32b4d1fa46e071723d6817e2486d003becc55f00610186565b61008e6107f356fe6080604052600436101561001d575b366142235761001b614112565b005b5f3560e01c806303d8a8761461033c5780630505c8c9146103375780630ad9e7bf1461033257806313390c041461032d5780631cfda9fa146103285780631deacdf61461032357806322c227411461031e5780632447213d14610319578063245afe2d1461031457806324d78c051461030f57806327c830a91461030a5780634a4e3bd5146103055780634e3f10021461030057806351858e27146102fb578063570ca735146102f657806361eaaa04146102f1578063698bf6fb146102ec5780636c24a76f146102e75780636ee37dfa146102e257806376aa984e146102dd57806379ba5097146102d85780637b1a4909146102d35780637b95bb03146102ce57806383129b9a146102c95780638ab1d681146102c45780638da5cb5b146102bf5780638da952d0146102ba57806394fbdbd0146102b55780639cbcd65b146102b05780639f2cfaf1146102ab578063a7f4aaed146102a6578063b3ab15fb146102a1578063b66e18cb1461029c578063bb0891e614610297578063c674c87b14610292578063c677945a1461028d578063c8f4eb6b14610288578063cd15fc3014610283578063cf104ee41461027e578063cfdbf25414610279578063d83c827014610274578063dc3774b31461026f578063e04e77f71461026a578063e30c397814610265578063ef7fa1ab14610260578063f0c4265a1461025b578063f2fde38b14610256578063f5537ede14610251578063f9b231cb1461024c5763fb9ed2570361000e57611099565b611072565b611056565b611015565b610fed565b610e71565b610e4b565b610e28565b610de4565b610dba565b610d93565b610d69565b610d4e565b610d1f565b610cf9565b610ce1565b610cc6565b610c9c565b610c84565b610c69565b610c4e565b610c32565b610bba565b610b6b565b610b45565b610b23565b610b07565b610ad7565b610abb565b610a87565b610a6c565b610a2c565b610a06565b6109eb565b6109b7565b61097b565b610958565b61093d565b61091a565b6108ed565b6108ab565b61083b565b610718565b6106db565b610627565b6105d3565b6105bb565b61057b565b6104cd565b6103b8565b6001600160a01b031690565b90565b6001600160a01b0381165b0361036257565b5f80fd5b9050359061037382610350565b565b8061035b565b9050359061037382610375565b90916060828403126103625761034d6103a18484610366565b9360406103b1826020870161037b565b940161037b565b34610362576103d16103cb366004610388565b9161150f565b604051005b0390f35b5f91031261036257565b61034d9081565b61034d90546103e4565b61034d905b60ff1690565b61034d90546103f5565b61034d9060081c6103fa565b61034d905461040a565b61034d9060101c6103fa565b61034d9054610420565b6009610441816103eb565b9161044e600183016103eb565b9161045b600282016103eb565b91610468600383016103eb565b9161047560048201610400565b9161034d6004610486818501610416565b930161042c565b9052565b90815260e08101979695909490939092909160208601526040850152606084015215156080830152151560a082015260c0016103739115159052565b34610362576104dd3660046103da565b6103d66104e8610436565b936104f897959793919360405190565b97889788610491565b906020828203126103625761034d91610366565b61034d90610341906001600160a01b031682565b61034d90610515565b61034d90610529565b9061054590610532565b5f5260205260405f2090565b61034d916008021c81565b9061034d9154610551565b5f61057661034d92601561053b565b61055c565b34610362576103d6610596610591366004610501565b610567565b6040515b9182918290815260200190565b906020828203126103625761034d9161037b565b34610362576103d16105ce3660046105a7565b611577565b34610362576103d16105e6366004610501565b611633565b61034d916008021c610341565b9061034d91546105eb565b61034d5f60046105f8565b61048d90610532565b602081019291610373919061060e565b34610362576106373660046103da565b6103d6610642610603565b60405191829182610617565b90610545565b61034d90610341565b61034d9054610654565b61067290601961064e565b9061067c826103eb565b916106896001820161065d565b9161034d600361069b600285016103eb565b93016103eb565b6106d7610373946106d06060949897956106c0608086019a5f870152565b6001600160a01b03166020850152565b6040830152565b0152565b34610362576103d66106f66106f13660046105a7565b610667565b9061070394929460405190565b948594856106a2565b61034d600160116105f8565b34610362576107283660046103da565b6103d661073361070c565b604051918291826001600160a01b03909116815260200190565b908160e09103126103625790565b909182601f83011215610362578135916001600160401b03831161036257602001926001830284011161036257565b916080838303126103625782356001600160401b03811161036257826107b191850161074d565b926020810135916001600160401b038311610362576107d58461034d94840161075b565b93909460606103b1826040870161037b565b90825f9392825e0152565b61081361081c60209361082693610807815190565b80835293849260200190565b958691016107e7565b601f01601f191690565b0190565b602080825261034d929101906107f2565b34610362576103d661085a61085136600461078a565b93929092611dff565b6040519182918261082a565b916060838303126103625761087b8284610366565b92610889836020830161037b565b9260408201356001600160401b038111610362576108a7920161075b565b9091565b34610362576103d661085a6108c1366004610866565b92919091612173565b61034d916008021c6103fa565b9061034d91546108ca565b61034d5f60116108d7565b34610362576108fd3660046103da565b6103d66109086108e2565b60405191829182901515815260200190565b346103625761092a3660046103da565b6103d16121d1565b61034d5f600561055c565b346103625761094d3660046103da565b6103d6610596610932565b34610362576109683660046103da565b6103d1612258565b61034d5f60186105f8565b346103625761098b3660046103da565b6103d6610733610970565b61034d61034d61034d9290565b61034d6202a300610996565b61034d6109a3565b34610362576109c73660046103da565b6103d66105966109af565b9061054590610996565b5f61057661034d9260076109d2565b34610362576103d6610596610a013660046105a7565b6109dc565b34610362576103d6610596610a1c366004610501565b612260565b61034d5f601461055c565b3461036257610a3c3660046103da565b6103d6610596610a21565b906020828203126103625781356001600160401b0381116103625761034d920161074d565b34610362576103d661085a610a82366004610a47565b6122e9565b3461036257610a973660046103da565b6103d1612357565b91906040838203126103625761034d9060206103b18286610366565b34610362576103d6610908610ad1366004610a9f565b906125fc565b3461036257610ae73660046103da565b6103d16126ef565b61057661034d92610b025f93600861053b565b6109d2565b34610362576103d6610596610b1d366004610a9f565b90610aef565b34610362576103d1610b36366004610501565b612747565b61034d5f806105f8565b3461036257610b553660046103da565b6103d6610733610b3b565b61034d5f60136108d7565b3461036257610b7b3660046103da565b6103d6610908610b60565b90816101409103126103625790565b906020828203126103625781356001600160401b0381116103625761034d9201610b86565b34610362576103d1610bcd366004610b95565b612a8e565b634e487b7160e01b5f52603260045260245ffd5b8054821015610c0657610bfe6001915f5260205f2090565b910201905f90565b610bd2565b610c1690601661053b565b80548210156103625761034d91610c2c91610be6565b9061055c565b34610362576103d6610596610c48366004610a9f565b90610c0b565b34610362576103d6610596610c64366004610501565b612a97565b3461036257610c793660046103da565b6103d6610596612ad0565b34610362576103d1610c97366004610501565b612b2b565b34610362576103d6610596610cb2366004610866565b92919091612fe3565b61034d5f601261055c565b3461036257610cd63660046103da565b6103d6610596610cbb565b34610362576103d1610cf4366004610501565b613075565b34610362576103d6610596610d0f366004610501565b61307e565b61034d5f60026105f8565b3461036257610d2f3660046103da565b6103d6610642610d14565b5f610d4961034d92601a61064e565b6108d7565b34610362576103d6610908610d643660046105a7565b610d3a565b34610362576103d1610d7c366004610501565b613160565b61034d6032610996565b61034d610d81565b3461036257610da33660046103da565b6103d6610596610d8b565b61034d601460046108d7565b3461036257610dca3660046103da565b6103d6610908610dae565b5f61057661034d92601761053b565b34610362576103d6610596610dfa366004610501565b610dd5565b80151561035b565b9050359061037382610dff565b906020828203126103625761034d91610e07565b34610362576103d1610e3b366004610e14565b6131b2565b61034d5f60016105f8565b3461036257610e5b3660046103da565b6103d6610733610e40565b61034d5f60036105f8565b3461036257610e813660046103da565b6103d6610642610e66565b909182601f83011215610362578135916001600160401b03831161036257602001926020830284011161036257565b906020828203126103625781356001600160401b038111610362576108a79201610e8c565b634e487b7160e01b5f52602160045260245ffd5b60041115610efe57565b610ee0565b9061037382610ef4565b61034d90610f03565b61048d90610f0d565b80511515825261034d916060610f4460808301602085015184820360208601526107f2565b92610f5760408201516040850190610f16565b01519060608184039101526107f2565b9061034d91610f1f565b90610f87610f7d835190565b8083529160200190565b9081610f996020830284019460200190565b925f915b838310610fac57505050505090565b90919293946020610fcf610fc883856001950387528951610f67565b9760200190565b9301930191939290610f9d565b602080825261034d92910190610f71565b34610362576103d6611009611003366004610ebb565b90613b71565b60405191829182610fdc565b34610362576103d1611028366004610501565b613bfd565b90916060828403126103625761034d6110468484610366565b9360406103b18260208701610366565b34610362576103d661090861106c36600461102d565b91613e33565b34610362576103d1611085366004610e14565b613e5d565b5f610d4961034d92600661053b565b34610362576103d66109086110af366004610501565b61108a565b156110bb57565b60405162461bcd60e51b81526020600482015260156024820152742737ba1037b832b930ba37b91037b91037bbb732b960591b6044820152606490fd5b0390fd5b90610373929161110f610341601861065d565b33148015611126575b611121906110b4565b61113f565b506111216111366103415f61065d565b33149050611118565b90611152929161114d614232565b6112a1565b610373614261565b634e487b7160e01b5f52604160045260245ffd5b90601f01601f191681019081106001600160401b0382111761118f57604052565b61115a565b6040513d5f823e3d90fd5b634e487b7160e01b5f52601160045260245ffd5b919082039182116111c057565b61119f565b905f19905b9181191691161790565b906111e461034d6111eb92610996565b82546111c5565b9055565b919082018092116111c057565b915f1960089290920291821b911b6111ca565b919061121e61034d6111eb9390565b9083546111fc565b610373915f9161120f565b919061121e61034d6111eb93610996565b610373915f91611231565b5f60036103739261126083808301611226565b8260018201556112738360028301611242565b01611242565b634e487b7160e01b5f525f60045260245ffd5b905f0361129c576103739061124d565b611279565b90916112ac5f610996565b83146114fe576112c061034d82601961064e565b6112c9816103eb565b6112dc6112d861034d5f610996565b9190565b146114c6576112ed6001820161065d565b6113086001600160a01b0385165b916001600160a01b031690565b0361149057600261131991016103eb565b8390036114595761133361132e83601561053b565b6103eb565b83116114445761134b611346600461065d565b610532565b803b15610362575f61135c60405190565b63c92ee04360e01b815260048101849052918290602490829084905af192831561143f5761134661141d93611413937f3cb50900cb5f9de3ef4c3deb4bd3a97154b01e866df20b2c88781e40a6a9dc8896611422575b506113d96113c184601561053b565b6113d3896113ce836103eb565b6111b3565b906111d4565b6113f96113e784601761053b565b6113d3896113f4836103eb565b6111ef565b61140d5f61140883601961064e565b61128c565b826142a7565b9261059a60405190565b0390a2565b611439905f611431818361116e565b8101906103da565b5f6113b2565b611194565b63528ef59f60e11b5f908152600490fd5b035ffd5b60405162461bcd60e51b815260206004820152600f60248201526e082dadeeadce840dad2e6dac2e8c6d608b1b6044820152606490fd5b60405162461bcd60e51b815260206004820152600e60248201526d0a8ded6cadc40dad2e6dac2e8c6d60931b6044820152606490fd5b60405162461bcd60e51b815260206004820152601060248201526f149958dbdc99081b9bdd08199bdd5b9960821b6044820152606490fd5b63e6c4247b60e01b5f908152600490fd5b9061037392916110fc565b1561152157565b60405162461bcd60e51b81526020600482015260096024820152682737ba1037bbb732b960b91b6044820152606490fd5b6103739061156c6115656103415f61065d565b331461151a565b6103739060146111d4565b61037390611552565b610373906115936115656103415f61065d565b6115ce565b61034161034d61034d9290565b61034d90611598565b9060ff906111ca565b906115c761034d6111eb92151590565b82546115ae565b6115da6103415f6115a5565b6001600160a01b038216146114fe578061134660016115fd61160294600661053b565b6115b7565b7f3d5490c3a5f2e74f927ed836bbeb02e5cf4f5e601f134742ec4c00235710b08261162c60405190565b808061141d565b61037390611580565b1561164357565b60405162461bcd60e51b8152602060048201526015602482015274456d657267656e6379206d6f64652061637469766560581b6044820152606490fd5b9061034d95949392916116a261169d6116996011610400565b1590565b61163c565b906116b895949392916116b3614232565b611aa8565b90610373614261565b600c111561036257565b600c1115610efe57565b90610373826116cb565b3561034d816116c1565b3561034d81610350565b3561034d81610375565b903590601e19368290030182121561036257018035906001600160401b038211610362576020019136829003831361036257565b9061037361173e60405190565b928361116e565b6001600160401b03811161118f57602090601f01601f19160190565b90825f939282370152565b9092919261178161177c82611745565b611731565b938185528183011161036257610373916020850190611761565b61034d91369161176c565b61034d906116d5565b61048d906117a6565b979593919a9998969492909a61014089019b5f8a016117d5919052565b6001600160a01b03166020890152604088016117f0916117af565b6001600160a01b03166060870152608086015260a08501526001600160a01b031660c084015260e08301526101008201526101200152565b61034d9060a01c6103fa565b61034d9054611828565b90503590610373826116c1565b5061034d90602081019061183e565b5061034d906020810190610366565b5061034d90602081019061037b565b9035601e1936839003018112156103625701602081359101916001600160401b0382116103625736829003831361036257565b919061081c816118c2816108269560209181520190565b8095611761565b9061034d9060c061198161194060e084016118ee6118e7888061184b565b86906117af565b61190e6118fe602089018961185a565b6001600160a01b03166020870152565b61192561191e6040890189611869565b6040870152565b6119326060880188611878565b9086830360608801526118ab565b94611961611951608083018361185a565b6001600160a01b03166080860152565b61197861197160a0830183611869565b60a0860152565b82810190611869565b910152565b6001600160a01b03909116815261034d91604082019160208184039101526118c9565b9080601f830112156103625781602061034d9335910161176c565b91909160e081840312610362576119db60e0611731565b926119e6818361183e565b84526119f58160208401610366565b6020850152611a07816040840161037b565b604085015260608201356001600160401b0381116103625782611a318360c093611a6096016119a9565b6060870152611a438360808301610366565b6080870152611a558360a0830161037b565b60a08701520161037b565b60c0830152565b61034d9036906119c4565b6001600160a01b039091168152929161037391604090611a9f9060608701905b87820360208901526118c9565b94019015159052565b5090939092909190804211611dee57611b51611ac330610532565b611acc866116df565b90611b45611adc602089016116e9565b9487611aea60408b016116f3565b8a611b01611afb60608301836116fd565b9061179b565b611b13611b0c825190565b9160200190565b20611b2c60a0611b25608085016116e9565b93016116f3565b92611b3660405190565b9a8b9960208b0199468b6117b8565b9081038252038261116e565b611b5c611b0c825190565b2093611b71611b6c86601a61064e565b610400565b611ddd57611bb3611bb992611bad877f19457468657265756d205369676e6564204d6573736167653a0a3332000000005f52601c52603c5f2090565b9261179b565b90614314565b90611bc35f6115a5565b936001600160a01b0385166001600160a01b038416148015611dbf575b611dae576112d8611bfe8261034d60016115fd611c0496601a61064e565b93610532565b917f48686cca1e5c197c526f0150601119b033f9fdb1c54ad0600f21ddff63a673d9611c2f60405190565b5f90a4611c3c6004611834565b80611d87575b611d10575b611c58611c5382611a67565b614334565b91611c636004611834565b9081611ce6575b50611c73575090565b611c80611346600261065d565b90611c8a5f61065d565b823b1561036257611cbe925f9283600193611ca460405190565b96879586948593633dcdee0760e01b855260048501611a72565b03925af19081611cd1575b5061034d5790565b611ce0905f611431818361116e565b5f611cc9565b9050611d086112fb611cfb611346600261065d565b926001600160a01b031690565b14155f611c6a565b611d1d611346600261065d565b611d265f61065d565b90803b1561036257825f91611d5d93611d3e60405190565b809581948293611d5263c538fec060e01b90565b845260048401611986565b03915afa801561143f57611d72575b50611c47565b611d81905f611431818361116e565b5f611d6c565b50611d95611346600261065d565b611da76001600160a01b0384166112fb565b1415611c42565b638baa579f60e01b5f908152600490fd5b50611dcc6103415f61065d565b6001600160a01b0384161415611be0565b632e108c6960e21b5f908152600490fd5b630819bdcd60e01b5f908152600490fd5b61034d94939291906060611680565b9061034d94939291611e256115656103415f61065d565b9061034d94939291611e3d61169d6116996011610400565b906116b894939291611e4d614232565b611fa0565b61034d60e0611731565b9061048d906116d5565b90916108269083908093611761565b909161034d92611e66565b90611e8d61177c83611745565b918252565b3d15611eab57611ea13d611e80565b903d5f602084013e565b606090565b5f1981146111c05760010190565b9061034d9060c080611f1160e08401611edd5f8801515f8701906117af565b6020878101516001600160a01b031690860152611eff60408801516040870152565b606087015185820360608701526107f2565b6080808701516001600160a01b03169085015294611f3460a082015160a0860152565b0151910152565b611f68610373946106d0611f606060959998969960808601908682035f880152611ebe565b986020850152565b01906001600160a01b03169052565b611f98610373946106d06060949897956106c0608086019a5f8701906117af565b019015159052565b50611faa5f6115a5565b936001600160a01b0385166001600160a01b038316146114fe57611fcd30610532565b9083823110611444575f80611fe0611e52565b92611fee6001838601611e5c565b6001600160a01b0386166020850152612008876040860152565b61201c612015828a61179b565b6060860152565b6001600160a01b038916608085015261203482610996565b976120408960a0870152565b61204b4660c0870152565b6120556004611834565b61215c575b612063856146fe565b61206e898b8a6149a0565b61208361207a60405190565b92839283611e75565b039087875af194612092611e92565b96861561214057505061210d5f805160206152708339815191529493926120fe612122936120c06004611834565b612128575b6120cf60056103eb565b6120e26120db82611eb0565b60056111d4565b611b456120ee60405190565b9485936020850193469185611f3b565b612109611b0c825190565b2090565b9461211760405190565b938493600185611f77565b0390a290565b61213b89826121365f61065d565b614b1c565b6120c5565b61214b925085614a29565b63024d9cdb60e01b5f908152600490fd5b61216e856121698561065d565b6145d7565b61205a565b61034d939291906060611e0e565b6121906115656103415f61065d565b61037361219e5f60116115b7565b6121a733610532565b7ff5cbf596165cc457b2cd92e8d8450827ee314968160a5696402d75766fc52caf61162c60405190565b610373612181565b6121e6610341601861065d565b33148015612200575b6121f8906110b4565b610373612219565b506121f86122106103415f61065d565b331490506121ef565b612225600160116115b7565b61222e33610532565b7fb8fad2fa0ed7a383e747c309ef2c4391d7b65592a48893e57ccc1fab7079145661162c60405190565b6103736121d9565b61132e61034d9161226e5f90565b50601761053b565b9061034d9161228a6115656103415f61065d565b9061034d916122996004611834565b156122b9576122b96122aa5f61065d565b6122b384611a67565b906145d7565b9061034d916122ce61169d6116996011610400565b906116b8916122db614232565b61034d91611c539150611a67565b61034d906060612276565b906001600160a01b03906111ca565b9061231361034d6111eb92610532565b82546122f4565b916001600160a01b0360089290920291821b911b6111ca565b919061234461034d6111eb93610532565b90835461231a565b610373915f91612333565b612364610341600161065d565b33036123be5761237d612377600161065d565b5f612303565b6123885f600161234c565b6123946113465f61065d565b7fa2ea9883a321a3e97b8266c2b078bfeec6d50c711ed71f874a90d500ae2eaf3661162c60405190565b60405162461bcd60e51b81526020600482015260116024820152702737ba103832b73234b7339037bbb732b960791b6044820152606490fd5b9061034d929161240c6115656103415f61065d565b9061034d929161242261169d6116996011610400565b906116b89291612430614232565b612446565b61034d5f611e80565b61034d612435565b506124505f6115a5565b916001600160a01b0383166001600160a01b0383161480156125eb575b6114fe5761247a83614ba9565b61248861132e84601761053b565b811161144457612496611e52565b6124a05f82611e5c565b6001600160a01b03831660208201526124ba826040830152565b6124cc6124c561243e565b6060830152565b6001600160a01b03841660808201526124e45f610996565b6124ef8160a0840152565b6124fa4660c0840152565b6125046004611834565b6125d9575b612512826146fe565b61251d8186856149a0565b5f8061252860405190565b5f9086885af194612537611e92565b5085156125bd575050906125925f805160206152708339815191529261255d6004611834565b6125aa575b6120fe61256f60056103eb565b9161257c6120db84611eb0565b61258530610532565b92611b456120ee60405190565b92612122856125a060405190565b9384935f85611f77565b6125b886826121365f61065d565b612562565b6125c8925083614a29565b630db2c7f160e31b5f908152600490fd5b6125e6826121695f61065d565b612509565b506125f55f610996565b811461246d565b61034d91905f6123f7565b6126166115656103415f61065d565b610373612634565b61034d9060081c610341565b61034d905461261e565b61263e601161262a565b61264d6112fb6103415f6115a5565b146126de5761265f61034d60126103eb565b42106126cd5761267c612675611346601161262a565b6002612303565b612689611346601161262a565b7ffb6fb1ffa5ce9f6148489aa41ebd619a443018a4b6305499e686c0c503d9f4536126b360405190565b5f90a26126c26001601161234c565b6103735f6012611242565b63621e25c360e01b5f908152600490fd5b63147fde5f60e31b5f908152600490fd5b610373612607565b6103739061270a6115656103415f61065d565b61271d906113465f6115fd83600661053b565b7f09443fc4fa9f38ce51944d7db4f773a5ffb81b85d76c7119b37194b3d831256761162c60405190565b610373906126f7565b610373906127636115656103415f61065d565b612a83565b3561034d81610dff565b9061ff009060081b6111ca565b9061278f61034d6111eb92151590565b8254612772565b9062ff00009060101b6111ca565b906127b461034d6111eb92151590565b8254612796565b903590601e19368290030182121561036257018035906001600160401b0382116103625760200191602082023603831361036257565b8181106127fc575050565b806128095f600193611242565b016127f1565b91909182821061281e57505050565b6103739291612832905b915f5260205f2090565b91820191016127f1565b90600160401b811161118f5781612854610373935490565b9082815561280f565b906001600160401b03831161118f5761288961287f60019261034d868661283c565b925f5260205f2090565b9204915f5b83811061289b5750505050565b60019060206128ac61034d866116e9565b940193818401550161288e565b90610373929161285d565b8181106128cf575050565b806128dc5f600193611226565b016128c4565b9190918282106128f157505050565b61037392916128ff90612828565b91820191016128c4565b90600160401b811161118f5781612921610373935490565b908281556128e2565b906001600160401b03831161118f5761294c61287f60019261034d8686612909565b9204915f5b83811061295e5750505050565b600190602061296f61034d866116f3565b9401938184015501612951565b90610373929161292a565b600790612a70610373936129a561299f5f83016116f3565b846111d4565b6129bd6129b4602083016116f3565b600185016111d4565b6129d56129cc604083016116f3565b600285016111d4565b6129ed6129e4606083016116f3565b600385016111d4565b612a3060048401612a09612a0360808501612768565b826115b7565b612a1e612a1860a08501612768565b8261277f565b612a2a60c08401612768565b906127a4565b612a4a612a4060e08301836127bb565b90600586016128b9565b612a65612a5b6101008301836127bb565b90600686016128b9565b6101208101906127bb565b9290910161297c565b9061037391612987565b610373906009612a79565b61037390612750565b61132e61034d91612aa55f90565b50601561053b565b634e487b7160e01b5f52601260045260245ffd5b8115612acb570490565b612aad565b61034d61132e612aeb612ae562015180610996565b42612ac1565b60076109d2565b61037390612b056115656103415f61065d565b612b116103415f6115a5565b6001600160a01b038216146114fe57610373906018612303565b61037390612af2565b9061034d94939291612b49610341601861065d565b33148015612b60575b612b5b906110b4565b612b79565b50612b5b612b706103415f61065d565b33149050612b52565b906116b894939291612b89614232565b612cc9565b9050519061037382610375565b906020828203126103625761034d91612b8e565b90939161034d95936106d0612bd7926106c060808601985f8701906001600160a01b03169052565b60608185039101526118ab565b90815491600160401b83101561118f5782612c0791600161037395018155610be6565b9061120f565b61034d6080611731565b906111e461034d6111eb9290565b6003612c7f606061037394612c43612c3d5f83015190565b86612c17565b612c63612c5a60208301516001600160a01b031690565b60018701612303565b612c7a612c71604083015190565b600287016111d4565b015190565b91016111d4565b9061037391612c25565b61048d906001600160a01b031660601b90565b01918252565b018092612c90565b90815260406020820181905261034d939101916118ab565b50939291612cd65f610996565b82146114fe57612ce9611346600461065d565b94612cf35f6115a5565b6001600160a01b0381166001600160a01b03881614612fd2576001600160a01b0381166001600160a01b03831603612e7c57612d2f60056103eb565b612d3b6120db82611eb0565b612d7e612d4760405190565b8092611b45602083019189883343428761082694612ca36014602099989596612ca98b8099612ca98289612ca3889b612ca39d9052565b612d89611b0c825190565b2096612d9430610532565b3190612daf601592612da961132e868661053b565b906111b3565b8611611444575f80612deb92612dd5612dc8878761053b565b6113d38b6113f4836103eb565b6040515f918a905af1612de6611e92565b501590565b612e6157505090612e095f8051602061529083398151915292610532565b92837f440818643a5a59001e283b5a9a6053b601a98dee66ec003d5f4df415c503ae42612e3560405190565b80612e4289878784612cb1565b0390a2612e5c8795612e5360405190565b93849384612cb1565b0390a3565b6113d3612e726125c893879361053b565b916113ce836103eb565b50612e8e61132e82601798949861053b565b831161144457612ea8838793612ea384610532565b614ce7565b602083612eb8611346600461065d565b835f612ec330610532565b612eea8a612ed060405190565b9d8e9788968795630898c6a160e31b875260048701612baf565b03925af195861561143f575f96612f8c575b5090612e095f805160206152908339815191529261134688612f226113e784601561053b565b612f306113c184601761053b565b612f4781612f4261034d86601661053b565b612be4565b612f87612f52612c0d565b91612f5b818452565b6001600160a01b0385166020840152612f75896040850152565b612f80426060850152565b601961064e565b612c86565b5f8051602061529083398151915292919650612fc2612e099160203d602011612fcb575b612fba818361116e565b810190612b9b565b96919250612efc565b503d612fb0565b63204c705f60e01b5f908152600490fd5b61034d939291905f612b34565b610373906130036115656103415f61065d565b61300f6103415f6115a5565b6001600160a01b038216146114fe57803b61302c6112d85f610996565b146114fe578061134661304461134661304b94610532565b6004612303565b7f20551eeadd52a2ff31f065b249916d4fd7679a9f12efd4216bd408d10e31c77661162c60405190565b61037390612ff0565b61132e61309761034d9261308f5f90565b50600861053b565b6130a6612ae562015180610996565b906109d2565b610373906130bf6115656103415f61065d565b6130ee565b90610100600160a81b039060081b6111ca565b906130e761034d6111eb92610532565b82546130c4565b6130fa6103415f6115a5565b6001600160a01b038216146114fe576131148160116130d7565b61312f6131286131226109a3565b426111ef565b60126111d4565b7f66419bd61095a2d5617843af79e609a31d8a9546360a752b5a8db7e973c7827c61141d611413611bfe60126103eb565b610373906130ac565b6103739061317c6115656103415f61065d565b6131a7565b9060ff60a01b9060a01b6111ca565b906131a061034d6111eb92151590565b8254613181565b610373906004613190565b61037390613169565b9061034d92916131d06115656103415f61065d565b9061034d92916131e661169d6116996011610400565b906116b892916131f4614232565b613606565b6001600160401b03811161118f5760208091020190565b90611e8d61177c836131f9565b613225612c0d565b905f82526020808080850160608152015f8152016060905250565b61034d61321d565b5f5b82811061325657505050565b602090613261613240565b818401520161324a565b9061037361328161327b84613210565b936131f9565b601f190160208401613248565b9061034d916118c9565b903560de193683900301811215610362570190565b8183529160200190816132c36020830284019490565b92835f925b8484106132d85750505050505090565b90919293949560206133046132fd83856001950388526132f88b88613298565b61328e565b9860200190565b9401940192949391906132c8565b6001600160a01b0391909116815260406020820181905261034d939101916132ad565b5f9060033d1161334157565b905060045f803e5f5160e01c90565b5f9060443d106103735760405160043d036004823e8051903d60248301116001600160401b038311176133b9578181019182516001600160401b0381116133b35760043d038301816020860101116133b35761034d93949550602001019061116e565b50505050565b5050565b6133c7601a611e80565b7f626174636820686f6f6b20756e6b6e6f776e206661696c757265000000000000602082015290565b61034d6133bd565b901515815260406020820181905261034d929101906107f2565b61082661342a92602092613424815190565b94859290565b938491016107e7565b6e03130ba31b410313637b1b5b2b21d1608d1b815261034d9190600f015b90613412565b1561345f5750565b6110f89061346c60405190565b62461bcd60e51b81529182916004830161082a565b90359060de193682900301821215610362570190565b90821015610c0657602061034d9202810190613481565b6004111561036257565b90505190610373826134ae565b909291926134d561177c82611745565b9381855281830111610362576103739160208501906107e7565b9080601f8301121561036257815161034d926020016134c5565b9190916040818403126103625761352083826134b8565b9260208201516001600160401b0381116103625761034d92016134ef565b6001600160a01b039091168152929161037391604090613562906060870190611a92565b9401906001600160a01b03169052565b9061048d90610f03565b90613585825190565b811015610c06576020809102010190565b6135a06010611e80565b6f195e1958dd5d1a5bdb8819985a5b195960821b602082015290565b61034d613596565b611f68610373946106d0611f606060959998969960808601908682035f8801526118c9565b9081526060810193926103739290916040916106d7906020830152565b50816136115f610996565b8314613b605761362261034d610d81565b8311613b4f576136318361326b565b9361363c6004611834565b80613b2b575b6139f0575b6136505f610996565b908190825b868110156139ab5761367861367361366e83888a613497565b611a67565b6146fe565b6136826004611834565b80613987575b613894575b6136a361369e61366e83888a613497565b614d6d565b909490851561388a576136e65f5b8715613879576124c56136c261243e565b915b6136dd6136cf612c0d565b8b15158152955b6020870152565b60408501613572565b6136f0838b61357c565b526136fb828a61357c565b5084156138685761370b90611eb0565b93613752613725604061371f858a8c613497565b016116f3565b8861374c60a061371f878c613746608061374084848a613497565b016116e9565b95613497565b916149a0565b61375c6004611834565b613842575b61376b60056103eb565b61377481611eb0565b61377f9060056111d4565b61378a83888a613497565b9061379430610532565b9061379e60405190565b928392602084019246906137b293856135c4565b9081038252036137c2908261116e565b805190602001206137d483888a613497565b6137dd906116df565b6137e884898b613497565b6020016137f4906116e9565b90613800858a8c613497565b60400161380c906116f3565b929361381760405190565b9384936138249385611f77565b035f8051602061527083398151915291a2600101613655565b613655565b6138638161384f5f61065d565b61385d61366e868b8d613497565b90614b1c565b613761565b939261387390611eb0565b92613752565b6124c56138846135bc565b916136c4565b6136e660016136b1565b6138e75f6138a5611346600261065d565b6138ae8261065d565b906138ba858a8c613497565b6138c330610532565b926138cd60405190565b95869485938493637c88e98560e11b85526004850161353e565b03915afa801561143f575f915f91613963575b506139056001610f03565b61390e83610f03565b1461391a57505061368d565b9361395c9161394161383d94966124c5613932612c0d565b5f8152936136dd6136d661243e565b61394b868c61357c565b52613956858b61357c565b50611eb0565b9260010190565b905061398191503d805f833e613979818361116e565b810190613509565b5f6138fa565b50613995611346600261065d565b6139a46112fb6103415f6115a5565b1415613688565b5095949192507f2403003b183ff811dedab647749b7525f94e39ff05e4a7b4f02743c21b6c162293506139ea906139e160405190565b938493846135e9565b0390a190565b60606001613a01611346600261065d565b613a0a5f61065d565b90803b1561036257855f9188613a3d94613a2360405190565b95869485938493631c8265d760e21b855260048501613312565b03915afa9081613b16575b50613b0a576001613a57613335565b6308c379a014613ae8575b613acf575b613ac4613aca925b7fc0feb3747cdff72b5f95f5e401f842820c7e78b13ceb3aa2764d611023e83959613a9960405190565b80613aa58487836133f8565b0390a161034d613ab460405190565b8092611b45602083019182613433565b90613457565b613647565b5050613aca5f613ac4613ae06133f0565b925050613a67565b613af0613350565b80613afc575b50613a62565b92505f915081905080613af6565b613ac4613aca92613a6f565b613b25905f611431818361116e565b5f613a48565b50613b39611346600261065d565b613b486112fb6103415f6115a5565b1415613642565b6305beb17160e11b5f908152600490fd5b63c2e5347d60e01b5f908152600490fd5b61034d919060606131bb565b61037390613b906115656103415f61065d565b613b9c6103415f6115a5565b6001600160a01b038216146114fe57613bb6816001612303565b613bcb613bc56113465f61065d565b91610532565b907fc63b9e5336585f530c9d3fcf87d1003c570ffbf3665bd119b9d5ce84461db245613bf660405190565b8080612e5c565b61037390613b7d565b9061034d939291613c1c6115656103415f61065d565b9061034d939291613c3361169d6116996011610400565b906116b8939291613c42614232565b613c64565b6001600160a01b0390911681526040810192916103739160200152565b509091613c705f6115a5565b6001600160a01b0381166001600160a01b03841614908115613e17575b508015613e06575b6114fe57613ca282614ba9565b613cb061132e83601761053b565b811161144457613dc36020613da88386613da387611346845f805160206152708339815191529a6040613d46613ce560405190565b613d1281613d04878f60048e91850163a9059cbb60e01b815201613c47565b8e820181038252038261116e565b613d2b89613d1e611e52565b9d8e611f68600382611e5c565b613d3f8c613d385f610996565b9485910152565b60608c0152565b6001600160a01b03821660808b0152613d608360a08c0152565b613d6b4660c08c0152565b613d756004611834565b613df4575b613d838a6146fe565b613d9e613d9183601761053b565b6113d3856113ce836103eb565b6149a0565b614f32565b613db26004611834565b613de5576120fe61256f60056103eb565b92613ddd6001613dd260405190565b938493600385611f77565b0390a2600190565b6125b86001826121365f61065d565b613e018a6121695f61065d565b613d7a565b50613e105f610996565b8114613c95565b6001600160a01b031690506001600160a01b038416145f613c8d565b61034d9291905f613c06565b61037390613e526115656103415f61065d565b6103739060136115b7565b61037390613e3f565b613e6e614232565b611152613e93565b92612ca3602061082694612ca3601488612ca3859b9a8699612c90565b613e9c33610532565b807f88a5966d370b9919b20f3e2c13ff65706f196a4e32cc2c12bf57088f88525874613ec760405190565b348152602090a2613ed86013610400565b806140fc575b613ee55750565b613ef2611346600461065d565b613efb5f6115a5565b916001600160a01b0383166001600160a01b0383161461409657613f36613f2384601561053b565b6113d3613f2f826103eb565b34906111ef565b613f525f80613f4460405190565b5f9034875af1612de6611e92565b6140755790613fc6917f7c9d9deacd381b86bb06128f044436d171b305a3e3635406a945f801b8afa50c613f8560405190565b3481526040602082018190526017908201527f6574682d6465706f7369742d71756172616e74696e65640000000000000000006060820152608090a2610532565b7f191e55d56882ec8ef3fc21b90dbd0d63efa1199625b57ab8ebe93e2f670033c9613ff060405190565b348152602090a261402d6112d861400660405190565b61401b8160208101611b454342343385613e76565b614026611b0c825190565b2092610532565b905f8051602061529083398151915261404560405190565b348152604060208201819052600b908201526a195d1a0b59195c1bdcda5d60aa1b60608201528060808101612e5c565b6125c861408384601561053b565b6113d361408f826103eb565b34906111b3565b9150507f7c9d9deacd381b86bb06128f044436d171b305a3e3635406a945f801b8afa50c6140c360405190565b34815260406020820181905260149082015273195d1a0b59195c1bdcda5d0b5b9bcb5d985d5b1d60621b6060820152806080810161141d565b5061410a61034d60146103eb565b341015613ede565b610373613e66565b614122614232565b61412e6103415f61065d565b3314158061420c575b6141a1575a620186a09061414d6112d883610996565b1115614198575f61415e8192610996565b6040518061416d368583611e75565b039134903390f161418461417f611e92565b911590565b61419057602081519101f35b602081519101fd5b505f805a61415e565b60405162461bcd60e51b815260206004820152603960248201527f46616c6c6261636b2063616c6c73207265737472696374656420746f206f776e60448201527f6572206f722077686974656c69737465642074617267657473000000000000006064820152608490fd5b5061421e611699611b6c33600661053b565b614137565b61411a565b61034d6002610996565b61423a614f43565b610373614245614228565b5f61425161034d614f8b565b016111d4565b61034d6001610996565b610373614245614257565b634e487b7160e01b5f52603160045260245ffd5b805480156142a2575f19019061429f6142998383610be6565b90611226565b55565b61426c565b61034d6142b591601661053b565b80546142c05f610996565b818110156133b3576142d5610c2c8285610be6565b84146142e3576001016142c0565b6103739350612c07614308610c2c61430261430f95612da96001610996565b86610be6565b9184610be6565b614280565b61034d9161432191614f93565b90929192615001565b61034d90516116d5565b61433d816146fe565b608081019061435382516001600160a01b031690565b9161435d5f6115a5565b926143706001600160a01b0385166112fb565b141580614575575b61450c575b604082019061438a825190565b906143ad61439f82516001600160a01b031690565b9260a086019361374c855190565b60208401915f806143c585516001600160a01b031690565b865190606089015191602083519301915af1916143e0611e92565b96831561446b57505050906121225f80516020615270833981519152939261445861445461444f6144415f61441560056103eb565b6144216120db82611eb0565b61442e8c61258530610532565b614439611b0c825190565b209a0161432a565b95516001600160a01b031690565b955190565b9690565b9561446260405190565b94859485611f77565b614489614476875190565b83516001600160a01b0316855191614a29565b6144a06112fb611cfb84516001600160a01b031690565b1415806144f7575b6144bd5763024d9cdb60e01b5f908152600490fd5b6113d36144e66144df6144d16144f0955190565b93516001600160a01b031690565b601761053b565b916113f4836103eb565b808061214b565b5081516145066112d85f610996565b116144a8565b61452561452082516001600160a01b031690565b614ba9565b61453c61132e6144df83516001600160a01b031690565b60a083019061454f6112d861034d845190565b106114445751614570906113d3612e726144df85516001600160a01b031690565b61437d565b5060a08201516145876112d85f610996565b11614378565b6001600160a01b03909116815261034d9160408201916020818403910152611ebe565b73031b7b6b83634b0b731b290313637b1b5b2b21d160651b815261034d9190601401613451565b6145e4611346600261065d565b6145f36112fb6103415f6115a5565b146133b957614605611346600261065d565b91823b156103625761463b925f9261461c60405190565b80958194829361463063c538fec060e01b90565b84526004840161458d565b03915afa90816146e9575b50610373576001614655613335565b6308c379a0146146ab575b61466657565b60405162461bcd60e51b815260206004820152601760248201527f636f6d706c69616e636520636865636b206661696c65640000000000000000006044820152606490fd5b6146b3613350565b806146be5750614660565b6146e16110f89161034d6146d160405190565b8092611b456020830191826145b0565b60405161346c565b6146f8905f611431818361116e565b5f614646565b604081018051600991906147176112d861034d856103eb565b1161493d576080830180516001600160a01b03166147345f6115a5565b906147476001600160a01b0383166112fb565b141580614982575b61491457614762612ae562015180610996565b9261476b815190565b6147776112d85f610996565b11908161494e575b5061493d5761479b6112fb611cfb84516001600160a01b031690565b141580614925575b6148c5575b50506004016147b681610400565b806148a2575b614842575b6147ca9061042c565b9081614816575b506147d857565b60405162461bcd60e51b815260206004820152601660248201527515185c99d95d081b9bdd081dda1a5d195b1a5cdd195960521b6044820152606490fd5b61483c9150611b6c61483560206116999301516001600160a01b031690565b600661053b565b5f6147d1565b61485f611699611b6c61483560208601516001600160a01b031690565b156147c15760405162461bcd60e51b815260206004820152601660248201527510dbdb9d1c9858dd0818d85b1b1cc8189b1bd8dad95960521b6044820152606490fd5b506148ac8261432a565b6148bf6148b960016116d5565b916116d5565b146147bc565b61132e6148f692610b026148e36148ea94516001600160a01b031690565b600861053b565b60a08401515b906111ef565b6149086112d861034d600385016103eb565b11614914575f806147a8565b63136bcee560e01b5f908152600490fd5b5060a08401516149376112d85f610996565b116147a3565b6327de36f760e21b5f908152600490fd5b61496991506148f061496461132e8760076109d2565b915190565b61497b6112d861034d600288016103eb565b115f61477f565b5060a085015161499a6112d861034d600188016103eb565b1161474f565b9190916149b2612ae562015180610996565b906149bc5f610996565b8111614a11575b506149d06103415f6115a5565b6001600160a01b038416141580614a00575b6149eb57505050565b6144e66113d391610b0261037395600861053b565b50614a0a5f610996565b82116149e2565b614a23906113d36144e68460076109d2565b5f6149c3565b919091614a3b612ae562015180610996565b90614a455f610996565b811180614ad9575b614ac1575b50614a5f6103415f6115a5565b6001600160a01b038416141580614ab0575b80614a95575b614a8057505050565b612e726113d391610b0261037395600861053b565b50614aa861132e82610b0286600861053b565b821115614a77565b50614aba5f610996565b8211614a71565b614ad3906113d3612e728460076109d2565b5f614a52565b50614ae861132e8360076109d2565b811115614a4d565b6001600160a01b039091168152929161037391604090611a9f9060608701908782036020890152611ebe565b9091614b2b611346600261065d565b614b3a6112fb6103415f6115a5565b14614ba457614b4c611346600261065d565b803b1561036257614b7d935f8094614b6360405190565b96879586948593633dcdee0760e01b855260048501614af0565b03925af19081614b8f575b5061037357565b614b9e905f611431818361116e565b5f614b88565b505050565b614bb25f6115a5565b906001600160a01b0382166001600160a01b03821603614c1d5750614bdb61132e82601561053b565b90614be530610532565b82813110614c0b57614bfe61037393614c0692316111b3565b91601761053b565b6111d4565b506103739150614c06614bfe5f610996565b5f91508180614c5b614c6a614c3130610532565b6040516370a0823160e01b6020820152928391602483016001600160a01b03909116815260200190565b6020820181038252038261116e565b602081519101845afa614c7b611e92565b9080614cd0575b614cae575b50614c9661132e82601561053b565b91828110614c0b57614bfe61037393614c06926111b3565b614cc99192506020614cbe825190565b818301019101612b9b565b905f614c87565b508051614ce06112d86020610996565b1015614c82565b9190614cf86116995f8484876150b2565b614d0157505050565b614d196116996001614d125f610996565b84876150b2565b614d60576001614d2d9261169992856150b2565b614d345750565b611455614d415f92610532565b635274afe760e01b83526001600160a01b031660048301526024820190565b5f611455614d4185610532565b906040820190614d7b825190565b614d876112d85f610996565b1180614f13575b614f06576080830192614da884516001600160a01b031690565b92614db25f6115a5565b93614dc56001600160a01b0386166112fb565b141580614eee575b614e6e575b5f8091614dec61496460208601516001600160a01b031690565b90606085015191602083519301915af193614e05611e92565b9385159081614e4d575b5080614e35575b614e1e575050565b6113d36144e66144df6144d160a061037396015190565b5060a0820151614e476112d85f610996565b11614e16565b9050614e666112fb611cfb84516001600160a01b031690565b14155f614e0f565b614e8261452086516001600160a01b031690565b614e9961132e6144df87516001600160a01b031690565b60a0830190614eac6112d861034d845190565b10614ede575f91614ed6614ebf84935190565b6113d3612e726144df8b516001600160a01b031690565b915050614dd2565b5050509150505f9061034d61243e565b5060a0820151614f006112d85f610996565b11614dcd565b9150505f9061034d61243e565b50614f1d30610532565b31614f2c6112d861034d855190565b10614d8e565b91600161169991614d2d938561511a565b614f4b61515f565b614f5157565b633ee5aeb560e01b5f908152600490fd5b61034d7f9b779b17422d0df92223018b32b4d1fa46e071723d6817e2486d003becc55f00610996565b61034d614f62565b905f91614f9e825190565b614fab6112d86041610996565b03614fd457614fcd9250602082015190606060408401519301515f1a906151ae565b9192909190565b509050614ff0614feb614fe65f6115a5565b925190565b610996565b909160029190565b61034d90610996565b61500a5f610f03565b61501382610f03565b0361501c575050565b6150266001610f03565b61502f82610f03565b036150455763f645eedf60e01b5f908152600490fd5b61504f6002610f03565b61505882610f03565b03615080575f61145561506a84614ff8565b63fce698f760e01b835260048301526024820190565b61509361508d6003610f03565b91610f03565b1461509b5750565b6335e2f38360e21b5f908152600491909152602490fd5b60405163095ea7b360e01b5f9081526001600160a01b039093166004526024939093529293929060209060448180855af19360015f51148516156150f8575b5050604052565b8492941516615111575f903b113d151616915f806150f1565b833d5f823e3d90fd5b60405163a9059cbb60e01b5f9081526001600160a01b039093166004526024939093529293929060209060448180855af19360015f51148516156150f8575050604052565b6151745f61516e61034d614f8b565b016103eb565b6151826112d861034d614228565b1490565b6106d7610373946106d06060949897956151a4608086019a5f870152565b60ff166020850152565b90916151b984614ff8565b6151e56112d87f7fffffffffffffffffffffffffffffff5d576e7357a4501ddfe92f46681b20a0610996565b1161525c57906152066020945f94936151fd60405190565b94859485615186565b838052039060015afa1561143f575f5161521f5f6115a5565b6001600160a01b0381166001600160a01b0383161461524957506152425f610996565b90915f9190565b90506152545f610996565b909160019190565b5050506152685f6115a5565b916003919056fef3359997818a07db03325cddbb394b5abd5d4be681051dd8f00c2737d81e04d99ccfd64c8c081c4ace661cb3b742a779d03c8c3c8a2ad7625ce5b3c9a575f5a4a164736f6c634300081a000a",
  "linkReferences": {},
  "deployedLinkReferences": {}
}