{
  "_format": "hh-sol-artifact-1",
  "contractName": "CompliantSmartWallet",
  "sourceName": "contracts/examples/CompliantSmartWallet.sol",
  "abi": [
    {
      "inputs": [
        {
          "internalType": "address",
          "name": "_owner",
          "type": "address"
        },
        {
          "internalType": "address",
          "name": "_complianceEngine",
          "type": "address"
        },
        {
          "internalType": "address",
          "name": "_fidesCompliance",
          "type": "address"
        },
        {
          "internalType": "address",
          "name": "_operator",
          "type": "address"
        },
        {
          "internalType": "address",
          "name": "_quarantineVault",
          "type": "address"
        }
      ],
      "stateMutability": "nonpayable",
      "type": "constructor"
    },
    {
      "inputs": [],
      "name": "BatchTooLarge",
      "type": "error"
    },
    {
      "inputs": [],
      "name": "ContractCallFailed",
      "type": "error"
    },
    {
      "inputs": [],
      "name": "DailyEthLimitExceeded",
      "type": "error"
    },
    {
      "inputs": [],
      "name": "DailyTokenLimitExceeded",
      "type": "error"
    },
    {
      "inputs": [],
      "name": "ECDSAInvalidSignature",
      "type": "error"
    },
    {
      "inputs": [
        {
          "internalType": "uint256",
          "name": "length",
          "type": "uint256"
        }
      ],
      "name": "ECDSAInvalidSignatureLength",
      "type": "error"
    },
    {
      "inputs": [
        {
          "internalType": "bytes32",
          "name": "s",
          "type": "bytes32"
        }
      ],
      "name": "ECDSAInvalidSignatureS",
      "type": "error"
    },
    {
      "inputs": [],
      "name": "EmptyBatch",
      "type": "error"
    },
    {
      "inputs": [],
      "name": "EthTransferFailed",
      "type": "error"
    },
    {
      "inputs": [
        {
          "internalType": "address",
          "name": "sender",
          "type": "address"
        },
        {
          "internalType": "bytes32",
          "name": "reasonCode",
          "type": "bytes32"
        }
      ],
      "name": "IncomingTransferDenied",
      "type": "error"
    },
    {
      "inputs": [],
      "name": "InsufficientAvailableBalance",
      "type": "error"
    },
    {
      "inputs": [],
      "name": "InvalidAddress",
      "type": "error"
    },
    {
      "inputs": [],
      "name": "InvalidSignature",
      "type": "error"
    },
    {
      "inputs": [],
      "name": "NoPendingChange",
      "type": "error"
    },
    {
      "inputs": [],
      "name": "NotOperator",
      "type": "error"
    },
    {
      "inputs": [],
      "name": "OperationAlreadyExecuted",
      "type": "error"
    },
    {
      "inputs": [],
      "name": "QuarantineFailed",
      "type": "error"
    },
    {
      "inputs": [],
      "name": "QuarantineVaultNotSet",
      "type": "error"
    },
    {
      "inputs": [],
      "name": "ReentrancyGuardReentrantCall",
      "type": "error"
    },
    {
      "inputs": [
        {
          "internalType": "address",
          "name": "token",
          "type": "address"
        }
      ],
      "name": "SafeERC20FailedOperation",
      "type": "error"
    },
    {
      "inputs": [],
      "name": "SignatureExpired",
      "type": "error"
    },
    {
      "inputs": [],
      "name": "TimelockNotExpired",
      "type": "error"
    },
    {
      "anonymous": false,
      "inputs": [
        {
          "indexed": true,
          "internalType": "address",
          "name": "token",
          "type": "address"
        },
        {
          "indexed": false,
          "internalType": "uint256",
          "name": "amount",
          "type": "uint256"
        },
        {
          "indexed": true,
          "internalType": "bytes32",
          "name": "recordId",
          "type": "bytes32"
        },
        {
          "indexed": false,
          "internalType": "string",
          "name": "reason",
          "type": "string"
        }
      ],
      "name": "AutoQuarantineTriggered",
      "type": "event"
    },
    {
      "anonymous": false,
      "inputs": [
        {
          "indexed": true,
          "internalType": "address",
          "name": "token",
          "type": "address"
        },
        {
          "indexed": false,
          "internalType": "uint256",
          "name": "amount",
          "type": "uint256"
        },
        {
          "indexed": false,
          "internalType": "string",
          "name": "reason",
          "type": "string"
        }
      ],
      "name": "BalanceFrozen",
      "type": "event"
    },
    {
      "anonymous": false,
      "inputs": [
        {
          "indexed": true,
          "internalType": "address",
          "name": "token",
          "type": "address"
        },
        {
          "indexed": false,
          "internalType": "uint256",
          "name": "amount",
          "type": "uint256"
        }
      ],
      "name": "BalanceReleased",
      "type": "event"
    },
    {
      "anonymous": false,
      "inputs": [
        {
          "indexed": false,
          "internalType": "uint256",
          "name": "count",
          "type": "uint256"
        },
        {
          "indexed": false,
          "internalType": "uint256",
          "name": "successCount",
          "type": "uint256"
        },
        {
          "indexed": false,
          "internalType": "uint256",
          "name": "blockedCount",
          "type": "uint256"
        }
      ],
      "name": "BatchExecuted",
      "type": "event"
    },
    {
      "anonymous": false,
      "inputs": [
        {
          "indexed": false,
          "internalType": "bool",
          "name": "success",
          "type": "bool"
        },
        {
          "indexed": false,
          "internalType": "string",
          "name": "reason",
          "type": "string"
        }
      ],
      "name": "BatchHookResult",
      "type": "event"
    },
    {
      "anonymous": false,
      "inputs": [
        {
          "indexed": true,
          "internalType": "address",
          "name": "engine",
          "type": "address"
        }
      ],
      "name": "ComplianceEngineSet",
      "type": "event"
    },
    {
      "anonymous": false,
      "inputs": [
        {
          "indexed": true,
          "internalType": "address",
          "name": "triggeredBy",
          "type": "address"
        }
      ],
      "name": "EmergencyPaused",
      "type": "event"
    },
    {
      "anonymous": false,
      "inputs": [
        {
          "indexed": true,
          "internalType": "address",
          "name": "triggeredBy",
          "type": "address"
        }
      ],
      "name": "EmergencyUnpaused",
      "type": "event"
    },
    {
      "anonymous": false,
      "inputs": [
        {
          "indexed": true,
          "internalType": "address",
          "name": "proposed",
          "type": "address"
        },
        {
          "indexed": false,
          "internalType": "uint256",
          "name": "effectiveTime",
          "type": "uint256"
        }
      ],
      "name": "EngineChangeProposed",
      "type": "event"
    },
    {
      "anonymous": false,
      "inputs": [
        {
          "indexed": true,
          "internalType": "address",
          "name": "vault",
          "type": "address"
        },
        {
          "indexed": false,
          "internalType": "uint256",
          "name": "amount",
          "type": "uint256"
        }
      ],
      "name": "EthQuarantinedToVault",
      "type": "event"
    },
    {
      "anonymous": false,
      "inputs": [
        {
          "indexed": true,
          "internalType": "address",
          "name": "sender",
          "type": "address"
        },
        {
          "indexed": false,
          "internalType": "uint256",
          "name": "amount",
          "type": "uint256"
        },
        {
          "indexed": false,
          "internalType": "string",
          "name": "reason",
          "type": "string"
        }
      ],
      "name": "IncomingTransferIntercepted",
      "type": "event"
    },
    {
      "anonymous": false,
      "inputs": [
        {
          "indexed": true,
          "internalType": "bytes32",
          "name": "opHash",
          "type": "bytes32"
        },
        {
          "indexed": true,
          "internalType": "address",
          "name": "executor",
          "type": "address"
        },
        {
          "indexed": true,
          "internalType": "bytes32",
          "name": "salt",
          "type": "bytes32"
        }
      ],
      "name": "OperationExecuted",
      "type": "event"
    },
    {
      "anonymous": false,
      "inputs": [
        {
          "indexed": true,
          "internalType": "bytes32",
          "name": "opHash",
          "type": "bytes32"
        },
        {
          "indexed": false,
          "internalType": "enum IWalletCompliance.OperationType",
          "name": "opType",
          "type": "uint8"
        },
        {
          "indexed": false,
          "internalType": "address",
          "name": "target",
          "type": "address"
        },
        {
          "indexed": false,
          "internalType": "uint256",
          "name": "value",
          "type": "uint256"
        },
        {
          "indexed": false,
          "internalType": "bool",
          "name": "success",
          "type": "bool"
        }
      ],
      "name": "OperationExecuted",
      "type": "event"
    },
    {
      "anonymous": false,
      "inputs": [
        {
          "indexed": true,
          "internalType": "address",
          "name": "current",
          "type": "address"
        },
        {
          "indexed": true,
          "internalType": "address",
          "name": "pending",
          "type": "address"
        }
      ],
      "name": "OwnerChangeProposed",
      "type": "event"
    },
    {
      "anonymous": false,
      "inputs": [
        {
          "indexed": true,
          "internalType": "address",
          "name": "newOwner",
          "type": "address"
        }
      ],
      "name": "OwnerChanged",
      "type": "event"
    },
    {
      "anonymous": false,
      "inputs": [
        {
          "indexed": true,
          "internalType": "address",
          "name": "vault",
          "type": "address"
        }
      ],
      "name": "QuarantineVaultSet",
      "type": "event"
    },
    {
      "anonymous": false,
      "inputs": [
        {
          "indexed": true,
          "internalType": "address",
          "name": "from",
          "type": "address"
        },
        {
          "indexed": false,
          "internalType": "uint256",
          "name": "amount",
          "type": "uint256"
        }
      ],
      "name": "Received",
      "type": "event"
    },
    {
      "anonymous": false,
      "inputs": [
        {
          "indexed": true,
          "internalType": "address",
          "name": "target",
          "type": "address"
        }
      ],
      "name": "TargetRemovedFromWhitelist",
      "type": "event"
    },
    {
      "anonymous": false,
      "inputs": [
        {
          "indexed": true,
          "internalType": "address",
          "name": "target",
          "type": "address"
        }
      ],
      "name": "TargetWhitelisted",
      "type": "event"
    },
    {
      "stateMutability": "payable",
      "type": "fallback"
    },
    {
      "inputs": [],
      "name": "ENGINE_CHANGE_TIMELOCK",
      "outputs": [
        {
          "internalType": "uint256",
          "name": "",
          "type": "uint256"
        }
      ],
      "stateMutability": "view",
      "type": "function"
    },
    {
      "inputs": [],
      "name": "MAX_BATCH_SIZE",
      "outputs": [
        {
          "internalType": "uint256",
          "name": "",
          "type": "uint256"
        }
      ],
      "stateMutability": "view",
      "type": "function"
    },
    {
      "inputs": [],
      "name": "acceptOwnership",
      "outputs": [],
      "stateMutability": "nonpayable",
      "type": "function"
    },
    {
      "inputs": [],
      "name": "autoQuarantineEnabled",
      "outputs": [
        {
          "internalType": "bool",
          "name": "",
          "type": "bool"
        }
      ],
      "stateMutability": "view",
      "type": "function"
    },
    {
      "inputs": [
        {
          "internalType": "address",
          "name": "",
          "type": "address"
        }
      ],
      "name": "availableBalances",
      "outputs": [
        {
          "internalType": "uint256",
          "name": "",
          "type": "uint256"
        }
      ],
      "stateMutability": "view",
      "type": "function"
    },
    {
      "inputs": [
        {
          "internalType": "address",
          "name": "target",
          "type": "address"
        },
        {
          "internalType": "uint256",
          "name": "value",
          "type": "uint256"
        },
        {
          "internalType": "bytes",
          "name": "data",
          "type": "bytes"
        }
      ],
      "name": "callContract",
      "outputs": [
        {
          "internalType": "bytes",
          "name": "",
          "type": "bytes"
        }
      ],
      "stateMutability": "nonpayable",
      "type": "function"
    },
    {
      "inputs": [],
      "name": "complianceEnabled",
      "outputs": [
        {
          "internalType": "bool",
          "name": "",
          "type": "bool"
        }
      ],
      "stateMutability": "view",
      "type": "function"
    },
    {
      "inputs": [],
      "name": "complianceEngine",
      "outputs": [
        {
          "internalType": "contract IWalletCompliance",
          "name": "",
          "type": "address"
        }
      ],
      "stateMutability": "view",
      "type": "function"
    },
    {
      "inputs": [
        {
          "internalType": "uint256",
          "name": "",
          "type": "uint256"
        }
      ],
      "name": "dailyEthSpent",
      "outputs": [
        {
          "internalType": "uint256",
          "name": "",
          "type": "uint256"
        }
      ],
      "stateMutability": "view",
      "type": "function"
    },
    {
      "inputs": [
        {
          "internalType": "address",
          "name": "",
          "type": "address"
        },
        {
          "internalType": "uint256",
          "name": "",
          "type": "uint256"
        }
      ],
      "name": "dailyTokenSpent",
      "outputs": [
        {
          "internalType": "uint256",
          "name": "",
          "type": "uint256"
        }
      ],
      "stateMutability": "view",
      "type": "function"
    },
    {
      "inputs": [],
      "name": "emergencyPause",
      "outputs": [],
      "stateMutability": "nonpayable",
      "type": "function"
    },
    {
      "inputs": [],
      "name": "emergencyPaused",
      "outputs": [
        {
          "internalType": "bool",
          "name": "",
          "type": "bool"
        }
      ],
      "stateMutability": "view",
      "type": "function"
    },
    {
      "inputs": [],
      "name": "emergencyUnpause",
      "outputs": [],
      "stateMutability": "nonpayable",
      "type": "function"
    },
    {
      "inputs": [
        {
          "components": [
            {
              "internalType": "enum IWalletCompliance.OperationType",
              "name": "opType",
              "type": "uint8"
            },
            {
              "internalType": "address",
              "name": "target",
              "type": "address"
            },
            {
              "internalType": "uint256",
              "name": "value",
              "type": "uint256"
            },
            {
              "internalType": "bytes",
              "name": "data",
              "type": "bytes"
            },
            {
              "internalType": "address",
              "name": "token",
              "type": "address"
            },
            {
              "internalType": "uint256",
              "name": "tokenAmount",
              "type": "uint256"
            },
            {
              "internalType": "uint256",
              "name": "chainId",
              "type": "uint256"
            }
          ],
          "internalType": "struct IWalletCompliance.Operation",
          "name": "op",
          "type": "tuple"
        }
      ],
      "name": "execute",
      "outputs": [
        {
          "internalType": "bytes",
          "name": "",
          "type": "bytes"
        }
      ],
      "stateMutability": "nonpayable",
      "type": "function"
    },
    {
      "inputs": [
        {
          "components": [
            {
              "internalType": "enum IWalletCompliance.OperationType",
              "name": "opType",
              "type": "uint8"
            },
            {
              "internalType": "address",
              "name": "target",
              "type": "address"
            },
            {
              "internalType": "uint256",
              "name": "value",
              "type": "uint256"
            },
            {
              "internalType": "bytes",
              "name": "data",
              "type": "bytes"
            },
            {
              "internalType": "address",
              "name": "token",
              "type": "address"
            },
            {
              "internalType": "uint256",
              "name": "tokenAmount",
              "type": "uint256"
            },
            {
              "internalType": "uint256",
              "name": "chainId",
              "type": "uint256"
            }
          ],
          "internalType": "struct IWalletCompliance.Operation[]",
          "name": "ops",
          "type": "tuple[]"
        }
      ],
      "name": "executeBatch",
      "outputs": [
        {
          "components": [
            {
              "internalType": "bool",
              "name": "success",
              "type": "bool"
            },
            {
              "internalType": "bytes",
              "name": "returnData",
              "type": "bytes"
            },
            {
              "internalType": "enum IAssetCompliance.Decision",
              "name": "decision",
              "type": "uint8"
            },
            {
              "internalType": "string",
              "name": "reason",
              "type": "string"
            }
          ],
          "internalType": "struct CompliantSmartWalletBase.OperationResult[]",
          "name": "results",
          "type": "tuple[]"
        }
      ],
      "stateMutability": "nonpayable",
      "type": "function"
    },
    {
      "inputs": [],
      "name": "executeEngineChange",
      "outputs": [],
      "stateMutability": "nonpayable",
      "type": "function"
    },
    {
      "inputs": [
        {
          "components": [
            {
              "internalType": "enum IWalletCompliance.OperationType",
              "name": "opType",
              "type": "uint8"
            },
            {
              "internalType": "address",
              "name": "target",
              "type": "address"
            },
            {
              "internalType": "uint256",
              "name": "value",
              "type": "uint256"
            },
            {
              "internalType": "bytes",
              "name": "data",
              "type": "bytes"
            },
            {
              "internalType": "address",
              "name": "token",
              "type": "address"
            },
            {
              "internalType": "uint256",
              "name": "tokenAmount",
              "type": "uint256"
            },
            {
              "internalType": "uint256",
              "name": "chainId",
              "type": "uint256"
            }
          ],
          "internalType": "struct IWalletCompliance.Operation",
          "name": "op",
          "type": "tuple"
        },
        {
          "internalType": "bytes",
          "name": "signature",
          "type": "bytes"
        },
        {
          "internalType": "uint256",
          "name": "deadline",
          "type": "uint256"
        },
        {
          "internalType": "bytes32",
          "name": "salt",
          "type": "bytes32"
        }
      ],
      "name": "executeWithSignature",
      "outputs": [
        {
          "internalType": "bytes",
          "name": "",
          "type": "bytes"
        }
      ],
      "stateMutability": "nonpayable",
      "type": "function"
    },
    {
      "inputs": [
        {
          "internalType": "bytes32",
          "name": "",
          "type": "bytes32"
        }
      ],
      "name": "executedOps",
      "outputs": [
        {
          "internalType": "bool",
          "name": "",
          "type": "bool"
        }
      ],
      "stateMutability": "view",
      "type": "function"
    },
    {
      "inputs": [],
      "name": "fidesCompliance",
      "outputs": [
        {
          "internalType": "contract IFidesCompliance",
          "name": "",
          "type": "address"
        }
      ],
      "stateMutability": "view",
      "type": "function"
    },
    {
      "inputs": [
        {
          "internalType": "address",
          "name": "",
          "type": "address"
        }
      ],
      "name": "frozenBalances",
      "outputs": [
        {
          "internalType": "uint256",
          "name": "",
          "type": "uint256"
        }
      ],
      "stateMutability": "view",
      "type": "function"
    },
    {
      "inputs": [
        {
          "internalType": "address",
          "name": "token",
          "type": "address"
        }
      ],
      "name": "getAvailableBalance",
      "outputs": [
        {
          "internalType": "uint256",
          "name": "",
          "type": "uint256"
        }
      ],
      "stateMutability": "view",
      "type": "function"
    },
    {
      "inputs": [],
      "name": "getDailyEthSpent",
      "outputs": [
        {
          "internalType": "uint256",
          "name": "",
          "type": "uint256"
        }
      ],
      "stateMutability": "view",
      "type": "function"
    },
    {
      "inputs": [
        {
          "internalType": "address",
          "name": "token",
          "type": "address"
        }
      ],
      "name": "getDailyTokenSpent",
      "outputs": [
        {
          "internalType": "uint256",
          "name": "",
          "type": "uint256"
        }
      ],
      "stateMutability": "view",
      "type": "function"
    },
    {
      "inputs": [
        {
          "internalType": "address",
          "name": "token",
          "type": "address"
        }
      ],
      "name": "getFrozenBalance",
      "outputs": [
        {
          "internalType": "uint256",
          "name": "",
          "type": "uint256"
        }
      ],
      "stateMutability": "view",
      "type": "function"
    },
    {
      "inputs": [],
      "name": "operationNonce",
      "outputs": [
        {
          "internalType": "uint256",
          "name": "",
          "type": "uint256"
        }
      ],
      "stateMutability": "view",
      "type": "function"
    },
    {
      "inputs": [],
      "name": "operator",
      "outputs": [
        {
          "internalType": "address",
          "name": "",
          "type": "address"
        }
      ],
      "stateMutability": "view",
      "type": "function"
    },
    {
      "inputs": [],
      "name": "owner",
      "outputs": [
        {
          "internalType": "address",
          "name": "",
          "type": "address"
        }
      ],
      "stateMutability": "view",
      "type": "function"
    },
    {
      "inputs": [],
      "name": "pendingComplianceEngine",
      "outputs": [
        {
          "internalType": "address",
          "name": "",
          "type": "address"
        }
      ],
      "stateMutability": "view",
      "type": "function"
    },
    {
      "inputs": [],
      "name": "pendingEngineChangeTime",
      "outputs": [
        {
          "internalType": "uint256",
          "name": "",
          "type": "uint256"
        }
      ],
      "stateMutability": "view",
      "type": "function"
    },
    {
      "inputs": [],
      "name": "pendingOwner",
      "outputs": [
        {
          "internalType": "address",
          "name": "",
          "type": "address"
        }
      ],
      "stateMutability": "view",
      "type": "function"
    },
    {
      "inputs": [],
      "name": "policy",
      "outputs": [
        {
          "internalType": "uint256",
          "name": "maxTxValue",
          "type": "uint256"
        },
        {
          "internalType": "uint256",
          "name": "maxTokenTxAmount",
          "type": "uint256"
        },
        {
          "internalType": "uint256",
          "name": "dailyEthLimit",
          "type": "uint256"
        },
        {
          "internalType": "uint256",
          "name": "dailyTokenLimit",
          "type": "uint256"
        },
        {
          "internalType": "bool",
          "name": "blockContractCalls",
          "type": "bool"
        },
        {
          "internalType": "bool",
          "name": "blockUnknownTokens",
          "type": "bool"
        },
        {
          "internalType": "bool",
          "name": "requireWhitelist",
          "type": "bool"
        }
      ],
      "stateMutability": "view",
      "type": "function"
    },
    {
      "inputs": [
        {
          "internalType": "address",
          "name": "newEngine",
          "type": "address"
        }
      ],
      "name": "proposeEngineChange",
      "outputs": [],
      "stateMutability": "nonpayable",
      "type": "function"
    },
    {
      "inputs": [
        {
          "internalType": "address",
          "name": "token",
          "type": "address"
        },
        {
          "internalType": "uint256",
          "name": "amount",
          "type": "uint256"
        },
        {
          "internalType": "string",
          "name": "reason",
          "type": "string"
        }
      ],
      "name": "quarantineAssets",
      "outputs": [
        {
          "internalType": "bytes32",
          "name": "recordId",
          "type": "bytes32"
        }
      ],
      "stateMutability": "nonpayable",
      "type": "function"
    },
    {
      "inputs": [
        {
          "internalType": "address",
          "name": "",
          "type": "address"
        },
        {
          "internalType": "uint256",
          "name": "",
          "type": "uint256"
        }
      ],
      "name": "quarantineRecordIds",
      "outputs": [
        {
          "internalType": "bytes32",
          "name": "",
          "type": "bytes32"
        }
      ],
      "stateMutability": "view",
      "type": "function"
    },
    {
      "inputs": [
        {
          "internalType": "bytes32",
          "name": "",
          "type": "bytes32"
        }
      ],
      "name": "quarantineRecords",
      "outputs": [
        {
          "internalType": "bytes32",
          "name": "recordId",
          "type": "bytes32"
        },
        {
          "internalType": "address",
          "name": "token",
          "type": "address"
        },
        {
          "internalType": "uint256",
          "name": "amount",
          "type": "uint256"
        },
        {
          "internalType": "uint256",
          "name": "timestamp",
          "type": "uint256"
        }
      ],
      "stateMutability": "view",
      "type": "function"
    },
    {
      "inputs": [],
      "name": "quarantineThreshold",
      "outputs": [
        {
          "internalType": "uint256",
          "name": "",
          "type": "uint256"
        }
      ],
      "stateMutability": "view",
      "type": "function"
    },
    {
      "inputs": [],
      "name": "quarantineVault",
      "outputs": [
        {
          "internalType": "contract QuarantineVault",
          "name": "",
          "type": "address"
        }
      ],
      "stateMutability": "view",
      "type": "function"
    },
    {
      "inputs": [
        {
          "internalType": "address",
          "name": "token",
          "type": "address"
        },
        {
          "internalType": "uint256",
          "name": "amount",
          "type": "uint256"
        },
        {
          "internalType": "bytes32",
          "name": "recordId",
          "type": "bytes32"
        }
      ],
      "name": "releaseQuarantinedAssets",
      "outputs": [],
      "stateMutability": "nonpayable",
      "type": "function"
    },
    {
      "inputs": [
        {
          "internalType": "address",
          "name": "target",
          "type": "address"
        }
      ],
      "name": "removeFromWhitelist",
      "outputs": [],
      "stateMutability": "nonpayable",
      "type": "function"
    },
    {
      "inputs": [
        {
          "internalType": "bool",
          "name": "_enabled",
          "type": "bool"
        }
      ],
      "name": "setAutoQuarantineEnabled",
      "outputs": [],
      "stateMutability": "nonpayable",
      "type": "function"
    },
    {
      "inputs": [
        {
          "internalType": "bool",
          "name": "_enabled",
          "type": "bool"
        }
      ],
      "name": "setComplianceEnabled",
      "outputs": [],
      "stateMutability": "nonpayable",
      "type": "function"
    },
    {
      "inputs": [
        {
          "internalType": "address",
          "name": "_operator",
          "type": "address"
        }
      ],
      "name": "setOperator",
      "outputs": [],
      "stateMutability": "nonpayable",
      "type": "function"
    },
    {
      "inputs": [
        {
          "components": [
            {
              "internalType": "uint256",
              "name": "maxTxValue",
              "type": "uint256"
            },
            {
              "internalType": "uint256",
              "name": "maxTokenTxAmount",
              "type": "uint256"
            },
            {
              "internalType": "uint256",
              "name": "dailyEthLimit",
              "type": "uint256"
            },
            {
              "internalType": "uint256",
              "name": "dailyTokenLimit",
              "type": "uint256"
            },
            {
              "internalType": "bool",
              "name": "blockContractCalls",
              "type": "bool"
            },
            {
              "internalType": "bool",
              "name": "blockUnknownTokens",
              "type": "bool"
            },
            {
              "internalType": "bool",
              "name": "requireWhitelist",
              "type": "bool"
            },
            {
              "internalType": "address[]",
              "name": "allowedDex",
              "type": "address[]"
            },
            {
              "internalType": "address[]",
              "name": "blockedContracts",
              "type": "address[]"
            },
            {
              "internalType": "bytes32[]",
              "name": "whitelistedContracts",
              "type": "bytes32[]"
            }
          ],
          "internalType": "struct IWalletCompliance.WalletPolicy",
          "name": "_policy",
          "type": "tuple"
        }
      ],
      "name": "setPolicy",
      "outputs": [],
      "stateMutability": "nonpayable",
      "type": "function"
    },
    {
      "inputs": [
        {
          "internalType": "uint256",
          "name": "_threshold",
          "type": "uint256"
        }
      ],
      "name": "setQuarantineThreshold",
      "outputs": [],
      "stateMutability": "nonpayable",
      "type": "function"
    },
    {
      "inputs": [
        {
          "internalType": "address",
          "name": "_vault",
          "type": "address"
        }
      ],
      "name": "setQuarantineVault",
      "outputs": [],
      "stateMutability": "nonpayable",
      "type": "function"
    },
    {
      "inputs": [
        {
          "internalType": "address",
          "name": "to",
          "type": "address"
        },
        {
          "internalType": "uint256",
          "name": "amount",
          "type": "uint256"
        }
      ],
      "name": "transferETH",
      "outputs": [
        {
          "internalType": "bool",
          "name": "",
          "type": "bool"
        }
      ],
      "stateMutability": "nonpayable",
      "type": "function"
    },
    {
      "inputs": [
        {
          "internalType": "address",
          "name": "newOwner",
          "type": "address"
        }
      ],
      "name": "transferOwnership",
      "outputs": [],
      "stateMutability": "nonpayable",
      "type": "function"
    },
    {
      "inputs": [
        {
          "internalType": "address",
          "name": "token",
          "type": "address"
        },
        {
          "internalType": "address",
          "name": "to",
          "type": "address"
        },
        {
          "internalType": "uint256",
          "name": "amount",
          "type": "uint256"
        }
      ],
      "name": "transferToken",
      "outputs": [
        {
          "internalType": "bool",
          "name": "",
          "type": "bool"
        }
      ],
      "stateMutability": "nonpayable",
      "type": "function"
    },
    {
      "inputs": [
        {
          "internalType": "address",
          "name": "target",
          "type": "address"
        }
      ],
      "name": "whitelistTarget",
      "outputs": [],
      "stateMutability": "nonpayable",
      "type": "function"
    },
    {
      "inputs": [
        {
          "internalType": "address",
          "name": "",
          "type": "address"
        }
      ],
      "name": "whitelistedTargets",
      "outputs": [
        {
          "internalType": "bool",
          "name": "",
          "type": "bool"
        }
      ],
      "stateMutability": "view",
      "type": "function"
    },
    {
      "stateMutability": "payable",
      "type": "receive"
    }
  ],
  "bytecode": "0x60806040523461002e5761001d6100146100fb565b93929092610120565b6040516151aa61082582396151aa90f35b5f80fd5b634e487b7160e01b5f52604160045260245ffd5b90601f01601f191681019081106001600160401b0382111761006757604052565b610032565b9061008061007960405190565b9283610046565b565b6001600160a01b031690565b90565b6001600160a01b0381160361002e57565b9050519061008082610091565b919060a08382031261002e576100c581846100a2565b926100d382602083016100a2565b9261008e6100e484604085016100a2565b9360806100f482606087016100a2565b94016100a2565b6101196159cf8038038061010e8161006c565b9283398101906100af565b9091929394565b906100809493929161059f565b9060ff60a01b9060a01b5b9181191691161790565b9061015261008e61015992151590565b825461012d565b9055565b9060ff90610138565b9061017661008e61015992151590565b825461015d565b905f1990610138565b61008e61008e61008e9290565b906101a361008e61015992610186565b825461017d565b61008261008e61008e9290565b61008e906101aa565b906001600160a01b0390610138565b61008e90610082906001600160a01b031682565b61008e906101cf565b61008e906101e3565b9061020561008e610159926101ec565b82546101c0565b6001600160401b0381116100675760208091020190565b906102356102308361020c565b61006c565b918252565b369037565b9061008061025561024f84610223565b9361020c565b601f19016020840161023a565b61008e61014061006c565b9061ff009060081b610138565b9061028a61008e61015992151590565b825461026d565b9062ff00009060101b610138565b906102af61008e61015992151590565b8254610291565b915f1960089290920291821b911b610138565b91906102da61008e61015993610186565b9083546102b6565b610080915f916102c9565b8181106102f8575050565b806103055f6001936102e2565b016102ed565b91909182821061031a57505050565b610080929161032e905b915f5260205f2090565b91820191016102ed565b906801000000000000000081116100675781610355610080935490565b9082815561030b565b8151916001600160401b038311610067576103926103886001926103828686610338565b60200190565b925f5260205f2090565b9204915f5b8381106103a45750505050565b60019060206103bd61008e86516001600160a01b031690565b9401938184015501610397565b906100809161035e565b91906102da61008e6101599390565b610080915f916103d4565b8181106103f9575050565b806104065f6001936103e3565b016103ee565b91909182821061041b57505050565b610080929161042990610324565b91820191016103ee565b906801000000000000000081116100675781610450610080935490565b9082815561040c565b8151916001600160401b0383116100675761047d6103886001926103828686610433565b9204915f5b83811061048f5750505050565b600190602061049f61008e865190565b9401938184015501610482565b9061008091610459565b600761058e610120610080946104d56104cf5f83015190565b86610193565b6104ec6104e3602083015190565b60018701610193565b6105036104fa604083015190565b60028701610193565b61051a610511606083015190565b60038701610193565b61055a600486016105376105316080850151151590565b82610166565b61054d61054760a0850151151590565b8261027a565b60c083015115159061029f565b61057161056860e083015190565b600587016103ca565b61058961058061010083015190565b600687016103ca565b015190565b91016104ac565b90610080916104b6565b91929390936105ac6107d6565b6105b860016004610142565b6105c460016013610166565b6105d8683635c9adc5dea000006014610193565b6105e15f6101b7565b6001600160a01b0381166001600160a01b038516146107bb576001600160a01b0381166001600160a01b038716146107bb576001600160a01b0381166001600160a01b038616146107bb576001600160a01b0381166001600160a01b038316146107bb576001600160a01b03166001600160a01b038316146107bb57843b61066f61066b5f610186565b9190565b146107bb57833b61068261066b5f610186565b146107bb57813b61069561066b5f610186565b146107bb576106d26106d9946106c66106cb6106e0986106c66106c6966106bf6106c69a5f6101f5565b60186101f5565b6101ec565b60026101f5565b60036101f5565b60046101f5565b6100806106ec5f610186565b6107b46106f88261023f565b916107ac61070e6107088361023f565b9261023f565b916107a461071a610262565b9561073461073068056bc75e2d63100000610186565b8852565b61075161074a69d3c21bcecceda1000000610186565b6020890152565b61076d610766681b1ae4d6e2ef500000610186565b6040890152565b61078b6107846a0422ca8b0a00a425000000610186565b6060890152565b5f60808801525f60a08801525f60c088015260e0870152565b610100850152565b610120830152565b6009610595565b63e6c4247b60e01b5f908152600490fd5b61008e6001610186565b6100806107e16107cc565b5f6107ed61008e61081c565b01610193565b61008e7f9b779b17422d0df92223018b32b4d1fa46e071723d6817e2486d003becc55f00610186565b61008e6107f356fe6080604052600436101561001d575b366141625761001b614076565b005b5f3560e01c806303d8a8761461033c5780630505c8c9146103375780630ad9e7bf1461033257806313390c041461032d5780631cfda9fa146103285780631deacdf61461032357806322c227411461031e5780632447213d14610319578063245afe2d1461031457806324d78c051461030f57806327c830a91461030a5780634a4e3bd5146103055780634e3f10021461030057806351858e27146102fb578063570ca735146102f657806361eaaa04146102f1578063698bf6fb146102ec5780636c24a76f146102e75780636ee37dfa146102e257806376aa984e146102dd57806379ba5097146102d85780637b1a4909146102d35780637b95bb03146102ce57806383129b9a146102c95780638ab1d681146102c45780638da5cb5b146102bf5780638da952d0146102ba57806394fbdbd0146102b55780639cbcd65b146102b05780639f2cfaf1146102ab578063a7f4aaed146102a6578063b3ab15fb146102a1578063b66e18cb1461029c578063bb0891e614610297578063c674c87b14610292578063c677945a1461028d578063c8f4eb6b14610288578063cd15fc3014610283578063cf104ee41461027e578063cfdbf25414610279578063d83c827014610274578063dc3774b31461026f578063e04e77f71461026a578063e30c397814610265578063ef7fa1ab14610260578063f0c4265a1461025b578063f2fde38b14610256578063f5537ede14610251578063f9b231cb1461024c5763fb9ed2570361000e57611099565b611072565b611056565b611015565b610fed565b610e71565b610e4b565b610e28565b610de4565b610dba565b610d93565b610d69565b610d4e565b610d1f565b610cf9565b610ce1565b610cc6565b610c9c565b610c84565b610c69565b610c4e565b610c32565b610bba565b610b6b565b610b45565b610b23565b610b07565b610ad7565b610abb565b610a87565b610a6c565b610a2c565b610a06565b6109eb565b6109b7565b61097b565b610958565b61093d565b61091a565b6108ed565b6108ab565b61083b565b610718565b6106db565b610627565b6105d3565b6105bb565b61057b565b6104cd565b6103b8565b6001600160a01b031690565b90565b6001600160a01b0381165b0361036257565b5f80fd5b9050359061037382610350565b565b8061035b565b9050359061037382610375565b90916060828403126103625761034d6103a18484610366565b9360406103b1826020870161037b565b940161037b565b34610362576103d16103cb366004610388565b9161150f565b604051005b0390f35b5f91031261036257565b61034d9081565b61034d90546103e4565b61034d905b60ff1690565b61034d90546103f5565b61034d9060081c6103fa565b61034d905461040a565b61034d9060101c6103fa565b61034d9054610420565b6009610441816103eb565b9161044e600183016103eb565b9161045b600282016103eb565b91610468600383016103eb565b9161047560048201610400565b9161034d6004610486818501610416565b930161042c565b9052565b90815260e08101979695909490939092909160208601526040850152606084015215156080830152151560a082015260c0016103739115159052565b34610362576104dd3660046103da565b6103d66104e8610436565b936104f897959793919360405190565b97889788610491565b906020828203126103625761034d91610366565b61034d90610341906001600160a01b031682565b61034d90610515565b61034d90610529565b9061054590610532565b5f5260205260405f2090565b61034d916008021c81565b9061034d9154610551565b5f61057661034d92601561053b565b61055c565b34610362576103d6610596610591366004610501565b610567565b6040515b9182918290815260200190565b906020828203126103625761034d9161037b565b34610362576103d16105ce3660046105a7565b611577565b34610362576103d16105e6366004610501565b611633565b61034d916008021c610341565b9061034d91546105eb565b61034d5f60046105f8565b61048d90610532565b602081019291610373919061060e565b34610362576106373660046103da565b6103d6610642610603565b60405191829182610617565b90610545565b61034d90610341565b61034d9054610654565b61067290601961064e565b9061067c826103eb565b916106896001820161065d565b9161034d600361069b600285016103eb565b93016103eb565b6106d7610373946106d06060949897956106c0608086019a5f870152565b6001600160a01b03166020850152565b6040830152565b0152565b34610362576103d66106f66106f13660046105a7565b610667565b9061070394929460405190565b948594856106a2565b61034d600160116105f8565b34610362576107283660046103da565b6103d661073361070c565b604051918291826001600160a01b03909116815260200190565b908160e09103126103625790565b909182601f83011215610362578135916001600160401b03831161036257602001926001830284011161036257565b916080838303126103625782356001600160401b03811161036257826107b191850161074d565b926020810135916001600160401b038311610362576107d58461034d94840161075b565b93909460606103b1826040870161037b565b90825f9392825e0152565b61081361081c60209361082693610807815190565b80835293849260200190565b958691016107e7565b601f01601f191690565b0190565b602080825261034d929101906107f2565b34610362576103d661085a61085136600461078a565b93929092611d08565b6040519182918261082a565b916060838303126103625761087b8284610366565b92610889836020830161037b565b9260408201356001600160401b038111610362576108a7920161075b565b9091565b34610362576103d661085a6108c1366004610866565b92919091612085565b61034d916008021c6103fa565b9061034d91546108ca565b61034d5f60116108d7565b34610362576108fd3660046103da565b6103d66109086108e2565b60405191829182901515815260200190565b346103625761092a3660046103da565b6103d16120e3565b61034d5f600561055c565b346103625761094d3660046103da565b6103d6610596610932565b34610362576109683660046103da565b6103d161216a565b61034d5f60186105f8565b346103625761098b3660046103da565b6103d6610733610970565b61034d61034d61034d9290565b61034d6202a300610996565b61034d6109a3565b34610362576109c73660046103da565b6103d66105966109af565b9061054590610996565b5f61057661034d9260076109d2565b34610362576103d6610596610a013660046105a7565b6109dc565b34610362576103d6610596610a1c366004610501565b612172565b61034d5f601461055c565b3461036257610a3c3660046103da565b6103d6610596610a21565b906020828203126103625781356001600160401b0381116103625761034d920161074d565b34610362576103d661085a610a82366004610a47565b6121fb565b3461036257610a973660046103da565b6103d1612269565b91906040838203126103625761034d9060206103b18286610366565b34610362576103d6610908610ad1366004610a9f565b9061250e565b3461036257610ae73660046103da565b6103d1612601565b61057661034d92610b025f93600861053b565b6109d2565b34610362576103d6610596610b1d366004610a9f565b90610aef565b34610362576103d1610b36366004610501565b612659565b61034d5f806105f8565b3461036257610b553660046103da565b6103d6610733610b3b565b61034d5f60136108d7565b3461036257610b7b3660046103da565b6103d6610908610b60565b90816101409103126103625790565b906020828203126103625781356001600160401b0381116103625761034d9201610b86565b34610362576103d1610bcd366004610b95565b6129a0565b634e487b7160e01b5f52603260045260245ffd5b8054821015610c0657610bfe6001915f5260205f2090565b910201905f90565b610bd2565b610c1690601661053b565b80548210156103625761034d91610c2c91610be6565b9061055c565b34610362576103d6610596610c48366004610a9f565b90610c0b565b34610362576103d6610596610c64366004610501565b6129a9565b3461036257610c793660046103da565b6103d66105966129e2565b34610362576103d1610c97366004610501565b612a3d565b34610362576103d6610596610cb2366004610866565b92919091612ef5565b61034d5f601261055c565b3461036257610cd63660046103da565b6103d6610596610cbb565b34610362576103d1610cf4366004610501565b612f87565b34610362576103d6610596610d0f366004610501565b612f90565b61034d5f60026105f8565b3461036257610d2f3660046103da565b6103d6610642610d14565b5f610d4961034d92601a61064e565b6108d7565b34610362576103d6610908610d643660046105a7565b610d3a565b34610362576103d1610d7c366004610501565b613072565b61034d6032610996565b61034d610d81565b3461036257610da33660046103da565b6103d6610596610d8b565b61034d601460046108d7565b3461036257610dca3660046103da565b6103d6610908610dae565b5f61057661034d92601761053b565b34610362576103d6610596610dfa366004610501565b610dd5565b80151561035b565b9050359061037382610dff565b906020828203126103625761034d91610e07565b34610362576103d1610e3b366004610e14565b6130c4565b61034d5f60016105f8565b3461036257610e5b3660046103da565b6103d6610733610e40565b61034d5f60036105f8565b3461036257610e813660046103da565b6103d6610642610e66565b909182601f83011215610362578135916001600160401b03831161036257602001926020830284011161036257565b906020828203126103625781356001600160401b038111610362576108a79201610e8c565b634e487b7160e01b5f52602160045260245ffd5b60041115610efe57565b610ee0565b9061037382610ef4565b61034d90610f03565b61048d90610f0d565b80511515825261034d916060610f4460808301602085015184820360208601526107f2565b92610f5760408201516040850190610f16565b01519060608184039101526107f2565b9061034d91610f1f565b90610f87610f7d835190565b8083529160200190565b9081610f996020830284019460200190565b925f915b838310610fac57505050505090565b90919293946020610fcf610fc883856001950387528951610f67565b9760200190565b9301930191939290610f9d565b602080825261034d92910190610f71565b34610362576103d6611009611003366004610ebb565b90613a8b565b60405191829182610fdc565b34610362576103d1611028366004610501565b613b17565b90916060828403126103625761034d6110468484610366565b9360406103b18260208701610366565b34610362576103d661090861106c36600461102d565b91613d97565b34610362576103d1611085366004610e14565b613dc1565b5f610d4961034d92600661053b565b34610362576103d66109086110af366004610501565b61108a565b156110bb57565b60405162461bcd60e51b81526020600482015260156024820152742737ba1037b832b930ba37b91037b91037bbb732b960591b6044820152606490fd5b0390fd5b90610373929161110f610341601861065d565b33148015611126575b611121906110b4565b61113f565b506111216111366103415f61065d565b33149050611118565b90611152929161114d614171565b6112a1565b6103736141a0565b634e487b7160e01b5f52604160045260245ffd5b90601f01601f191681019081106001600160401b0382111761118f57604052565b61115a565b6040513d5f823e3d90fd5b634e487b7160e01b5f52601160045260245ffd5b919082039182116111c057565b61119f565b905f19905b9181191691161790565b906111e461034d6111eb92610996565b82546111c5565b9055565b919082018092116111c057565b915f1960089290920291821b911b6111ca565b919061121e61034d6111eb9390565b9083546111fc565b610373915f9161120f565b919061121e61034d6111eb93610996565b610373915f91611231565b5f60036103739261126083808301611226565b8260018201556112738360028301611242565b01611242565b634e487b7160e01b5f525f60045260245ffd5b905f0361129c576103739061124d565b611279565b90916112ac5f610996565b83146114fe576112c061034d82601961064e565b6112c9816103eb565b6112dc6112d861034d5f610996565b9190565b146114c6576112ed6001820161065d565b6113086001600160a01b0385165b916001600160a01b031690565b0361149057600261131991016103eb565b8390036114595761133361132e83601561053b565b6103eb565b83116114445761134b611346600461065d565b610532565b803b15610362575f61135c60405190565b63c92ee04360e01b815260048101849052918290602490829084905af192831561143f5761134661141d93611413937f3cb50900cb5f9de3ef4c3deb4bd3a97154b01e866df20b2c88781e40a6a9dc8896611422575b506113d96113c184601561053b565b6113d3896113ce836103eb565b6111b3565b906111d4565b6113f96113e784601761053b565b6113d3896113f4836103eb565b6111ef565b61140d5f61140883601961064e565b61128c565b826141e6565b9261059a60405190565b0390a2565b611439905f611431818361116e565b8101906103da565b5f6113b2565b611194565b63528ef59f60e11b5f908152600490fd5b035ffd5b60405162461bcd60e51b815260206004820152600f60248201526e082dadeeadce840dad2e6dac2e8c6d608b1b6044820152606490fd5b60405162461bcd60e51b815260206004820152600e60248201526d0a8ded6cadc40dad2e6dac2e8c6d60931b6044820152606490fd5b60405162461bcd60e51b815260206004820152601060248201526f149958dbdc99081b9bdd08199bdd5b9960821b6044820152606490fd5b63e6c4247b60e01b5f908152600490fd5b9061037392916110fc565b1561152157565b60405162461bcd60e51b81526020600482015260096024820152682737ba1037bbb732b960b91b6044820152606490fd5b6103739061156c6115656103415f61065d565b331461151a565b6103739060146111d4565b61037390611552565b610373906115936115656103415f61065d565b6115ce565b61034161034d61034d9290565b61034d90611598565b9060ff906111ca565b906115c761034d6111eb92151590565b82546115ae565b6115da6103415f6115a5565b6001600160a01b038216146114fe578061134660016115fd61160294600661053b565b6115b7565b7f3d5490c3a5f2e74f927ed836bbeb02e5cf4f5e601f134742ec4c00235710b08261162c60405190565b808061141d565b61037390611580565b1561164357565b60405162461bcd60e51b8152602060048201526015602482015274456d657267656e6379206d6f64652061637469766560581b6044820152606490fd5b9061034d95949392916116a261169d6116996011610400565b1590565b61163c565b611a58565b600c111561036257565b600c1115610efe57565b90610373826116b1565b3561034d816116a7565b3561034d81610350565b3561034d81610375565b903590601e19368290030182121561036257018035906001600160401b038211610362576020019136829003831361036257565b9061037361172460405190565b928361116e565b6001600160401b03811161118f57602090601f01601f19160190565b90825f939282370152565b909291926117676117628261172b565b611717565b938185528183011161036257610373916020850190611747565b61034d913691611752565b61034d906116bb565b61048d9061178c565b979593919a9998969492909a61014089019b5f8a016117bb919052565b6001600160a01b03166020890152604088016117d691611795565b6001600160a01b03166060870152608086015260a08501526001600160a01b031660c084015260e08301526101008201526101200152565b61034d9060a01c6103fa565b61034d905461180e565b90503590610373826116a7565b5061034d906020810190611824565b5061034d906020810190610366565b5061034d90602081019061037b565b9035601e1936839003018112156103625701602081359101916001600160401b0382116103625736829003831361036257565b919061081c816118a8816108269560209181520190565b8095611747565b9061034d9060c061196761192660e084016118d46118cd8880611831565b8690611795565b6118f46118e46020890189611840565b6001600160a01b03166020870152565b61190b611904604089018961184f565b6040870152565b611918606088018861185e565b908683036060880152611891565b946119476119376080830183611840565b6001600160a01b03166080860152565b61195e61195760a083018361184f565b60a0860152565b8281019061184f565b910152565b6001600160a01b03909116815261034d91604082019160208184039101526118af565b9080601f830112156103625781602061034d93359101611752565b91909160e081840312610362576119c160e0611717565b926119cc8183611824565b84526119db8160208401610366565b60208501526119ed816040840161037b565b604085015260608201356001600160401b0381116103625782611a178360c093611a46960161198f565b6060870152611a298360808301610366565b6080870152611a3b8360a0830161037b565b60a08701520161037b565b60c0830152565b61034d9036906119aa565b50939092909190804211611cf757611b00611a7230610532565b611a7b876116c5565b90611af4611a8b60208a016116cf565b9487611a9960408c016116d9565b8b611ab0611aaa60608301836116e3565b90611781565b611ac2611abb825190565b9160200190565b20611adb60a0611ad4608085016116cf565b93016116d9565b92611ae560405190565b9a8b9960208b0199468b61179e565b9081038252038261116e565b611b0b611abb825190565b2092611b20611b1b85601a61064e565b610400565b611ce657611b62611b6892611b5c867f19457468657265756d205369676e6564204d6573736167653a0a3332000000005f52601c52603c5f2090565b92611781565b90614253565b90611b725f6115a5565b926001600160a01b0384166001600160a01b038416148015611cc8575b611cb7576112d8611bad8261034d60016115fd611bb396601a61064e565b93610532565b917f48686cca1e5c197c526f0150601119b033f9fdb1c54ad0600f21ddff63a673d9611bde60405190565b5f90a4611beb600461181a565b9081611c8d575b50611c09575b611c0461034d91611a4d565b614273565b611c16611346600261065d565b90611c205f61065d565b91803b1561036257815f91611c5794611c3860405190565b809681948293611c4c63c538fec060e01b90565b84526004840161196c565b03915afa90811561143f5761034d92611c0492611c78575b50915050611bf8565b611c87905f611431818361116e565b5f611c6f565b9050611caf6112fb611ca2611346600261065d565b926001600160a01b031690565b14155f611bf2565b638baa579f60e01b5f908152600490fd5b50611cd56103415f61065d565b6001600160a01b0384161415611b8f565b632e108c6960e21b5f908152600490fd5b630819bdcd60e01b5f908152600490fd5b61034d94939291906060611680565b9061034d94939291611d2e6115656103415f61065d565b9061034d94939291611d4661169d6116996011610400565b90611d5b94939291611d56614171565b611eb2565b906103736141a0565b61034d60e0611717565b9061048d906116bb565b90916108269083908093611747565b909161034d92611d78565b90611d9f6117628361172b565b918252565b3d15611dbd57611db33d611d92565b903d5f602084013e565b606090565b5f1981146111c05760010190565b9061034d9060c080611e2360e08401611def5f8801515f870190611795565b6020878101516001600160a01b031690860152611e1160408801516040870152565b606087015185820360608701526107f2565b6080808701516001600160a01b03169085015294611e4660a082015160a0860152565b0151910152565b611e7a610373946106d0611e726060959998969960808601908682035f880152611dd0565b986020850152565b01906001600160a01b03169052565b611eaa610373946106d06060949897956106c0608086019a5f870190611795565b019015159052565b50611ebc5f6115a5565b936001600160a01b0385166001600160a01b038316146114fe57611edf30610532565b9083823110611444575f80611ef2611d64565b92611f006001838601611d6e565b6001600160a01b0386166020850152611f1a876040860152565b611f2e611f27828a611781565b6060860152565b6001600160a01b0389166080850152611f4682610996565b97611f528960a0870152565b611f5d4660c0870152565b611f67600461181a565b61206e575b611f758561464d565b611f80898b8a6148ea565b611f95611f8c60405190565b92839283611d87565b039087875af194611fa4611da4565b96861561205257505061201f5f8051602061515e83398151915294939261201061203493611fd2600461181a565b61203a575b611fe160056103eb565b611ff4611fed82611dc2565b60056111d4565b611af461200060405190565b9485936020850193469185611e4d565b61201b611abb825190565b2090565b9461202960405190565b938493600185611e89565b0390a290565b61204d89826120485f61065d565b614a6f565b611fd7565b61205d925085614973565b63024d9cdb60e01b5f908152600490fd5b6120808561207b8561065d565b614526565b611f6c565b61034d939291906060611d17565b6120a26115656103415f61065d565b6103736120b05f60116115b7565b6120b933610532565b7ff5cbf596165cc457b2cd92e8d8450827ee314968160a5696402d75766fc52caf61162c60405190565b610373612093565b6120f8610341601861065d565b33148015612112575b61210a906110b4565b61037361212b565b5061210a6121226103415f61065d565b33149050612101565b612137600160116115b7565b61214033610532565b7fb8fad2fa0ed7a383e747c309ef2c4391d7b65592a48893e57ccc1fab7079145661162c60405190565b6103736120eb565b61132e61034d916121805f90565b50601761053b565b9061034d9161219c6115656103415f61065d565b9061034d916121ab600461181a565b156121cb576121cb6121bc5f61065d565b6121c584611a4d565b90614526565b9061034d916121e061169d6116996011610400565b90611d5b916121ed614171565b61034d91611c049150611a4d565b61034d906060612188565b906001600160a01b03906111ca565b9061222561034d6111eb92610532565b8254612206565b916001600160a01b0360089290920291821b911b6111ca565b919061225661034d6111eb93610532565b90835461222c565b610373915f91612245565b612276610341600161065d565b33036122d05761228f612289600161065d565b5f612215565b61229a5f600161225e565b6122a66113465f61065d565b7fa2ea9883a321a3e97b8266c2b078bfeec6d50c711ed71f874a90d500ae2eaf3661162c60405190565b60405162461bcd60e51b81526020600482015260116024820152702737ba103832b73234b7339037bbb732b960791b6044820152606490fd5b9061034d929161231e6115656103415f61065d565b9061034d929161233461169d6116996011610400565b90611d5b9291612342614171565b612358565b61034d5f611d92565b61034d612347565b506123625f6115a5565b916001600160a01b0383166001600160a01b0383161480156124fd575b6114fe5761238c83614afc565b61239a61132e84601761053b565b8111611444576123a8611d64565b6123b25f82611d6e565b6001600160a01b03831660208201526123cc826040830152565b6123de6123d7612350565b6060830152565b6001600160a01b03841660808201526123f65f610996565b6124018160a0840152565b61240c4660c0840152565b612416600461181a565b6124eb575b6124248261464d565b61242f8186856148ea565b5f8061243a60405190565b5f9086885af194612449611da4565b5085156124cf575050906124a45f8051602061515e8339815191529261246f600461181a565b6124bc575b61201061248160056103eb565b9161248e611fed84611dc2565b61249730610532565b92611af461200060405190565b92612034856124b260405190565b9384935f85611e89565b6124ca86826120485f61065d565b612474565b6124da925083614973565b630db2c7f160e31b5f908152600490fd5b6124f88261207b5f61065d565b61241b565b506125075f610996565b811461237f565b61034d91905f612309565b6125286115656103415f61065d565b610373612546565b61034d9060081c610341565b61034d9054612530565b612550601161253c565b61255f6112fb6103415f6115a5565b146125f05761257161034d60126103eb565b42106125df5761258e612587611346601161253c565b6002612215565b61259b611346601161253c565b7ffb6fb1ffa5ce9f6148489aa41ebd619a443018a4b6305499e686c0c503d9f4536125c560405190565b5f90a26125d46001601161225e565b6103735f6012611242565b63621e25c360e01b5f908152600490fd5b63147fde5f60e31b5f908152600490fd5b610373612519565b6103739061261c6115656103415f61065d565b61262f906113465f6115fd83600661053b565b7f09443fc4fa9f38ce51944d7db4f773a5ffb81b85d76c7119b37194b3d831256761162c60405190565b61037390612609565b610373906126756115656103415f61065d565b612995565b3561034d81610dff565b9061ff009060081b6111ca565b906126a161034d6111eb92151590565b8254612684565b9062ff00009060101b6111ca565b906126c661034d6111eb92151590565b82546126a8565b903590601e19368290030182121561036257018035906001600160401b0382116103625760200191602082023603831361036257565b81811061270e575050565b8061271b5f600193611242565b01612703565b91909182821061273057505050565b6103739291612744905b915f5260205f2090565b9182019101612703565b90600160401b811161118f5781612766610373935490565b90828155612721565b906001600160401b03831161118f5761279b61279160019261034d868661274e565b925f5260205f2090565b9204915f5b8381106127ad5750505050565b60019060206127be61034d866116cf565b94019381840155016127a0565b90610373929161276f565b8181106127e1575050565b806127ee5f600193611226565b016127d6565b91909182821061280357505050565b61037392916128119061273a565b91820191016127d6565b90600160401b811161118f5781612833610373935490565b908281556127f4565b906001600160401b03831161118f5761285e61279160019261034d868661281b565b9204915f5b8381106128705750505050565b600190602061288161034d866116d9565b9401938184015501612863565b90610373929161283c565b600790612982610373936128b76128b15f83016116d9565b846111d4565b6128cf6128c6602083016116d9565b600185016111d4565b6128e76128de604083016116d9565b600285016111d4565b6128ff6128f6606083016116d9565b600385016111d4565b6129426004840161291b6129156080850161267a565b826115b7565b61293061292a60a0850161267a565b82612691565b61293c60c0840161267a565b906126b6565b61295c61295260e08301836126cd565b90600586016127cb565b61297761296d6101008301836126cd565b90600686016127cb565b6101208101906126cd565b9290910161288e565b9061037391612899565b61037390600961298b565b61037390612662565b61132e61034d916129b75f90565b50601561053b565b634e487b7160e01b5f52601260045260245ffd5b81156129dd570490565b6129bf565b61034d61132e6129fd6129f762015180610996565b426129d3565b60076109d2565b61037390612a176115656103415f61065d565b612a236103415f6115a5565b6001600160a01b038216146114fe57610373906018612215565b61037390612a04565b9061034d94939291612a5b610341601861065d565b33148015612a72575b612a6d906110b4565b612a8b565b50612a6d612a826103415f61065d565b33149050612a64565b90611d5b94939291612a9b614171565b612bdb565b9050519061037382610375565b906020828203126103625761034d91612aa0565b90939161034d95936106d0612ae9926106c060808601985f8701906001600160a01b03169052565b6060818503910152611891565b90815491600160401b83101561118f5782612b1991600161037395018155610be6565b9061120f565b61034d6080611717565b906111e461034d6111eb9290565b6003612b91606061037394612b55612b4f5f83015190565b86612b29565b612b75612b6c60208301516001600160a01b031690565b60018701612215565b612b8c612b83604083015190565b600287016111d4565b015190565b91016111d4565b9061037391612b37565b61048d906001600160a01b031660601b90565b01918252565b018092612ba2565b90815260406020820181905261034d93910191611891565b50939291612be85f610996565b82146114fe57612bfb611346600461065d565b94612c055f6115a5565b6001600160a01b0381166001600160a01b03881614612ee4576001600160a01b0381166001600160a01b03831603612d8e57612c4160056103eb565b612c4d611fed82611dc2565b612c90612c5960405190565b8092611af4602083019189883343428761082694612bb56014602099989596612bbb8b8099612bbb8289612bb5889b612bb59d9052565b612c9b611abb825190565b2096612ca630610532565b3190612cc1601592612cbb61132e868661053b565b906111b3565b8611611444575f80612cfd92612ce7612cda878761053b565b6113d38b6113f4836103eb565b6040515f918a905af1612cf8611da4565b501590565b612d7357505090612d1b5f8051602061517e83398151915292610532565b92837f440818643a5a59001e283b5a9a6053b601a98dee66ec003d5f4df415c503ae42612d4760405190565b80612d5489878784612bc3565b0390a2612d6e8795612d6560405190565b93849384612bc3565b0390a3565b6113d3612d846124da93879361053b565b916113ce836103eb565b50612da061132e82601798949861053b565b831161144457612dba838793612db584610532565b614c2b565b602083612dca611346600461065d565b835f612dd530610532565b612dfc8a612de260405190565b9d8e9788968795630898c6a160e31b875260048701612ac1565b03925af195861561143f575f96612e9e575b5090612d1b5f8051602061517e8339815191529261134688612e346113e784601561053b565b612e426113c184601761053b565b612e5981612e5461034d86601661053b565b612af6565b612e99612e64612b1f565b91612e6d818452565b6001600160a01b0385166020840152612e87896040850152565b612e92426060850152565b601961064e565b612b98565b5f8051602061517e83398151915292919650612ed4612d1b9160203d602011612edd575b612ecc818361116e565b810190612aad565b96919250612e0e565b503d612ec2565b63204c705f60e01b5f908152600490fd5b61034d939291905f612a46565b61037390612f156115656103415f61065d565b612f216103415f6115a5565b6001600160a01b038216146114fe57803b612f3e6112d85f610996565b146114fe5780611346612f56611346612f5d94610532565b6004612215565b7f20551eeadd52a2ff31f065b249916d4fd7679a9f12efd4216bd408d10e31c77661162c60405190565b61037390612f02565b61132e612fa961034d92612fa15f90565b50600861053b565b612fb86129f762015180610996565b906109d2565b61037390612fd16115656103415f61065d565b613000565b90610100600160a81b039060081b6111ca565b90612ff961034d6111eb92610532565b8254612fd6565b61300c6103415f6115a5565b6001600160a01b038216146114fe57613026816011612fe9565b61304161303a6130346109a3565b426111ef565b60126111d4565b7f66419bd61095a2d5617843af79e609a31d8a9546360a752b5a8db7e973c7827c61141d611413611bad60126103eb565b61037390612fbe565b6103739061308e6115656103415f61065d565b6130b9565b9060ff60a01b9060a01b6111ca565b906130b261034d6111eb92151590565b8254613093565b6103739060046130a2565b6103739061307b565b9061034d92916130e26115656103415f61065d565b9061034d92916130f861169d6116996011610400565b90611d5b9291613106614171565b613520565b6001600160401b03811161118f5760208091020190565b90611d9f6117628361310b565b613137612b1f565b905f82526020808080850160608152015f8152016060905250565b61034d61312f565b5f5b82811061316857505050565b602090613173613152565b818401520161315c565b9061037361319361318d84613122565b9361310b565b601f19016020840161315a565b9061034d916118af565b903560de193683900301811215610362570190565b8183529160200190816131d56020830284019490565b92835f925b8484106131ea5750505050505090565b909192939495602061321661320f838560019503885261320a8b886131aa565b6131a0565b9860200190565b9401940192949391906131da565b6001600160a01b0391909116815260406020820181905261034d939101916131bf565b5f9060033d1161325357565b905060045f803e5f5160e01c90565b5f9060443d106103735760405160043d036004823e8051903d60248301116001600160401b038311176132cb578181019182516001600160401b0381116132c55760043d038301816020860101116132c55761034d93949550602001019061116e565b50505050565b5050565b6132d9601a611d92565b7f626174636820686f6f6b20756e6b6e6f776e206661696c757265000000000000602082015290565b61034d6132cf565b901515815260406020820181905261034d929101906107f2565b61082661333c92602092613336815190565b94859290565b938491016107e7565b6e03130ba31b410313637b1b5b2b21d1608d1b815261034d9190600f015b90613324565b156133715750565b6110f89061337e60405190565b62461bcd60e51b81529182916004830161082a565b90359060de193682900301821215610362570190565b90821015610c0657602061034d9202810190613393565b6004111561036257565b90505190610373826133c0565b909291926133e76117628261172b565b9381855281830111610362576103739160208501906107e7565b9080601f8301121561036257815161034d926020016133d7565b9190916040818403126103625761343283826133ca565b9260208201516001600160401b0381116103625761034d9201613401565b6001600160a01b03909116815292916103739160409061347c90606087019087820360208901526118af565b9401906001600160a01b03169052565b9061048d90610f03565b9061349f825190565b811015610c06576020809102010190565b6134ba6010611d92565b6f195e1958dd5d1a5bdb8819985a5b195960821b602082015290565b61034d6134b0565b611e7a610373946106d0611e726060959998969960808601908682035f8801526118af565b9081526060810193926103739290916040916106d7906020830152565b508161352b5f610996565b8314613a7a5761353c61034d610d81565b8311613a695761354b8361317d565b93613556600461181a565b80613a45575b61390a575b61356a5f610996565b908190825b868110156138c55761359261358d61358883888a6133a9565b611a4d565b61464d565b61359c600461181a565b806138a1575b6137ae575b6135bd6135b861358883888a6133a9565b614cb1565b90949085156137a4576136005f5b8715613793576123d76135dc612350565b915b6135f76135e9612b1f565b8b15158152955b6020870152565b6040850161348c565b61360a838b613496565b52613615828a613496565b5084156137825761362590611dc2565b9361366c61363f6040613639858a8c6133a9565b016116d9565b8861366660a0613639878c613660608061365a84848a6133a9565b016116cf565b956133a9565b916148ea565b613676600461181a565b61375c575b61368560056103eb565b61368e81611dc2565b6136999060056111d4565b6136a483888a6133a9565b906136ae30610532565b906136b860405190565b928392602084019246906136cc93856134de565b9081038252036136dc908261116e565b805190602001206136ee83888a6133a9565b6136f7906116c5565b61370284898b6133a9565b60200161370e906116cf565b9061371a858a8c6133a9565b604001613726906116d9565b929361373160405190565b93849361373e9385611e89565b035f8051602061515e83398151915291a260010161356f565b61356f565b61377d816137695f61065d565b613777613588868b8d6133a9565b90614a6f565b61367b565b939261378d90611dc2565b9261366c565b6123d761379e6134d6565b916135de565b61360060016135cb565b6138015f6137bf611346600261065d565b6137c88261065d565b906137d4858a8c6133a9565b6137dd30610532565b926137e760405190565b95869485938493637c88e98560e11b855260048501613450565b03915afa801561143f575f915f9161387d575b5061381f6001610f03565b61382883610f03565b146138345750506135a7565b936138769161385b61375794966123d761384c612b1f565b5f8152936135f76135f0612350565b613865868c613496565b52613870858b613496565b50611dc2565b9260010190565b905061389b91503d805f833e613893818361116e565b81019061341b565b5f613814565b506138af611346600261065d565b6138be6112fb6103415f6115a5565b14156135a2565b5095949192507f2403003b183ff811dedab647749b7525f94e39ff05e4a7b4f02743c21b6c16229350613904906138fb60405190565b93849384613503565b0390a190565b6060600161391b611346600261065d565b6139245f61065d565b90803b1561036257855f91886139579461393d60405190565b95869485938493631c8265d760e21b855260048501613224565b03915afa9081613a30575b50613a24576001613971613247565b6308c379a014613a02575b6139e9575b6139de6139e4925b7fc0feb3747cdff72b5f95f5e401f842820c7e78b13ceb3aa2764d611023e839596139b360405190565b806139bf84878361330a565b0390a161034d6139ce60405190565b8092611af4602083019182613345565b90613369565b613561565b50506139e45f6139de6139fa613302565b925050613981565b613a0a613262565b80613a16575b5061397c565b92505f915081905080613a10565b6139de6139e492613989565b613a3f905f611431818361116e565b5f613962565b50613a53611346600261065d565b613a626112fb6103415f6115a5565b141561355c565b6305beb17160e11b5f908152600490fd5b63c2e5347d60e01b5f908152600490fd5b61034d919060606130cd565b61037390613aaa6115656103415f61065d565b613ab66103415f6115a5565b6001600160a01b038216146114fe57613ad0816001612215565b613ae5613adf6113465f61065d565b91610532565b907fc63b9e5336585f530c9d3fcf87d1003c570ffbf3665bd119b9d5ce84461db245613b1060405190565b8080612d6e565b61037390613a97565b9061034d939291613b366115656103415f61065d565b9061034d939291613b4d61169d6116996011610400565b90611d5b939291613b5c614171565b613b7e565b6001600160a01b0390911681526040810192916103739160200152565b5091613b895f6115a5565b6001600160a01b0381166001600160a01b03851614908115613d7b575b508015613d6a575b6114fe57613bbb83614afc565b601792613bcb61132e828661053b565b82116114445760405163a9059cbb60e01b602082015290613c0382613bf4858760248401613b61565b6020820181038252038361116e565b613c0b611d64565b91613c17600384611d6e565b6001600160a01b0385166020840152613c45613c325f610996565b91613c3e836040870152565b6060850152565b6001600160a01b0382166080840152613c5f8460a0850152565b613c6a4660c0850152565b613c74600461181a565b613d58575b613c828361464d565b613c9c613c8f838861053b565b6113d3866113ce836103eb565b613ca78483836148ea565b5f80613cb260405190565b63a9059cbb60e01b6020820152613ce081613cd1898b60248401613b61565b6020820181038252038261116e565b60208151910182865af195613cf3611da4565b508615613d335750505090613d1a5f8051602061515e8339815191529261246f600461181a565b9261203485613d2860405190565b938493600385611e89565b61205d949350613d4683613d539261053b565b6113d3856113f4836103eb565b614973565b613d658361207b5f61065d565b613c79565b50613d745f610996565b8114613bae565b6001600160a01b031690506001600160a01b038316145f613ba6565b61034d9291905f613b20565b61037390613db66115656103415f61065d565b6103739060136115b7565b61037390613da3565b613dd2614171565b611152613df7565b92612bb5602061082694612bb5601488612bb5859b9a8699612ba2565b613e0033610532565b807f88a5966d370b9919b20f3e2c13ff65706f196a4e32cc2c12bf57088f88525874613e2b60405190565b348152602090a2613e3c6013610400565b80614060575b613e495750565b613e56611346600461065d565b613e5f5f6115a5565b916001600160a01b0383166001600160a01b03831614613ffa57613e9a613e8784601561053b565b6113d3613e93826103eb565b34906111ef565b613eb65f80613ea860405190565b5f9034875af1612cf8611da4565b613fd95790613f2a917f7c9d9deacd381b86bb06128f044436d171b305a3e3635406a945f801b8afa50c613ee960405190565b3481526040602082018190526017908201527f6574682d6465706f7369742d71756172616e74696e65640000000000000000006060820152608090a2610532565b7f191e55d56882ec8ef3fc21b90dbd0d63efa1199625b57ab8ebe93e2f670033c9613f5460405190565b348152602090a2613f916112d8613f6a60405190565b613f7f8160208101611af44342343385613dda565b613f8a611abb825190565b2092610532565b905f8051602061517e833981519152613fa960405190565b348152604060208201819052600b908201526a195d1a0b59195c1bdcda5d60aa1b60608201528060808101612d6e565b6124da613fe784601561053b565b6113d3613ff3826103eb565b34906111b3565b9150507f7c9d9deacd381b86bb06128f044436d171b305a3e3635406a945f801b8afa50c61402760405190565b34815260406020820181905260149082015273195d1a0b59195c1bdcda5d0b5b9bcb5d985d5b1d60621b6060820152806080810161141d565b5061406e61034d60146103eb565b341015613e42565b610373613dca565b614086614171565b6140926103415f61065d565b3314158061414b575b6140e0575f806140aa60405190565b806140b6368483611d87565b039034335af16140cc6140c7611da4565b911590565b6140d857602081519101f35b602081519101fd5b60405162461bcd60e51b815260206004820152603960248201527f46616c6c6261636b2063616c6c73207265737472696374656420746f206f776e60448201527f6572206f722077686974656c69737465642074617267657473000000000000006064820152608490fd5b5061415d611699611b1b33600661053b565b61409b565b61407e565b61034d6002610996565b614179614e76565b610373614184614167565b5f61419061034d614ebe565b016111d4565b61034d6001610996565b610373614184614196565b634e487b7160e01b5f52603160045260245ffd5b805480156141e1575f1901906141de6141d88383610be6565b90611226565b55565b6141ab565b61034d6141f491601661053b565b80546141ff5f610996565b818110156132c557614214610c2c8285610be6565b8414614222576001016141ff565b6103739350612b19614247610c2c61424161424e95612cbb6001610996565b86610be6565b9184610be6565b6141bf565b61034d9161426091614ec6565b90929192614f34565b61034d90516116bb565b61427c8161464d565b6040810190614289825190565b9160808201926142b16142a385516001600160a01b031690565b9160a0850192613666845190565b83516001600160a01b0316936142c65f6115a5565b946142d96001600160a01b0387166112fb565b1415806144c7575b614446575b60208401915f806142fe85516001600160a01b031690565b865190606089015191602083519301915af191614319611da4565b9683156143a457505050906120345f8051602061515e833981519152939261439161438d61438861437a5f61434e60056103eb565b61435a611fed82611dc2565b6143678c61249730610532565b614372611abb825190565b209a01614269565b95516001600160a01b031690565b955190565b9690565b9561439b60405190565b94859485611e89565b6143c36143af875190565b83516001600160a01b031685515b91614973565b6143da6112fb611ca284516001600160a01b031690565b141580614431575b6143f75763024d9cdb60e01b5f908152600490fd5b6113d361442061441961440b61442a955190565b93516001600160a01b031690565b601761053b565b916113f4836103eb565b808061205d565b5081516144406112d85f610996565b116143e2565b61445f61445a82516001600160a01b031690565b614afc565b61447661132e61441983516001600160a01b031690565b6144846112d861034d855190565b106144b0576144ab614494835190565b6113d3612d8461441985516001600160a01b031690565b6142e6565b906143bd6144c261440b611444955190565b915190565b5081516144d66112d85f610996565b116142e1565b6001600160a01b03909116815261034d9160408201916020818403910152611dd0565b73031b7b6b83634b0b731b290313637b1b5b2b21d160651b815261034d9190601401613363565b614533611346600261065d565b6145426112fb6103415f6115a5565b146132cb57614554611346600261065d565b91823b156103625761458a925f9261456b60405190565b80958194829361457f63c538fec060e01b90565b8452600484016144dc565b03915afa9081614638575b506103735760016145a4613247565b6308c379a0146145fa575b6145b557565b60405162461bcd60e51b815260206004820152601760248201527f636f6d706c69616e636520636865636b206661696c65640000000000000000006044820152606490fd5b614602613262565b8061460d57506145af565b6146306110f89161034d61462060405190565b8092611af46020830191826144ff565b60405161337e565b614647905f611431818361116e565b5f614595565b604081018051600991906146666112d861034d856103eb565b1161488c576080830180516001600160a01b03166146835f6115a5565b906146966001600160a01b0383166112fb565b1415806148cc575b614863576146b16129f762015180610996565b926146ba815190565b6146c66112d85f610996565b11908161489d575b5061488c576146ea6112fb611ca284516001600160a01b031690565b141580614874575b614814575b505060040161470581610400565b806147f1575b614791575b6147199061042c565b9081614765575b5061472757565b60405162461bcd60e51b815260206004820152601660248201527515185c99d95d081b9bdd081dda1a5d195b1a5cdd195960521b6044820152606490fd5b61478b9150611b1b61478460206116999301516001600160a01b031690565b600661053b565b5f614720565b6147ae611699611b1b61478460208601516001600160a01b031690565b156147105760405162461bcd60e51b815260206004820152601660248201527510dbdb9d1c9858dd0818d85b1b1cc8189b1bd8dad95960521b6044820152606490fd5b506147fb82614269565b61480e61480860016116bb565b916116bb565b1461470b565b61132e61484592610b0261483261483994516001600160a01b031690565b600861053b565b60a08401515b906111ef565b6148576112d861034d600385016103eb565b11614863575f806146f7565b63136bcee560e01b5f908152600490fd5b5060a08401516148866112d85f610996565b116146f2565b6327de36f760e21b5f908152600490fd5b6148b3915061483f6144c261132e8760076109d2565b6148c56112d861034d600288016103eb565b115f6146ce565b5060a08501516148e46112d861034d600188016103eb565b1161469e565b9190916148fc6129f762015180610996565b906149065f610996565b811161495b575b5061491a6103415f6115a5565b6001600160a01b03841614158061494a575b61493557505050565b6144206113d391610b0261037395600861053b565b506149545f610996565b821161492c565b61496d906113d36144208460076109d2565b5f61490d565b9190916149856129f762015180610996565b9061498f5f610996565b811180614a23575b614a0b575b506149a96103415f6115a5565b6001600160a01b0384161415806149fa575b806149df575b6149ca57505050565b612d846113d391610b0261037395600861053b565b506149f261132e82610b0286600861053b565b8211156149c1565b50614a045f610996565b82116149bb565b614a1d906113d3612d848460076109d2565b5f61499c565b50614a3261132e8360076109d2565b811115614997565b6001600160a01b039091168152929161037391604090614a669060608701908782036020890152611dd0565b94019015159052565b9091614a7e611346600261065d565b614a8d6112fb6103415f6115a5565b14614af757614a9f611346600261065d565b803b1561036257614ad0935f8094614ab660405190565b96879586948593633dcdee0760e01b855260048501614a3a565b03925af19081614ae2575b5061037357565b614af1905f611431818361116e565b5f614adb565b505050565b614b055f6115a5565b906001600160a01b0382166001600160a01b03821603614b705750614b2e61132e82601561053b565b90614b3830610532565b82813110614b5e57614b5161037393614b5992316111b3565b91601761053b565b6111d4565b506103739150614b59614b515f610996565b5f91508180613cd1614bae614b8430610532565b6040516370a0823160e01b6020820152928391602483016001600160a01b03909116815260200190565b602081519101845afa614bbf611da4565b9080614c14575b614bf2575b50614bda61132e82601561053b565b91828110614b5e57614b5161037393614b59926111b3565b614c0d9192506020614c02825190565b818301019101612aad565b905f614bcb565b508051614c246112d86020610996565b1015614bc6565b9190614c3c6116995f848487614fe5565b614c4557505050565b614c5d6116996001614c565f610996565b8487614fe5565b614ca4576001614c71926116999285614fe5565b614c785750565b611455614c855f92610532565b635274afe760e01b83526001600160a01b031660048301526024820190565b5f611455614c8585610532565b906040820190614cbf825190565b614ccb6112d85f610996565b1180614e57575b614e4a576080830192614cec84516001600160a01b031690565b92614cf65f6115a5565b93614d096001600160a01b0386166112fb565b141580614e32575b614db2575b5f8091614d306144c260208601516001600160a01b031690565b90606085015191602083519301915af193614d49611da4565b9385159081614d91575b5080614d79575b614d62575050565b6113d361442061441961440b60a061037396015190565b5060a0820151614d8b6112d85f610996565b11614d5a565b9050614daa6112fb611ca284516001600160a01b031690565b14155f614d53565b614dc661445a86516001600160a01b031690565b614ddd61132e61441987516001600160a01b031690565b60a0830190614df06112d861034d845190565b10614e22575f91614e1a614e0384935190565b6113d3612d846144198b516001600160a01b031690565b915050614d16565b5050509150505f9061034d612350565b5060a0820151614e446112d85f610996565b11614d11565b9150505f9061034d612350565b50614e6130610532565b31614e706112d861034d855190565b10614cd2565b614e7e61504d565b614e8457565b633ee5aeb560e01b5f908152600490fd5b61034d7f9b779b17422d0df92223018b32b4d1fa46e071723d6817e2486d003becc55f00610996565b61034d614e95565b905f91614ed1825190565b614ede6112d86041610996565b03614f0757614f009250602082015190606060408401519301515f1a9061509c565b9192909190565b509050614f23614f1e614f195f6115a5565b925190565b610996565b909160029190565b61034d90610996565b614f3d5f610f03565b614f4682610f03565b03614f4f575050565b614f596001610f03565b614f6282610f03565b03614f785763f645eedf60e01b5f908152600490fd5b614f826002610f03565b614f8b82610f03565b03614fb3575f611455614f9d84614f2b565b63fce698f760e01b835260048301526024820190565b614fc6614fc06003610f03565b91610f03565b14614fce5750565b6335e2f38360e21b5f908152600491909152602490fd5b60405163095ea7b360e01b5f9081526001600160a01b039093166004526024939093529293929060209060448180855af19360015f511485161561502b575b5050604052565b8492941516615044575f903b113d151616915f80615024565b833d5f823e3d90fd5b6150625f61505c61034d614ebe565b016103eb565b6150706112d861034d614167565b1490565b6106d7610373946106d0606094989795615092608086019a5f870152565b60ff166020850152565b90916150a784614f2b565b6150d36112d87f7fffffffffffffffffffffffffffffff5d576e7357a4501ddfe92f46681b20a0610996565b1161514a57906150f46020945f94936150eb60405190565b94859485615074565b838052039060015afa1561143f575f5161510d5f6115a5565b6001600160a01b0381166001600160a01b0383161461513757506151305f610996565b90915f9190565b90506151425f610996565b909160019190565b5050506151565f6115a5565b916003919056fef3359997818a07db03325cddbb394b5abd5d4be681051dd8f00c2737d81e04d99ccfd64c8c081c4ace661cb3b742a779d03c8c3c8a2ad7625ce5b3c9a575f5a4a164736f6c634300081a000a",
  "linkReferences": {},
  "deployedLinkReferences": {}
}