{
  "_format": "hh-sol-artifact-1",
  "contractName": "RiskOracle",
  "sourceName": "contracts/RiskOracle.sol",
  "abi": [
    {
      "inputs": [
        {
          "internalType": "address",
          "name": "router",
          "type": "address"
        },
        {
          "internalType": "bytes32",
          "name": "_donId",
          "type": "bytes32"
        },
        {
          "internalType": "uint64",
          "name": "_subscriptionId",
          "type": "uint64"
        },
        {
          "internalType": "address",
          "name": "_riskRegistry",
          "type": "address"
        }
      ],
      "stateMutability": "nonpayable",
      "type": "constructor"
    },
    {
      "inputs": [],
      "name": "AccessControlBadConfirmation",
      "type": "error"
    },
    {
      "inputs": [
        {
          "internalType": "address",
          "name": "account",
          "type": "address"
        },
        {
          "internalType": "bytes32",
          "name": "neededRole",
          "type": "bytes32"
        }
      ],
      "name": "AccessControlUnauthorizedAccount",
      "type": "error"
    },
    {
      "inputs": [],
      "name": "AlreadyFulfilled",
      "type": "error"
    },
    {
      "inputs": [
        {
          "internalType": "uint256",
          "name": "requested",
          "type": "uint256"
        },
        {
          "internalType": "uint256",
          "name": "limit",
          "type": "uint256"
        }
      ],
      "name": "BatchSizeExceeded",
      "type": "error"
    },
    {
      "inputs": [
        {
          "internalType": "address",
          "name": "caller",
          "type": "address"
        }
      ],
      "name": "CallerCooldownActive",
      "type": "error"
    },
    {
      "inputs": [
        {
          "internalType": "address",
          "name": "caller",
          "type": "address"
        },
        {
          "internalType": "uint256",
          "name": "count",
          "type": "uint256"
        },
        {
          "internalType": "uint256",
          "name": "limit",
          "type": "uint256"
        }
      ],
      "name": "DailyRequestLimitExceeded",
      "type": "error"
    },
    {
      "inputs": [
        {
          "internalType": "uint256",
          "name": "deadline",
          "type": "uint256"
        },
        {
          "internalType": "uint256",
          "name": "currentTime",
          "type": "uint256"
        }
      ],
      "name": "DeadlineExpired",
      "type": "error"
    },
    {
      "inputs": [],
      "name": "EmptyArgs",
      "type": "error"
    },
    {
      "inputs": [],
      "name": "EmptySecrets",
      "type": "error"
    },
    {
      "inputs": [],
      "name": "EmptySource",
      "type": "error"
    },
    {
      "inputs": [],
      "name": "EnforcedPause",
      "type": "error"
    },
    {
      "inputs": [],
      "name": "ExpectedPause",
      "type": "error"
    },
    {
      "inputs": [
        {
          "internalType": "address",
          "name": "caller",
          "type": "address"
        }
      ],
      "name": "FlashLoanDetected",
      "type": "error"
    },
    {
      "inputs": [
        {
          "internalType": "uint256",
          "name": "required",
          "type": "uint256"
        },
        {
          "internalType": "uint256",
          "name": "actual",
          "type": "uint256"
        }
      ],
      "name": "InsufficientConfirmations",
      "type": "error"
    },
    {
      "inputs": [],
      "name": "InvalidAddress",
      "type": "error"
    },
    {
      "inputs": [],
      "name": "InvalidRequestType",
      "type": "error"
    },
    {
      "inputs": [],
      "name": "InvalidRouter",
      "type": "error"
    },
    {
      "inputs": [],
      "name": "InvalidScore",
      "type": "error"
    },
    {
      "inputs": [
        {
          "internalType": "uint8",
          "name": "tier",
          "type": "uint8"
        }
      ],
      "name": "InvalidTier",
      "type": "error"
    },
    {
      "inputs": [],
      "name": "MaxDataSourcesExceeded",
      "type": "error"
    },
    {
      "inputs": [],
      "name": "NoInlineSecrets",
      "type": "error"
    },
    {
      "inputs": [],
      "name": "OnlyRouterCanFulfill",
      "type": "error"
    },
    {
      "inputs": [
        {
          "internalType": "address",
          "name": "oracle",
          "type": "address"
        }
      ],
      "name": "OracleNotAuthorized",
      "type": "error"
    },
    {
      "inputs": [],
      "name": "QueueFull",
      "type": "error"
    },
    {
      "inputs": [],
      "name": "RequestNotFound",
      "type": "error"
    },
    {
      "inputs": [
        {
          "internalType": "bytes32",
          "name": "sourceId",
          "type": "bytes32"
        }
      ],
      "name": "SourceNotActive",
      "type": "error"
    },
    {
      "inputs": [
        {
          "internalType": "address",
          "name": "account",
          "type": "address"
        }
      ],
      "name": "UpdateCooldownActive",
      "type": "error"
    },
    {
      "inputs": [
        {
          "internalType": "address",
          "name": "account",
          "type": "address"
        }
      ],
      "name": "UpdateTooSoon",
      "type": "error"
    },
    {
      "anonymous": false,
      "inputs": [
        {
          "indexed": false,
          "internalType": "uint256",
          "name": "count",
          "type": "uint256"
        },
        {
          "indexed": false,
          "internalType": "uint256",
          "name": "gasUsed",
          "type": "uint256"
        }
      ],
      "name": "BatchUpdateExecuted",
      "type": "event"
    },
    {
      "anonymous": false,
      "inputs": [
        {
          "indexed": true,
          "internalType": "address",
          "name": "account",
          "type": "address"
        }
      ],
      "name": "ConfirmationsReset",
      "type": "event"
    },
    {
      "anonymous": false,
      "inputs": [
        {
          "indexed": true,
          "internalType": "bytes32",
          "name": "sourceId",
          "type": "bytes32"
        },
        {
          "indexed": false,
          "internalType": "string",
          "name": "name",
          "type": "string"
        }
      ],
      "name": "DataSourceAdded",
      "type": "event"
    },
    {
      "anonymous": false,
      "inputs": [
        {
          "indexed": true,
          "internalType": "bytes32",
          "name": "sourceId",
          "type": "bytes32"
        },
        {
          "indexed": false,
          "internalType": "bool",
          "name": "isActive",
          "type": "bool"
        }
      ],
      "name": "DataSourceUpdated",
      "type": "event"
    },
    {
      "anonymous": false,
      "inputs": [
        {
          "indexed": true,
          "internalType": "bytes32",
          "name": "requestId",
          "type": "bytes32"
        }
      ],
      "name": "FulfillmentDeferred",
      "type": "event"
    },
    {
      "anonymous": false,
      "inputs": [
        {
          "indexed": false,
          "internalType": "uint32",
          "name": "oldVal",
          "type": "uint32"
        },
        {
          "indexed": false,
          "internalType": "uint32",
          "name": "newVal",
          "type": "uint32"
        }
      ],
      "name": "GasLimitUpdated",
      "type": "event"
    },
    {
      "anonymous": false,
      "inputs": [
        {
          "indexed": true,
          "internalType": "address",
          "name": "account",
          "type": "address"
        },
        {
          "indexed": false,
          "internalType": "bytes32",
          "name": "responseHash",
          "type": "bytes32"
        },
        {
          "indexed": false,
          "internalType": "uint256",
          "name": "confirmationCount",
          "type": "uint256"
        }
      ],
      "name": "MultiOracleUpdateConfirmed",
      "type": "event"
    },
    {
      "anonymous": false,
      "inputs": [
        {
          "indexed": true,
          "internalType": "address",
          "name": "oracle",
          "type": "address"
        }
      ],
      "name": "OracleAuthorized",
      "type": "event"
    },
    {
      "anonymous": false,
      "inputs": [
        {
          "indexed": true,
          "internalType": "address",
          "name": "oracle",
          "type": "address"
        },
        {
          "indexed": true,
          "internalType": "address",
          "name": "account",
          "type": "address"
        },
        {
          "indexed": false,
          "internalType": "bytes32",
          "name": "responseHash",
          "type": "bytes32"
        },
        {
          "indexed": false,
          "internalType": "uint256",
          "name": "confirmations",
          "type": "uint256"
        }
      ],
      "name": "OracleResponseReceived",
      "type": "event"
    },
    {
      "anonymous": false,
      "inputs": [
        {
          "indexed": true,
          "internalType": "address",
          "name": "oracle",
          "type": "address"
        },
        {
          "indexed": true,
          "internalType": "address",
          "name": "account",
          "type": "address"
        },
        {
          "indexed": false,
          "internalType": "bytes32",
          "name": "prevHash",
          "type": "bytes32"
        }
      ],
      "name": "OracleResponseRevoked",
      "type": "event"
    },
    {
      "anonymous": false,
      "inputs": [
        {
          "indexed": true,
          "internalType": "address",
          "name": "oracle",
          "type": "address"
        }
      ],
      "name": "OracleRevoked",
      "type": "event"
    },
    {
      "anonymous": false,
      "inputs": [
        {
          "indexed": true,
          "internalType": "address",
          "name": "previousOwner",
          "type": "address"
        },
        {
          "indexed": true,
          "internalType": "address",
          "name": "newOwner",
          "type": "address"
        }
      ],
      "name": "OwnershipRolesSynced",
      "type": "event"
    },
    {
      "anonymous": false,
      "inputs": [
        {
          "indexed": true,
          "internalType": "address",
          "name": "from",
          "type": "address"
        },
        {
          "indexed": true,
          "internalType": "address",
          "name": "to",
          "type": "address"
        }
      ],
      "name": "OwnershipTransferRequested",
      "type": "event"
    },
    {
      "anonymous": false,
      "inputs": [
        {
          "indexed": true,
          "internalType": "address",
          "name": "from",
          "type": "address"
        },
        {
          "indexed": true,
          "internalType": "address",
          "name": "to",
          "type": "address"
        }
      ],
      "name": "OwnershipTransferred",
      "type": "event"
    },
    {
      "anonymous": false,
      "inputs": [
        {
          "indexed": false,
          "internalType": "address",
          "name": "account",
          "type": "address"
        }
      ],
      "name": "Paused",
      "type": "event"
    },
    {
      "anonymous": false,
      "inputs": [
        {
          "indexed": true,
          "internalType": "address",
          "name": "account",
          "type": "address"
        },
        {
          "indexed": false,
          "internalType": "uint256",
          "name": "score",
          "type": "uint256"
        }
      ],
      "name": "QueuedRiskUpdate",
      "type": "event"
    },
    {
      "anonymous": false,
      "inputs": [
        {
          "indexed": true,
          "internalType": "bytes32",
          "name": "id",
          "type": "bytes32"
        }
      ],
      "name": "RequestFulfilled",
      "type": "event"
    },
    {
      "anonymous": false,
      "inputs": [
        {
          "indexed": true,
          "internalType": "bytes32",
          "name": "id",
          "type": "bytes32"
        }
      ],
      "name": "RequestSent",
      "type": "event"
    },
    {
      "anonymous": false,
      "inputs": [
        {
          "indexed": false,
          "internalType": "uint256",
          "name": "newVal",
          "type": "uint256"
        }
      ],
      "name": "RequiredConfirmationsAutoAdjusted",
      "type": "event"
    },
    {
      "anonymous": false,
      "inputs": [
        {
          "indexed": false,
          "internalType": "uint256",
          "name": "oldVal",
          "type": "uint256"
        },
        {
          "indexed": false,
          "internalType": "uint256",
          "name": "newVal",
          "type": "uint256"
        }
      ],
      "name": "RequiredConfirmationsUpdated",
      "type": "event"
    },
    {
      "anonymous": false,
      "inputs": [
        {
          "indexed": true,
          "internalType": "bytes32",
          "name": "requestId",
          "type": "bytes32"
        },
        {
          "indexed": true,
          "internalType": "address",
          "name": "account",
          "type": "address"
        },
        {
          "indexed": false,
          "internalType": "uint256",
          "name": "score",
          "type": "uint256"
        },
        {
          "indexed": false,
          "internalType": "uint8",
          "name": "tier",
          "type": "uint8"
        },
        {
          "indexed": false,
          "internalType": "bool",
          "name": "isSanctioned",
          "type": "bool"
        }
      ],
      "name": "RiskProfileUpdated",
      "type": "event"
    },
    {
      "anonymous": false,
      "inputs": [
        {
          "indexed": true,
          "internalType": "bytes32",
          "name": "requestId",
          "type": "bytes32"
        },
        {
          "indexed": false,
          "internalType": "bool",
          "name": "success",
          "type": "bool"
        },
        {
          "indexed": false,
          "internalType": "uint256",
          "name": "processedAt",
          "type": "uint256"
        }
      ],
      "name": "RiskUpdateFulfilled",
      "type": "event"
    },
    {
      "anonymous": false,
      "inputs": [
        {
          "indexed": true,
          "internalType": "bytes32",
          "name": "requestId",
          "type": "bytes32"
        },
        {
          "indexed": false,
          "internalType": "enum RiskOracle.RequestType",
          "name": "requestType",
          "type": "uint8"
        },
        {
          "indexed": true,
          "internalType": "address",
          "name": "requester",
          "type": "address"
        },
        {
          "indexed": false,
          "internalType": "string",
          "name": "source",
          "type": "string"
        }
      ],
      "name": "RiskUpdateRequested",
      "type": "event"
    },
    {
      "anonymous": false,
      "inputs": [
        {
          "indexed": true,
          "internalType": "bytes32",
          "name": "role",
          "type": "bytes32"
        },
        {
          "indexed": true,
          "internalType": "bytes32",
          "name": "previousAdminRole",
          "type": "bytes32"
        },
        {
          "indexed": true,
          "internalType": "bytes32",
          "name": "newAdminRole",
          "type": "bytes32"
        }
      ],
      "name": "RoleAdminChanged",
      "type": "event"
    },
    {
      "anonymous": false,
      "inputs": [
        {
          "indexed": true,
          "internalType": "bytes32",
          "name": "role",
          "type": "bytes32"
        },
        {
          "indexed": true,
          "internalType": "address",
          "name": "account",
          "type": "address"
        },
        {
          "indexed": true,
          "internalType": "address",
          "name": "sender",
          "type": "address"
        }
      ],
      "name": "RoleGranted",
      "type": "event"
    },
    {
      "anonymous": false,
      "inputs": [
        {
          "indexed": true,
          "internalType": "bytes32",
          "name": "role",
          "type": "bytes32"
        },
        {
          "indexed": true,
          "internalType": "address",
          "name": "account",
          "type": "address"
        },
        {
          "indexed": true,
          "internalType": "address",
          "name": "sender",
          "type": "address"
        }
      ],
      "name": "RoleRevoked",
      "type": "event"
    },
    {
      "anonymous": false,
      "inputs": [
        {
          "indexed": true,
          "internalType": "address",
          "name": "contractAddr",
          "type": "address"
        },
        {
          "indexed": false,
          "internalType": "bool",
          "name": "whitelisted",
          "type": "bool"
        }
      ],
      "name": "SmartContractWhitelisted",
      "type": "event"
    },
    {
      "anonymous": false,
      "inputs": [
        {
          "indexed": false,
          "internalType": "uint64",
          "name": "oldVal",
          "type": "uint64"
        },
        {
          "indexed": false,
          "internalType": "uint64",
          "name": "newVal",
          "type": "uint64"
        }
      ],
      "name": "SubscriptionIdUpdated",
      "type": "event"
    },
    {
      "anonymous": false,
      "inputs": [
        {
          "indexed": false,
          "internalType": "address",
          "name": "account",
          "type": "address"
        }
      ],
      "name": "Unpaused",
      "type": "event"
    },
    {
      "inputs": [],
      "name": "ADMIN_ROLE",
      "outputs": [
        {
          "internalType": "bytes32",
          "name": "",
          "type": "bytes32"
        }
      ],
      "stateMutability": "view",
      "type": "function"
    },
    {
      "inputs": [],
      "name": "DEFAULT_ADMIN_ROLE",
      "outputs": [
        {
          "internalType": "bytes32",
          "name": "",
          "type": "bytes32"
        }
      ],
      "stateMutability": "view",
      "type": "function"
    },
    {
      "inputs": [],
      "name": "MAX_ALL_REQUEST_IDS",
      "outputs": [
        {
          "internalType": "uint256",
          "name": "",
          "type": "uint256"
        }
      ],
      "stateMutability": "view",
      "type": "function"
    },
    {
      "inputs": [],
      "name": "MAX_DATA_SOURCES",
      "outputs": [
        {
          "internalType": "uint256",
          "name": "",
          "type": "uint256"
        }
      ],
      "stateMutability": "view",
      "type": "function"
    },
    {
      "inputs": [],
      "name": "MAX_FULFILLMENT_HISTORY",
      "outputs": [
        {
          "internalType": "uint256",
          "name": "",
          "type": "uint256"
        }
      ],
      "stateMutability": "view",
      "type": "function"
    },
    {
      "inputs": [],
      "name": "OPERATOR_ROLE",
      "outputs": [
        {
          "internalType": "bytes32",
          "name": "",
          "type": "bytes32"
        }
      ],
      "stateMutability": "view",
      "type": "function"
    },
    {
      "inputs": [],
      "name": "ORACLE_ROLE",
      "outputs": [
        {
          "internalType": "bytes32",
          "name": "",
          "type": "bytes32"
        }
      ],
      "stateMutability": "view",
      "type": "function"
    },
    {
      "inputs": [],
      "name": "UPDATE_DELAY_BLOCKS",
      "outputs": [
        {
          "internalType": "uint256",
          "name": "",
          "type": "uint256"
        }
      ],
      "stateMutability": "view",
      "type": "function"
    },
    {
      "inputs": [],
      "name": "VERSION",
      "outputs": [
        {
          "internalType": "string",
          "name": "",
          "type": "string"
        }
      ],
      "stateMutability": "view",
      "type": "function"
    },
    {
      "inputs": [
        {
          "internalType": "bytes",
          "name": "data",
          "type": "bytes"
        }
      ],
      "name": "_decodeAddressesExternal",
      "outputs": [
        {
          "internalType": "address[]",
          "name": "",
          "type": "address[]"
        }
      ],
      "stateMutability": "pure",
      "type": "function"
    },
    {
      "inputs": [],
      "name": "acceptOwnership",
      "outputs": [],
      "stateMutability": "nonpayable",
      "type": "function"
    },
    {
      "inputs": [
        {
          "internalType": "uint256",
          "name": "",
          "type": "uint256"
        }
      ],
      "name": "activeSourceIds",
      "outputs": [
        {
          "internalType": "bytes32",
          "name": "",
          "type": "bytes32"
        }
      ],
      "stateMutability": "view",
      "type": "function"
    },
    {
      "inputs": [
        {
          "internalType": "address",
          "name": "oracle",
          "type": "address"
        }
      ],
      "name": "addAuthorizedOracle",
      "outputs": [],
      "stateMutability": "nonpayable",
      "type": "function"
    },
    {
      "inputs": [
        {
          "internalType": "bytes32",
          "name": "sourceId",
          "type": "bytes32"
        },
        {
          "internalType": "string",
          "name": "name",
          "type": "string"
        },
        {
          "internalType": "string",
          "name": "apiEndpoint",
          "type": "string"
        },
        {
          "internalType": "uint256",
          "name": "weight",
          "type": "uint256"
        }
      ],
      "name": "addDataSource",
      "outputs": [],
      "stateMutability": "nonpayable",
      "type": "function"
    },
    {
      "inputs": [
        {
          "internalType": "address",
          "name": "",
          "type": "address"
        },
        {
          "internalType": "uint256",
          "name": "",
          "type": "uint256"
        }
      ],
      "name": "addressRequestHistory",
      "outputs": [
        {
          "internalType": "bytes32",
          "name": "",
          "type": "bytes32"
        }
      ],
      "stateMutability": "view",
      "type": "function"
    },
    {
      "inputs": [
        {
          "internalType": "uint256",
          "name": "",
          "type": "uint256"
        }
      ],
      "name": "allRequestIds",
      "outputs": [
        {
          "internalType": "bytes32",
          "name": "",
          "type": "bytes32"
        }
      ],
      "stateMutability": "view",
      "type": "function"
    },
    {
      "inputs": [
        {
          "internalType": "address",
          "name": "",
          "type": "address"
        }
      ],
      "name": "authorizedOracles",
      "outputs": [
        {
          "internalType": "bool",
          "name": "",
          "type": "bool"
        }
      ],
      "stateMutability": "view",
      "type": "function"
    },
    {
      "inputs": [],
      "name": "batchSize",
      "outputs": [
        {
          "internalType": "uint256",
          "name": "",
          "type": "uint256"
        }
      ],
      "stateMutability": "view",
      "type": "function"
    },
    {
      "inputs": [],
      "name": "callerCooldown",
      "outputs": [
        {
          "internalType": "uint256",
          "name": "",
          "type": "uint256"
        }
      ],
      "stateMutability": "view",
      "type": "function"
    },
    {
      "inputs": [
        {
          "internalType": "address",
          "name": "",
          "type": "address"
        }
      ],
      "name": "confirmedUpdates",
      "outputs": [
        {
          "internalType": "bool",
          "name": "",
          "type": "bool"
        }
      ],
      "stateMutability": "view",
      "type": "function"
    },
    {
      "inputs": [
        {
          "internalType": "address",
          "name": "",
          "type": "address"
        }
      ],
      "name": "dailyRequestCount",
      "outputs": [
        {
          "internalType": "uint256",
          "name": "",
          "type": "uint256"
        }
      ],
      "stateMutability": "view",
      "type": "function"
    },
    {
      "inputs": [
        {
          "internalType": "address",
          "name": "",
          "type": "address"
        }
      ],
      "name": "dailyRequestReset",
      "outputs": [
        {
          "internalType": "uint256",
          "name": "",
          "type": "uint256"
        }
      ],
      "stateMutability": "view",
      "type": "function"
    },
    {
      "inputs": [
        {
          "internalType": "bytes32",
          "name": "",
          "type": "bytes32"
        }
      ],
      "name": "dataSources",
      "outputs": [
        {
          "internalType": "string",
          "name": "name",
          "type": "string"
        },
        {
          "internalType": "string",
          "name": "apiEndpoint",
          "type": "string"
        },
        {
          "internalType": "bool",
          "name": "isActive",
          "type": "bool"
        },
        {
          "internalType": "uint256",
          "name": "weight",
          "type": "uint256"
        },
        {
          "internalType": "bytes32",
          "name": "secretsSlot",
          "type": "bytes32"
        },
        {
          "internalType": "uint64",
          "name": "secretsVersion",
          "type": "uint64"
        }
      ],
      "stateMutability": "view",
      "type": "function"
    },
    {
      "inputs": [],
      "name": "donId",
      "outputs": [
        {
          "internalType": "bytes32",
          "name": "",
          "type": "bytes32"
        }
      ],
      "stateMutability": "view",
      "type": "function"
    },
    {
      "inputs": [],
      "name": "encryptedSecretsUrls",
      "outputs": [
        {
          "internalType": "bytes",
          "name": "",
          "type": "bytes"
        }
      ],
      "stateMutability": "view",
      "type": "function"
    },
    {
      "inputs": [
        {
          "internalType": "uint256",
          "name": "",
          "type": "uint256"
        }
      ],
      "name": "fulfillmentHistory",
      "outputs": [
        {
          "internalType": "bytes32",
          "name": "requestId",
          "type": "bytes32"
        },
        {
          "internalType": "address",
          "name": "targetAddress",
          "type": "address"
        },
        {
          "internalType": "uint256",
          "name": "riskScore",
          "type": "uint256"
        },
        {
          "internalType": "uint8",
          "name": "tier",
          "type": "uint8"
        },
        {
          "internalType": "bool",
          "name": "isSanctioned",
          "type": "bool"
        },
        {
          "internalType": "uint256",
          "name": "fulfilledAt",
          "type": "uint256"
        }
      ],
      "stateMutability": "view",
      "type": "function"
    },
    {
      "inputs": [],
      "name": "gasLimit",
      "outputs": [
        {
          "internalType": "uint32",
          "name": "",
          "type": "uint32"
        }
      ],
      "stateMutability": "view",
      "type": "function"
    },
    {
      "inputs": [],
      "name": "getActiveSources",
      "outputs": [
        {
          "internalType": "bytes32[]",
          "name": "",
          "type": "bytes32[]"
        }
      ],
      "stateMutability": "view",
      "type": "function"
    },
    {
      "inputs": [],
      "name": "getAllRequestIdsLength",
      "outputs": [
        {
          "internalType": "uint256",
          "name": "",
          "type": "uint256"
        }
      ],
      "stateMutability": "view",
      "type": "function"
    },
    {
      "inputs": [
        {
          "internalType": "address",
          "name": "account",
          "type": "address"
        },
        {
          "internalType": "bytes32",
          "name": "responseHash",
          "type": "bytes32"
        }
      ],
      "name": "getConfirmationCount",
      "outputs": [
        {
          "internalType": "uint256",
          "name": "",
          "type": "uint256"
        }
      ],
      "stateMutability": "view",
      "type": "function"
    },
    {
      "inputs": [],
      "name": "getFulfillmentHistoryLength",
      "outputs": [
        {
          "internalType": "uint256",
          "name": "",
          "type": "uint256"
        }
      ],
      "stateMutability": "view",
      "type": "function"
    },
    {
      "inputs": [],
      "name": "getOracleList",
      "outputs": [
        {
          "internalType": "address[]",
          "name": "",
          "type": "address[]"
        }
      ],
      "stateMutability": "view",
      "type": "function"
    },
    {
      "inputs": [
        {
          "internalType": "address",
          "name": "account",
          "type": "address"
        },
        {
          "internalType": "address",
          "name": "oracle",
          "type": "address"
        }
      ],
      "name": "getOracleResponse",
      "outputs": [
        {
          "internalType": "bytes32",
          "name": "",
          "type": "bytes32"
        }
      ],
      "stateMutability": "view",
      "type": "function"
    },
    {
      "inputs": [],
      "name": "getPendingQueueLength",
      "outputs": [
        {
          "internalType": "uint256",
          "name": "",
          "type": "uint256"
        }
      ],
      "stateMutability": "view",
      "type": "function"
    },
    {
      "inputs": [
        {
          "internalType": "bytes32",
          "name": "role",
          "type": "bytes32"
        }
      ],
      "name": "getRoleAdmin",
      "outputs": [
        {
          "internalType": "bytes32",
          "name": "",
          "type": "bytes32"
        }
      ],
      "stateMutability": "view",
      "type": "function"
    },
    {
      "inputs": [
        {
          "internalType": "bytes32",
          "name": "role",
          "type": "bytes32"
        },
        {
          "internalType": "address",
          "name": "account",
          "type": "address"
        }
      ],
      "name": "grantRole",
      "outputs": [],
      "stateMutability": "nonpayable",
      "type": "function"
    },
    {
      "inputs": [
        {
          "internalType": "bytes32",
          "name": "requestId",
          "type": "bytes32"
        },
        {
          "internalType": "bytes",
          "name": "response",
          "type": "bytes"
        },
        {
          "internalType": "bytes",
          "name": "err",
          "type": "bytes"
        }
      ],
      "name": "handleOracleFulfillment",
      "outputs": [],
      "stateMutability": "nonpayable",
      "type": "function"
    },
    {
      "inputs": [
        {
          "internalType": "bytes32",
          "name": "role",
          "type": "bytes32"
        },
        {
          "internalType": "address",
          "name": "account",
          "type": "address"
        }
      ],
      "name": "hasRole",
      "outputs": [
        {
          "internalType": "bool",
          "name": "",
          "type": "bool"
        }
      ],
      "stateMutability": "view",
      "type": "function"
    },
    {
      "inputs": [
        {
          "internalType": "address",
          "name": "",
          "type": "address"
        }
      ],
      "name": "lastCallerTime",
      "outputs": [
        {
          "internalType": "uint256",
          "name": "",
          "type": "uint256"
        }
      ],
      "stateMutability": "view",
      "type": "function"
    },
    {
      "inputs": [],
      "name": "lastRequestId",
      "outputs": [
        {
          "internalType": "bytes32",
          "name": "",
          "type": "bytes32"
        }
      ],
      "stateMutability": "view",
      "type": "function"
    },
    {
      "inputs": [
        {
          "internalType": "address",
          "name": "",
          "type": "address"
        }
      ],
      "name": "lastUpdateBlock",
      "outputs": [
        {
          "internalType": "uint256",
          "name": "",
          "type": "uint256"
        }
      ],
      "stateMutability": "view",
      "type": "function"
    },
    {
      "inputs": [
        {
          "internalType": "address",
          "name": "",
          "type": "address"
        }
      ],
      "name": "lastUpdateTime",
      "outputs": [
        {
          "internalType": "uint256",
          "name": "",
          "type": "uint256"
        }
      ],
      "stateMutability": "view",
      "type": "function"
    },
    {
      "inputs": [],
      "name": "maxBatchUpdateSize",
      "outputs": [
        {
          "internalType": "uint256",
          "name": "",
          "type": "uint256"
        }
      ],
      "stateMutability": "view",
      "type": "function"
    },
    {
      "inputs": [],
      "name": "maxDailyRequestsPerCaller",
      "outputs": [
        {
          "internalType": "uint256",
          "name": "",
          "type": "uint256"
        }
      ],
      "stateMutability": "view",
      "type": "function"
    },
    {
      "inputs": [],
      "name": "maxQueueSize",
      "outputs": [
        {
          "internalType": "uint256",
          "name": "",
          "type": "uint256"
        }
      ],
      "stateMutability": "view",
      "type": "function"
    },
    {
      "inputs": [
        {
          "internalType": "uint256",
          "name": "",
          "type": "uint256"
        }
      ],
      "name": "oracleList",
      "outputs": [
        {
          "internalType": "address",
          "name": "",
          "type": "address"
        }
      ],
      "stateMutability": "view",
      "type": "function"
    },
    {
      "inputs": [
        {
          "internalType": "address",
          "name": "",
          "type": "address"
        },
        {
          "internalType": "address",
          "name": "",
          "type": "address"
        }
      ],
      "name": "oracleResponses",
      "outputs": [
        {
          "internalType": "bytes32",
          "name": "",
          "type": "bytes32"
        }
      ],
      "stateMutability": "view",
      "type": "function"
    },
    {
      "inputs": [],
      "name": "owner",
      "outputs": [
        {
          "internalType": "address",
          "name": "",
          "type": "address"
        }
      ],
      "stateMutability": "view",
      "type": "function"
    },
    {
      "inputs": [],
      "name": "pause",
      "outputs": [],
      "stateMutability": "nonpayable",
      "type": "function"
    },
    {
      "inputs": [],
      "name": "paused",
      "outputs": [
        {
          "internalType": "bool",
          "name": "",
          "type": "bool"
        }
      ],
      "stateMutability": "view",
      "type": "function"
    },
    {
      "inputs": [
        {
          "internalType": "uint256",
          "name": "",
          "type": "uint256"
        }
      ],
      "name": "pendingRiskQueue",
      "outputs": [
        {
          "internalType": "address",
          "name": "account",
          "type": "address"
        },
        {
          "internalType": "uint256",
          "name": "score",
          "type": "uint256"
        },
        {
          "internalType": "uint8",
          "name": "tier",
          "type": "uint8"
        },
        {
          "internalType": "bool",
          "name": "isSanctioned",
          "type": "bool"
        },
        {
          "internalType": "uint256",
          "name": "queuedAt",
          "type": "uint256"
        }
      ],
      "stateMutability": "view",
      "type": "function"
    },
    {
      "inputs": [],
      "name": "processPendingQueue",
      "outputs": [],
      "stateMutability": "nonpayable",
      "type": "function"
    },
    {
      "inputs": [
        {
          "internalType": "address",
          "name": "oracle",
          "type": "address"
        }
      ],
      "name": "removeAuthorizedOracle",
      "outputs": [],
      "stateMutability": "nonpayable",
      "type": "function"
    },
    {
      "inputs": [
        {
          "internalType": "bytes32",
          "name": "role",
          "type": "bytes32"
        },
        {
          "internalType": "address",
          "name": "callerConfirmation",
          "type": "address"
        }
      ],
      "name": "renounceRole",
      "outputs": [],
      "stateMutability": "nonpayable",
      "type": "function"
    },
    {
      "inputs": [],
      "name": "requestCount",
      "outputs": [
        {
          "internalType": "uint256",
          "name": "",
          "type": "uint256"
        }
      ],
      "stateMutability": "view",
      "type": "function"
    },
    {
      "inputs": [
        {
          "internalType": "bytes32",
          "name": "",
          "type": "bytes32"
        }
      ],
      "name": "requestInfo",
      "outputs": [
        {
          "internalType": "bytes32",
          "name": "requestId",
          "type": "bytes32"
        },
        {
          "internalType": "enum RiskOracle.RequestType",
          "name": "requestType",
          "type": "uint8"
        },
        {
          "internalType": "address",
          "name": "requester",
          "type": "address"
        },
        {
          "internalType": "uint256",
          "name": "timestamp",
          "type": "uint256"
        },
        {
          "internalType": "bool",
          "name": "fulfilled",
          "type": "bool"
        },
        {
          "internalType": "bool",
          "name": "success",
          "type": "bool"
        },
        {
          "internalType": "bytes",
          "name": "result",
          "type": "bytes"
        },
        {
          "internalType": "bytes",
          "name": "error",
          "type": "bytes"
        }
      ],
      "stateMutability": "view",
      "type": "function"
    },
    {
      "inputs": [
        {
          "internalType": "enum RiskOracle.RequestType",
          "name": "reqType",
          "type": "uint8"
        },
        {
          "internalType": "string",
          "name": "source",
          "type": "string"
        },
        {
          "internalType": "uint64",
          "name": "subscription",
          "type": "uint64"
        },
        {
          "internalType": "uint32",
          "name": "gasLimitForRequest",
          "type": "uint32"
        },
        {
          "internalType": "bytes",
          "name": "encryptedSecretsRef",
          "type": "bytes"
        }
      ],
      "name": "requestRiskUpdate",
      "outputs": [
        {
          "internalType": "bytes32",
          "name": "requestId",
          "type": "bytes32"
        }
      ],
      "stateMutability": "nonpayable",
      "type": "function"
    },
    {
      "inputs": [],
      "name": "requiredOracleConfirmations",
      "outputs": [
        {
          "internalType": "uint256",
          "name": "",
          "type": "uint256"
        }
      ],
      "stateMutability": "view",
      "type": "function"
    },
    {
      "inputs": [
        {
          "internalType": "address",
          "name": "account",
          "type": "address"
        }
      ],
      "name": "resetConfirmations",
      "outputs": [],
      "stateMutability": "nonpayable",
      "type": "function"
    },
    {
      "inputs": [
        {
          "internalType": "address",
          "name": "",
          "type": "address"
        },
        {
          "internalType": "bytes32",
          "name": "",
          "type": "bytes32"
        }
      ],
      "name": "responseConfirmations",
      "outputs": [
        {
          "internalType": "uint256",
          "name": "",
          "type": "uint256"
        }
      ],
      "stateMutability": "view",
      "type": "function"
    },
    {
      "inputs": [
        {
          "internalType": "bytes32",
          "name": "role",
          "type": "bytes32"
        },
        {
          "internalType": "address",
          "name": "account",
          "type": "address"
        }
      ],
      "name": "revokeRole",
      "outputs": [],
      "stateMutability": "nonpayable",
      "type": "function"
    },
    {
      "inputs": [],
      "name": "riskRegistry",
      "outputs": [
        {
          "internalType": "contract RiskRegistry",
          "name": "",
          "type": "address"
        }
      ],
      "stateMutability": "view",
      "type": "function"
    },
    {
      "inputs": [
        {
          "internalType": "uint32",
          "name": "_gasLimit",
          "type": "uint32"
        }
      ],
      "name": "setGasLimit",
      "outputs": [],
      "stateMutability": "nonpayable",
      "type": "function"
    },
    {
      "inputs": [
        {
          "internalType": "uint256",
          "name": "confirmations",
          "type": "uint256"
        }
      ],
      "name": "setRequiredConfirmations",
      "outputs": [],
      "stateMutability": "nonpayable",
      "type": "function"
    },
    {
      "inputs": [
        {
          "internalType": "address",
          "name": "contractAddr",
          "type": "address"
        },
        {
          "internalType": "bool",
          "name": "whitelisted",
          "type": "bool"
        }
      ],
      "name": "setSmartContractWhitelist",
      "outputs": [],
      "stateMutability": "nonpayable",
      "type": "function"
    },
    {
      "inputs": [
        {
          "internalType": "uint64",
          "name": "_subscriptionId",
          "type": "uint64"
        }
      ],
      "name": "setSubscriptionId",
      "outputs": [],
      "stateMutability": "nonpayable",
      "type": "function"
    },
    {
      "inputs": [
        {
          "internalType": "address",
          "name": "",
          "type": "address"
        }
      ],
      "name": "smartContractWhitelist",
      "outputs": [
        {
          "internalType": "bool",
          "name": "",
          "type": "bool"
        }
      ],
      "stateMutability": "view",
      "type": "function"
    },
    {
      "inputs": [
        {
          "internalType": "address",
          "name": "account",
          "type": "address"
        },
        {
          "internalType": "uint8",
          "name": "score",
          "type": "uint8"
        },
        {
          "internalType": "uint8",
          "name": "tier",
          "type": "uint8"
        },
        {
          "internalType": "bool",
          "name": "isSanctioned",
          "type": "bool"
        },
        {
          "internalType": "uint256",
          "name": "deadline",
          "type": "uint256"
        }
      ],
      "name": "submitOracleResponse",
      "outputs": [],
      "stateMutability": "nonpayable",
      "type": "function"
    },
    {
      "inputs": [],
      "name": "subscriptionId",
      "outputs": [
        {
          "internalType": "uint64",
          "name": "",
          "type": "uint64"
        }
      ],
      "stateMutability": "view",
      "type": "function"
    },
    {
      "inputs": [
        {
          "internalType": "bytes4",
          "name": "interfaceId",
          "type": "bytes4"
        }
      ],
      "name": "supportsInterface",
      "outputs": [
        {
          "internalType": "bool",
          "name": "",
          "type": "bool"
        }
      ],
      "stateMutability": "view",
      "type": "function"
    },
    {
      "inputs": [
        {
          "internalType": "address",
          "name": "previousOwner",
          "type": "address"
        }
      ],
      "name": "syncOwnerRoles",
      "outputs": [],
      "stateMutability": "nonpayable",
      "type": "function"
    },
    {
      "inputs": [
        {
          "internalType": "address",
          "name": "to",
          "type": "address"
        }
      ],
      "name": "transferOwnership",
      "outputs": [],
      "stateMutability": "nonpayable",
      "type": "function"
    },
    {
      "inputs": [],
      "name": "unpause",
      "outputs": [],
      "stateMutability": "nonpayable",
      "type": "function"
    },
    {
      "inputs": [],
      "name": "updateCooldown",
      "outputs": [
        {
          "internalType": "uint256",
          "name": "",
          "type": "uint256"
        }
      ],
      "stateMutability": "view",
      "type": "function"
    },
    {
      "inputs": [
        {
          "internalType": "bytes32",
          "name": "sourceId",
          "type": "bytes32"
        },
        {
          "internalType": "bool",
          "name": "isActive",
          "type": "bool"
        }
      ],
      "name": "updateDataSource",
      "outputs": [],
      "stateMutability": "nonpayable",
      "type": "function"
    }
  ],
  "bytecode": "0x60a06040523461003e5761001d61001461012b565b92919091610355565b604051615b456107378239608051818181611c5e0152614b210152615b4590f35b5f80fd5b634e487b7160e01b5f52604160045260245ffd5b90601f01601f191681019081106001600160401b0382111761007757604052565b610042565b9061009061008960405190565b9283610056565b565b6001600160a01b031690565b90565b6001600160a01b0381165b0361003e57565b90505190610090826100a1565b806100ac565b90505190610090826100c0565b6001600160401b0381166100ac565b90505190610090826100d3565b60808183031261003e5761010382826100b3565b9261009e61011484602085016100c6565b93606061012482604087016100e2565b94016100b3565b61014961627c8038038061013e8161007c565b9283398101906100ef565b90919293565b9063ffffffff905b9181191691161790565b61016e61009e61009e9290565b63ffffffff1690565b9061018761009e61018e92610161565b825461014f565b9055565b905f1990610157565b61009e61009e61009e9290565b906101b861009e61018e9261019b565b8254610192565b61009261009e61009e9290565b61009e906101bf565b906101b861009e61018e9290565b906bffffffffffffffff000000009060201b610157565b61009e9061020e906001600160401b031682565b6001600160401b031690565b9061022a61009e61018e926101fa565b82546101e3565b61009e90610092906001600160a01b031682565b61009e90610231565b61009e90610245565b906001600160a01b0390610157565b9061027661009e61018e9261024e565b8254610257565b61009e5f61019b565b906102909061024e565b5f5260205260405f2090565b9060ff90610157565b906102b561009e61018e92151590565b825461029c565b634e487b7160e01b5f52603260045260245ffd5b80548210156102f0576102e86001915f5260205f2090565b910201905f90565b6102bc565b916001600160a01b0360089290920291821b911b610157565b919061031f61009e61018e9361024e565b9083546102f5565b9081549168010000000000000000831015610077578261034f916001610090950181556102d0565b9061030e565b92909261036281336104f5565b610370620493e06005610177565b61037c6064600d6101a8565b610388600a600e6101a8565b610394600160136101a8565b6103a1610e10601c6101a8565b6103ae61012c601e6101a8565b6103ba6064601f6101a8565b6103c6603260206101a8565b6103cf5f6101cc565b906001600160a01b038083169116146104e4576001600160a01b03166001600160a01b038216146104d35761041661041b9261040f6104229560046101d5565b600561021a565b61024e565b6019610266565b61043461042d61027d565b33906105d2565b5061045e7fa49807205ce4d355092ef5a8a18f56e8913cf4a201fbe287825b095693c2177561042d565b506104887f97667070c54ef182b0f5858b034beac1b6f3089aa2d3188bb1e8929f4fa9b92961042d565b506104b27f68e79a7bf1e0bc45d0a330c573bc367f9cf464fd326078812f301165fbda4ef161042d565b506104c860016104c3336011610286565b6102a5565b610090336012610327565b63e6c4247b60e01b5f908152600490fd5b63466d7fef60e01b5f908152600490fd5b610090918291829182918291829182919061050f5f6101cc565b90610561565b1561051c57565b60405162461bcd60e51b815260206004820152601860248201527f43616e6e6f7420736574206f776e657220746f207a65726f00000000000000006044820152606490fd5b61056e61059f92936105ba565b61009261057a5f6101cc565b916105996001600160a01b0384166001600160a01b0383161415610515565b5f610266565b6001600160a01b038216036105b15750565b610090906106b5565b610090906105c79061024e565b608052565b90610290565b6105e36105df8383610714565b1590565b156106505761060360016104c3845f6105fd8660026105cc565b01610286565b61061d610617610611339390565b9361024e565b9161024e565b917f2f8788117e7eff1d82e926ec794901d17c78024a50270940304540a733656f0d61064860405190565b5f90a4600190565b50505f90565b1561065d57565b60405162461bcd60e51b815260206004820152601760248201527f43616e6e6f74207472616e7366657220746f2073656c660000000000000000006044820152606490fd5b61009e90610092565b61009e90546106a2565b6106ca336001600160a01b0383161415610656565b6106d5816001610266565b6106e46106176104165f6106ab565b907fed8889f560326eb138920d842192f0eb3dd22b4f139c87a2c57538e05bae127861070f60405190565b5f90a3565b61009e915f6105fd61072f936107275f90565b5060026105cc565b5460ff169056fe60806040526004361015610011575f80fd5b5f3560e01c806301d476ae146104bb57806301ffc9a7146104b657806307e2cea5146104b157806309014d1f146104ac57806309c1ba2e146104a75780630c872e9f146104a25780630ca761751461049d578063126e1ba71461049857806313efb55f146104935780631c3f5b9e1461048e5780631c7d629f14610489578063239aad0d14610484578063248a9ca31461047f578063270429531461047a5780632ce9aead146104755780632f2ff15d1461047057806332a8aa671461046b578063361e4d281461046657806336568abe1461046157806339e57ae01461045c5780633a93b271146104575780633eeaa692146104525780633f4ba83a1461044d578063456654c7146104485780634ff16d5f14610443578063510c27ad1461043e578063512aa2321461043957806352d84c6214610434578063567a87741461042f578063599bdc4e1461042a57806359f34930146104255780635badbe4c146104205780635c975abb1461041b578063615aac0b14610416578063618dca0a1461041157806361c992a31461040c57806364c527771461040757806369cde6a6146104025780636dd7d517146103fd57806371af25ea146103f857806375b238fc146103f357806377b8e2dd146103ee57806379ba5097146103e95780637b7c343d146103e457806380c85dfa146103df5780638456cb59146103da57806388205b57146103d55780638da5cb5b146103d05780638dbe7b9d146103cb57806391d14854146103c657806392551c6a146103c1578063968e5a0d146103bc5780639896db53146103a35780639faffb7d146103b7578063a217fddf146103b2578063a37202a8146103ad578063a7fccd73146103a8578063bdbff711146103a3578063c3944f3c1461039e578063c6aef0bd14610399578063cee3487514610394578063cff375e81461038f578063d442e25e1461038a578063d547741f14610385578063da279f6014610380578063dab79c401461037b578063dcb4c21014610376578063ea7b4f7714610371578063f2fde38b1461036c578063f4daaba114610367578063f5b541a614610362578063f68016b71461035d578063f7d9cc1e14610358578063fc2a88c3146103535763ffa1ad74036104c057611c00565b611ba0565b611b7a565b611b3d565b611adc565b611ac1565b611a9e565b611a86565b611a57565b611a21565b6119c1565b6119a8565b611990565b611975565b61194f565b611924565b6118f1565b61171d565b6118c7565b611848565b61182d565b6117e8565b6116ef565b6116b0565b611646565b61162b565b611605565b6115ed565b6115d5565b6115b9565b6115a1565b611589565b611567565b61149c565b611480565b61140a565b6113df565b6113a8565b611382565b61133d565b6112f0565b611206565b6111eb565b6111c4565b6111ac565b611191565b611167565b611122565b611107565b6110ec565b6110c5565b611095565b61107a565b61103b565b610ed1565b610ea0565b610e69565b610ba5565b610b7d565b610b3f565b610b17565b610ac4565b610a8f565b610a41565b610a1a565b6109b6565b6108d4565b610897565b610766565b610722565b6106da565b61060b565b6105d3565b610572565b5f80fd5b6001600160a01b031690565b90565b6001600160a01b0381165b036104c057565b905035906104f2826104d3565b565b906020828203126104c0576104d0916104e5565b6104d0906104c4906001600160a01b031682565b6104d090610508565b6104d09061051c565b9061053890610525565b5f5260205260405f2090565b6104d0916008021c81565b906104d09154610544565b5f6105696104d092602361052e565b61054f565b9052565b346104c05761059e61058d6105883660046104f4565b61055a565b6040515b9182918290815260200190565b0390f35b6001600160e01b031981166104de565b905035906104f2826105a2565b906020828203126104c0576104d0916105b2565b346104c05761059e6105ee6105e93660046105bf565b611c1b565b6040515b91829182901515815260200190565b5f9103126104c057565b346104c05761061b366004610601565b61059e7f68e79a7bf1e0bc45d0a330c573bc367f9cf464fd326078812f301165fbda4ef161058d565b806104de565b905035906104f282610644565b91906040838203126104c0576104d090602061067382866104e5565b940161064a565b634e487b7160e01b5f52603260045260245ffd5b80548210156106ae576106a66001915f5260205f2090565b910201905f90565b61067a565b6106be90600b61052e565b80548210156104c0576104d0916106d49161068e565b9061054f565b346104c05761059e61058d6106f0366004610657565b906106b3565b6104d0916008021c5b6001600160401b031690565b906104d091546106f6565b6104d06004600561070b565b346104c057610732366004610601565b61059e61073d610716565b604051918291826001600160401b03909116815260200190565b5f6105696104d092602161052e565b346104c05761059e61058d61077c3660046104f4565b610757565b634e487b7160e01b5f52604160045260245ffd5b90601f01601f191681019081106001600160401b038211176107b657604052565b610781565b906104f26107c860405190565b9283610795565b6001600160401b0381116107b657602090601f01601f19160190565b0190565b90825f939282370152565b9092919261080f61080a826107cf565b6107bb565b93818552818301116104c0576104f29160208501906107ef565b9080601f830112156104c0578160206104d0933591016107fa565b916060838303126104c057610859828461064a565b9260208101356001600160401b0381116104c05783610879918301610829565b9260408201356001600160401b0381116104c0576104d09201610829565b346104c0576108b06108aa366004610844565b91611c55565b604051005b6104d06104d06104d09290565b6104d060016108b5565b6104d06108c2565b346104c0576108e4366004610601565b61059e61058d6108cc565b909182601f830112156104c0578135916001600160401b0383116104c05760200192600183028401116104c057565b906020828203126104c05781356001600160401b0381116104c05761094392016108ef565b9091565b90610967610960610956845190565b8084529260200190565b9260200190565b905f5b8181106109775750505090565b90919261099d61099660019286516001600160a01b0316815260200190565b9460200190565b92910161096a565b60208082526104d092910190610947565b346104c05761059e6109d26109cc36600461091e565b90611d81565b604051918291826109a5565b6104d0916008021c6104c4565b906104d091546109de565b6104d05f60196109eb565b61056e90610525565b6020810192916104f29190610a01565b346104c057610a2a366004610601565b61059e610a356109f6565b60405191829182610a0a565b346104c057610a51366004610601565b61059e61058d600a5490565b906020828203126104c0576104d09161064a565b6012548110156104c057610a896104d091601261068e565b906109eb565b346104c05761059e610aaa610aa5366004610a5d565b610a71565b604051918291826001600160a01b03909116815260200190565b346104c05761059e61058d610ada366004610a5d565b611d8d565b8015156104de565b905035906104f282610adf565b91906040838203126104c0576104d0906020610b1082866104e5565b9401610ae7565b346104c0576108b0610b2a366004610af4565b90611e45565b5f6105696104d092601d61052e565b346104c05761059e61058d610b553660046104f4565b610b30565b91906040838203126104c0576104d0906020610b76828661064a565b94016104e5565b346104c0576108b0610b90366004610b5a565b90611e6d565b5f6105696104d092601861052e565b346104c05761059e61058d610bbb3660046104f4565b610b96565b90610538565b6104d09081565b6104d09054610bc6565b6104d0905b60ff1690565b6104d09054610bd7565b6104d09060081c6104c4565b6104d09054610bec565b6104d09060081c610bdc565b6104d09054610c02565b634e487b7160e01b5f52602260045260245ffd5b9060016002830492168015610c4c575b6020831014610c4757565b610c18565b91607f1691610c3c565b80545f939291610c72610c6883610c2c565b8085529360200190565b9160018116908115610cc15750600114610c8b57505050565b610c9c91929394505f5260205f2090565b915f925b818410610cad5750500190565b805484840152602090930192600101610ca0565b92949550505060ff1916825215156020020190565b906104d091610c56565b906104f2610cfa92610cf160405190565b93848092610cd6565b0383610795565b610d0c906006610bc0565b90610d1682610bcd565b91610d2360018201610be2565b91610d3060018301610bf8565b91610d3d60028201610bcd565b91610d4a60038301610be2565b91610d5760038201610c0e565b916104d06005610d6960048501610ce0565b9301610ce0565b634e487b7160e01b5f52602160045260245ffd5b60051115610d8e57565b610d70565b906104f282610d84565b6104d090610d93565b61056e90610d9d565b90825f9392825e0152565b610ddb610de46020936107eb93610dcf815190565b80835293849260200190565b95869101610daf565b601f01601f191690565b9692610e5b95610e3c6104d09a989396610e35610e4594610e25610e4e9860208f610e1e61010082019e5f830152565b0190610da6565b6001600160a01b031660408d0152565b60608b0152565b15156080890152565b151560a0870152565b84820360c0860152610dba565b9160e0818403910152610dba565b346104c05761059e610e84610e7f366004610a5d565b610d01565b94610e9798969894919493929360405190565b98899889610dee565b346104c0576108b0610eb3366004610b5a565b90611e77565b6010548110156104c0576106d46104d091601061068e565b346104c05761059e61058d610ee7366004610a5d565b610eb9565b80545f939291610efe610c6883610c2c565b9160018116908115610cc15750600114610f1757505050565b610f2891929394505f5260205f2090565b915f925b818410610f395750500190565b805484840152602090930192600101610f2c565b906104d091610eec565b906104f2610cfa92610f6860405190565b93848092610f4d565b6104d0906106ff565b6104d09054610f71565b610f8f90600f610bc0565b90610f9982610f57565b91610fa660018201610f57565b91610fb360028301610be2565b91610fc060038201610bcd565b916104d06005610fd260048501610bcd565b9301610f7a565b919461102560a09498979561101e6110146104f29961100661102c9760c08a01908a82035f8c0152610dba565b9088820360208a0152610dba565b9a15156040870152565b6060850152565b6080830152565b01906001600160401b03169052565b346104c05761059e611056611051366004610a5d565b610f84565b9261106696949692919260405190565b96879687610fd9565b6104d05f601361054f565b346104c05761108a366004610601565b61059e61058d61106f565b346104c0576110a5366004610601565b6108b0611ecb565b6105696104d0926110c05f93601561052e565b610bc0565b346104c05761059e61058d6110db366004610657565b906110ad565b6104d05f601e61054f565b346104c0576110fc366004610601565b61059e61058d6110e1565b346104c057611117366004610601565b61059e6109d2611f5e565b346104c0576108b06111353660046104f4565b6120b4565b63ffffffff81166104de565b905035906104f28261113a565b906020828203126104c0576104d091611146565b346104c0576108b061117a366004611153565b612188565b6104d060326108b5565b6104d061117f565b346104c0576111a1366004610601565b61059e61058d611189565b346104c0576108b06111bf3660046104f4565b612331565b346104c0576111d4366004610601565b61059e61058d60075490565b6104d05f601b61054f565b346104c0576111fb366004610601565b61059e61058d6111e0565b346104c057611216366004610601565b61059e6105ee61233a565b80548210156106ae576106a66005915f5260205f2090565b6104d0906104c4565b6104d09054611239565b600c90611257825490565b8110156104c05761126791611221565b5061127181611242565b9161127e60018301610bcd565b9161128b60028201610be2565b916104d0600461129d60028501610c0e565b9301610bcd565b909594926104f2946112e36112ec926112d96080966112d260a088019c5f8901906001600160a01b03169052565b6020870152565b60ff166040850152565b15156060830152565b0152565b346104c05761059e61130b611306366004610a5d565b61124c565b9161131895939560405190565b958695866112a4565b91906040838203126104c0576104d0906020610b10828661064a565b346104c0576108b0611350366004611321565b906125e7565b6104d0916008021c610bdc565b906104d09154611356565b5f61137d6104d092601161052e565b611363565b346104c05761059e6105ee6113983660046104f4565b61136e565b6104d05f601f61054f565b346104c0576113b8366004610601565b61059e61058d61139d565b91906040838203126104c0576104d0906020610b7682866104e5565b346104c05761059e61058d6113f53660046113c3565b906125f1565b5f6105696104d092602261052e565b346104c05761059e61058d6114203660046104f4565b6113fb565b60ff81166104de565b905035906104f282611425565b919060a0838203126104c05761145181846104e5565b9261145f826020830161142e565b926104d0611470846040850161142e565b9360806106738260608701610ae7565b346104c0576108b061149336600461143b565b93929092612c0f565b346104c0576114ac366004610601565b61059e5f80516020615b1983398151915261058d565b600511156104c057565b905035906104f2826114c2565b6001600160401b0381166104de565b905035906104f2826114d9565b919060a0838203126104c05761150b81846114cc565b9260208101356001600160401b0381116104c0578261152b9183016108ef565b92909361153b82604085016114e8565b926115498360608301611146565b9260808201356001600160401b0381116104c05761094392016108ef565b346104c05761059e61058d61157d3660046114f5565b9594909493919361335c565b346104c057611599366004610601565b6108b06133d7565b346104c0576108b06115b4366004610a5d565b61352d565b346104c0576115c9366004610601565b61059e61058d600c5490565b346104c0576115e5366004610601565b6108b0613557565b346104c0576108b06116003660046104f4565b613720565b346104c057611615366004610601565b61059e610aaa613729565b6104d05f600461054f565b346104c05761163b366004610601565b61059e61058d611620565b346104c05761059e6105ee61165c366004610b5a565b90613732565b90611671610960610956845190565b905f5b8181106116815750505090565b9091926116976109966001928651815260200190565b929101611674565b60208082526104d092910190611662565b346104c0576116c0366004610601565b61059e6116cb6137bc565b6040519182918261169f565b6007548110156104c0576106d46104d091600761068e565b346104c05761059e61058d611705366004610a5d565b6116d7565b6104d06127106108b5565b6104d061170a565b346104c05761172d366004610601565b61059e61058d611715565b600a90611743825490565b8110156104c05761175391611221565b509061175e82610bcd565b9161176b60018201611242565b9161177860028301610bcd565b9161178560038201610be2565b916104d0600461129d60038501610c0e565b91946117df6112ec929897956117d560a0966117ce6104f29a6117be60c08a019e5f8b0152565b6001600160a01b03166020890152565b6040870152565b60ff166060850152565b15156080830152565b346104c05761059e6118036117fe366004610a5d565b611738565b9261181396949692919260405190565b96879687611797565b6104d05f6108b5565b6104d061181c565b346104c05761183d366004610601565b61059e61058d611825565b346104c0576108b061185b3660046104f4565b61387e565b91906080838203126104c057611876818461064a565b9260208101356001600160401b0381116104c057826118969183016108ef565b92909360408301356001600160401b0381116104c057826118be6060946104d09387016108ef565b9490950161064a565b346104c0576108b06118da366004611860565b94939093929192613b51565b6104d05f602061054f565b346104c057611901366004610601565b61059e61058d6118e6565b6105696104d09261191f5f93601461052e565b61052e565b346104c05761059e61058d61193a3660046113c3565b9061190c565b5f61137d6104d092601661052e565b346104c05761059e6105ee6119653660046104f4565b611940565b6104d05f601c61054f565b346104c057611985366004610601565b61059e61058d61196a565b346104c0576119a0366004610601565b6108b061400b565b346104c0576108b06119bb366004610b5a565b9061402e565b346104c05761059e61058d6119d7366004610657565b90614038565b634e487b7160e01b5f525f60045260245ffd5b905f10611a00576104d090610ce0565b6119dd565b6104d05f601a6119f0565b60208082526104d092910190610dba565b346104c057611a31366004610601565b61059e611a3c611a05565b60405191829182611a10565b5f61137d6104d092601761052e565b346104c05761059e6105ee611a6d3660046104f4565b611a48565b906020828203126104c0576104d0916114e8565b346104c0576108b0611a99366004611a72565b614120565b346104c0576108b0611ab13660046104f4565b61413e565b6104d05f600e61054f565b346104c057611ad1366004610601565b61059e61058d611ab6565b346104c057611aec366004610601565b61059e7f97667070c54ef182b0f5858b034beac1b6f3089aa2d3188bb1e8929f4fa9b92961058d565b6104d0916008021c5b63ffffffff1690565b906104d09154611b15565b6104d05f6005611b27565b346104c057611b4d366004610601565b61059e611b58611b32565b6040519182918263ffffffff909116815260200190565b6104d05f600d61054f565b346104c057611b8a366004610601565b61059e61058d611b6f565b6104d05f600861054f565b346104c057611bb0366004610601565b61059e61058d611b95565b90611bc861080a836107cf565b918252565b611bd76005611bbb565b64312e322e3160d81b602082015290565b6104d0611bcd565b6104d0611be8565b6104d0611bf0565b346104c057611c10366004610601565b61059e611a3c611bf8565b637965db0b60e01b6001600160e01b0319821614908115611c3a575090565b6104d091506001600160e01b0319166301ffc9a760e01b1490565b90611c826104c47f0000000000000000000000000000000000000000000000000000000000000000610525565b3303611cc857611c96926104d0918361415c565b7f85e1543bf2f84fe80c6badbce3648c8539ad1df4d2b3d822938ca0538be727e6611cc060405190565b80805b0390a2565b63c6829f8360e01b5f908152600490fd5b035ffd5b6001600160401b0381116107b65760208091020190565b90929192611d0461080a82611cdd565b93818552602080860192028301928184116104c057915b838310611d285750505050565b60208091611d3684866104e5565b815201920191611d1b565b9080601f830112156104c0578160206104d093359101611cf4565b906020828203126104c05781356001600160401b0381116104c0576104d09201611d41565b6104d091810190611d5c565b6001611da56104d092611d9d5f90565b506002610bc0565b01610bcd565b6104f29190611dcb5f80516020615b19833981519152614328565b614328565b611dfa565b9060ff905b9181191691161790565b90611def6104d0611df692151590565b8254611dd0565b9055565b611cc3611e3b7f54900594d0707a7434a1f46c1793527ed7583b79f004cba0898aca38d75a0c4592611e3685611e3183601761052e565b611ddf565b610525565b926105f260405190565b906104f291611dab565b906104f291611e60611dc682611d8d565b90611e6a91614333565b50565b906104f291611e4f565b90611e81336104c4565b6001600160a01b03821603611e9957611e6a916143a7565b63334bd91960e11b5f908152600490fd5b611ec05f80516020615b19833981519152614328565b6104f26104f2614443565b6104f2611eaa565b90611eec611ee2610956845490565b925f5260205f2090565b905f5b818110611efc5750505090565b909192611f29611f22600192611f1187611242565b6001600160a01b0316815260200190565b9460010190565b929101611eef565b906104d091611ed3565b906104f2610cfa92611f4c60405190565b93848092611f31565b6104d090611f3b565b6104d06012611f55565b6104f290611f825f80516020615b19833981519152614328565b611fd8565b915f1960089290920291821b911b611dd5565b9190611fab6104d0611df6936108b5565b908354611f87565b6104f2915f91611f9a565b9190611fab6104d0611df69390565b6104f2915f91611fbe565b611fe75f611e3183601661052e565b611ff05f6108b5565b6012611ffd6104d0825490565b82101561207f57906120565f61205161201c610a898561205c9761068e565b61191f8760146120386120338561191f858561052e565b610bcd565b6120446104d0886108b5565b8103612061575b5061052e565b611fcd565b60010190565b611ff0565b86612074612079926110c086601561052e565b611fb3565b5f61204b565b505061208a90610525565b7f9169a01f7f36d74ee5fae148971bd94406ded157536330ff7a1816a4556b874b611cc060405190565b6104f290611f68565b6104f2906120d75f80516020615b19833981519152614328565b612125565b6104d090611b1e565b6104d090546120dc565b9063ffffffff90611dd5565b611b1e6104d06104d09263ffffffff1690565b9061211e6104d0611df6926120fb565b82546120ef565b7f84858bb3fb3ecf87e268ebef250ef9ad9cd53ef7973ef7a0ec9d89470bb00a809061215160056120e5565b61215c82600561210e565b61218361216860405190565b9283928363ffffffff91821681529116602082015260400190565b0390a1565b6104f2906120bd565b6104f29061219d614490565b6121b8565b6104c46104d06104d09290565b6104d0906121a2565b6121c0613729565b906121ca5f6121af565b6001600160a01b0381166001600160a01b038416141580612315575b6121ef57505050565b81612273916122799361220061181c565b61221161220d8883613732565b1590565b612305575b6122455f80516020615b198339815191529361223561220d8a87613732565b6122ee576001600160a01b031690565b6001600160a01b0383161415908282806122de575b6122cd575b5050806122bd575b6122ac575b5050610525565b91610525565b907f9aa20ff69b15b86aaaab8b843dbeee446227b7d782e886e924cf461e9226b1726122a460405190565b80805b0390a3565b6122b5916143a7565b505f8161226c565b506122c88183613732565b612267565b6122d6916143a7565b505f8261225f565b506122e98183613732565b61225a565b6122f88986614333565b506001600160a01b031690565b61230f8782614333565b50612216565b506001600160a01b0382166001600160a01b03841614156121e6565b6104f290612191565b6104d06003610be2565b6104f2919061235f5f80516020615b19833981519152614328565b6123f7565b634e487b7160e01b5f52601160045260245ffd5b9190612383565b9290565b820391821161238e57565b612364565b634e487b7160e01b5f52603160045260245ffd5b805480156123c9575f1901906123c66123c0838361068e565b90611fcd565b55565b612393565b90815491600160401b8310156107b657826123f19160016104f29501815561068e565b90611fbe565b90600f9161241361220d600261240d8487610bc0565b01610be2565b806125e0575b156124dd5761243660016002612430848397610bc0565b01611ddf565b5f92806124425f6108b5565b905b612499575b5091925f80516020615af98339815191529250611cc391611e3b91158061247d575b6124725790565b6104d08160106123ce565b5060105461249361248f6104d061117f565b9190565b1061246b565b60106124a66104d0825490565b8210156124d7576106d4826124ba9261068e565b83146124c95760010181612444565b509250611e3b611cc3612449565b50612449565b916124ed600261240d8584610bc0565b806125d8575b612512575b5090611cc3611e3b5f80516020615af98339815191529290565b5f60026124308561252294610bc0565b61252b5f6108b5565b60106125386104d0825490565b8210156125bb5761254c6106d4838361068e565b841461255b575060010161252b565b5f80516020615af983398151915292936125b26125ad836104d0611cc3966123f16125a66106d46125a0612590611e3b9b5490565b61259a60016108b5565b90612378565b8661068e565b918461068e565b6123a7565b939250506124f8565b505090611cc3611e3b5f80516020615af9833981519152926125b2565b5081156124f3565b5081612419565b906104f291612344565b6104d09161191f612033926126035f90565b50601461052e565b9392919061262561220d61262033601161052e565b610be2565b612632576104f294612647565b63d801a0a960e01b5f90815233600452602490fd5b906104f2949392916126576144a6565b61280b565b6104d06104d06104d09260ff1690565b9081526040810192916104f29160200152565b9190820180921161238e57565b905f1990611dd5565b906126a56104d0611df6926108b5565b825461268c565b61056e906001600160a01b031660601b90565b61056e9060ff1660f81b90565b926126f160016107eb946126e96014886126e9859b9a86996126ac565b0180926126bf565b018092151560f81b9052565b801561238e575f190190565b906126a56104d0611df69290565b5f19811461238e5760010190565b90611bc861080a83611cdd565b369037565b906104f261274d61274784612725565b93611cdd565b601f190160208401612732565b61276a6104d06104d09260ff1690565b610d93565b6104f2946127b0829897956127a660809661279c6127bd975f60a089019801906001600160a01b03169052565b60ff1660208c0152565b60408a0190610da6565b8782036060890152611662565b94019015159052565b6040513d5f823e3d90fd5b61056e9061265c565b6040906128036104f294969593966127f960608401985f8501906127d1565b60ff166020830152565b019015159052565b93919061281a6104c45f6121af565b6001600160a01b03861614612bfe576128328261265c565b9260049361284561248f6104d087610d9d565b11612be557804211612bcc57503233141580612bb5575b612b9f576128826104d061287461203388601861052e565b61287c6108c2565b9061267f565b431115612b805761289e61289786601861052e565b4390612695565b6040516128c281602081016128b68887878c856126cc565b90810382520382610795565b6128d46128cd825190565b9160200190565b206128ed6120336128e688601461052e565b339061052e565b936128f75f6108b5565b94858103612b0e575b50612918826129136128e68a601461052e565b612709565b612927826110c089601561052e565b9461294361293c61293788610bcd565b612717565b8097612695565b61294c33610525565b9761295681610525565b80997f89bda59782d451a6d88665cbc359056a0a1dde6fcb5dd287d7f696625f47b90061298260405190565b8061298e8c8a8361266c565b0390a361299e6104d06013610bcd565b87101580612af7575b6129b7575b505050505050505050565b6129c76001611e3183601661052e565b6129d86129d35f6108b5565b612737565b926129e6611e366019611242565b936129f08861275a565b94803b156104c057835f8094612a238e8c96612a0b60405190565b9b8c98899788966359ccf21160e01b8852870161276f565b03925af1908115612af2577f63ca738403dfdcebabdb4643c18b281e5f3a23e6d4f6e620a0e08a5198c677da97612ac495612a96612a8f7fb638617b9b16cb370d166e67b0198036ef358447b66190f12e642d4785836b8b94612ab1988f97612ad5575b50601d61052e565b4290612695565b612aab612aa260405190565b9283928361266c565b0390a290565b94612abb60405190565b938493846127da565b0390a35f80808080808080806129ac565b612aec905f612ae48183610795565b810190610601565b5f612a87565b6127c6565b50612b0961220d61262083601661052e565b6129a7565b612b37612b20826110c08b601561052e565b612b31612b2c82610bcd565b6126fd565b90612695565b612b4033610525565b7ffd76418726a332416c104dc2a5c0078dd848183482d2831b27597be674619010612b77612b6d8b610525565b9361059160405190565b0390a35f612900565b63cdaa744360e01b5f9081526001600160a01b03861684526020840190fd5b63078f5fc160e01b5f9081523384526020840190fd5b50612bc761220d61262033601761052e565b61285c565b6302a07ebf60e31b5f90815290611cd99042908661266c565b635e50d4ab60e11b5f90815260ff841685526020850190fd5b63e6c4247b60e01b5f908152600490fd5b906104f29493929161260b565b6104d09796959493929190612c507f97667070c54ef182b0f5858b034beac1b6f3089aa2d3188bb1e8929f4fa9b929614328565b612c7d565b6001600160a01b0390911681526060810193926104f29290916040916112ec905b6020830152565b9796959493929190602198612c95612033338c61052e565b612ca161248f5f6108b5565b141580612dbc575b612da7576023612cbc612033338361052e565b612cc861248f5f6108b5565b148015612d7f575b612d56575b50602299612ce6612033338d61052e565b612cf661248f6104d0601f610bcd565b1015612d2657612a8f612d21916128e6612d156104d09d9e339061052e565b612b3161293782610bcd565b61312e565b5f611cd9612d37612033338f61052e565b612d41601f610bcd565b6309823c8360e41b8452903360048501612c55565b612a8f612d79916128e6612d695f6108b5565b612d7433602261052e565b612695565b5f612cd5565b50612d9f6104d0612d93612033338561052e565b61287c620151806108b5565b421015612cd0565b630a1c727760e31b5f90815233600452602490fd5b50612dd3612dcd612033338d61052e565b42612378565b612de361248f6104d0601e610bcd565b10612ca9565b6104d060e06107bb565b612dfb612de9565b905f8252602080808080808088015f8152015f8152016060815201606081520160608152016060905250565b6104d0612df3565b6104d09136916107fa565b634e487b7160e01b5f52601260045260245ffd5b8115612e58570690565b612e3a565b6104d06101006107bb565b9061056e90610d93565b6104d05f611bbb565b6104d0612e72565b5190565b6104d09051610d93565b90611def6104d0611df692610d9d565b90610100600160a81b039060081b611dd5565b90612ec46104d0611df692610525565b8254612ea1565b9061ff009060081b611dd5565b90612ee86104d0611df692151590565b8254612ecb565b818110612efa575050565b80612f075f600193611fb3565b01612eef565b9190601f8111612f1c57505050565b612f2c6104f2935f5260205f2090565b906020601f840181900483019310612f4e575b6020601f909101040190612eef565b9091508190612f3f565b90612f61815190565b906001600160401b0382116107b657612f8482612f7e8554610c2c565b85612f0d565b602090601f8311600114612fbd57611df692915f9183612fb2575b50505f19600883021c1916906002021790565b015190505f80612f9f565b601f19831691612fd0855f5260205f2090565b925f5b81811061300c57509160029391856001969410612ff4575b50505002019055565b01515f196008601f8516021c191690555f8080612feb565b91936020600181928787015181550195019201612fd3565b906104f291612f58565b60056130da60e06104f29461304c6130465f83015190565b86612709565b61307c6001860161306861306260208501612e87565b82612e91565b60408301516001600160a01b031690612eb4565b61309361308a606083015190565b60028701612695565b6130be600386016130b06130aa6080850151151590565b82611ddf565b60a083015115155b90612ed8565b6130d56130cc60c083015190565b60048701613024565b015190565b9101613024565b906104f29161302e565b9190610de481613102816107eb9560209181520190565b80956107ef565b916104d093919261312160408201945f830190610da6565b60208185039101526130eb565b5090969591949093919290918561314761248f5f6108b5565b148061333a575b61331a5761315a612e27565b8661316761248f5f6108b5565b111561332b57613177878a612e2f565b905b815161318761248f5f6108b5565b1461331a577f2a85f518adec0939bcb54c9f9cb5672ea58f47561bfaadde446335d03bdddd74956131ea956131bf6131d9948461468a565b816131cc61248f5f6108b5565b11613300575b5050614857565b916131e46004610bcd565b92614b0d565b946007866131f6825490565b6131fe61170a565b908111156132c45750613210916123ce565b61328161321b612e5d565b613223888252565b6132308560208301612e68565b336040820152613241426060830152565b5f60808201525f60a082015261325f613258612e7b565b60c0830152565b61327161326a612e7b565b60e0830152565b61327c886006610bc0565b6130e1565b61328c866008612709565b6132a361329c612937601b610bcd565b601b612695565b85926122a76132b133610525565b956132bb60405190565b93849384613109565b6132e4926132de6123f1926132d96009610bcd565b612e4e565b9061068e565b6132fb6132f46129376009610bcd565b6009612695565b613210565b6133139161330d91612e2f565b826146b4565b5f806131d2565b630ee2db0560e21b5f908152600490fd5b61333486614641565b90613179565b5061334a612e836104d087614641565b61335661248f5f6108b5565b1461314e565b6104d0969594939291905f612c1c565b1561337357565b60405162461bcd60e51b815260206004820152601660248201527526bab9ba10313290383937b837b9b2b21037bbb732b960511b6044820152606490fd5b906001600160a01b0390611dd5565b906133d06104d0611df692610525565b82546133b1565b6133ee6133e76104c46001611242565b331461336c565b6134176133fa5f611242565b613404335f6133c0565b611e366134105f6121af565b60016133c0565b61342033610525565b907f8be0079c531659141344cd1fd0a4f28419497f9722a3daafe3b4186f6b6457e06122a460405190565b6104f2906134655f80516020615b19833981519152614328565b6134b6565b1561347157565b60405162461bcd60e51b815260206004820152601a60248201527f496e76616c696420636f6e6669726d6174696f6e20636f756e740000000000006044820152606490fd5b7f9a71f52a6cf1d6a0a676a538d4131e624fbe0f9146d1ca1c7a31fda3db8c37f7906134e15f6108b5565b811180613513575b6134f29061346a565b6134fc6013610bcd565b613507826013612695565b612183612aa260405190565b506134f26135236104d060125490565b82111590506134e9565b6104f29061344b565b61354c5f80516020615b19833981519152614328565b6104f26104f2614c29565b6104f2613536565b6104f2906135795f80516020615b19833981519152614328565b6135da565b916001600160a01b0360089290920291821b911b611dd5565b91906135a86104d0611df693610525565b90835461357e565b6104f2915f91613597565b805480156123c9575f1901906123c66135d4838361068e565b906135b0565b6135eb61220d61262083601161052e565b611e6a576135fe5f611e3183601161052e565b6136075f6108b5565b60126136146104d0825490565b82101561371557613628610a89838361068e565b6136436001600160a01b0385165b916001600160a01b031690565b146136515750600101613607565b61367a816104d06136a295946136746125a6610a896125a061259061367f995490565b90613597565b6135bb565b6136896013610bcd565b61369861248f6104d060125490565b116136cc57610525565b7f3c9c4af7c4c66de2ffc68abfa4e0d275fbce92f248473bca0d6787dc8caf8e31611cc060405190565b6136df6136d860125490565b6013612695565b7f5d983a5871dfe1a76e3752b3a3ccec2ca4289702fca17f68d587b4500fe3ac6a61370d61058d6013610bcd565b0390a1610525565b50506136a29061367f565b6104f29061355f565b6104d05f611242565b6104d0915f61374561262093611d9d5f90565b0161052e565b9061375a611ee2610956845490565b905f5b81811061376a5750505090565b909192613787611f2260019261377f87610bcd565b815260200190565b92910161375d565b906104d09161374b565b906104f2610cfa926137aa60405190565b9384809261378f565b6104d090613799565b6104d060106137b3565b6104f2906137e05f80516020615b19833981519152614328565b613808565b90815491600160401b8310156107b657826136749160016104f29501815561068e565b6138146104c45f6121af565b6001600160a01b03821614612bfe5761383161262082601161052e565b611e6a57806138496001611e3161385494601161052e565b611e368160126137e5565b7f5a7a3f71a35f5e2589980d29d1c6d8c75e39657751190874081e55208bae24b7611cc060405190565b6104f2906137c6565b6104f29594939291906138a65f80516020615b19833981519152614328565b613a55565b6104d060c06107bb565b6106ff6104d06104d09290565b906138cb815190565b906001600160401b0382116107b6576138e882612f7e8554610c2c565b602090601f831160011461391557611df692915f9183612fb25750505f19600883021c1916906002021790565b601f19831691613928855f5260205f2090565b925f5b81811061394b57509160029391856001969410612ff45750505002019055565b9193602060018192878701518155019501920161392b565b906104f2916138c2565b906001600160401b0390611dd5565b6106ff6104d06104d0926001600160401b031690565b906139a26104d0611df69261397c565b825461396d565b6005613a3360a06104f2946139c76139c15f83015190565b86613963565b6139de6139d5602083015190565b60018701613963565b6139f76139ee6040830151151590565b60028701611ddf565b613a0e613a05606083015190565b60038701612695565b613a25613a1c608083015190565b60048701612709565b01516001600160401b031690565b9101613992565b906104f2916139a9565b60208082526104d0939101916130eb565b9094919293613a6360105490565b613a7161248f6104d061117f565b1015613b4057613a87600261240d84600f610bc0565b613b385785613af685611025613b2296613aea6112d2612472977fbedfda3c33d162721dc631692ff35e157054492b7b9babcdf18877740e5f5a899c613ae5613ae1613ad25f6108b5565b98613adb6138ab565b9b612e2f565b8a52565b612e2f565b6001604086015261101e565b613b12613b025f6138b5565b6001600160401b031660a0830152565b613b1d83600f610bc0565b613a3a565b92611cc3613b2f60405190565b92839283613a44565b505050505050565b63828659f160e01b5f908152600490fd5b906104f29594939291613887565b613b887f97667070c54ef182b0f5858b034beac1b6f3089aa2d3188bb1e8929f4fa9b929614328565b6104f2613db6565b610bdc6104d06104d09290565b610bdc6104d06104d09260ff1690565b90611def6104d0611df692613b9d565b8181029291811591840414171561238e57565b818110613bdb575050565b80613be85f600193611fcd565b01613bd0565b919091828210613bfd57505050565b6104f29291613c1090915f5260205f2090565b9182019101613bd0565b90600160401b81116107b65781613c326104f2935490565b90828155613bee565b818114613ca2578154916001600160401b0383116107b657613c6f611ee2600192613c668686613c1a565b5f5260205f2090565b9204918154915f925b848410613c86575050505050565b6001613c90819290565b92019384549281850155019290613c78565b5050565b906104f291613c3b565b818103613cbb575050565b6004613d268184613cd9613cd35f6104f29801611242565b866133c0565b613cf1613ce860018301610bcd565b60018701612695565b613d16600286016130b860028401613d11613d0b82610be2565b84613bad565b610c0e565b611da56003820160038701613ca6565b9101612695565b9190611a00576104f291613cb0565b5f6104f291613c1a565b905f03611a00576104f290613d3c565b5f8082556104f291600490613d6e8360018301611fb3565b826002820155613d818360038301613d46565b01611fb3565b905f03611a00576104f290613d56565b805480156123c9575f1901906123c6613db08383611221565b90613d87565b600c8054613dca61248f6104d0600e610bcd565b1015613ffb578054915b613ddd5f6108b5565b8314613ff6575a92613dee5f6108b5565b81811015613f3b57613e07613e038286611221565b5090565b90613e14600383016137b3565b91613e22611e366019611242565b8190613e2d82611242565b60018301926002613e45613e4086610bcd565b613b90565b910192613e59613e5485610be2565b61275a565b91613e6385610c0e565b823b156104c0575f94613e948692613e7a60405190565b9c8d97889687956359ccf21160e01b87526004870161276f565b03925af1908115612af257613f21957f63ca738403dfdcebabdb4643c18b281e5f3a23e6d4f6e620a0e08a5198c677da92613f26575b50613ee9613e40613ee3613edd5f6108b5565b96611242565b94610bcd565b613f18613f0e613f08613f04613efe86610be2565b95610c0e565b9790565b95610525565b95612abb60405190565b0390a360010190565b613dee565b613f35905f612ae48183610795565b5f613eca565b50909192613f485f6108b5565b613f5c6104d084613f57885490565b612378565b811015613f935780612056613f7d613f7786613f8e9561267f565b88611221565b50613f888389611221565b90613d2d565b613f48565b509190613f9f5f6108b5565b81811015613fb957613fb49061205686613d97565b613f9f565b50909250613fe97f751c71674a09ec2c8ea29b53266803e34cd5c7038cdd51e13ee37e0fcde65637925a90612378565b90612183612aa260405190565b915050565b614005600e610bcd565b91613dd4565b6104f2613b5f565b906104f291614024611dc682611d8d565b90611e6a916143a7565b906104f291614013565b6104d0916110c06120339261404a5f90565b50601561052e565b6104f29061406c5f80516020615b19833981519152614328565b6140d4565b6104d09060201c6106ff565b6104d09054614071565b906bffffffffffffffff000000009060201b611dd5565b906140ae6104d0611df69261397c565b8254614087565b6001600160401b0390911681526040810192916104f29160209061102c565b7f56bc58e9d6d8a66924053edf738a667fbedd80ff70cc0eaa631fc48786447dbf90614100600561407d565b61410b82600561409e565b61218361411760405190565b928392836140b5565b6104f290614052565b6104f290614135614490565b6104f290614c7d565b6104f290614129565b90151581526040810192916104f29160200152565b909161416c6104d0836006610bc0565b9061417960018301610bf8565b6141886136366104c45f6121af565b1461431757600382019061419b82610be2565b614306576141aa600183611ddf565b6141c86141b5825190565b6141c161248f5f6108b5565b1483612ed8565b6141d58560048501613024565b6141e28160058501613024565b6141ed61220d61233a565b90816142f0575b50806142db575b1561425c57506142259260016104d092019061421f61421983610be2565b92610bf8565b91614daf565b7f400b2562754ea3c31e614674ba9837d1026b1e0293dcb2483830031a20879eee61424f60405190565b80611cc342600183614147565b92505061426761233a565b156142a3576104d05f61427993611ddf565b7fb70c611b17840570468ef8f2fefb26838740f1921566e2f03c4e58293a5d8b8a611cc060405190565b90507f400b2562754ea3c31e614674ba9837d1026b1e0293dcb2483830031a20879eee6142cf60405190565b80611cc3425f83614147565b5083516142ea61248f5f6108b5565b116141fb565b5190506142ff61248f5f6108b5565b145f6141f4565b634a4117f960e01b5f908152600490fd5b632589d98f60e11b5f908152600490fd5b6104f29033906150da565b61434061220d8383613732565b156143a15761435a6001611e31845f613745866002610bc0565b61436e612273614368339390565b93610525565b917f2f8788117e7eff1d82e926ec794901d17c78024a50270940304540a733656f0d61439960405190565b5f90a4600190565b50505f90565b6143b18282613732565b156143a1576143ca5f611e318482613745866002610bc0565b6143d8612273614368339390565b917ff6391f5c32d9c69d2a47ea670b442974b53935d1edc7fd64eb21e047a839171b61439960405190565b61440b615108565b6104f26144195f6003611ddf565b7f5db9ee0a495bf2e6ff9c91a7834c1ba4fdd244a5e8aa4e537bd38aeae4b073aa61218333610aaa565b6104f2614403565b1561445257565b60405162461bcd60e51b815260206004820152601660248201527527b7363c9031b0b63630b1363290313c9037bbb732b960511b6044820152606490fd5b6104f261449f6104c45f611242565b331461444b565b6144ae61233a565b6144b457565b63d93c066560e01b5f908152600490fd5b6144cf604e611bbb565b7f636f6e7374207269736b53636f7265203d20617267735b305d3b72657475726e60208201527f2046756e6374696f6e732e656e636f646555696e74323536287061727365496e60408201526d74287269736b53636f726529293b60901b606082015290565b6104d06144c5565b61454760c2611bbb565b7f636f6e737420617069526573706f6e7365203d2061776169742046756e63746960208201527f6f6e732e6d616b654874747052657175657374287b75726c3a20617267735b3060408201527f5d7d293b69662028617069526573706f6e73652e6572726f722920726574757260608201527f6e2046756e6374696f6e732e656e636f6465537472696e6728276572726f722760808201527f293b72657475726e2046756e6374696f6e732e656e636f6465537472696e672860a08201527f4a534f4e2e737472696e6769667928617069526573706f6e73652e646174612960c082015261293b60f01b60e082015290565b6104d061453d565b61464b6001610d93565b61465482610d93565b0361466257506104d0614639565b61467561466f6002610d93565b91610d93565b14614682576104d0612e7b565b6104d0614535565b905f806104f293615134565b60031115610d8e57565b906104f282614696565b9061056e906146a0565b81516146c261248f5f6108b5565b146146d857806112ec60016020608094016146aa565b63e889636f60e01b5f908152600490fd5b6104d06101006108b5565b6146fe600c611bbb565b6b31b7b232a637b1b0ba34b7b760a11b602082015290565b6104d06146f4565b6104d090516146a0565b6104d0906146a0565b61473b6008611bbb565b676c616e677561676560c01b602082015290565b6104d0614731565b60011115610d8e57565b906104f282614757565b6104d09051614761565b6104d090614761565b6147886006611bbb565b65736f7572636560d01b602082015290565b6104d061477e565b6147ac6004611bbb565b636172677360e01b602082015290565b6104d06147a2565b906147cd825190565b8110156106ae576020809102010190565b6147e8600f611bbb565b6e39b2b1b932ba39a637b1b0ba34b7b760891b602082015290565b6104d06147de565b6148156007611bbb565b667365637265747360c81b602082015290565b6104d061480b565b61483a6009611bbb565b6862797465734172677360b81b602082015290565b6104d0614830565b6148676148626146e9565b6151ba565b90614879614873614716565b836151e6565b61489361488d6148888361471e565b614728565b83615251565b61489e61487361474f565b6148b561488d6148b06040840161476b565b614775565b6148c061487361479a565b6148ce6060820151836151e6565b60a081018051516148e161248f5f6108b5565b11614a0f575b5060808101906148f682515190565b61490261248f5f6108b5565b11614991575b60c091500161491681515190565b61492261248f5f6108b5565b1161492e575b50515190565b61493961487361484f565b614942826152b7565b61494b5f6108b5565b6149576104d083515190565b81101561497c57806120566149706149779385516147c4565b518561531e565b61494b565b50505f809161498a816152f5565b9150614928565b6020810161499e8161471e565b6149b06149aa5f6146a0565b916146a0565b146149fe5760c0926149e16149db6148886149f9946149d66149d0614803565b8a6151e6565b61471e565b86615251565b6149f26149ec614828565b866151e6565b518461531e565b614908565b63a80d31f760e01b5f908152600490fd5b9092614a22614a1c6147bc565b846151e6565b614a2b836152b7565b614a345f6108b5565b614a406104d084515190565b811015614a655780612056614a59614a609386516147c4565b51866151e6565b614a34565b50929050614a72826152f5565b5f6148e7565b614a856104d06104d09290565b61ffff1690565b6104d06001614a78565b905051906104f282610644565b906020828203126104c0576104d091614a96565b906104f294614b00614af36112ec936080969a99979a614ae660a08801925f8901906001600160401b03169052565b8682036020880152610dba565b61ffff9099166040850152565b63ffffffff166060830152565b906020929391614b1a5f90565b505f614b457f0000000000000000000000000000000000000000000000000000000000000000610525565b92614b75614b51614a8c565b95614b5b60405190565b9889978896879563230e93b160e11b875260048701614ab7565b03925af1908115612af2575f91614bb9575b50807f1131472297a800fee664d1d89cfa8f7676ff07189ecc53f80bbb5f4969099db8614bb360405190565b5f90a290565b614bdb915060203d602011614be1575b614bd38183610795565b810190614aa3565b5f614b87565b503d614bc9565b614bf06144a6565b6104f2614bff60016003611ddf565b7f62e78cea01bee320cd4e420270b5ea74000d11b0c9f74754ebdbfc544b05a25861218333610aaa565b6104f2614be8565b15614c3857565b60405162461bcd60e51b815260206004820152601760248201527f43616e6e6f74207472616e7366657220746f2073656c660000000000000000006044820152606490fd5b614c92336001600160a01b0383161415614c31565b614c9d8160016133c0565b614cac612273611e365f611242565b907fed8889f560326eb138920d842192f0eb3dd22b4f139c87a2c57538e05bae12786122a460405190565b905051906104f282610adf565b91906040838203126104c0576104d0906020614d008286614a96565b9401614cd7565b6004613d2660a06104f294614d1f6130465f83015190565b614d3f614d3660208301516001600160a01b031690565b600187016133c0565b614d4d61308a604083015190565b6130d560038601614d6b614d65606085015160ff1690565b82613bad565b608083015115156130b8565b9190611a00576104f291614d07565b90815491600160401b8310156107b65782614da99160016104f295018155611221565b90614d77565b9150614dbb6002610d93565b614dc483610d93565b14806150a6575b15614e9a57614dea91506020614ddf825190565b818301019101614aa3565b80614df861248f60ff61265c565b11614e8a575b600a54614e0f61248f6104d061170a565b10614e175750565b6104f290600a614e5d614e295f6108b5565b92614e56614e365f6121af565b614e46614e416138ab565b968752565b6001600160a01b03166020860152565b6040840152565b614e73614e695f613b90565b60ff166060840152565b5f60808301525b614e854260a0840152565b614d86565b50614e9560ff61265c565b614dfe565b600191614ea76001610d93565b614eb082610d93565b03614fa25750614ebf906153d3565b90614ec8575050565b8190614ed35f6108b5565b915b614ede57505050565b614ee96104d0825190565b821015614f9d57614f198392614efe600c5490565b614f0e61248f6104d0600d610bcd565b10614f1f5760010190565b91614ed5565b612056614f3c614f2f83866147c4565b516001600160a01b031690565b614f8d614f496004610d9d565b614f80614f586129d35f6108b5565b91614f73614f646138ab565b6001600160a01b039096168652565b6112d96112d260646108b5565b8715156060840152611025565b614f984260a0830152565b6155e1565b505050565b909150614faf6003610d93565b614fb882610d93565b0361509757508051614fcd61248f60406108b5565b1015614fd65750565b806020614fe4614fef935190565b818301019101614ce4565b9080614ffe61248f60ff61265c565b11615087575b600a5461501561248f6104d061170a565b1061501e575050565b6104f291614e7a600a916150686150345f6108b5565b946150616150415f6121af565b61505161504c6138ab565b988952565b6001600160a01b03166020880152565b6040860152565b61507e6150745f613b90565b60ff166060860152565b15156080840152565b5061509260ff61265c565b615004565b9050613ca261466f6004610d93565b5080516150b661248f60206108b5565b1015614dcb565b6001600160a01b0390911681526040810192916104f29160200152565b906150e861220d8284613732565b6150f0575050565b63e2517d3f60e01b5f90815291611cd99160046150bd565b61511361220d61233a565b61511957565b638dfc202b60e01b5f908152600490fd5b9061056e90614761565b9061513d845190565b61514961248f5f6108b5565b14615168576060926112ec9161515f90846146aa565b6040830161512a565b6322ce3edd60e01b5f908152600490fd5b6104d060406107bb565b61518b615179565b9060605b82525f6020830152565b6104d0615183565b6151a9615179565b9061518f615199565b6104d06151a1565b6151cf6151c56151b2565b915f830151615663565b506104d0612c765f6108b5565b6104d06003613b90565b905f611e6a926152166151fe6151fa6151dc565b9490565b9361520f61520a865190565b6138b5565b9083615716565b0151615881565b6104d06006613b90565b610bdc9061524261523b6104d09460ff1690565b9160ff1690565b901b90565b6104d06002613b90565b906104f2916152875f82015161527861526861521d565b6152726005613b90565b90615227565b615280615247565b1790615896565b506152a861529460405190565b602081810194909452928352604083610795565b61531e565b6104d06004613b90565b6104f2906152cc6152c66152ad565b82615908565b61056e60206152db60016108b5565b9201916152e6835190565b61267f565b6104d06007613b90565b6104f2906153046152c66152eb565b61056e602061531360016108b5565b920191613f57835190565b905f611e6a9261521661532f615247565b61520f61520a865190565b905051906104f2826104d3565b9092919261535761080a82611cdd565b93818552602080860192028301928184116104c057915b83831061537b5750505050565b60208091615389848661533a565b81520192019161536e565b9080601f830112156104c05781516104d092602001615347565b906020828203126104c05781516001600160401b0381116104c0576104d09201615394565b5f81516153e361248f60406108b5565b106154ce5750602081015160408201519061540161248f60206108b5565b036154ce576154116127106108b5565b81116154ce5761542e6154389161542860206108b5565b90613bbd565b6152e660406108b5565b61544661248f61237f845190565b106154c1575f6154769161545930610525565b604051938492839182916313efb55f60e01b835260048301611a10565b03915afa5f918161549d575b5061549857506154946129d35f6108b5565b5f91565b600191565b6154ba9192503d805f833e6154b28183610795565b8101906153ae565b905f615482565b506154946129d35f6108b5565b50506154946129d35f6108b5565b8151916001600160401b0383116107b657615506611ee26001926155008686613c1a565b60200190565b9204915f5b8381106155185750505050565b60019060206155286104d0865190565b940193818401550161550b565b906104f2916154dc565b6004613d2660a06104f294615560613cd35f8301516001600160a01b031690565b61556e613ce8602083015190565b61559260028601615586614d65604085015160ff1690565b606083015115156130b8565b6130d56155a0608083015190565b60038701615535565b9190611a00576104f29161553f565b90815491600160401b8310156107b657826155db9160016104f295018155611221565b906155a9565b600c546155f461248f6104d0600d610bcd565b10156156525761560581600c6155b8565b7f6ad10ba353a327de77c5722d6699a472f7daad042e6c6e5e8978d4b009747190611cc3615648614368602061564286516001600160a01b031690565b95015190565b9261059160405190565b638acb5f2760e01b5f908152600490fd5b9061566c615199565b50602061568161567b826108b5565b83612e4e565b61568d61248f5f6108b5565b036156b7575b61569d8282850152565b604051918284525f83528201019081106104c05760405290565b906156d49061287c6156cb61567b856108b5565b613f57856108b5565b90615693565b6104d06104d06104d0926001600160401b031690565b6106ff6104d06104d09260ff1690565b610bdc6104d06104d0926001600160401b031690565b91909161572360176138b5565b6001600160401b0383161161576057611e6a929161575461574f5f61575a940151946152726005613b90565b6156f0565b17615700565b90615896565b61576a60ff6138b5565b6001600160401b038316116157b8578051611e6a936157a892916157a091615796906152726005613b90565b6152806018613b90565b5051916156da565b6157b260016108b5565b91615934565b6157c361ffff6138b5565b6001600160401b03831611615803578051611e6a936157f992916157a0916157ef906152726005613b90565b6152806019613b90565b6157b260026108b5565b61581063ffffffff6138b5565b6001600160401b03831611615850578051611e6a9361584692916157a09161583c906152726005613b90565b615280601a613b90565b6157b260046108b5565b8051611e6a9361587792916157a09161586d906152726005613b90565b615280601b613b90565b6157b260086108b5565b6104d09161588d615199565b508051916159c9565b9061589f615199565b508151516158b66158b060016108b5565b8261267f565b916158c56104d0602086015190565b8210156158e7575b602084519283010153805182116158e357505090565b5290565b6159036158fd6158f760026108b5565b85613bbd565b85615adf565b6158cd565b51611e6a9161591b906152726005613b90565b615280601f613b90565b601f811161238e576101000a90565b919061593e615199565b506159736125906159596159535f8701515190565b8561267f565b936159686104d0602088015190565b851161598e57615925565b8351918383019119825116179052805182116158e357505090565b6159aa6159a461599e60026108b5565b87613bbd565b87615adf565b615925565b156104c057565b906159c461248f6104d09390565b900a90565b926159d2615199565b506159e96159e16104d0845190565b8411156159af565b835151916159f7848461267f565b90615a066104d0602088015190565b8211615ac4575b602091865180519584820101958211615abc575b505093919301915b6020615a34816108b5565b8310615a7057615a6991615a58615a51615a5e93875184526108b5565b809261267f565b9461267f565b9161259a60206108b5565b9091615a29565b509190615a9e615a8e615aad92969596615a8a60206108b5565b0390565b615a996101006108b5565b6159b6565b615aa860016108b5565b900390565b90518251821691191617905290565b525f80615a21565b615ada6159a4615ad460026108b5565b84613bbd565b615a0d565b90611e6a91615af25f8201519282615663565b5061588156fe331d93a318357dd42f8be3f0f5872d53bb1f5a96f547d153b54a25ad9ad84ff2a49807205ce4d355092ef5a8a18f56e8913cf4a201fbe287825b095693c21775a164736f6c634300081a000a",
  "linkReferences": {},
  "deployedLinkReferences": {}
}