{
  "_format": "hh-sol-artifact-1",
  "contractName": "RiskOracle",
  "sourceName": "contracts/RiskOracle.sol",
  "abi": [
    {
      "inputs": [
        {
          "internalType": "address",
          "name": "router",
          "type": "address"
        },
        {
          "internalType": "bytes32",
          "name": "_donId",
          "type": "bytes32"
        },
        {
          "internalType": "uint64",
          "name": "_subscriptionId",
          "type": "uint64"
        },
        {
          "internalType": "address",
          "name": "_riskRegistry",
          "type": "address"
        }
      ],
      "stateMutability": "nonpayable",
      "type": "constructor"
    },
    {
      "inputs": [],
      "name": "AccessControlBadConfirmation",
      "type": "error"
    },
    {
      "inputs": [
        {
          "internalType": "address",
          "name": "account",
          "type": "address"
        },
        {
          "internalType": "bytes32",
          "name": "neededRole",
          "type": "bytes32"
        }
      ],
      "name": "AccessControlUnauthorizedAccount",
      "type": "error"
    },
    {
      "inputs": [],
      "name": "AlreadyFulfilled",
      "type": "error"
    },
    {
      "inputs": [
        {
          "internalType": "uint256",
          "name": "requested",
          "type": "uint256"
        },
        {
          "internalType": "uint256",
          "name": "limit",
          "type": "uint256"
        }
      ],
      "name": "BatchSizeExceeded",
      "type": "error"
    },
    {
      "inputs": [
        {
          "internalType": "address",
          "name": "caller",
          "type": "address"
        }
      ],
      "name": "CallerCooldownActive",
      "type": "error"
    },
    {
      "inputs": [
        {
          "internalType": "address",
          "name": "caller",
          "type": "address"
        },
        {
          "internalType": "uint256",
          "name": "count",
          "type": "uint256"
        },
        {
          "internalType": "uint256",
          "name": "limit",
          "type": "uint256"
        }
      ],
      "name": "DailyRequestLimitExceeded",
      "type": "error"
    },
    {
      "inputs": [
        {
          "internalType": "uint256",
          "name": "deadline",
          "type": "uint256"
        },
        {
          "internalType": "uint256",
          "name": "currentTime",
          "type": "uint256"
        }
      ],
      "name": "DeadlineExpired",
      "type": "error"
    },
    {
      "inputs": [],
      "name": "EmptyArgs",
      "type": "error"
    },
    {
      "inputs": [],
      "name": "EmptySecrets",
      "type": "error"
    },
    {
      "inputs": [],
      "name": "EmptySource",
      "type": "error"
    },
    {
      "inputs": [],
      "name": "EnforcedPause",
      "type": "error"
    },
    {
      "inputs": [],
      "name": "ExpectedPause",
      "type": "error"
    },
    {
      "inputs": [
        {
          "internalType": "address",
          "name": "caller",
          "type": "address"
        }
      ],
      "name": "FlashLoanDetected",
      "type": "error"
    },
    {
      "inputs": [
        {
          "internalType": "uint256",
          "name": "required",
          "type": "uint256"
        },
        {
          "internalType": "uint256",
          "name": "actual",
          "type": "uint256"
        }
      ],
      "name": "InsufficientConfirmations",
      "type": "error"
    },
    {
      "inputs": [],
      "name": "InvalidAddress",
      "type": "error"
    },
    {
      "inputs": [],
      "name": "InvalidRequestType",
      "type": "error"
    },
    {
      "inputs": [],
      "name": "InvalidRouter",
      "type": "error"
    },
    {
      "inputs": [],
      "name": "InvalidScore",
      "type": "error"
    },
    {
      "inputs": [
        {
          "internalType": "uint8",
          "name": "tier",
          "type": "uint8"
        }
      ],
      "name": "InvalidTier",
      "type": "error"
    },
    {
      "inputs": [],
      "name": "MaxDataSourcesExceeded",
      "type": "error"
    },
    {
      "inputs": [],
      "name": "NoInlineSecrets",
      "type": "error"
    },
    {
      "inputs": [],
      "name": "OnlyRouterCanFulfill",
      "type": "error"
    },
    {
      "inputs": [
        {
          "internalType": "address",
          "name": "oracle",
          "type": "address"
        }
      ],
      "name": "OracleNotAuthorized",
      "type": "error"
    },
    {
      "inputs": [],
      "name": "QueueFull",
      "type": "error"
    },
    {
      "inputs": [],
      "name": "RequestNotFound",
      "type": "error"
    },
    {
      "inputs": [
        {
          "internalType": "bytes32",
          "name": "sourceId",
          "type": "bytes32"
        }
      ],
      "name": "SourceNotActive",
      "type": "error"
    },
    {
      "inputs": [
        {
          "internalType": "address",
          "name": "account",
          "type": "address"
        }
      ],
      "name": "UpdateCooldownActive",
      "type": "error"
    },
    {
      "inputs": [
        {
          "internalType": "address",
          "name": "account",
          "type": "address"
        }
      ],
      "name": "UpdateTooSoon",
      "type": "error"
    },
    {
      "anonymous": false,
      "inputs": [
        {
          "indexed": false,
          "internalType": "uint256",
          "name": "count",
          "type": "uint256"
        },
        {
          "indexed": false,
          "internalType": "uint256",
          "name": "gasUsed",
          "type": "uint256"
        }
      ],
      "name": "BatchUpdateExecuted",
      "type": "event"
    },
    {
      "anonymous": false,
      "inputs": [
        {
          "indexed": true,
          "internalType": "address",
          "name": "account",
          "type": "address"
        }
      ],
      "name": "ConfirmationsReset",
      "type": "event"
    },
    {
      "anonymous": false,
      "inputs": [
        {
          "indexed": true,
          "internalType": "bytes32",
          "name": "sourceId",
          "type": "bytes32"
        },
        {
          "indexed": false,
          "internalType": "string",
          "name": "name",
          "type": "string"
        }
      ],
      "name": "DataSourceAdded",
      "type": "event"
    },
    {
      "anonymous": false,
      "inputs": [
        {
          "indexed": true,
          "internalType": "bytes32",
          "name": "sourceId",
          "type": "bytes32"
        },
        {
          "indexed": false,
          "internalType": "bool",
          "name": "isActive",
          "type": "bool"
        }
      ],
      "name": "DataSourceUpdated",
      "type": "event"
    },
    {
      "anonymous": false,
      "inputs": [
        {
          "indexed": true,
          "internalType": "bytes32",
          "name": "requestId",
          "type": "bytes32"
        }
      ],
      "name": "FulfillmentDeferred",
      "type": "event"
    },
    {
      "anonymous": false,
      "inputs": [
        {
          "indexed": false,
          "internalType": "uint32",
          "name": "oldVal",
          "type": "uint32"
        },
        {
          "indexed": false,
          "internalType": "uint32",
          "name": "newVal",
          "type": "uint32"
        }
      ],
      "name": "GasLimitUpdated",
      "type": "event"
    },
    {
      "anonymous": false,
      "inputs": [
        {
          "indexed": true,
          "internalType": "address",
          "name": "account",
          "type": "address"
        },
        {
          "indexed": false,
          "internalType": "bytes32",
          "name": "responseHash",
          "type": "bytes32"
        },
        {
          "indexed": false,
          "internalType": "uint256",
          "name": "confirmationCount",
          "type": "uint256"
        }
      ],
      "name": "MultiOracleUpdateConfirmed",
      "type": "event"
    },
    {
      "anonymous": false,
      "inputs": [
        {
          "indexed": true,
          "internalType": "address",
          "name": "oracle",
          "type": "address"
        }
      ],
      "name": "OracleAuthorized",
      "type": "event"
    },
    {
      "anonymous": false,
      "inputs": [
        {
          "indexed": true,
          "internalType": "address",
          "name": "oracle",
          "type": "address"
        },
        {
          "indexed": true,
          "internalType": "address",
          "name": "account",
          "type": "address"
        },
        {
          "indexed": false,
          "internalType": "bytes32",
          "name": "responseHash",
          "type": "bytes32"
        },
        {
          "indexed": false,
          "internalType": "uint256",
          "name": "confirmations",
          "type": "uint256"
        }
      ],
      "name": "OracleResponseReceived",
      "type": "event"
    },
    {
      "anonymous": false,
      "inputs": [
        {
          "indexed": true,
          "internalType": "address",
          "name": "oracle",
          "type": "address"
        },
        {
          "indexed": true,
          "internalType": "address",
          "name": "account",
          "type": "address"
        },
        {
          "indexed": false,
          "internalType": "bytes32",
          "name": "prevHash",
          "type": "bytes32"
        }
      ],
      "name": "OracleResponseRevoked",
      "type": "event"
    },
    {
      "anonymous": false,
      "inputs": [
        {
          "indexed": true,
          "internalType": "address",
          "name": "oracle",
          "type": "address"
        }
      ],
      "name": "OracleRevoked",
      "type": "event"
    },
    {
      "anonymous": false,
      "inputs": [
        {
          "indexed": true,
          "internalType": "address",
          "name": "previousOwner",
          "type": "address"
        },
        {
          "indexed": true,
          "internalType": "address",
          "name": "newOwner",
          "type": "address"
        }
      ],
      "name": "OwnershipRolesSynced",
      "type": "event"
    },
    {
      "anonymous": false,
      "inputs": [
        {
          "indexed": true,
          "internalType": "address",
          "name": "from",
          "type": "address"
        },
        {
          "indexed": true,
          "internalType": "address",
          "name": "to",
          "type": "address"
        }
      ],
      "name": "OwnershipTransferRequested",
      "type": "event"
    },
    {
      "anonymous": false,
      "inputs": [
        {
          "indexed": true,
          "internalType": "address",
          "name": "from",
          "type": "address"
        },
        {
          "indexed": true,
          "internalType": "address",
          "name": "to",
          "type": "address"
        }
      ],
      "name": "OwnershipTransferred",
      "type": "event"
    },
    {
      "anonymous": false,
      "inputs": [
        {
          "indexed": false,
          "internalType": "address",
          "name": "account",
          "type": "address"
        }
      ],
      "name": "Paused",
      "type": "event"
    },
    {
      "anonymous": false,
      "inputs": [
        {
          "indexed": true,
          "internalType": "address",
          "name": "account",
          "type": "address"
        },
        {
          "indexed": false,
          "internalType": "uint256",
          "name": "timestamp",
          "type": "uint256"
        }
      ],
      "name": "QueueDropped",
      "type": "event"
    },
    {
      "anonymous": false,
      "inputs": [
        {
          "indexed": true,
          "internalType": "address",
          "name": "account",
          "type": "address"
        },
        {
          "indexed": false,
          "internalType": "uint256",
          "name": "score",
          "type": "uint256"
        }
      ],
      "name": "QueuedRiskUpdate",
      "type": "event"
    },
    {
      "anonymous": false,
      "inputs": [
        {
          "indexed": true,
          "internalType": "bytes32",
          "name": "id",
          "type": "bytes32"
        }
      ],
      "name": "RequestFulfilled",
      "type": "event"
    },
    {
      "anonymous": false,
      "inputs": [
        {
          "indexed": true,
          "internalType": "bytes32",
          "name": "id",
          "type": "bytes32"
        }
      ],
      "name": "RequestSent",
      "type": "event"
    },
    {
      "anonymous": false,
      "inputs": [
        {
          "indexed": false,
          "internalType": "uint256",
          "name": "newVal",
          "type": "uint256"
        }
      ],
      "name": "RequiredConfirmationsAutoAdjusted",
      "type": "event"
    },
    {
      "anonymous": false,
      "inputs": [
        {
          "indexed": false,
          "internalType": "uint256",
          "name": "oldVal",
          "type": "uint256"
        },
        {
          "indexed": false,
          "internalType": "uint256",
          "name": "newVal",
          "type": "uint256"
        }
      ],
      "name": "RequiredConfirmationsUpdated",
      "type": "event"
    },
    {
      "anonymous": false,
      "inputs": [
        {
          "indexed": true,
          "internalType": "bytes32",
          "name": "requestId",
          "type": "bytes32"
        },
        {
          "indexed": true,
          "internalType": "address",
          "name": "account",
          "type": "address"
        },
        {
          "indexed": false,
          "internalType": "uint256",
          "name": "score",
          "type": "uint256"
        },
        {
          "indexed": false,
          "internalType": "uint8",
          "name": "tier",
          "type": "uint8"
        },
        {
          "indexed": false,
          "internalType": "bool",
          "name": "isSanctioned",
          "type": "bool"
        }
      ],
      "name": "RiskProfileUpdated",
      "type": "event"
    },
    {
      "anonymous": false,
      "inputs": [
        {
          "indexed": true,
          "internalType": "bytes32",
          "name": "requestId",
          "type": "bytes32"
        },
        {
          "indexed": false,
          "internalType": "bool",
          "name": "success",
          "type": "bool"
        },
        {
          "indexed": false,
          "internalType": "uint256",
          "name": "processedAt",
          "type": "uint256"
        }
      ],
      "name": "RiskUpdateFulfilled",
      "type": "event"
    },
    {
      "anonymous": false,
      "inputs": [
        {
          "indexed": true,
          "internalType": "bytes32",
          "name": "requestId",
          "type": "bytes32"
        },
        {
          "indexed": false,
          "internalType": "enum RiskOracle.RequestType",
          "name": "requestType",
          "type": "uint8"
        },
        {
          "indexed": true,
          "internalType": "address",
          "name": "requester",
          "type": "address"
        },
        {
          "indexed": false,
          "internalType": "string",
          "name": "source",
          "type": "string"
        }
      ],
      "name": "RiskUpdateRequested",
      "type": "event"
    },
    {
      "anonymous": false,
      "inputs": [
        {
          "indexed": true,
          "internalType": "bytes32",
          "name": "role",
          "type": "bytes32"
        },
        {
          "indexed": true,
          "internalType": "bytes32",
          "name": "previousAdminRole",
          "type": "bytes32"
        },
        {
          "indexed": true,
          "internalType": "bytes32",
          "name": "newAdminRole",
          "type": "bytes32"
        }
      ],
      "name": "RoleAdminChanged",
      "type": "event"
    },
    {
      "anonymous": false,
      "inputs": [
        {
          "indexed": true,
          "internalType": "bytes32",
          "name": "role",
          "type": "bytes32"
        },
        {
          "indexed": true,
          "internalType": "address",
          "name": "account",
          "type": "address"
        },
        {
          "indexed": true,
          "internalType": "address",
          "name": "sender",
          "type": "address"
        }
      ],
      "name": "RoleGranted",
      "type": "event"
    },
    {
      "anonymous": false,
      "inputs": [
        {
          "indexed": true,
          "internalType": "bytes32",
          "name": "role",
          "type": "bytes32"
        },
        {
          "indexed": true,
          "internalType": "address",
          "name": "account",
          "type": "address"
        },
        {
          "indexed": true,
          "internalType": "address",
          "name": "sender",
          "type": "address"
        }
      ],
      "name": "RoleRevoked",
      "type": "event"
    },
    {
      "anonymous": false,
      "inputs": [
        {
          "indexed": true,
          "internalType": "address",
          "name": "contractAddr",
          "type": "address"
        },
        {
          "indexed": false,
          "internalType": "bool",
          "name": "whitelisted",
          "type": "bool"
        }
      ],
      "name": "SmartContractWhitelisted",
      "type": "event"
    },
    {
      "anonymous": false,
      "inputs": [
        {
          "indexed": false,
          "internalType": "uint64",
          "name": "oldVal",
          "type": "uint64"
        },
        {
          "indexed": false,
          "internalType": "uint64",
          "name": "newVal",
          "type": "uint64"
        }
      ],
      "name": "SubscriptionIdUpdated",
      "type": "event"
    },
    {
      "anonymous": false,
      "inputs": [
        {
          "indexed": false,
          "internalType": "address",
          "name": "account",
          "type": "address"
        }
      ],
      "name": "Unpaused",
      "type": "event"
    },
    {
      "inputs": [],
      "name": "ADMIN_ROLE",
      "outputs": [
        {
          "internalType": "bytes32",
          "name": "",
          "type": "bytes32"
        }
      ],
      "stateMutability": "view",
      "type": "function"
    },
    {
      "inputs": [],
      "name": "DEFAULT_ADMIN_ROLE",
      "outputs": [
        {
          "internalType": "bytes32",
          "name": "",
          "type": "bytes32"
        }
      ],
      "stateMutability": "view",
      "type": "function"
    },
    {
      "inputs": [],
      "name": "MAX_ALL_REQUEST_IDS",
      "outputs": [
        {
          "internalType": "uint256",
          "name": "",
          "type": "uint256"
        }
      ],
      "stateMutability": "view",
      "type": "function"
    },
    {
      "inputs": [],
      "name": "MAX_DATA_SOURCES",
      "outputs": [
        {
          "internalType": "uint256",
          "name": "",
          "type": "uint256"
        }
      ],
      "stateMutability": "view",
      "type": "function"
    },
    {
      "inputs": [],
      "name": "MAX_FULFILLMENT_HISTORY",
      "outputs": [
        {
          "internalType": "uint256",
          "name": "",
          "type": "uint256"
        }
      ],
      "stateMutability": "view",
      "type": "function"
    },
    {
      "inputs": [],
      "name": "OPERATOR_ROLE",
      "outputs": [
        {
          "internalType": "bytes32",
          "name": "",
          "type": "bytes32"
        }
      ],
      "stateMutability": "view",
      "type": "function"
    },
    {
      "inputs": [],
      "name": "ORACLE_ROLE",
      "outputs": [
        {
          "internalType": "bytes32",
          "name": "",
          "type": "bytes32"
        }
      ],
      "stateMutability": "view",
      "type": "function"
    },
    {
      "inputs": [],
      "name": "UPDATE_DELAY_BLOCKS",
      "outputs": [
        {
          "internalType": "uint256",
          "name": "",
          "type": "uint256"
        }
      ],
      "stateMutability": "view",
      "type": "function"
    },
    {
      "inputs": [],
      "name": "VERSION",
      "outputs": [
        {
          "internalType": "string",
          "name": "",
          "type": "string"
        }
      ],
      "stateMutability": "view",
      "type": "function"
    },
    {
      "inputs": [
        {
          "internalType": "bytes",
          "name": "data",
          "type": "bytes"
        }
      ],
      "name": "_decodeAddressesExternal",
      "outputs": [
        {
          "internalType": "address[]",
          "name": "",
          "type": "address[]"
        }
      ],
      "stateMutability": "pure",
      "type": "function"
    },
    {
      "inputs": [],
      "name": "acceptOwnership",
      "outputs": [],
      "stateMutability": "nonpayable",
      "type": "function"
    },
    {
      "inputs": [
        {
          "internalType": "uint256",
          "name": "",
          "type": "uint256"
        }
      ],
      "name": "activeSourceIds",
      "outputs": [
        {
          "internalType": "bytes32",
          "name": "",
          "type": "bytes32"
        }
      ],
      "stateMutability": "view",
      "type": "function"
    },
    {
      "inputs": [
        {
          "internalType": "address",
          "name": "oracle",
          "type": "address"
        }
      ],
      "name": "addAuthorizedOracle",
      "outputs": [],
      "stateMutability": "nonpayable",
      "type": "function"
    },
    {
      "inputs": [
        {
          "internalType": "bytes32",
          "name": "sourceId",
          "type": "bytes32"
        },
        {
          "internalType": "string",
          "name": "name",
          "type": "string"
        },
        {
          "internalType": "string",
          "name": "apiEndpoint",
          "type": "string"
        },
        {
          "internalType": "uint256",
          "name": "weight",
          "type": "uint256"
        }
      ],
      "name": "addDataSource",
      "outputs": [],
      "stateMutability": "nonpayable",
      "type": "function"
    },
    {
      "inputs": [
        {
          "internalType": "address",
          "name": "",
          "type": "address"
        },
        {
          "internalType": "uint256",
          "name": "",
          "type": "uint256"
        }
      ],
      "name": "addressRequestHistory",
      "outputs": [
        {
          "internalType": "bytes32",
          "name": "",
          "type": "bytes32"
        }
      ],
      "stateMutability": "view",
      "type": "function"
    },
    {
      "inputs": [
        {
          "internalType": "uint256",
          "name": "",
          "type": "uint256"
        }
      ],
      "name": "allRequestIds",
      "outputs": [
        {
          "internalType": "bytes32",
          "name": "",
          "type": "bytes32"
        }
      ],
      "stateMutability": "view",
      "type": "function"
    },
    {
      "inputs": [
        {
          "internalType": "address",
          "name": "",
          "type": "address"
        }
      ],
      "name": "authorizedOracles",
      "outputs": [
        {
          "internalType": "bool",
          "name": "",
          "type": "bool"
        }
      ],
      "stateMutability": "view",
      "type": "function"
    },
    {
      "inputs": [],
      "name": "batchSize",
      "outputs": [
        {
          "internalType": "uint256",
          "name": "",
          "type": "uint256"
        }
      ],
      "stateMutability": "view",
      "type": "function"
    },
    {
      "inputs": [],
      "name": "callerCooldown",
      "outputs": [
        {
          "internalType": "uint256",
          "name": "",
          "type": "uint256"
        }
      ],
      "stateMutability": "view",
      "type": "function"
    },
    {
      "inputs": [
        {
          "internalType": "address",
          "name": "",
          "type": "address"
        }
      ],
      "name": "confirmedUpdates",
      "outputs": [
        {
          "internalType": "bool",
          "name": "",
          "type": "bool"
        }
      ],
      "stateMutability": "view",
      "type": "function"
    },
    {
      "inputs": [
        {
          "internalType": "address",
          "name": "",
          "type": "address"
        }
      ],
      "name": "dailyRequestCount",
      "outputs": [
        {
          "internalType": "uint256",
          "name": "",
          "type": "uint256"
        }
      ],
      "stateMutability": "view",
      "type": "function"
    },
    {
      "inputs": [
        {
          "internalType": "address",
          "name": "",
          "type": "address"
        }
      ],
      "name": "dailyRequestReset",
      "outputs": [
        {
          "internalType": "uint256",
          "name": "",
          "type": "uint256"
        }
      ],
      "stateMutability": "view",
      "type": "function"
    },
    {
      "inputs": [
        {
          "internalType": "bytes32",
          "name": "",
          "type": "bytes32"
        }
      ],
      "name": "dataSources",
      "outputs": [
        {
          "internalType": "string",
          "name": "name",
          "type": "string"
        },
        {
          "internalType": "string",
          "name": "apiEndpoint",
          "type": "string"
        },
        {
          "internalType": "bool",
          "name": "isActive",
          "type": "bool"
        },
        {
          "internalType": "uint256",
          "name": "weight",
          "type": "uint256"
        },
        {
          "internalType": "bytes32",
          "name": "secretsSlot",
          "type": "bytes32"
        },
        {
          "internalType": "uint64",
          "name": "secretsVersion",
          "type": "uint64"
        }
      ],
      "stateMutability": "view",
      "type": "function"
    },
    {
      "inputs": [],
      "name": "donId",
      "outputs": [
        {
          "internalType": "bytes32",
          "name": "",
          "type": "bytes32"
        }
      ],
      "stateMutability": "view",
      "type": "function"
    },
    {
      "inputs": [],
      "name": "encryptedSecretsUrls",
      "outputs": [
        {
          "internalType": "bytes",
          "name": "",
          "type": "bytes"
        }
      ],
      "stateMutability": "view",
      "type": "function"
    },
    {
      "inputs": [
        {
          "internalType": "uint256",
          "name": "",
          "type": "uint256"
        }
      ],
      "name": "fulfillmentHistory",
      "outputs": [
        {
          "internalType": "bytes32",
          "name": "requestId",
          "type": "bytes32"
        },
        {
          "internalType": "address",
          "name": "targetAddress",
          "type": "address"
        },
        {
          "internalType": "uint256",
          "name": "riskScore",
          "type": "uint256"
        },
        {
          "internalType": "uint8",
          "name": "tier",
          "type": "uint8"
        },
        {
          "internalType": "bool",
          "name": "isSanctioned",
          "type": "bool"
        },
        {
          "internalType": "uint256",
          "name": "fulfilledAt",
          "type": "uint256"
        }
      ],
      "stateMutability": "view",
      "type": "function"
    },
    {
      "inputs": [],
      "name": "gasLimit",
      "outputs": [
        {
          "internalType": "uint32",
          "name": "",
          "type": "uint32"
        }
      ],
      "stateMutability": "view",
      "type": "function"
    },
    {
      "inputs": [],
      "name": "getActiveSources",
      "outputs": [
        {
          "internalType": "bytes32[]",
          "name": "",
          "type": "bytes32[]"
        }
      ],
      "stateMutability": "view",
      "type": "function"
    },
    {
      "inputs": [],
      "name": "getAllRequestIdsLength",
      "outputs": [
        {
          "internalType": "uint256",
          "name": "",
          "type": "uint256"
        }
      ],
      "stateMutability": "view",
      "type": "function"
    },
    {
      "inputs": [
        {
          "internalType": "address",
          "name": "account",
          "type": "address"
        },
        {
          "internalType": "bytes32",
          "name": "responseHash",
          "type": "bytes32"
        }
      ],
      "name": "getConfirmationCount",
      "outputs": [
        {
          "internalType": "uint256",
          "name": "",
          "type": "uint256"
        }
      ],
      "stateMutability": "view",
      "type": "function"
    },
    {
      "inputs": [],
      "name": "getFulfillmentHistoryLength",
      "outputs": [
        {
          "internalType": "uint256",
          "name": "",
          "type": "uint256"
        }
      ],
      "stateMutability": "view",
      "type": "function"
    },
    {
      "inputs": [],
      "name": "getOracleList",
      "outputs": [
        {
          "internalType": "address[]",
          "name": "",
          "type": "address[]"
        }
      ],
      "stateMutability": "view",
      "type": "function"
    },
    {
      "inputs": [
        {
          "internalType": "address",
          "name": "account",
          "type": "address"
        },
        {
          "internalType": "address",
          "name": "oracle",
          "type": "address"
        }
      ],
      "name": "getOracleResponse",
      "outputs": [
        {
          "internalType": "bytes32",
          "name": "",
          "type": "bytes32"
        }
      ],
      "stateMutability": "view",
      "type": "function"
    },
    {
      "inputs": [],
      "name": "getPendingQueueLength",
      "outputs": [
        {
          "internalType": "uint256",
          "name": "",
          "type": "uint256"
        }
      ],
      "stateMutability": "view",
      "type": "function"
    },
    {
      "inputs": [
        {
          "internalType": "bytes32",
          "name": "role",
          "type": "bytes32"
        }
      ],
      "name": "getRoleAdmin",
      "outputs": [
        {
          "internalType": "bytes32",
          "name": "",
          "type": "bytes32"
        }
      ],
      "stateMutability": "view",
      "type": "function"
    },
    {
      "inputs": [
        {
          "internalType": "bytes32",
          "name": "role",
          "type": "bytes32"
        },
        {
          "internalType": "address",
          "name": "account",
          "type": "address"
        }
      ],
      "name": "grantRole",
      "outputs": [],
      "stateMutability": "nonpayable",
      "type": "function"
    },
    {
      "inputs": [
        {
          "internalType": "bytes32",
          "name": "requestId",
          "type": "bytes32"
        },
        {
          "internalType": "bytes",
          "name": "response",
          "type": "bytes"
        },
        {
          "internalType": "bytes",
          "name": "err",
          "type": "bytes"
        }
      ],
      "name": "handleOracleFulfillment",
      "outputs": [],
      "stateMutability": "nonpayable",
      "type": "function"
    },
    {
      "inputs": [
        {
          "internalType": "bytes32",
          "name": "role",
          "type": "bytes32"
        },
        {
          "internalType": "address",
          "name": "account",
          "type": "address"
        }
      ],
      "name": "hasRole",
      "outputs": [
        {
          "internalType": "bool",
          "name": "",
          "type": "bool"
        }
      ],
      "stateMutability": "view",
      "type": "function"
    },
    {
      "inputs": [
        {
          "internalType": "address",
          "name": "",
          "type": "address"
        }
      ],
      "name": "lastCallerTime",
      "outputs": [
        {
          "internalType": "uint256",
          "name": "",
          "type": "uint256"
        }
      ],
      "stateMutability": "view",
      "type": "function"
    },
    {
      "inputs": [],
      "name": "lastRequestId",
      "outputs": [
        {
          "internalType": "bytes32",
          "name": "",
          "type": "bytes32"
        }
      ],
      "stateMutability": "view",
      "type": "function"
    },
    {
      "inputs": [
        {
          "internalType": "address",
          "name": "",
          "type": "address"
        }
      ],
      "name": "lastUpdateBlock",
      "outputs": [
        {
          "internalType": "uint256",
          "name": "",
          "type": "uint256"
        }
      ],
      "stateMutability": "view",
      "type": "function"
    },
    {
      "inputs": [
        {
          "internalType": "address",
          "name": "",
          "type": "address"
        }
      ],
      "name": "lastUpdateTime",
      "outputs": [
        {
          "internalType": "uint256",
          "name": "",
          "type": "uint256"
        }
      ],
      "stateMutability": "view",
      "type": "function"
    },
    {
      "inputs": [],
      "name": "maxBatchUpdateSize",
      "outputs": [
        {
          "internalType": "uint256",
          "name": "",
          "type": "uint256"
        }
      ],
      "stateMutability": "view",
      "type": "function"
    },
    {
      "inputs": [],
      "name": "maxDailyRequestsPerCaller",
      "outputs": [
        {
          "internalType": "uint256",
          "name": "",
          "type": "uint256"
        }
      ],
      "stateMutability": "view",
      "type": "function"
    },
    {
      "inputs": [],
      "name": "maxQueueSize",
      "outputs": [
        {
          "internalType": "uint256",
          "name": "",
          "type": "uint256"
        }
      ],
      "stateMutability": "view",
      "type": "function"
    },
    {
      "inputs": [
        {
          "internalType": "uint256",
          "name": "",
          "type": "uint256"
        }
      ],
      "name": "oracleList",
      "outputs": [
        {
          "internalType": "address",
          "name": "",
          "type": "address"
        }
      ],
      "stateMutability": "view",
      "type": "function"
    },
    {
      "inputs": [
        {
          "internalType": "address",
          "name": "",
          "type": "address"
        },
        {
          "internalType": "address",
          "name": "",
          "type": "address"
        }
      ],
      "name": "oracleResponses",
      "outputs": [
        {
          "internalType": "bytes32",
          "name": "",
          "type": "bytes32"
        }
      ],
      "stateMutability": "view",
      "type": "function"
    },
    {
      "inputs": [],
      "name": "owner",
      "outputs": [
        {
          "internalType": "address",
          "name": "",
          "type": "address"
        }
      ],
      "stateMutability": "view",
      "type": "function"
    },
    {
      "inputs": [],
      "name": "pause",
      "outputs": [],
      "stateMutability": "nonpayable",
      "type": "function"
    },
    {
      "inputs": [],
      "name": "paused",
      "outputs": [
        {
          "internalType": "bool",
          "name": "",
          "type": "bool"
        }
      ],
      "stateMutability": "view",
      "type": "function"
    },
    {
      "inputs": [
        {
          "internalType": "uint256",
          "name": "",
          "type": "uint256"
        }
      ],
      "name": "pendingRiskQueue",
      "outputs": [
        {
          "internalType": "address",
          "name": "account",
          "type": "address"
        },
        {
          "internalType": "uint256",
          "name": "score",
          "type": "uint256"
        },
        {
          "internalType": "uint8",
          "name": "tier",
          "type": "uint8"
        },
        {
          "internalType": "bool",
          "name": "isSanctioned",
          "type": "bool"
        },
        {
          "internalType": "uint256",
          "name": "queuedAt",
          "type": "uint256"
        }
      ],
      "stateMutability": "view",
      "type": "function"
    },
    {
      "inputs": [],
      "name": "processPendingQueue",
      "outputs": [],
      "stateMutability": "nonpayable",
      "type": "function"
    },
    {
      "inputs": [
        {
          "internalType": "address",
          "name": "oracle",
          "type": "address"
        }
      ],
      "name": "removeAuthorizedOracle",
      "outputs": [],
      "stateMutability": "nonpayable",
      "type": "function"
    },
    {
      "inputs": [
        {
          "internalType": "bytes32",
          "name": "role",
          "type": "bytes32"
        },
        {
          "internalType": "address",
          "name": "callerConfirmation",
          "type": "address"
        }
      ],
      "name": "renounceRole",
      "outputs": [],
      "stateMutability": "nonpayable",
      "type": "function"
    },
    {
      "inputs": [],
      "name": "requestCount",
      "outputs": [
        {
          "internalType": "uint256",
          "name": "",
          "type": "uint256"
        }
      ],
      "stateMutability": "view",
      "type": "function"
    },
    {
      "inputs": [
        {
          "internalType": "bytes32",
          "name": "",
          "type": "bytes32"
        }
      ],
      "name": "requestInfo",
      "outputs": [
        {
          "internalType": "bytes32",
          "name": "requestId",
          "type": "bytes32"
        },
        {
          "internalType": "enum RiskOracle.RequestType",
          "name": "requestType",
          "type": "uint8"
        },
        {
          "internalType": "address",
          "name": "requester",
          "type": "address"
        },
        {
          "internalType": "uint256",
          "name": "timestamp",
          "type": "uint256"
        },
        {
          "internalType": "bool",
          "name": "fulfilled",
          "type": "bool"
        },
        {
          "internalType": "bool",
          "name": "success",
          "type": "bool"
        },
        {
          "internalType": "bool",
          "name": "deferred",
          "type": "bool"
        },
        {
          "internalType": "bytes",
          "name": "result",
          "type": "bytes"
        },
        {
          "internalType": "bytes",
          "name": "error",
          "type": "bytes"
        }
      ],
      "stateMutability": "view",
      "type": "function"
    },
    {
      "inputs": [
        {
          "internalType": "enum RiskOracle.RequestType",
          "name": "reqType",
          "type": "uint8"
        },
        {
          "internalType": "string",
          "name": "source",
          "type": "string"
        },
        {
          "internalType": "uint64",
          "name": "subscription",
          "type": "uint64"
        },
        {
          "internalType": "uint32",
          "name": "gasLimitForRequest",
          "type": "uint32"
        },
        {
          "internalType": "bytes",
          "name": "encryptedSecretsRef",
          "type": "bytes"
        }
      ],
      "name": "requestRiskUpdate",
      "outputs": [
        {
          "internalType": "bytes32",
          "name": "requestId",
          "type": "bytes32"
        }
      ],
      "stateMutability": "nonpayable",
      "type": "function"
    },
    {
      "inputs": [],
      "name": "requiredOracleConfirmations",
      "outputs": [
        {
          "internalType": "uint256",
          "name": "",
          "type": "uint256"
        }
      ],
      "stateMutability": "view",
      "type": "function"
    },
    {
      "inputs": [
        {
          "internalType": "address",
          "name": "account",
          "type": "address"
        }
      ],
      "name": "resetConfirmations",
      "outputs": [],
      "stateMutability": "nonpayable",
      "type": "function"
    },
    {
      "inputs": [
        {
          "internalType": "address",
          "name": "",
          "type": "address"
        },
        {
          "internalType": "bytes32",
          "name": "",
          "type": "bytes32"
        }
      ],
      "name": "responseConfirmations",
      "outputs": [
        {
          "internalType": "uint256",
          "name": "",
          "type": "uint256"
        }
      ],
      "stateMutability": "view",
      "type": "function"
    },
    {
      "inputs": [
        {
          "internalType": "bytes32",
          "name": "role",
          "type": "bytes32"
        },
        {
          "internalType": "address",
          "name": "account",
          "type": "address"
        }
      ],
      "name": "revokeRole",
      "outputs": [],
      "stateMutability": "nonpayable",
      "type": "function"
    },
    {
      "inputs": [],
      "name": "riskRegistry",
      "outputs": [
        {
          "internalType": "contract RiskRegistry",
          "name": "",
          "type": "address"
        }
      ],
      "stateMutability": "view",
      "type": "function"
    },
    {
      "inputs": [
        {
          "internalType": "uint32",
          "name": "_gasLimit",
          "type": "uint32"
        }
      ],
      "name": "setGasLimit",
      "outputs": [],
      "stateMutability": "nonpayable",
      "type": "function"
    },
    {
      "inputs": [
        {
          "internalType": "uint256",
          "name": "confirmations",
          "type": "uint256"
        }
      ],
      "name": "setRequiredConfirmations",
      "outputs": [],
      "stateMutability": "nonpayable",
      "type": "function"
    },
    {
      "inputs": [
        {
          "internalType": "address",
          "name": "contractAddr",
          "type": "address"
        },
        {
          "internalType": "bool",
          "name": "whitelisted",
          "type": "bool"
        }
      ],
      "name": "setSmartContractWhitelist",
      "outputs": [],
      "stateMutability": "nonpayable",
      "type": "function"
    },
    {
      "inputs": [
        {
          "internalType": "uint64",
          "name": "_subscriptionId",
          "type": "uint64"
        }
      ],
      "name": "setSubscriptionId",
      "outputs": [],
      "stateMutability": "nonpayable",
      "type": "function"
    },
    {
      "inputs": [
        {
          "internalType": "address",
          "name": "",
          "type": "address"
        }
      ],
      "name": "smartContractWhitelist",
      "outputs": [
        {
          "internalType": "bool",
          "name": "",
          "type": "bool"
        }
      ],
      "stateMutability": "view",
      "type": "function"
    },
    {
      "inputs": [
        {
          "internalType": "address",
          "name": "account",
          "type": "address"
        },
        {
          "internalType": "uint8",
          "name": "score",
          "type": "uint8"
        },
        {
          "internalType": "uint8",
          "name": "tier",
          "type": "uint8"
        },
        {
          "internalType": "bool",
          "name": "isSanctioned",
          "type": "bool"
        },
        {
          "internalType": "uint256",
          "name": "deadline",
          "type": "uint256"
        }
      ],
      "name": "submitOracleResponse",
      "outputs": [],
      "stateMutability": "nonpayable",
      "type": "function"
    },
    {
      "inputs": [],
      "name": "subscriptionId",
      "outputs": [
        {
          "internalType": "uint64",
          "name": "",
          "type": "uint64"
        }
      ],
      "stateMutability": "view",
      "type": "function"
    },
    {
      "inputs": [
        {
          "internalType": "bytes4",
          "name": "interfaceId",
          "type": "bytes4"
        }
      ],
      "name": "supportsInterface",
      "outputs": [
        {
          "internalType": "bool",
          "name": "",
          "type": "bool"
        }
      ],
      "stateMutability": "view",
      "type": "function"
    },
    {
      "inputs": [
        {
          "internalType": "address",
          "name": "previousOwner",
          "type": "address"
        }
      ],
      "name": "syncOwnerRoles",
      "outputs": [],
      "stateMutability": "nonpayable",
      "type": "function"
    },
    {
      "inputs": [
        {
          "internalType": "address",
          "name": "to",
          "type": "address"
        }
      ],
      "name": "transferOwnership",
      "outputs": [],
      "stateMutability": "nonpayable",
      "type": "function"
    },
    {
      "inputs": [],
      "name": "unpause",
      "outputs": [],
      "stateMutability": "nonpayable",
      "type": "function"
    },
    {
      "inputs": [],
      "name": "updateCooldown",
      "outputs": [
        {
          "internalType": "uint256",
          "name": "",
          "type": "uint256"
        }
      ],
      "stateMutability": "view",
      "type": "function"
    },
    {
      "inputs": [
        {
          "internalType": "bytes32",
          "name": "sourceId",
          "type": "bytes32"
        },
        {
          "internalType": "bool",
          "name": "isActive",
          "type": "bool"
        }
      ],
      "name": "updateDataSource",
      "outputs": [],
      "stateMutability": "nonpayable",
      "type": "function"
    }
  ],
  "bytecode": "0x60a06040523461003e5761001d61001461012b565b92919091610355565b604051615c856107378239608051818181611c710152614c1f0152615c8590f35b5f80fd5b634e487b7160e01b5f52604160045260245ffd5b90601f01601f191681019081106001600160401b0382111761007757604052565b610042565b9061009061008960405190565b9283610056565b565b6001600160a01b031690565b90565b6001600160a01b0381165b0361003e57565b90505190610090826100a1565b806100ac565b90505190610090826100c0565b6001600160401b0381166100ac565b90505190610090826100d3565b60808183031261003e5761010382826100b3565b9261009e61011484602085016100c6565b93606061012482604087016100e2565b94016100b3565b6101496163bc8038038061013e8161007c565b9283398101906100ef565b90919293565b9063ffffffff905b9181191691161790565b61016e61009e61009e9290565b63ffffffff1690565b9061018761009e61018e92610161565b825461014f565b9055565b905f1990610157565b61009e61009e61009e9290565b906101b861009e61018e9261019b565b8254610192565b61009261009e61009e9290565b61009e906101bf565b906101b861009e61018e9290565b906bffffffffffffffff000000009060201b610157565b61009e9061020e906001600160401b031682565b6001600160401b031690565b9061022a61009e61018e926101fa565b82546101e3565b61009e90610092906001600160a01b031682565b61009e90610231565b61009e90610245565b906001600160a01b0390610157565b9061027661009e61018e9261024e565b8254610257565b61009e5f61019b565b906102909061024e565b5f5260205260405f2090565b9060ff90610157565b906102b561009e61018e92151590565b825461029c565b634e487b7160e01b5f52603260045260245ffd5b80548210156102f0576102e86001915f5260205f2090565b910201905f90565b6102bc565b916001600160a01b0360089290920291821b911b610157565b919061031f61009e61018e9361024e565b9083546102f5565b9081549168010000000000000000831015610077578261034f916001610090950181556102d0565b9061030e565b92909261036281336104f5565b610370620493e06005610177565b61037c6064600d6101a8565b610388600a600e6101a8565b610394600160136101a8565b6103a1610e10601c6101a8565b6103ae61012c601e6101a8565b6103ba6064601f6101a8565b6103c6603260206101a8565b6103cf5f6101cc565b906001600160a01b038083169116146104e4576001600160a01b03166001600160a01b038216146104d35761041661041b9261040f6104229560046101d5565b600561021a565b61024e565b6019610266565b61043461042d61027d565b33906105d2565b5061045e7fa49807205ce4d355092ef5a8a18f56e8913cf4a201fbe287825b095693c2177561042d565b506104887f97667070c54ef182b0f5858b034beac1b6f3089aa2d3188bb1e8929f4fa9b92961042d565b506104b27f68e79a7bf1e0bc45d0a330c573bc367f9cf464fd326078812f301165fbda4ef161042d565b506104c860016104c3336011610286565b6102a5565b610090336012610327565b63e6c4247b60e01b5f908152600490fd5b63466d7fef60e01b5f908152600490fd5b610090918291829182918291829182919061050f5f6101cc565b90610561565b1561051c57565b60405162461bcd60e51b815260206004820152601860248201527f43616e6e6f7420736574206f776e657220746f207a65726f00000000000000006044820152606490fd5b61056e61059f92936105ba565b61009261057a5f6101cc565b916105996001600160a01b0384166001600160a01b0383161415610515565b5f610266565b6001600160a01b038216036105b15750565b610090906106b5565b610090906105c79061024e565b608052565b90610290565b6105e36105df8383610714565b1590565b156106505761060360016104c3845f6105fd8660026105cc565b01610286565b61061d610617610611339390565b9361024e565b9161024e565b917f2f8788117e7eff1d82e926ec794901d17c78024a50270940304540a733656f0d61064860405190565b5f90a4600190565b50505f90565b1561065d57565b60405162461bcd60e51b815260206004820152601760248201527f43616e6e6f74207472616e7366657220746f2073656c660000000000000000006044820152606490fd5b61009e90610092565b61009e90546106a2565b6106ca336001600160a01b0383161415610656565b6106d5816001610266565b6106e46106176104165f6106ab565b907fed8889f560326eb138920d842192f0eb3dd22b4f139c87a2c57538e05bae127861070f60405190565b5f90a3565b61009e915f6105fd61072f936107275f90565b5060026105cc565b5460ff169056fe60806040526004361015610011575f80fd5b5f3560e01c806301d476ae146104bb57806301ffc9a7146104b657806307e2cea5146104b157806309014d1f146104ac57806309c1ba2e146104a75780630c872e9f146104a25780630ca761751461049d578063126e1ba71461049857806313efb55f146104935780631c3f5b9e1461048e5780631c7d629f14610489578063239aad0d14610484578063248a9ca31461047f578063270429531461047a5780632ce9aead146104755780632f2ff15d1461047057806332a8aa671461046b578063361e4d281461046657806336568abe1461046157806339e57ae01461045c5780633a93b271146104575780633eeaa692146104525780633f4ba83a1461044d578063456654c7146104485780634ff16d5f14610443578063510c27ad1461043e578063512aa2321461043957806352d84c6214610434578063567a87741461042f578063599bdc4e1461042a57806359f34930146104255780635badbe4c146104205780635c975abb1461041b578063615aac0b14610416578063618dca0a1461041157806361c992a31461040c57806364c527771461040757806369cde6a6146104025780636dd7d517146103fd57806371af25ea146103f857806375b238fc146103f357806377b8e2dd146103ee57806379ba5097146103e95780637b7c343d146103e457806380c85dfa146103df5780638456cb59146103da57806388205b57146103d55780638da5cb5b146103d05780638dbe7b9d146103cb57806391d14854146103c657806392551c6a146103c1578063968e5a0d146103bc5780639896db53146103a35780639faffb7d146103b7578063a217fddf146103b2578063a37202a8146103ad578063a7fccd73146103a8578063bdbff711146103a3578063c3944f3c1461039e578063c6aef0bd14610399578063cee3487514610394578063cff375e81461038f578063d442e25e1461038a578063d547741f14610385578063da279f6014610380578063dab79c401461037b578063dcb4c21014610376578063ea7b4f7714610371578063f2fde38b1461036c578063f4daaba114610367578063f5b541a614610362578063f68016b71461035d578063f7d9cc1e14610358578063fc2a88c3146103535763ffa1ad74036104c057611c13565b611bb3565b611b8d565b611b50565b611aef565b611ad4565b611ab1565b611a99565b611a6a565b611a34565b6119d4565b6119bb565b6119a3565b611988565b611962565b611937565b611904565b611730565b6118da565b61185b565b611840565b6117fb565b611702565b6116c3565b611659565b61163e565b611618565b611600565b6115e8565b6115cc565b6115b4565b61159c565b61157a565b6114af565b611493565b61141d565b6113f2565b6113bb565b611395565b611350565b611303565b611219565b6111fe565b6111d7565b6111bf565b6111a4565b61117a565b611135565b61111a565b6110ff565b6110d8565b6110a8565b61108d565b61104e565b610ee4565b610eb3565b610e7c565b610ba5565b610b7d565b610b3f565b610b17565b610ac4565b610a8f565b610a41565b610a1a565b6109b6565b6108d4565b610897565b610766565b610722565b6106da565b61060b565b6105d3565b610572565b5f80fd5b6001600160a01b031690565b90565b6001600160a01b0381165b036104c057565b905035906104f2826104d3565b565b906020828203126104c0576104d0916104e5565b6104d0906104c4906001600160a01b031682565b6104d090610508565b6104d09061051c565b9061053890610525565b5f5260205260405f2090565b6104d0916008021c81565b906104d09154610544565b5f6105696104d092602361052e565b61054f565b9052565b346104c05761059e61058d6105883660046104f4565b61055a565b6040515b9182918290815260200190565b0390f35b6001600160e01b031981166104de565b905035906104f2826105a2565b906020828203126104c0576104d0916105b2565b346104c05761059e6105ee6105e93660046105bf565b611c2e565b6040515b91829182901515815260200190565b5f9103126104c057565b346104c05761061b366004610601565b61059e7f68e79a7bf1e0bc45d0a330c573bc367f9cf464fd326078812f301165fbda4ef161058d565b806104de565b905035906104f282610644565b91906040838203126104c0576104d090602061067382866104e5565b940161064a565b634e487b7160e01b5f52603260045260245ffd5b80548210156106ae576106a66001915f5260205f2090565b910201905f90565b61067a565b6106be90600b61052e565b80548210156104c0576104d0916106d49161068e565b9061054f565b346104c05761059e61058d6106f0366004610657565b906106b3565b6104d0916008021c5b6001600160401b031690565b906104d091546106f6565b6104d06004600561070b565b346104c057610732366004610601565b61059e61073d610716565b604051918291826001600160401b03909116815260200190565b5f6105696104d092602161052e565b346104c05761059e61058d61077c3660046104f4565b610757565b634e487b7160e01b5f52604160045260245ffd5b90601f01601f191681019081106001600160401b038211176107b657604052565b610781565b906104f26107c860405190565b9283610795565b6001600160401b0381116107b657602090601f01601f19160190565b0190565b90825f939282370152565b9092919261080f61080a826107cf565b6107bb565b93818552818301116104c0576104f29160208501906107ef565b9080601f830112156104c0578160206104d0933591016107fa565b916060838303126104c057610859828461064a565b9260208101356001600160401b0381116104c05783610879918301610829565b9260408201356001600160401b0381116104c0576104d09201610829565b346104c0576108b06108aa366004610844565b91611c68565b604051005b6104d06104d06104d09290565b6104d060016108b5565b6104d06108c2565b346104c0576108e4366004610601565b61059e61058d6108cc565b909182601f830112156104c0578135916001600160401b0383116104c05760200192600183028401116104c057565b906020828203126104c05781356001600160401b0381116104c05761094392016108ef565b9091565b90610967610960610956845190565b8084529260200190565b9260200190565b905f5b8181106109775750505090565b90919261099d61099660019286516001600160a01b0316815260200190565b9460200190565b92910161096a565b60208082526104d092910190610947565b346104c05761059e6109d26109cc36600461091e565b90611d94565b604051918291826109a5565b6104d0916008021c6104c4565b906104d091546109de565b6104d05f60196109eb565b61056e90610525565b6020810192916104f29190610a01565b346104c057610a2a366004610601565b61059e610a356109f6565b60405191829182610a0a565b346104c057610a51366004610601565b61059e61058d600a5490565b906020828203126104c0576104d09161064a565b6012548110156104c057610a896104d091601261068e565b906109eb565b346104c05761059e610aaa610aa5366004610a5d565b610a71565b604051918291826001600160a01b03909116815260200190565b346104c05761059e61058d610ada366004610a5d565b611da0565b8015156104de565b905035906104f282610adf565b91906040838203126104c0576104d0906020610b1082866104e5565b9401610ae7565b346104c0576108b0610b2a366004610af4565b90611e58565b5f6105696104d092601d61052e565b346104c05761059e61058d610b553660046104f4565b610b30565b91906040838203126104c0576104d0906020610b76828661064a565b94016104e5565b346104c0576108b0610b90366004610b5a565b90611e80565b5f6105696104d092601861052e565b346104c05761059e61058d610bbb3660046104f4565b610b96565b90610538565b6104d09081565b6104d09054610bc6565b6104d0905b60ff1690565b6104d09054610bd7565b6104d09060081c6104c4565b6104d09054610bec565b6104d09060081c610bdc565b6104d09054610c02565b6104d09060101c610bdc565b6104d09054610c18565b634e487b7160e01b5f52602260045260245ffd5b9060016002830492168015610c62575b6020831014610c5d57565b610c2e565b91607f1691610c52565b80545f939291610c88610c7e83610c42565b8085529360200190565b9160018116908115610cd75750600114610ca157505050565b610cb291929394505f5260205f2090565b915f925b818410610cc35750500190565b805484840152602090930192600101610cb6565b92949550505060ff1916825215156020020190565b906104d091610c6c565b906104f2610d1092610d0760405190565b93848092610cec565b0383610795565b610d22906006610bc0565b610d2b81610bcd565b91610d3860018301610be2565b91610d4560018201610bf8565b91610d5260028301610bcd565b91610d5f60038201610be2565b91610d6c60038301610c0e565b91610d7960038201610c24565b916104d06005610d8b60048501610cf6565b9301610cf6565b634e487b7160e01b5f52602160045260245ffd5b60051115610db057565b610d92565b906104f282610da6565b6104d090610db5565b61056e90610dbf565b90825f9392825e0152565b610dfd610e066020936107eb93610df1815190565b80835293849260200190565b95869101610dd1565b601f01601f191690565b9081529695610120880195909490939092909160208901610e3091610dc8565b6001600160a01b03166040880152606087015215156080860152151560a0850152151560c084015282810360e0840152610e6991610ddc565b908082039061010001526104d091610ddc565b346104c05761059e610e97610e92366004610a5d565b610d17565b95610eaa99979995919594929460405190565b998a998a610e10565b346104c0576108b0610ec6366004610b5a565b90611e8a565b6010548110156104c0576106d46104d091601061068e565b346104c05761059e61058d610efa366004610a5d565b610ecc565b80545f939291610f11610c7e83610c42565b9160018116908115610cd75750600114610f2a57505050565b610f3b91929394505f5260205f2090565b915f925b818410610f4c5750500190565b805484840152602090930192600101610f3f565b906104d091610eff565b906104f2610d1092610f7b60405190565b93848092610f60565b6104d0906106ff565b6104d09054610f84565b610fa290600f610bc0565b90610fac82610f6a565b91610fb960018201610f6a565b91610fc660028301610be2565b91610fd360038201610bcd565b916104d06005610fe560048501610bcd565b9301610f8d565b919461103860a0949897956110316110276104f29961101961103f9760c08a01908a82035f8c0152610ddc565b9088820360208a0152610ddc565b9a15156040870152565b6060850152565b6080830152565b01906001600160401b03169052565b346104c05761059e611069611064366004610a5d565b610f97565b9261107996949692919260405190565b96879687610fec565b6104d05f601361054f565b346104c05761109d366004610601565b61059e61058d611082565b346104c0576110b8366004610601565b6108b0611ede565b6105696104d0926110d35f93601561052e565b610bc0565b346104c05761059e61058d6110ee366004610657565b906110c0565b6104d05f601e61054f565b346104c05761110f366004610601565b61059e61058d6110f4565b346104c05761112a366004610601565b61059e6109d2611f71565b346104c0576108b06111483660046104f4565b6120c7565b63ffffffff81166104de565b905035906104f28261114d565b906020828203126104c0576104d091611159565b346104c0576108b061118d366004611166565b61219b565b6104d060326108b5565b6104d0611192565b346104c0576111b4366004610601565b61059e61058d61119c565b346104c0576108b06111d23660046104f4565b612344565b346104c0576111e7366004610601565b61059e61058d60075490565b6104d05f601b61054f565b346104c05761120e366004610601565b61059e61058d6111f3565b346104c057611229366004610601565b61059e6105ee61234d565b80548210156106ae576106a66005915f5260205f2090565b6104d0906104c4565b6104d0905461124c565b600c9061126a825490565b8110156104c05761127a91611234565b5061128481611255565b9161129160018301610bcd565b9161129e60028201610be2565b916104d060046112b060028501610c0e565b9301610bcd565b909594926104f2946112f66112ff926112ec6080966112e560a088019c5f8901906001600160a01b03169052565b6020870152565b60ff166040850152565b15156060830152565b0152565b346104c05761059e61131e611319366004610a5d565b61125f565b9161132b95939560405190565b958695866112b7565b91906040838203126104c0576104d0906020610b10828661064a565b346104c0576108b0611363366004611334565b906125fa565b6104d0916008021c610bdc565b906104d09154611369565b5f6113906104d092601161052e565b611376565b346104c05761059e6105ee6113ab3660046104f4565b611381565b6104d05f601f61054f565b346104c0576113cb366004610601565b61059e61058d6113b0565b91906040838203126104c0576104d0906020610b7682866104e5565b346104c05761059e61058d6114083660046113d6565b90612604565b5f6105696104d092602261052e565b346104c05761059e61058d6114333660046104f4565b61140e565b60ff81166104de565b905035906104f282611438565b919060a0838203126104c05761146481846104e5565b926114728260208301611441565b926104d06114838460408501611441565b9360806106738260608701610ae7565b346104c0576108b06114a636600461144e565b93929092612c8c565b346104c0576114bf366004610601565b61059e5f80516020615c5983398151915261058d565b600511156104c057565b905035906104f2826114d5565b6001600160401b0381166104de565b905035906104f2826114ec565b919060a0838203126104c05761151e81846114df565b9260208101356001600160401b0381116104c0578261153e9183016108ef565b92909361154e82604085016114fb565b9261155c8360608301611159565b9260808201356001600160401b0381116104c05761094392016108ef565b346104c05761059e61058d611590366004611508565b95949094939193613415565b346104c0576115ac366004610601565b6108b0613490565b346104c0576108b06115c7366004610a5d565b6135e6565b346104c0576115dc366004610601565b61059e61058d600c5490565b346104c0576115f8366004610601565b6108b0613610565b346104c0576108b06116133660046104f4565b6137d9565b346104c057611628366004610601565b61059e610aaa6137e2565b6104d05f600461054f565b346104c05761164e366004610601565b61059e61058d611633565b346104c05761059e6105ee61166f366004610b5a565b906137eb565b90611684610960610956845190565b905f5b8181106116945750505090565b9091926116aa6109966001928651815260200190565b929101611687565b60208082526104d092910190611675565b346104c0576116d3366004610601565b61059e6116de613875565b604051918291826116b2565b6007548110156104c0576106d46104d091600761068e565b346104c05761059e61058d611718366004610a5d565b6116ea565b6104d06127106108b5565b6104d061171d565b346104c057611740366004610601565b61059e61058d611728565b600a90611756825490565b8110156104c05761176691611234565b509061177182610bcd565b9161177e60018201611255565b9161178b60028301610bcd565b9161179860038201610be2565b916104d060046112b060038501610c0e565b91946117f26112ff929897956117e860a0966117e16104f29a6117d160c08a019e5f8b0152565b6001600160a01b03166020890152565b6040870152565b60ff166060850152565b15156080830152565b346104c05761059e611816611811366004610a5d565b61174b565b9261182696949692919260405190565b968796876117aa565b6104d05f6108b5565b6104d061182f565b346104c057611850366004610601565b61059e61058d611838565b346104c0576108b061186e3660046104f4565b613937565b91906080838203126104c057611889818461064a565b9260208101356001600160401b0381116104c057826118a99183016108ef565b92909360408301356001600160401b0381116104c057826118d16060946104d09387016108ef565b9490950161064a565b346104c0576108b06118ed366004611873565b94939093929192613c0a565b6104d05f602061054f565b346104c057611914366004610601565b61059e61058d6118f9565b6105696104d0926119325f93601461052e565b61052e565b346104c05761059e61058d61194d3660046113d6565b9061191f565b5f6113906104d092601661052e565b346104c05761059e6105ee6119783660046104f4565b611953565b6104d05f601c61054f565b346104c057611998366004610601565b61059e61058d61197d565b346104c0576119b3366004610601565b6108b06140ca565b346104c0576108b06119ce366004610b5a565b906140ed565b346104c05761059e61058d6119ea366004610657565b906140f7565b634e487b7160e01b5f525f60045260245ffd5b905f10611a13576104d090610cf6565b6119f0565b6104d05f601a611a03565b60208082526104d092910190610ddc565b346104c057611a44366004610601565b61059e611a4f611a18565b60405191829182611a23565b5f6113906104d092601761052e565b346104c05761059e6105ee611a803660046104f4565b611a5b565b906020828203126104c0576104d0916114fb565b346104c0576108b0611aac366004611a85565b6141df565b346104c0576108b0611ac43660046104f4565b6141fd565b6104d05f600e61054f565b346104c057611ae4366004610601565b61059e61058d611ac9565b346104c057611aff366004610601565b61059e7f97667070c54ef182b0f5858b034beac1b6f3089aa2d3188bb1e8929f4fa9b92961058d565b6104d0916008021c5b63ffffffff1690565b906104d09154611b28565b6104d05f6005611b3a565b346104c057611b60366004610601565b61059e611b6b611b45565b6040519182918263ffffffff909116815260200190565b6104d05f600d61054f565b346104c057611b9d366004610601565b61059e61058d611b82565b6104d05f600861054f565b346104c057611bc3366004610601565b61059e61058d611ba8565b90611bdb61080a836107cf565b918252565b611bea6005611bce565b64312e322e3160d81b602082015290565b6104d0611be0565b6104d0611bfb565b6104d0611c03565b346104c057611c23366004610601565b61059e611a4f611c0b565b637965db0b60e01b6001600160e01b0319821614908115611c4d575090565b6104d091506001600160e01b0319166301ffc9a760e01b1490565b90611c956104c47f0000000000000000000000000000000000000000000000000000000000000000610525565b3303611cdb57611ca9926104d0918361421b565b7f85e1543bf2f84fe80c6badbce3648c8539ad1df4d2b3d822938ca0538be727e6611cd360405190565b80805b0390a2565b63c6829f8360e01b5f908152600490fd5b035ffd5b6001600160401b0381116107b65760208091020190565b90929192611d1761080a82611cf0565b93818552602080860192028301928184116104c057915b838310611d3b5750505050565b60208091611d4984866104e5565b815201920191611d2e565b9080601f830112156104c0578160206104d093359101611d07565b906020828203126104c05781356001600160401b0381116104c0576104d09201611d54565b6104d091810190611d6f565b6001611db86104d092611db05f90565b506002610bc0565b01610bcd565b6104f29190611dde5f80516020615c59833981519152614426565b614426565b611e0d565b9060ff905b9181191691161790565b90611e026104d0611e0992151590565b8254611de3565b9055565b611cd6611e4e7f54900594d0707a7434a1f46c1793527ed7583b79f004cba0898aca38d75a0c4592611e4985611e4483601761052e565b611df2565b610525565b926105f260405190565b906104f291611dbe565b906104f291611e73611dd982611da0565b90611e7d91614431565b50565b906104f291611e62565b90611e94336104c4565b6001600160a01b03821603611eac57611e7d916144a5565b63334bd91960e11b5f908152600490fd5b611ed35f80516020615c59833981519152614426565b6104f26104f2614541565b6104f2611ebd565b90611eff611ef5610956845490565b925f5260205f2090565b905f5b818110611f0f5750505090565b909192611f3c611f35600192611f2487611255565b6001600160a01b0316815260200190565b9460010190565b929101611f02565b906104d091611ee6565b906104f2610d1092611f5f60405190565b93848092611f44565b6104d090611f4e565b6104d06012611f68565b6104f290611f955f80516020615c59833981519152614426565b611feb565b915f1960089290920291821b911b611de8565b9190611fbe6104d0611e09936108b5565b908354611f9a565b6104f2915f91611fad565b9190611fbe6104d0611e099390565b6104f2915f91611fd1565b611ffa5f611e4483601661052e565b6120035f6108b5565b60126120106104d0825490565b82101561209257906120695f61206461202f610a898561206f9761068e565b61193287601461204b61204685611932858561052e565b610bcd565b6120576104d0886108b5565b8103612074575b5061052e565b611fe0565b60010190565b612003565b8661208761208c926110d386601561052e565b611fc6565b5f61205e565b505061209d90610525565b7f9169a01f7f36d74ee5fae148971bd94406ded157536330ff7a1816a4556b874b611cd360405190565b6104f290611f7b565b6104f2906120ea5f80516020615c59833981519152614426565b612138565b6104d090611b31565b6104d090546120ef565b9063ffffffff90611de8565b611b316104d06104d09263ffffffff1690565b906121316104d0611e099261210e565b8254612102565b7f84858bb3fb3ecf87e268ebef250ef9ad9cd53ef7973ef7a0ec9d89470bb00a809061216460056120f8565b61216f826005612121565b61219661217b60405190565b9283928363ffffffff91821681529116602082015260400190565b0390a1565b6104f2906120d0565b6104f2906121b061458e565b6121cb565b6104c46104d06104d09290565b6104d0906121b5565b6121d36137e2565b906121dd5f6121c2565b6001600160a01b0381166001600160a01b038416141580612328575b61220257505050565b816122869161228c9361221361182f565b61222461222088836137eb565b1590565b612318575b6122585f80516020615c59833981519152936122486122208a876137eb565b612301576001600160a01b031690565b6001600160a01b0383161415908282806122f1575b6122e0575b5050806122d0575b6122bf575b5050610525565b91610525565b907f9aa20ff69b15b86aaaab8b843dbeee446227b7d782e886e924cf461e9226b1726122b760405190565b80805b0390a3565b6122c8916144a5565b505f8161227f565b506122db81836137eb565b61227a565b6122e9916144a5565b505f82612272565b506122fc81836137eb565b61226d565b61230b8986614431565b506001600160a01b031690565b6123228782614431565b50612229565b506001600160a01b0382166001600160a01b03841614156121f9565b6104f2906121a4565b6104d06003610be2565b6104f291906123725f80516020615c59833981519152614426565b61240a565b634e487b7160e01b5f52601160045260245ffd5b9190612396565b9290565b82039182116123a157565b612377565b634e487b7160e01b5f52603160045260245ffd5b805480156123dc575f1901906123d96123d3838361068e565b90611fe0565b55565b6123a6565b90815491600160401b8310156107b657826124049160016104f29501815561068e565b90611fd1565b90600f9161242661222060026124208487610bc0565b01610be2565b806125f3575b156124f05761244960016002612443848397610bc0565b01611df2565b5f92806124555f6108b5565b905b6124ac575b5091925f80516020615c398339815191529250611cd691611e4e911580612490575b6124855790565b6104d08160106123e1565b506010546124a66124a26104d0611192565b9190565b1061247e565b60106124b96104d0825490565b8210156124ea576106d4826124cd9261068e565b83146124dc5760010181612457565b509250611e4e611cd661245c565b5061245c565b9161250060026124208584610bc0565b806125eb575b612525575b5090611cd6611e4e5f80516020615c398339815191529290565b5f60026124438561253594610bc0565b61253e5f6108b5565b601061254b6104d0825490565b8210156125ce5761255f6106d4838361068e565b841461256e575060010161253e565b5f80516020615c3983398151915292936125c56125c0836104d0611cd6966124046125b96106d46125b36125a3611e4e9b5490565b6125ad60016108b5565b9061238b565b8661068e565b918461068e565b6123ba565b9392505061250b565b505090611cd6611e4e5f80516020615c39833981519152926125c5565b508115612506565b508161242c565b906104f291612357565b6104d091611932612046926126165f90565b50601461052e565b9392919061263861222061263333601161052e565b610be2565b612645576104f29461265a565b63d801a0a960e01b5f90815233600452602490fd5b906104f29493929161266a6145a4565b61281e565b6104d06104d06104d09260ff1690565b9081526040810192916104f29160200152565b919082018092116123a157565b905f1990611de8565b906126b86104d0611e09926108b5565b825461269f565b61056e906001600160a01b031660601b90565b61056e9060ff1660f81b90565b9261270460016107eb946126fc6014886126fc859b9a86996126bf565b0180926126d2565b018092151560f81b9052565b80156123a1575f190190565b906126b86104d0611e099290565b5f1981146123a15760010190565b90611bdb61080a83611cf0565b369037565b906104f261276061275a84612738565b93611cf0565b601f190160208401612745565b61277d6104d06104d09260ff1690565b610db5565b6104f2946127c3829897956127b96080966127af6127d0975f60a089019801906001600160a01b03169052565b60ff1660208c0152565b60408a0190610dc8565b8782036060890152611675565b94019015159052565b6040513d5f823e3d90fd5b61056e9061266f565b6040906128166104f2949695939661280c60608401985f8501906127e4565b60ff166020830152565b019015159052565b93919061282d6104c45f6121c2565b6001600160a01b03861614612c7b576128458261266f565b926004936128586124a26104d087610dbf565b11612c6257804211612c4957503233141580612c32575b612c1c576128956104d061288761204688601861052e565b61288f6108c2565b90612692565b431115612bfd576128b16128aa86601861052e565b43906126a8565b6040516128d581602081016128c98887878c856126df565b90810382520382610795565b6128e76128e0825190565b9160200190565b20926129016120466128fa88601461052e565b339061052e565b61290a5f6108b5565b90818103612b8b575b5061292b856129266128fa8a601461052e565b61271c565b61293a856110d389601561052e565b9061295661294f61294a84610bcd565b61272a565b80936126a8565b61295f33610525565b9761296981610525565b80997f89bda59782d451a6d88665cbc359056a0a1dde6fcb5dd287d7f696625f47b90061299560405190565b806129a1888d8361267f565b0390a36129b16104d06013610bcd565b83101580612b74575b6129ca575b505050505050505050565b601d6129d9612046838361052e565b6129e56124a25f6108b5565b141580612b47575b612b2857612a016001611e4484601661052e565b612a12612a0d5f6108b5565b61274a565b94612a20611e496019611255565b95612a2a8961276d565b96803b156104c057845f8094612a5d8f8d96612a4560405190565b9d8e98899788966359ccf21160e01b88528701612782565b03925af1938415612b23577f63ca738403dfdcebabdb4643c18b281e5f3a23e6d4f6e620a0e08a5198c677da98612acd612ac68d957fb638617b9b16cb370d166e67b0198036ef358447b66190f12e642d4785836b8b95612afb9a612ae89a612b0c575061052e565b42906126a8565b612ae2612ad960405190565b9283928361267f565b0390a290565b94612af260405190565b938493846127ed565b0390a35f80808080808080806129bf565b61208c905f612b1b8183610795565b810190610601565b6127d9565b63789daf1760e11b5f9081526001600160a01b03831686526020860190fd5b50612b5e612b58612046848461052e565b4261238b565b612b6e6124a26104d0601c610bcd565b106129ed565b50612b8661222061263383601661052e565b6129ba565b612bb4612b9d826110d38b601561052e565b612bae612ba982610bcd565b612710565b906126a8565b612bbd33610525565b7ffd76418726a332416c104dc2a5c0078dd848183482d2831b27597be674619010612bf4612bea8b610525565b9361059160405190565b0390a35f612913565b63cdaa744360e01b5f9081526001600160a01b03861684526020840190fd5b63078f5fc160e01b5f9081523384526020840190fd5b50612c4461222061263333601761052e565b61286f565b6302a07ebf60e31b5f90815290611cec9042908661267f565b635e50d4ab60e11b5f90815260ff841685526020850190fd5b63e6c4247b60e01b5f908152600490fd5b906104f29493929161261e565b6104d09796959493929190612ccd7f97667070c54ef182b0f5858b034beac1b6f3089aa2d3188bb1e8929f4fa9b929614426565b612cfa565b6001600160a01b0390911681526060810193926104f29290916040916112ff905b6020830152565b9796959493929190602198612d12612046338c61052e565b612d1e6124a25f6108b5565b141580612e39575b612e24576023612d39612046338361052e565b612d456124a25f6108b5565b148015612dfc575b612dd3575b50602299612d63612046338d61052e565b612d736124a26104d0601f610bcd565b1015612da357612ac6612d9e916128fa612d926104d09d9e339061052e565b612bae61294a82610bcd565b6131e0565b5f611cec612db4612046338f61052e565b612dbe601f610bcd565b6309823c8360e41b8452903360048501612cd2565b612ac6612df6916128fa612de65f6108b5565b612df133602261052e565b6126a8565b5f612d52565b50612e1c6104d0612e10612046338561052e565b61288f620151806108b5565b421015612d4d565b630a1c727760e31b5f90815233600452602490fd5b50612e4a612b58612046338d61052e565b612e5a6124a26104d0601e610bcd565b10612d26565b6104d060e06107bb565b612e72612e60565b905f8252602080808080808088015f8152015f8152016060815201606081520160608152016060905250565b6104d0612e6a565b6104d09136916107fa565b634e487b7160e01b5f52601260045260245ffd5b8115612ecf570690565b612eb1565b6104d06101206107bb565b9061056e90610db5565b6104d05f611bce565b6104d0612ee9565b5190565b6104d09051610db5565b90611e026104d0611e0992610dbf565b90610100600160a81b039060081b611de8565b90612f3b6104d0611e0992610525565b8254612f18565b9061ff009060081b611de8565b90612f5f6104d0611e0992151590565b8254612f42565b9062ff00009060101b611de8565b90612f846104d0611e0992151590565b8254612f66565b818110612f96575050565b80612fa35f600193611fc6565b01612f8b565b9190601f8111612fb857505050565b612fc86104f2935f5260205f2090565b906020601f840181900483019310612fea575b6020601f909101040190612f8b565b9091508190612fdb565b90612ffd815190565b906001600160401b0382116107b6576130208261301a8554610c42565b85612fa9565b602090601f831160011461305957611e0992915f918361304e575b50505f19600883021c1916906002021790565b015190505f8061303b565b601f1983169161306c855f5260205f2090565b925f5b8181106130a857509160029391856001969410613090575b50505002019055565b01515f196008601f8516021c191690555f8080613087565b9193602060018192878701518155019501920161306f565b906104f291612ff4565b600561318c6101006104f2946130e96130e35f83015190565b8661271c565b613119600186016131056130ff60208501612efe565b82612f08565b60408301516001600160a01b031690612f2b565b613130613127606083015190565b600287016126a8565b6131706003860161314d6131476080850151151590565b82611df2565b61316361315d60a0850151151590565b82612f4f565b60c0830151151590612f74565b61318761317e60e083015190565b600487016130c0565b015190565b91016130c0565b906104f2916130ca565b9190610e06816131b4816107eb9560209181520190565b80956107ef565b916104d09391926131d360408201945f830190610dc8565b602081850391015261319d565b509096959194909391929091856131f96124a25f6108b5565b14806133f3575b6133d35761320c612e9e565b866132196124a25f6108b5565b11156133e457613229878a612ea6565b905b81516132396124a25f6108b5565b146133d3577f2a85f518adec0939bcb54c9f9cb5672ea58f47561bfaadde446335d03bdddd749561329c9561327161328b9484614788565b8161327e6124a25f6108b5565b116133b9575b5050614955565b916132966004610bcd565b92614c0b565b946007866132a8825490565b6132b061171d565b9081111561337d57506132c2916123e1565b61333a6132cd612ed4565b6132d5888252565b6132e28560208301612edf565b3360408201526132f3426060830152565b5f60808201525f60a08201525f60c0820152613317613310612ef2565b60e0830152565b61332a613322612ef2565b610100830152565b613335886006610bc0565b613193565b61334586600861271c565b61335c61335561294a601b610bcd565b601b6126a8565b85926122ba61336a33610525565b9561337460405190565b938493846131bb565b61339d92613397612404926133926009610bcd565b612ec5565b9061068e565b6133b46133ad61294a6009610bcd565b60096126a8565b6132c2565b6133cc916133c691612ea6565b826147b2565b5f80613284565b630ee2db0560e21b5f908152600490fd5b6133ed8661473f565b9061322b565b50613403612efa6104d08761473f565b61340f6124a25f6108b5565b14613200565b6104d0969594939291905f612c99565b1561342c57565b60405162461bcd60e51b815260206004820152601660248201527526bab9ba10313290383937b837b9b2b21037bbb732b960511b6044820152606490fd5b906001600160a01b0390611de8565b906134896104d0611e0992610525565b825461346a565b6134a76134a06104c46001611255565b3314613425565b6134d06134b35f611255565b6134bd335f613479565b611e496134c95f6121c2565b6001613479565b6134d933610525565b907f8be0079c531659141344cd1fd0a4f28419497f9722a3daafe3b4186f6b6457e06122b760405190565b6104f29061351e5f80516020615c59833981519152614426565b61356f565b1561352a57565b60405162461bcd60e51b815260206004820152601a60248201527f496e76616c696420636f6e6669726d6174696f6e20636f756e740000000000006044820152606490fd5b7f9a71f52a6cf1d6a0a676a538d4131e624fbe0f9146d1ca1c7a31fda3db8c37f79061359a5f6108b5565b8111806135cc575b6135ab90613523565b6135b56013610bcd565b6135c08260136126a8565b612196612ad960405190565b506135ab6135dc6104d060125490565b82111590506135a2565b6104f290613504565b6136055f80516020615c59833981519152614426565b6104f26104f2614d27565b6104f26135ef565b6104f2906136325f80516020615c59833981519152614426565b613693565b916001600160a01b0360089290920291821b911b611de8565b91906136616104d0611e0993610525565b908354613637565b6104f2915f91613650565b805480156123dc575f1901906123d961368d838361068e565b90613669565b6136a461222061263383601161052e565b611e7d576136b75f611e4483601161052e565b6136c05f6108b5565b60126136cd6104d0825490565b8210156137ce576136e1610a89838361068e565b6136fc6001600160a01b0385165b916001600160a01b031690565b1461370a57506001016136c0565b613733816104d061375b959461372d6125b9610a896125b36125a3613738995490565b90613650565b613674565b6137426013610bcd565b6137516124a26104d060125490565b1161378557610525565b7f3c9c4af7c4c66de2ffc68abfa4e0d275fbce92f248473bca0d6787dc8caf8e31611cd360405190565b61379861379160125490565b60136126a8565b7f5d983a5871dfe1a76e3752b3a3ccec2ca4289702fca17f68d587b4500fe3ac6a6137c661058d6013610bcd565b0390a1610525565b505061375b90613738565b6104f290613618565b6104d05f611255565b6104d0915f6137fe61263393611db05f90565b0161052e565b90613813611ef5610956845490565b905f5b8181106138235750505090565b909192613840611f3560019261383887610bcd565b815260200190565b929101613816565b906104d091613804565b906104f2610d109261386360405190565b93848092613848565b6104d090613852565b6104d0601061386c565b6104f2906138995f80516020615c59833981519152614426565b6138c1565b90815491600160401b8310156107b6578261372d9160016104f29501815561068e565b6138cd6104c45f6121c2565b6001600160a01b03821614612c7b576138ea61263382601161052e565b611e7d57806139026001611e4461390d94601161052e565b611e4981601261389e565b7f5a7a3f71a35f5e2589980d29d1c6d8c75e39657751190874081e55208bae24b7611cd360405190565b6104f29061387f565b6104f295949392919061395f5f80516020615c59833981519152614426565b613b0e565b6104d060c06107bb565b6106ff6104d06104d09290565b90613984815190565b906001600160401b0382116107b6576139a18261301a8554610c42565b602090601f83116001146139ce57611e0992915f918361304e5750505f19600883021c1916906002021790565b601f198316916139e1855f5260205f2090565b925f5b818110613a04575091600293918560019694106130905750505002019055565b919360206001819287870151815501950192016139e4565b906104f29161397b565b906001600160401b0390611de8565b6106ff6104d06104d0926001600160401b031690565b90613a5b6104d0611e0992613a35565b8254613a26565b6005613aec60a06104f294613a80613a7a5f83015190565b86613a1c565b613a97613a8e602083015190565b60018701613a1c565b613ab0613aa76040830151151590565b60028701611df2565b613ac7613abe606083015190565b600387016126a8565b613ade613ad5608083015190565b6004870161271c565b01516001600160401b031690565b9101613a4b565b906104f291613a62565b60208082526104d09391019161319d565b9094919293613b1c60105490565b613b2a6124a26104d0611192565b1015613bf957613b40600261242084600f610bc0565b613bf15785613baf85611038613bdb96613ba36112e5612485977fbedfda3c33d162721dc631692ff35e157054492b7b9babcdf18877740e5f5a899c613b9e613b9a613b8b5f6108b5565b98613b94613964565b9b612ea6565b8a52565b612ea6565b60016040860152611031565b613bcb613bbb5f61396e565b6001600160401b031660a0830152565b613bd683600f610bc0565b613af3565b92611cd6613be860405190565b92839283613afd565b505050505050565b63828659f160e01b5f908152600490fd5b906104f29594939291613940565b613c417f97667070c54ef182b0f5858b034beac1b6f3089aa2d3188bb1e8929f4fa9b929614426565b6104f2613e75565b610bdc6104d06104d09290565b610bdc6104d06104d09260ff1690565b90611e026104d0611e0992613c56565b818102929181159184041417156123a157565b818110613c94575050565b80613ca15f600193611fe0565b01613c89565b919091828210613cb657505050565b6104f29291613cc990915f5260205f2090565b9182019101613c89565b90600160401b81116107b65781613ceb6104f2935490565b90828155613ca7565b818114613d5b578154916001600160401b0383116107b657613d28611ef5600192613d1f8686613cd3565b5f5260205f2090565b9204918154915f925b848410613d3f575050505050565b6001613d49819290565b92019384549281850155019290613d31565b5050565b906104f291613cf4565b818103613d74575050565b6004613de58184613d92613d8c5f6104f29801611255565b86613479565b613daa613da160018301610bcd565b600187016126a8565b613dd560028601613dcf60028401613dca613dc482610be2565b84613c66565b610c0e565b90612f4f565b611db86003820160038701613d5f565b91016126a8565b9190611a13576104f291613d69565b5f6104f291613cd3565b905f03611a13576104f290613dfb565b5f8082556104f291600490613e2d8360018301611fc6565b826002820155613e408360038301613e05565b01611fc6565b905f03611a13576104f290613e15565b805480156123dc575f1901906123d9613e6f8383611234565b90613e46565b600c8054613e896124a26104d0600e610bcd565b10156140ba578054915b613e9c5f6108b5565b83146140b5575a92613ead5f6108b5565b81811015613ffa57613ec6613ec28286611234565b5090565b90613ed36003830161386c565b91613ee1611e496019611255565b8190613eec82611255565b60018301926002613f04613eff86610bcd565b613c49565b910192613f18613f1385610be2565b61276d565b91613f2285610c0e565b823b156104c0575f94613f538692613f3960405190565b9c8d97889687956359ccf21160e01b875260048701612782565b03925af1908115612b2357613fe0957f63ca738403dfdcebabdb4643c18b281e5f3a23e6d4f6e620a0e08a5198c677da92613fe5575b50613fa8613eff613fa2613f9c5f6108b5565b96611255565b94610bcd565b613fd7613fcd613fc7613fc3613fbd86610be2565b95610c0e565b9790565b95610525565b95612af260405190565b0390a360010190565b613ead565b613ff4905f612b1b8183610795565b5f613f89565b509091926140075f6108b5565b61401b6104d084614016885490565b61238b565b811015614052578061206961403c6140368661404d95612692565b88611234565b506140478389611234565b90613dec565b614007565b50919061405e5f6108b5565b81811015614078576140739061206986613e56565b61405e565b509092506140a87f751c71674a09ec2c8ea29b53266803e34cd5c7038cdd51e13ee37e0fcde65637925a9061238b565b90612196612ad960405190565b915050565b6140c4600e610bcd565b91613e93565b6104f2613c18565b906104f2916140e3611dd982611da0565b90611e7d916144a5565b906104f2916140d2565b6104d0916110d3612046926141095f90565b50601561052e565b6104f29061412b5f80516020615c59833981519152614426565b614193565b6104d09060201c6106ff565b6104d09054614130565b906bffffffffffffffff000000009060201b611de8565b9061416d6104d0611e0992613a35565b8254614146565b6001600160401b0390911681526040810192916104f29160209061103f565b7f56bc58e9d6d8a66924053edf738a667fbedd80ff70cc0eaa631fc48786447dbf906141bf600561413c565b6141ca82600561415d565b6121966141d660405190565b92839283614174565b6104f290614111565b6104f2906141f461458e565b6104f290614d7b565b6104f2906141e8565b90151581526040810192916104f29160200152565b9061422a6104d0836006610bc0565b61423660018201610bf8565b6142456136ef6104c45f6121c2565b1461441557600381019061425882610be2565b6144045761426761222061234d565b806143ef575b806143da575b1561430757926104d0611cd6936142f2937f400b2562754ea3c31e614674ba9837d1026b1e0293dcb2483830031a20879eee966142d86142c29960019a8b856142bd828098611df2565b612f4f565b6142cf85600485016130c0565b600583016130c0565b01906142ec6142e683610be2565b92610bf8565b91614ead565b926142fc60405190565b918291429083614206565b919061431161234d565b15614372576104d092614342614348969361433960018561433482600598611df2565b612f74565b600483016130c0565b016130c0565b7fb70c611b17840570468ef8f2fefb26838740f1921566e2f03c4e58293a5d8b8a611cd360405190565b6104d0926143426143a496936143398461438f6001600597611df2565b865161439d6124a25f6108b5565b1490612f4f565b7f400b2562754ea3c31e614674ba9837d1026b1e0293dcb2483830031a20879eee6143ce60405190565b80611cd6425f83614206565b5082516143e96124a25f6108b5565b11614273565b5084516143fe6124a25f6108b5565b1461426d565b634a4117f960e01b5f908152600490fd5b632589d98f60e11b5f908152600490fd5b6104f290339061521a565b61443e61222083836137eb565b1561449f576144586001611e44845f6137fe866002610bc0565b61446c612286614466339390565b93610525565b917f2f8788117e7eff1d82e926ec794901d17c78024a50270940304540a733656f0d61449760405190565b5f90a4600190565b50505f90565b6144af82826137eb565b1561449f576144c85f611e4484826137fe866002610bc0565b6144d6612286614466339390565b917ff6391f5c32d9c69d2a47ea670b442974b53935d1edc7fd64eb21e047a839171b61449760405190565b614509615248565b6104f26145175f6003611df2565b7f5db9ee0a495bf2e6ff9c91a7834c1ba4fdd244a5e8aa4e537bd38aeae4b073aa61219633610aaa565b6104f2614501565b1561455057565b60405162461bcd60e51b815260206004820152601660248201527527b7363c9031b0b63630b1363290313c9037bbb732b960511b6044820152606490fd5b6104f261459d6104c45f611255565b3314614549565b6145ac61234d565b6145b257565b63d93c066560e01b5f908152600490fd5b6145cd604e611bce565b7f636f6e7374207269736b53636f7265203d20617267735b305d3b72657475726e60208201527f2046756e6374696f6e732e656e636f646555696e74323536287061727365496e60408201526d74287269736b53636f726529293b60901b606082015290565b6104d06145c3565b61464560c2611bce565b7f636f6e737420617069526573706f6e7365203d2061776169742046756e63746960208201527f6f6e732e6d616b654874747052657175657374287b75726c3a20617267735b3060408201527f5d7d293b69662028617069526573706f6e73652e6572726f722920726574757260608201527f6e2046756e6374696f6e732e656e636f6465537472696e6728276572726f722760808201527f293b72657475726e2046756e6374696f6e732e656e636f6465537472696e672860a08201527f4a534f4e2e737472696e6769667928617069526573706f6e73652e646174612960c082015261293b60f01b60e082015290565b6104d061463b565b6147496001610db5565b61475282610db5565b0361476057506104d0614737565b61477361476d6002610db5565b91610db5565b14614780576104d0612ef2565b6104d0614633565b905f806104f293615274565b60031115610db057565b906104f282614794565b9061056e9061479e565b81516147c06124a25f6108b5565b146147d657806112ff60016020608094016147a8565b63e889636f60e01b5f908152600490fd5b6104d06101006108b5565b6147fc600c611bce565b6b31b7b232a637b1b0ba34b7b760a11b602082015290565b6104d06147f2565b6104d0905161479e565b6104d09061479e565b6148396008611bce565b676c616e677561676560c01b602082015290565b6104d061482f565b60011115610db057565b906104f282614855565b6104d0905161485f565b6104d09061485f565b6148866006611bce565b65736f7572636560d01b602082015290565b6104d061487c565b6148aa6004611bce565b636172677360e01b602082015290565b6104d06148a0565b906148cb825190565b8110156106ae576020809102010190565b6148e6600f611bce565b6e39b2b1b932ba39a637b1b0ba34b7b760891b602082015290565b6104d06148dc565b6149136007611bce565b667365637265747360c81b602082015290565b6104d0614909565b6149386009611bce565b6862797465734172677360b81b602082015290565b6104d061492e565b6149656149606147e7565b6152fa565b90614977614971614814565b83615326565b61499161498b6149868361481c565b614826565b83615391565b61499c61497161484d565b6149b361498b6149ae60408401614869565b614873565b6149be614971614898565b6149cc606082015183615326565b60a081018051516149df6124a25f6108b5565b11614b0d575b5060808101906149f482515190565b614a006124a25f6108b5565b11614a8f575b60c0915001614a1481515190565b614a206124a25f6108b5565b11614a2c575b50515190565b614a3761497161494d565b614a40826153f7565b614a495f6108b5565b614a556104d083515190565b811015614a7a5780612069614a6e614a759385516148c2565b518561545e565b614a49565b50505f8091614a8881615435565b9150614a26565b60208101614a9c8161481c565b614aae614aa85f61479e565b9161479e565b14614afc5760c092614adf614ad9614986614af794614ad4614ace614901565b8a615326565b61481c565b86615391565b614af0614aea614926565b86615326565b518461545e565b614a06565b63a80d31f760e01b5f908152600490fd5b9092614b20614b1a6148ba565b84615326565b614b29836153f7565b614b325f6108b5565b614b3e6104d084515190565b811015614b635780612069614b57614b5e9386516148c2565b5186615326565b614b32565b50929050614b7082615435565b5f6149e5565b614b836104d06104d09290565b61ffff1690565b6104d06001614b76565b905051906104f282610644565b906020828203126104c0576104d091614b94565b906104f294614bfe614bf16112ff936080969a99979a614be460a08801925f8901906001600160401b03169052565b8682036020880152610ddc565b61ffff9099166040850152565b63ffffffff166060830152565b906020929391614c185f90565b505f614c437f0000000000000000000000000000000000000000000000000000000000000000610525565b92614c73614c4f614b8a565b95614c5960405190565b9889978896879563230e93b160e11b875260048701614bb5565b03925af1908115612b23575f91614cb7575b50807f1131472297a800fee664d1d89cfa8f7676ff07189ecc53f80bbb5f4969099db8614cb160405190565b5f90a290565b614cd9915060203d602011614cdf575b614cd18183610795565b810190614ba1565b5f614c85565b503d614cc7565b614cee6145a4565b6104f2614cfd60016003611df2565b7f62e78cea01bee320cd4e420270b5ea74000d11b0c9f74754ebdbfc544b05a25861219633610aaa565b6104f2614ce6565b15614d3657565b60405162461bcd60e51b815260206004820152601760248201527f43616e6e6f74207472616e7366657220746f2073656c660000000000000000006044820152606490fd5b614d90336001600160a01b0383161415614d2f565b614d9b816001613479565b614daa612286611e495f611255565b907fed8889f560326eb138920d842192f0eb3dd22b4f139c87a2c57538e05bae12786122b760405190565b905051906104f282610adf565b91906040838203126104c0576104d0906020614dfe8286614b94565b9401614dd5565b6004613de560a06104f294614e1d6130e35f83015190565b614e3d614e3460208301516001600160a01b031690565b60018701613479565b614e4b613127604083015190565b61318760038601614e69614e63606085015160ff1690565b82613c66565b60808301511515613dcf565b9190611a13576104f291614e05565b90815491600160401b8310156107b65782614ea79160016104f295018155611234565b90614e75565b9150614eb96002610db5565b614ec283610db5565b14806151e6575b15614f9857614ee891506020614edd825190565b818301019101614ba1565b80614ef66124a260ff61266f565b11614f88575b600a54614f0d6124a26104d061171d565b10614f155750565b6104f290600a614f5b614f275f6108b5565b92614f54614f345f6121c2565b614f44614f3f613964565b968752565b6001600160a01b03166020860152565b6040840152565b614f71614f675f613c49565b60ff166060840152565b5f60808301525b614f834260a0840152565b614e84565b50614f9360ff61266f565b614efc565b600191614fa56001610db5565b614fae82610db5565b036150e25750614fbd90615513565b90614fc6575050565b8190614fd15f6108b5565b915b614fdc57505050565b614fe76104d0825190565b8210156150dd576150908392614ffc600c5490565b61500c6124a26104d0600d610bcd565b10156150965761206961502f61502283866148c2565b516001600160a01b031690565b61508061503c6004610dbf565b61507361504b612a0d5f6108b5565b91615066615057613964565b6001600160a01b039096168652565b6112ec6112e560646108b5565b8715156060840152611038565b61508b4260a0830152565b615721565b91614fd3565b6150a6611e4961502283866148c2565b7f5c59a1fde3dcc109d7d8c7dcbdb76efa184098bc96fbb5c6385a530b0fd94e796150d060405190565b428152602090a260010190565b505050565b9091506150ef6003610db5565b6150f882610db5565b036151d75750805161510d6124a260406108b5565b10156151165750565b80602061512461512f935190565b818301019101614de2565b908061513e6124a260ff61266f565b116151c7575b600a546151556124a26104d061171d565b1061515e575050565b6104f291614f78600a916151a86151745f6108b5565b946151a16151815f6121c2565b61519161518c613964565b988952565b6001600160a01b03166020880152565b6040860152565b6151be6151b45f613c49565b60ff166060860152565b15156080840152565b506151d260ff61266f565b615144565b9050613d5b61476d6004610db5565b5080516151f66124a260206108b5565b1015614ec9565b6001600160a01b0390911681526040810192916104f29160200152565b9061522861222082846137eb565b615230575050565b63e2517d3f60e01b5f90815291611cec9160046151fd565b61525361222061234d565b61525957565b638dfc202b60e01b5f908152600490fd5b9061056e9061485f565b9061527d845190565b6152896124a25f6108b5565b146152a8576060926112ff9161529f90846147a8565b6040830161526a565b6322ce3edd60e01b5f908152600490fd5b6104d060406107bb565b6152cb6152b9565b9060605b82525f6020830152565b6104d06152c3565b6152e96152b9565b906152cf6152d9565b6104d06152e1565b61530f6153056152f2565b915f8301516157a3565b506104d0612cf35f6108b5565b6104d06003613c49565b905f611e7d9261535661533e61533a61531c565b9490565b9361534f61534a865190565b61396e565b9083615856565b01516159c1565b6104d06006613c49565b610bdc9061538261537b6104d09460ff1690565b9160ff1690565b901b90565b6104d06002613c49565b906104f2916153c75f8201516153b86153a861535d565b6153b26005613c49565b90615367565b6153c0615387565b17906159d6565b506153e86153d460405190565b602081810194909452928352604083610795565b61545e565b6104d06004613c49565b6104f29061540c6154066153ed565b82615a48565b61056e602061541b60016108b5565b920191615426835190565b612692565b6104d06007613c49565b6104f29061544461540661542b565b61056e602061545360016108b5565b920191614016835190565b905f611e7d9261535661546f615387565b61534f61534a865190565b905051906104f2826104d3565b9092919261549761080a82611cf0565b93818552602080860192028301928184116104c057915b8383106154bb5750505050565b602080916154c9848661547a565b8152019201916154ae565b9080601f830112156104c05781516104d092602001615487565b906020828203126104c05781516001600160401b0381116104c0576104d092016154d4565b5f81516155236124a260406108b5565b1061560e575060208101516040820151906155416124a260206108b5565b0361560e576155516127106108b5565b811161560e5761556e6155789161556860206108b5565b90613c76565b61542660406108b5565b6155866124a2612392845190565b10615601575f6155b69161559930610525565b604051938492839182916313efb55f60e01b835260048301611a23565b03915afa5f91816155dd575b506155d857506155d4612a0d5f6108b5565b5f91565b600191565b6155fa9192503d805f833e6155f28183610795565b8101906154ee565b905f6155c2565b506155d4612a0d5f6108b5565b50506155d4612a0d5f6108b5565b8151916001600160401b0383116107b657615646611ef56001926156408686613cd3565b60200190565b9204915f5b8381106156585750505050565b60019060206156686104d0865190565b940193818401550161564b565b906104f29161561c565b6004613de560a06104f2946156a0613d8c5f8301516001600160a01b031690565b6156ae613da1602083015190565b6156d2600286016156c6614e63604085015160ff1690565b60608301511515613dcf565b6131876156e0608083015190565b60038701615675565b9190611a13576104f29161567f565b90815491600160401b8310156107b6578261571b9160016104f295018155611234565b906156e9565b600c546157346124a26104d0600d610bcd565b10156157925761574581600c6156f8565b7f6ad10ba353a327de77c5722d6699a472f7daad042e6c6e5e8978d4b009747190611cd6615788614466602061578286516001600160a01b031690565b95015190565b9261059160405190565b638acb5f2760e01b5f908152600490fd5b906157ac6152d9565b5060206157c16157bb826108b5565b83612ec5565b6157cd6124a25f6108b5565b036157f7575b6157dd8282850152565b604051918284525f83528201019081106104c05760405290565b906158149061288f61580b6157bb856108b5565b614016856108b5565b906157d3565b6104d06104d06104d0926001600160401b031690565b6106ff6104d06104d09260ff1690565b610bdc6104d06104d0926001600160401b031690565b919091615863601761396e565b6001600160401b038316116158a057611e7d929161589461588f5f61589a940151946153b26005613c49565b615830565b17615840565b906159d6565b6158aa60ff61396e565b6001600160401b038316116158f8578051611e7d936158e892916158e0916158d6906153b26005613c49565b6153c06018613c49565b50519161581a565b6158f260016108b5565b91615a74565b61590361ffff61396e565b6001600160401b03831611615943578051611e7d9361593992916158e09161592f906153b26005613c49565b6153c06019613c49565b6158f260026108b5565b61595063ffffffff61396e565b6001600160401b03831611615990578051611e7d9361598692916158e09161597c906153b26005613c49565b6153c0601a613c49565b6158f260046108b5565b8051611e7d936159b792916158e0916159ad906153b26005613c49565b6153c0601b613c49565b6158f260086108b5565b6104d0916159cd6152d9565b50805191615b09565b906159df6152d9565b508151516159f66159f060016108b5565b82612692565b91615a056104d0602086015190565b821015615a27575b60208451928301015380518211615a2357505090565b5290565b615a43615a3d615a3760026108b5565b85613c76565b85615c1f565b615a0d565b51611e7d91615a5b906153b26005613c49565b6153c0601f613c49565b601f81116123a1576101000a90565b9190615a7e6152d9565b50615ab36125a3615a99615a935f8701515190565b85612692565b93615aa86104d0602088015190565b8511615ace57615a65565b835191838301911982511617905280518211615a2357505090565b615aea615ae4615ade60026108b5565b87613c76565b87615c1f565b615a65565b156104c057565b90615b046124a26104d09390565b900a90565b92615b126152d9565b50615b29615b216104d0845190565b841115615aef565b83515191615b378484612692565b90615b466104d0602088015190565b8211615c04575b602091865180519584820101958211615bfc575b505093919301915b6020615b74816108b5565b8310615bb057615ba991615b98615b91615b9e93875184526108b5565b8092612692565b94612692565b916125ad60206108b5565b9091615b69565b509190615bde615bce615bed92969596615bca60206108b5565b0390565b615bd96101006108b5565b615af6565b615be860016108b5565b900390565b90518251821691191617905290565b525f80615b61565b615c1a615ae4615c1460026108b5565b84613c76565b615b4d565b90611e7d91615c325f82015192826157a3565b506159c156fe331d93a318357dd42f8be3f0f5872d53bb1f5a96f547d153b54a25ad9ad84ff2a49807205ce4d355092ef5a8a18f56e8913cf4a201fbe287825b095693c21775a164736f6c634300081a000a",
  "linkReferences": {},
  "deployedLinkReferences": {}
}