{
  "_format": "hh-sol-artifact-1",
  "contractName": "FidesOriginTimelock",
  "sourceName": "contracts/FidesOriginTimelock.sol",
  "abi": [
    {
      "inputs": [
        {
          "internalType": "address[]",
          "name": "proposers",
          "type": "address[]"
        },
        {
          "internalType": "address[]",
          "name": "executors",
          "type": "address[]"
        },
        {
          "internalType": "address",
          "name": "admin",
          "type": "address"
        }
      ],
      "stateMutability": "nonpayable",
      "type": "constructor"
    },
    {
      "inputs": [],
      "name": "AccessControlBadConfirmation",
      "type": "error"
    },
    {
      "inputs": [
        {
          "internalType": "address",
          "name": "account",
          "type": "address"
        },
        {
          "internalType": "bytes32",
          "name": "neededRole",
          "type": "bytes32"
        }
      ],
      "name": "AccessControlUnauthorizedAccount",
      "type": "error"
    },
    {
      "inputs": [
        {
          "internalType": "bool",
          "name": "current",
          "type": "bool"
        }
      ],
      "name": "EmergencyModeAlreadySet",
      "type": "error"
    },
    {
      "inputs": [],
      "name": "FailedCall",
      "type": "error"
    },
    {
      "inputs": [],
      "name": "InvalidAddress",
      "type": "error"
    },
    {
      "inputs": [
        {
          "internalType": "address",
          "name": "caller",
          "type": "address"
        }
      ],
      "name": "NotEmergencyOperator",
      "type": "error"
    },
    {
      "inputs": [
        {
          "internalType": "uint256",
          "name": "delay",
          "type": "uint256"
        },
        {
          "internalType": "uint256",
          "name": "minDelay",
          "type": "uint256"
        }
      ],
      "name": "TimelockInsufficientDelay",
      "type": "error"
    },
    {
      "inputs": [
        {
          "internalType": "uint256",
          "name": "targets",
          "type": "uint256"
        },
        {
          "internalType": "uint256",
          "name": "payloads",
          "type": "uint256"
        },
        {
          "internalType": "uint256",
          "name": "values",
          "type": "uint256"
        }
      ],
      "name": "TimelockInvalidOperationLength",
      "type": "error"
    },
    {
      "inputs": [
        {
          "internalType": "address",
          "name": "caller",
          "type": "address"
        }
      ],
      "name": "TimelockUnauthorizedCaller",
      "type": "error"
    },
    {
      "inputs": [
        {
          "internalType": "bytes32",
          "name": "predecessorId",
          "type": "bytes32"
        }
      ],
      "name": "TimelockUnexecutedPredecessor",
      "type": "error"
    },
    {
      "inputs": [
        {
          "internalType": "bytes32",
          "name": "operationId",
          "type": "bytes32"
        },
        {
          "internalType": "bytes32",
          "name": "expectedStates",
          "type": "bytes32"
        }
      ],
      "name": "TimelockUnexpectedOperationState",
      "type": "error"
    },
    {
      "anonymous": false,
      "inputs": [
        {
          "indexed": true,
          "internalType": "bytes32",
          "name": "id",
          "type": "bytes32"
        },
        {
          "indexed": true,
          "internalType": "uint256",
          "name": "index",
          "type": "uint256"
        },
        {
          "indexed": false,
          "internalType": "address",
          "name": "target",
          "type": "address"
        },
        {
          "indexed": false,
          "internalType": "uint256",
          "name": "value",
          "type": "uint256"
        },
        {
          "indexed": false,
          "internalType": "bytes",
          "name": "data",
          "type": "bytes"
        }
      ],
      "name": "CallExecuted",
      "type": "event"
    },
    {
      "anonymous": false,
      "inputs": [
        {
          "indexed": true,
          "internalType": "bytes32",
          "name": "id",
          "type": "bytes32"
        },
        {
          "indexed": false,
          "internalType": "bytes32",
          "name": "salt",
          "type": "bytes32"
        }
      ],
      "name": "CallSalt",
      "type": "event"
    },
    {
      "anonymous": false,
      "inputs": [
        {
          "indexed": true,
          "internalType": "bytes32",
          "name": "id",
          "type": "bytes32"
        },
        {
          "indexed": true,
          "internalType": "uint256",
          "name": "index",
          "type": "uint256"
        },
        {
          "indexed": false,
          "internalType": "address",
          "name": "target",
          "type": "address"
        },
        {
          "indexed": false,
          "internalType": "uint256",
          "name": "value",
          "type": "uint256"
        },
        {
          "indexed": false,
          "internalType": "bytes",
          "name": "data",
          "type": "bytes"
        },
        {
          "indexed": false,
          "internalType": "bytes32",
          "name": "predecessor",
          "type": "bytes32"
        },
        {
          "indexed": false,
          "internalType": "uint256",
          "name": "delay",
          "type": "uint256"
        }
      ],
      "name": "CallScheduled",
      "type": "event"
    },
    {
      "anonymous": false,
      "inputs": [
        {
          "indexed": true,
          "internalType": "bytes32",
          "name": "id",
          "type": "bytes32"
        }
      ],
      "name": "Cancelled",
      "type": "event"
    },
    {
      "anonymous": false,
      "inputs": [
        {
          "indexed": true,
          "internalType": "address",
          "name": "operator",
          "type": "address"
        }
      ],
      "name": "EmergencyModeDisabled",
      "type": "event"
    },
    {
      "anonymous": false,
      "inputs": [
        {
          "indexed": true,
          "internalType": "address",
          "name": "operator",
          "type": "address"
        }
      ],
      "name": "EmergencyModeEnabled",
      "type": "event"
    },
    {
      "anonymous": false,
      "inputs": [
        {
          "indexed": true,
          "internalType": "address",
          "name": "operator",
          "type": "address"
        }
      ],
      "name": "EmergencyOperatorAdded",
      "type": "event"
    },
    {
      "anonymous": false,
      "inputs": [
        {
          "indexed": true,
          "internalType": "address",
          "name": "operator",
          "type": "address"
        }
      ],
      "name": "EmergencyOperatorRemoved",
      "type": "event"
    },
    {
      "anonymous": false,
      "inputs": [
        {
          "indexed": false,
          "internalType": "uint256",
          "name": "oldDuration",
          "type": "uint256"
        },
        {
          "indexed": false,
          "internalType": "uint256",
          "name": "newDuration",
          "type": "uint256"
        }
      ],
      "name": "MinDelayChange",
      "type": "event"
    },
    {
      "anonymous": false,
      "inputs": [
        {
          "indexed": true,
          "internalType": "bytes32",
          "name": "role",
          "type": "bytes32"
        },
        {
          "indexed": true,
          "internalType": "bytes32",
          "name": "previousAdminRole",
          "type": "bytes32"
        },
        {
          "indexed": true,
          "internalType": "bytes32",
          "name": "newAdminRole",
          "type": "bytes32"
        }
      ],
      "name": "RoleAdminChanged",
      "type": "event"
    },
    {
      "anonymous": false,
      "inputs": [
        {
          "indexed": true,
          "internalType": "bytes32",
          "name": "role",
          "type": "bytes32"
        },
        {
          "indexed": true,
          "internalType": "address",
          "name": "account",
          "type": "address"
        },
        {
          "indexed": true,
          "internalType": "address",
          "name": "sender",
          "type": "address"
        }
      ],
      "name": "RoleGranted",
      "type": "event"
    },
    {
      "anonymous": false,
      "inputs": [
        {
          "indexed": true,
          "internalType": "bytes32",
          "name": "role",
          "type": "bytes32"
        },
        {
          "indexed": true,
          "internalType": "address",
          "name": "account",
          "type": "address"
        },
        {
          "indexed": true,
          "internalType": "address",
          "name": "sender",
          "type": "address"
        }
      ],
      "name": "RoleRevoked",
      "type": "event"
    },
    {
      "inputs": [],
      "name": "CANCELLER_ROLE",
      "outputs": [
        {
          "internalType": "bytes32",
          "name": "",
          "type": "bytes32"
        }
      ],
      "stateMutability": "view",
      "type": "function"
    },
    {
      "inputs": [],
      "name": "DEFAULT_ADMIN_ROLE",
      "outputs": [
        {
          "internalType": "bytes32",
          "name": "",
          "type": "bytes32"
        }
      ],
      "stateMutability": "view",
      "type": "function"
    },
    {
      "inputs": [],
      "name": "EMERGENCY_DELAY",
      "outputs": [
        {
          "internalType": "uint256",
          "name": "",
          "type": "uint256"
        }
      ],
      "stateMutability": "view",
      "type": "function"
    },
    {
      "inputs": [],
      "name": "EXECUTOR_ROLE",
      "outputs": [
        {
          "internalType": "bytes32",
          "name": "",
          "type": "bytes32"
        }
      ],
      "stateMutability": "view",
      "type": "function"
    },
    {
      "inputs": [],
      "name": "MIN_DELAY",
      "outputs": [
        {
          "internalType": "uint256",
          "name": "",
          "type": "uint256"
        }
      ],
      "stateMutability": "view",
      "type": "function"
    },
    {
      "inputs": [],
      "name": "PROPOSER_ROLE",
      "outputs": [
        {
          "internalType": "bytes32",
          "name": "",
          "type": "bytes32"
        }
      ],
      "stateMutability": "view",
      "type": "function"
    },
    {
      "inputs": [
        {
          "internalType": "address",
          "name": "operator",
          "type": "address"
        }
      ],
      "name": "addEmergencyOperator",
      "outputs": [],
      "stateMutability": "nonpayable",
      "type": "function"
    },
    {
      "inputs": [
        {
          "internalType": "bytes32",
          "name": "id",
          "type": "bytes32"
        }
      ],
      "name": "cancel",
      "outputs": [],
      "stateMutability": "nonpayable",
      "type": "function"
    },
    {
      "inputs": [],
      "name": "disableEmergencyMode",
      "outputs": [],
      "stateMutability": "nonpayable",
      "type": "function"
    },
    {
      "inputs": [],
      "name": "emergencyMode",
      "outputs": [
        {
          "internalType": "bool",
          "name": "",
          "type": "bool"
        }
      ],
      "stateMutability": "view",
      "type": "function"
    },
    {
      "inputs": [
        {
          "internalType": "address",
          "name": "",
          "type": "address"
        }
      ],
      "name": "emergencyOperators",
      "outputs": [
        {
          "internalType": "bool",
          "name": "",
          "type": "bool"
        }
      ],
      "stateMutability": "view",
      "type": "function"
    },
    {
      "inputs": [],
      "name": "enableEmergencyMode",
      "outputs": [],
      "stateMutability": "nonpayable",
      "type": "function"
    },
    {
      "inputs": [
        {
          "internalType": "address",
          "name": "target",
          "type": "address"
        },
        {
          "internalType": "uint256",
          "name": "value",
          "type": "uint256"
        },
        {
          "internalType": "bytes",
          "name": "payload",
          "type": "bytes"
        },
        {
          "internalType": "bytes32",
          "name": "predecessor",
          "type": "bytes32"
        },
        {
          "internalType": "bytes32",
          "name": "salt",
          "type": "bytes32"
        }
      ],
      "name": "execute",
      "outputs": [],
      "stateMutability": "payable",
      "type": "function"
    },
    {
      "inputs": [
        {
          "internalType": "address[]",
          "name": "targets",
          "type": "address[]"
        },
        {
          "internalType": "uint256[]",
          "name": "values",
          "type": "uint256[]"
        },
        {
          "internalType": "bytes[]",
          "name": "payloads",
          "type": "bytes[]"
        },
        {
          "internalType": "bytes32",
          "name": "predecessor",
          "type": "bytes32"
        },
        {
          "internalType": "bytes32",
          "name": "salt",
          "type": "bytes32"
        }
      ],
      "name": "executeBatch",
      "outputs": [],
      "stateMutability": "payable",
      "type": "function"
    },
    {
      "inputs": [],
      "name": "getEffectiveDelay",
      "outputs": [
        {
          "internalType": "uint256",
          "name": "",
          "type": "uint256"
        }
      ],
      "stateMutability": "view",
      "type": "function"
    },
    {
      "inputs": [],
      "name": "getMinDelay",
      "outputs": [
        {
          "internalType": "uint256",
          "name": "",
          "type": "uint256"
        }
      ],
      "stateMutability": "view",
      "type": "function"
    },
    {
      "inputs": [
        {
          "internalType": "bytes32",
          "name": "id",
          "type": "bytes32"
        }
      ],
      "name": "getOperationState",
      "outputs": [
        {
          "internalType": "enum TimelockController.OperationState",
          "name": "",
          "type": "uint8"
        }
      ],
      "stateMutability": "view",
      "type": "function"
    },
    {
      "inputs": [
        {
          "internalType": "bytes32",
          "name": "role",
          "type": "bytes32"
        }
      ],
      "name": "getRoleAdmin",
      "outputs": [
        {
          "internalType": "bytes32",
          "name": "",
          "type": "bytes32"
        }
      ],
      "stateMutability": "view",
      "type": "function"
    },
    {
      "inputs": [
        {
          "internalType": "bytes32",
          "name": "id",
          "type": "bytes32"
        }
      ],
      "name": "getTimestamp",
      "outputs": [
        {
          "internalType": "uint256",
          "name": "",
          "type": "uint256"
        }
      ],
      "stateMutability": "view",
      "type": "function"
    },
    {
      "inputs": [
        {
          "internalType": "bytes32",
          "name": "role",
          "type": "bytes32"
        },
        {
          "internalType": "address",
          "name": "account",
          "type": "address"
        }
      ],
      "name": "grantRole",
      "outputs": [],
      "stateMutability": "nonpayable",
      "type": "function"
    },
    {
      "inputs": [
        {
          "internalType": "bytes32",
          "name": "role",
          "type": "bytes32"
        },
        {
          "internalType": "address",
          "name": "account",
          "type": "address"
        }
      ],
      "name": "hasRole",
      "outputs": [
        {
          "internalType": "bool",
          "name": "",
          "type": "bool"
        }
      ],
      "stateMutability": "view",
      "type": "function"
    },
    {
      "inputs": [
        {
          "internalType": "address",
          "name": "target",
          "type": "address"
        },
        {
          "internalType": "uint256",
          "name": "value",
          "type": "uint256"
        },
        {
          "internalType": "bytes",
          "name": "data",
          "type": "bytes"
        },
        {
          "internalType": "bytes32",
          "name": "predecessor",
          "type": "bytes32"
        },
        {
          "internalType": "bytes32",
          "name": "salt",
          "type": "bytes32"
        }
      ],
      "name": "hashOperation",
      "outputs": [
        {
          "internalType": "bytes32",
          "name": "",
          "type": "bytes32"
        }
      ],
      "stateMutability": "pure",
      "type": "function"
    },
    {
      "inputs": [
        {
          "internalType": "address[]",
          "name": "targets",
          "type": "address[]"
        },
        {
          "internalType": "uint256[]",
          "name": "values",
          "type": "uint256[]"
        },
        {
          "internalType": "bytes[]",
          "name": "payloads",
          "type": "bytes[]"
        },
        {
          "internalType": "bytes32",
          "name": "predecessor",
          "type": "bytes32"
        },
        {
          "internalType": "bytes32",
          "name": "salt",
          "type": "bytes32"
        }
      ],
      "name": "hashOperationBatch",
      "outputs": [
        {
          "internalType": "bytes32",
          "name": "",
          "type": "bytes32"
        }
      ],
      "stateMutability": "pure",
      "type": "function"
    },
    {
      "inputs": [
        {
          "internalType": "address",
          "name": "account",
          "type": "address"
        }
      ],
      "name": "isEmergencyOperator",
      "outputs": [
        {
          "internalType": "bool",
          "name": "",
          "type": "bool"
        }
      ],
      "stateMutability": "view",
      "type": "function"
    },
    {
      "inputs": [
        {
          "internalType": "bytes32",
          "name": "id",
          "type": "bytes32"
        }
      ],
      "name": "isOperation",
      "outputs": [
        {
          "internalType": "bool",
          "name": "",
          "type": "bool"
        }
      ],
      "stateMutability": "view",
      "type": "function"
    },
    {
      "inputs": [
        {
          "internalType": "bytes32",
          "name": "id",
          "type": "bytes32"
        }
      ],
      "name": "isOperationDone",
      "outputs": [
        {
          "internalType": "bool",
          "name": "",
          "type": "bool"
        }
      ],
      "stateMutability": "view",
      "type": "function"
    },
    {
      "inputs": [
        {
          "internalType": "bytes32",
          "name": "id",
          "type": "bytes32"
        }
      ],
      "name": "isOperationPending",
      "outputs": [
        {
          "internalType": "bool",
          "name": "",
          "type": "bool"
        }
      ],
      "stateMutability": "view",
      "type": "function"
    },
    {
      "inputs": [
        {
          "internalType": "bytes32",
          "name": "id",
          "type": "bytes32"
        }
      ],
      "name": "isOperationReady",
      "outputs": [
        {
          "internalType": "bool",
          "name": "",
          "type": "bool"
        }
      ],
      "stateMutability": "view",
      "type": "function"
    },
    {
      "inputs": [
        {
          "internalType": "address",
          "name": "",
          "type": "address"
        },
        {
          "internalType": "address",
          "name": "",
          "type": "address"
        },
        {
          "internalType": "uint256[]",
          "name": "",
          "type": "uint256[]"
        },
        {
          "internalType": "uint256[]",
          "name": "",
          "type": "uint256[]"
        },
        {
          "internalType": "bytes",
          "name": "",
          "type": "bytes"
        }
      ],
      "name": "onERC1155BatchReceived",
      "outputs": [
        {
          "internalType": "bytes4",
          "name": "",
          "type": "bytes4"
        }
      ],
      "stateMutability": "nonpayable",
      "type": "function"
    },
    {
      "inputs": [
        {
          "internalType": "address",
          "name": "",
          "type": "address"
        },
        {
          "internalType": "address",
          "name": "",
          "type": "address"
        },
        {
          "internalType": "uint256",
          "name": "",
          "type": "uint256"
        },
        {
          "internalType": "uint256",
          "name": "",
          "type": "uint256"
        },
        {
          "internalType": "bytes",
          "name": "",
          "type": "bytes"
        }
      ],
      "name": "onERC1155Received",
      "outputs": [
        {
          "internalType": "bytes4",
          "name": "",
          "type": "bytes4"
        }
      ],
      "stateMutability": "nonpayable",
      "type": "function"
    },
    {
      "inputs": [
        {
          "internalType": "address",
          "name": "",
          "type": "address"
        },
        {
          "internalType": "address",
          "name": "",
          "type": "address"
        },
        {
          "internalType": "uint256",
          "name": "",
          "type": "uint256"
        },
        {
          "internalType": "bytes",
          "name": "",
          "type": "bytes"
        }
      ],
      "name": "onERC721Received",
      "outputs": [
        {
          "internalType": "bytes4",
          "name": "",
          "type": "bytes4"
        }
      ],
      "stateMutability": "nonpayable",
      "type": "function"
    },
    {
      "inputs": [
        {
          "internalType": "address",
          "name": "operator",
          "type": "address"
        }
      ],
      "name": "removeEmergencyOperator",
      "outputs": [],
      "stateMutability": "nonpayable",
      "type": "function"
    },
    {
      "inputs": [
        {
          "internalType": "bytes32",
          "name": "role",
          "type": "bytes32"
        },
        {
          "internalType": "address",
          "name": "callerConfirmation",
          "type": "address"
        }
      ],
      "name": "renounceRole",
      "outputs": [],
      "stateMutability": "nonpayable",
      "type": "function"
    },
    {
      "inputs": [
        {
          "internalType": "bytes32",
          "name": "role",
          "type": "bytes32"
        },
        {
          "internalType": "address",
          "name": "account",
          "type": "address"
        }
      ],
      "name": "revokeRole",
      "outputs": [],
      "stateMutability": "nonpayable",
      "type": "function"
    },
    {
      "inputs": [
        {
          "internalType": "address",
          "name": "target",
          "type": "address"
        },
        {
          "internalType": "uint256",
          "name": "value",
          "type": "uint256"
        },
        {
          "internalType": "bytes",
          "name": "data",
          "type": "bytes"
        },
        {
          "internalType": "bytes32",
          "name": "predecessor",
          "type": "bytes32"
        },
        {
          "internalType": "bytes32",
          "name": "salt",
          "type": "bytes32"
        },
        {
          "internalType": "uint256",
          "name": "delay",
          "type": "uint256"
        }
      ],
      "name": "schedule",
      "outputs": [],
      "stateMutability": "nonpayable",
      "type": "function"
    },
    {
      "inputs": [
        {
          "internalType": "address[]",
          "name": "targets",
          "type": "address[]"
        },
        {
          "internalType": "uint256[]",
          "name": "values",
          "type": "uint256[]"
        },
        {
          "internalType": "bytes[]",
          "name": "payloads",
          "type": "bytes[]"
        },
        {
          "internalType": "bytes32",
          "name": "predecessor",
          "type": "bytes32"
        },
        {
          "internalType": "bytes32",
          "name": "salt",
          "type": "bytes32"
        },
        {
          "internalType": "uint256",
          "name": "delay",
          "type": "uint256"
        }
      ],
      "name": "scheduleBatch",
      "outputs": [],
      "stateMutability": "nonpayable",
      "type": "function"
    },
    {
      "inputs": [
        {
          "internalType": "bytes4",
          "name": "interfaceId",
          "type": "bytes4"
        }
      ],
      "name": "supportsInterface",
      "outputs": [
        {
          "internalType": "bool",
          "name": "",
          "type": "bool"
        }
      ],
      "stateMutability": "view",
      "type": "function"
    },
    {
      "inputs": [
        {
          "internalType": "uint256",
          "name": "newDelay",
          "type": "uint256"
        }
      ],
      "name": "updateDelay",
      "outputs": [],
      "stateMutability": "nonpayable",
      "type": "function"
    },
    {
      "stateMutability": "payable",
      "type": "receive"
    }
  ],
  "bytecode": "0x60806040523461002b5761001a610014610184565b916101c0565b604051611fe061050e8239611fe090f35b5f80fd5b634e487b7160e01b5f52604160045260245ffd5b90601f01601f191681019081106001600160401b0382111761006457604052565b61002f565b9061007d61007660405190565b9283610043565b565b6001600160401b0381116100645760208091020190565b6001600160a01b031690565b90565b6001600160a01b0381160361002b57565b9050519061007d826100a5565b909291926100d86100d38261007f565b610069565b938185526020808601920283019281841161002b57915b8383106100fc5750505050565b6020809161010a84866100b6565b8152019201916100ef565b9080601f8301121561002b5781516100a2926020016100c3565b909160608284031261002b5781516001600160401b03811161002b5783610157918401610115565b602083015190936001600160401b03821161002b57604061017d826100a2948701610115565b94016100b6565b6101a26124ee8038038061019781610069565b92833981019061012f565b909192565b6100a26100a26100a29290565b6100a26202a3006101a7565b9061007d92916101ce6101b4565b6102a0565b6100a25f6101a7565b6100a290610096906001600160a01b031682565b6100a2906101dc565b6100a2906101f0565b6100966100a26100a29290565b6100a290610202565b634e487b7160e01b5f52603260045260245ffd5b90610235825190565b811015610246576020809102010190565b610218565b905f19905b9181191691161790565b9061026a6100a2610271926101a7565b825461024b565b9055565b61027e906101a7565b9052565b91602061007d92949361029c60408201965f830190610275565b0152565b9093926102ab6101d3565b906102be6102b8306101f9565b8361045f565b506102cb6100965f61020f565b6001600160a01b03821603610416575b50506102e65f6101a7565b6102f16100a2865190565b81101561037757610372906103417fb09aa5aeb3702cfd50b6b62bc4532604938f21248a27a1d5ca736082b6819cc15b61033b61032e848a61022c565b516001600160a01b031690565b9061045f565b5061036b7ffd643c72710c63c0180259aba6b2d05451e3591a24e58b62239378085726f783610321565b5060010190565b6102e6565b50919092506103855f6101a7565b6103906100a2855190565b8110156103d1576103cc9061036b7fd8aa0f3194971a2a116679f7c2090f6939c8d4e01a2a8d7e41d55e5351469e6361033b61032e848961022c565b610385565b5091506104117f11c24f4ead16507c69ac467fbd5e4eed5fb5c699626d2cc6d66421df253886d59161040481600261025a565b6040519182915f83610282565b0390a1565b61041f9161045f565b505f806102db565b905b5f5260205260405f2090565b90610429906101f9565b9060ff90610250565b906104586100a261027192151590565b825461043f565b61047061046c83836104ee565b1590565b156104e157610494600161048f845f6104898682610427565b01610435565b610448565b6104ae6104a86104a2339390565b936101f9565b916101f9565b917f2f8788117e7eff1d82e926ec794901d17c78024a50270940304540a733656f0d6104d960405190565b5f90a4600190565b50505f90565b5460ff1690565b6100a2915f610489610508936105015f90565b5082610427565b6104e756fe6080604052600436101561001a575b3615610018575f80fd5b005b5f3560e01c806301d5062a1461027557806301ffc9a71461027057806307bd02651461026b5780630905f5601461026657806309705de814610261578063134008d31461025c57806313bc9f2014610257578063150b7a0214610252578063248a9ca31461024d5780632ab0f529146102485780632f2ff15d1461024357806331d507501461023e57806335ae85861461023957806336568abe14610234578063584b153e1461022f57806364d623531461022a5780637958004c146102255780638065657f1461022057806382944e2d1461021b5780638b5a073a146101c15780638f2a0bb0146102165780638f61f4f51461021157806391d148541461020c5780639f81aed714610207578063a10eb35414610202578063a217fddf146101fd578063b08e51c0146101f8578063b1c5f427146101f3578063bc197c81146101ee578063c4d252f5146101e9578063c5b1c7d0146101e4578063d45c4435146101df578063d547741f146101da578063e38335e5146101d5578063ed249e99146101d0578063ef952568146101cb578063f23a6e61146101c65763f27a0c920361000e575b6108a8565b610d2c565b610cd3565b610cbb565b610c9e565b610c85565b610c6a565b610c52565b610c3a565b610c1b565b610af4565b610a4a565b610a2f565b610a03565b6109e8565b6109b8565b61097f565b61095d565b61088d565b61084b565b610824565b6107bd565b6107a2565b610789565b610771565b610756565b61073d565b6106ff565b6106e4565b6106aa565b61057d565b61054f565b6104db565b61045c565b6103f1565b6103ba565b61035d565b6001600160a01b031690565b90565b6001600160a01b0381165b0361029b57565b5f80fd5b905035906102ac82610289565b565b80610294565b905035906102ac826102ae565b909182601f8301121561029b578135916001600160401b03831161029b57602001926001830284011161029b57565b9160c08383031261029b57610305828461029f565b9261031383602083016102b4565b9260408201356001600160401b03811161029b57816103339184016102c1565b92909361028661034684606085016102b4565b9360a061035682608087016102b4565b94016102b4565b3461029b5761037c6103703660046102f0565b95949094939193610eac565b604051005b0390f35b6001600160e01b03198116610294565b905035906102ac82610385565b9060208282031261029b5761028691610395565b9052565b3461029b576103816103d56103d03660046103a2565b610ebb565b60405191829182901515815260200190565b5f91031261029b57565b3461029b576104013660046103e7565b6103817fd8aa0f3194971a2a116679f7c2090f6939c8d4e01a2a8d7e41d55e5351469e635b6040515b9182918290815260200190565b610286916008021c5b60ff1690565b906102869154610437565b6102865f6003610446565b3461029b5761046c3660046103e7565b6103816103d5610451565b9060208282031261029b576102869161029f565b6102869061027a906001600160a01b031682565b6102869061048b565b6102869061049f565b906104bb906104a8565b5f5260205260405f2090565b5f6104d66102869260046104b1565b610446565b3461029b576103816103d56104f1366004610477565b6104c7565b9060a08282031261029b5761050b818361029f565b9261051982602085016102b4565b926040810135916001600160401b03831161029b5761053d846102869484016102c1565b939094608061035682606087016102b4565b61037c61055d3660046104f6565b94939093929192610fe8565b9060208282031261029b57610286916102b4565b3461029b576103816103d5610593366004610569565b610ff6565b634e487b7160e01b5f52604160045260245ffd5b90601f01601f191681019081106001600160401b038211176105cd57604052565b610598565b906102ac6105df60405190565b92836105ac565b6001600160401b0381116105cd57602090601f01601f19160190565b0190565b90825f939282370152565b90929192610626610621826105e6565b6105d2565b938185528183011161029b576102ac916020850190610606565b9080601f8301121561029b5781602061028693359101610611565b9060808282031261029b57610670818361029f565b9261067e826020850161029f565b9261068c83604083016102b4565b9260608201356001600160401b03811161029b576102869201610640565b3461029b576103816106c96106c036600461065b565b9291909161103f565b604051918291826001600160e01b0319909116815260200190565b3461029b576103816104266106fa366004610569565b61106f565b3461029b576103816103d5610715366004610569565b61108c565b919060408382031261029b5761028690602061073682866102b4565b940161029f565b3461029b5761037c61075036600461071a565b906110c1565b3461029b576103816103d561076c366004610569565b6110cb565b3461029b5761037c610784366004610477565b6111bb565b3461029b5761037c61079c36600461071a565b906111c4565b3461029b576103816103d56107b8366004610569565b6111f7565b3461029b5761037c6107d0366004610569565b611262565b634e487b7160e01b5f52602160045260245ffd5b600411156107f357565b6107d5565b906102ac826107e9565b610286906107f8565b6103b690610802565b6020810192916102ac919061080b565b3461029b5761038161083f61083a366004610569565b6112f8565b60405191829182610814565b3461029b576103816104266108613660046104f6565b94939093929192611347565b6102866102866102869290565b61028661384061086d565b61028661087a565b3461029b5761089d3660046103e7565b610381610426610885565b3461029b576108b83660046103e7565b61038161042661138d565b909182601f8301121561029b578135916001600160401b03831161029b57602001926020830284011161029b57565b9060c08282031261029b5781356001600160401b03811161029b57816109199184016108c3565b92909360208201356001600160401b03811161029b578361093b9184016108c3565b92909360408201356001600160401b03811161029b57816103339184016108c3565b3461029b5761037c6109703660046108f2565b979690969591959492946115da565b3461029b5761098f3660046103e7565b6103817fb09aa5aeb3702cfd50b6b62bc4532604938f21248a27a1d5ca736082b6819cc1610426565b3461029b576103816103d56109ce36600461071a565b906115eb565b6102866202a30061086d565b6102866109d4565b3461029b576109f83660046103e7565b6103816104266109e0565b3461029b576103816103d5610a19366004610477565b61160b565b6102865f61086d565b610286610a1e565b3461029b57610a3f3660046103e7565b610381610426610a27565b3461029b57610a5a3660046103e7565b6103817ffd643c72710c63c0180259aba6b2d05451e3591a24e58b62239378085726f783610426565b91909160a08184031261029b5780356001600160401b03811161029b5783610aac9183016108c3565b92909360208301356001600160401b03811161029b5781610ace9185016108c3565b9290936040810135916001600160401b03831161029b5761053d846102869484016108c3565b3461029b57610381610426610b0a366004610a83565b9695909594919493929361179b565b6001600160401b0381116105cd5760208091020190565b90929192610b4061062182610b19565b938185526020808601920283019281841161029b57915b838310610b645750505050565b60208091610b7284866102b4565b815201920191610b57565b9080601f8301121561029b5781602061028693359101610b30565b91909160a08184031261029b57610baf838261029f565b92610bbd816020840161029f565b9260408301356001600160401b03811161029b5782610bdd918501610b7d565b9260608101356001600160401b03811161029b5783610bfd918301610b7d565b9260808201356001600160401b03811161029b576102869201610640565b3461029b576103816106c9610c31366004610b98565b939290926117c3565b3461029b5761037c610c4d366004610569565b6118c6565b3461029b57610c623660046103e7565b61037c6118cf565b3461029b57610381610426610c80366004610569565b61195c565b3461029b5761037c610c9836600461071a565b90611992565b61037c610cac366004610a83565b96959095949194939293611ae1565b3461029b5761037c610cce366004610477565b611b95565b3461029b57610ce33660046103e7565b61037c611b9e565b91909160a08184031261029b57610d02838261029f565b92610d10816020840161029f565b92610d1e82604085016102b4565b92610bfd83606083016102b4565b3461029b576103816106c9610d42366004610ceb565b93929092611c18565b6102ac96959493929190610d837fb09aa5aeb3702cfd50b6b62bc4532604938f21248a27a1d5ca736082b6819cc1611c32565b611c32565b610dff565b9190610da681610d9f816106029560209181520190565b8095610606565b601f01601f191690565b91610dfb916102ac96989795608095610de6610df394610ddf60a08901955f8a01906001600160a01b03169052565b6020880152565b8583036040870152610d88565b966060830152565b0152565b610e607f4cf4410cc57040e44862ef0f45f3dd5a5e02db8eb8add648d4b0e236f1d07dca939597610e41610e37898b898b8989611347565b6102868382611c62565b988996610e4d5f61086d565b98610e5760405190565b96879687610db0565b0390a3610e6f6102865f61086d565b8103610e79575050565b610ea77f20fda5fd27a1ea7bf5b9567f143ac5470bb059374a27e8f67cb44f946f6d03879161042a60405190565b0390a2565b906102ac969594939291610d4b565b61028690611cd9565b61027a6102866102869290565b61028690610ec4565b6102ac9594939291907fd8aa0f3194971a2a116679f7c2090f6939c8d4e01a2a8d7e41d55e5351469e63610f1d610f19610f135f610ed1565b836115eb565b1590565b610f28575b50610f72565b610f3490335b90611d1f565b5f610f22565b610f656102869593949294610f5e60608401965f8501906001600160a01b03169052565b6020830152565b6040818503910152610d88565b907fc2617efa69bab66782fa219543714338489c4e9e178271560a91b82c3f612b5891610fb3610fac6102ac989695968887898787611347565b9687611d4d565b610fbf84868484611dfc565b610fe08694610fcd5f61086d565b96610fd760405190565b94859485610f3a565b0390a3611e2c565b906102ac9594939291610eda565b611002905f5b506112f8565b61101561100f60026107f8565b916107f8565b1490565b61103261102c6102869263ffffffff1690565b60e01b90565b6001600160e01b03191690565b5050505061104a5f90565b5061028663150b7a02611019565b906104bb565b6102869081565b610286905461105e565b60016110866102869261107f5f90565b505f611058565b01611065565b611096905f610ffc565b61101561100f60036107f8565b906102ac916110b4610d7e8261106f565b906110be91611e4b565b50565b906102ac916110a3565b6110d5905f610ffc565b6110e161100f5f6107f8565b141590565b6102ac906110f5610d7e610a1e565b611137565b61028690610440565b61028690546110fa565b9060ff905b9181191691161790565b9061112c61028661113392151590565b825461110d565b9055565b90600491611150610f1961114b83866104b1565b611103565b6111a15761116b5f6111668361117095966104b1565b61111c565b6104a8565b7f6c834f0e67211787b280587fc9569cdbe0cee29e689d73aa12b78f94c06d698f61119a60405190565b8080610ea7565b6374fa848360e01b5f9081528084526020840190fd5b035ffd5b6102ac906110e6565b906111ce3361027a565b6001600160a01b038216036111e6576110be91611ec4565b63334bd91960e11b5f908152600490fd5b611201905f610ffc565b61120b60016107f8565b611214826107f8565b14908115611220575090565b905061101561100f60026107f8565b9081526040810192916102ac9160200152565b905f1990611112565b9061125b6102866111339261086d565b8254611242565b3361126f61027a306104a8565b6001600160a01b038216036112ce5750807f11c24f4ead16507c69ac467fbd5e4eed5fb5c699626d2cc6d66421df253886d56102ac926112af6002611065565b6112c46112bb60405190565b9283928361122f565b0390a1600261124b565b63e2850c5960e01b5f9081526001600160a01b039091166004526024035ffd5b610286600161086d565b6113019061195c565b61130a5f61086d565b810361131557505f90565b6113206102866112ee565b810361132c5750600390565b4290611337565b9190565b111561134257600190565b600290565b91946113779461136b92946113595f90565b50604051978896602088019687610db0565b908103825203826105ac565b611389611382825190565b9160200190565b2090565b6113976003611103565b156109e05761028661087a565b6102ac9897969594939291906113d97fb09aa5aeb3702cfd50b6b62bc4532604938f21248a27a1d5ca736082b6819cc1611c32565b611485565b9081526060810193926102ac929091604091610dfb90610f5e565b634e487b7160e01b5f52603260045260245ffd5b919081101561141d576020020190565b6113f9565b3561028681610289565b35610286816102ae565b903590601e19368290030182121561029b57018035906001600160401b03821161029b576020019136829003831361029b57565b9082101561141d5760206114819202810190611436565b9091565b9793959194919290809882808b141580156115d0575b6115ac57506114b08986868b878c888861179b565b986114bb878b611c62565b6114c45f61086d565b8b5b8110156115565761154f818c61153c7f4cf4410cc57040e44862ef0f45f3dd5a5e02db8eb8add648d4b0e236f1d07dca8e8e6115468f8f8f8f9b8f918f61152b6114c69f849061152561152083611536996115309761140d565b611422565b9a61140d565b61142c565b9761146a565b97909890565b96610e4d8a61086d565b0390a360010190565b90506114c4565b509950505050505050505061156d6102865f61086d565b8203611577575050565b610ea76115a27f20fda5fd27a1ea7bf5b9567f143ac5470bb059374a27e8f67cb44f946f6d03879290565b9261042a60405190565b6111b75f918c6115b98890565b6001624fcdef60e01b0319855290600485016113de565b50848b141561149b565b906102ac98979695949392916113a4565b610286915f61160561114b936115fe5f90565b5082611058565b016104b1565b61114b610286916116195f90565b5060046104b1565b5061028690602081019061029f565b818352602090920191905f825b82821061164b575050505090565b9091929361167a6116736001926116628886611621565b6001600160a01b0316815260200190565b9560200190565b9392019061163d565b9037565b8183529091602001916001600160fb1b03811161029b57829160206106029202938491611683565b906102869291610d88565b9035601e19368390030181121561029b5701602081359101916001600160401b03821161029b5736829003831361029b57565b8183529160200190816117036020830284019490565b92835f925b8484106117185750505050505090565b909192939495602061174561173e83856001950388526117388b886116ba565b906116af565b9860200190565b940194019294939190611708565b939561178d610dfb946102ac999b9a9861177f60809995610df39760a08b01918b83035f8d0152611630565b9188830360208a0152611687565b9185830360408701526116ed565b939461137796919561136b949893986117b15f90565b50604051998a9860208a019889611753565b50505050506117cf5f90565b5061028663bc197c81611019565b6102ac9061180a7ffd643c72710c63c0180259aba6b2d05451e3591a24e58b62239378085726f783611c32565b611846565b915f1960089290920291821b911b611112565b91906118336102866111339361086d565b90835461180f565b6102ac915f91611822565b611852610f19826111f7565b61189857806102865f61186961186e946001611058565b61183b565b7fbaa1eb22f2a492ba1a5fea61b8df4d27c6c8b5f3971e63bb58fa14ff72eedb7061119a60405190565b6111b75f916118a76001611f38565b6118b16002611f38565b635ead8eb560e01b855217906004840161122f565b6102ac906117dd565b6118e0610f1961114b3360046104b1565b611947576118ee6003611103565b611931576118fe6001600361111c565b611907336104a8565b7fc0a1c7e9f05b4d536e1ff8606bae9b847cdb43ef4a9b2d7a503a88cee08dccdb61119a60405190565b6374fa848360e01b5f9081526001600452602490fd5b630af4334b60e31b5f90815233600452602490fd5b6119726102869161196a5f90565b506001611058565b611065565b906102ac91611988610d7e8261106f565b906110be91611ec4565b906102ac91611977565b6102ac97969594939291907fd8aa0f3194971a2a116679f7c2090f6939c8d4e01a2a8d7e41d55e5351469e636119d7610f19610f135f610ed1565b6119e2575b506119f2565b6119ec9033610f2e565b5f6119dc565b90919493976119fe8390565b9784808a14158015611ad7575b611aca5750611a23611a2a9189888d898c8a8a61179b565b9788611d4d565b611a335f61086d565b885b811015611ab857611ab18189611aa77fc2617efa69bab66782fa219543714338489c4e9e178271560a91b82c3f612b588e8c611546611a98878f8f8f8f9d611a9292611a359f6115208361152b95611a8c9361140d565b9861140d565b9561146a565b95909661028687898787611dfc565b94610fcd8861086d565b9050611a33565b50975050505050506102ac9150611e2c565b6111b75f918b6115b98a90565b50868a1415611a0b565b906102ac9796959493929161199c565b6102ac90611b00610d7e610a1e565b90611b0d61027a5f610ed1565b6001600160a01b03831614611b8457600491611b2c61114b82856104b1565b611b6d5761116b600161116683611b4395966104b1565b7fbdd49e85a74fcfac560707a2c9d43680d5750fc18c481581afd4a0de9b1532d561119a60405190565b6374fa848360e01b5f908152600184526020840190fd5b63e6c4247b60e01b5f908152600490fd5b6102ac90611af1565b611baf610f1961114b3360046104b1565b61194757611bc0610f196003611103565b611c0257611bcf5f600361111c565b611bd8336104a8565b7fa972065ead597970ce6435ff5c8c9c52ed08bce7f296a931c2aea74e0505584761119a60405190565b6374fa848360e01b5f9081526004819052602490fd5b5050505050611c245f90565b5061028663f23a6e61611019565b6102ac9033610f2e565b634e487b7160e01b5f52601160045260245ffd5b91908201809211611c5d57565b611c3c565b90611c6c826110cb565b611cb757611c7861138d565b808210611c9e575090611c99611c916102ac9342611c50565b916001611058565b61124b565b635433660960e01b5f908152916111b79190600461122f565b5f6111b783611cc583611f38565b635ead8eb560e01b8452906004840161122f565b630271189760e51b6001600160e01b0319821614908115611cf8575090565b6102869150611f63565b6001600160a01b0390911681526040810192916102ac9160200152565b90611d2d610f1982846115eb565b611d35575050565b63e2517d3f60e01b5f908152916111b7916004611d02565b611d59610f1982610ff6565b611da35750611d6a6102865f61086d565b81141580611d91575b611d7a5750565b63121534c360e31b5f908152600491909152602490fd5b50611d9e610f198261108c565b611d73565b6111b75f91611cc56002611f38565b90916106029083908093610606565b909161028692611db2565b90611dd9610621836105e6565b918252565b3d15611df757611ded3d611dcc565b903d5f602084013e565b606090565b6110be935f93928493611e1a611e1160405190565b93849283611dc1565b03925af1611e26611dde565b90611f9d565b611e38610f1982610ff6565b611da3576102ac90611c99611c916112ee565b611e58610f1983836115eb565b15611ebe57611e716001611166845f6116058682611058565b611e8b611e85611e7f339390565b936104a8565b916104a8565b917f2f8788117e7eff1d82e926ec794901d17c78024a50270940304540a733656f0d611eb660405190565b5f90a4600190565b50505f90565b611ece82826115eb565b15611ebe57611ee65f61116684826116058682611058565b611ef4611e85611e7f339390565b917ff6391f5c32d9c69d2a47ea670b442974b53935d1edc7fd64eb21e047a839171b611eb660405190565b61028690611f336113336102869460ff1690565b901b90565b611f5e611f4f61028692611f495f90565b50610802565b611f59600161086d565b611f1f565b61086d565b637965db0b60e01b6001600160e01b0319821614908115611f82575090565b61028691506001600160e01b0319166301ffc9a760e01b1490565b15611fa55790565b8051611fb36113335f61086d565b115f03611fcb5763d6bda27560e01b5f908152600490fd5b602081519101fdfea164736f6c634300081a000a",
  "linkReferences": {},
  "deployedLinkReferences": {}
}