{
  "_format": "hh-sol-artifact-1",
  "contractName": "FidesOriginTimelock",
  "sourceName": "contracts/FidesOriginTimelock.sol",
  "abi": [
    {
      "inputs": [
        {
          "internalType": "address[]",
          "name": "proposers",
          "type": "address[]"
        },
        {
          "internalType": "address[]",
          "name": "executors",
          "type": "address[]"
        },
        {
          "internalType": "address",
          "name": "admin",
          "type": "address"
        }
      ],
      "stateMutability": "nonpayable",
      "type": "constructor"
    },
    {
      "inputs": [],
      "name": "AccessControlBadConfirmation",
      "type": "error"
    },
    {
      "inputs": [
        {
          "internalType": "address",
          "name": "account",
          "type": "address"
        },
        {
          "internalType": "bytes32",
          "name": "neededRole",
          "type": "bytes32"
        }
      ],
      "name": "AccessControlUnauthorizedAccount",
      "type": "error"
    },
    {
      "inputs": [
        {
          "internalType": "bool",
          "name": "current",
          "type": "bool"
        }
      ],
      "name": "EmergencyModeAlreadySet",
      "type": "error"
    },
    {
      "inputs": [
        {
          "internalType": "uint256",
          "name": "availableAt",
          "type": "uint256"
        }
      ],
      "name": "EmergencyModeTimelockActive",
      "type": "error"
    },
    {
      "inputs": [
        {
          "internalType": "bool",
          "name": "current",
          "type": "bool"
        }
      ],
      "name": "EmergencyOperatorAlreadySet",
      "type": "error"
    },
    {
      "inputs": [],
      "name": "FailedCall",
      "type": "error"
    },
    {
      "inputs": [],
      "name": "InvalidAddress",
      "type": "error"
    },
    {
      "inputs": [
        {
          "internalType": "address",
          "name": "caller",
          "type": "address"
        }
      ],
      "name": "NotEmergencyOperator",
      "type": "error"
    },
    {
      "inputs": [
        {
          "internalType": "uint256",
          "name": "delay",
          "type": "uint256"
        },
        {
          "internalType": "uint256",
          "name": "minDelay",
          "type": "uint256"
        }
      ],
      "name": "TimelockInsufficientDelay",
      "type": "error"
    },
    {
      "inputs": [
        {
          "internalType": "uint256",
          "name": "targets",
          "type": "uint256"
        },
        {
          "internalType": "uint256",
          "name": "payloads",
          "type": "uint256"
        },
        {
          "internalType": "uint256",
          "name": "values",
          "type": "uint256"
        }
      ],
      "name": "TimelockInvalidOperationLength",
      "type": "error"
    },
    {
      "inputs": [
        {
          "internalType": "address",
          "name": "caller",
          "type": "address"
        }
      ],
      "name": "TimelockUnauthorizedCaller",
      "type": "error"
    },
    {
      "inputs": [
        {
          "internalType": "bytes32",
          "name": "predecessorId",
          "type": "bytes32"
        }
      ],
      "name": "TimelockUnexecutedPredecessor",
      "type": "error"
    },
    {
      "inputs": [
        {
          "internalType": "bytes32",
          "name": "operationId",
          "type": "bytes32"
        },
        {
          "internalType": "bytes32",
          "name": "expectedStates",
          "type": "bytes32"
        }
      ],
      "name": "TimelockUnexpectedOperationState",
      "type": "error"
    },
    {
      "anonymous": false,
      "inputs": [
        {
          "indexed": true,
          "internalType": "bytes32",
          "name": "id",
          "type": "bytes32"
        },
        {
          "indexed": true,
          "internalType": "uint256",
          "name": "index",
          "type": "uint256"
        },
        {
          "indexed": false,
          "internalType": "address",
          "name": "target",
          "type": "address"
        },
        {
          "indexed": false,
          "internalType": "uint256",
          "name": "value",
          "type": "uint256"
        },
        {
          "indexed": false,
          "internalType": "bytes",
          "name": "data",
          "type": "bytes"
        }
      ],
      "name": "CallExecuted",
      "type": "event"
    },
    {
      "anonymous": false,
      "inputs": [
        {
          "indexed": true,
          "internalType": "bytes32",
          "name": "id",
          "type": "bytes32"
        },
        {
          "indexed": false,
          "internalType": "bytes32",
          "name": "salt",
          "type": "bytes32"
        }
      ],
      "name": "CallSalt",
      "type": "event"
    },
    {
      "anonymous": false,
      "inputs": [
        {
          "indexed": true,
          "internalType": "bytes32",
          "name": "id",
          "type": "bytes32"
        },
        {
          "indexed": true,
          "internalType": "uint256",
          "name": "index",
          "type": "uint256"
        },
        {
          "indexed": false,
          "internalType": "address",
          "name": "target",
          "type": "address"
        },
        {
          "indexed": false,
          "internalType": "uint256",
          "name": "value",
          "type": "uint256"
        },
        {
          "indexed": false,
          "internalType": "bytes",
          "name": "data",
          "type": "bytes"
        },
        {
          "indexed": false,
          "internalType": "bytes32",
          "name": "predecessor",
          "type": "bytes32"
        },
        {
          "indexed": false,
          "internalType": "uint256",
          "name": "delay",
          "type": "uint256"
        }
      ],
      "name": "CallScheduled",
      "type": "event"
    },
    {
      "anonymous": false,
      "inputs": [
        {
          "indexed": true,
          "internalType": "bytes32",
          "name": "id",
          "type": "bytes32"
        }
      ],
      "name": "Cancelled",
      "type": "event"
    },
    {
      "anonymous": false,
      "inputs": [
        {
          "indexed": true,
          "internalType": "address",
          "name": "operator",
          "type": "address"
        }
      ],
      "name": "EmergencyModeDisabled",
      "type": "event"
    },
    {
      "anonymous": false,
      "inputs": [
        {
          "indexed": true,
          "internalType": "address",
          "name": "operator",
          "type": "address"
        }
      ],
      "name": "EmergencyModeEnabled",
      "type": "event"
    },
    {
      "anonymous": false,
      "inputs": [
        {
          "indexed": true,
          "internalType": "address",
          "name": "operator",
          "type": "address"
        }
      ],
      "name": "EmergencyOperatorAdded",
      "type": "event"
    },
    {
      "anonymous": false,
      "inputs": [
        {
          "indexed": true,
          "internalType": "address",
          "name": "operator",
          "type": "address"
        }
      ],
      "name": "EmergencyOperatorRemoved",
      "type": "event"
    },
    {
      "anonymous": false,
      "inputs": [
        {
          "indexed": false,
          "internalType": "uint256",
          "name": "oldDuration",
          "type": "uint256"
        },
        {
          "indexed": false,
          "internalType": "uint256",
          "name": "newDuration",
          "type": "uint256"
        }
      ],
      "name": "MinDelayChange",
      "type": "event"
    },
    {
      "anonymous": false,
      "inputs": [
        {
          "indexed": true,
          "internalType": "bytes32",
          "name": "role",
          "type": "bytes32"
        },
        {
          "indexed": true,
          "internalType": "bytes32",
          "name": "previousAdminRole",
          "type": "bytes32"
        },
        {
          "indexed": true,
          "internalType": "bytes32",
          "name": "newAdminRole",
          "type": "bytes32"
        }
      ],
      "name": "RoleAdminChanged",
      "type": "event"
    },
    {
      "anonymous": false,
      "inputs": [
        {
          "indexed": true,
          "internalType": "bytes32",
          "name": "role",
          "type": "bytes32"
        },
        {
          "indexed": true,
          "internalType": "address",
          "name": "account",
          "type": "address"
        },
        {
          "indexed": true,
          "internalType": "address",
          "name": "sender",
          "type": "address"
        }
      ],
      "name": "RoleGranted",
      "type": "event"
    },
    {
      "anonymous": false,
      "inputs": [
        {
          "indexed": true,
          "internalType": "bytes32",
          "name": "role",
          "type": "bytes32"
        },
        {
          "indexed": true,
          "internalType": "address",
          "name": "account",
          "type": "address"
        },
        {
          "indexed": true,
          "internalType": "address",
          "name": "sender",
          "type": "address"
        }
      ],
      "name": "RoleRevoked",
      "type": "event"
    },
    {
      "inputs": [],
      "name": "CANCELLER_ROLE",
      "outputs": [
        {
          "internalType": "bytes32",
          "name": "",
          "type": "bytes32"
        }
      ],
      "stateMutability": "view",
      "type": "function"
    },
    {
      "inputs": [],
      "name": "DEFAULT_ADMIN_ROLE",
      "outputs": [
        {
          "internalType": "bytes32",
          "name": "",
          "type": "bytes32"
        }
      ],
      "stateMutability": "view",
      "type": "function"
    },
    {
      "inputs": [],
      "name": "EMERGENCY_DELAY",
      "outputs": [
        {
          "internalType": "uint256",
          "name": "",
          "type": "uint256"
        }
      ],
      "stateMutability": "view",
      "type": "function"
    },
    {
      "inputs": [],
      "name": "EXECUTOR_ROLE",
      "outputs": [
        {
          "internalType": "bytes32",
          "name": "",
          "type": "bytes32"
        }
      ],
      "stateMutability": "view",
      "type": "function"
    },
    {
      "inputs": [],
      "name": "MIN_DELAY",
      "outputs": [
        {
          "internalType": "uint256",
          "name": "",
          "type": "uint256"
        }
      ],
      "stateMutability": "view",
      "type": "function"
    },
    {
      "inputs": [],
      "name": "PROPOSER_ROLE",
      "outputs": [
        {
          "internalType": "bytes32",
          "name": "",
          "type": "bytes32"
        }
      ],
      "stateMutability": "view",
      "type": "function"
    },
    {
      "inputs": [
        {
          "internalType": "address",
          "name": "operator",
          "type": "address"
        }
      ],
      "name": "addEmergencyOperator",
      "outputs": [],
      "stateMutability": "nonpayable",
      "type": "function"
    },
    {
      "inputs": [
        {
          "internalType": "bytes32",
          "name": "id",
          "type": "bytes32"
        }
      ],
      "name": "cancel",
      "outputs": [],
      "stateMutability": "nonpayable",
      "type": "function"
    },
    {
      "inputs": [],
      "name": "emergencyMode",
      "outputs": [
        {
          "internalType": "bool",
          "name": "",
          "type": "bool"
        }
      ],
      "stateMutability": "view",
      "type": "function"
    },
    {
      "inputs": [],
      "name": "emergencyModeChangeTimestamp",
      "outputs": [
        {
          "internalType": "uint256",
          "name": "",
          "type": "uint256"
        }
      ],
      "stateMutability": "view",
      "type": "function"
    },
    {
      "inputs": [
        {
          "internalType": "address",
          "name": "",
          "type": "address"
        }
      ],
      "name": "emergencyOperators",
      "outputs": [
        {
          "internalType": "bool",
          "name": "",
          "type": "bool"
        }
      ],
      "stateMutability": "view",
      "type": "function"
    },
    {
      "inputs": [
        {
          "internalType": "address",
          "name": "target",
          "type": "address"
        },
        {
          "internalType": "uint256",
          "name": "value",
          "type": "uint256"
        },
        {
          "internalType": "bytes",
          "name": "payload",
          "type": "bytes"
        },
        {
          "internalType": "bytes32",
          "name": "predecessor",
          "type": "bytes32"
        },
        {
          "internalType": "bytes32",
          "name": "salt",
          "type": "bytes32"
        }
      ],
      "name": "execute",
      "outputs": [],
      "stateMutability": "payable",
      "type": "function"
    },
    {
      "inputs": [
        {
          "internalType": "address[]",
          "name": "targets",
          "type": "address[]"
        },
        {
          "internalType": "uint256[]",
          "name": "values",
          "type": "uint256[]"
        },
        {
          "internalType": "bytes[]",
          "name": "payloads",
          "type": "bytes[]"
        },
        {
          "internalType": "bytes32",
          "name": "predecessor",
          "type": "bytes32"
        },
        {
          "internalType": "bytes32",
          "name": "salt",
          "type": "bytes32"
        }
      ],
      "name": "executeBatch",
      "outputs": [],
      "stateMutability": "payable",
      "type": "function"
    },
    {
      "inputs": [],
      "name": "executeEmergencyModeChange",
      "outputs": [],
      "stateMutability": "nonpayable",
      "type": "function"
    },
    {
      "inputs": [],
      "name": "getEffectiveDelay",
      "outputs": [
        {
          "internalType": "uint256",
          "name": "",
          "type": "uint256"
        }
      ],
      "stateMutability": "view",
      "type": "function"
    },
    {
      "inputs": [],
      "name": "getMinDelay",
      "outputs": [
        {
          "internalType": "uint256",
          "name": "",
          "type": "uint256"
        }
      ],
      "stateMutability": "view",
      "type": "function"
    },
    {
      "inputs": [
        {
          "internalType": "bytes32",
          "name": "id",
          "type": "bytes32"
        }
      ],
      "name": "getOperationState",
      "outputs": [
        {
          "internalType": "enum TimelockController.OperationState",
          "name": "",
          "type": "uint8"
        }
      ],
      "stateMutability": "view",
      "type": "function"
    },
    {
      "inputs": [
        {
          "internalType": "bytes32",
          "name": "role",
          "type": "bytes32"
        }
      ],
      "name": "getRoleAdmin",
      "outputs": [
        {
          "internalType": "bytes32",
          "name": "",
          "type": "bytes32"
        }
      ],
      "stateMutability": "view",
      "type": "function"
    },
    {
      "inputs": [
        {
          "internalType": "bytes32",
          "name": "id",
          "type": "bytes32"
        }
      ],
      "name": "getTimestamp",
      "outputs": [
        {
          "internalType": "uint256",
          "name": "",
          "type": "uint256"
        }
      ],
      "stateMutability": "view",
      "type": "function"
    },
    {
      "inputs": [
        {
          "internalType": "bytes32",
          "name": "role",
          "type": "bytes32"
        },
        {
          "internalType": "address",
          "name": "account",
          "type": "address"
        }
      ],
      "name": "grantRole",
      "outputs": [],
      "stateMutability": "nonpayable",
      "type": "function"
    },
    {
      "inputs": [
        {
          "internalType": "bytes32",
          "name": "role",
          "type": "bytes32"
        },
        {
          "internalType": "address",
          "name": "account",
          "type": "address"
        }
      ],
      "name": "hasRole",
      "outputs": [
        {
          "internalType": "bool",
          "name": "",
          "type": "bool"
        }
      ],
      "stateMutability": "view",
      "type": "function"
    },
    {
      "inputs": [
        {
          "internalType": "address",
          "name": "target",
          "type": "address"
        },
        {
          "internalType": "uint256",
          "name": "value",
          "type": "uint256"
        },
        {
          "internalType": "bytes",
          "name": "data",
          "type": "bytes"
        },
        {
          "internalType": "bytes32",
          "name": "predecessor",
          "type": "bytes32"
        },
        {
          "internalType": "bytes32",
          "name": "salt",
          "type": "bytes32"
        }
      ],
      "name": "hashOperation",
      "outputs": [
        {
          "internalType": "bytes32",
          "name": "",
          "type": "bytes32"
        }
      ],
      "stateMutability": "pure",
      "type": "function"
    },
    {
      "inputs": [
        {
          "internalType": "address[]",
          "name": "targets",
          "type": "address[]"
        },
        {
          "internalType": "uint256[]",
          "name": "values",
          "type": "uint256[]"
        },
        {
          "internalType": "bytes[]",
          "name": "payloads",
          "type": "bytes[]"
        },
        {
          "internalType": "bytes32",
          "name": "predecessor",
          "type": "bytes32"
        },
        {
          "internalType": "bytes32",
          "name": "salt",
          "type": "bytes32"
        }
      ],
      "name": "hashOperationBatch",
      "outputs": [
        {
          "internalType": "bytes32",
          "name": "",
          "type": "bytes32"
        }
      ],
      "stateMutability": "pure",
      "type": "function"
    },
    {
      "inputs": [
        {
          "internalType": "address",
          "name": "account",
          "type": "address"
        }
      ],
      "name": "isEmergencyOperator",
      "outputs": [
        {
          "internalType": "bool",
          "name": "",
          "type": "bool"
        }
      ],
      "stateMutability": "view",
      "type": "function"
    },
    {
      "inputs": [
        {
          "internalType": "bytes32",
          "name": "id",
          "type": "bytes32"
        }
      ],
      "name": "isOperation",
      "outputs": [
        {
          "internalType": "bool",
          "name": "",
          "type": "bool"
        }
      ],
      "stateMutability": "view",
      "type": "function"
    },
    {
      "inputs": [
        {
          "internalType": "bytes32",
          "name": "id",
          "type": "bytes32"
        }
      ],
      "name": "isOperationDone",
      "outputs": [
        {
          "internalType": "bool",
          "name": "",
          "type": "bool"
        }
      ],
      "stateMutability": "view",
      "type": "function"
    },
    {
      "inputs": [
        {
          "internalType": "bytes32",
          "name": "id",
          "type": "bytes32"
        }
      ],
      "name": "isOperationPending",
      "outputs": [
        {
          "internalType": "bool",
          "name": "",
          "type": "bool"
        }
      ],
      "stateMutability": "view",
      "type": "function"
    },
    {
      "inputs": [
        {
          "internalType": "bytes32",
          "name": "id",
          "type": "bytes32"
        }
      ],
      "name": "isOperationReady",
      "outputs": [
        {
          "internalType": "bool",
          "name": "",
          "type": "bool"
        }
      ],
      "stateMutability": "view",
      "type": "function"
    },
    {
      "inputs": [
        {
          "internalType": "address",
          "name": "",
          "type": "address"
        },
        {
          "internalType": "address",
          "name": "",
          "type": "address"
        },
        {
          "internalType": "uint256[]",
          "name": "",
          "type": "uint256[]"
        },
        {
          "internalType": "uint256[]",
          "name": "",
          "type": "uint256[]"
        },
        {
          "internalType": "bytes",
          "name": "",
          "type": "bytes"
        }
      ],
      "name": "onERC1155BatchReceived",
      "outputs": [
        {
          "internalType": "bytes4",
          "name": "",
          "type": "bytes4"
        }
      ],
      "stateMutability": "nonpayable",
      "type": "function"
    },
    {
      "inputs": [
        {
          "internalType": "address",
          "name": "",
          "type": "address"
        },
        {
          "internalType": "address",
          "name": "",
          "type": "address"
        },
        {
          "internalType": "uint256",
          "name": "",
          "type": "uint256"
        },
        {
          "internalType": "uint256",
          "name": "",
          "type": "uint256"
        },
        {
          "internalType": "bytes",
          "name": "",
          "type": "bytes"
        }
      ],
      "name": "onERC1155Received",
      "outputs": [
        {
          "internalType": "bytes4",
          "name": "",
          "type": "bytes4"
        }
      ],
      "stateMutability": "nonpayable",
      "type": "function"
    },
    {
      "inputs": [
        {
          "internalType": "address",
          "name": "",
          "type": "address"
        },
        {
          "internalType": "address",
          "name": "",
          "type": "address"
        },
        {
          "internalType": "uint256",
          "name": "",
          "type": "uint256"
        },
        {
          "internalType": "bytes",
          "name": "",
          "type": "bytes"
        }
      ],
      "name": "onERC721Received",
      "outputs": [
        {
          "internalType": "bytes4",
          "name": "",
          "type": "bytes4"
        }
      ],
      "stateMutability": "nonpayable",
      "type": "function"
    },
    {
      "inputs": [],
      "name": "pendingEmergencyMode",
      "outputs": [
        {
          "internalType": "bool",
          "name": "",
          "type": "bool"
        }
      ],
      "stateMutability": "view",
      "type": "function"
    },
    {
      "inputs": [],
      "name": "proposeDisableEmergencyMode",
      "outputs": [],
      "stateMutability": "nonpayable",
      "type": "function"
    },
    {
      "inputs": [],
      "name": "proposeEnableEmergencyMode",
      "outputs": [],
      "stateMutability": "nonpayable",
      "type": "function"
    },
    {
      "inputs": [
        {
          "internalType": "address",
          "name": "operator",
          "type": "address"
        }
      ],
      "name": "removeEmergencyOperator",
      "outputs": [],
      "stateMutability": "nonpayable",
      "type": "function"
    },
    {
      "inputs": [
        {
          "internalType": "bytes32",
          "name": "role",
          "type": "bytes32"
        },
        {
          "internalType": "address",
          "name": "callerConfirmation",
          "type": "address"
        }
      ],
      "name": "renounceRole",
      "outputs": [],
      "stateMutability": "nonpayable",
      "type": "function"
    },
    {
      "inputs": [
        {
          "internalType": "bytes32",
          "name": "role",
          "type": "bytes32"
        },
        {
          "internalType": "address",
          "name": "account",
          "type": "address"
        }
      ],
      "name": "revokeRole",
      "outputs": [],
      "stateMutability": "nonpayable",
      "type": "function"
    },
    {
      "inputs": [
        {
          "internalType": "address",
          "name": "target",
          "type": "address"
        },
        {
          "internalType": "uint256",
          "name": "value",
          "type": "uint256"
        },
        {
          "internalType": "bytes",
          "name": "data",
          "type": "bytes"
        },
        {
          "internalType": "bytes32",
          "name": "predecessor",
          "type": "bytes32"
        },
        {
          "internalType": "bytes32",
          "name": "salt",
          "type": "bytes32"
        },
        {
          "internalType": "uint256",
          "name": "delay",
          "type": "uint256"
        }
      ],
      "name": "schedule",
      "outputs": [],
      "stateMutability": "nonpayable",
      "type": "function"
    },
    {
      "inputs": [
        {
          "internalType": "address[]",
          "name": "targets",
          "type": "address[]"
        },
        {
          "internalType": "uint256[]",
          "name": "values",
          "type": "uint256[]"
        },
        {
          "internalType": "bytes[]",
          "name": "payloads",
          "type": "bytes[]"
        },
        {
          "internalType": "bytes32",
          "name": "predecessor",
          "type": "bytes32"
        },
        {
          "internalType": "bytes32",
          "name": "salt",
          "type": "bytes32"
        },
        {
          "internalType": "uint256",
          "name": "delay",
          "type": "uint256"
        }
      ],
      "name": "scheduleBatch",
      "outputs": [],
      "stateMutability": "nonpayable",
      "type": "function"
    },
    {
      "inputs": [
        {
          "internalType": "bytes4",
          "name": "interfaceId",
          "type": "bytes4"
        }
      ],
      "name": "supportsInterface",
      "outputs": [
        {
          "internalType": "bool",
          "name": "",
          "type": "bool"
        }
      ],
      "stateMutability": "view",
      "type": "function"
    },
    {
      "inputs": [
        {
          "internalType": "uint256",
          "name": "newDelay",
          "type": "uint256"
        }
      ],
      "name": "updateDelay",
      "outputs": [],
      "stateMutability": "nonpayable",
      "type": "function"
    },
    {
      "stateMutability": "payable",
      "type": "receive"
    }
  ],
  "bytecode": "0x60806040523461002b5761001a610014610184565b916101c0565b6040516121e161050e82396121e190f35b5f80fd5b634e487b7160e01b5f52604160045260245ffd5b90601f01601f191681019081106001600160401b0382111761006457604052565b61002f565b9061007d61007660405190565b9283610043565b565b6001600160401b0381116100645760208091020190565b6001600160a01b031690565b90565b6001600160a01b0381160361002b57565b9050519061007d826100a5565b909291926100d86100d38261007f565b610069565b938185526020808601920283019281841161002b57915b8383106100fc5750505050565b6020809161010a84866100b6565b8152019201916100ef565b9080601f8301121561002b5781516100a2926020016100c3565b909160608284031261002b5781516001600160401b03811161002b5783610157918401610115565b602083015190936001600160401b03821161002b57604061017d826100a2948701610115565b94016100b6565b6101a26126ef8038038061019781610069565b92833981019061012f565b909192565b6100a26100a26100a29290565b6100a26202a3006101a7565b9061007d92916101ce6101b4565b6102a0565b6100a25f6101a7565b6100a290610096906001600160a01b031682565b6100a2906101dc565b6100a2906101f0565b6100966100a26100a29290565b6100a290610202565b634e487b7160e01b5f52603260045260245ffd5b90610235825190565b811015610246576020809102010190565b610218565b905f19905b9181191691161790565b9061026a6100a2610271926101a7565b825461024b565b9055565b61027e906101a7565b9052565b91602061007d92949361029c60408201965f830190610275565b0152565b9093926102ab6101d3565b906102be6102b8306101f9565b8361045f565b506102cb6100965f61020f565b6001600160a01b03821603610416575b50506102e65f6101a7565b6102f16100a2865190565b81101561037757610372906103417fb09aa5aeb3702cfd50b6b62bc4532604938f21248a27a1d5ca736082b6819cc15b61033b61032e848a61022c565b516001600160a01b031690565b9061045f565b5061036b7ffd643c72710c63c0180259aba6b2d05451e3591a24e58b62239378085726f783610321565b5060010190565b6102e6565b50919092506103855f6101a7565b6103906100a2855190565b8110156103d1576103cc9061036b7fd8aa0f3194971a2a116679f7c2090f6939c8d4e01a2a8d7e41d55e5351469e6361033b61032e848961022c565b610385565b5091506104117f11c24f4ead16507c69ac467fbd5e4eed5fb5c699626d2cc6d66421df253886d59161040481600261025a565b6040519182915f83610282565b0390a1565b61041f9161045f565b505f806102db565b905b5f5260205260405f2090565b90610429906101f9565b9060ff90610250565b906104586100a261027192151590565b825461043f565b61047061046c83836104ee565b1590565b156104e157610494600161048f845f6104898682610427565b01610435565b610448565b6104ae6104a86104a2339390565b936101f9565b916101f9565b917f2f8788117e7eff1d82e926ec794901d17c78024a50270940304540a733656f0d6104d960405190565b5f90a4600190565b50505f90565b5460ff1690565b6100a2915f610489610508936105015f90565b5082610427565b6104e756fe6080604052600436101561001a575b3615610018575f80fd5b005b5f3560e01c806301d5062a146102a457806301ffc9a71461029f57806307bd02651461029a5780630905f5601461029557806309705de814610290578063134008d31461028b57806313bc9f2014610286578063150b7a0214610281578063248a9ca31461027c5780632ab0f529146102775780632f2ff15d1461027257806331d507501461026d57806335ae85861461026857806336568abe14610263578063584b153e1461025e5780635efbdcff1461025957806364d62353146102545780637958004c1461024f5780638065657f1461024a57806382944e2d146102455780638b5a073a146101e65780638f2a0bb0146102405780638f61f4f51461023b57806391d14854146102365780639f81aed714610231578063a10eb3541461022c578063a217fddf14610227578063b08e51c014610222578063b1c5f4271461021d578063bc197c8114610218578063c4d252f514610213578063cdce6c9a1461020e578063d45c443514610209578063d547741f14610204578063d6a12735146101ff578063db914be5146101fa578063e38335e5146101f5578063ed249e99146101f0578063f23a6e61146101eb578063f27a0c92146101e65763f78d24d60361000e57610ddd565b6108ef565b610dbe565b610d65565b610d48565b610d2d565b610d09565b610cf0565b610cd5565b610cba565b610c81565b610c62565b610b3b565b610a91565b610a76565b610a4a565b610a2f565b6109ff565b6109c6565b6109a4565b6108d4565b610892565b61086b565b610804565b6107ec565b6107d1565b6107b8565b6107a0565b610785565b61076c565b61072e565b610713565b6106d9565b6105ac565b61057e565b61050a565b61048b565b610420565b6103e9565b61038c565b6001600160a01b031690565b90565b6001600160a01b0381165b036102ca57565b5f80fd5b905035906102db826102b8565b565b806102c3565b905035906102db826102dd565b909182601f830112156102ca578135916001600160401b0383116102ca5760200192600183028401116102ca57565b9160c0838303126102ca5761033482846102ce565b9261034283602083016102e3565b9260408201356001600160401b0381116102ca57816103629184016102f0565b9290936102b561037584606085016102e3565b9360a061038582608087016102e3565b94016102e3565b346102ca576103ab61039f36600461031f565b95949094939193610f56565b604051005b0390f35b6001600160e01b031981166102c3565b905035906102db826103b4565b906020828203126102ca576102b5916103c4565b9052565b346102ca576103b06104046103ff3660046103d1565b610f65565b60405191829182901515815260200190565b5f9103126102ca57565b346102ca57610430366004610416565b6103b07fd8aa0f3194971a2a116679f7c2090f6939c8d4e01a2a8d7e41d55e5351469e635b6040515b9182918290815260200190565b6102b5916008021c5b60ff1690565b906102b59154610466565b6102b55f6003610475565b346102ca5761049b366004610416565b6103b0610404610480565b906020828203126102ca576102b5916102ce565b6102b5906102a9906001600160a01b031682565b6102b5906104ba565b6102b5906104ce565b906104ea906104d7565b5f5260205260405f2090565b5f6105056102b59260056104e0565b610475565b346102ca576103b06104046105203660046104a6565b6104f6565b9060a0828203126102ca5761053a81836102ce565b9261054882602085016102e3565b926040810135916001600160401b0383116102ca5761056c846102b59484016102f0565b939094608061038582606087016102e3565b6103ab61058c366004610525565b94939093929192611092565b906020828203126102ca576102b5916102e3565b346102ca576103b06104046105c2366004610598565b6110a0565b634e487b7160e01b5f52604160045260245ffd5b90601f01601f191681019081106001600160401b038211176105fc57604052565b6105c7565b906102db61060e60405190565b92836105db565b6001600160401b0381116105fc57602090601f01601f19160190565b0190565b90825f939282370152565b9092919261065561065082610615565b610601565b93818552818301116102ca576102db916020850190610635565b9080601f830112156102ca578160206102b593359101610640565b906080828203126102ca5761069f81836102ce565b926106ad82602085016102ce565b926106bb83604083016102e3565b9260608201356001600160401b0381116102ca576102b5920161066f565b346102ca576103b06106f86106ef36600461068a565b929190916110e9565b604051918291826001600160e01b0319909116815260200190565b346102ca576103b0610455610729366004610598565b611119565b346102ca576103b0610404610744366004610598565b611136565b91906040838203126102ca576102b590602061076582866102e3565b94016102ce565b346102ca576103ab61077f366004610749565b9061116b565b346102ca576103b061040461079b366004610598565b611175565b346102ca576103ab6107b33660046104a6565b611263565b346102ca576103ab6107cb366004610749565b9061126c565b346102ca576103b06104046107e7366004610598565b61129f565b346102ca576107fc366004610416565b6103ab611357565b346102ca576103ab610817366004610598565b611460565b634e487b7160e01b5f52602160045260245ffd5b6004111561083a57565b61081c565b906102db82610830565b6102b59061083f565b6103e590610849565b6020810192916102db9190610852565b346102ca576103b0610886610881366004610598565b6114f6565b6040519182918261085b565b346102ca576103b06104556108a8366004610525565b9493909392919261153b565b6102b56102b56102b59290565b6102b56138406108b4565b6102b56108c1565b346102ca576108e4366004610416565b6103b06104556108cc565b346102ca576108ff366004610416565b6103b0610455611581565b909182601f830112156102ca578135916001600160401b0383116102ca5760200192602083028401116102ca57565b9060c0828203126102ca5781356001600160401b0381116102ca578161096091840161090a565b92909360208201356001600160401b0381116102ca578361098291840161090a565b92909360408201356001600160401b0381116102ca578161036291840161090a565b346102ca576103ab6109b7366004610939565b979690969591959492946117ce565b346102ca576109d6366004610416565b6103b07fb09aa5aeb3702cfd50b6b62bc4532604938f21248a27a1d5ca736082b6819cc1610455565b346102ca576103b0610404610a15366004610749565b906117df565b6102b56202a3006108b4565b6102b5610a1b565b346102ca57610a3f366004610416565b6103b0610455610a27565b346102ca576103b0610404610a603660046104a6565b6117ff565b6102b55f6108b4565b6102b5610a65565b346102ca57610a86366004610416565b6103b0610455610a6e565b346102ca57610aa1366004610416565b6103b07ffd643c72710c63c0180259aba6b2d05451e3591a24e58b62239378085726f783610455565b91909160a0818403126102ca5780356001600160401b0381116102ca5783610af391830161090a565b92909360208301356001600160401b0381116102ca5781610b1591850161090a565b9290936040810135916001600160401b0383116102ca5761056c846102b594840161090a565b346102ca576103b0610455610b51366004610aca565b9695909594919493929361198f565b6001600160401b0381116105fc5760208091020190565b90929192610b8761065082610b60565b93818552602080860192028301928184116102ca57915b838310610bab5750505050565b60208091610bb984866102e3565b815201920191610b9e565b9080601f830112156102ca578160206102b593359101610b77565b91909160a0818403126102ca57610bf683826102ce565b92610c0481602084016102ce565b9260408301356001600160401b0381116102ca5782610c24918501610bc4565b9260608101356001600160401b0381116102ca5783610c44918301610bc4565b9260808201356001600160401b0381116102ca576102b5920161066f565b346102ca576103b06106f8610c78366004610bdf565b939290926119b7565b346102ca576103ab610c94366004610598565b611aba565b6102b5916008021c81565b906102b59154610c99565b6102b55f6004610ca4565b346102ca57610cca366004610416565b6103b0610455610caf565b346102ca576103b0610455610ceb366004610598565b611ac3565b346102ca576103ab610d03366004610749565b90611af9565b346102ca57610d19366004610416565b6103ab611b03565b6102b560016003610475565b346102ca57610d3d366004610416565b6103b0610404610d21565b6103ab610d56366004610aca565b96959095949194939293611ced565b346102ca576103ab610d783660046104a6565b611d9e565b91909160a0818403126102ca57610d9483826102ce565b92610da281602084016102ce565b92610db082604085016102e3565b92610c4483606083016102e3565b346102ca576103b06106f8610dd4366004610d7d565b93929092611da7565b346102ca57610ded366004610416565b6103ab611dc1565b6102db96959493929190610e2d7fb09aa5aeb3702cfd50b6b62bc4532604938f21248a27a1d5ca736082b6819cc1611e59565b611e59565b610ea9565b9190610e5081610e49816106319560209181520190565b8095610635565b601f01601f191690565b91610ea5916102db96989795608095610e90610e9d94610e8960a08901955f8a01906001600160a01b03169052565b6020880152565b8583036040870152610e32565b966060830152565b0152565b610f0a7f4cf4410cc57040e44862ef0f45f3dd5a5e02db8eb8add648d4b0e236f1d07dca939597610eeb610ee1898b898b898961153b565b6102b58382611e63565b988996610ef75f6108b4565b98610f0160405190565b96879687610e5a565b0390a3610f196102b55f6108b4565b8103610f23575050565b610f517f20fda5fd27a1ea7bf5b9567f143ac5470bb059374a27e8f67cb44f946f6d03879161045960405190565b0390a2565b906102db969594939291610df5565b6102b590611eda565b6102a96102b56102b59290565b6102b590610f6e565b6102db9594939291907fd8aa0f3194971a2a116679f7c2090f6939c8d4e01a2a8d7e41d55e5351469e63610fc7610fc3610fbd5f610f7b565b836117df565b1590565b610fd2575b5061101c565b610fde90335b90611f20565b5f610fcc565b61100f6102b5959394929461100860608401965f8501906001600160a01b03169052565b6020830152565b6040818503910152610e32565b907fc2617efa69bab66782fa219543714338489c4e9e178271560a91b82c3f612b589161105d6110566102db98969596888789878761153b565b9687611f4e565b61106984868484611ffd565b61108a86946110775f6108b4565b9661108160405190565b94859485610fe4565b0390a361202d565b906102db9594939291610f84565b6110ac905f5b506114f6565b6110bf6110b9600261083f565b9161083f565b1490565b6110dc6110d66102b59263ffffffff1690565b60e01b90565b6001600160e01b03191690565b505050506110f45f90565b506102b563150b7a026110c3565b906104ea565b6102b59081565b6102b59054611108565b60016111306102b5926111295f90565b505f611102565b0161110f565b611140905f6110a6565b6110bf6110b9600361083f565b906102db9161115e610e2882611119565b906111689161204c565b50565b906102db9161114d565b61117f905f6110a6565b61118b6110b95f61083f565b141590565b6102db9061119f610e28610a65565b6111e1565b6102b59061046f565b6102b590546111a4565b9060ff905b9181191691161790565b906111d66102b56111dd92151590565b82546111b7565b9055565b6111f7610fc36111f28360056104e0565b6111ad565b61124957806112135f61120e6112189460056104e0565b6111c6565b6104d7565b7f6c834f0e67211787b280587fc9569cdbe0cee29e689d73aa12b78f94c06d698f61124260405190565b8080610f51565b637435328360e01b5f9081526004819052602490fd5b035ffd5b6102db90611190565b90611276336102a9565b6001600160a01b0382160361128e57611168916120c5565b63334bd91960e11b5f908152600490fd5b6112a9905f6110a6565b6112b3600161083f565b6112bc8261083f565b149081156112c8575090565b90506110bf6110b9600261083f565b6102b59060081c61046f565b6102b590546112d7565b9061ff009060081b6111bc565b9061130a6102b56111dd92151590565b82546112ed565b634e487b7160e01b5f52601160045260245ffd5b9190820180921161133257565b611311565b905f19906111bc565b906113506102b56111dd926108b4565b8254611337565b611368610fc36111f23360056104e0565b61143857611379610fc360036111ad565b61142257611387600461110f565b6113976113935f6108b4565b9190565b141580611412575b6113fc576113ae5f60036112fa565b6113c96113c26113bc6108c1565b42611325565b6004611340565b6113d2336104d7565b7fa972065ead597970ce6435ff5c8c9c52ed08bce7f296a931c2aea74e0505584761124260405190565b6374fa848360e01b5f9081526001600452602490fd5b5061141d60036112e3565b61139f565b6374fa848360e01b5f9081526004819052602490fd5b630af4334b60e31b5f90815233600452602490fd5b9081526040810192916102db9160200152565b3361146d6102a9306104d7565b6001600160a01b038216036114cc5750807f11c24f4ead16507c69ac467fbd5e4eed5fb5c699626d2cc6d66421df253886d56102db926114ad600261110f565b6114c26114b960405190565b9283928361144d565b0390a16002611340565b63e2850c5960e01b5f9081526001600160a01b039091166004526024035ffd5b6102b560016108b4565b6114ff90611ac3565b6115085f6108b4565b810361151357505f90565b61151e6102b56114ec565b810361152a5750600390565b42101561153657600190565b600290565b919461156b9461155f929461154d5f90565b50604051978896602088019687610e5a565b908103825203826105db565b61157d611576825190565b9160200190565b2090565b61158b60036111ad565b15610a27576102b56108c1565b6102db9897969594939291906115cd7fb09aa5aeb3702cfd50b6b62bc4532604938f21248a27a1d5ca736082b6819cc1611e59565b611679565b9081526060810193926102db929091604091610ea590611008565b634e487b7160e01b5f52603260045260245ffd5b9190811015611611576020020190565b6115ed565b356102b5816102b8565b356102b5816102dd565b903590601e1936829003018212156102ca57018035906001600160401b0382116102ca57602001913682900383136102ca57565b90821015611611576020611675920281019061162a565b9091565b9793959194919290809882808b141580156117c4575b6117a057506116a48986868b878c888861198f565b986116af878b611e63565b6116b85f6108b4565b8b5b81101561174a57611743818c6117307f4cf4410cc57040e44862ef0f45f3dd5a5e02db8eb8add648d4b0e236f1d07dca8e8e61173a8f8f8f8f9b8f918f61171f6116ba9f84906117196117148361172a9961172497611601565b611616565b9a611601565b611620565b9761165e565b97909890565b96610ef78a6108b4565b0390a360010190565b90506116b8565b50995050505050505050506117616102b55f6108b4565b820361176b575050565b610f516117967f20fda5fd27a1ea7bf5b9567f143ac5470bb059374a27e8f67cb44f946f6d03879290565b9261045960405190565b61125f5f918c6117ad8890565b6001624fcdef60e01b0319855290600485016115d2565b50848b141561168f565b906102db9897969594939291611598565b6102b5915f6117f96111f2936117f25f90565b5082611102565b016104e0565b6111f26102b59161180d5f90565b5060056104e0565b506102b59060208101906102ce565b818352602090920191905f825b82821061183f575050505090565b9091929361186e6118676001926118568886611815565b6001600160a01b0316815260200190565b9560200190565b93920190611831565b9037565b8183529091602001916001600160fb1b0381116102ca57829160206106319202938491611877565b906102b59291610e32565b9035601e1936839003018112156102ca5701602081359101916001600160401b0382116102ca573682900383136102ca57565b8183529160200190816118f76020830284019490565b92835f925b84841061190c5750505050505090565b9091929394956020611939611932838560019503885261192c8b886118ae565b906118a3565b9860200190565b9401940192949391906118fc565b9395611981610ea5946102db999b9a9861197360809995610e9d9760a08b01918b83035f8d0152611824565b9188830360208a015261187b565b9185830360408701526118e1565b939461156b96919561155f949893986119a55f90565b50604051998a9860208a019889611947565b50505050506119c35f90565b506102b563bc197c816110c3565b6102db906119fe7ffd643c72710c63c0180259aba6b2d05451e3591a24e58b62239378085726f783611e59565b611a3a565b915f1960089290920291821b911b6111bc565b9190611a276102b56111dd936108b4565b908354611a03565b6102db915f91611a16565b611a46610fc38261129f565b611a8c57806102b55f611a5d611a62946001611102565b611a2f565b7fbaa1eb22f2a492ba1a5fea61b8df4d27c6c8b5f3971e63bb58fa14ff72eedb7061124260405190565b61125f5f91611a9b6001612139565b611aa56002612139565b635ead8eb560e01b855217906004840161144d565b6102db906119d1565b611ad96102b591611ad15f90565b506001611102565b61110f565b906102db91611aef610e2882611119565b90611168916120c5565b906102db91611ade565b611b14610fc36111f23360056104e0565b61143857611b2260036111ad565b6113fc57611b30600461110f565b611b3c6113935f6108b4565b141580611b95575b61142257611b54600160036112fa565b611b626113c26113bc6108c1565b611b6b336104d7565b7fc0a1c7e9f05b4d536e1ff8606bae9b847cdb43ef4a9b2d7a503a88cee08dccdb61124260405190565b50611ba3610fc360036112e3565b611b44565b6102db97969594939291907fd8aa0f3194971a2a116679f7c2090f6939c8d4e01a2a8d7e41d55e5351469e63611be3610fc3610fbd5f610f7b565b611bee575b50611bfe565b611bf89033610fd8565b5f611be8565b9091949397611c0a8390565b9784808a14158015611ce3575b611cd65750611c2f611c369189888d898c8a8a61198f565b9788611f4e565b611c3f5f6108b4565b885b811015611cc457611cbd8189611cb37fc2617efa69bab66782fa219543714338489c4e9e178271560a91b82c3f612b588e8c61173a611ca4878f8f8f8f9d611c9e92611c419f6117148361171f95611c9893611601565b98611601565b9561165e565b9590966102b587898787611ffd565b94611077886108b4565b9050611c3f565b50975050505050506102db915061202d565b61125f5f918b6117ad8a90565b50868a1415611c17565b906102db97969594939291611ba8565b6102db90611d0c610e28610a65565b611d186102a95f610f7b565b6001600160a01b03821614611d8d57611d356111f28260056104e0565b611d775780611213600161120e611d4d9460056104e0565b7fbdd49e85a74fcfac560707a2c9d43680d5750fc18c481581afd4a0de9b1532d561124260405190565b637435328360e01b5f9081526001600452602490fd5b63e6c4247b60e01b5f908152600490fd5b6102db90611cfd565b5050505050611db35f90565b506102b563f23a6e616110c3565b611dcb600461110f565b611dd76113935f6108b4565b14611e3357611de96102b5600461110f565b4210611e0f57611e03611dfc60036112e3565b60036111c6565b6102db6113c25f6108b4565b5f61125f611e1d600461110f565b635879a28960e11b835260048301526024820190565b5f61125f611e4160036111ad565b6374fa848360e01b8352151560048301526024820190565b6102db9033610fd8565b90611e6d82611175565b611eb857611e79611581565b808210611e9f575090611e9a611e926102db9342611325565b916001611102565b611340565b635433660960e01b5f9081529161125f9190600461144d565b5f61125f83611ec683612139565b635ead8eb560e01b8452906004840161144d565b630271189760e51b6001600160e01b0319821614908115611ef9575090565b6102b59150612164565b6001600160a01b0390911681526040810192916102db9160200152565b90611f2e610fc382846117df565b611f36575050565b63e2517d3f60e01b5f9081529161125f916004611f03565b611f5a610fc3826110a0565b611fa45750611f6b6102b55f6108b4565b81141580611f92575b611f7b5750565b63121534c360e31b5f908152600491909152602490fd5b50611f9f610fc382611136565b611f74565b61125f5f91611ec66002612139565b90916106319083908093610635565b90916102b592611fb3565b90611fda61065083610615565b918252565b3d15611ff857611fee3d611fcd565b903d5f602084013e565b606090565b611168935f9392849361201b61201260405190565b93849283611fc2565b03925af1612027611fdf565b9061219e565b612039610fc3826110a0565b611fa4576102db90611e9a611e926114ec565b612059610fc383836117df565b156120bf57612072600161120e845f6117f98682611102565b61208c612086612080339390565b936104d7565b916104d7565b917f2f8788117e7eff1d82e926ec794901d17c78024a50270940304540a733656f0d6120b760405190565b5f90a4600190565b50505f90565b6120cf82826117df565b156120bf576120e75f61120e84826117f98682611102565b6120f5612086612080339390565b917ff6391f5c32d9c69d2a47ea670b442974b53935d1edc7fd64eb21e047a839171b6120b760405190565b6102b5906121346113936102b59460ff1690565b901b90565b61215f6121506102b59261214a5f90565b50610849565b61215a60016108b4565b612120565b6108b4565b637965db0b60e01b6001600160e01b0319821614908115612183575090565b6102b591506001600160e01b0319166301ffc9a760e01b1490565b156121a65790565b80516121b46113935f6108b4565b115f036121cc5763d6bda27560e01b5f908152600490fd5b602081519101fdfea164736f6c634300081a000a",
  "linkReferences": {},
  "deployedLinkReferences": {}
}