{
  "_format": "hh-sol-artifact-1",
  "contractName": "ConfirmedOwnerWithProposal",
  "sourceName": "@chainlink/contracts/src/v0.8/shared/access/ConfirmedOwnerWithProposal.sol",
  "abi": [
    {
      "inputs": [
        {
          "internalType": "address",
          "name": "newOwner",
          "type": "address"
        },
        {
          "internalType": "address",
          "name": "pendingOwner",
          "type": "address"
        }
      ],
      "stateMutability": "nonpayable",
      "type": "constructor"
    },
    {
      "anonymous": false,
      "inputs": [
        {
          "indexed": true,
          "internalType": "address",
          "name": "from",
          "type": "address"
        },
        {
          "indexed": true,
          "internalType": "address",
          "name": "to",
          "type": "address"
        }
      ],
      "name": "OwnershipTransferRequested",
      "type": "event"
    },
    {
      "anonymous": false,
      "inputs": [
        {
          "indexed": true,
          "internalType": "address",
          "name": "from",
          "type": "address"
        },
        {
          "indexed": true,
          "internalType": "address",
          "name": "to",
          "type": "address"
        }
      ],
      "name": "OwnershipTransferred",
      "type": "event"
    },
    {
      "inputs": [],
      "name": "acceptOwnership",
      "outputs": [],
      "stateMutability": "nonpayable",
      "type": "function"
    },
    {
      "inputs": [],
      "name": "owner",
      "outputs": [
        {
          "internalType": "address",
          "name": "",
          "type": "address"
        }
      ],
      "stateMutability": "view",
      "type": "function"
    },
    {
      "inputs": [
        {
          "internalType": "address",
          "name": "to",
          "type": "address"
        }
      ],
      "name": "transferOwnership",
      "outputs": [],
      "stateMutability": "nonpayable",
      "type": "function"
    }
  ],
  "bytecode": "0x60806040523461002b5761001a6100146100cf565b906101a9565b6040516103936102c3823961039390f35b5f80fd5b634e487b7160e01b5f52604160045260245ffd5b90601f01601f191681019081106001600160401b0382111761006457604052565b61002f565b9061007d61007660405190565b9283610043565b565b6001600160a01b031690565b90565b6001600160a01b0381160361002b57565b9050519061007d8261008e565b919060408382031261002b5761008b9060206100c8828661009f565b940161009f565b6100ed610656803803806100e281610069565b9283398101906100ac565b9091565b61007f61008b61008b9290565b61008b906100f1565b1561010e57565b60405162461bcd60e51b815260206004820152601860248201527f43616e6e6f7420736574206f776e657220746f207a65726f00000000000000006044820152606490fd5b61008b9061007f906001600160a01b031682565b61008b90610153565b61008b90610167565b9061018961008b6101a592610170565b82546001600160a01b0319166001600160a01b03919091161790565b9055565b6101de9061007f6101b95f6100fe565b916101d86001600160a01b0384166001600160a01b0383161415610107565b5f610179565b6001600160a01b038216036101f05750565b61007d90610258565b1561020057565b60405162461bcd60e51b815260206004820152601760248201527f43616e6e6f74207472616e7366657220746f2073656c660000000000000000006044820152606490fd5b61008b9061007f565b61008b9054610245565b61026d336001600160a01b03831614156101f9565b610278816001610179565b61029261028c6102875f61024e565b610170565b91610170565b907fed8889f560326eb138920d842192f0eb3dd22b4f139c87a2c57538e05bae12786102bd60405190565b5f90a356fe60806040526004361015610011575f80fd5b5f3560e01c806379ba5097146100405780638da5cb5b1461003b5763f2fde38b03610045576100ec565b610085565b610053565b5f80fd5b5f91031261004557565b3461004557610063366004610049565b61006b6101b5565b604051005b0390f35b6001600160a01b031690565b90565b565b3461004557610095366004610049565b6100706100a0610243565b604051918291826001600160a01b03909116815260200190565b6001600160a01b0381160361004557565b90503590610083826100ba565b9060208282031261004557610080916100cb565b346100455761006b6100ff3660046100d8565b610266565b1561010b57565b60405162461bcd60e51b815260206004820152601660248201527526bab9ba10313290383937b837b9b2b21037bbb732b960511b6044820152606490fd5b61008090610074906001600160a01b031682565b61008090610149565b6100809061015d565b9061017f61008061019b92610166565b82546001600160a01b0319166001600160a01b03919091161790565b9055565b6100746100806100809290565b6100809061019f565b6101d46101cd6100746001546001600160a01b031690565b3314610104565b61020a6101e85f546001600160a01b031690565b6101f2335f61016f565b6102056101fe5f6101ac565b600161016f565b610166565b61021333610166565b907f8be0079c531659141344cd1fd0a4f28419497f9722a3daafe3b4186f6b6457e061023e60405190565b5f90a3565b5f546001600160a01b031690565b6100839061025d6102b4565b6100839061031e565b61008390610251565b1561027657565b60405162461bcd60e51b815260206004820152601660248201527527b7363c9031b0b63630b1363290313c9037bbb732b960511b6044820152606490fd5b6100836102cb6100745f546001600160a01b031690565b331461026f565b156102d957565b60405162461bcd60e51b815260206004820152601760248201527f43616e6e6f74207472616e7366657220746f2073656c660000000000000000006044820152606490fd5b610333336001600160a01b03831614156102d2565b61033e81600161016f565b61035b6103556102055f546001600160a01b031690565b91610166565b907fed8889f560326eb138920d842192f0eb3dd22b4f139c87a2c57538e05bae127861023e6040519056fea164736f6c634300081a000a",
  "linkReferences": {},
  "deployedLinkReferences": {}
}