{
  "_format": "hh-sol-artifact-1",
  "contractName": "MerkleRiskRegistry",
  "sourceName": "contracts/MerkleRiskRegistry.sol",
  "abi": [
    {
      "inputs": [
        {
          "internalType": "bytes32",
          "name": "initialMerkleRoot",
          "type": "bytes32"
        }
      ],
      "stateMutability": "nonpayable",
      "type": "constructor"
    },
    {
      "inputs": [],
      "name": "AccessControlBadConfirmation",
      "type": "error"
    },
    {
      "inputs": [
        {
          "internalType": "address",
          "name": "account",
          "type": "address"
        },
        {
          "internalType": "bytes32",
          "name": "neededRole",
          "type": "bytes32"
        }
      ],
      "name": "AccessControlUnauthorizedAccount",
      "type": "error"
    },
    {
      "inputs": [],
      "name": "ECDSAInvalidSignature",
      "type": "error"
    },
    {
      "inputs": [
        {
          "internalType": "uint256",
          "name": "length",
          "type": "uint256"
        }
      ],
      "name": "ECDSAInvalidSignatureLength",
      "type": "error"
    },
    {
      "inputs": [
        {
          "internalType": "bytes32",
          "name": "s",
          "type": "bytes32"
        }
      ],
      "name": "ECDSAInvalidSignatureS",
      "type": "error"
    },
    {
      "inputs": [],
      "name": "EnforcedPause",
      "type": "error"
    },
    {
      "inputs": [],
      "name": "ExpectedPause",
      "type": "error"
    },
    {
      "inputs": [],
      "name": "ReentrancyGuardReentrantCall",
      "type": "error"
    },
    {
      "anonymous": false,
      "inputs": [
        {
          "indexed": true,
          "internalType": "address",
          "name": "addr",
          "type": "address"
        },
        {
          "indexed": false,
          "internalType": "uint256",
          "name": "riskScore",
          "type": "uint256"
        },
        {
          "indexed": false,
          "internalType": "string",
          "name": "tags",
          "type": "string"
        }
      ],
      "name": "AddressRiskUpdated",
      "type": "event"
    },
    {
      "anonymous": false,
      "inputs": [
        {
          "indexed": true,
          "internalType": "address",
          "name": "addr",
          "type": "address"
        },
        {
          "indexed": true,
          "internalType": "bytes32",
          "name": "tag",
          "type": "bytes32"
        },
        {
          "indexed": false,
          "internalType": "uint256",
          "name": "timestamp",
          "type": "uint256"
        }
      ],
      "name": "AddressTagAdded",
      "type": "event"
    },
    {
      "anonymous": false,
      "inputs": [
        {
          "indexed": true,
          "internalType": "address",
          "name": "addr",
          "type": "address"
        },
        {
          "indexed": true,
          "internalType": "bytes32",
          "name": "tag",
          "type": "bytes32"
        },
        {
          "indexed": false,
          "internalType": "uint256",
          "name": "timestamp",
          "type": "uint256"
        }
      ],
      "name": "AddressTagRemoved",
      "type": "event"
    },
    {
      "anonymous": false,
      "inputs": [
        {
          "indexed": true,
          "internalType": "address",
          "name": "account",
          "type": "address"
        },
        {
          "indexed": false,
          "internalType": "uint256",
          "name": "timestamp",
          "type": "uint256"
        }
      ],
      "name": "ContractPaused",
      "type": "event"
    },
    {
      "anonymous": false,
      "inputs": [
        {
          "indexed": true,
          "internalType": "address",
          "name": "account",
          "type": "address"
        },
        {
          "indexed": false,
          "internalType": "uint256",
          "name": "timestamp",
          "type": "uint256"
        }
      ],
      "name": "ContractUnpaused",
      "type": "event"
    },
    {
      "anonymous": false,
      "inputs": [
        {
          "indexed": true,
          "internalType": "bytes32",
          "name": "oldRoot",
          "type": "bytes32"
        },
        {
          "indexed": true,
          "internalType": "bytes32",
          "name": "newRoot",
          "type": "bytes32"
        },
        {
          "indexed": false,
          "internalType": "uint256",
          "name": "timestamp",
          "type": "uint256"
        },
        {
          "indexed": false,
          "internalType": "string",
          "name": "version",
          "type": "string"
        }
      ],
      "name": "MerkleRootUpdated",
      "type": "event"
    },
    {
      "anonymous": false,
      "inputs": [
        {
          "indexed": false,
          "internalType": "address",
          "name": "account",
          "type": "address"
        }
      ],
      "name": "Paused",
      "type": "event"
    },
    {
      "anonymous": false,
      "inputs": [
        {
          "indexed": true,
          "internalType": "bytes32",
          "name": "role",
          "type": "bytes32"
        },
        {
          "indexed": true,
          "internalType": "bytes32",
          "name": "previousAdminRole",
          "type": "bytes32"
        },
        {
          "indexed": true,
          "internalType": "bytes32",
          "name": "newAdminRole",
          "type": "bytes32"
        }
      ],
      "name": "RoleAdminChanged",
      "type": "event"
    },
    {
      "anonymous": false,
      "inputs": [
        {
          "indexed": true,
          "internalType": "bytes32",
          "name": "role",
          "type": "bytes32"
        },
        {
          "indexed": true,
          "internalType": "address",
          "name": "account",
          "type": "address"
        },
        {
          "indexed": true,
          "internalType": "address",
          "name": "sender",
          "type": "address"
        }
      ],
      "name": "RoleGranted",
      "type": "event"
    },
    {
      "anonymous": false,
      "inputs": [
        {
          "indexed": true,
          "internalType": "bytes32",
          "name": "role",
          "type": "bytes32"
        },
        {
          "indexed": true,
          "internalType": "address",
          "name": "account",
          "type": "address"
        },
        {
          "indexed": true,
          "internalType": "address",
          "name": "sender",
          "type": "address"
        }
      ],
      "name": "RoleRevoked",
      "type": "event"
    },
    {
      "anonymous": false,
      "inputs": [
        {
          "indexed": true,
          "internalType": "address",
          "name": "signer",
          "type": "address"
        },
        {
          "indexed": true,
          "internalType": "bytes32",
          "name": "leaf",
          "type": "bytes32"
        },
        {
          "indexed": false,
          "internalType": "uint256",
          "name": "nonce",
          "type": "uint256"
        },
        {
          "indexed": false,
          "internalType": "uint256",
          "name": "chainId",
          "type": "uint256"
        },
        {
          "indexed": false,
          "internalType": "address",
          "name": "contractAddress",
          "type": "address"
        }
      ],
      "name": "SignatureVerified",
      "type": "event"
    },
    {
      "anonymous": false,
      "inputs": [
        {
          "indexed": false,
          "internalType": "address",
          "name": "account",
          "type": "address"
        }
      ],
      "name": "Unpaused",
      "type": "event"
    },
    {
      "anonymous": false,
      "inputs": [
        {
          "indexed": false,
          "internalType": "string",
          "name": "functionName",
          "type": "string"
        },
        {
          "indexed": false,
          "internalType": "uint256",
          "name": "timestamp",
          "type": "uint256"
        }
      ],
      "name": "ZeroAddressRejected",
      "type": "event"
    },
    {
      "inputs": [],
      "name": "ADMIN_ROLE",
      "outputs": [
        {
          "internalType": "bytes32",
          "name": "",
          "type": "bytes32"
        }
      ],
      "stateMutability": "view",
      "type": "function"
    },
    {
      "inputs": [],
      "name": "DEFAULT_ADMIN_ROLE",
      "outputs": [
        {
          "internalType": "bytes32",
          "name": "",
          "type": "bytes32"
        }
      ],
      "stateMutability": "view",
      "type": "function"
    },
    {
      "inputs": [],
      "name": "MAX_BATCH_SIZE",
      "outputs": [
        {
          "internalType": "uint256",
          "name": "",
          "type": "uint256"
        }
      ],
      "stateMutability": "view",
      "type": "function"
    },
    {
      "inputs": [],
      "name": "MAX_HISTORY",
      "outputs": [
        {
          "internalType": "uint256",
          "name": "",
          "type": "uint256"
        }
      ],
      "stateMutability": "view",
      "type": "function"
    },
    {
      "inputs": [],
      "name": "MAX_RISK_SCORE",
      "outputs": [
        {
          "internalType": "uint256",
          "name": "",
          "type": "uint256"
        }
      ],
      "stateMutability": "view",
      "type": "function"
    },
    {
      "inputs": [],
      "name": "ORACLE_ROLE",
      "outputs": [
        {
          "internalType": "bytes32",
          "name": "",
          "type": "bytes32"
        }
      ],
      "stateMutability": "view",
      "type": "function"
    },
    {
      "inputs": [],
      "name": "RELAYER_ROLE",
      "outputs": [
        {
          "internalType": "bytes32",
          "name": "",
          "type": "bytes32"
        }
      ],
      "stateMutability": "view",
      "type": "function"
    },
    {
      "inputs": [],
      "name": "VERSION",
      "outputs": [
        {
          "internalType": "string",
          "name": "",
          "type": "string"
        }
      ],
      "stateMutability": "view",
      "type": "function"
    },
    {
      "inputs": [
        {
          "internalType": "address",
          "name": "addr",
          "type": "address"
        },
        {
          "internalType": "bytes32",
          "name": "tag",
          "type": "bytes32"
        }
      ],
      "name": "addAddressTag",
      "outputs": [],
      "stateMutability": "nonpayable",
      "type": "function"
    },
    {
      "inputs": [
        {
          "internalType": "address",
          "name": "",
          "type": "address"
        }
      ],
      "name": "addressRiskScores",
      "outputs": [
        {
          "internalType": "uint256",
          "name": "",
          "type": "uint256"
        }
      ],
      "stateMutability": "view",
      "type": "function"
    },
    {
      "inputs": [
        {
          "internalType": "address",
          "name": "",
          "type": "address"
        },
        {
          "internalType": "bytes32",
          "name": "",
          "type": "bytes32"
        }
      ],
      "name": "addressTags",
      "outputs": [
        {
          "internalType": "bool",
          "name": "",
          "type": "bool"
        }
      ],
      "stateMutability": "view",
      "type": "function"
    },
    {
      "inputs": [
        {
          "internalType": "address[]",
          "name": "addresses",
          "type": "address[]"
        },
        {
          "internalType": "uint256[]",
          "name": "riskScores",
          "type": "uint256[]"
        }
      ],
      "name": "batchSetRiskScores",
      "outputs": [],
      "stateMutability": "nonpayable",
      "type": "function"
    },
    {
      "inputs": [
        {
          "internalType": "address[]",
          "name": "addresses",
          "type": "address[]"
        },
        {
          "internalType": "uint256[]",
          "name": "riskScores",
          "type": "uint256[]"
        },
        {
          "internalType": "string[]",
          "name": "riskTiers",
          "type": "string[]"
        },
        {
          "internalType": "bytes32[][]",
          "name": "proofs",
          "type": "bytes32[][]"
        }
      ],
      "name": "batchVerify",
      "outputs": [
        {
          "internalType": "bool[]",
          "name": "results",
          "type": "bool[]"
        }
      ],
      "stateMutability": "view",
      "type": "function"
    },
    {
      "inputs": [
        {
          "internalType": "address",
          "name": "addr",
          "type": "address"
        }
      ],
      "name": "getAddressRiskScore",
      "outputs": [
        {
          "internalType": "uint256",
          "name": "",
          "type": "uint256"
        }
      ],
      "stateMutability": "view",
      "type": "function"
    },
    {
      "inputs": [],
      "name": "getMerkleRoot",
      "outputs": [
        {
          "internalType": "bytes32",
          "name": "",
          "type": "bytes32"
        }
      ],
      "stateMutability": "view",
      "type": "function"
    },
    {
      "inputs": [],
      "name": "getMerkleRootHistory",
      "outputs": [
        {
          "internalType": "bytes32[]",
          "name": "",
          "type": "bytes32[]"
        }
      ],
      "stateMutability": "view",
      "type": "function"
    },
    {
      "inputs": [
        {
          "internalType": "bytes32",
          "name": "role",
          "type": "bytes32"
        }
      ],
      "name": "getRoleAdmin",
      "outputs": [
        {
          "internalType": "bytes32",
          "name": "",
          "type": "bytes32"
        }
      ],
      "stateMutability": "view",
      "type": "function"
    },
    {
      "inputs": [
        {
          "internalType": "bytes32",
          "name": "role",
          "type": "bytes32"
        },
        {
          "internalType": "address",
          "name": "account",
          "type": "address"
        }
      ],
      "name": "grantRole",
      "outputs": [],
      "stateMutability": "nonpayable",
      "type": "function"
    },
    {
      "inputs": [
        {
          "internalType": "bytes32",
          "name": "role",
          "type": "bytes32"
        },
        {
          "internalType": "address",
          "name": "account",
          "type": "address"
        }
      ],
      "name": "hasRole",
      "outputs": [
        {
          "internalType": "bool",
          "name": "",
          "type": "bool"
        }
      ],
      "stateMutability": "view",
      "type": "function"
    },
    {
      "inputs": [
        {
          "internalType": "address",
          "name": "addr",
          "type": "address"
        },
        {
          "internalType": "bytes32",
          "name": "tag",
          "type": "bytes32"
        }
      ],
      "name": "hasTag",
      "outputs": [
        {
          "internalType": "bool",
          "name": "",
          "type": "bool"
        }
      ],
      "stateMutability": "view",
      "type": "function"
    },
    {
      "inputs": [],
      "name": "historyIndex",
      "outputs": [
        {
          "internalType": "uint256",
          "name": "",
          "type": "uint256"
        }
      ],
      "stateMutability": "view",
      "type": "function"
    },
    {
      "inputs": [],
      "name": "merkleRoot",
      "outputs": [
        {
          "internalType": "bytes32",
          "name": "",
          "type": "bytes32"
        }
      ],
      "stateMutability": "view",
      "type": "function"
    },
    {
      "inputs": [
        {
          "internalType": "uint256",
          "name": "",
          "type": "uint256"
        }
      ],
      "name": "merkleRootHistory",
      "outputs": [
        {
          "internalType": "bytes32",
          "name": "",
          "type": "bytes32"
        }
      ],
      "stateMutability": "view",
      "type": "function"
    },
    {
      "inputs": [],
      "name": "pause",
      "outputs": [],
      "stateMutability": "nonpayable",
      "type": "function"
    },
    {
      "inputs": [],
      "name": "paused",
      "outputs": [
        {
          "internalType": "bool",
          "name": "",
          "type": "bool"
        }
      ],
      "stateMutability": "view",
      "type": "function"
    },
    {
      "inputs": [
        {
          "internalType": "address",
          "name": "addr",
          "type": "address"
        },
        {
          "internalType": "bytes32",
          "name": "tag",
          "type": "bytes32"
        }
      ],
      "name": "removeAddressTag",
      "outputs": [],
      "stateMutability": "nonpayable",
      "type": "function"
    },
    {
      "inputs": [
        {
          "internalType": "bytes32",
          "name": "role",
          "type": "bytes32"
        },
        {
          "internalType": "address",
          "name": "callerConfirmation",
          "type": "address"
        }
      ],
      "name": "renounceRole",
      "outputs": [],
      "stateMutability": "nonpayable",
      "type": "function"
    },
    {
      "inputs": [
        {
          "internalType": "bytes32",
          "name": "role",
          "type": "bytes32"
        },
        {
          "internalType": "address",
          "name": "account",
          "type": "address"
        }
      ],
      "name": "revokeRole",
      "outputs": [],
      "stateMutability": "nonpayable",
      "type": "function"
    },
    {
      "inputs": [
        {
          "internalType": "address",
          "name": "addr",
          "type": "address"
        },
        {
          "internalType": "uint256",
          "name": "riskScore",
          "type": "uint256"
        }
      ],
      "name": "setAddressRiskScore",
      "outputs": [],
      "stateMutability": "nonpayable",
      "type": "function"
    },
    {
      "inputs": [
        {
          "internalType": "address",
          "name": "",
          "type": "address"
        }
      ],
      "name": "signerNonces",
      "outputs": [
        {
          "internalType": "uint256",
          "name": "",
          "type": "uint256"
        }
      ],
      "stateMutability": "view",
      "type": "function"
    },
    {
      "inputs": [
        {
          "internalType": "bytes4",
          "name": "interfaceId",
          "type": "bytes4"
        }
      ],
      "name": "supportsInterface",
      "outputs": [
        {
          "internalType": "bool",
          "name": "",
          "type": "bool"
        }
      ],
      "stateMutability": "view",
      "type": "function"
    },
    {
      "inputs": [],
      "name": "unpause",
      "outputs": [],
      "stateMutability": "nonpayable",
      "type": "function"
    },
    {
      "inputs": [
        {
          "internalType": "bytes32",
          "name": "newRoot",
          "type": "bytes32"
        }
      ],
      "name": "updateMerkleRoot",
      "outputs": [],
      "stateMutability": "nonpayable",
      "type": "function"
    },
    {
      "inputs": [
        {
          "internalType": "address",
          "name": "addr",
          "type": "address"
        },
        {
          "internalType": "uint256",
          "name": "riskScore",
          "type": "uint256"
        },
        {
          "internalType": "string",
          "name": "riskTier",
          "type": "string"
        },
        {
          "internalType": "bytes32[]",
          "name": "proof",
          "type": "bytes32[]"
        }
      ],
      "name": "verifyAddress",
      "outputs": [
        {
          "internalType": "bool",
          "name": "",
          "type": "bool"
        }
      ],
      "stateMutability": "view",
      "type": "function"
    },
    {
      "inputs": [
        {
          "internalType": "address",
          "name": "addr",
          "type": "address"
        },
        {
          "internalType": "uint256",
          "name": "riskScore",
          "type": "uint256"
        },
        {
          "internalType": "string",
          "name": "riskTier",
          "type": "string"
        },
        {
          "internalType": "bytes32[]",
          "name": "proof",
          "type": "bytes32[]"
        },
        {
          "internalType": "bytes",
          "name": "signature",
          "type": "bytes"
        },
        {
          "internalType": "address",
          "name": "signer",
          "type": "address"
        }
      ],
      "name": "verifyAddressWithSignature",
      "outputs": [
        {
          "internalType": "bool",
          "name": "",
          "type": "bool"
        }
      ],
      "stateMutability": "nonpayable",
      "type": "function"
    }
  ],
  "bytecode": "0x60806040523461002a57610019610014610091565b6101ca565b60405161266c610414823961266c90f35b5f80fd5b634e487b7160e01b5f52604160045260245ffd5b90601f01601f191681019081106001600160401b0382111761006357604052565b61002e565b9061007c61007560405190565b9283610042565b565b9060208282031261002a57505190565b90565b61008e612a80803803806100a481610068565b92833981019061007e565b61008e61008e61008e9290565b156100c357565b60405162461bcd60e51b815260206004820152601460248201527f496e76616c696420696e697469616c20726f6f740000000000000000000000006044820152606490fd5b61008e5f6100af565b905f19905b9181191691161790565b9061012e61008e6101359290565b8254610111565b9055565b634e487b7160e01b5f52603260045260245ffd5b805482101561016d576101656001915f5260205f2090565b910201905f90565b610139565b915f1960089290920291821b911b610116565b919061019461008e6101359390565b908354610172565b908154916801000000000000000083101561006357826101c491600161007c9501815561014d565b90610185565b61007c906101d6610290565b6101ed6101e561008e5f6100af565b8214156100bc565b6101ff6101f8610108565b3390610339565b506102297fa49807205ce4d355092ef5a8a18f56e8913cf4a201fbe287825b095693c217756101f8565b506102537f68e79a7bf1e0bc45d0a330c573bc367f9cf464fd326078812f301165fbda4ef16101f8565b5061027d7fe2b7fb3b832174769106daebcfd6d1970523240dda11281102db9363b83b0dc46101f8565b50610289816002610120565b600361019c565b61007c6102b2565b61008e60016100af565b9061012e61008e610135926100af565b61007c6102bd610298565b5f6102c961008e6103ea565b016102a2565b905b5f5260205260405f2090565b61008e906102f1906001600160a01b031682565b6001600160a01b031690565b61008e906102dd565b61008e906102fd565b906102d190610306565b9060ff90610116565b9061033261008e61013592151590565b8254610319565b61034a61034683836103f2565b1590565b156103bb5761036e6001610369845f61036386826102cf565b0161030f565b610322565b61038861038261037c339390565b93610306565b91610306565b917f2f8788117e7eff1d82e926ec794901d17c78024a50270940304540a733656f0d6103b360405190565b5f90a4600190565b50505f90565b61008e7f9b779b17422d0df92223018b32b4d1fa46e071723d6817e2486d003becc55f006100af565b61008e6103c1565b61008e915f61036361040c936104055f90565b50826102cf565b5460ff169056fe60806040526004361015610011575f80fd5b5f3560e01c806301ffc9a714610240578063047ff2ed1461023b5780630636b2061461023657806307e2cea51461023157806313545a021461022c578063248a9ca3146102275780632eb4a7ab146102225780632f2ff15d1461021d5780633645d03b1461021857806336568abe146102135780633c850b1f1461020e5780633f4ba83a1461020957806345f19131146102045780634783f0ef146101ff57806349590657146101fa5780635c975abb146101f557806360e9ea03146101f057806375b238fc146101eb5780637d6f65d6146101e65780637dfa4e61146101e1578063817fbc52146101dc578063840dd44b146101d75780638456cb59146101d257806391d14854146101cd578063926d7d7f146101c8578063a217fddf146101c3578063b5ad9215146101be578063bdda4ed6146101b9578063c12b528a146101b4578063c28d5a7e146101af578063cfdbf254146101aa578063d019577a146101a5578063d547741f146101a0578063ea6454cd1461019b5763ffa1ad740361024557610cf9565b610c49565b610c25565b610c09565b610bee565b610bc1565b610b93565b610b16565b610ab3565b610a41565b6109f7565b6109db565b6109c3565b6109a7565b610951565b610920565b610827565b610801565b6107da565b610759565b61073e565b610726565b61070b565b6106e1565b6106c6565b61065d565b610644565b610603565b6105c5565b610589565b61055a565b610514565b6104e5565b6102f3565b610286565b5f80fd5b6001600160e01b031981165b0361024557565b9050359061026982610249565b565b906020828203126102455761027f9161025c565b90565b9052565b34610245576102b36102a161029c36600461026b565b610d20565b60405191829182901515815260200190565b0390f35b6001600160a01b031690565b6001600160a01b038116610255565b90503590610269826102c3565b906020828203126102455761027f916102d2565b34610245576102b361030e6103093660046102df565b610d6b565b6040519182918290815260200190565b80610255565b905035906102698261031e565b634e487b7160e01b5f52604160045260245ffd5b90601f01601f191681019081106001600160401b0382111761036657604052565b610331565b9061026961037860405190565b9283610345565b6001600160401b03811161036657602090601f01601f19160190565b0190565b90825f939282370152565b909291926103bf6103ba8261037f565b61036b565b93818552818301116102455761026991602085019061039f565b9080601f830112156102455781602061027f933591016103aa565b909182601f83011215610245578135916001600160401b03831161024557602001926020830284011161024557565b909182601f83011215610245578135916001600160401b03831161024557602001926001830284011161024557565b60c0818303126102455761046682826102d2565b926104748360208401610324565b9260408301356001600160401b03811161024557816104949185016103d9565b9260608101356001600160401b03811161024557826104b49183016103f4565b92909360808301356001600160401b03811161024557826104dc60a09461027f938701610423565b949095016102d2565b34610245576102b36102a16104fb366004610452565b96959095949194939293611266565b5f91031261024557565b346102455761052436600461050a565b6102b35f8051602061262083398151915261030e565b61027f61027f61027f9290565b61027f61010061053a565b61027f610547565b346102455761056a36600461050a565b6102b361030e610552565b906020828203126102455761027f91610324565b34610245576102b361030e61059f366004610575565b611277565b61027f916008021c81565b9061027f91546105a4565b61027f5f60026105af565b34610245576105d536600461050a565b6102b361030e6105ba565b91906040838203126102455761027f9060206105fc8286610324565b94016102d2565b346102455761061c6106163660046105e0565b906112b2565b604051005b91906040838203126102455761027f90602061063d82866102d2565b9401610324565b346102455761061c610657366004610621565b90611409565b346102455761061c6106703660046105e0565b90611413565b61027f906102b7906001600160a01b031682565b61027f90610676565b61027f9061068a565b906106a690610693565b5f5260205260405f2090565b5f6106c161027f92600761069c565b6105af565b34610245576102b361030e6106dc3660046102df565b6106b2565b34610245576106f136600461050a565b61061c6114b7565b61027f606461053a565b61027f6106f9565b346102455761071b36600461050a565b6102b361030e610703565b346102455761061c610739366004610575565b611706565b346102455761074e36600461050a565b6102b361030e61170f565b346102455761076936600461050a565b6102b36102a1611719565b9061079461078d610783845190565b8084529260200190565b9260200190565b905f5b8181106107a45750505090565b9091926107c16107ba6001928651815260200190565b9460200190565b929101610797565b602080825261027f92910190610774565b34610245576107ea36600461050a565b6102b36107f56117ac565b604051918291826107c9565b346102455761081136600461050a565b6102b35f8051602061264083398151915261030e565b346102455761061c61083a366004610621565b906118a1565b90916080828403126102455781356001600160401b03811161024557836108689184016103f4565b92909360208201356001600160401b038111610245578161088a9184016103f4565b92909360408201356001600160401b03811161024557836108ac9184016103f4565b92909360608201356001600160401b038111610245576108cc92016103f4565b9091565b906108df61078d610783845190565b905f5b8181106108ef5750505090565b9091926109076107ba60019286511515815260200190565b9291016108e2565b602080825261027f929101906108d0565b34610245576102b3610945610936366004610840565b96959095949194939293611a32565b6040519182918261090f565b346102455761061c610964366004610621565b90611c42565b906106a6565b61027f916008021c5b60ff1690565b9061027f9154610970565b6109a261027f9261099d5f93600661069c565b61096a565b61097f565b34610245576102b36102a16109bd366004610621565b9061098a565b34610245576109d336600461050a565b61061c611cab565b34610245576102b36102a16109f13660046105e0565b90611cb3565b3461024557610a0736600461050a565b6102b37fe2b7fb3b832174769106daebcfd6d1970523240dda11281102db9363b83b0dc461030e565b61027f5f61053a565b61027f610a30565b3461024557610a5136600461050a565b6102b361030e610a39565b634e487b7160e01b5f52603260045260245ffd5b8054821015610a9057610a886001915f5260205f2090565b910201905f90565b610a5c565b60035481101561024557610aad61027f916003610a70565b906105af565b34610245576102b361030e610ac9366004610575565b610a95565b90916040828403126102455781356001600160401b0381116102455783610af69184016103f4565b92909360208201356001600160401b038111610245576108cc92016103f4565b346102455761061c610b29366004610ace565b92919091611e3c565b9060808282031261024557610b4781836102d2565b92610b558260208501610324565b9260408101356001600160401b0381116102455783610b759183016103d9565b9260608201356001600160401b038111610245576108cc92016103f4565b34610245576102b36102a1610ba9366004610b32565b93929092611e48565b5f6106c161027f92600561069c565b34610245576102b361030e610bd73660046102df565b610bb2565b61027f60c861053a565b61027f610bdc565b3461024557610bfe36600461050a565b6102b361030e610be6565b34610245576102b36102a1610c1f366004610621565b90611e73565b346102455761061c610c383660046105e0565b90611ea8565b61027f5f60046105af565b3461024557610c5936600461050a565b6102b361030e610c3e565b90610c716103ba8361037f565b918252565b610c806005610c64565b640312e322e360dc1b602082015290565b61027f610c76565b61027f610c91565b61027f610c99565b90825f9392825e0152565b610cd5610cde60209361039b93610cc9815190565b80835293849260200190565b95869101610ca9565b601f01601f191690565b602080825261027f92910190610cb4565b3461024557610d0936600461050a565b6102b3610d14610ca1565b60405191829182610ce8565b637965db0b60e01b6001600160e01b0319821614908115610d3f575090565b61027f91506001600160e01b0319166301ffc9a760e01b1490565b61027f9081565b61027f9054610d5a565b610d8161027f91610d795f90565b50600561069c565b610d61565b61027f989796959493929190610dc07fe2b7fb3b832174769106daebcfd6d1970523240dda11281102db9363b83b0dc4611eb6565b611eb6565b90610dd99897969594939291610dd4611ecb565b610de2565b90610269611efa565b9061027f9897969594939291610df6611f05565b610fd7565b6102b761027f61027f9290565b61027f90610dfb565b6040808252601a908201527f76657269667941646472657373576974685369676e61747572650000000000006060820152919061026990602060808501940152565b6001600160401b0381116103665760208091020190565b90929192610e7a6103ba82610e53565b938185526020808601920283019281841161024557915b838310610e9e5750505050565b60208091610eac8486610324565b815201920191610e91565b61027f913691610e6a565b61027f9136916103aa565b15610ed457565b60405162461bcd60e51b8152602060048201526011602482015270496e76616c6964207369676e617475726560781b6044820152606490fd5b15610f1457565b60405162461bcd60e51b815260206004820152601560248201527414da59db995c881b9bdd08185d5d1a1bdc9a5e9959605a1b6044820152606490fd5b634e487b7160e01b5f52601160045260245ffd5b9190610f70565b9290565b8201809211610f7b57565b610f51565b905f19905b9181191691161790565b90610f9f61027f610fa69261053a565b8254610f80565b9055565b908152606081019392610269929091604091610fc8905b6020830152565b01906001600160a01b03169052565b5095969395929091610fe85f610e08565b6001600160a01b0381166001600160a01b038616146111f6576001600160a01b03166001600160a01b03861614611188576110429661104b9261102f611047938688611f82565b98899261103c6002610d61565b92610eb7565b611fd8565b1590565b61114c57611107611113926110c76110a67ff060c903a0fb7f42e882edd8caab098185ae6b24437bd8cf261386d578f3129c976110a061108f610d818a600761069c565b9b61109a8d8d612077565b92610ec2565b906120ef565b6110c16001600160a01b0388165b916001600160a01b031690565b14610ecd565b6110e66110e1865f80516020612620833981519152611cb3565b610f0d565b61110c6110fc6110f6600161053a565b8a610f65565b61110787600761069c565b610f8f565b600561069c565b61112c61112861112230610693565b92610693565b9390565b9361114461113960405190565b928392469084610faa565b0390a3600190565b60405162461bcd60e51b815260206004820152601460248201527324b73b30b634b21026b2b935b63290383937b7b360611b6044820152606490fd5b7fb1f7e734443091f517009c88e8427e84b43169fff07951ebad8908160d02104c6111b260405190565b806111bd4282610e11565b0390a160405162461bcd60e51b815260206004820152600e60248201526d24b73b30b634b21039b4b3b732b960911b6044820152606490fd5b7fb1f7e734443091f517009c88e8427e84b43169fff07951ebad8908160d02104c61122060405190565b8061122b4282610e11565b0390a16040515b62461bcd60e51b815260206004820152600f60248201526e496e76616c6964206164647265737360881b6044820152606490fd5b61027f97969594939291905f610d86565b600161128e61027f926112875f90565b505f61096a565b01610d61565b90610269916112a5610dbb82611277565b906112af91612105565b50565b9061026991611294565b61026991906112d75f80516020612620833981519152611eb6565b90610269916112e4611f05565b611364565b156112f057565b604051611232565b61027f90610979565b61027f90546112f8565b1561131257565b60405162461bcd60e51b815260206004820152600a6024820152695461672065786973747360b01b6044820152606490fd5b9060ff90610f85565b9061135d61027f610fa692151590565b8254611344565b6113cc6113d09161138c61137a6102b75f610e08565b6001600160a01b0383165b14156112e9565b6113ae6113a96110476113a48761099d86600661069c565b611301565b61130b565b6113c760016113c28661099d85600661069c565b61134d565b610693565b9190565b907f4158810c0fb3e8f702c2b130747d3164ff679fc60e03e7a51ef6e77a7d3b80a96113fb60405190565b42815280602081015b0390a3565b90610269916112bc565b9061141d336102b7565b6001600160a01b03821603611435576112af91612178565b63334bd91960e11b5f908152600490fd5b035ffd5b6114605f80516020612640833981519152611eb6565b61026961146b6121d3565b610269611476612250565b61147f33610693565b7f107553d8191d85b405879cf752997865edd48d94e20bda4dd27223c94b31a7cc6114a960405190565b42815280602081015b0390a2565b61026961144a565b610269906114d95f80516020612640833981519152611eb6565b610269906114e5611f05565b611611565b156114f157565b60405162461bcd60e51b815260206004820152600c60248201526b125b9d985b1a59081c9bdbdd60a21b6044820152606490fd5b1561152c57565b60405162461bcd60e51b815260206004820152600960248201526814d85b59481c9bdbdd60ba1b6044820152606490fd5b90610f9f61027f610fa69290565b634e487b7160e01b5f52601260045260245ffd5b8115611589570690565b61156b565b915f1960089290920291821b911b610f85565b921b90565b91906115b561027f610fa69390565b90835461158e565b908154916801000000000000000083101561036657826115e591600161026995018155610a70565b906115a6565b5f198114610f7b5760010190565b90815260406020820181905261027f92910190610cb4565b61162861162061027f5f61053a565b8214156114ea565b61164061163861027f6002610d61565b821415611525565b61164a6002610d61565b9061165681600261155d565b600381611661825490565b611669610547565b908111156116e1575061167b916115bd565b61169761169061168b6004610d61565b6115eb565b6004610f8f565b7f0b319d16f454c3add3119d04356ada3d1f4e262f03cd83eb54ee9a561e1722da6114046116cd6111286116c9610c99565b9590565b936116d760405190565b91829142836115f9565b611701926116fb6115e5926116f66004610d61565b61157f565b90610a70565b61167b565b610269906114bf565b61027f6002610d61565b61027f6001611301565b9061173c611732610783845490565b925f5260205f2090565b905f5b81811061174c5750505090565b90919261177061176960019261176187610d61565b815260200190565b9460010190565b92910161173f565b9061027f91611723565b9061026961179c9261179360405190565b93848092611778565b0383610345565b61027f90611782565b61027f60036117a3565b61026991906117d15f80516020612620833981519152611eb6565b90610269916117de611f05565b61181f565b156117ea57565b60405162461bcd60e51b815260206004820152600d60248201526c496e76616c69642073636f726560981b6044820152606490fd5b6114b261187c7fd66723a09be01a84b32365552d4a0d51e33861ae6ec9c940f711568236dafef79261185661137a6102b75f610e08565b61186d61186461027f6106f9565b865b11156117e3565b6113c78561110783600561069c565b9261188660405190565b918291829081526040602082018190525f9082015260600190565b90610269916117b6565b156118b257565b60405162461bcd60e51b815260206004820152600f60248201526e098cadccee8d040dad2e6dac2e8c6d608b1b6044820152606490fd5b156118f057565b60405162461bcd60e51b815260206004820152600f60248201526e426174636820746f6f206c6172676560881b6044820152606490fd5b90610c716103ba83610e53565b369037565b9061026961194f61194984611927565b93610e53565b601f190160208401611934565b9190811015610a90576020020190565b3561027f816102c3565b3561027f8161031e565b903590601e19368290030182121561024557018035906001600160401b038211610245576020019136829003831361024557565b90821015610a905760206108cc9202810190611980565b903590601e19368290030182121561024557018035906001600160401b0382116102455760200191602082023603831361024557565b90821015610a905760206108cc92028101906119cb565b90611a21825190565b811015610a90576020809102010190565b969391929795949097611a43606090565b508897611a53825b8a5b146118ab565b611a5c83611a4b565b611a6586611a4b565b611a7c611a7361027f610bdc565b8a5b11156118e9565b611a8589611939565b97611a8f5f61053a565b8a5b811015611b2e57611b2781611b218c8f83611b148f8f8f8f9a8f928f8f93611a919e611afb611af58661104299611aef611b1a9f83611b0199611ae4611adf611b079f611aea95859161195c565b61196c565b9961195c565b611976565b946119b4565b90610ec2565b91611f82565b94611a01565b61103c6002939293610d61565b92611a18565b9015159052565b60010190565b9050611a8f565b50995050505050505050905090565b6102699190611b585f80516020612620833981519152611eb6565b9061026991611b65611f05565b611bde565b15611b7157565b60405162461bcd60e51b815260206004820152600d60248201526c151859c81b9bdd08199bdd5b99609a1b6044820152606490fd5b91906008610f859102916115a160ff841b90565b9190611bcb61027f610fa693151590565b908354611ba6565b610269915f91611bba565b6113cc611c1791611bff611bfa6113a48661099d85600661069c565b611b6a565b6113c75f611c128661099d85600661069c565b611bd3565b907f859841a75459df4a33699773abc9f1752c6953a02476ebc2f9e36f11ea9d14726113fb60405190565b9061026991611b3d565b611c625f80516020612640833981519152611eb6565b610269611c6d611f05565b610269611c78612298565b611c8133610693565b7f80170b5fcdd2bf1e0660ef4b8851f86685f64d41b1a19de1471947ece8725aac6114a960405190565b610269611c4c565b61027f915f611ccd6113a493611cc65f90565b508261096a565b0161069c565b61026993929190611cf05f80516020612620833981519152611eb6565b90610269939291611cff611f05565b909392908493611d0f8386611a4d565b611d23611d1d61027f610bdc565b86611a75565b611d2c5f61053a565b855b811015611e3357611e2c81867fd66723a09be01a84b32365552d4a0d51e33861ae6ec9c940f711568236dafef7611e23611def611de9611aea868f611de3611adf8f929c8f9d8e611d2e9f611dca611aea8f898791611da6611d97611adf858b611dc59a61195c565b6113856110b46102b75f610e08565b611dc5611db7611aea85858561195c565b6118666113cc61027f6106f9565b61195c565b6111076005611ddd611adf88888861195c565b9061069c565b9761195c565b93610693565b92611df960405190565b91829182908152604060208201819052600590820152640c4c2e8c6d60db1b606082015260800190565b0390a260010190565b9050611d2c565b50945050505050565b90610269939291611cd3565b9193611e6d61027f9561104293611e5c5f90565b50611e676002610d61565b95611f82565b93610eb7565b61027f9161099d6113a492611e855f90565b50600661069c565b9061026991611e9e610dbb82611277565b906112af91612178565b9061026991611e8d565b1490565b6102699033906122c1565b61027f600261053a565b611ed36122ef565b610269611ede611ec1565b5f611eea61027f612337565b01610f8f565b61027f600161053a565b610269611ede611ef0565b611f0d611719565b611f1357565b63d93c066560e01b5f908152600490fd5b611f4661027f949293610fc160608401955f8501906001600160a01b03169052565b6040818403910152610cb4565b90610269611f6060405190565b8093611f7660208301918261039b816020939052565b90810382520383610345565b611fc99291611fb191611fa5611f9760405190565b948593602085019384611f24565b90810382520382610345565b611fc3611fbc825190565b9160200190565b20611f53565b611fd4611fbc825190565b2090565b610f6c611eb292936113cc92611feb5f90565b5061233f565b61039b61200992602092612003815190565b94859290565b93849101610ca9565b610282906001600160a01b031660601b90565b602061039b9461206f82601496612069610c71839c9b98612063612069997326b2b935b632a934b9b5a932b3b4b9ba393c903b60611b815260140190565b90611ff1565b01918252565b018092612012565b906120b661027f926120865f90565b5061208f610c99565b90611fa561209c30610693565b946120a660405190565b9586946020860194469186612025565b6120c1611fbc825190565b207f19457468657265756d205369676e6564204d6573736167653a0a3332000000005f52601c52603c5f2090565b61027f916120fc9161238d565b90929192612428565b6121126110478383611cb3565b156121725761212b60016113c2845f611ccd868261096a565b61213f612139611de9339390565b91610693565b917f2f8788117e7eff1d82e926ec794901d17c78024a50270940304540a733656f0d61216a60405190565b5f90a4600190565b50505f90565b6121828282611cb3565b156121725761219a5f6113c28482611ccd868261096a565b6121a8612139611de9339390565b917ff6391f5c32d9c69d2a47ea670b442974b53935d1edc7fd64eb21e047a839171b61216a60405190565b6121de611047611719565b6121e457565b638dfc202b60e01b5f908152600490fd5b6121fd6121d3565b61026961220b5f600161134d565b7f5db9ee0a495bf2e6ff9c91a7834c1ba4fdd244a5e8aa4e537bd38aeae4b073aa61224b335b604051918291826001600160a01b03909116815260200190565b0390a1565b6102696121f5565b612260611f05565b61026961226e60018061134d565b7f62e78cea01bee320cd4e420270b5ea74000d11b0c9f74754ebdbfc544b05a25861224b33612231565b610269612258565b6001600160a01b0390911681526040810192916102699160200152565b0152565b906122cf6110478284611cb3565b6122d7575050565b63e2517d3f60e01b5f908152916114469160046122a0565b6122f76124d9565b6122fd57565b633ee5aeb560e01b5f908152600490fd5b61027f7f9b779b17422d0df92223018b32b4d1fa46e071723d6817e2486d003becc55f0061053a565b61027f61230e565b6123485f61053a565b915b61235561027f835190565b8310156123875761237a612381916123746123708686611a18565b5190565b906124f6565b9260010190565b9161234a565b91505090565b905f91612398825190565b6123a56113cc604161053a565b036123ce576123c79250602082015190606060408401519301515f1a90612559565b9192909190565b5090506123ea6123e56123e05f610e08565b925190565b61053a565b909160029190565b634e487b7160e01b5f52602160045260245ffd5b6004111561241057565b6123f2565b9061026982612406565b61027f9061053a565b6124315f612415565b61243a82612415565b03612443575050565b61244d6001612415565b61245682612415565b0361246c5763f645eedf60e01b5f908152600490fd5b6124766002612415565b61247f82612415565b036124a7575f6114466124918461241f565b63fce698f760e01b835260048301526024820190565b6124ba6124b46003612415565b91612415565b146124c25750565b6335e2f38360e21b5f908152600491909152602490fd5b6124e85f61128e61027f612337565b611eb26113cc61027f611ec1565b8181101561250f579061027f915f5260205260405f2090565b61027f915f5260205260405f2090565b6122bd6102699461254760609498979561253d608086019a5f870152565b60ff166020850152565b6040830152565b6040513d5f823e3d90fd5b90916125648461241f565b6125906113cc7f7fffffffffffffffffffffffffffffff5d576e7357a4501ddfe92f46681b20a061053a565b1161260c57906125b16020945f94936125a860405190565b9485948561251f565b838052039060015afa15612607575f516125ca5f610e08565b6001600160a01b0381166001600160a01b038316146125f457506125ed5f61053a565b90915f9190565b90506125ff5f61053a565b909160019190565b61254e565b5050506126185f610e08565b916003919056fe68e79a7bf1e0bc45d0a330c573bc367f9cf464fd326078812f301165fbda4ef1a49807205ce4d355092ef5a8a18f56e8913cf4a201fbe287825b095693c21775a164736f6c634300081a000a",
  "linkReferences": {},
  "deployedLinkReferences": {}
}