{
  "_format": "hh-sol-artifact-1",
  "contractName": "MerkleRiskRegistry",
  "sourceName": "contracts/MerkleRiskRegistry.sol",
  "abi": [
    {
      "inputs": [
        {
          "internalType": "bytes32",
          "name": "initialMerkleRoot",
          "type": "bytes32"
        }
      ],
      "stateMutability": "nonpayable",
      "type": "constructor"
    },
    {
      "inputs": [],
      "name": "AccessControlBadConfirmation",
      "type": "error"
    },
    {
      "inputs": [
        {
          "internalType": "address",
          "name": "account",
          "type": "address"
        },
        {
          "internalType": "bytes32",
          "name": "neededRole",
          "type": "bytes32"
        }
      ],
      "name": "AccessControlUnauthorizedAccount",
      "type": "error"
    },
    {
      "inputs": [],
      "name": "ECDSAInvalidSignature",
      "type": "error"
    },
    {
      "inputs": [
        {
          "internalType": "uint256",
          "name": "length",
          "type": "uint256"
        }
      ],
      "name": "ECDSAInvalidSignatureLength",
      "type": "error"
    },
    {
      "inputs": [
        {
          "internalType": "bytes32",
          "name": "s",
          "type": "bytes32"
        }
      ],
      "name": "ECDSAInvalidSignatureS",
      "type": "error"
    },
    {
      "inputs": [],
      "name": "EnforcedPause",
      "type": "error"
    },
    {
      "inputs": [],
      "name": "ExpectedPause",
      "type": "error"
    },
    {
      "inputs": [],
      "name": "ReentrancyGuardReentrantCall",
      "type": "error"
    },
    {
      "anonymous": false,
      "inputs": [
        {
          "indexed": true,
          "internalType": "address",
          "name": "addr",
          "type": "address"
        },
        {
          "indexed": false,
          "internalType": "uint256",
          "name": "riskScore",
          "type": "uint256"
        },
        {
          "indexed": false,
          "internalType": "string",
          "name": "tags",
          "type": "string"
        }
      ],
      "name": "AddressRiskUpdated",
      "type": "event"
    },
    {
      "anonymous": false,
      "inputs": [
        {
          "indexed": true,
          "internalType": "address",
          "name": "addr",
          "type": "address"
        },
        {
          "indexed": true,
          "internalType": "bytes32",
          "name": "tag",
          "type": "bytes32"
        },
        {
          "indexed": false,
          "internalType": "uint256",
          "name": "timestamp",
          "type": "uint256"
        }
      ],
      "name": "AddressTagAdded",
      "type": "event"
    },
    {
      "anonymous": false,
      "inputs": [
        {
          "indexed": true,
          "internalType": "address",
          "name": "addr",
          "type": "address"
        },
        {
          "indexed": true,
          "internalType": "bytes32",
          "name": "tag",
          "type": "bytes32"
        },
        {
          "indexed": false,
          "internalType": "uint256",
          "name": "timestamp",
          "type": "uint256"
        }
      ],
      "name": "AddressTagRemoved",
      "type": "event"
    },
    {
      "anonymous": false,
      "inputs": [
        {
          "indexed": true,
          "internalType": "address",
          "name": "account",
          "type": "address"
        },
        {
          "indexed": false,
          "internalType": "uint256",
          "name": "timestamp",
          "type": "uint256"
        }
      ],
      "name": "ContractPaused",
      "type": "event"
    },
    {
      "anonymous": false,
      "inputs": [
        {
          "indexed": true,
          "internalType": "address",
          "name": "account",
          "type": "address"
        },
        {
          "indexed": false,
          "internalType": "uint256",
          "name": "timestamp",
          "type": "uint256"
        }
      ],
      "name": "ContractUnpaused",
      "type": "event"
    },
    {
      "anonymous": false,
      "inputs": [
        {
          "indexed": true,
          "internalType": "bytes32",
          "name": "oldRoot",
          "type": "bytes32"
        },
        {
          "indexed": true,
          "internalType": "bytes32",
          "name": "newRoot",
          "type": "bytes32"
        },
        {
          "indexed": false,
          "internalType": "uint256",
          "name": "timestamp",
          "type": "uint256"
        },
        {
          "indexed": false,
          "internalType": "string",
          "name": "version",
          "type": "string"
        }
      ],
      "name": "MerkleRootUpdated",
      "type": "event"
    },
    {
      "anonymous": false,
      "inputs": [
        {
          "indexed": false,
          "internalType": "address",
          "name": "account",
          "type": "address"
        }
      ],
      "name": "Paused",
      "type": "event"
    },
    {
      "anonymous": false,
      "inputs": [
        {
          "indexed": true,
          "internalType": "bytes32",
          "name": "role",
          "type": "bytes32"
        },
        {
          "indexed": true,
          "internalType": "bytes32",
          "name": "previousAdminRole",
          "type": "bytes32"
        },
        {
          "indexed": true,
          "internalType": "bytes32",
          "name": "newAdminRole",
          "type": "bytes32"
        }
      ],
      "name": "RoleAdminChanged",
      "type": "event"
    },
    {
      "anonymous": false,
      "inputs": [
        {
          "indexed": true,
          "internalType": "bytes32",
          "name": "role",
          "type": "bytes32"
        },
        {
          "indexed": true,
          "internalType": "address",
          "name": "account",
          "type": "address"
        },
        {
          "indexed": true,
          "internalType": "address",
          "name": "sender",
          "type": "address"
        }
      ],
      "name": "RoleGranted",
      "type": "event"
    },
    {
      "anonymous": false,
      "inputs": [
        {
          "indexed": true,
          "internalType": "bytes32",
          "name": "role",
          "type": "bytes32"
        },
        {
          "indexed": true,
          "internalType": "address",
          "name": "account",
          "type": "address"
        },
        {
          "indexed": true,
          "internalType": "address",
          "name": "sender",
          "type": "address"
        }
      ],
      "name": "RoleRevoked",
      "type": "event"
    },
    {
      "anonymous": false,
      "inputs": [
        {
          "indexed": true,
          "internalType": "address",
          "name": "signer",
          "type": "address"
        },
        {
          "indexed": true,
          "internalType": "bytes32",
          "name": "leaf",
          "type": "bytes32"
        },
        {
          "indexed": false,
          "internalType": "uint256",
          "name": "nonce",
          "type": "uint256"
        },
        {
          "indexed": false,
          "internalType": "uint256",
          "name": "chainId",
          "type": "uint256"
        },
        {
          "indexed": false,
          "internalType": "address",
          "name": "contractAddress",
          "type": "address"
        }
      ],
      "name": "SignatureVerified",
      "type": "event"
    },
    {
      "anonymous": false,
      "inputs": [
        {
          "indexed": false,
          "internalType": "address",
          "name": "account",
          "type": "address"
        }
      ],
      "name": "Unpaused",
      "type": "event"
    },
    {
      "anonymous": false,
      "inputs": [
        {
          "indexed": false,
          "internalType": "string",
          "name": "functionName",
          "type": "string"
        },
        {
          "indexed": false,
          "internalType": "uint256",
          "name": "timestamp",
          "type": "uint256"
        }
      ],
      "name": "ZeroAddressRejected",
      "type": "event"
    },
    {
      "inputs": [],
      "name": "ADMIN_ROLE",
      "outputs": [
        {
          "internalType": "bytes32",
          "name": "",
          "type": "bytes32"
        }
      ],
      "stateMutability": "view",
      "type": "function"
    },
    {
      "inputs": [],
      "name": "DEFAULT_ADMIN_ROLE",
      "outputs": [
        {
          "internalType": "bytes32",
          "name": "",
          "type": "bytes32"
        }
      ],
      "stateMutability": "view",
      "type": "function"
    },
    {
      "inputs": [],
      "name": "MAX_BATCH_SIZE",
      "outputs": [
        {
          "internalType": "uint256",
          "name": "",
          "type": "uint256"
        }
      ],
      "stateMutability": "view",
      "type": "function"
    },
    {
      "inputs": [],
      "name": "MAX_HISTORY",
      "outputs": [
        {
          "internalType": "uint256",
          "name": "",
          "type": "uint256"
        }
      ],
      "stateMutability": "view",
      "type": "function"
    },
    {
      "inputs": [],
      "name": "MAX_RISK_SCORE",
      "outputs": [
        {
          "internalType": "uint256",
          "name": "",
          "type": "uint256"
        }
      ],
      "stateMutability": "view",
      "type": "function"
    },
    {
      "inputs": [],
      "name": "ORACLE_ROLE",
      "outputs": [
        {
          "internalType": "bytes32",
          "name": "",
          "type": "bytes32"
        }
      ],
      "stateMutability": "view",
      "type": "function"
    },
    {
      "inputs": [],
      "name": "RELAYER_ROLE",
      "outputs": [
        {
          "internalType": "bytes32",
          "name": "",
          "type": "bytes32"
        }
      ],
      "stateMutability": "view",
      "type": "function"
    },
    {
      "inputs": [],
      "name": "VERSION",
      "outputs": [
        {
          "internalType": "string",
          "name": "",
          "type": "string"
        }
      ],
      "stateMutability": "view",
      "type": "function"
    },
    {
      "inputs": [
        {
          "internalType": "address",
          "name": "addr",
          "type": "address"
        },
        {
          "internalType": "bytes32",
          "name": "tag",
          "type": "bytes32"
        }
      ],
      "name": "addAddressTag",
      "outputs": [],
      "stateMutability": "nonpayable",
      "type": "function"
    },
    {
      "inputs": [
        {
          "internalType": "address",
          "name": "",
          "type": "address"
        }
      ],
      "name": "addressRiskScores",
      "outputs": [
        {
          "internalType": "uint256",
          "name": "",
          "type": "uint256"
        }
      ],
      "stateMutability": "view",
      "type": "function"
    },
    {
      "inputs": [
        {
          "internalType": "address",
          "name": "",
          "type": "address"
        },
        {
          "internalType": "bytes32",
          "name": "",
          "type": "bytes32"
        }
      ],
      "name": "addressTags",
      "outputs": [
        {
          "internalType": "bool",
          "name": "",
          "type": "bool"
        }
      ],
      "stateMutability": "view",
      "type": "function"
    },
    {
      "inputs": [
        {
          "internalType": "address[]",
          "name": "addresses",
          "type": "address[]"
        },
        {
          "internalType": "uint256[]",
          "name": "riskScores",
          "type": "uint256[]"
        }
      ],
      "name": "batchSetRiskScores",
      "outputs": [],
      "stateMutability": "nonpayable",
      "type": "function"
    },
    {
      "inputs": [
        {
          "internalType": "address[]",
          "name": "addresses",
          "type": "address[]"
        },
        {
          "internalType": "uint256[]",
          "name": "riskScores",
          "type": "uint256[]"
        },
        {
          "internalType": "string[]",
          "name": "riskTiers",
          "type": "string[]"
        },
        {
          "internalType": "bytes32[][]",
          "name": "proofs",
          "type": "bytes32[][]"
        }
      ],
      "name": "batchVerify",
      "outputs": [
        {
          "internalType": "bool[]",
          "name": "results",
          "type": "bool[]"
        }
      ],
      "stateMutability": "view",
      "type": "function"
    },
    {
      "inputs": [
        {
          "internalType": "address",
          "name": "addr",
          "type": "address"
        }
      ],
      "name": "getAddressRiskScore",
      "outputs": [
        {
          "internalType": "uint256",
          "name": "",
          "type": "uint256"
        }
      ],
      "stateMutability": "view",
      "type": "function"
    },
    {
      "inputs": [],
      "name": "getMerkleRoot",
      "outputs": [
        {
          "internalType": "bytes32",
          "name": "",
          "type": "bytes32"
        }
      ],
      "stateMutability": "view",
      "type": "function"
    },
    {
      "inputs": [],
      "name": "getMerkleRootHistory",
      "outputs": [
        {
          "internalType": "bytes32[]",
          "name": "",
          "type": "bytes32[]"
        }
      ],
      "stateMutability": "view",
      "type": "function"
    },
    {
      "inputs": [
        {
          "internalType": "bytes32",
          "name": "role",
          "type": "bytes32"
        }
      ],
      "name": "getRoleAdmin",
      "outputs": [
        {
          "internalType": "bytes32",
          "name": "",
          "type": "bytes32"
        }
      ],
      "stateMutability": "view",
      "type": "function"
    },
    {
      "inputs": [
        {
          "internalType": "bytes32",
          "name": "role",
          "type": "bytes32"
        },
        {
          "internalType": "address",
          "name": "account",
          "type": "address"
        }
      ],
      "name": "grantRole",
      "outputs": [],
      "stateMutability": "nonpayable",
      "type": "function"
    },
    {
      "inputs": [
        {
          "internalType": "bytes32",
          "name": "role",
          "type": "bytes32"
        },
        {
          "internalType": "address",
          "name": "account",
          "type": "address"
        }
      ],
      "name": "hasRole",
      "outputs": [
        {
          "internalType": "bool",
          "name": "",
          "type": "bool"
        }
      ],
      "stateMutability": "view",
      "type": "function"
    },
    {
      "inputs": [
        {
          "internalType": "address",
          "name": "addr",
          "type": "address"
        },
        {
          "internalType": "bytes32",
          "name": "tag",
          "type": "bytes32"
        }
      ],
      "name": "hasTag",
      "outputs": [
        {
          "internalType": "bool",
          "name": "",
          "type": "bool"
        }
      ],
      "stateMutability": "view",
      "type": "function"
    },
    {
      "inputs": [],
      "name": "historyIndex",
      "outputs": [
        {
          "internalType": "uint256",
          "name": "",
          "type": "uint256"
        }
      ],
      "stateMutability": "view",
      "type": "function"
    },
    {
      "inputs": [],
      "name": "merkleRoot",
      "outputs": [
        {
          "internalType": "bytes32",
          "name": "",
          "type": "bytes32"
        }
      ],
      "stateMutability": "view",
      "type": "function"
    },
    {
      "inputs": [
        {
          "internalType": "uint256",
          "name": "",
          "type": "uint256"
        }
      ],
      "name": "merkleRootHistory",
      "outputs": [
        {
          "internalType": "bytes32",
          "name": "",
          "type": "bytes32"
        }
      ],
      "stateMutability": "view",
      "type": "function"
    },
    {
      "inputs": [],
      "name": "pause",
      "outputs": [],
      "stateMutability": "nonpayable",
      "type": "function"
    },
    {
      "inputs": [],
      "name": "paused",
      "outputs": [
        {
          "internalType": "bool",
          "name": "",
          "type": "bool"
        }
      ],
      "stateMutability": "view",
      "type": "function"
    },
    {
      "inputs": [
        {
          "internalType": "address",
          "name": "addr",
          "type": "address"
        },
        {
          "internalType": "bytes32",
          "name": "tag",
          "type": "bytes32"
        }
      ],
      "name": "removeAddressTag",
      "outputs": [],
      "stateMutability": "nonpayable",
      "type": "function"
    },
    {
      "inputs": [
        {
          "internalType": "bytes32",
          "name": "role",
          "type": "bytes32"
        },
        {
          "internalType": "address",
          "name": "callerConfirmation",
          "type": "address"
        }
      ],
      "name": "renounceRole",
      "outputs": [],
      "stateMutability": "nonpayable",
      "type": "function"
    },
    {
      "inputs": [
        {
          "internalType": "bytes32",
          "name": "role",
          "type": "bytes32"
        },
        {
          "internalType": "address",
          "name": "account",
          "type": "address"
        }
      ],
      "name": "revokeRole",
      "outputs": [],
      "stateMutability": "nonpayable",
      "type": "function"
    },
    {
      "inputs": [
        {
          "internalType": "address",
          "name": "addr",
          "type": "address"
        },
        {
          "internalType": "uint256",
          "name": "riskScore",
          "type": "uint256"
        }
      ],
      "name": "setAddressRiskScore",
      "outputs": [],
      "stateMutability": "nonpayable",
      "type": "function"
    },
    {
      "inputs": [
        {
          "internalType": "address",
          "name": "",
          "type": "address"
        }
      ],
      "name": "signerNonces",
      "outputs": [
        {
          "internalType": "uint256",
          "name": "",
          "type": "uint256"
        }
      ],
      "stateMutability": "view",
      "type": "function"
    },
    {
      "inputs": [
        {
          "internalType": "bytes4",
          "name": "interfaceId",
          "type": "bytes4"
        }
      ],
      "name": "supportsInterface",
      "outputs": [
        {
          "internalType": "bool",
          "name": "",
          "type": "bool"
        }
      ],
      "stateMutability": "view",
      "type": "function"
    },
    {
      "inputs": [],
      "name": "unpause",
      "outputs": [],
      "stateMutability": "nonpayable",
      "type": "function"
    },
    {
      "inputs": [
        {
          "internalType": "bytes32",
          "name": "newRoot",
          "type": "bytes32"
        }
      ],
      "name": "updateMerkleRoot",
      "outputs": [],
      "stateMutability": "nonpayable",
      "type": "function"
    },
    {
      "inputs": [
        {
          "internalType": "address",
          "name": "addr",
          "type": "address"
        },
        {
          "internalType": "uint256",
          "name": "riskScore",
          "type": "uint256"
        },
        {
          "internalType": "string",
          "name": "riskTier",
          "type": "string"
        },
        {
          "internalType": "bytes32[]",
          "name": "proof",
          "type": "bytes32[]"
        }
      ],
      "name": "verifyAddress",
      "outputs": [
        {
          "internalType": "bool",
          "name": "",
          "type": "bool"
        }
      ],
      "stateMutability": "view",
      "type": "function"
    },
    {
      "inputs": [
        {
          "internalType": "address",
          "name": "addr",
          "type": "address"
        },
        {
          "internalType": "uint256",
          "name": "riskScore",
          "type": "uint256"
        },
        {
          "internalType": "string",
          "name": "riskTier",
          "type": "string"
        },
        {
          "internalType": "bytes32[]",
          "name": "proof",
          "type": "bytes32[]"
        },
        {
          "internalType": "bytes",
          "name": "signature",
          "type": "bytes"
        },
        {
          "internalType": "address",
          "name": "signer",
          "type": "address"
        }
      ],
      "name": "verifyAddressWithSignature",
      "outputs": [
        {
          "internalType": "bool",
          "name": "",
          "type": "bool"
        }
      ],
      "stateMutability": "nonpayable",
      "type": "function"
    }
  ],
  "bytecode": "0x60806040523461002a57610019610014610091565b6101ca565b60405161265c610414823961265c90f35b5f80fd5b634e487b7160e01b5f52604160045260245ffd5b90601f01601f191681019081106001600160401b0382111761006357604052565b61002e565b9061007c61007560405190565b9283610042565b565b9060208282031261002a57505190565b90565b61008e612a70803803806100a481610068565b92833981019061007e565b61008e61008e61008e9290565b156100c357565b60405162461bcd60e51b815260206004820152601460248201527f496e76616c696420696e697469616c20726f6f740000000000000000000000006044820152606490fd5b61008e5f6100af565b905f19905b9181191691161790565b9061012e61008e6101359290565b8254610111565b9055565b634e487b7160e01b5f52603260045260245ffd5b805482101561016d576101656001915f5260205f2090565b910201905f90565b610139565b915f1960089290920291821b911b610116565b919061019461008e6101359390565b908354610172565b908154916801000000000000000083101561006357826101c491600161007c9501815561014d565b90610185565b61007c906101d6610290565b6101ed6101e561008e5f6100af565b8214156100bc565b6101ff6101f8610108565b3390610339565b506102297fa49807205ce4d355092ef5a8a18f56e8913cf4a201fbe287825b095693c217756101f8565b506102537f68e79a7bf1e0bc45d0a330c573bc367f9cf464fd326078812f301165fbda4ef16101f8565b5061027d7fe2b7fb3b832174769106daebcfd6d1970523240dda11281102db9363b83b0dc46101f8565b50610289816002610120565b600361019c565b61007c6102b2565b61008e60016100af565b9061012e61008e610135926100af565b61007c6102bd610298565b5f6102c961008e6103ea565b016102a2565b905b5f5260205260405f2090565b61008e906102f1906001600160a01b031682565b6001600160a01b031690565b61008e906102dd565b61008e906102fd565b906102d190610306565b9060ff90610116565b9061033261008e61013592151590565b8254610319565b61034a61034683836103f2565b1590565b156103bb5761036e6001610369845f61036386826102cf565b0161030f565b610322565b61038861038261037c339390565b93610306565b91610306565b917f2f8788117e7eff1d82e926ec794901d17c78024a50270940304540a733656f0d6103b360405190565b5f90a4600190565b50505f90565b61008e7f9b779b17422d0df92223018b32b4d1fa46e071723d6817e2486d003becc55f006100af565b61008e6103c1565b61008e915f61036361040c936104055f90565b50826102cf565b5460ff169056fe60806040526004361015610011575f80fd5b5f3560e01c806301ffc9a714610240578063047ff2ed1461023b5780630636b2061461023657806307e2cea51461023157806313545a021461022c578063248a9ca3146102275780632eb4a7ab146102225780632f2ff15d1461021d5780633645d03b1461021857806336568abe146102135780633c850b1f1461020e5780633f4ba83a1461020957806345f19131146102045780634783f0ef146101ff57806349590657146101fa5780635c975abb146101f557806360e9ea03146101f057806375b238fc146101eb5780637d6f65d6146101e65780637dfa4e61146101e1578063817fbc52146101dc578063840dd44b146101d75780638456cb59146101d257806391d14854146101cd578063926d7d7f146101c8578063a217fddf146101c3578063b5ad9215146101be578063bdda4ed6146101b9578063c12b528a146101b4578063c28d5a7e146101af578063cfdbf254146101aa578063d019577a146101a5578063d547741f146101a0578063ea6454cd1461019b5763ffa1ad740361024557610cf5565b610c45565b610c21565b610c05565b610bea565b610bbd565b610b8f565b610b12565b610aaf565b610a3d565b6109f3565b6109d7565b6109bf565b6109a3565b61094d565b61091c565b610823565b6107fd565b6107d6565b610755565b61073a565b610722565b610707565b6106dd565b6106c2565b610659565b610640565b6105ff565b6105c1565b610585565b610556565b610510565b6104e1565b6102ef565b610282565b5f80fd5b6001600160e01b031981165b0361024557565b9050359061026982610249565b565b906020828203126102455761027f9161025c565b90565b34610245576102af61029d61029836600461026b565b610d1c565b60405191829182901515815260200190565b0390f35b6001600160a01b031690565b6001600160a01b038116610255565b90503590610269826102bf565b906020828203126102455761027f916102ce565b34610245576102af61030a6103053660046102db565b610d67565b6040519182918290815260200190565b80610255565b905035906102698261031a565b634e487b7160e01b5f52604160045260245ffd5b90601f01601f191681019081106001600160401b0382111761036257604052565b61032d565b9061026961037460405190565b9283610341565b6001600160401b03811161036257602090601f01601f19160190565b0190565b90825f939282370152565b909291926103bb6103b68261037b565b610367565b93818552818301116102455761026991602085019061039b565b9080601f830112156102455781602061027f933591016103a6565b909182601f83011215610245578135916001600160401b03831161024557602001926020830284011161024557565b909182601f83011215610245578135916001600160401b03831161024557602001926001830284011161024557565b60c0818303126102455761046282826102ce565b926104708360208401610320565b9260408301356001600160401b03811161024557816104909185016103d5565b9260608101356001600160401b03811161024557826104b09183016103f0565b92909360808301356001600160401b03811161024557826104d860a09461027f93870161041f565b949095016102ce565b34610245576102af61029d6104f736600461044e565b96959095949194939293611262565b5f91031261024557565b3461024557610520366004610506565b6102af5f8051602061261083398151915261030a565b61027f61027f61027f9290565b61027f610100610536565b61027f610543565b3461024557610566366004610506565b6102af61030a61054e565b906020828203126102455761027f91610320565b34610245576102af61030a61059b366004610571565b611273565b61027f916008021c81565b9061027f91546105a0565b61027f5f60026105ab565b34610245576105d1366004610506565b6102af61030a6105b6565b91906040838203126102455761027f9060206105f88286610320565b94016102ce565b34610245576106186106123660046105dc565b906112ae565b604051005b91906040838203126102455761027f90602061063982866102ce565b9401610320565b346102455761061861065336600461061d565b90611405565b346102455761061861066c3660046105dc565b9061140f565b61027f906102b3906001600160a01b031682565b61027f90610672565b61027f90610686565b906106a29061068f565b5f5260205260405f2090565b5f6106bd61027f926007610698565b6105ab565b34610245576102af61030a6106d83660046102db565b6106ae565b34610245576106ed366004610506565b6106186114b3565b61027f6064610536565b61027f6106f5565b3461024557610717366004610506565b6102af61030a6106ff565b3461024557610618610735366004610571565b611702565b346102455761074a366004610506565b6102af61030a61170b565b3461024557610765366004610506565b6102af61029d611715565b9061079061078961077f845190565b8084529260200190565b9260200190565b905f5b8181106107a05750505090565b9091926107bd6107b66001928651815260200190565b9460200190565b929101610793565b602080825261027f92910190610770565b34610245576107e6366004610506565b6102af6107f16117a8565b604051918291826107c5565b346102455761080d366004610506565b6102af5f8051602061263083398151915261030a565b346102455761061861083636600461061d565b9061189d565b90916080828403126102455781356001600160401b03811161024557836108649184016103f0565b92909360208201356001600160401b03811161024557816108869184016103f0565b92909360408201356001600160401b03811161024557836108a89184016103f0565b92909360608201356001600160401b038111610245576108c892016103f0565b9091565b906108db61078961077f845190565b905f5b8181106108eb5750505090565b9091926109036107b660019286511515815260200190565b9291016108de565b602080825261027f929101906108cc565b34610245576102af61094161093236600461083c565b96959095949194939293611a2e565b6040519182918261090b565b346102455761061861096036600461061d565b90611c3e565b906106a2565b61027f916008021c5b60ff1690565b9061027f915461096c565b61099e61027f926109995f936006610698565b610966565b61097b565b34610245576102af61029d6109b936600461061d565b90610986565b34610245576109cf366004610506565b610618611ca7565b34610245576102af61029d6109ed3660046105dc565b90611caf565b3461024557610a03366004610506565b6102af7fe2b7fb3b832174769106daebcfd6d1970523240dda11281102db9363b83b0dc461030a565b61027f5f610536565b61027f610a2c565b3461024557610a4d366004610506565b6102af61030a610a35565b634e487b7160e01b5f52603260045260245ffd5b8054821015610a8c57610a846001915f5260205f2090565b910201905f90565b610a58565b60035481101561024557610aa961027f916003610a6c565b906105ab565b34610245576102af61030a610ac5366004610571565b610a91565b90916040828403126102455781356001600160401b0381116102455783610af29184016103f0565b92909360208201356001600160401b038111610245576108c892016103f0565b3461024557610618610b25366004610aca565b92919091611e38565b9060808282031261024557610b4381836102ce565b92610b518260208501610320565b9260408101356001600160401b0381116102455783610b719183016103d5565b9260608201356001600160401b038111610245576108c892016103f0565b34610245576102af61029d610ba5366004610b2e565b93929092611e44565b5f6106bd61027f926005610698565b34610245576102af61030a610bd33660046102db565b610bae565b61027f60c8610536565b61027f610bd8565b3461024557610bfa366004610506565b6102af61030a610be2565b34610245576102af61029d610c1b36600461061d565b90611e6f565b3461024557610618610c343660046105dc565b90611ea4565b61027f5f60046105ab565b3461024557610c55366004610506565b6102af61030a610c3a565b90610c6d6103b68361037b565b918252565b610c7c6005610c60565b640312e322e360dc1b602082015290565b61027f610c72565b61027f610c8d565b61027f610c95565b90825f9392825e0152565b610cd1610cda60209361039793610cc5815190565b80835293849260200190565b95869101610ca5565b601f01601f191690565b602080825261027f92910190610cb0565b3461024557610d05366004610506565b6102af610d10610c9d565b60405191829182610ce4565b637965db0b60e01b6001600160e01b0319821614908115610d3b575090565b61027f91506001600160e01b0319166301ffc9a760e01b1490565b61027f9081565b61027f9054610d56565b610d7d61027f91610d755f90565b506005610698565b610d5d565b61027f989796959493929190610dbc7fe2b7fb3b832174769106daebcfd6d1970523240dda11281102db9363b83b0dc4611eb2565b611eb2565b90610dd59897969594939291610dd0611ec7565b610dde565b90610269611ef6565b9061027f9897969594939291610df2611f01565b610fd3565b6102b361027f61027f9290565b61027f90610df7565b6040808252601a908201527f76657269667941646472657373576974685369676e61747572650000000000006060820152919061026990602060808501940152565b6001600160401b0381116103625760208091020190565b90929192610e766103b682610e4f565b938185526020808601920283019281841161024557915b838310610e9a5750505050565b60208091610ea88486610320565b815201920191610e8d565b61027f913691610e66565b61027f9136916103a6565b15610ed057565b60405162461bcd60e51b8152602060048201526011602482015270496e76616c6964207369676e617475726560781b6044820152606490fd5b15610f1057565b60405162461bcd60e51b815260206004820152601560248201527414da59db995c881b9bdd08185d5d1a1bdc9a5e9959605a1b6044820152606490fd5b634e487b7160e01b5f52601160045260245ffd5b9190610f6c565b9290565b8201809211610f7757565b610f4d565b905f19905b9181191691161790565b90610f9b61027f610fa292610536565b8254610f7c565b9055565b908152606081019392610269929091604091610fc4905b6020830152565b01906001600160a01b03169052565b5095969395929091610fe45f610e04565b6001600160a01b0381166001600160a01b038616146111f2576001600160a01b03166001600160a01b038616146111845761103e966110479261102b611043938688611f7e565b9889926110386002610d5d565b92610eb3565b611fd4565b1590565b6111485761110361110f926110c36110a27ff060c903a0fb7f42e882edd8caab098185ae6b24437bd8cf261386d578f3129c9761109c61108b610d7d8a6007610698565b9b6110968d8d61206b565b92610ebe565b906120e3565b6110bd6001600160a01b0388165b916001600160a01b031690565b14610ec9565b6110e26110dd865f80516020612610833981519152611caf565b610f09565b6111086110f86110f26001610536565b8a610f61565b611103876007610698565b610f8b565b6005610698565b61112861112461111e3061068f565b9261068f565b9390565b9361114061113560405190565b928392469084610fa6565b0390a3600190565b60405162461bcd60e51b815260206004820152601460248201527324b73b30b634b21026b2b935b63290383937b7b360611b6044820152606490fd5b7fb1f7e734443091f517009c88e8427e84b43169fff07951ebad8908160d02104c6111ae60405190565b806111b94282610e0d565b0390a160405162461bcd60e51b815260206004820152600e60248201526d24b73b30b634b21039b4b3b732b960911b6044820152606490fd5b7fb1f7e734443091f517009c88e8427e84b43169fff07951ebad8908160d02104c61121c60405190565b806112274282610e0d565b0390a16040515b62461bcd60e51b815260206004820152600f60248201526e496e76616c6964206164647265737360881b6044820152606490fd5b61027f97969594939291905f610d82565b600161128a61027f926112835f90565b505f610966565b01610d5d565b90610269916112a1610db782611273565b906112ab916120f9565b50565b9061026991611290565b61026991906112d35f80516020612610833981519152611eb2565b90610269916112e0611f01565b611360565b156112ec57565b60405161122e565b61027f90610975565b61027f90546112f4565b1561130e57565b60405162461bcd60e51b815260206004820152600a6024820152695461672065786973747360b01b6044820152606490fd5b9060ff90610f81565b9061135961027f610fa292151590565b8254611340565b6113c86113cc916113886113766102b35f610e04565b6001600160a01b0383165b14156112e5565b6113aa6113a56110436113a087610999866006610698565b6112fd565b611307565b6113c360016113be86610999856006610698565b611349565b61068f565b9190565b907f4158810c0fb3e8f702c2b130747d3164ff679fc60e03e7a51ef6e77a7d3b80a96113f760405190565b42815280602081015b0390a3565b90610269916112b8565b90611419336102b3565b6001600160a01b03821603611431576112ab9161216c565b63334bd91960e11b5f908152600490fd5b035ffd5b61145c5f80516020612630833981519152611eb2565b6102696114676121c7565b610269611472612244565b61147b3361068f565b7f107553d8191d85b405879cf752997865edd48d94e20bda4dd27223c94b31a7cc6114a560405190565b42815280602081015b0390a2565b610269611446565b610269906114d55f80516020612630833981519152611eb2565b610269906114e1611f01565b61160d565b156114ed57565b60405162461bcd60e51b815260206004820152600c60248201526b125b9d985b1a59081c9bdbdd60a21b6044820152606490fd5b1561152857565b60405162461bcd60e51b815260206004820152600960248201526814d85b59481c9bdbdd60ba1b6044820152606490fd5b90610f9b61027f610fa29290565b634e487b7160e01b5f52601260045260245ffd5b8115611585570690565b611567565b915f1960089290920291821b911b610f81565b921b90565b91906115b161027f610fa29390565b90835461158a565b908154916801000000000000000083101561036257826115e191600161026995018155610a6c565b906115a2565b5f198114610f775760010190565b90815260406020820181905261027f92910190610cb0565b61162461161c61027f5f610536565b8214156114e6565b61163c61163461027f6002610d5d565b821415611521565b6116466002610d5d565b90611652816002611559565b60038161165d825490565b611665610543565b908111156116dd5750611677916115b9565b61169361168c6116876004610d5d565b6115e7565b6004610f8b565b7f0b319d16f454c3add3119d04356ada3d1f4e262f03cd83eb54ee9a561e1722da6114006116c96111246116c5610c95565b9590565b936116d360405190565b91829142836115f5565b6116fd926116f76115e1926116f26004610d5d565b61157b565b90610a6c565b611677565b610269906114bb565b61027f6002610d5d565b61027f60016112fd565b9061173861172e61077f845490565b925f5260205f2090565b905f5b8181106117485750505090565b90919261176c61176560019261175d87610d5d565b815260200190565b9460010190565b92910161173b565b9061027f9161171f565b906102696117989261178f60405190565b93848092611774565b0383610341565b61027f9061177e565b61027f600361179f565b61026991906117cd5f80516020612610833981519152611eb2565b90610269916117da611f01565b61181b565b156117e657565b60405162461bcd60e51b815260206004820152600d60248201526c496e76616c69642073636f726560981b6044820152606490fd5b6114ae6118787fd66723a09be01a84b32365552d4a0d51e33861ae6ec9c940f711568236dafef7926118526113766102b35f610e04565b61186961186061027f6106f5565b865b11156117df565b6113c385611103836005610698565b9261188260405190565b918291829081526040602082018190525f9082015260600190565b90610269916117b2565b156118ae57565b60405162461bcd60e51b815260206004820152600f60248201526e098cadccee8d040dad2e6dac2e8c6d608b1b6044820152606490fd5b156118ec57565b60405162461bcd60e51b815260206004820152600f60248201526e426174636820746f6f206c6172676560881b6044820152606490fd5b90610c6d6103b683610e4f565b369037565b9061026961194b61194584611923565b93610e4f565b601f190160208401611930565b9190811015610a8c576020020190565b3561027f816102bf565b3561027f8161031a565b903590601e19368290030182121561024557018035906001600160401b038211610245576020019136829003831361024557565b90821015610a8c5760206108c8920281019061197c565b903590601e19368290030182121561024557018035906001600160401b0382116102455760200191602082023603831361024557565b90821015610a8c5760206108c892028101906119c7565b90611a1d825190565b811015610a8c576020809102010190565b969391929795949097611a3f606090565b508897611a4f825b8a5b146118a7565b611a5883611a47565b611a6186611a47565b611a78611a6f61027f610bd8565b8a5b11156118e5565b611a8189611935565b97611a8b5f610536565b8a5b811015611b2a57611b2381611b1d8c8f83611b108f8f8f8f9a8f928f8f93611a8d9e611af7611af18661103e99611aeb611b169f83611afd99611ae0611adb611b039f611ae6958591611958565b611968565b99611958565b611972565b946119b0565b90610ebe565b91611f7e565b946119fd565b6110386002939293610d5d565b92611a14565b9015159052565b60010190565b9050611a8b565b50995050505050505050905090565b6102699190611b545f80516020612610833981519152611eb2565b9061026991611b61611f01565b611bda565b15611b6d57565b60405162461bcd60e51b815260206004820152600d60248201526c151859c81b9bdd08199bdd5b99609a1b6044820152606490fd5b91906008610f8191029161159d60ff841b90565b9190611bc761027f610fa293151590565b908354611ba2565b610269915f91611bb6565b6113c8611c1391611bfb611bf66113a086610999856006610698565b611b66565b6113c35f611c0e86610999856006610698565b611bcf565b907f859841a75459df4a33699773abc9f1752c6953a02476ebc2f9e36f11ea9d14726113f760405190565b9061026991611b39565b611c5e5f80516020612630833981519152611eb2565b610269611c69611f01565b610269611c7461228c565b611c7d3361068f565b7f80170b5fcdd2bf1e0660ef4b8851f86685f64d41b1a19de1471947ece8725aac6114a560405190565b610269611c48565b61027f915f611cc96113a093611cc25f90565b5082610966565b01610698565b61026993929190611cec5f80516020612610833981519152611eb2565b90610269939291611cfb611f01565b909392908493611d0b8386611a49565b611d1f611d1961027f610bd8565b86611a71565b611d285f610536565b855b811015611e2f57611e2881867fd66723a09be01a84b32365552d4a0d51e33861ae6ec9c940f711568236dafef7611e1f611deb611de5611ae6868f611ddf611adb8f929c8f9d8e611d2a9f611dc6611ae68f898791611da2611d93611adb858b611dc19a611958565b6113816110b06102b35f610e04565b611dc1611db3611ae6858585611958565b6118626113c861027f6106f5565b611958565b6111036005611dd9611adb888888611958565b90610698565b97611958565b9361068f565b92611df560405190565b91829182908152604060208201819052600590820152640c4c2e8c6d60db1b606082015260800190565b0390a260010190565b9050611d28565b50945050505050565b90610269939291611ccf565b9193611e6961027f9561103e93611e585f90565b50611e636002610d5d565b95611f7e565b93610eb3565b61027f916109996113a092611e815f90565b506006610698565b9061026991611e9a610db782611273565b906112ab9161216c565b9061026991611e89565b1490565b6102699033906122b1565b61027f6002610536565b611ecf6122df565b610269611eda611ebd565b5f611ee661027f612327565b01610f8b565b61027f6001610536565b610269611eda611eec565b611f09611715565b611f0f57565b63d93c066560e01b5f908152600490fd5b611f4261027f949293610fbd60608401955f8501906001600160a01b03169052565b6040818403910152610cb0565b90610269611f5c60405190565b8093611f72602083019182610397816020939052565b90810382520383610341565b611fc59291611fad91611fa1611f9360405190565b948593602085019384611f20565b90810382520382610341565b611fbf611fb8825190565b9160200190565b20611f4f565b611fd0611fb8825190565b2090565b610f68611eae92936113c892611fe75f90565b5061232f565b906102699461205760a0949897956120506120486120679561203a60c089018981035f8b0152601481527326b2b935b632a934b9b5a932b3b4b9ba393c903b60611b602082015260400190565b9088820360208a0152610cb0565b9a6040870152565b6060850152565b6001600160a01b03166080830152565b0152565b906120aa61027f9261207a5f90565b50612083610c95565b90611fa16120903061068f565b9461209a60405190565b9586946020860194469186611fed565b6120b5611fb8825190565b207f19457468657265756d205369676e6564204d6573736167653a0a3332000000005f52601c52603c5f2090565b61027f916120f09161237d565b90929192612418565b6121066110438383611caf565b156121665761211f60016113be845f611cc98682610966565b61213361212d611de5339390565b9161068f565b917f2f8788117e7eff1d82e926ec794901d17c78024a50270940304540a733656f0d61215e60405190565b5f90a4600190565b50505f90565b6121768282611caf565b156121665761218e5f6113be8482611cc98682610966565b61219c61212d611de5339390565b917ff6391f5c32d9c69d2a47ea670b442974b53935d1edc7fd64eb21e047a839171b61215e60405190565b6121d2611043611715565b6121d857565b638dfc202b60e01b5f908152600490fd5b6121f16121c7565b6102696121ff5f6001611349565b7f5db9ee0a495bf2e6ff9c91a7834c1ba4fdd244a5e8aa4e537bd38aeae4b073aa61223f335b604051918291826001600160a01b03909116815260200190565b0390a1565b6102696121e9565b612254611f01565b610269612262600180611349565b7f62e78cea01bee320cd4e420270b5ea74000d11b0c9f74754ebdbfc544b05a25861223f33612225565b61026961224c565b6001600160a01b0390911681526040810192916102699160200152565b906122bf6110438284611caf565b6122c7575050565b63e2517d3f60e01b5f90815291611442916004612294565b6122e76124c9565b6122ed57565b633ee5aeb560e01b5f908152600490fd5b61027f7f9b779b17422d0df92223018b32b4d1fa46e071723d6817e2486d003becc55f00610536565b61027f6122fe565b6123385f610536565b915b61234561027f835190565b8310156123775761236a612371916123646123608686611a14565b5190565b906124e6565b9260010190565b9161233a565b91505090565b905f91612388825190565b6123956113c86041610536565b036123be576123b79250602082015190606060408401519301515f1a90612549565b9192909190565b5090506123da6123d56123d05f610e04565b925190565b610536565b909160029190565b634e487b7160e01b5f52602160045260245ffd5b6004111561240057565b6123e2565b90610269826123f6565b61027f90610536565b6124215f612405565b61242a82612405565b03612433575050565b61243d6001612405565b61244682612405565b0361245c5763f645eedf60e01b5f908152600490fd5b6124666002612405565b61246f82612405565b03612497575f6114426124818461240f565b63fce698f760e01b835260048301526024820190565b6124aa6124a46003612405565b91612405565b146124b25750565b6335e2f38360e21b5f908152600491909152602490fd5b6124d85f61128a61027f612327565b611eae6113c861027f611ebd565b818110156124ff579061027f915f5260205260405f2090565b61027f915f5260205260405f2090565b6120676102699461253760609498979561252d608086019a5f870152565b60ff166020850152565b6040830152565b6040513d5f823e3d90fd5b90916125548461240f565b6125806113c87f7fffffffffffffffffffffffffffffff5d576e7357a4501ddfe92f46681b20a0610536565b116125fc57906125a16020945f949361259860405190565b9485948561250f565b838052039060015afa156125f7575f516125ba5f610e04565b6001600160a01b0381166001600160a01b038316146125e457506125dd5f610536565b90915f9190565b90506125ef5f610536565b909160019190565b61253e565b5050506126085f610e04565b916003919056fe68e79a7bf1e0bc45d0a330c573bc367f9cf464fd326078812f301165fbda4ef1a49807205ce4d355092ef5a8a18f56e8913cf4a201fbe287825b095693c21775a164736f6c634300081a000a",
  "linkReferences": {},
  "deployedLinkReferences": {}
}