{
  "_format": "hh-sol-artifact-1",
  "contractName": "RiskRegistryReader",
  "sourceName": "contracts/RiskRegistryReader.sol",
  "abi": [
    {
      "inputs": [
        {
          "internalType": "address",
          "name": "_targetProxy",
          "type": "address"
        }
      ],
      "stateMutability": "nonpayable",
      "type": "constructor"
    },
    {
      "inputs": [
        {
          "internalType": "bytes",
          "name": "data",
          "type": "bytes"
        }
      ],
      "name": "CallFailed",
      "type": "error"
    },
    {
      "inputs": [],
      "name": "InvalidProxy",
      "type": "error"
    },
    {
      "anonymous": false,
      "inputs": [
        {
          "indexed": false,
          "internalType": "bytes4",
          "name": "selector",
          "type": "bytes4"
        },
        {
          "indexed": false,
          "internalType": "bytes",
          "name": "reason",
          "type": "bytes"
        }
      ],
      "name": "ProxyCallFailed",
      "type": "event"
    },
    {
      "inputs": [
        {
          "internalType": "bytes",
          "name": "data",
          "type": "bytes"
        }
      ],
      "name": "decodeRiskProfile",
      "outputs": [
        {
          "internalType": "uint8",
          "name": "riskScore",
          "type": "uint8"
        },
        {
          "internalType": "uint8",
          "name": "tier",
          "type": "uint8"
        },
        {
          "internalType": "bytes32[]",
          "name": "tags",
          "type": "bytes32[]"
        },
        {
          "internalType": "uint256",
          "name": "lastUpdated",
          "type": "uint256"
        },
        {
          "internalType": "bool",
          "name": "isSanctioned",
          "type": "bool"
        }
      ],
      "stateMutability": "pure",
      "type": "function"
    },
    {
      "inputs": [
        {
          "internalType": "address",
          "name": "account",
          "type": "address"
        }
      ],
      "name": "getRiskScore",
      "outputs": [
        {
          "internalType": "uint8",
          "name": "",
          "type": "uint8"
        }
      ],
      "stateMutability": "view",
      "type": "function"
    },
    {
      "inputs": [
        {
          "internalType": "address",
          "name": "account",
          "type": "address"
        }
      ],
      "name": "getRiskTier",
      "outputs": [
        {
          "internalType": "enum RiskRegistryReader.RiskTier",
          "name": "",
          "type": "uint8"
        }
      ],
      "stateMutability": "view",
      "type": "function"
    },
    {
      "inputs": [
        {
          "internalType": "address",
          "name": "account",
          "type": "address"
        }
      ],
      "name": "getTags",
      "outputs": [
        {
          "internalType": "bytes32[]",
          "name": "",
          "type": "bytes32[]"
        }
      ],
      "stateMutability": "view",
      "type": "function"
    },
    {
      "inputs": [
        {
          "internalType": "address",
          "name": "account",
          "type": "address"
        }
      ],
      "name": "isSanctioned",
      "outputs": [
        {
          "internalType": "bool",
          "name": "",
          "type": "bool"
        }
      ],
      "stateMutability": "view",
      "type": "function"
    },
    {
      "inputs": [],
      "name": "readerVersion",
      "outputs": [
        {
          "internalType": "string",
          "name": "",
          "type": "string"
        }
      ],
      "stateMutability": "pure",
      "type": "function"
    },
    {
      "inputs": [
        {
          "internalType": "address",
          "name": "account",
          "type": "address"
        }
      ],
      "name": "riskProfiles",
      "outputs": [
        {
          "internalType": "uint256",
          "name": "riskScore",
          "type": "uint256"
        },
        {
          "internalType": "address",
          "name": "addr",
          "type": "address"
        },
        {
          "internalType": "uint32",
          "name": "lastUpdated",
          "type": "uint32"
        },
        {
          "internalType": "uint8",
          "name": "riskTier",
          "type": "uint8"
        },
        {
          "internalType": "uint8",
          "name": "sourceConfidence",
          "type": "uint8"
        },
        {
          "internalType": "bool",
          "name": "sanctioned",
          "type": "bool"
        },
        {
          "internalType": "bool",
          "name": "exists",
          "type": "bool"
        }
      ],
      "stateMutability": "view",
      "type": "function"
    },
    {
      "inputs": [],
      "name": "targetProxy",
      "outputs": [
        {
          "internalType": "address",
          "name": "",
          "type": "address"
        }
      ],
      "stateMutability": "view",
      "type": "function"
    },
    {
      "inputs": [],
      "name": "totalProfiles",
      "outputs": [
        {
          "internalType": "uint256",
          "name": "",
          "type": "uint256"
        }
      ],
      "stateMutability": "pure",
      "type": "function"
    }
  ],
  "bytecode": "0x60a06040523461003a576100196100146100cf565b610103565b604051610c8a61013582396080518181816102a10152610aaf0152610c8a90f35b5f80fd5b634e487b7160e01b5f52604160045260245ffd5b90601f01601f191681019081106001600160401b0382111761007357604052565b61003e565b9061008c61008560405190565b9283610052565b565b6001600160a01b031690565b90565b6001600160a01b0381160361003a57565b9050519061008c8261009d565b9060208282031261003a5761009a916100ae565b61009a610dbf803803806100e281610078565b9283398101906100bb565b61008e61009a61009a9290565b61009a906100ed565b61010f61008e5f6100fa565b6001600160a01b0382161461012357608052565b632e7973df60e21b5f908152600490fdfe60806040526004361015610011575f80fd5b5f3560e01c80632156c822146100a05780632af938d71461009b5780634c95da66146100965780635fc46f90146100915780639948b18d1461008c578063a3f2a02314610087578063d2adbe7914610082578063dc08706d1461007d5763df592f7d036100a5576104f9565b6104ca565b61049f565b610478565b6103b1565b61038a565b610352565b61028c565b610241565b5f80fd5b634e487b7160e01b5f52604160045260245ffd5b90601f01601f1916810190811067ffffffffffffffff8211176100df57604052565b6100a9565b906100f86100f160405190565b92836100bd565b565b67ffffffffffffffff81116100df57602090601f01601f19160190565b0190565b90825f939282370152565b9092919261013b610136826100fa565b6100e4565b93818552818301116100a5576100f891602085019061011b565b9080601f830112156100a55781602061017093359101610126565b90565b906020828203126100a557813567ffffffffffffffff81116100a5576101709201610155565b9052565b906101bd6101b66101ac845190565b8084529260200190565b9260200190565b905f5b8181106101cd5750505090565b9091926101ea6101e36001928651815260200190565b9460200190565b9291016101c0565b90610231610239916100f89698979561022460809661021a60a08801945f89019060ff169052565b60ff166020870152565b848203604086015261019d565b966060830152565b019015159052565b346100a55761027261025c610257366004610173565b610642565b9161026995939560405190565b958695866101f2565b0390f35b5f9103126100a557565b6001600160a01b031690565b346100a55761029c366004610276565b6040517f00000000000000000000000000000000000000000000000000000000000000006001600160a01b03168152602090f35b6001600160a01b0381165b036100a557565b905035906100f8826102d0565b906020828203126100a557610170916102e2565b634e487b7160e01b5f52602160045260245ffd5b6005111561032157565b610303565b906100f882610317565b61017090610326565b61019990610330565b6020810192916100f89190610339565b346100a55761027261036d6103683660046102ef565b61069c565b60405191829182610342565b60208082526101709291019061019d565b346100a5576102726103a56103a03660046102ef565b6107bd565b60405191829182610379565b346100a5576102726103cc6103c73660046102ef565b61087c565b936103dc97959793919360405190565b978897889081526001600160a01b0391909116602082015263ffffffff909116604082015260ff91821660608201529116608082015290151560a082015290151560c082015260e00190565b90825f9392825e0152565b61045461045d60209361011793610448815190565b80835293849260200190565b95869101610428565b601f01601f191690565b602080825261017092910190610433565b346100a557610488366004610276565b6102726104936109fa565b60405191829182610467565b346100a5576104af366004610276565b6102726104ba610a02565b6040519182918290815260200190565b346100a5576102726104e56104e03660046102ef565b610a0b565b6040519182918260ff909116815260200190565b346100a55761027261051461050f3660046102ef565b610a67565b60405191829182901515815260200190565b60ff81166102db565b905051906100f882610526565b67ffffffffffffffff81116100df5760208091020190565b806102db565b905051906100f882610554565b909291926105776101368261053c565b93818552602080860192028301928184116100a557915b83831061059b5750505050565b602080916105a9848661055a565b81520192019161058e565b9080601f830112156100a557815161017092602001610567565b8015156102db565b905051906100f8826105ce565b919060a0838203126100a5576105f9818461052f565b92610607826020830161052f565b92604082015167ffffffffffffffff81116100a55761062b846101709285016105b4565b93608061063b826060870161055a565b94016105d6565b61065b906020610650825190565b8183010191016105e3565b919394909293929190565b6101706101706101709290565b906020828203126100a5576101709161052f565b6106976101706101709260ff1690565b610326565b6106ec60046106e763264aed3360e11b5b6106d8856106ba60405190565b94859360208501908152016001600160a01b03909116815260200190565b602082018103825203826100bd565b610aab565b80516106ff6106fb6020610666565b9190565b101561073f575061073a6107356004610730610170946106d86107266343290d3160e11b90565b916106ba60405190565b610b4c565b610baa565b610687565b610170915080602061075261073a935190565b818301019101610673565b906020828203126100a557815167ffffffffffffffff81116100a55761017092016105b4565b906107906101368361053c565b918252565b369037565b906100f86107b06107aa84610783565b9361053c565b601f190160208401610795565b60046106e76107df926107ce606090565b506106d86305fc46f960e41b610726565b80516107ed6106fb5f610666565b1161080457506101706107ff5f610666565b61079a565b806020610812610170935190565b81830101910161075d565b61017090610280906001600160a01b031682565b6101709061081d565b61017090610831565b6108506101706101709290565b63ffffffff1690565b6101706101706101709260ff1690565b6108766101706101709290565b60ff1690565b9061089b60046106e763baf1e57f60e01b5b6106d8866106ba60405190565b80516108a96106fb5f610666565b11610920575b506108c560046107306343290d3160e11b61088e565b906108cf82610bce565b906108e16108dc84610bd7565b610843565b926108eb81610baa565b9261090d6108f883610bfa565b926109056106fb5f610666565b141591610859565b9594939261091b6064610869565b929190565b5f61094b9161092e3061083a565b604051938492839182916310ab641160e11b835260048301610467565b03915afa905f915f91815f915f93610998575b5061096d57505050505f6108af565b61097d6109839195939495610843565b94610859565b949392916109916064610869565b9190600190565b92509350506109b991503d805f833e6109b181836100bd565b8101906105e3565b929394909161095e565b90610790610136836100fa565b6109da600c6109c3565b6b189718171816b932b0b232b960a11b602082015290565b6101706109d0565b6101706109f2565b6101705f610666565b610a2060046106e763dc08706d60e01b6106ad565b8051610a2f6106fb6020610666565b1015610a585750610a536004610730610170936106d86107266343290d3160e11b90565b610bce565b61017091506020610752825190565b6004610a8861017092610a775f90565b506106d863a556a56360e01b610726565b610c38565b3d15610aa657610a9c3d6109c3565b903d5f602084013e565b606090565b5f807f000000000000000000000000000000000000000000000000000000000000000083519060208501905afa90610ae9610ae4610a8d565b921590565b610af1575090565b8151610aff6106fb5f610666565b14610b2b57610b2782610b1160405190565b63a5fa8d2b60e01b815291829160048301610467565b0390fd5b610b2790610b1160405190565b906020828203126100a5576101709161055a565b610b5581610aab565b8051610b646106fb6020610666565b1015610b7757610b2782610b1160405190565b61017091506020610b86825190565b818301019101610b38565b61017090610ba56106fb6101709460ff1690565b901c90565b610bc961017091610bb85f90565b50610bc36008610869565b90610b91565b610869565b61017090610869565b610be590610bc36011610869565b610bf667ffffffffffffffff610666565b1690565b610c0890610bc36010610869565b610c126001610666565b16610c206106fb6001610666565b1490565b906020828203126100a557610170916105d6565b610c4181610aab565b8051610c506106fb6020610666565b1015610c6357610b2782610b1160405190565b61017091506020610c72825190565b818301019101610c2456fea164736f6c634300081a000a",
  "linkReferences": {},
  "deployedLinkReferences": {}
}