{
  "_format": "hh-sol-artifact-1",
  "contractName": "ConfirmedOwner",
  "sourceName": "@chainlink/contracts/src/v0.8/shared/access/ConfirmedOwner.sol",
  "abi": [
    {
      "inputs": [
        {
          "internalType": "address",
          "name": "newOwner",
          "type": "address"
        }
      ],
      "stateMutability": "nonpayable",
      "type": "constructor"
    },
    {
      "anonymous": false,
      "inputs": [
        {
          "indexed": true,
          "internalType": "address",
          "name": "from",
          "type": "address"
        },
        {
          "indexed": true,
          "internalType": "address",
          "name": "to",
          "type": "address"
        }
      ],
      "name": "OwnershipTransferRequested",
      "type": "event"
    },
    {
      "anonymous": false,
      "inputs": [
        {
          "indexed": true,
          "internalType": "address",
          "name": "from",
          "type": "address"
        },
        {
          "indexed": true,
          "internalType": "address",
          "name": "to",
          "type": "address"
        }
      ],
      "name": "OwnershipTransferred",
      "type": "event"
    },
    {
      "inputs": [],
      "name": "acceptOwnership",
      "outputs": [],
      "stateMutability": "nonpayable",
      "type": "function"
    },
    {
      "inputs": [],
      "name": "owner",
      "outputs": [
        {
          "internalType": "address",
          "name": "",
          "type": "address"
        }
      ],
      "stateMutability": "view",
      "type": "function"
    },
    {
      "inputs": [
        {
          "internalType": "address",
          "name": "to",
          "type": "address"
        }
      ],
      "name": "transferOwnership",
      "outputs": [],
      "stateMutability": "nonpayable",
      "type": "function"
    }
  ],
  "bytecode": "0x60806040523461002a576100196100146100bf565b6100f3565b6040516103936102c2823961039390f35b5f80fd5b634e487b7160e01b5f52604160045260245ffd5b90601f01601f191681019081106001600160401b0382111761006357604052565b61002e565b9061007c61007560405190565b9283610042565b565b6001600160a01b031690565b90565b6001600160a01b0381160361002a57565b9050519061007c8261008d565b9060208282031261002a5761008a9161009e565b61008a610655803803806100d281610068565b9283398101906100ab565b61007e61008a61008a9290565b61008a906100dd565b61007c906101005f6100ea565b906101a8565b1561010d57565b60405162461bcd60e51b815260206004820152601860248201527f43616e6e6f7420736574206f776e657220746f207a65726f00000000000000006044820152606490fd5b61008a9061007e906001600160a01b031682565b61008a90610152565b61008a90610166565b9061018861008a6101a49261016f565b82546001600160a01b0319166001600160a01b03919091161790565b9055565b6101dd9061007e6101b85f6100ea565b916101d76001600160a01b0384166001600160a01b0383161415610106565b5f610178565b6001600160a01b038216036101ef5750565b61007c90610257565b156101ff57565b60405162461bcd60e51b815260206004820152601760248201527f43616e6e6f74207472616e7366657220746f2073656c660000000000000000006044820152606490fd5b61008a9061007e565b61008a9054610244565b61026c336001600160a01b03831614156101f8565b610277816001610178565b61029161028b6102865f61024d565b61016f565b9161016f565b907fed8889f560326eb138920d842192f0eb3dd22b4f139c87a2c57538e05bae12786102bc60405190565b5f90a356fe60806040526004361015610011575f80fd5b5f3560e01c806379ba5097146100405780638da5cb5b1461003b5763f2fde38b03610045576100ec565b610085565b610053565b5f80fd5b5f91031261004557565b3461004557610063366004610049565b61006b6101b5565b604051005b0390f35b6001600160a01b031690565b90565b565b3461004557610095366004610049565b6100706100a0610243565b604051918291826001600160a01b03909116815260200190565b6001600160a01b0381160361004557565b90503590610083826100ba565b9060208282031261004557610080916100cb565b346100455761006b6100ff3660046100d8565b610266565b1561010b57565b60405162461bcd60e51b815260206004820152601660248201527526bab9ba10313290383937b837b9b2b21037bbb732b960511b6044820152606490fd5b61008090610074906001600160a01b031682565b61008090610149565b6100809061015d565b9061017f61008061019b92610166565b82546001600160a01b0319166001600160a01b03919091161790565b9055565b6100746100806100809290565b6100809061019f565b6101d46101cd6100746001546001600160a01b031690565b3314610104565b61020a6101e85f546001600160a01b031690565b6101f2335f61016f565b6102056101fe5f6101ac565b600161016f565b610166565b61021333610166565b907f8be0079c531659141344cd1fd0a4f28419497f9722a3daafe3b4186f6b6457e061023e60405190565b5f90a3565b5f546001600160a01b031690565b6100839061025d6102b4565b6100839061031e565b61008390610251565b1561027657565b60405162461bcd60e51b815260206004820152601660248201527527b7363c9031b0b63630b1363290313c9037bbb732b960511b6044820152606490fd5b6100836102cb6100745f546001600160a01b031690565b331461026f565b156102d957565b60405162461bcd60e51b815260206004820152601760248201527f43616e6e6f74207472616e7366657220746f2073656c660000000000000000006044820152606490fd5b610333336001600160a01b03831614156102d2565b61033e81600161016f565b61035b6103556102055f546001600160a01b031690565b91610166565b907fed8889f560326eb138920d842192f0eb3dd22b4f139c87a2c57538e05bae127861023e6040519056fea164736f6c634300081a000a",
  "linkReferences": {},
  "deployedLinkReferences": {}
}